{
	"contracts/agency.sol": {
		"BuildAgency": {
			"abi": [
				{
					"inputs": [
						{
							"internalType": "address",
							"name": "adminADR",
							"type": "address"
						}
					],
					"stateMutability": "nonpayable",
					"type": "constructor"
				},
				{
					"inputs": [
						{
							"internalType": "uint256",
							"name": "giftID",
							"type": "uint256"
						}
					],
					"name": "acceptGift",
					"outputs": [],
					"stateMutability": "nonpayable",
					"type": "function"
				},
				{
					"inputs": [
						{
							"internalType": "uint256",
							"name": "saleID",
							"type": "uint256"
						},
						{
							"internalType": "uint256",
							"name": "priceID",
							"type": "uint256"
						}
					],
					"name": "addPrice",
					"outputs": [],
					"stateMutability": "payable",
					"type": "function"
				},
				{
					"inputs": [
						{
							"internalType": "uint256",
							"name": "saleID",
							"type": "uint256"
						}
					],
					"name": "addPrice",
					"outputs": [],
					"stateMutability": "payable",
					"type": "function"
				},
				{
					"inputs": [],
					"name": "admin",
					"outputs": [
						{
							"internalType": "address",
							"name": "",
							"type": "address"
						}
					],
					"stateMutability": "view",
					"type": "function"
				},
				{
					"inputs": [
						{
							"internalType": "uint256",
							"name": "",
							"type": "uint256"
						}
					],
					"name": "buildings",
					"outputs": [
						{
							"internalType": "uint256",
							"name": "buildID",
							"type": "uint256"
						},
						{
							"internalType": "address",
							"name": "owner",
							"type": "address"
						},
						{
							"internalType": "string",
							"name": "info",
							"type": "string"
						},
						{
							"internalType": "uint256",
							"name": "square",
							"type": "uint256"
						},
						{
							"internalType": "bool",
							"name": "giftSTATE",
							"type": "bool"
						},
						{
							"internalType": "bool",
							"name": "saleSTATE",
							"type": "bool"
						},
						{
							"internalType": "bool",
							"name": "arestSTATE",
							"type": "bool"
						}
					],
					"stateMutability": "view",
					"type": "function"
				},
				{
					"inputs": [
						{
							"internalType": "uint256",
							"name": "giftID",
							"type": "uint256"
						}
					],
					"name": "cancelGift",
					"outputs": [],
					"stateMutability": "nonpayable",
					"type": "function"
				},
				{
					"inputs": [
						{
							"internalType": "uint256",
							"name": "buildID",
							"type": "uint256"
						},
						{
							"internalType": "bool",
							"name": "_newarest",
							"type": "bool"
						}
					],
					"name": "changeAREST",
					"outputs": [],
					"stateMutability": "nonpayable",
					"type": "function"
				},
				{
					"inputs": [
						{
							"internalType": "address",
							"name": "_owner",
							"type": "address"
						},
						{
							"internalType": "string",
							"name": "_info",
							"type": "string"
						},
						{
							"internalType": "uint256",
							"name": "_square",
							"type": "uint256"
						}
					],
					"name": "createBuild",
					"outputs": [],
					"stateMutability": "nonpayable",
					"type": "function"
				},
				{
					"inputs": [
						{
							"internalType": "uint256",
							"name": "buildID",
							"type": "uint256"
						},
						{
							"internalType": "address",
							"name": "_adrTo",
							"type": "address"
						}
					],
					"name": "createGift",
					"outputs": [],
					"stateMutability": "nonpayable",
					"type": "function"
				},
				{
					"inputs": [
						{
							"internalType": "uint256",
							"name": "buildID",
							"type": "uint256"
						},
						{
							"internalType": "uint256",
							"name": "_price",
							"type": "uint256"
						}
					],
					"name": "createSale",
					"outputs": [],
					"stateMutability": "nonpayable",
					"type": "function"
				},
				{
					"inputs": [
						{
							"internalType": "uint256",
							"name": "saleID",
							"type": "uint256"
						}
					],
					"name": "deletePrice",
					"outputs": [],
					"stateMutability": "payable",
					"type": "function"
				},
				{
					"inputs": [],
					"name": "giftTime",
					"outputs": [
						{
							"internalType": "uint256",
							"name": "",
							"type": "uint256"
						}
					],
					"stateMutability": "view",
					"type": "function"
				},
				{
					"inputs": [
						{
							"internalType": "uint256",
							"name": "",
							"type": "uint256"
						}
					],
					"name": "gifts",
					"outputs": [
						{
							"internalType": "uint256",
							"name": "giftID",
							"type": "uint256"
						},
						{
							"internalType": "uint256",
							"name": "buildID",
							"type": "uint256"
						},
						{
							"internalType": "address",
							"name": "_adrFrom",
							"type": "address"
						},
						{
							"internalType": "address",
							"name": "_adrTo",
							"type": "address"
						},
						{
							"internalType": "uint256",
							"name": "time",
							"type": "uint256"
						},
						{
							"internalType": "enum BuildAgency.giftSTAT",
							"name": "status",
							"type": "uint8"
						}
					],
					"stateMutability": "view",
					"type": "function"
				},
				{
					"inputs": [
						{
							"internalType": "uint256",
							"name": "giftID",
							"type": "uint256"
						}
					],
					"name": "refuseGift",
					"outputs": [],
					"stateMutability": "nonpayable",
					"type": "function"
				},
				{
					"inputs": [
						{
							"internalType": "uint256",
							"name": "",
							"type": "uint256"
						}
					],
					"name": "sales",
					"outputs": [
						{
							"internalType": "uint256",
							"name": "buildID",
							"type": "uint256"
						},
						{
							"internalType": "address",
							"name": "owner",
							"type": "address"
						},
						{
							"internalType": "address",
							"name": "newOwner",
							"type": "address"
						},
						{
							"internalType": "uint256",
							"name": "price",
							"type": "uint256"
						}
					],
					"stateMutability": "view",
					"type": "function"
				}
			],
			"devdoc": {
				"kind": "dev",
				"methods": {},
				"version": 1
			},
			"evm": {
				"assembly": "    /* \"contracts/agency.sol\":71:7136  contract BuildAgency {... */\n  mstore(0x40, 0x80)\n    /* \"contracts/agency.sol\":892:894  60 */\n  0x3c\n    /* \"contracts/agency.sol\":869:894  uint public giftTime = 60 */\n  0x04\n  sstore\n    /* \"contracts/agency.sol\":1444:1544  constructor(address adminADR){... */\n  callvalue\n  dup1\n  iszero\n  tag_1\n  jumpi\n  0x00\n  dup1\n  revert\ntag_1:\n  pop\n  mload(0x40)\n  sub(codesize, bytecodeSize)\n  dup1\n  bytecodeSize\n  dup4\n  codecopy\n  dup2\n  dup2\n  add\n  0x40\n  mstore\n  dup2\n  add\n  swap1\n  tag_2\n  swap2\n  swap1\n  tag_3\n  jump\t// in\ntag_2:\n    /* \"contracts/agency.sol\":1528:1536  adminADR */\n  dup1\n    /* \"contracts/agency.sol\":1520:1525  admin */\n  0x03\n  0x00\n    /* \"contracts/agency.sol\":1520:1536  admin = adminADR */\n  0x0100\n  exp\n  dup2\n  sload\n  dup2\n  0xffffffffffffffffffffffffffffffffffffffff\n  mul\n  not\n  and\n  swap1\n  dup4\n  0xffffffffffffffffffffffffffffffffffffffff\n  and\n  mul\n  or\n  swap1\n  sstore\n  pop\n    /* \"contracts/agency.sol\":1444:1544  constructor(address adminADR){... */\n  pop\n    /* \"contracts/agency.sol\":71:7136  contract BuildAgency {... */\n  jump(tag_6)\n    /* \"#utility.yul\":88:205   */\ntag_8:\n    /* \"#utility.yul\":197:198   */\n  0x00\n    /* \"#utility.yul\":194:195   */\n  dup1\n    /* \"#utility.yul\":187:199   */\n  revert\n    /* \"#utility.yul\":334:460   */\ntag_10:\n    /* \"#utility.yul\":371:378   */\n  0x00\n    /* \"#utility.yul\":411:453   */\n  0xffffffffffffffffffffffffffffffffffffffff\n    /* \"#utility.yul\":404:409   */\n  dup3\n    /* \"#utility.yul\":400:454   */\n  and\n    /* \"#utility.yul\":389:454   */\n  swap1\n  pop\n    /* \"#utility.yul\":334:460   */\n  swap2\n  swap1\n  pop\n  jump\t// out\n    /* \"#utility.yul\":466:562   */\ntag_11:\n    /* \"#utility.yul\":503:510   */\n  0x00\n    /* \"#utility.yul\":532:556   */\n  tag_20\n    /* \"#utility.yul\":550:555   */\n  dup3\n    /* \"#utility.yul\":532:556   */\n  tag_10\n  jump\t// in\ntag_20:\n    /* \"#utility.yul\":521:556   */\n  swap1\n  pop\n    /* \"#utility.yul\":466:562   */\n  swap2\n  swap1\n  pop\n  jump\t// out\n    /* \"#utility.yul\":568:690   */\ntag_12:\n    /* \"#utility.yul\":641:665   */\n  tag_22\n    /* \"#utility.yul\":659:664   */\n  dup2\n    /* \"#utility.yul\":641:665   */\n  tag_11\n  jump\t// in\ntag_22:\n    /* \"#utility.yul\":634:639   */\n  dup2\n    /* \"#utility.yul\":631:666   */\n  eq\n    /* \"#utility.yul\":621:684   */\n  tag_23\n  jumpi\n    /* \"#utility.yul\":680:681   */\n  0x00\n    /* \"#utility.yul\":677:678   */\n  dup1\n    /* \"#utility.yul\":670:682   */\n  revert\n    /* \"#utility.yul\":621:684   */\ntag_23:\n    /* \"#utility.yul\":568:690   */\n  pop\n  jump\t// out\n    /* \"#utility.yul\":696:839   */\ntag_13:\n    /* \"#utility.yul\":753:758   */\n  0x00\n    /* \"#utility.yul\":784:790   */\n  dup2\n    /* \"#utility.yul\":778:791   */\n  mload\n    /* \"#utility.yul\":769:791   */\n  swap1\n  pop\n    /* \"#utility.yul\":800:833   */\n  tag_25\n    /* \"#utility.yul\":827:832   */\n  dup2\n    /* \"#utility.yul\":800:833   */\n  tag_12\n  jump\t// in\ntag_25:\n    /* \"#utility.yul\":696:839   */\n  swap3\n  swap2\n  pop\n  pop\n  jump\t// out\n    /* \"#utility.yul\":845:1196   */\ntag_3:\n    /* \"#utility.yul\":915:921   */\n  0x00\n    /* \"#utility.yul\":964:966   */\n  0x20\n    /* \"#utility.yul\":952:961   */\n  dup3\n    /* \"#utility.yul\":943:950   */\n  dup5\n    /* \"#utility.yul\":939:962   */\n  sub\n    /* \"#utility.yul\":935:967   */\n  slt\n    /* \"#utility.yul\":932:1051   */\n  iszero\n  tag_27\n  jumpi\n    /* \"#utility.yul\":970:1049   */\n  tag_28\n  tag_8\n  jump\t// in\ntag_28:\n    /* \"#utility.yul\":932:1051   */\ntag_27:\n    /* \"#utility.yul\":1090:1091   */\n  0x00\n    /* \"#utility.yul\":1115:1179   */\n  tag_29\n    /* \"#utility.yul\":1171:1178   */\n  dup5\n    /* \"#utility.yul\":1162:1168   */\n  dup3\n    /* \"#utility.yul\":1151:1160   */\n  dup6\n    /* \"#utility.yul\":1147:1169   */\n  add\n    /* \"#utility.yul\":1115:1179   */\n  tag_13\n  jump\t// in\ntag_29:\n    /* \"#utility.yul\":1105:1179   */\n  swap2\n  pop\n    /* \"#utility.yul\":1061:1189   */\n  pop\n    /* \"#utility.yul\":845:1196   */\n  swap3\n  swap2\n  pop\n  pop\n  jump\t// out\n    /* \"contracts/agency.sol\":71:7136  contract BuildAgency {... */\ntag_6:\n  dataSize(sub_0)\n  dup1\n  dataOffset(sub_0)\n  0x00\n  codecopy\n  0x00\n  return\nstop\n\nsub_0: assembly {\n        /* \"contracts/agency.sol\":71:7136  contract BuildAgency {... */\n      mstore(0x40, 0x80)\n      jumpi(tag_1, lt(calldatasize, 0x04))\n      shr(0xe0, calldataload(0x00))\n      dup1\n      0x8ee69ae8\n      gt\n      tag_17\n      jumpi\n      dup1\n      0xd6065935\n      gt\n      tag_18\n      jumpi\n      dup1\n      0xd6065935\n      eq\n      tag_13\n      jumpi\n      dup1\n      0xdb4c049d\n      eq\n      tag_14\n      jumpi\n      dup1\n      0xe9f0ee56\n      eq\n      tag_15\n      jumpi\n      dup1\n      0xf851a440\n      eq\n      tag_16\n      jumpi\n      jump(tag_1)\n    tag_18:\n      dup1\n      0x8ee69ae8\n      eq\n      tag_9\n      jumpi\n      dup1\n      0x9a22ed8f\n      eq\n      tag_10\n      jumpi\n      dup1\n      0xb5f522f7\n      eq\n      tag_11\n      jumpi\n      dup1\n      0xd0ab383a\n      eq\n      tag_12\n      jumpi\n      jump(tag_1)\n    tag_17:\n      dup1\n      0x4c96a062\n      gt\n      tag_19\n      jumpi\n      dup1\n      0x4c96a062\n      eq\n      tag_5\n      jumpi\n      dup1\n      0x57279353\n      eq\n      tag_6\n      jumpi\n      dup1\n      0x58c97164\n      eq\n      tag_7\n      jumpi\n      dup1\n      0x6019061b\n      eq\n      tag_8\n      jumpi\n      jump(tag_1)\n    tag_19:\n      dup1\n      0x06238e6e\n      eq\n      tag_2\n      jumpi\n      dup1\n      0x0a483421\n      eq\n      tag_3\n      jumpi\n      dup1\n      0x2a50fe2c\n      eq\n      tag_4\n      jumpi\n    tag_1:\n      0x00\n      dup1\n      revert\n        /* \"contracts/agency.sol\":1873:2077  function changeAREST(uint buildID, bool _newarest) public isAdmin{... */\n    tag_2:\n      callvalue\n      dup1\n      iszero\n      tag_20\n      jumpi\n      0x00\n      dup1\n      revert\n    tag_20:\n      pop\n      tag_21\n      0x04\n      dup1\n      calldatasize\n      sub\n      dup2\n      add\n      swap1\n      tag_22\n      swap2\n      swap1\n      tag_23\n      jump\t// in\n    tag_22:\n      tag_24\n      jump\t// in\n    tag_21:\n      stop\n        /* \"contracts/agency.sol\":869:894  uint public giftTime = 60 */\n    tag_3:\n      callvalue\n      dup1\n      iszero\n      tag_25\n      jumpi\n      0x00\n      dup1\n      revert\n    tag_25:\n      pop\n      tag_26\n      tag_27\n      jump\t// in\n    tag_26:\n      mload(0x40)\n      tag_28\n      swap2\n      swap1\n      tag_29\n      jump\t// in\n    tag_28:\n      mload(0x40)\n      dup1\n      swap2\n      sub\n      swap1\n      return\n        /* \"contracts/agency.sol\":5607:6204  function deletePrice(uint saleID) public payable {... */\n    tag_4:\n      tag_30\n      0x04\n      dup1\n      calldatasize\n      sub\n      dup2\n      add\n      swap1\n      tag_31\n      swap2\n      swap1\n      tag_32\n      jump\t// in\n    tag_31:\n      tag_33\n      jump\t// in\n    tag_30:\n      stop\n        /* \"contracts/agency.sol\":759:783  Build[] public buildings */\n    tag_5:\n      callvalue\n      dup1\n      iszero\n      tag_34\n      jumpi\n      0x00\n      dup1\n      revert\n    tag_34:\n      pop\n      tag_35\n      0x04\n      dup1\n      calldatasize\n      sub\n      dup2\n      add\n      swap1\n      tag_36\n      swap2\n      swap1\n      tag_32\n      jump\t// in\n    tag_36:\n      tag_37\n      jump\t// in\n    tag_35:\n      mload(0x40)\n      tag_38\n      swap8\n      swap7\n      swap6\n      swap5\n      swap4\n      swap3\n      swap2\n      swap1\n      tag_39\n      jump\t// in\n    tag_38:\n      mload(0x40)\n      dup1\n      swap2\n      sub\n      swap1\n      return\n        /* \"contracts/agency.sol\":6210:7133  function addPrice(uint saleID, uint priceID) public payable {... */\n    tag_6:\n      tag_40\n      0x04\n      dup1\n      calldatasize\n      sub\n      dup2\n      add\n      swap1\n      tag_41\n      swap2\n      swap1\n      tag_42\n      jump\t// in\n    tag_41:\n      tag_43\n      jump\t// in\n    tag_40:\n      stop\n        /* \"contracts/agency.sol\":2101:2544  function createGift(uint buildID, address _adrTo) public onlyOwner(buildID) defaultSTATUS(buildID){... */\n    tag_7:\n      callvalue\n      dup1\n      iszero\n      tag_44\n      jumpi\n      0x00\n      dup1\n      revert\n    tag_44:\n      pop\n      tag_45\n      0x04\n      dup1\n      calldatasize\n      sub\n      dup2\n      add\n      swap1\n      tag_46\n      swap2\n      swap1\n      tag_47\n      jump\t// in\n    tag_46:\n      tag_48\n      jump\t// in\n    tag_45:\n      stop\n        /* \"contracts/agency.sol\":4348:4756  function createSale(uint buildID, uint _price) public onlyOwner(buildID) defaultSTATUS(buildID){... */\n    tag_8:\n      callvalue\n      dup1\n      iszero\n      tag_49\n      jumpi\n      0x00\n      dup1\n      revert\n    tag_49:\n      pop\n      tag_50\n      0x04\n      dup1\n      calldatasize\n      sub\n      dup2\n      add\n      swap1\n      tag_51\n      swap2\n      swap1\n      tag_42\n      jump\t// in\n    tag_51:\n      tag_52\n      jump\t// in\n    tag_50:\n      stop\n        /* \"contracts/agency.sol\":2556:3092  function cancelGift(uint giftID) public{... */\n    tag_9:\n      callvalue\n      dup1\n      iszero\n      tag_53\n      jumpi\n      0x00\n      dup1\n      revert\n    tag_53:\n      pop\n      tag_54\n      0x04\n      dup1\n      calldatasize\n      sub\n      dup2\n      add\n      swap1\n      tag_55\n      swap2\n      swap1\n      tag_32\n      jump\t// in\n    tag_55:\n      tag_56\n      jump\t// in\n    tag_54:\n      stop\n        /* \"contracts/agency.sol\":1567:1861  function createBuild(address _owner, string memory _info, uint _square) public isAdmin {... */\n    tag_10:\n      callvalue\n      dup1\n      iszero\n      tag_57\n      jumpi\n      0x00\n      dup1\n      revert\n    tag_57:\n      pop\n      tag_58\n      0x04\n      dup1\n      calldatasize\n      sub\n      dup2\n      add\n      swap1\n      tag_59\n      swap2\n      swap1\n      tag_60\n      jump\t// in\n    tag_59:\n      tag_61\n      jump\t// in\n    tag_58:\n      stop\n        /* \"contracts/agency.sol\":816:835  Sale[] public sales */\n    tag_11:\n      callvalue\n      dup1\n      iszero\n      tag_62\n      jumpi\n      0x00\n      dup1\n      revert\n    tag_62:\n      pop\n      tag_63\n      0x04\n      dup1\n      calldatasize\n      sub\n      dup2\n      add\n      swap1\n      tag_64\n      swap2\n      swap1\n      tag_32\n      jump\t// in\n    tag_64:\n      tag_65\n      jump\t// in\n    tag_63:\n      mload(0x40)\n      tag_66\n      swap5\n      swap4\n      swap3\n      swap2\n      swap1\n      tag_67\n      jump\t// in\n    tag_66:\n      mload(0x40)\n      dup1\n      swap2\n      sub\n      swap1\n      return\n        /* \"contracts/agency.sol\":3100:3771  function acceptGift(uint giftID) public{... */\n    tag_12:\n      callvalue\n      dup1\n      iszero\n      tag_68\n      jumpi\n      0x00\n      dup1\n      revert\n    tag_68:\n      pop\n      tag_69\n      0x04\n      dup1\n      calldatasize\n      sub\n      dup2\n      add\n      swap1\n      tag_70\n      swap2\n      swap1\n      tag_32\n      jump\t// in\n    tag_70:\n      tag_71\n      jump\t// in\n    tag_69:\n      stop\n        /* \"contracts/agency.sol\":790:809  Gift[] public gifts */\n    tag_13:\n      callvalue\n      dup1\n      iszero\n      tag_72\n      jumpi\n      0x00\n      dup1\n      revert\n    tag_72:\n      pop\n      tag_73\n      0x04\n      dup1\n      calldatasize\n      sub\n      dup2\n      add\n      swap1\n      tag_74\n      swap2\n      swap1\n      tag_32\n      jump\t// in\n    tag_74:\n      tag_75\n      jump\t// in\n    tag_73:\n      mload(0x40)\n      tag_76\n      swap7\n      swap6\n      swap5\n      swap4\n      swap3\n      swap2\n      swap1\n      tag_77\n      jump\t// in\n    tag_76:\n      mload(0x40)\n      dup1\n      swap2\n      sub\n      swap1\n      return\n        /* \"contracts/agency.sol\":3783:4325  function refuseGift(uint giftID) public {... */\n    tag_14:\n      callvalue\n      dup1\n      iszero\n      tag_78\n      jumpi\n      0x00\n      dup1\n      revert\n    tag_78:\n      pop\n      tag_79\n      0x04\n      dup1\n      calldatasize\n      sub\n      dup2\n      add\n      swap1\n      tag_80\n      swap2\n      swap1\n      tag_32\n      jump\t// in\n    tag_80:\n      tag_81\n      jump\t// in\n    tag_79:\n      stop\n        /* \"contracts/agency.sol\":4766:5599  function addPrice(uint saleID) public payable {... */\n    tag_15:\n      tag_82\n      0x04\n      dup1\n      calldatasize\n      sub\n      dup2\n      add\n      swap1\n      tag_83\n      swap2\n      swap1\n      tag_32\n      jump\t// in\n    tag_83:\n      tag_84\n      jump\t// in\n    tag_82:\n      stop\n        /* \"contracts/agency.sol\":842:862  address public admin */\n    tag_16:\n      callvalue\n      dup1\n      iszero\n      tag_85\n      jumpi\n      0x00\n      dup1\n      revert\n    tag_85:\n      pop\n      tag_86\n      tag_87\n      jump\t// in\n    tag_86:\n      mload(0x40)\n      tag_88\n      swap2\n      swap1\n      tag_89\n      jump\t// in\n    tag_88:\n      mload(0x40)\n      dup1\n      swap2\n      sub\n      swap1\n      return\n        /* \"contracts/agency.sol\":1873:2077  function changeAREST(uint buildID, bool _newarest) public isAdmin{... */\n    tag_24:\n        /* \"contracts/agency.sol\":955:960  admin */\n      0x03\n      0x00\n      swap1\n      sload\n      swap1\n      0x0100\n      exp\n      swap1\n      div\n      0xffffffffffffffffffffffffffffffffffffffff\n      and\n        /* \"contracts/agency.sol\":941:960  msg.sender == admin */\n      0xffffffffffffffffffffffffffffffffffffffff\n      and\n        /* \"contracts/agency.sol\":941:951  msg.sender */\n      caller\n        /* \"contracts/agency.sol\":941:960  msg.sender == admin */\n      0xffffffffffffffffffffffffffffffffffffffff\n      and\n      eq\n        /* \"contracts/agency.sol\":933:982  require(msg.sender == admin, \"You are not admin\") */\n      tag_91\n      jumpi\n      mload(0x40)\n      0x08c379a000000000000000000000000000000000000000000000000000000000\n      dup2\n      mstore\n      0x04\n      add\n      tag_92\n      swap1\n      tag_93\n      jump\t// in\n    tag_92:\n      mload(0x40)\n      dup1\n      swap2\n      sub\n      swap1\n      revert\n    tag_91:\n        /* \"contracts/agency.sol\":1970:1979  buildings */\n      0x00\n        /* \"contracts/agency.sol\":1980:1987  buildID */\n      dup3\n        /* \"contracts/agency.sol\":1970:1988  buildings[buildID] */\n      dup2\n      sload\n      dup2\n      lt\n      tag_95\n      jumpi\n      tag_96\n      tag_97\n      jump\t// in\n    tag_96:\n    tag_95:\n      swap1\n      0x00\n      mstore\n      keccak256(0x00, 0x20)\n      swap1\n      0x05\n      mul\n      add\n        /* \"contracts/agency.sol\":1970:1999  buildings[buildID].arestSTATE */\n      0x04\n      add\n      0x02\n      swap1\n      sload\n      swap1\n      0x0100\n      exp\n      swap1\n      div\n      0xff\n      and\n        /* \"contracts/agency.sol\":1957:1999  _newarest != buildings[buildID].arestSTATE */\n      iszero\n      iszero\n        /* \"contracts/agency.sol\":1957:1966  _newarest */\n      dup2\n        /* \"contracts/agency.sol\":1957:1999  _newarest != buildings[buildID].arestSTATE */\n      iszero\n      iszero\n      sub\n        /* \"contracts/agency.sol\":1949:2017  require(_newarest != buildings[buildID].arestSTATE,\"the same arest\") */\n      tag_99\n      jumpi\n      mload(0x40)\n      0x08c379a000000000000000000000000000000000000000000000000000000000\n      dup2\n      mstore\n      0x04\n      add\n      tag_100\n      swap1\n      tag_101\n      jump\t// in\n    tag_100:\n      mload(0x40)\n      dup1\n      swap2\n      sub\n      swap1\n      revert\n    tag_99:\n        /* \"contracts/agency.sol\":2060:2069  _newarest */\n      dup1\n        /* \"contracts/agency.sol\":2028:2037  buildings */\n      0x00\n        /* \"contracts/agency.sol\":2038:2045  buildID */\n      dup4\n        /* \"contracts/agency.sol\":2028:2046  buildings[buildID] */\n      dup2\n      sload\n      dup2\n      lt\n      tag_102\n      jumpi\n      tag_103\n      tag_97\n      jump\t// in\n    tag_103:\n    tag_102:\n      swap1\n      0x00\n      mstore\n      keccak256(0x00, 0x20)\n      swap1\n      0x05\n      mul\n      add\n        /* \"contracts/agency.sol\":2028:2057  buildings[buildID].arestSTATE */\n      0x04\n      add\n      0x02\n        /* \"contracts/agency.sol\":2028:2069  buildings[buildID].arestSTATE = _newarest */\n      0x0100\n      exp\n      dup2\n      sload\n      dup2\n      0xff\n      mul\n      not\n      and\n      swap1\n      dup4\n      iszero\n      iszero\n      mul\n      or\n      swap1\n      sstore\n      pop\n        /* \"contracts/agency.sol\":1873:2077  function changeAREST(uint buildID, bool _newarest) public isAdmin{... */\n      pop\n      pop\n      jump\t// out\n        /* \"contracts/agency.sol\":869:894  uint public giftTime = 60 */\n    tag_27:\n      sload(0x04)\n      dup2\n      jump\t// out\n        /* \"contracts/agency.sol\":5607:6204  function deletePrice(uint saleID) public payable {... */\n    tag_33:\n        /* \"contracts/agency.sol\":5684:5689  sales */\n      0x02\n        /* \"contracts/agency.sol\":5684:5696  sales.length */\n      dup1\n      sload\n      swap1\n      pop\n        /* \"contracts/agency.sol\":5675:5681  saleID */\n      dup2\n        /* \"contracts/agency.sol\":5675:5696  saleID < sales.length */\n      lt\n        /* \"contracts/agency.sol\":5667:5718  require(saleID < sales.length,\"wrong saleID value\") */\n      tag_106\n      jumpi\n      mload(0x40)\n      0x08c379a000000000000000000000000000000000000000000000000000000000\n      dup2\n      mstore\n      0x04\n      add\n      tag_107\n      swap1\n      tag_108\n      jump\t// in\n    tag_107:\n      mload(0x40)\n      dup1\n      swap2\n      sub\n      swap1\n      revert\n    tag_106:\n        /* \"contracts/agency.sol\":5771:5772  0 */\n      0x00\n        /* \"contracts/agency.sol\":5737:5773  sales[saleID].newOwner == address(0) */\n      0xffffffffffffffffffffffffffffffffffffffff\n      and\n        /* \"contracts/agency.sol\":5737:5742  sales */\n      0x02\n        /* \"contracts/agency.sol\":5743:5749  saleID */\n      dup3\n        /* \"contracts/agency.sol\":5737:5750  sales[saleID] */\n      dup2\n      sload\n      dup2\n      lt\n      tag_109\n      jumpi\n      tag_110\n      tag_97\n      jump\t// in\n    tag_110:\n    tag_109:\n      swap1\n      0x00\n      mstore\n      keccak256(0x00, 0x20)\n      swap1\n      0x06\n      mul\n      add\n        /* \"contracts/agency.sol\":5737:5759  sales[saleID].newOwner */\n      0x02\n      add\n      0x00\n      swap1\n      sload\n      swap1\n      0x0100\n      exp\n      swap1\n      div\n      0xffffffffffffffffffffffffffffffffffffffff\n      and\n        /* \"contracts/agency.sol\":5737:5773  sales[saleID].newOwner == address(0) */\n      0xffffffffffffffffffffffffffffffffffffffff\n      and\n      eq\n        /* \"contracts/agency.sol\":5729:5792  require(sales[saleID].newOwner == address(0), \"Sale is closed\") */\n      tag_112\n      jumpi\n      mload(0x40)\n      0x08c379a000000000000000000000000000000000000000000000000000000000\n      dup2\n      mstore\n      0x04\n      add\n      tag_113\n      swap1\n      tag_114\n      jump\t// in\n    tag_113:\n      mload(0x40)\n      dup1\n      swap2\n      sub\n      swap1\n      revert\n    tag_112:\n        /* \"contracts/agency.sol\":5808:5814  uint i */\n      0x00\n        /* \"contracts/agency.sol\":5803:6195  for (uint i = 0; i < sales[saleID].buyers.length; i++){... */\n    tag_115:\n        /* \"contracts/agency.sol\":5824:5829  sales */\n      0x02\n        /* \"contracts/agency.sol\":5830:5836  saleID */\n      dup3\n        /* \"contracts/agency.sol\":5824:5837  sales[saleID] */\n      dup2\n      sload\n      dup2\n      lt\n      tag_118\n      jumpi\n      tag_119\n      tag_97\n      jump\t// in\n    tag_119:\n    tag_118:\n      swap1\n      0x00\n      mstore\n      keccak256(0x00, 0x20)\n      swap1\n      0x06\n      mul\n      add\n        /* \"contracts/agency.sol\":5824:5844  sales[saleID].buyers */\n      0x04\n      add\n        /* \"contracts/agency.sol\":5824:5851  sales[saleID].buyers.length */\n      dup1\n      sload\n      swap1\n      pop\n        /* \"contracts/agency.sol\":5820:5821  i */\n      dup2\n        /* \"contracts/agency.sol\":5820:5851  i < sales[saleID].buyers.length */\n      lt\n        /* \"contracts/agency.sol\":5803:6195  for (uint i = 0; i < sales[saleID].buyers.length; i++){... */\n      iszero\n      tag_116\n      jumpi\n        /* \"contracts/agency.sol\":5903:5913  msg.sender */\n      caller\n        /* \"contracts/agency.sol\":5876:5913  sales[saleID].buyers[i] == msg.sender */\n      0xffffffffffffffffffffffffffffffffffffffff\n      and\n        /* \"contracts/agency.sol\":5876:5881  sales */\n      0x02\n        /* \"contracts/agency.sol\":5882:5888  saleID */\n      dup4\n        /* \"contracts/agency.sol\":5876:5889  sales[saleID] */\n      dup2\n      sload\n      dup2\n      lt\n      tag_121\n      jumpi\n      tag_122\n      tag_97\n      jump\t// in\n    tag_122:\n    tag_121:\n      swap1\n      0x00\n      mstore\n      keccak256(0x00, 0x20)\n      swap1\n      0x06\n      mul\n      add\n        /* \"contracts/agency.sol\":5876:5896  sales[saleID].buyers */\n      0x04\n      add\n        /* \"contracts/agency.sol\":5897:5898  i */\n      dup3\n        /* \"contracts/agency.sol\":5876:5899  sales[saleID].buyers[i] */\n      dup2\n      sload\n      dup2\n      lt\n      tag_124\n      jumpi\n      tag_125\n      tag_97\n      jump\t// in\n    tag_125:\n    tag_124:\n      swap1\n      0x00\n      mstore\n      keccak256(0x00, 0x20)\n      add\n      0x00\n      swap1\n      sload\n      swap1\n      0x0100\n      exp\n      swap1\n      div\n      0xffffffffffffffffffffffffffffffffffffffff\n      and\n        /* \"contracts/agency.sol\":5876:5913  sales[saleID].buyers[i] == msg.sender */\n      0xffffffffffffffffffffffffffffffffffffffff\n      and\n      sub\n        /* \"contracts/agency.sol\":5872:6184  if (sales[saleID].buyers[i] == msg.sender) {... */\n      tag_127\n      jumpi\n        /* \"contracts/agency.sol\":5934:5944  uint price */\n      0x00\n        /* \"contracts/agency.sol\":5947:5952  sales */\n      0x02\n        /* \"contracts/agency.sol\":5953:5959  saleID */\n      dup4\n        /* \"contracts/agency.sol\":5947:5960  sales[saleID] */\n      dup2\n      sload\n      dup2\n      lt\n      tag_128\n      jumpi\n      tag_129\n      tag_97\n      jump\t// in\n    tag_129:\n    tag_128:\n      swap1\n      0x00\n      mstore\n      keccak256(0x00, 0x20)\n      swap1\n      0x06\n      mul\n      add\n        /* \"contracts/agency.sol\":5947:5967  sales[saleID].prices */\n      0x05\n      add\n        /* \"contracts/agency.sol\":5968:5969  i */\n      dup3\n        /* \"contracts/agency.sol\":5947:5970  sales[saleID].prices[i] */\n      dup2\n      sload\n      dup2\n      lt\n      tag_131\n      jumpi\n      tag_132\n      tag_97\n      jump\t// in\n    tag_132:\n    tag_131:\n      swap1\n      0x00\n      mstore\n      keccak256(0x00, 0x20)\n      add\n      sload\n        /* \"contracts/agency.sol\":5934:5970  uint price = sales[saleID].prices[i] */\n      swap1\n      pop\n        /* \"contracts/agency.sol\":6006:6007  0 */\n      0x00\n        /* \"contracts/agency.sol\":5997:6002  price */\n      dup2\n        /* \"contracts/agency.sol\":5997:6007  price != 0 */\n      sub\n        /* \"contracts/agency.sol\":5989:6026  require(price != 0, \"you price is 0\") */\n      tag_134\n      jumpi\n      mload(0x40)\n      0x08c379a000000000000000000000000000000000000000000000000000000000\n      dup2\n      mstore\n      0x04\n      add\n      tag_135\n      swap1\n      tag_136\n      jump\t// in\n    tag_135:\n      mload(0x40)\n      dup1\n      swap2\n      sub\n      swap1\n      revert\n    tag_134:\n        /* \"contracts/agency.sol\":6053:6063  msg.sender */\n      caller\n        /* \"contracts/agency.sol\":6045:6073  payable(msg.sender).transfer */\n      0xffffffffffffffffffffffffffffffffffffffff\n      and\n        /* \"contracts/agency.sol\":6045:6098  payable(msg.sender).transfer(sales[saleID].prices[i]) */\n      0x08fc\n        /* \"contracts/agency.sol\":6074:6079  sales */\n      0x02\n        /* \"contracts/agency.sol\":6080:6086  saleID */\n      dup6\n        /* \"contracts/agency.sol\":6074:6087  sales[saleID] */\n      dup2\n      sload\n      dup2\n      lt\n      tag_137\n      jumpi\n      tag_138\n      tag_97\n      jump\t// in\n    tag_138:\n    tag_137:\n      swap1\n      0x00\n      mstore\n      keccak256(0x00, 0x20)\n      swap1\n      0x06\n      mul\n      add\n        /* \"contracts/agency.sol\":6074:6094  sales[saleID].prices */\n      0x05\n      add\n        /* \"contracts/agency.sol\":6095:6096  i */\n      dup5\n        /* \"contracts/agency.sol\":6074:6097  sales[saleID].prices[i] */\n      dup2\n      sload\n      dup2\n      lt\n      tag_140\n      jumpi\n      tag_141\n      tag_97\n      jump\t// in\n    tag_141:\n    tag_140:\n      swap1\n      0x00\n      mstore\n      keccak256(0x00, 0x20)\n      add\n      sload\n        /* \"contracts/agency.sol\":6045:6098  payable(msg.sender).transfer(sales[saleID].prices[i]) */\n      swap1\n      dup2\n      iszero\n      mul\n      swap1\n      mload(0x40)\n      0x00\n      mload(0x40)\n      dup1\n      dup4\n      sub\n      dup2\n      dup6\n      dup9\n      dup9\n      call\n      swap4\n      pop\n      pop\n      pop\n      pop\n      iszero\n      dup1\n      iszero\n      tag_144\n      jumpi\n      returndatasize\n      0x00\n      dup1\n      returndatacopy\n      revert(0x00, returndatasize)\n    tag_144:\n      pop\n        /* \"contracts/agency.sol\":6143:6144  0 */\n      0x00\n        /* \"contracts/agency.sol\":6117:6122  sales */\n      0x02\n        /* \"contracts/agency.sol\":6123:6129  saleID */\n      dup5\n        /* \"contracts/agency.sol\":6117:6130  sales[saleID] */\n      dup2\n      sload\n      dup2\n      lt\n      tag_145\n      jumpi\n      tag_146\n      tag_97\n      jump\t// in\n    tag_146:\n    tag_145:\n      swap1\n      0x00\n      mstore\n      keccak256(0x00, 0x20)\n      swap1\n      0x06\n      mul\n      add\n        /* \"contracts/agency.sol\":6117:6137  sales[saleID].prices */\n      0x05\n      add\n        /* \"contracts/agency.sol\":6138:6139  i */\n      dup4\n        /* \"contracts/agency.sol\":6117:6140  sales[saleID].prices[i] */\n      dup2\n      sload\n      dup2\n      lt\n      tag_148\n      jumpi\n      tag_149\n      tag_97\n      jump\t// in\n    tag_149:\n    tag_148:\n      swap1\n      0x00\n      mstore\n      keccak256(0x00, 0x20)\n      add\n        /* \"contracts/agency.sol\":6117:6144  sales[saleID].prices[i] = 0 */\n      dup2\n      swap1\n      sstore\n      pop\n        /* \"contracts/agency.sol\":6163:6168  break */\n      pop\n      jump(tag_116)\n        /* \"contracts/agency.sol\":5872:6184  if (sales[saleID].buyers[i] == msg.sender) {... */\n    tag_127:\n        /* \"contracts/agency.sol\":5853:5856  i++ */\n      dup1\n      dup1\n      0x01\n      add\n      swap2\n      pop\n      pop\n        /* \"contracts/agency.sol\":5803:6195  for (uint i = 0; i < sales[saleID].buyers.length; i++){... */\n      jump(tag_115)\n    tag_116:\n      pop\n        /* \"contracts/agency.sol\":5607:6204  function deletePrice(uint saleID) public payable {... */\n      pop\n      jump\t// out\n        /* \"contracts/agency.sol\":759:783  Build[] public buildings */\n    tag_37:\n      0x00\n      dup2\n      dup2\n      sload\n      dup2\n      lt\n      tag_151\n      jumpi\n      0x00\n      dup1\n      revert\n    tag_151:\n      swap1\n      0x00\n      mstore\n      keccak256(0x00, 0x20)\n      swap1\n      0x05\n      mul\n      add\n      0x00\n      swap2\n      pop\n      swap1\n      pop\n      dup1\n      0x00\n      add\n      sload\n      swap1\n      dup1\n      0x01\n      add\n      0x00\n      swap1\n      sload\n      swap1\n      0x0100\n      exp\n      swap1\n      div\n      0xffffffffffffffffffffffffffffffffffffffff\n      and\n      swap1\n      dup1\n      0x02\n      add\n      dup1\n      sload\n      tag_153\n      swap1\n      tag_154\n      jump\t// in\n    tag_153:\n      dup1\n      0x1f\n      add\n      0x20\n      dup1\n      swap2\n      div\n      mul\n      0x20\n      add\n      mload(0x40)\n      swap1\n      dup2\n      add\n      0x40\n      mstore\n      dup1\n      swap3\n      swap2\n      swap1\n      dup2\n      dup2\n      mstore\n      0x20\n      add\n      dup3\n      dup1\n      sload\n      tag_155\n      swap1\n      tag_154\n      jump\t// in\n    tag_155:\n      dup1\n      iszero\n      tag_156\n      jumpi\n      dup1\n      0x1f\n      lt\n      tag_157\n      jumpi\n      0x0100\n      dup1\n      dup4\n      sload\n      div\n      mul\n      dup4\n      mstore\n      swap2\n      0x20\n      add\n      swap2\n      jump(tag_156)\n    tag_157:\n      dup3\n      add\n      swap2\n      swap1\n      0x00\n      mstore\n      keccak256(0x00, 0x20)\n      swap1\n    tag_158:\n      dup2\n      sload\n      dup2\n      mstore\n      swap1\n      0x01\n      add\n      swap1\n      0x20\n      add\n      dup1\n      dup4\n      gt\n      tag_158\n      jumpi\n      dup3\n      swap1\n      sub\n      0x1f\n      and\n      dup3\n      add\n      swap2\n    tag_156:\n      pop\n      pop\n      pop\n      pop\n      pop\n      swap1\n      dup1\n      0x03\n      add\n      sload\n      swap1\n      dup1\n      0x04\n      add\n      0x00\n      swap1\n      sload\n      swap1\n      0x0100\n      exp\n      swap1\n      div\n      0xff\n      and\n      swap1\n      dup1\n      0x04\n      add\n      0x01\n      swap1\n      sload\n      swap1\n      0x0100\n      exp\n      swap1\n      div\n      0xff\n      and\n      swap1\n      dup1\n      0x04\n      add\n      0x02\n      swap1\n      sload\n      swap1\n      0x0100\n      exp\n      swap1\n      div\n      0xff\n      and\n      swap1\n      pop\n      dup8\n      jump\t// out\n        /* \"contracts/agency.sol\":6210:7133  function addPrice(uint saleID, uint priceID) public payable {... */\n    tag_43:\n        /* \"contracts/agency.sol\":6281:6293  uint buildID */\n      0x00\n        /* \"contracts/agency.sol\":6296:6301  sales */\n      0x02\n        /* \"contracts/agency.sol\":6302:6308  saleID */\n      dup4\n        /* \"contracts/agency.sol\":6296:6309  sales[saleID] */\n      dup2\n      sload\n      dup2\n      lt\n      tag_160\n      jumpi\n      tag_161\n      tag_97\n      jump\t// in\n    tag_161:\n    tag_160:\n      swap1\n      0x00\n      mstore\n      keccak256(0x00, 0x20)\n      swap1\n      0x06\n      mul\n      add\n        /* \"contracts/agency.sol\":6296:6317  sales[saleID].buildID */\n      0x00\n      add\n      sload\n        /* \"contracts/agency.sol\":6281:6317  uint buildID = sales[saleID].buildID */\n      swap1\n      pop\n        /* \"contracts/agency.sol\":6345:6350  sales */\n      0x02\n        /* \"contracts/agency.sol\":6345:6357  sales.length */\n      dup1\n      sload\n      swap1\n      pop\n        /* \"contracts/agency.sol\":6336:6342  saleID */\n      dup4\n        /* \"contracts/agency.sol\":6336:6357  saleID < sales.length */\n      lt\n        /* \"contracts/agency.sol\":6328:6379  require(saleID < sales.length,\"wrong saleID value\") */\n      tag_163\n      jumpi\n      mload(0x40)\n      0x08c379a000000000000000000000000000000000000000000000000000000000\n      dup2\n      mstore\n      0x04\n      add\n      tag_164\n      swap1\n      tag_108\n      jump\t// in\n    tag_164:\n      mload(0x40)\n      dup1\n      swap2\n      sub\n      swap1\n      revert\n    tag_163:\n        /* \"contracts/agency.sol\":6432:6433  0 */\n      0x00\n        /* \"contracts/agency.sol\":6398:6434  sales[saleID].newOwner == address(0) */\n      0xffffffffffffffffffffffffffffffffffffffff\n      and\n        /* \"contracts/agency.sol\":6398:6403  sales */\n      0x02\n        /* \"contracts/agency.sol\":6404:6410  saleID */\n      dup5\n        /* \"contracts/agency.sol\":6398:6411  sales[saleID] */\n      dup2\n      sload\n      dup2\n      lt\n      tag_165\n      jumpi\n      tag_166\n      tag_97\n      jump\t// in\n    tag_166:\n    tag_165:\n      swap1\n      0x00\n      mstore\n      keccak256(0x00, 0x20)\n      swap1\n      0x06\n      mul\n      add\n        /* \"contracts/agency.sol\":6398:6420  sales[saleID].newOwner */\n      0x02\n      add\n      0x00\n      swap1\n      sload\n      swap1\n      0x0100\n      exp\n      swap1\n      div\n      0xffffffffffffffffffffffffffffffffffffffff\n      and\n        /* \"contracts/agency.sol\":6398:6434  sales[saleID].newOwner == address(0) */\n      0xffffffffffffffffffffffffffffffffffffffff\n      and\n      eq\n        /* \"contracts/agency.sol\":6390:6453  require(sales[saleID].newOwner == address(0), \"Sale is closed\") */\n      tag_168\n      jumpi\n      mload(0x40)\n      0x08c379a000000000000000000000000000000000000000000000000000000000\n      dup2\n      mstore\n      0x04\n      add\n      tag_169\n      swap1\n      tag_114\n      jump\t// in\n    tag_169:\n      mload(0x40)\n      dup1\n      swap2\n      sub\n      swap1\n      revert\n    tag_168:\n        /* \"contracts/agency.sol\":6495:6505  msg.sender */\n      caller\n        /* \"contracts/agency.sol\":6472:6505  sales[saleID].owner == msg.sender */\n      0xffffffffffffffffffffffffffffffffffffffff\n      and\n        /* \"contracts/agency.sol\":6472:6477  sales */\n      0x02\n        /* \"contracts/agency.sol\":6478:6484  saleID */\n      dup5\n        /* \"contracts/agency.sol\":6472:6485  sales[saleID] */\n      dup2\n      sload\n      dup2\n      lt\n      tag_170\n      jumpi\n      tag_171\n      tag_97\n      jump\t// in\n    tag_171:\n    tag_170:\n      swap1\n      0x00\n      mstore\n      keccak256(0x00, 0x20)\n      swap1\n      0x06\n      mul\n      add\n        /* \"contracts/agency.sol\":6472:6491  sales[saleID].owner */\n      0x01\n      add\n      0x00\n      swap1\n      sload\n      swap1\n      0x0100\n      exp\n      swap1\n      div\n      0xffffffffffffffffffffffffffffffffffffffff\n      and\n        /* \"contracts/agency.sol\":6472:6505  sales[saleID].owner == msg.sender */\n      0xffffffffffffffffffffffffffffffffffffffff\n      and\n      eq\n        /* \"contracts/agency.sol\":6464:6522  require(sales[saleID].owner == msg.sender, \"Not you sale\") */\n      tag_173\n      jumpi\n      mload(0x40)\n      0x08c379a000000000000000000000000000000000000000000000000000000000\n      dup2\n      mstore\n      0x04\n      add\n      tag_174\n      swap1\n      tag_175\n      jump\t// in\n    tag_174:\n      mload(0x40)\n      dup1\n      swap2\n      sub\n      swap1\n      revert\n    tag_173:\n        /* \"contracts/agency.sol\":6574:6579  false */\n      0x00\n        /* \"contracts/agency.sol\":6541:6579  buildings[buildID].arestSTATE == false */\n      iszero\n      iszero\n        /* \"contracts/agency.sol\":6541:6550  buildings */\n      0x00\n        /* \"contracts/agency.sol\":6551:6558  buildID */\n      dup3\n        /* \"contracts/agency.sol\":6541:6559  buildings[buildID] */\n      dup2\n      sload\n      dup2\n      lt\n      tag_176\n      jumpi\n      tag_177\n      tag_97\n      jump\t// in\n    tag_177:\n    tag_176:\n      swap1\n      0x00\n      mstore\n      keccak256(0x00, 0x20)\n      swap1\n      0x05\n      mul\n      add\n        /* \"contracts/agency.sol\":6541:6570  buildings[buildID].arestSTATE */\n      0x04\n      add\n      0x02\n      swap1\n      sload\n      swap1\n      0x0100\n      exp\n      swap1\n      div\n      0xff\n      and\n        /* \"contracts/agency.sol\":6541:6579  buildings[buildID].arestSTATE == false */\n      iszero\n      iszero\n      eq\n        /* \"contracts/agency.sol\":6533:6600  require(buildings[buildID].arestSTATE == false, \"build is arested\") */\n      tag_179\n      jumpi\n      mload(0x40)\n      0x08c379a000000000000000000000000000000000000000000000000000000000\n      dup2\n      mstore\n      0x04\n      add\n      tag_180\n      swap1\n      tag_181\n      jump\t// in\n    tag_180:\n      mload(0x40)\n      dup1\n      swap2\n      sub\n      swap1\n      revert\n    tag_179:\n        /* \"contracts/agency.sol\":6616:6622  uint i */\n      0x00\n        /* \"contracts/agency.sol\":6611:7079  for (uint i = 0; i < sales[saleID].buyers.length; i++){... */\n    tag_182:\n        /* \"contracts/agency.sol\":6632:6637  sales */\n      0x02\n        /* \"contracts/agency.sol\":6638:6644  saleID */\n      dup5\n        /* \"contracts/agency.sol\":6632:6645  sales[saleID] */\n      dup2\n      sload\n      dup2\n      lt\n      tag_185\n      jumpi\n      tag_186\n      tag_97\n      jump\t// in\n    tag_186:\n    tag_185:\n      swap1\n      0x00\n      mstore\n      keccak256(0x00, 0x20)\n      swap1\n      0x06\n      mul\n      add\n        /* \"contracts/agency.sol\":6632:6652  sales[saleID].buyers */\n      0x04\n      add\n        /* \"contracts/agency.sol\":6632:6659  sales[saleID].buyers.length */\n      dup1\n      sload\n      swap1\n      pop\n        /* \"contracts/agency.sol\":6628:6629  i */\n      dup2\n        /* \"contracts/agency.sol\":6628:6659  i < sales[saleID].buyers.length */\n      lt\n        /* \"contracts/agency.sol\":6611:7079  for (uint i = 0; i < sales[saleID].buyers.length; i++){... */\n      iszero\n      tag_183\n      jumpi\n        /* \"contracts/agency.sol\":6689:6696  priceID */\n      dup3\n        /* \"contracts/agency.sol\":6684:6685  i */\n      dup2\n        /* \"contracts/agency.sol\":6684:6696  i != priceID */\n      eq\n        /* \"contracts/agency.sol\":6680:7068  if (i != priceID) {... */\n      tag_188\n      jumpi\n        /* \"contracts/agency.sol\":6725:6730  sales */\n      0x02\n        /* \"contracts/agency.sol\":6731:6737  saleID */\n      dup5\n        /* \"contracts/agency.sol\":6725:6738  sales[saleID] */\n      dup2\n      sload\n      dup2\n      lt\n      tag_189\n      jumpi\n      tag_190\n      tag_97\n      jump\t// in\n    tag_190:\n    tag_189:\n      swap1\n      0x00\n      mstore\n      keccak256(0x00, 0x20)\n      swap1\n      0x06\n      mul\n      add\n        /* \"contracts/agency.sol\":6725:6745  sales[saleID].buyers */\n      0x04\n      add\n        /* \"contracts/agency.sol\":6746:6747  i */\n      dup2\n        /* \"contracts/agency.sol\":6725:6748  sales[saleID].buyers[i] */\n      dup2\n      sload\n      dup2\n      lt\n      tag_192\n      jumpi\n      tag_193\n      tag_97\n      jump\t// in\n    tag_193:\n    tag_192:\n      swap1\n      0x00\n      mstore\n      keccak256(0x00, 0x20)\n      add\n      0x00\n      swap1\n      sload\n      swap1\n      0x0100\n      exp\n      swap1\n      div\n      0xffffffffffffffffffffffffffffffffffffffff\n      and\n        /* \"contracts/agency.sol\":6717:6758  payable(sales[saleID].buyers[i]).transfer */\n      0xffffffffffffffffffffffffffffffffffffffff\n      and\n        /* \"contracts/agency.sol\":6717:6783  payable(sales[saleID].buyers[i]).transfer(sales[saleID].prices[i]) */\n      0x08fc\n        /* \"contracts/agency.sol\":6759:6764  sales */\n      0x02\n        /* \"contracts/agency.sol\":6765:6771  saleID */\n      dup7\n        /* \"contracts/agency.sol\":6759:6772  sales[saleID] */\n      dup2\n      sload\n      dup2\n      lt\n      tag_195\n      jumpi\n      tag_196\n      tag_97\n      jump\t// in\n    tag_196:\n    tag_195:\n      swap1\n      0x00\n      mstore\n      keccak256(0x00, 0x20)\n      swap1\n      0x06\n      mul\n      add\n        /* \"contracts/agency.sol\":6759:6779  sales[saleID].prices */\n      0x05\n      add\n        /* \"contracts/agency.sol\":6780:6781  i */\n      dup4\n        /* \"contracts/agency.sol\":6759:6782  sales[saleID].prices[i] */\n      dup2\n      sload\n      dup2\n      lt\n      tag_198\n      jumpi\n      tag_199\n      tag_97\n      jump\t// in\n    tag_199:\n    tag_198:\n      swap1\n      0x00\n      mstore\n      keccak256(0x00, 0x20)\n      add\n      sload\n        /* \"contracts/agency.sol\":6717:6783  payable(sales[saleID].buyers[i]).transfer(sales[saleID].prices[i]) */\n      swap1\n      dup2\n      iszero\n      mul\n      swap1\n      mload(0x40)\n      0x00\n      mload(0x40)\n      dup1\n      dup4\n      sub\n      dup2\n      dup6\n      dup9\n      dup9\n      call\n      swap4\n      pop\n      pop\n      pop\n      pop\n      iszero\n      dup1\n      iszero\n      tag_202\n      jumpi\n      returndatasize\n      0x00\n      dup1\n      returndatacopy\n      revert(0x00, returndatasize)\n    tag_202:\n      pop\n        /* \"contracts/agency.sol\":6680:7068  if (i != priceID) {... */\n      jump(tag_203)\n    tag_188:\n        /* \"contracts/agency.sol\":6844:6849  sales */\n      0x02\n        /* \"contracts/agency.sol\":6850:6856  saleID */\n      dup5\n        /* \"contracts/agency.sol\":6844:6857  sales[saleID] */\n      dup2\n      sload\n      dup2\n      lt\n      tag_204\n      jumpi\n      tag_205\n      tag_97\n      jump\t// in\n    tag_205:\n    tag_204:\n      swap1\n      0x00\n      mstore\n      keccak256(0x00, 0x20)\n      swap1\n      0x06\n      mul\n      add\n        /* \"contracts/agency.sol\":6844:6863  sales[saleID].owner */\n      0x01\n      add\n      0x00\n      swap1\n      sload\n      swap1\n      0x0100\n      exp\n      swap1\n      div\n      0xffffffffffffffffffffffffffffffffffffffff\n      and\n        /* \"contracts/agency.sol\":6836:6873  payable(sales[saleID].owner).transfer */\n      0xffffffffffffffffffffffffffffffffffffffff\n      and\n        /* \"contracts/agency.sol\":6836:6904  payable(sales[saleID].owner).transfer(sales[saleID].prices[priceID]) */\n      0x08fc\n        /* \"contracts/agency.sol\":6874:6879  sales */\n      0x02\n        /* \"contracts/agency.sol\":6880:6886  saleID */\n      dup7\n        /* \"contracts/agency.sol\":6874:6887  sales[saleID] */\n      dup2\n      sload\n      dup2\n      lt\n      tag_207\n      jumpi\n      tag_208\n      tag_97\n      jump\t// in\n    tag_208:\n    tag_207:\n      swap1\n      0x00\n      mstore\n      keccak256(0x00, 0x20)\n      swap1\n      0x06\n      mul\n      add\n        /* \"contracts/agency.sol\":6874:6894  sales[saleID].prices */\n      0x05\n      add\n        /* \"contracts/agency.sol\":6895:6902  priceID */\n      dup6\n        /* \"contracts/agency.sol\":6874:6903  sales[saleID].prices[priceID] */\n      dup2\n      sload\n      dup2\n      lt\n      tag_210\n      jumpi\n      tag_211\n      tag_97\n      jump\t// in\n    tag_211:\n    tag_210:\n      swap1\n      0x00\n      mstore\n      keccak256(0x00, 0x20)\n      add\n      sload\n        /* \"contracts/agency.sol\":6836:6904  payable(sales[saleID].owner).transfer(sales[saleID].prices[priceID]) */\n      swap1\n      dup2\n      iszero\n      mul\n      swap1\n      mload(0x40)\n      0x00\n      mload(0x40)\n      dup1\n      dup4\n      sub\n      dup2\n      dup6\n      dup9\n      dup9\n      call\n      swap4\n      pop\n      pop\n      pop\n      pop\n      iszero\n      dup1\n      iszero\n      tag_214\n      jumpi\n      returndatasize\n      0x00\n      dup1\n      returndatacopy\n      revert(0x00, returndatasize)\n    tag_214:\n      pop\n        /* \"contracts/agency.sol\":6948:6953  sales */\n      0x02\n        /* \"contracts/agency.sol\":6954:6960  saleID */\n      dup5\n        /* \"contracts/agency.sol\":6948:6961  sales[saleID] */\n      dup2\n      sload\n      dup2\n      lt\n      tag_215\n      jumpi\n      tag_216\n      tag_97\n      jump\t// in\n    tag_216:\n    tag_215:\n      swap1\n      0x00\n      mstore\n      keccak256(0x00, 0x20)\n      swap1\n      0x06\n      mul\n      add\n        /* \"contracts/agency.sol\":6948:6968  sales[saleID].buyers */\n      0x04\n      add\n        /* \"contracts/agency.sol\":6969:6976  priceID */\n      dup4\n        /* \"contracts/agency.sol\":6948:6977  sales[saleID].buyers[priceID] */\n      dup2\n      sload\n      dup2\n      lt\n      tag_218\n      jumpi\n      tag_219\n      tag_97\n      jump\t// in\n    tag_219:\n    tag_218:\n      swap1\n      0x00\n      mstore\n      keccak256(0x00, 0x20)\n      add\n      0x00\n      swap1\n      sload\n      swap1\n      0x0100\n      exp\n      swap1\n      div\n      0xffffffffffffffffffffffffffffffffffffffff\n      and\n        /* \"contracts/agency.sol\":6923:6928  sales */\n      0x02\n        /* \"contracts/agency.sol\":6929:6935  saleID */\n      dup6\n        /* \"contracts/agency.sol\":6923:6936  sales[saleID] */\n      dup2\n      sload\n      dup2\n      lt\n      tag_221\n      jumpi\n      tag_222\n      tag_97\n      jump\t// in\n    tag_222:\n    tag_221:\n      swap1\n      0x00\n      mstore\n      keccak256(0x00, 0x20)\n      swap1\n      0x06\n      mul\n      add\n        /* \"contracts/agency.sol\":6923:6945  sales[saleID].newOwner */\n      0x02\n      add\n      0x00\n        /* \"contracts/agency.sol\":6923:6977  sales[saleID].newOwner = sales[saleID].buyers[priceID] */\n      0x0100\n      exp\n      dup2\n      sload\n      dup2\n      0xffffffffffffffffffffffffffffffffffffffff\n      mul\n      not\n      and\n      swap1\n      dup4\n      0xffffffffffffffffffffffffffffffffffffffff\n      and\n      mul\n      or\n      swap1\n      sstore\n      pop\n        /* \"contracts/agency.sol\":7023:7028  sales */\n      0x02\n        /* \"contracts/agency.sol\":7029:7035  saleID */\n      dup5\n        /* \"contracts/agency.sol\":7023:7036  sales[saleID] */\n      dup2\n      sload\n      dup2\n      lt\n      tag_224\n      jumpi\n      tag_225\n      tag_97\n      jump\t// in\n    tag_225:\n    tag_224:\n      swap1\n      0x00\n      mstore\n      keccak256(0x00, 0x20)\n      swap1\n      0x06\n      mul\n      add\n        /* \"contracts/agency.sol\":7023:7043  sales[saleID].buyers */\n      0x04\n      add\n        /* \"contracts/agency.sol\":7044:7051  priceID */\n      dup4\n        /* \"contracts/agency.sol\":7023:7052  sales[saleID].buyers[priceID] */\n      dup2\n      sload\n      dup2\n      lt\n      tag_227\n      jumpi\n      tag_228\n      tag_97\n      jump\t// in\n    tag_228:\n    tag_227:\n      swap1\n      0x00\n      mstore\n      keccak256(0x00, 0x20)\n      add\n      0x00\n      swap1\n      sload\n      swap1\n      0x0100\n      exp\n      swap1\n      div\n      0xffffffffffffffffffffffffffffffffffffffff\n      and\n        /* \"contracts/agency.sol\":6996:7005  buildings */\n      0x00\n        /* \"contracts/agency.sol\":7006:7013  buildID */\n      dup4\n        /* \"contracts/agency.sol\":6996:7014  buildings[buildID] */\n      dup2\n      sload\n      dup2\n      lt\n      tag_230\n      jumpi\n      tag_231\n      tag_97\n      jump\t// in\n    tag_231:\n    tag_230:\n      swap1\n      0x00\n      mstore\n      keccak256(0x00, 0x20)\n      swap1\n      0x05\n      mul\n      add\n        /* \"contracts/agency.sol\":6996:7020  buildings[buildID].owner */\n      0x01\n      add\n      0x00\n        /* \"contracts/agency.sol\":6996:7052  buildings[buildID].owner = sales[saleID].buyers[priceID] */\n      0x0100\n      exp\n      dup2\n      sload\n      dup2\n      0xffffffffffffffffffffffffffffffffffffffff\n      mul\n      not\n      and\n      swap1\n      dup4\n      0xffffffffffffffffffffffffffffffffffffffff\n      and\n      mul\n      or\n      swap1\n      sstore\n      pop\n        /* \"contracts/agency.sol\":6680:7068  if (i != priceID) {... */\n    tag_203:\n        /* \"contracts/agency.sol\":6661:6664  i++ */\n      dup1\n      dup1\n      0x01\n      add\n      swap2\n      pop\n      pop\n        /* \"contracts/agency.sol\":6611:7079  for (uint i = 0; i < sales[saleID].buyers.length; i++){... */\n      jump(tag_182)\n    tag_183:\n      pop\n        /* \"contracts/agency.sol\":7120:7125  false */\n      0x00\n        /* \"contracts/agency.sol\":7089:7098  buildings */\n      dup1\n        /* \"contracts/agency.sol\":7099:7106  buildID */\n      dup3\n        /* \"contracts/agency.sol\":7089:7107  buildings[buildID] */\n      dup2\n      sload\n      dup2\n      lt\n      tag_233\n      jumpi\n      tag_234\n      tag_97\n      jump\t// in\n    tag_234:\n    tag_233:\n      swap1\n      0x00\n      mstore\n      keccak256(0x00, 0x20)\n      swap1\n      0x05\n      mul\n      add\n        /* \"contracts/agency.sol\":7089:7117  buildings[buildID].saleSTATE */\n      0x04\n      add\n      0x01\n        /* \"contracts/agency.sol\":7089:7125  buildings[buildID].saleSTATE = false */\n      0x0100\n      exp\n      dup2\n      sload\n      dup2\n      0xff\n      mul\n      not\n      and\n      swap1\n      dup4\n      iszero\n      iszero\n      mul\n      or\n      swap1\n      sstore\n      pop\n        /* \"contracts/agency.sol\":6270:7133  {... */\n      pop\n        /* \"contracts/agency.sol\":6210:7133  function addPrice(uint saleID, uint priceID) public payable {... */\n      pop\n      pop\n      jump\t// out\n        /* \"contracts/agency.sol\":2101:2544  function createGift(uint buildID, address _adrTo) public onlyOwner(buildID) defaultSTATUS(buildID){... */\n    tag_48:\n        /* \"contracts/agency.sol\":2168:2175  buildID */\n      dup2\n        /* \"contracts/agency.sol\":1088:1098  msg.sender */\n      caller\n        /* \"contracts/agency.sol\":1060:1098  buildings[buildID].owner == msg.sender */\n      0xffffffffffffffffffffffffffffffffffffffff\n      and\n        /* \"contracts/agency.sol\":1060:1069  buildings */\n      0x00\n        /* \"contracts/agency.sol\":1070:1077  buildID */\n      dup3\n        /* \"contracts/agency.sol\":1060:1078  buildings[buildID] */\n      dup2\n      sload\n      dup2\n      lt\n      tag_237\n      jumpi\n      tag_238\n      tag_97\n      jump\t// in\n    tag_238:\n    tag_237:\n      swap1\n      0x00\n      mstore\n      keccak256(0x00, 0x20)\n      swap1\n      0x05\n      mul\n      add\n        /* \"contracts/agency.sol\":1060:1084  buildings[buildID].owner */\n      0x01\n      add\n      0x00\n      swap1\n      sload\n      swap1\n      0x0100\n      exp\n      swap1\n      div\n      0xffffffffffffffffffffffffffffffffffffffff\n      and\n        /* \"contracts/agency.sol\":1060:1098  buildings[buildID].owner == msg.sender */\n      0xffffffffffffffffffffffffffffffffffffffff\n      and\n      eq\n        /* \"contracts/agency.sol\":1052:1120  require(buildings[buildID].owner == msg.sender, \"Is not your build\") */\n      tag_240\n      jumpi\n      mload(0x40)\n      0x08c379a000000000000000000000000000000000000000000000000000000000\n      dup2\n      mstore\n      0x04\n      add\n      tag_241\n      swap1\n      tag_242\n      jump\t// in\n    tag_241:\n      mload(0x40)\n      dup1\n      swap2\n      sub\n      swap1\n      revert\n    tag_240:\n        /* \"contracts/agency.sol\":2191:2198  buildID */\n      dup3\n        /* \"contracts/agency.sol\":1234:1239  false */\n      0x00\n        /* \"contracts/agency.sol\":1202:1239  buildings[buildID].giftSTATE == false */\n      iszero\n      iszero\n        /* \"contracts/agency.sol\":1202:1211  buildings */\n      0x00\n        /* \"contracts/agency.sol\":1212:1219  buildID */\n      dup3\n        /* \"contracts/agency.sol\":1202:1220  buildings[buildID] */\n      dup2\n      sload\n      dup2\n      lt\n      tag_244\n      jumpi\n      tag_245\n      tag_97\n      jump\t// in\n    tag_245:\n    tag_244:\n      swap1\n      0x00\n      mstore\n      keccak256(0x00, 0x20)\n      swap1\n      0x05\n      mul\n      add\n        /* \"contracts/agency.sol\":1202:1230  buildings[buildID].giftSTATE */\n      0x04\n      add\n      0x00\n      swap1\n      sload\n      swap1\n      0x0100\n      exp\n      swap1\n      div\n      0xff\n      and\n        /* \"contracts/agency.sol\":1202:1239  buildings[buildID].giftSTATE == false */\n      iszero\n      iszero\n      eq\n        /* \"contracts/agency.sol\":1194:1262  require(buildings[buildID].giftSTATE == false, \"Already in present\") */\n      tag_247\n      jumpi\n      mload(0x40)\n      0x08c379a000000000000000000000000000000000000000000000000000000000\n      dup2\n      mstore\n      0x04\n      add\n      tag_248\n      swap1\n      tag_249\n      jump\t// in\n    tag_248:\n      mload(0x40)\n      dup1\n      swap2\n      sub\n      swap1\n      revert\n    tag_247:\n        /* \"contracts/agency.sol\":1313:1318  false */\n      0x00\n        /* \"contracts/agency.sol\":1281:1318  buildings[buildID].saleSTATE == false */\n      iszero\n      iszero\n        /* \"contracts/agency.sol\":1281:1290  buildings */\n      0x00\n        /* \"contracts/agency.sol\":1291:1298  buildID */\n      dup3\n        /* \"contracts/agency.sol\":1281:1299  buildings[buildID] */\n      dup2\n      sload\n      dup2\n      lt\n      tag_250\n      jumpi\n      tag_251\n      tag_97\n      jump\t// in\n    tag_251:\n    tag_250:\n      swap1\n      0x00\n      mstore\n      keccak256(0x00, 0x20)\n      swap1\n      0x05\n      mul\n      add\n        /* \"contracts/agency.sol\":1281:1309  buildings[buildID].saleSTATE */\n      0x04\n      add\n      0x01\n      swap1\n      sload\n      swap1\n      0x0100\n      exp\n      swap1\n      div\n      0xff\n      and\n        /* \"contracts/agency.sol\":1281:1318  buildings[buildID].saleSTATE == false */\n      iszero\n      iszero\n      eq\n        /* \"contracts/agency.sol\":1273:1338  require(buildings[buildID].saleSTATE == false, \"Already in sale\") */\n      tag_253\n      jumpi\n      mload(0x40)\n      0x08c379a000000000000000000000000000000000000000000000000000000000\n      dup2\n      mstore\n      0x04\n      add\n      tag_254\n      swap1\n      tag_255\n      jump\t// in\n    tag_254:\n      mload(0x40)\n      dup1\n      swap2\n      sub\n      swap1\n      revert\n    tag_253:\n        /* \"contracts/agency.sol\":1390:1395  false */\n      0x00\n        /* \"contracts/agency.sol\":1357:1395  buildings[buildID].arestSTATE == false */\n      iszero\n      iszero\n        /* \"contracts/agency.sol\":1357:1366  buildings */\n      0x00\n        /* \"contracts/agency.sol\":1367:1374  buildID */\n      dup3\n        /* \"contracts/agency.sol\":1357:1375  buildings[buildID] */\n      dup2\n      sload\n      dup2\n      lt\n      tag_256\n      jumpi\n      tag_257\n      tag_97\n      jump\t// in\n    tag_257:\n    tag_256:\n      swap1\n      0x00\n      mstore\n      keccak256(0x00, 0x20)\n      swap1\n      0x05\n      mul\n      add\n        /* \"contracts/agency.sol\":1357:1386  buildings[buildID].arestSTATE */\n      0x04\n      add\n      0x02\n      swap1\n      sload\n      swap1\n      0x0100\n      exp\n      swap1\n      div\n      0xff\n      and\n        /* \"contracts/agency.sol\":1357:1395  buildings[buildID].arestSTATE == false */\n      iszero\n      iszero\n      eq\n        /* \"contracts/agency.sol\":1349:1414  require(buildings[buildID].arestSTATE == false, \"Build in arest\") */\n      tag_259\n      jumpi\n      mload(0x40)\n      0x08c379a000000000000000000000000000000000000000000000000000000000\n      dup2\n      mstore\n      0x04\n      add\n      tag_260\n      swap1\n      tag_261\n      jump\t// in\n    tag_260:\n      mload(0x40)\n      dup1\n      swap2\n      sub\n      swap1\n      revert\n    tag_259:\n        /* \"contracts/agency.sol\":2236:2237  0 */\n      0x00\n        /* \"contracts/agency.sol\":2218:2238  _adrTo != address(0) */\n      0xffffffffffffffffffffffffffffffffffffffff\n      and\n        /* \"contracts/agency.sol\":2218:2224  _adrTo */\n      dup4\n        /* \"contracts/agency.sol\":2218:2238  _adrTo != address(0) */\n      0xffffffffffffffffffffffffffffffffffffffff\n      and\n      sub\n        /* \"contracts/agency.sol\":2210:2256  require(_adrTo != address(0), \"wrong_address\") */\n      tag_263\n      jumpi\n      mload(0x40)\n      0x08c379a000000000000000000000000000000000000000000000000000000000\n      dup2\n      mstore\n      0x04\n      add\n      tag_264\n      swap1\n      tag_265\n      jump\t// in\n    tag_264:\n      mload(0x40)\n      dup1\n      swap2\n      sub\n      swap1\n      revert\n    tag_263:\n        /* \"contracts/agency.sol\":2285:2294  buildings */\n      0x00\n        /* \"contracts/agency.sol\":2285:2301  buildings.length */\n      dup1\n      sload\n      swap1\n      pop\n        /* \"contracts/agency.sol\":2275:2282  buildID */\n      dup5\n        /* \"contracts/agency.sol\":2275:2301  buildID < buildings.length */\n      lt\n        /* \"contracts/agency.sol\":2267:2324  require(buildID < buildings.length,\"wrong buildID value\") */\n      tag_266\n      jumpi\n      mload(0x40)\n      0x08c379a000000000000000000000000000000000000000000000000000000000\n      dup2\n      mstore\n      0x04\n      add\n      tag_267\n      swap1\n      tag_268\n      jump\t// in\n    tag_267:\n      mload(0x40)\n      dup1\n      swap2\n      sub\n      swap1\n      revert\n    tag_266:\n        /* \"contracts/agency.sol\":2353:2363  msg.sender */\n      caller\n        /* \"contracts/agency.sol\":2343:2363  _adrTo != msg.sender */\n      0xffffffffffffffffffffffffffffffffffffffff\n      and\n        /* \"contracts/agency.sol\":2343:2349  _adrTo */\n      dup4\n        /* \"contracts/agency.sol\":2343:2363  _adrTo != msg.sender */\n      0xffffffffffffffffffffffffffffffffffffffff\n      and\n      sub\n        /* \"contracts/agency.sol\":2335:2377  require(_adrTo != msg.sender, \"self gift\") */\n      tag_269\n      jumpi\n      mload(0x40)\n      0x08c379a000000000000000000000000000000000000000000000000000000000\n      dup2\n      mstore\n      0x04\n      add\n      tag_270\n      swap1\n      tag_271\n      jump\t// in\n    tag_270:\n      mload(0x40)\n      dup1\n      swap2\n      sub\n      swap1\n      revert\n    tag_269:\n        /* \"contracts/agency.sol\":2388:2393  gifts */\n      0x01\n        /* \"contracts/agency.sol\":2399:2489  Gift(gifts.length, buildID, msg.sender,_adrTo, giftTime+ block.timestamp, giftSTAT.ACTIVE) */\n      mload(0x40)\n      dup1\n      0xc0\n      add\n      0x40\n      mstore\n      dup1\n        /* \"contracts/agency.sol\":2404:2409  gifts */\n      0x01\n        /* \"contracts/agency.sol\":2404:2416  gifts.length */\n      dup1\n      sload\n      swap1\n      pop\n        /* \"contracts/agency.sol\":2399:2489  Gift(gifts.length, buildID, msg.sender,_adrTo, giftTime+ block.timestamp, giftSTAT.ACTIVE) */\n      dup2\n      mstore\n      0x20\n      add\n        /* \"contracts/agency.sol\":2418:2425  buildID */\n      dup7\n        /* \"contracts/agency.sol\":2399:2489  Gift(gifts.length, buildID, msg.sender,_adrTo, giftTime+ block.timestamp, giftSTAT.ACTIVE) */\n      dup2\n      mstore\n      0x20\n      add\n        /* \"contracts/agency.sol\":2427:2437  msg.sender */\n      caller\n        /* \"contracts/agency.sol\":2399:2489  Gift(gifts.length, buildID, msg.sender,_adrTo, giftTime+ block.timestamp, giftSTAT.ACTIVE) */\n      0xffffffffffffffffffffffffffffffffffffffff\n      and\n      dup2\n      mstore\n      0x20\n      add\n        /* \"contracts/agency.sol\":2438:2444  _adrTo */\n      dup6\n        /* \"contracts/agency.sol\":2399:2489  Gift(gifts.length, buildID, msg.sender,_adrTo, giftTime+ block.timestamp, giftSTAT.ACTIVE) */\n      0xffffffffffffffffffffffffffffffffffffffff\n      and\n      dup2\n      mstore\n      0x20\n      add\n        /* \"contracts/agency.sol\":2456:2471  block.timestamp */\n      timestamp\n        /* \"contracts/agency.sol\":2446:2454  giftTime */\n      sload(0x04)\n        /* \"contracts/agency.sol\":2446:2471  giftTime+ block.timestamp */\n      tag_272\n      swap2\n      swap1\n      tag_273\n      jump\t// in\n    tag_272:\n        /* \"contracts/agency.sol\":2399:2489  Gift(gifts.length, buildID, msg.sender,_adrTo, giftTime+ block.timestamp, giftSTAT.ACTIVE) */\n      dup2\n      mstore\n      0x20\n      add\n        /* \"contracts/agency.sol\":2473:2488  giftSTAT.ACTIVE */\n      0x00\n        /* \"contracts/agency.sol\":2399:2489  Gift(gifts.length, buildID, msg.sender,_adrTo, giftTime+ block.timestamp, giftSTAT.ACTIVE) */\n      0x04\n      dup2\n      gt\n      iszero\n      tag_274\n      jumpi\n      tag_275\n      tag_276\n      jump\t// in\n    tag_275:\n    tag_274:\n      dup2\n      mstore\n      pop\n        /* \"contracts/agency.sol\":2388:2490  gifts.push(Gift(gifts.length, buildID, msg.sender,_adrTo, giftTime+ block.timestamp, giftSTAT.ACTIVE)) */\n      swap1\n      dup1\n      0x01\n      dup2\n      sload\n      add\n      dup1\n      dup3\n      sstore\n      dup1\n      swap2\n      pop\n      pop\n      0x01\n      swap1\n      sub\n      swap1\n      0x00\n      mstore\n      keccak256(0x00, 0x20)\n      swap1\n      0x06\n      mul\n      add\n      0x00\n      swap1\n      swap2\n      swap1\n      swap2\n      swap1\n      swap2\n      pop\n      0x00\n      dup3\n      add\n      mload\n      dup2\n      0x00\n      add\n      sstore\n      0x20\n      dup3\n      add\n      mload\n      dup2\n      0x01\n      add\n      sstore\n      0x40\n      dup3\n      add\n      mload\n      dup2\n      0x02\n      add\n      exp(0x0100, 0x00)\n      dup2\n      sload\n      dup2\n      0xffffffffffffffffffffffffffffffffffffffff\n      mul\n      not\n      and\n      swap1\n      dup4\n      0xffffffffffffffffffffffffffffffffffffffff\n      and\n      mul\n      or\n      swap1\n      sstore\n      pop\n      0x60\n      dup3\n      add\n      mload\n      dup2\n      0x03\n      add\n      exp(0x0100, 0x00)\n      dup2\n      sload\n      dup2\n      0xffffffffffffffffffffffffffffffffffffffff\n      mul\n      not\n      and\n      swap1\n      dup4\n      0xffffffffffffffffffffffffffffffffffffffff\n      and\n      mul\n      or\n      swap1\n      sstore\n      pop\n      0x80\n      dup3\n      add\n      mload\n      dup2\n      0x04\n      add\n      sstore\n      0xa0\n      dup3\n      add\n      mload\n      dup2\n      0x05\n      add\n      exp(0x0100, 0x00)\n      dup2\n      sload\n      dup2\n      0xff\n      mul\n      not\n      and\n      swap1\n      dup4\n      0x04\n      dup2\n      gt\n      iszero\n      tag_278\n      jumpi\n      tag_279\n      tag_276\n      jump\t// in\n    tag_279:\n    tag_278:\n      mul\n      or\n      swap1\n      sstore\n      pop\n      pop\n      pop\n        /* \"contracts/agency.sol\":2532:2536  true */\n      0x01\n        /* \"contracts/agency.sol\":2501:2510  buildings */\n      0x00\n        /* \"contracts/agency.sol\":2511:2518  buildID */\n      dup6\n        /* \"contracts/agency.sol\":2501:2519  buildings[buildID] */\n      dup2\n      sload\n      dup2\n      lt\n      tag_280\n      jumpi\n      tag_281\n      tag_97\n      jump\t// in\n    tag_281:\n    tag_280:\n      swap1\n      0x00\n      mstore\n      keccak256(0x00, 0x20)\n      swap1\n      0x05\n      mul\n      add\n        /* \"contracts/agency.sol\":2501:2529  buildings[buildID].giftSTATE */\n      0x04\n      add\n      0x00\n        /* \"contracts/agency.sol\":2501:2536  buildings[buildID].giftSTATE = true */\n      0x0100\n      exp\n      dup2\n      sload\n      dup2\n      0xff\n      mul\n      not\n      and\n      swap1\n      dup4\n      iszero\n      iszero\n      mul\n      or\n      swap1\n      sstore\n      pop\n        /* \"contracts/agency.sol\":1131:1132  _ */\n      pop\n        /* \"contracts/agency.sol\":2101:2544  function createGift(uint buildID, address _adrTo) public onlyOwner(buildID) defaultSTATUS(buildID){... */\n      pop\n      pop\n      pop\n      jump\t// out\n        /* \"contracts/agency.sol\":4348:4756  function createSale(uint buildID, uint _price) public onlyOwner(buildID) defaultSTATUS(buildID){... */\n    tag_52:\n        /* \"contracts/agency.sol\":4412:4419  buildID */\n      dup2\n        /* \"contracts/agency.sol\":1088:1098  msg.sender */\n      caller\n        /* \"contracts/agency.sol\":1060:1098  buildings[buildID].owner == msg.sender */\n      0xffffffffffffffffffffffffffffffffffffffff\n      and\n        /* \"contracts/agency.sol\":1060:1069  buildings */\n      0x00\n        /* \"contracts/agency.sol\":1070:1077  buildID */\n      dup3\n        /* \"contracts/agency.sol\":1060:1078  buildings[buildID] */\n      dup2\n      sload\n      dup2\n      lt\n      tag_284\n      jumpi\n      tag_285\n      tag_97\n      jump\t// in\n    tag_285:\n    tag_284:\n      swap1\n      0x00\n      mstore\n      keccak256(0x00, 0x20)\n      swap1\n      0x05\n      mul\n      add\n        /* \"contracts/agency.sol\":1060:1084  buildings[buildID].owner */\n      0x01\n      add\n      0x00\n      swap1\n      sload\n      swap1\n      0x0100\n      exp\n      swap1\n      div\n      0xffffffffffffffffffffffffffffffffffffffff\n      and\n        /* \"contracts/agency.sol\":1060:1098  buildings[buildID].owner == msg.sender */\n      0xffffffffffffffffffffffffffffffffffffffff\n      and\n      eq\n        /* \"contracts/agency.sol\":1052:1120  require(buildings[buildID].owner == msg.sender, \"Is not your build\") */\n      tag_287\n      jumpi\n      mload(0x40)\n      0x08c379a000000000000000000000000000000000000000000000000000000000\n      dup2\n      mstore\n      0x04\n      add\n      tag_288\n      swap1\n      tag_242\n      jump\t// in\n    tag_288:\n      mload(0x40)\n      dup1\n      swap2\n      sub\n      swap1\n      revert\n    tag_287:\n        /* \"contracts/agency.sol\":4435:4442  buildID */\n      dup3\n        /* \"contracts/agency.sol\":1234:1239  false */\n      0x00\n        /* \"contracts/agency.sol\":1202:1239  buildings[buildID].giftSTATE == false */\n      iszero\n      iszero\n        /* \"contracts/agency.sol\":1202:1211  buildings */\n      0x00\n        /* \"contracts/agency.sol\":1212:1219  buildID */\n      dup3\n        /* \"contracts/agency.sol\":1202:1220  buildings[buildID] */\n      dup2\n      sload\n      dup2\n      lt\n      tag_290\n      jumpi\n      tag_291\n      tag_97\n      jump\t// in\n    tag_291:\n    tag_290:\n      swap1\n      0x00\n      mstore\n      keccak256(0x00, 0x20)\n      swap1\n      0x05\n      mul\n      add\n        /* \"contracts/agency.sol\":1202:1230  buildings[buildID].giftSTATE */\n      0x04\n      add\n      0x00\n      swap1\n      sload\n      swap1\n      0x0100\n      exp\n      swap1\n      div\n      0xff\n      and\n        /* \"contracts/agency.sol\":1202:1239  buildings[buildID].giftSTATE == false */\n      iszero\n      iszero\n      eq\n        /* \"contracts/agency.sol\":1194:1262  require(buildings[buildID].giftSTATE == false, \"Already in present\") */\n      tag_293\n      jumpi\n      mload(0x40)\n      0x08c379a000000000000000000000000000000000000000000000000000000000\n      dup2\n      mstore\n      0x04\n      add\n      tag_294\n      swap1\n      tag_249\n      jump\t// in\n    tag_294:\n      mload(0x40)\n      dup1\n      swap2\n      sub\n      swap1\n      revert\n    tag_293:\n        /* \"contracts/agency.sol\":1313:1318  false */\n      0x00\n        /* \"contracts/agency.sol\":1281:1318  buildings[buildID].saleSTATE == false */\n      iszero\n      iszero\n        /* \"contracts/agency.sol\":1281:1290  buildings */\n      0x00\n        /* \"contracts/agency.sol\":1291:1298  buildID */\n      dup3\n        /* \"contracts/agency.sol\":1281:1299  buildings[buildID] */\n      dup2\n      sload\n      dup2\n      lt\n      tag_295\n      jumpi\n      tag_296\n      tag_97\n      jump\t// in\n    tag_296:\n    tag_295:\n      swap1\n      0x00\n      mstore\n      keccak256(0x00, 0x20)\n      swap1\n      0x05\n      mul\n      add\n        /* \"contracts/agency.sol\":1281:1309  buildings[buildID].saleSTATE */\n      0x04\n      add\n      0x01\n      swap1\n      sload\n      swap1\n      0x0100\n      exp\n      swap1\n      div\n      0xff\n      and\n        /* \"contracts/agency.sol\":1281:1318  buildings[buildID].saleSTATE == false */\n      iszero\n      iszero\n      eq\n        /* \"contracts/agency.sol\":1273:1338  require(buildings[buildID].saleSTATE == false, \"Already in sale\") */\n      tag_298\n      jumpi\n      mload(0x40)\n      0x08c379a000000000000000000000000000000000000000000000000000000000\n      dup2\n      mstore\n      0x04\n      add\n      tag_299\n      swap1\n      tag_255\n      jump\t// in\n    tag_299:\n      mload(0x40)\n      dup1\n      swap2\n      sub\n      swap1\n      revert\n    tag_298:\n        /* \"contracts/agency.sol\":1390:1395  false */\n      0x00\n        /* \"contracts/agency.sol\":1357:1395  buildings[buildID].arestSTATE == false */\n      iszero\n      iszero\n        /* \"contracts/agency.sol\":1357:1366  buildings */\n      0x00\n        /* \"contracts/agency.sol\":1367:1374  buildID */\n      dup3\n        /* \"contracts/agency.sol\":1357:1375  buildings[buildID] */\n      dup2\n      sload\n      dup2\n      lt\n      tag_300\n      jumpi\n      tag_301\n      tag_97\n      jump\t// in\n    tag_301:\n    tag_300:\n      swap1\n      0x00\n      mstore\n      keccak256(0x00, 0x20)\n      swap1\n      0x05\n      mul\n      add\n        /* \"contracts/agency.sol\":1357:1386  buildings[buildID].arestSTATE */\n      0x04\n      add\n      0x02\n      swap1\n      sload\n      swap1\n      0x0100\n      exp\n      swap1\n      div\n      0xff\n      and\n        /* \"contracts/agency.sol\":1357:1395  buildings[buildID].arestSTATE == false */\n      iszero\n      iszero\n      eq\n        /* \"contracts/agency.sol\":1349:1414  require(buildings[buildID].arestSTATE == false, \"Build in arest\") */\n      tag_303\n      jumpi\n      mload(0x40)\n      0x08c379a000000000000000000000000000000000000000000000000000000000\n      dup2\n      mstore\n      0x04\n      add\n      tag_304\n      swap1\n      tag_261\n      jump\t// in\n    tag_304:\n      mload(0x40)\n      dup1\n      swap2\n      sub\n      swap1\n      revert\n    tag_303:\n        /* \"contracts/agency.sol\":4472:4481  buildings */\n      0x00\n        /* \"contracts/agency.sol\":4472:4488  buildings.length */\n      dup1\n      sload\n      swap1\n      pop\n        /* \"contracts/agency.sol\":4462:4469  buildID */\n      dup5\n        /* \"contracts/agency.sol\":4462:4488  buildID < buildings.length */\n      lt\n        /* \"contracts/agency.sol\":4454:4511  require(buildID < buildings.length,\"wrong buildID value\") */\n      tag_306\n      jumpi\n      mload(0x40)\n      0x08c379a000000000000000000000000000000000000000000000000000000000\n      dup2\n      mstore\n      0x04\n      add\n      tag_307\n      swap1\n      tag_268\n      jump\t// in\n    tag_307:\n      mload(0x40)\n      dup1\n      swap2\n      sub\n      swap1\n      revert\n    tag_306:\n        /* \"contracts/agency.sol\":4539:4548  10**9 wei */\n      0x3b9aca00\n        /* \"contracts/agency.sol\":4530:4536  _price */\n      dup4\n        /* \"contracts/agency.sol\":4530:4548  _price > 10**9 wei */\n      gt\n        /* \"contracts/agency.sol\":4522:4549  require(_price > 10**9 wei) */\n      tag_308\n      jumpi\n      0x00\n      dup1\n      revert\n    tag_308:\n        /* \"contracts/agency.sol\":4560:4584  address[] memory _buyers */\n      0x60\n        /* \"contracts/agency.sol\":4595:4616  uint[] memory _prices */\n      dup1\n        /* \"contracts/agency.sol\":4627:4632  sales */\n      0x02\n        /* \"contracts/agency.sol\":4638:4701  Sale(buildID, msg.sender, address(0), _price, _buyers, _prices) */\n      mload(0x40)\n      dup1\n      0xc0\n      add\n      0x40\n      mstore\n      dup1\n        /* \"contracts/agency.sol\":4643:4650  buildID */\n      dup9\n        /* \"contracts/agency.sol\":4638:4701  Sale(buildID, msg.sender, address(0), _price, _buyers, _prices) */\n      dup2\n      mstore\n      0x20\n      add\n        /* \"contracts/agency.sol\":4652:4662  msg.sender */\n      caller\n        /* \"contracts/agency.sol\":4638:4701  Sale(buildID, msg.sender, address(0), _price, _buyers, _prices) */\n      0xffffffffffffffffffffffffffffffffffffffff\n      and\n      dup2\n      mstore\n      0x20\n      add\n        /* \"contracts/agency.sol\":4672:4673  0 */\n      0x00\n        /* \"contracts/agency.sol\":4638:4701  Sale(buildID, msg.sender, address(0), _price, _buyers, _prices) */\n      0xffffffffffffffffffffffffffffffffffffffff\n      and\n      dup2\n      mstore\n      0x20\n      add\n        /* \"contracts/agency.sol\":4676:4682  _price */\n      dup8\n        /* \"contracts/agency.sol\":4638:4701  Sale(buildID, msg.sender, address(0), _price, _buyers, _prices) */\n      dup2\n      mstore\n      0x20\n      add\n        /* \"contracts/agency.sol\":4684:4691  _buyers */\n      dup5\n        /* \"contracts/agency.sol\":4638:4701  Sale(buildID, msg.sender, address(0), _price, _buyers, _prices) */\n      dup2\n      mstore\n      0x20\n      add\n        /* \"contracts/agency.sol\":4693:4700  _prices */\n      dup4\n        /* \"contracts/agency.sol\":4638:4701  Sale(buildID, msg.sender, address(0), _price, _buyers, _prices) */\n      dup2\n      mstore\n      pop\n        /* \"contracts/agency.sol\":4627:4702  sales.push(Sale(buildID, msg.sender, address(0), _price, _buyers, _prices)) */\n      swap1\n      dup1\n      0x01\n      dup2\n      sload\n      add\n      dup1\n      dup3\n      sstore\n      dup1\n      swap2\n      pop\n      pop\n      0x01\n      swap1\n      sub\n      swap1\n      0x00\n      mstore\n      keccak256(0x00, 0x20)\n      swap1\n      0x06\n      mul\n      add\n      0x00\n      swap1\n      swap2\n      swap1\n      swap2\n      swap1\n      swap2\n      pop\n      0x00\n      dup3\n      add\n      mload\n      dup2\n      0x00\n      add\n      sstore\n      0x20\n      dup3\n      add\n      mload\n      dup2\n      0x01\n      add\n      exp(0x0100, 0x00)\n      dup2\n      sload\n      dup2\n      0xffffffffffffffffffffffffffffffffffffffff\n      mul\n      not\n      and\n      swap1\n      dup4\n      0xffffffffffffffffffffffffffffffffffffffff\n      and\n      mul\n      or\n      swap1\n      sstore\n      pop\n      0x40\n      dup3\n      add\n      mload\n      dup2\n      0x02\n      add\n      exp(0x0100, 0x00)\n      dup2\n      sload\n      dup2\n      0xffffffffffffffffffffffffffffffffffffffff\n      mul\n      not\n      and\n      swap1\n      dup4\n      0xffffffffffffffffffffffffffffffffffffffff\n      and\n      mul\n      or\n      swap1\n      sstore\n      pop\n      0x60\n      dup3\n      add\n      mload\n      dup2\n      0x03\n      add\n      sstore\n      0x80\n      dup3\n      add\n      mload\n      dup2\n      0x04\n      add\n      swap1\n      dup1\n      mload\n      swap1\n      0x20\n      add\n      swap1\n      tag_310\n      swap3\n      swap2\n      swap1\n      tag_311\n      jump\t// in\n    tag_310:\n      pop\n      0xa0\n      dup3\n      add\n      mload\n      dup2\n      0x05\n      add\n      swap1\n      dup1\n      mload\n      swap1\n      0x20\n      add\n      swap1\n      tag_312\n      swap3\n      swap2\n      swap1\n      tag_313\n      jump\t// in\n    tag_312:\n      pop\n      pop\n      pop\n        /* \"contracts/agency.sol\":4744:4748  true */\n      0x01\n        /* \"contracts/agency.sol\":4713:4722  buildings */\n      0x00\n        /* \"contracts/agency.sol\":4723:4730  buildID */\n      dup8\n        /* \"contracts/agency.sol\":4713:4731  buildings[buildID] */\n      dup2\n      sload\n      dup2\n      lt\n      tag_314\n      jumpi\n      tag_315\n      tag_97\n      jump\t// in\n    tag_315:\n    tag_314:\n      swap1\n      0x00\n      mstore\n      keccak256(0x00, 0x20)\n      swap1\n      0x05\n      mul\n      add\n        /* \"contracts/agency.sol\":4713:4741  buildings[buildID].saleSTATE */\n      0x04\n      add\n      0x01\n        /* \"contracts/agency.sol\":4713:4748  buildings[buildID].saleSTATE = true */\n      0x0100\n      exp\n      dup2\n      sload\n      dup2\n      0xff\n      mul\n      not\n      and\n      swap1\n      dup4\n      iszero\n      iszero\n      mul\n      or\n      swap1\n      sstore\n      pop\n        /* \"contracts/agency.sol\":4443:4756  {... */\n      pop\n      pop\n        /* \"contracts/agency.sol\":1131:1132  _ */\n      pop\n        /* \"contracts/agency.sol\":4348:4756  function createSale(uint buildID, uint _price) public onlyOwner(buildID) defaultSTATUS(buildID){... */\n      pop\n      pop\n      pop\n      jump\t// out\n        /* \"contracts/agency.sol\":2556:3092  function cancelGift(uint giftID) public{... */\n    tag_56:\n        /* \"contracts/agency.sol\":2623:2628  gifts */\n      0x01\n        /* \"contracts/agency.sol\":2623:2635  gifts.length */\n      dup1\n      sload\n      swap1\n      pop\n        /* \"contracts/agency.sol\":2614:2620  giftID */\n      dup2\n        /* \"contracts/agency.sol\":2614:2635  giftID < gifts.length */\n      lt\n        /* \"contracts/agency.sol\":2606:2636  require(giftID < gifts.length) */\n      tag_318\n      jumpi\n      0x00\n      dup1\n      revert\n    tag_318:\n        /* \"contracts/agency.sol\":2679:2694  giftSTAT.ACTIVE */\n      0x00\n        /* \"contracts/agency.sol\":2655:2694  gifts[giftID].status == giftSTAT.ACTIVE */\n      0x04\n      dup2\n      gt\n      iszero\n      tag_319\n      jumpi\n      tag_320\n      tag_276\n      jump\t// in\n    tag_320:\n    tag_319:\n        /* \"contracts/agency.sol\":2655:2660  gifts */\n      0x01\n        /* \"contracts/agency.sol\":2661:2667  giftID */\n      dup3\n        /* \"contracts/agency.sol\":2655:2668  gifts[giftID] */\n      dup2\n      sload\n      dup2\n      lt\n      tag_321\n      jumpi\n      tag_322\n      tag_97\n      jump\t// in\n    tag_322:\n    tag_321:\n      swap1\n      0x00\n      mstore\n      keccak256(0x00, 0x20)\n      swap1\n      0x06\n      mul\n      add\n        /* \"contracts/agency.sol\":2655:2675  gifts[giftID].status */\n      0x05\n      add\n      0x00\n      swap1\n      sload\n      swap1\n      0x0100\n      exp\n      swap1\n      div\n      0xff\n      and\n        /* \"contracts/agency.sol\":2655:2694  gifts[giftID].status == giftSTAT.ACTIVE */\n      0x04\n      dup2\n      gt\n      iszero\n      tag_324\n      jumpi\n      tag_325\n      tag_276\n      jump\t// in\n    tag_325:\n    tag_324:\n      eq\n        /* \"contracts/agency.sol\":2647:2715  require(gifts[giftID].status == giftSTAT.ACTIVE, \"Already finished\") */\n      tag_326\n      jumpi\n      mload(0x40)\n      0x08c379a000000000000000000000000000000000000000000000000000000000\n      dup2\n      mstore\n      0x04\n      add\n      tag_327\n      swap1\n      tag_328\n      jump\t// in\n    tag_327:\n      mload(0x40)\n      dup1\n      swap2\n      sub\n      swap1\n      revert\n    tag_326:\n        /* \"contracts/agency.sol\":2760:2770  msg.sender */\n      caller\n        /* \"contracts/agency.sol\":2734:2770  gifts[giftID]._adrFrom == msg.sender */\n      0xffffffffffffffffffffffffffffffffffffffff\n      and\n        /* \"contracts/agency.sol\":2734:2739  gifts */\n      0x01\n        /* \"contracts/agency.sol\":2740:2746  giftID */\n      dup3\n        /* \"contracts/agency.sol\":2734:2747  gifts[giftID] */\n      dup2\n      sload\n      dup2\n      lt\n      tag_329\n      jumpi\n      tag_330\n      tag_97\n      jump\t// in\n    tag_330:\n    tag_329:\n      swap1\n      0x00\n      mstore\n      keccak256(0x00, 0x20)\n      swap1\n      0x06\n      mul\n      add\n        /* \"contracts/agency.sol\":2734:2756  gifts[giftID]._adrFrom */\n      0x02\n      add\n      0x00\n      swap1\n      sload\n      swap1\n      0x0100\n      exp\n      swap1\n      div\n      0xffffffffffffffffffffffffffffffffffffffff\n      and\n        /* \"contracts/agency.sol\":2734:2770  gifts[giftID]._adrFrom == msg.sender */\n      0xffffffffffffffffffffffffffffffffffffffff\n      and\n      eq\n        /* \"contracts/agency.sol\":2726:2792  require(gifts[giftID]._adrFrom == msg.sender, \"You are not owner\") */\n      tag_332\n      jumpi\n      mload(0x40)\n      0x08c379a000000000000000000000000000000000000000000000000000000000\n      dup2\n      mstore\n      0x04\n      add\n      tag_333\n      swap1\n      tag_334\n      jump\t// in\n    tag_333:\n      mload(0x40)\n      dup1\n      swap2\n      sub\n      swap1\n      revert\n    tag_332:\n        /* \"contracts/agency.sol\":2803:2815  uint buildID */\n      0x00\n        /* \"contracts/agency.sol\":2818:2823  gifts */\n      0x01\n        /* \"contracts/agency.sol\":2824:2830  giftID */\n      dup3\n        /* \"contracts/agency.sol\":2818:2831  gifts[giftID] */\n      dup2\n      sload\n      dup2\n      lt\n      tag_335\n      jumpi\n      tag_336\n      tag_97\n      jump\t// in\n    tag_336:\n    tag_335:\n      swap1\n      0x00\n      mstore\n      keccak256(0x00, 0x20)\n      swap1\n      0x06\n      mul\n      add\n        /* \"contracts/agency.sol\":2818:2839  gifts[giftID].buildID */\n      0x01\n      add\n      sload\n        /* \"contracts/agency.sol\":2803:2839  uint buildID = gifts[giftID].buildID */\n      swap1\n      pop\n        /* \"contracts/agency.sol\":2875:2890  block.timestamp */\n      timestamp\n        /* \"contracts/agency.sol\":2854:2859  gifts */\n      0x01\n        /* \"contracts/agency.sol\":2860:2866  giftID */\n      dup4\n        /* \"contracts/agency.sol\":2854:2867  gifts[giftID] */\n      dup2\n      sload\n      dup2\n      lt\n      tag_338\n      jumpi\n      tag_339\n      tag_97\n      jump\t// in\n    tag_339:\n    tag_338:\n      swap1\n      0x00\n      mstore\n      keccak256(0x00, 0x20)\n      swap1\n      0x06\n      mul\n      add\n        /* \"contracts/agency.sol\":2854:2872  gifts[giftID].time */\n      0x04\n      add\n      sload\n        /* \"contracts/agency.sol\":2854:2890  gifts[giftID].time > block.timestamp */\n      gt\n        /* \"contracts/agency.sol\":2850:3038  if (gifts[giftID].time > block.timestamp) {... */\n      iszero\n      tag_341\n      jumpi\n        /* \"contracts/agency.sol\":2930:2945  giftSTAT.CANCEL */\n      0x04\n        /* \"contracts/agency.sol\":2907:2912  gifts */\n      0x01\n        /* \"contracts/agency.sol\":2913:2919  giftID */\n      dup4\n        /* \"contracts/agency.sol\":2907:2920  gifts[giftID] */\n      dup2\n      sload\n      dup2\n      lt\n      tag_342\n      jumpi\n      tag_343\n      tag_97\n      jump\t// in\n    tag_343:\n    tag_342:\n      swap1\n      0x00\n      mstore\n      keccak256(0x00, 0x20)\n      swap1\n      0x06\n      mul\n      add\n        /* \"contracts/agency.sol\":2907:2927  gifts[giftID].status */\n      0x05\n      add\n      0x00\n        /* \"contracts/agency.sol\":2907:2945  gifts[giftID].status = giftSTAT.CANCEL */\n      0x0100\n      exp\n      dup2\n      sload\n      dup2\n      0xff\n      mul\n      not\n      and\n      swap1\n      dup4\n      0x04\n      dup2\n      gt\n      iszero\n      tag_345\n      jumpi\n      tag_346\n      tag_276\n      jump\t// in\n    tag_346:\n    tag_345:\n      mul\n      or\n      swap1\n      sstore\n      pop\n        /* \"contracts/agency.sol\":2850:3038  if (gifts[giftID].time > block.timestamp) {... */\n      jump(tag_347)\n    tag_341:\n        /* \"contracts/agency.sol\":3010:3026  giftSTAT.ENDTIME */\n      0x03\n        /* \"contracts/agency.sol\":2987:2992  gifts */\n      0x01\n        /* \"contracts/agency.sol\":2993:2999  giftID */\n      dup4\n        /* \"contracts/agency.sol\":2987:3000  gifts[giftID] */\n      dup2\n      sload\n      dup2\n      lt\n      tag_348\n      jumpi\n      tag_349\n      tag_97\n      jump\t// in\n    tag_349:\n    tag_348:\n      swap1\n      0x00\n      mstore\n      keccak256(0x00, 0x20)\n      swap1\n      0x06\n      mul\n      add\n        /* \"contracts/agency.sol\":2987:3007  gifts[giftID].status */\n      0x05\n      add\n      0x00\n        /* \"contracts/agency.sol\":2987:3026  gifts[giftID].status = giftSTAT.ENDTIME */\n      0x0100\n      exp\n      dup2\n      sload\n      dup2\n      0xff\n      mul\n      not\n      and\n      swap1\n      dup4\n      0x04\n      dup2\n      gt\n      iszero\n      tag_351\n      jumpi\n      tag_352\n      tag_276\n      jump\t// in\n    tag_352:\n    tag_351:\n      mul\n      or\n      swap1\n      sstore\n      pop\n        /* \"contracts/agency.sol\":2850:3038  if (gifts[giftID].time > block.timestamp) {... */\n    tag_347:\n        /* \"contracts/agency.sol\":3079:3084  false */\n      0x00\n        /* \"contracts/agency.sol\":3048:3057  buildings */\n      dup1\n        /* \"contracts/agency.sol\":3058:3065  buildID */\n      dup3\n        /* \"contracts/agency.sol\":3048:3066  buildings[buildID] */\n      dup2\n      sload\n      dup2\n      lt\n      tag_353\n      jumpi\n      tag_354\n      tag_97\n      jump\t// in\n    tag_354:\n    tag_353:\n      swap1\n      0x00\n      mstore\n      keccak256(0x00, 0x20)\n      swap1\n      0x05\n      mul\n      add\n        /* \"contracts/agency.sol\":3048:3076  buildings[buildID].giftSTATE */\n      0x04\n      add\n      0x00\n        /* \"contracts/agency.sol\":3048:3084  buildings[buildID].giftSTATE = false */\n      0x0100\n      exp\n      dup2\n      sload\n      dup2\n      0xff\n      mul\n      not\n      and\n      swap1\n      dup4\n      iszero\n      iszero\n      mul\n      or\n      swap1\n      sstore\n      pop\n        /* \"contracts/agency.sol\":2595:3092  {... */\n      pop\n        /* \"contracts/agency.sol\":2556:3092  function cancelGift(uint giftID) public{... */\n      pop\n      jump\t// out\n        /* \"contracts/agency.sol\":1567:1861  function createBuild(address _owner, string memory _info, uint _square) public isAdmin {... */\n    tag_61:\n        /* \"contracts/agency.sol\":955:960  admin */\n      0x03\n      0x00\n      swap1\n      sload\n      swap1\n      0x0100\n      exp\n      swap1\n      div\n      0xffffffffffffffffffffffffffffffffffffffff\n      and\n        /* \"contracts/agency.sol\":941:960  msg.sender == admin */\n      0xffffffffffffffffffffffffffffffffffffffff\n      and\n        /* \"contracts/agency.sol\":941:951  msg.sender */\n      caller\n        /* \"contracts/agency.sol\":941:960  msg.sender == admin */\n      0xffffffffffffffffffffffffffffffffffffffff\n      and\n      eq\n        /* \"contracts/agency.sol\":933:982  require(msg.sender == admin, \"You are not admin\") */\n      tag_357\n      jumpi\n      mload(0x40)\n      0x08c379a000000000000000000000000000000000000000000000000000000000\n      dup2\n      mstore\n      0x04\n      add\n      tag_358\n      swap1\n      tag_93\n      jump\t// in\n    tag_358:\n      mload(0x40)\n      dup1\n      swap2\n      sub\n      swap1\n      revert\n    tag_357:\n        /* \"contracts/agency.sol\":1691:1692  0 */\n      0x00\n        /* \"contracts/agency.sol\":1673:1693  _owner != address(0) */\n      0xffffffffffffffffffffffffffffffffffffffff\n      and\n        /* \"contracts/agency.sol\":1673:1679  _owner */\n      dup4\n        /* \"contracts/agency.sol\":1673:1693  _owner != address(0) */\n      0xffffffffffffffffffffffffffffffffffffffff\n      and\n      sub\n        /* \"contracts/agency.sol\":1665:1711  require(_owner != address(0), \"wrong address\") */\n      tag_360\n      jumpi\n      mload(0x40)\n      0x08c379a000000000000000000000000000000000000000000000000000000000\n      dup2\n      mstore\n      0x04\n      add\n      tag_361\n      swap1\n      tag_362\n      jump\t// in\n    tag_361:\n      mload(0x40)\n      dup1\n      swap2\n      sub\n      swap1\n      revert\n    tag_360:\n        /* \"contracts/agency.sol\":1740:1741  0 */\n      0x00\n        /* \"contracts/agency.sol\":1730:1737  _square */\n      dup2\n        /* \"contracts/agency.sol\":1730:1741  _square > 0 */\n      gt\n        /* \"contracts/agency.sol\":1722:1758  require(_square > 0, \"wrong square\") */\n      tag_363\n      jumpi\n      mload(0x40)\n      0x08c379a000000000000000000000000000000000000000000000000000000000\n      dup2\n      mstore\n      0x04\n      add\n      tag_364\n      swap1\n      tag_365\n      jump\t// in\n    tag_364:\n      mload(0x40)\n      dup1\n      swap2\n      sub\n      swap1\n      revert\n    tag_363:\n        /* \"contracts/agency.sol\":1769:1778  buildings */\n      0x00\n        /* \"contracts/agency.sol\":1784:1852  Build(buildings.length, _owner, _info, _square, false, false, false) */\n      mload(0x40)\n      dup1\n      0xe0\n      add\n      0x40\n      mstore\n      dup1\n        /* \"contracts/agency.sol\":1790:1799  buildings */\n      0x00\n        /* \"contracts/agency.sol\":1790:1806  buildings.length */\n      dup1\n      sload\n      swap1\n      pop\n        /* \"contracts/agency.sol\":1784:1852  Build(buildings.length, _owner, _info, _square, false, false, false) */\n      dup2\n      mstore\n      0x20\n      add\n        /* \"contracts/agency.sol\":1808:1814  _owner */\n      dup6\n        /* \"contracts/agency.sol\":1784:1852  Build(buildings.length, _owner, _info, _square, false, false, false) */\n      0xffffffffffffffffffffffffffffffffffffffff\n      and\n      dup2\n      mstore\n      0x20\n      add\n        /* \"contracts/agency.sol\":1816:1821  _info */\n      dup5\n        /* \"contracts/agency.sol\":1784:1852  Build(buildings.length, _owner, _info, _square, false, false, false) */\n      dup2\n      mstore\n      0x20\n      add\n        /* \"contracts/agency.sol\":1823:1830  _square */\n      dup4\n        /* \"contracts/agency.sol\":1784:1852  Build(buildings.length, _owner, _info, _square, false, false, false) */\n      dup2\n      mstore\n      0x20\n      add\n        /* \"contracts/agency.sol\":1832:1837  false */\n      0x00\n        /* \"contracts/agency.sol\":1784:1852  Build(buildings.length, _owner, _info, _square, false, false, false) */\n      iszero\n      iszero\n      dup2\n      mstore\n      0x20\n      add\n        /* \"contracts/agency.sol\":1839:1844  false */\n      0x00\n        /* \"contracts/agency.sol\":1784:1852  Build(buildings.length, _owner, _info, _square, false, false, false) */\n      iszero\n      iszero\n      dup2\n      mstore\n      0x20\n      add\n        /* \"contracts/agency.sol\":1846:1851  false */\n      0x00\n        /* \"contracts/agency.sol\":1784:1852  Build(buildings.length, _owner, _info, _square, false, false, false) */\n      iszero\n      iszero\n      dup2\n      mstore\n      pop\n        /* \"contracts/agency.sol\":1769:1853  buildings.push(Build(buildings.length, _owner, _info, _square, false, false, false)) */\n      swap1\n      dup1\n      0x01\n      dup2\n      sload\n      add\n      dup1\n      dup3\n      sstore\n      dup1\n      swap2\n      pop\n      pop\n      0x01\n      swap1\n      sub\n      swap1\n      0x00\n      mstore\n      keccak256(0x00, 0x20)\n      swap1\n      0x05\n      mul\n      add\n      0x00\n      swap1\n      swap2\n      swap1\n      swap2\n      swap1\n      swap2\n      pop\n      0x00\n      dup3\n      add\n      mload\n      dup2\n      0x00\n      add\n      sstore\n      0x20\n      dup3\n      add\n      mload\n      dup2\n      0x01\n      add\n      exp(0x0100, 0x00)\n      dup2\n      sload\n      dup2\n      0xffffffffffffffffffffffffffffffffffffffff\n      mul\n      not\n      and\n      swap1\n      dup4\n      0xffffffffffffffffffffffffffffffffffffffff\n      and\n      mul\n      or\n      swap1\n      sstore\n      pop\n      0x40\n      dup3\n      add\n      mload\n      dup2\n      0x02\n      add\n      swap1\n      dup2\n      tag_367\n      swap2\n      swap1\n      tag_368\n      jump\t// in\n    tag_367:\n      pop\n      0x60\n      dup3\n      add\n      mload\n      dup2\n      0x03\n      add\n      sstore\n      0x80\n      dup3\n      add\n      mload\n      dup2\n      0x04\n      add\n      exp(0x0100, 0x00)\n      dup2\n      sload\n      dup2\n      0xff\n      mul\n      not\n      and\n      swap1\n      dup4\n      iszero\n      iszero\n      mul\n      or\n      swap1\n      sstore\n      pop\n      0xa0\n      dup3\n      add\n      mload\n      dup2\n      0x04\n      add\n      exp(0x0100, 0x01)\n      dup2\n      sload\n      dup2\n      0xff\n      mul\n      not\n      and\n      swap1\n      dup4\n      iszero\n      iszero\n      mul\n      or\n      swap1\n      sstore\n      pop\n      0xc0\n      dup3\n      add\n      mload\n      dup2\n      0x04\n      add\n      exp(0x0100, 0x02)\n      dup2\n      sload\n      dup2\n      0xff\n      mul\n      not\n      and\n      swap1\n      dup4\n      iszero\n      iszero\n      mul\n      or\n      swap1\n      sstore\n      pop\n      pop\n      pop\n        /* \"contracts/agency.sol\":1567:1861  function createBuild(address _owner, string memory _info, uint _square) public isAdmin {... */\n      pop\n      pop\n      pop\n      jump\t// out\n        /* \"contracts/agency.sol\":816:835  Sale[] public sales */\n    tag_65:\n      0x02\n      dup2\n      dup2\n      sload\n      dup2\n      lt\n      tag_369\n      jumpi\n      0x00\n      dup1\n      revert\n    tag_369:\n      swap1\n      0x00\n      mstore\n      keccak256(0x00, 0x20)\n      swap1\n      0x06\n      mul\n      add\n      0x00\n      swap2\n      pop\n      swap1\n      pop\n      dup1\n      0x00\n      add\n      sload\n      swap1\n      dup1\n      0x01\n      add\n      0x00\n      swap1\n      sload\n      swap1\n      0x0100\n      exp\n      swap1\n      div\n      0xffffffffffffffffffffffffffffffffffffffff\n      and\n      swap1\n      dup1\n      0x02\n      add\n      0x00\n      swap1\n      sload\n      swap1\n      0x0100\n      exp\n      swap1\n      div\n      0xffffffffffffffffffffffffffffffffffffffff\n      and\n      swap1\n      dup1\n      0x03\n      add\n      sload\n      swap1\n      pop\n      dup5\n      jump\t// out\n        /* \"contracts/agency.sol\":3100:3771  function acceptGift(uint giftID) public{... */\n    tag_71:\n        /* \"contracts/agency.sol\":3150:3162  uint buildID */\n      0x00\n        /* \"contracts/agency.sol\":3165:3170  gifts */\n      0x01\n        /* \"contracts/agency.sol\":3171:3177  giftID */\n      dup3\n        /* \"contracts/agency.sol\":3165:3178  gifts[giftID] */\n      dup2\n      sload\n      dup2\n      lt\n      tag_372\n      jumpi\n      tag_373\n      tag_97\n      jump\t// in\n    tag_373:\n    tag_372:\n      swap1\n      0x00\n      mstore\n      keccak256(0x00, 0x20)\n      swap1\n      0x06\n      mul\n      add\n        /* \"contracts/agency.sol\":3165:3186  gifts[giftID].buildID */\n      0x01\n      add\n      sload\n        /* \"contracts/agency.sol\":3150:3186  uint buildID = gifts[giftID].buildID */\n      swap1\n      pop\n        /* \"contracts/agency.sol\":3238:3243  false */\n      0x00\n        /* \"contracts/agency.sol\":3205:3243  buildings[buildID].arestSTATE == false */\n      iszero\n      iszero\n        /* \"contracts/agency.sol\":3205:3214  buildings */\n      0x00\n        /* \"contracts/agency.sol\":3215:3222  buildID */\n      dup3\n        /* \"contracts/agency.sol\":3205:3223  buildings[buildID] */\n      dup2\n      sload\n      dup2\n      lt\n      tag_375\n      jumpi\n      tag_376\n      tag_97\n      jump\t// in\n    tag_376:\n    tag_375:\n      swap1\n      0x00\n      mstore\n      keccak256(0x00, 0x20)\n      swap1\n      0x05\n      mul\n      add\n        /* \"contracts/agency.sol\":3205:3234  buildings[buildID].arestSTATE */\n      0x04\n      add\n      0x02\n      swap1\n      sload\n      swap1\n      0x0100\n      exp\n      swap1\n      div\n      0xff\n      and\n        /* \"contracts/agency.sol\":3205:3243  buildings[buildID].arestSTATE == false */\n      iszero\n      iszero\n      eq\n        /* \"contracts/agency.sol\":3197:3264  require(buildings[buildID].arestSTATE == false, \"build is arested\") */\n      tag_378\n      jumpi\n      mload(0x40)\n      0x08c379a000000000000000000000000000000000000000000000000000000000\n      dup2\n      mstore\n      0x04\n      add\n      tag_379\n      swap1\n      tag_181\n      jump\t// in\n    tag_379:\n      mload(0x40)\n      dup1\n      swap2\n      sub\n      swap1\n      revert\n    tag_378:\n        /* \"contracts/agency.sol\":3292:3297  gifts */\n      0x01\n        /* \"contracts/agency.sol\":3292:3304  gifts.length */\n      dup1\n      sload\n      swap1\n      pop\n        /* \"contracts/agency.sol\":3283:3289  giftID */\n      dup3\n        /* \"contracts/agency.sol\":3283:3304  giftID < gifts.length */\n      lt\n        /* \"contracts/agency.sol\":3275:3305  require(giftID < gifts.length) */\n      tag_380\n      jumpi\n      0x00\n      dup1\n      revert\n    tag_380:\n        /* \"contracts/agency.sol\":3348:3363  giftSTAT.ACTIVE */\n      0x00\n        /* \"contracts/agency.sol\":3324:3363  gifts[giftID].status == giftSTAT.ACTIVE */\n      0x04\n      dup2\n      gt\n      iszero\n      tag_381\n      jumpi\n      tag_382\n      tag_276\n      jump\t// in\n    tag_382:\n    tag_381:\n        /* \"contracts/agency.sol\":3324:3329  gifts */\n      0x01\n        /* \"contracts/agency.sol\":3330:3336  giftID */\n      dup4\n        /* \"contracts/agency.sol\":3324:3337  gifts[giftID] */\n      dup2\n      sload\n      dup2\n      lt\n      tag_383\n      jumpi\n      tag_384\n      tag_97\n      jump\t// in\n    tag_384:\n    tag_383:\n      swap1\n      0x00\n      mstore\n      keccak256(0x00, 0x20)\n      swap1\n      0x06\n      mul\n      add\n        /* \"contracts/agency.sol\":3324:3344  gifts[giftID].status */\n      0x05\n      add\n      0x00\n      swap1\n      sload\n      swap1\n      0x0100\n      exp\n      swap1\n      div\n      0xff\n      and\n        /* \"contracts/agency.sol\":3324:3363  gifts[giftID].status == giftSTAT.ACTIVE */\n      0x04\n      dup2\n      gt\n      iszero\n      tag_386\n      jumpi\n      tag_387\n      tag_276\n      jump\t// in\n    tag_387:\n    tag_386:\n      eq\n        /* \"contracts/agency.sol\":3316:3384  require(gifts[giftID].status == giftSTAT.ACTIVE, \"Already finished\") */\n      tag_388\n      jumpi\n      mload(0x40)\n      0x08c379a000000000000000000000000000000000000000000000000000000000\n      dup2\n      mstore\n      0x04\n      add\n      tag_389\n      swap1\n      tag_328\n      jump\t// in\n    tag_389:\n      mload(0x40)\n      dup1\n      swap2\n      sub\n      swap1\n      revert\n    tag_388:\n        /* \"contracts/agency.sol\":3427:3437  msg.sender */\n      caller\n        /* \"contracts/agency.sol\":3403:3437  gifts[giftID]._adrTo == msg.sender */\n      0xffffffffffffffffffffffffffffffffffffffff\n      and\n        /* \"contracts/agency.sol\":3403:3408  gifts */\n      0x01\n        /* \"contracts/agency.sol\":3409:3415  giftID */\n      dup4\n        /* \"contracts/agency.sol\":3403:3416  gifts[giftID] */\n      dup2\n      sload\n      dup2\n      lt\n      tag_390\n      jumpi\n      tag_391\n      tag_97\n      jump\t// in\n    tag_391:\n    tag_390:\n      swap1\n      0x00\n      mstore\n      keccak256(0x00, 0x20)\n      swap1\n      0x06\n      mul\n      add\n        /* \"contracts/agency.sol\":3403:3423  gifts[giftID]._adrTo */\n      0x03\n      add\n      0x00\n      swap1\n      sload\n      swap1\n      0x0100\n      exp\n      swap1\n      div\n      0xffffffffffffffffffffffffffffffffffffffff\n      and\n        /* \"contracts/agency.sol\":3403:3437  gifts[giftID]._adrTo == msg.sender */\n      0xffffffffffffffffffffffffffffffffffffffff\n      and\n      eq\n        /* \"contracts/agency.sol\":3395:3466  require(gifts[giftID]._adrTo == msg.sender, \"This is gift not for you\") */\n      tag_393\n      jumpi\n      mload(0x40)\n      0x08c379a000000000000000000000000000000000000000000000000000000000\n      dup2\n      mstore\n      0x04\n      add\n      tag_394\n      swap1\n      tag_395\n      jump\t// in\n    tag_394:\n      mload(0x40)\n      dup1\n      swap2\n      sub\n      swap1\n      revert\n    tag_393:\n        /* \"contracts/agency.sol\":3502:3517  block.timestamp */\n      timestamp\n        /* \"contracts/agency.sol\":3481:3486  gifts */\n      0x01\n        /* \"contracts/agency.sol\":3487:3493  giftID */\n      dup4\n        /* \"contracts/agency.sol\":3481:3494  gifts[giftID] */\n      dup2\n      sload\n      dup2\n      lt\n      tag_396\n      jumpi\n      tag_397\n      tag_97\n      jump\t// in\n    tag_397:\n    tag_396:\n      swap1\n      0x00\n      mstore\n      keccak256(0x00, 0x20)\n      swap1\n      0x06\n      mul\n      add\n        /* \"contracts/agency.sol\":3481:3499  gifts[giftID].time */\n      0x04\n      add\n      sload\n        /* \"contracts/agency.sol\":3481:3517  gifts[giftID].time > block.timestamp */\n      gt\n        /* \"contracts/agency.sol\":3477:3717  if (gifts[giftID].time > block.timestamp) {... */\n      iszero\n      tag_399\n      jumpi\n        /* \"contracts/agency.sol\":3557:3572  giftSTAT.ACCEPT */\n      0x02\n        /* \"contracts/agency.sol\":3534:3539  gifts */\n      0x01\n        /* \"contracts/agency.sol\":3540:3546  giftID */\n      dup4\n        /* \"contracts/agency.sol\":3534:3547  gifts[giftID] */\n      dup2\n      sload\n      dup2\n      lt\n      tag_400\n      jumpi\n      tag_401\n      tag_97\n      jump\t// in\n    tag_401:\n    tag_400:\n      swap1\n      0x00\n      mstore\n      keccak256(0x00, 0x20)\n      swap1\n      0x06\n      mul\n      add\n        /* \"contracts/agency.sol\":3534:3554  gifts[giftID].status */\n      0x05\n      add\n      0x00\n        /* \"contracts/agency.sol\":3534:3572  gifts[giftID].status = giftSTAT.ACCEPT */\n      0x0100\n      exp\n      dup2\n      sload\n      dup2\n      0xff\n      mul\n      not\n      and\n      swap1\n      dup4\n      0x04\n      dup2\n      gt\n      iszero\n      tag_403\n      jumpi\n      tag_404\n      tag_276\n      jump\t// in\n    tag_404:\n    tag_403:\n      mul\n      or\n      swap1\n      sstore\n      pop\n        /* \"contracts/agency.sol\":3614:3624  msg.sender */\n      caller\n        /* \"contracts/agency.sol\":3587:3596  buildings */\n      0x00\n        /* \"contracts/agency.sol\":3597:3604  buildID */\n      dup3\n        /* \"contracts/agency.sol\":3587:3605  buildings[buildID] */\n      dup2\n      sload\n      dup2\n      lt\n      tag_405\n      jumpi\n      tag_406\n      tag_97\n      jump\t// in\n    tag_406:\n    tag_405:\n      swap1\n      0x00\n      mstore\n      keccak256(0x00, 0x20)\n      swap1\n      0x05\n      mul\n      add\n        /* \"contracts/agency.sol\":3587:3611  buildings[buildID].owner */\n      0x01\n      add\n      0x00\n        /* \"contracts/agency.sol\":3587:3624  buildings[buildID].owner = msg.sender */\n      0x0100\n      exp\n      dup2\n      sload\n      dup2\n      0xffffffffffffffffffffffffffffffffffffffff\n      mul\n      not\n      and\n      swap1\n      dup4\n      0xffffffffffffffffffffffffffffffffffffffff\n      and\n      mul\n      or\n      swap1\n      sstore\n      pop\n        /* \"contracts/agency.sol\":3477:3717  if (gifts[giftID].time > block.timestamp) {... */\n      jump(tag_408)\n    tag_399:\n        /* \"contracts/agency.sol\":3689:3705  giftSTAT.ENDTIME */\n      0x03\n        /* \"contracts/agency.sol\":3666:3671  gifts */\n      0x01\n        /* \"contracts/agency.sol\":3672:3678  giftID */\n      dup4\n        /* \"contracts/agency.sol\":3666:3679  gifts[giftID] */\n      dup2\n      sload\n      dup2\n      lt\n      tag_409\n      jumpi\n      tag_410\n      tag_97\n      jump\t// in\n    tag_410:\n    tag_409:\n      swap1\n      0x00\n      mstore\n      keccak256(0x00, 0x20)\n      swap1\n      0x06\n      mul\n      add\n        /* \"contracts/agency.sol\":3666:3686  gifts[giftID].status */\n      0x05\n      add\n      0x00\n        /* \"contracts/agency.sol\":3666:3705  gifts[giftID].status = giftSTAT.ENDTIME */\n      0x0100\n      exp\n      dup2\n      sload\n      dup2\n      0xff\n      mul\n      not\n      and\n      swap1\n      dup4\n      0x04\n      dup2\n      gt\n      iszero\n      tag_412\n      jumpi\n      tag_413\n      tag_276\n      jump\t// in\n    tag_413:\n    tag_412:\n      mul\n      or\n      swap1\n      sstore\n      pop\n        /* \"contracts/agency.sol\":3477:3717  if (gifts[giftID].time > block.timestamp) {... */\n    tag_408:\n        /* \"contracts/agency.sol\":3758:3763  false */\n      0x00\n        /* \"contracts/agency.sol\":3727:3736  buildings */\n      dup1\n        /* \"contracts/agency.sol\":3737:3744  buildID */\n      dup3\n        /* \"contracts/agency.sol\":3727:3745  buildings[buildID] */\n      dup2\n      sload\n      dup2\n      lt\n      tag_414\n      jumpi\n      tag_415\n      tag_97\n      jump\t// in\n    tag_415:\n    tag_414:\n      swap1\n      0x00\n      mstore\n      keccak256(0x00, 0x20)\n      swap1\n      0x05\n      mul\n      add\n        /* \"contracts/agency.sol\":3727:3755  buildings[buildID].giftSTATE */\n      0x04\n      add\n      0x00\n        /* \"contracts/agency.sol\":3727:3763  buildings[buildID].giftSTATE = false */\n      0x0100\n      exp\n      dup2\n      sload\n      dup2\n      0xff\n      mul\n      not\n      and\n      swap1\n      dup4\n      iszero\n      iszero\n      mul\n      or\n      swap1\n      sstore\n      pop\n        /* \"contracts/agency.sol\":3139:3771  {... */\n      pop\n        /* \"contracts/agency.sol\":3100:3771  function acceptGift(uint giftID) public{... */\n      pop\n      jump\t// out\n        /* \"contracts/agency.sol\":790:809  Gift[] public gifts */\n    tag_75:\n      0x01\n      dup2\n      dup2\n      sload\n      dup2\n      lt\n      tag_417\n      jumpi\n      0x00\n      dup1\n      revert\n    tag_417:\n      swap1\n      0x00\n      mstore\n      keccak256(0x00, 0x20)\n      swap1\n      0x06\n      mul\n      add\n      0x00\n      swap2\n      pop\n      swap1\n      pop\n      dup1\n      0x00\n      add\n      sload\n      swap1\n      dup1\n      0x01\n      add\n      sload\n      swap1\n      dup1\n      0x02\n      add\n      0x00\n      swap1\n      sload\n      swap1\n      0x0100\n      exp\n      swap1\n      div\n      0xffffffffffffffffffffffffffffffffffffffff\n      and\n      swap1\n      dup1\n      0x03\n      add\n      0x00\n      swap1\n      sload\n      swap1\n      0x0100\n      exp\n      swap1\n      div\n      0xffffffffffffffffffffffffffffffffffffffff\n      and\n      swap1\n      dup1\n      0x04\n      add\n      sload\n      swap1\n      dup1\n      0x05\n      add\n      0x00\n      swap1\n      sload\n      swap1\n      0x0100\n      exp\n      swap1\n      div\n      0xff\n      and\n      swap1\n      pop\n      dup7\n      jump\t// out\n        /* \"contracts/agency.sol\":3783:4325  function refuseGift(uint giftID) public {... */\n    tag_81:\n        /* \"contracts/agency.sol\":3834:3846  uint buildID */\n      0x00\n        /* \"contracts/agency.sol\":3849:3854  gifts */\n      0x01\n        /* \"contracts/agency.sol\":3855:3861  giftID */\n      dup3\n        /* \"contracts/agency.sol\":3849:3862  gifts[giftID] */\n      dup2\n      sload\n      dup2\n      lt\n      tag_420\n      jumpi\n      tag_421\n      tag_97\n      jump\t// in\n    tag_421:\n    tag_420:\n      swap1\n      0x00\n      mstore\n      keccak256(0x00, 0x20)\n      swap1\n      0x06\n      mul\n      add\n        /* \"contracts/agency.sol\":3849:3870  gifts[giftID].buildID */\n      0x01\n      add\n      sload\n        /* \"contracts/agency.sol\":3834:3870  uint buildID = gifts[giftID].buildID */\n      swap1\n      pop\n        /* \"contracts/agency.sol\":3898:3903  gifts */\n      0x01\n        /* \"contracts/agency.sol\":3898:3910  gifts.length */\n      dup1\n      sload\n      swap1\n      pop\n        /* \"contracts/agency.sol\":3889:3895  giftID */\n      dup3\n        /* \"contracts/agency.sol\":3889:3910  giftID < gifts.length */\n      lt\n        /* \"contracts/agency.sol\":3881:3911  require(giftID < gifts.length) */\n      tag_423\n      jumpi\n      0x00\n      dup1\n      revert\n    tag_423:\n        /* \"contracts/agency.sol\":3954:3969  giftSTAT.ACTIVE */\n      0x00\n        /* \"contracts/agency.sol\":3930:3969  gifts[giftID].status == giftSTAT.ACTIVE */\n      0x04\n      dup2\n      gt\n      iszero\n      tag_424\n      jumpi\n      tag_425\n      tag_276\n      jump\t// in\n    tag_425:\n    tag_424:\n        /* \"contracts/agency.sol\":3930:3935  gifts */\n      0x01\n        /* \"contracts/agency.sol\":3936:3942  giftID */\n      dup4\n        /* \"contracts/agency.sol\":3930:3943  gifts[giftID] */\n      dup2\n      sload\n      dup2\n      lt\n      tag_426\n      jumpi\n      tag_427\n      tag_97\n      jump\t// in\n    tag_427:\n    tag_426:\n      swap1\n      0x00\n      mstore\n      keccak256(0x00, 0x20)\n      swap1\n      0x06\n      mul\n      add\n        /* \"contracts/agency.sol\":3930:3950  gifts[giftID].status */\n      0x05\n      add\n      0x00\n      swap1\n      sload\n      swap1\n      0x0100\n      exp\n      swap1\n      div\n      0xff\n      and\n        /* \"contracts/agency.sol\":3930:3969  gifts[giftID].status == giftSTAT.ACTIVE */\n      0x04\n      dup2\n      gt\n      iszero\n      tag_429\n      jumpi\n      tag_430\n      tag_276\n      jump\t// in\n    tag_430:\n    tag_429:\n      eq\n        /* \"contracts/agency.sol\":3922:3990  require(gifts[giftID].status == giftSTAT.ACTIVE, \"Already finished\") */\n      tag_431\n      jumpi\n      mload(0x40)\n      0x08c379a000000000000000000000000000000000000000000000000000000000\n      dup2\n      mstore\n      0x04\n      add\n      tag_432\n      swap1\n      tag_328\n      jump\t// in\n    tag_432:\n      mload(0x40)\n      dup1\n      swap2\n      sub\n      swap1\n      revert\n    tag_431:\n        /* \"contracts/agency.sol\":4033:4043  msg.sender */\n      caller\n        /* \"contracts/agency.sol\":4009:4043  gifts[giftID]._adrTo == msg.sender */\n      0xffffffffffffffffffffffffffffffffffffffff\n      and\n        /* \"contracts/agency.sol\":4009:4014  gifts */\n      0x01\n        /* \"contracts/agency.sol\":4015:4021  giftID */\n      dup4\n        /* \"contracts/agency.sol\":4009:4022  gifts[giftID] */\n      dup2\n      sload\n      dup2\n      lt\n      tag_433\n      jumpi\n      tag_434\n      tag_97\n      jump\t// in\n    tag_434:\n    tag_433:\n      swap1\n      0x00\n      mstore\n      keccak256(0x00, 0x20)\n      swap1\n      0x06\n      mul\n      add\n        /* \"contracts/agency.sol\":4009:4029  gifts[giftID]._adrTo */\n      0x03\n      add\n      0x00\n      swap1\n      sload\n      swap1\n      0x0100\n      exp\n      swap1\n      div\n      0xffffffffffffffffffffffffffffffffffffffff\n      and\n        /* \"contracts/agency.sol\":4009:4043  gifts[giftID]._adrTo == msg.sender */\n      0xffffffffffffffffffffffffffffffffffffffff\n      and\n      eq\n        /* \"contracts/agency.sol\":4001:4072  require(gifts[giftID]._adrTo == msg.sender, \"This is gift not for you\") */\n      tag_436\n      jumpi\n      mload(0x40)\n      0x08c379a000000000000000000000000000000000000000000000000000000000\n      dup2\n      mstore\n      0x04\n      add\n      tag_437\n      swap1\n      tag_395\n      jump\t// in\n    tag_437:\n      mload(0x40)\n      dup1\n      swap2\n      sub\n      swap1\n      revert\n    tag_436:\n        /* \"contracts/agency.sol\":4108:4123  block.timestamp */\n      timestamp\n        /* \"contracts/agency.sol\":4087:4092  gifts */\n      0x01\n        /* \"contracts/agency.sol\":4093:4099  giftID */\n      dup4\n        /* \"contracts/agency.sol\":4087:4100  gifts[giftID] */\n      dup2\n      sload\n      dup2\n      lt\n      tag_438\n      jumpi\n      tag_439\n      tag_97\n      jump\t// in\n    tag_439:\n    tag_438:\n      swap1\n      0x00\n      mstore\n      keccak256(0x00, 0x20)\n      swap1\n      0x06\n      mul\n      add\n        /* \"contracts/agency.sol\":4087:4105  gifts[giftID].time */\n      0x04\n      add\n      sload\n        /* \"contracts/agency.sol\":4087:4123  gifts[giftID].time > block.timestamp */\n      gt\n        /* \"contracts/agency.sol\":4083:4271  if (gifts[giftID].time > block.timestamp) {... */\n      iszero\n      tag_441\n      jumpi\n        /* \"contracts/agency.sol\":4163:4178  giftSTAT.REFUSE */\n      0x01\n        /* \"contracts/agency.sol\":4140:4145  gifts */\n      dup1\n        /* \"contracts/agency.sol\":4146:4152  giftID */\n      dup4\n        /* \"contracts/agency.sol\":4140:4153  gifts[giftID] */\n      dup2\n      sload\n      dup2\n      lt\n      tag_442\n      jumpi\n      tag_443\n      tag_97\n      jump\t// in\n    tag_443:\n    tag_442:\n      swap1\n      0x00\n      mstore\n      keccak256(0x00, 0x20)\n      swap1\n      0x06\n      mul\n      add\n        /* \"contracts/agency.sol\":4140:4160  gifts[giftID].status */\n      0x05\n      add\n      0x00\n        /* \"contracts/agency.sol\":4140:4178  gifts[giftID].status = giftSTAT.REFUSE */\n      0x0100\n      exp\n      dup2\n      sload\n      dup2\n      0xff\n      mul\n      not\n      and\n      swap1\n      dup4\n      0x04\n      dup2\n      gt\n      iszero\n      tag_445\n      jumpi\n      tag_446\n      tag_276\n      jump\t// in\n    tag_446:\n    tag_445:\n      mul\n      or\n      swap1\n      sstore\n      pop\n        /* \"contracts/agency.sol\":4083:4271  if (gifts[giftID].time > block.timestamp) {... */\n      jump(tag_447)\n    tag_441:\n        /* \"contracts/agency.sol\":4243:4259  giftSTAT.ENDTIME */\n      0x03\n        /* \"contracts/agency.sol\":4220:4225  gifts */\n      0x01\n        /* \"contracts/agency.sol\":4226:4232  giftID */\n      dup4\n        /* \"contracts/agency.sol\":4220:4233  gifts[giftID] */\n      dup2\n      sload\n      dup2\n      lt\n      tag_448\n      jumpi\n      tag_449\n      tag_97\n      jump\t// in\n    tag_449:\n    tag_448:\n      swap1\n      0x00\n      mstore\n      keccak256(0x00, 0x20)\n      swap1\n      0x06\n      mul\n      add\n        /* \"contracts/agency.sol\":4220:4240  gifts[giftID].status */\n      0x05\n      add\n      0x00\n        /* \"contracts/agency.sol\":4220:4259  gifts[giftID].status = giftSTAT.ENDTIME */\n      0x0100\n      exp\n      dup2\n      sload\n      dup2\n      0xff\n      mul\n      not\n      and\n      swap1\n      dup4\n      0x04\n      dup2\n      gt\n      iszero\n      tag_451\n      jumpi\n      tag_452\n      tag_276\n      jump\t// in\n    tag_452:\n    tag_451:\n      mul\n      or\n      swap1\n      sstore\n      pop\n        /* \"contracts/agency.sol\":4083:4271  if (gifts[giftID].time > block.timestamp) {... */\n    tag_447:\n        /* \"contracts/agency.sol\":4312:4317  false */\n      0x00\n        /* \"contracts/agency.sol\":4281:4290  buildings */\n      dup1\n        /* \"contracts/agency.sol\":4291:4298  buildID */\n      dup3\n        /* \"contracts/agency.sol\":4281:4299  buildings[buildID] */\n      dup2\n      sload\n      dup2\n      lt\n      tag_453\n      jumpi\n      tag_454\n      tag_97\n      jump\t// in\n    tag_454:\n    tag_453:\n      swap1\n      0x00\n      mstore\n      keccak256(0x00, 0x20)\n      swap1\n      0x05\n      mul\n      add\n        /* \"contracts/agency.sol\":4281:4309  buildings[buildID].giftSTATE */\n      0x04\n      add\n      0x00\n        /* \"contracts/agency.sol\":4281:4317  buildings[buildID].giftSTATE = false */\n      0x0100\n      exp\n      dup2\n      sload\n      dup2\n      0xff\n      mul\n      not\n      and\n      swap1\n      dup4\n      iszero\n      iszero\n      mul\n      or\n      swap1\n      sstore\n      pop\n        /* \"contracts/agency.sol\":3823:4325  {... */\n      pop\n        /* \"contracts/agency.sol\":3783:4325  function refuseGift(uint giftID) public {... */\n      pop\n      jump\t// out\n        /* \"contracts/agency.sol\":4766:5599  function addPrice(uint saleID) public payable {... */\n    tag_84:\n        /* \"contracts/agency.sol\":4823:4835  uint buildID */\n      0x00\n        /* \"contracts/agency.sol\":4838:4843  sales */\n      0x02\n        /* \"contracts/agency.sol\":4844:4850  saleID */\n      dup3\n        /* \"contracts/agency.sol\":4838:4851  sales[saleID] */\n      dup2\n      sload\n      dup2\n      lt\n      tag_457\n      jumpi\n      tag_458\n      tag_97\n      jump\t// in\n    tag_458:\n    tag_457:\n      swap1\n      0x00\n      mstore\n      keccak256(0x00, 0x20)\n      swap1\n      0x06\n      mul\n      add\n        /* \"contracts/agency.sol\":4838:4859  sales[saleID].buildID */\n      0x00\n      add\n      sload\n        /* \"contracts/agency.sol\":4823:4859  uint buildID = sales[saleID].buildID */\n      swap1\n      pop\n        /* \"contracts/agency.sol\":4911:4916  false */\n      0x00\n        /* \"contracts/agency.sol\":4878:4916  buildings[buildID].arestSTATE == false */\n      iszero\n      iszero\n        /* \"contracts/agency.sol\":4878:4887  buildings */\n      0x00\n        /* \"contracts/agency.sol\":4888:4895  buildID */\n      dup3\n        /* \"contracts/agency.sol\":4878:4896  buildings[buildID] */\n      dup2\n      sload\n      dup2\n      lt\n      tag_460\n      jumpi\n      tag_461\n      tag_97\n      jump\t// in\n    tag_461:\n    tag_460:\n      swap1\n      0x00\n      mstore\n      keccak256(0x00, 0x20)\n      swap1\n      0x05\n      mul\n      add\n        /* \"contracts/agency.sol\":4878:4907  buildings[buildID].arestSTATE */\n      0x04\n      add\n      0x02\n      swap1\n      sload\n      swap1\n      0x0100\n      exp\n      swap1\n      div\n      0xff\n      and\n        /* \"contracts/agency.sol\":4878:4916  buildings[buildID].arestSTATE == false */\n      iszero\n      iszero\n      eq\n        /* \"contracts/agency.sol\":4870:4935  require(buildings[buildID].arestSTATE == false, \"estate arested\") */\n      tag_463\n      jumpi\n      mload(0x40)\n      0x08c379a000000000000000000000000000000000000000000000000000000000\n      dup2\n      mstore\n      0x04\n      add\n      tag_464\n      swap1\n      tag_465\n      jump\t// in\n    tag_464:\n      mload(0x40)\n      dup1\n      swap2\n      sub\n      swap1\n      revert\n    tag_463:\n        /* \"contracts/agency.sol\":4963:4968  sales */\n      0x02\n        /* \"contracts/agency.sol\":4963:4975  sales.length */\n      dup1\n      sload\n      swap1\n      pop\n        /* \"contracts/agency.sol\":4954:4960  saleID */\n      dup3\n        /* \"contracts/agency.sol\":4954:4975  saleID < sales.length */\n      lt\n        /* \"contracts/agency.sol\":4946:4997  require(saleID < sales.length,\"wrong saleID value\") */\n      tag_466\n      jumpi\n      mload(0x40)\n      0x08c379a000000000000000000000000000000000000000000000000000000000\n      dup2\n      mstore\n      0x04\n      add\n      tag_467\n      swap1\n      tag_108\n      jump\t// in\n    tag_467:\n      mload(0x40)\n      dup1\n      swap2\n      sub\n      swap1\n      revert\n    tag_466:\n        /* \"contracts/agency.sol\":5039:5049  msg.sender */\n      caller\n        /* \"contracts/agency.sol\":5016:5049  sales[saleID].owner != msg.sender */\n      0xffffffffffffffffffffffffffffffffffffffff\n      and\n        /* \"contracts/agency.sol\":5016:5021  sales */\n      0x02\n        /* \"contracts/agency.sol\":5022:5028  saleID */\n      dup4\n        /* \"contracts/agency.sol\":5016:5029  sales[saleID] */\n      dup2\n      sload\n      dup2\n      lt\n      tag_468\n      jumpi\n      tag_469\n      tag_97\n      jump\t// in\n    tag_469:\n    tag_468:\n      swap1\n      0x00\n      mstore\n      keccak256(0x00, 0x20)\n      swap1\n      0x06\n      mul\n      add\n        /* \"contracts/agency.sol\":5016:5035  sales[saleID].owner */\n      0x01\n      add\n      0x00\n      swap1\n      sload\n      swap1\n      0x0100\n      exp\n      swap1\n      div\n      0xffffffffffffffffffffffffffffffffffffffff\n      and\n        /* \"contracts/agency.sol\":5016:5049  sales[saleID].owner != msg.sender */\n      0xffffffffffffffffffffffffffffffffffffffff\n      and\n      sub\n        /* \"contracts/agency.sol\":5008:5063  require(sales[saleID].owner != msg.sender, \"self sale\") */\n      tag_471\n      jumpi\n      mload(0x40)\n      0x08c379a000000000000000000000000000000000000000000000000000000000\n      dup2\n      mstore\n      0x04\n      add\n      tag_472\n      swap1\n      tag_473\n      jump\t// in\n    tag_472:\n      mload(0x40)\n      dup1\n      swap2\n      sub\n      swap1\n      revert\n    tag_471:\n        /* \"contracts/agency.sol\":5116:5117  0 */\n      0x00\n        /* \"contracts/agency.sol\":5082:5118  sales[saleID].newOwner == address(0) */\n      0xffffffffffffffffffffffffffffffffffffffff\n      and\n        /* \"contracts/agency.sol\":5082:5087  sales */\n      0x02\n        /* \"contracts/agency.sol\":5088:5094  saleID */\n      dup4\n        /* \"contracts/agency.sol\":5082:5095  sales[saleID] */\n      dup2\n      sload\n      dup2\n      lt\n      tag_474\n      jumpi\n      tag_475\n      tag_97\n      jump\t// in\n    tag_475:\n    tag_474:\n      swap1\n      0x00\n      mstore\n      keccak256(0x00, 0x20)\n      swap1\n      0x06\n      mul\n      add\n        /* \"contracts/agency.sol\":5082:5104  sales[saleID].newOwner */\n      0x02\n      add\n      0x00\n      swap1\n      sload\n      swap1\n      0x0100\n      exp\n      swap1\n      div\n      0xffffffffffffffffffffffffffffffffffffffff\n      and\n        /* \"contracts/agency.sol\":5082:5118  sales[saleID].newOwner == address(0) */\n      0xffffffffffffffffffffffffffffffffffffffff\n      and\n      eq\n        /* \"contracts/agency.sol\":5074:5137  require(sales[saleID].newOwner == address(0), \"Sale is closed\") */\n      tag_477\n      jumpi\n      mload(0x40)\n      0x08c379a000000000000000000000000000000000000000000000000000000000\n      dup2\n      mstore\n      0x04\n      add\n      tag_478\n      swap1\n      tag_114\n      jump\t// in\n    tag_478:\n      mload(0x40)\n      dup1\n      swap2\n      sub\n      swap1\n      revert\n    tag_477:\n        /* \"contracts/agency.sol\":5179:5188  msg.value */\n      callvalue\n        /* \"contracts/agency.sol\":5156:5161  sales */\n      0x02\n        /* \"contracts/agency.sol\":5162:5168  saleID */\n      dup4\n        /* \"contracts/agency.sol\":5156:5169  sales[saleID] */\n      dup2\n      sload\n      dup2\n      lt\n      tag_479\n      jumpi\n      tag_480\n      tag_97\n      jump\t// in\n    tag_480:\n    tag_479:\n      swap1\n      0x00\n      mstore\n      keccak256(0x00, 0x20)\n      swap1\n      0x06\n      mul\n      add\n        /* \"contracts/agency.sol\":5156:5175  sales[saleID].price */\n      0x03\n      add\n      sload\n        /* \"contracts/agency.sol\":5156:5188  sales[saleID].price <= msg.value */\n      gt\n      iszero\n        /* \"contracts/agency.sol\":5148:5208  require(sales[saleID].price <= msg.value, \"wrong eth value\") */\n      tag_482\n      jumpi\n      mload(0x40)\n      0x08c379a000000000000000000000000000000000000000000000000000000000\n      dup2\n      mstore\n      0x04\n      add\n      tag_483\n      swap1\n      tag_484\n      jump\t// in\n    tag_483:\n      mload(0x40)\n      dup1\n      swap2\n      sub\n      swap1\n      revert\n    tag_482:\n        /* \"contracts/agency.sol\":5219:5228  bool stat */\n      0x00\n        /* \"contracts/agency.sol\":5252:5258  uint i */\n      dup1\n        /* \"contracts/agency.sol\":5247:5440  for (uint i = 0; i < sales[saleID].buyers.length; i++){... */\n    tag_485:\n        /* \"contracts/agency.sol\":5268:5273  sales */\n      0x02\n        /* \"contracts/agency.sol\":5274:5280  saleID */\n      dup5\n        /* \"contracts/agency.sol\":5268:5281  sales[saleID] */\n      dup2\n      sload\n      dup2\n      lt\n      tag_488\n      jumpi\n      tag_489\n      tag_97\n      jump\t// in\n    tag_489:\n    tag_488:\n      swap1\n      0x00\n      mstore\n      keccak256(0x00, 0x20)\n      swap1\n      0x06\n      mul\n      add\n        /* \"contracts/agency.sol\":5268:5288  sales[saleID].buyers */\n      0x04\n      add\n        /* \"contracts/agency.sol\":5268:5295  sales[saleID].buyers.length */\n      dup1\n      sload\n      swap1\n      pop\n        /* \"contracts/agency.sol\":5264:5265  i */\n      dup2\n        /* \"contracts/agency.sol\":5264:5295  i < sales[saleID].buyers.length */\n      lt\n        /* \"contracts/agency.sol\":5247:5440  for (uint i = 0; i < sales[saleID].buyers.length; i++){... */\n      iszero\n      tag_486\n      jumpi\n        /* \"contracts/agency.sol\":5347:5357  msg.sender */\n      caller\n        /* \"contracts/agency.sol\":5320:5357  sales[saleID].buyers[i] == msg.sender */\n      0xffffffffffffffffffffffffffffffffffffffff\n      and\n        /* \"contracts/agency.sol\":5320:5325  sales */\n      0x02\n        /* \"contracts/agency.sol\":5326:5332  saleID */\n      dup6\n        /* \"contracts/agency.sol\":5320:5333  sales[saleID] */\n      dup2\n      sload\n      dup2\n      lt\n      tag_491\n      jumpi\n      tag_492\n      tag_97\n      jump\t// in\n    tag_492:\n    tag_491:\n      swap1\n      0x00\n      mstore\n      keccak256(0x00, 0x20)\n      swap1\n      0x06\n      mul\n      add\n        /* \"contracts/agency.sol\":5320:5340  sales[saleID].buyers */\n      0x04\n      add\n        /* \"contracts/agency.sol\":5341:5342  i */\n      dup3\n        /* \"contracts/agency.sol\":5320:5343  sales[saleID].buyers[i] */\n      dup2\n      sload\n      dup2\n      lt\n      tag_494\n      jumpi\n      tag_495\n      tag_97\n      jump\t// in\n    tag_495:\n    tag_494:\n      swap1\n      0x00\n      mstore\n      keccak256(0x00, 0x20)\n      add\n      0x00\n      swap1\n      sload\n      swap1\n      0x0100\n      exp\n      swap1\n      div\n      0xffffffffffffffffffffffffffffffffffffffff\n      and\n        /* \"contracts/agency.sol\":5320:5357  sales[saleID].buyers[i] == msg.sender */\n      0xffffffffffffffffffffffffffffffffffffffff\n      and\n      sub\n        /* \"contracts/agency.sol\":5316:5429  if (sales[saleID].buyers[i] == msg.sender) {... */\n      tag_497\n      jumpi\n        /* \"contracts/agency.sol\":5385:5389  true */\n      0x01\n        /* \"contracts/agency.sol\":5378:5389  stat = true */\n      swap2\n      pop\n        /* \"contracts/agency.sol\":5408:5413  break */\n      jump(tag_486)\n        /* \"contracts/agency.sol\":5316:5429  if (sales[saleID].buyers[i] == msg.sender) {... */\n    tag_497:\n        /* \"contracts/agency.sol\":5297:5300  i++ */\n      dup1\n      dup1\n      0x01\n      add\n      swap2\n      pop\n      pop\n        /* \"contracts/agency.sol\":5247:5440  for (uint i = 0; i < sales[saleID].buyers.length; i++){... */\n      jump(tag_485)\n    tag_486:\n      pop\n        /* \"contracts/agency.sol\":5466:5471  false */\n      0x00\n        /* \"contracts/agency.sol\":5458:5471  stat == false */\n      iszero\n      iszero\n        /* \"contracts/agency.sol\":5458:5462  stat */\n      dup2\n        /* \"contracts/agency.sol\":5458:5471  stat == false */\n      iszero\n      iszero\n      eq\n        /* \"contracts/agency.sol\":5450:5496  require(stat == false,\"you already in prices\") */\n      tag_498\n      jumpi\n      mload(0x40)\n      0x08c379a000000000000000000000000000000000000000000000000000000000\n      dup2\n      mstore\n      0x04\n      add\n      tag_499\n      swap1\n      tag_500\n      jump\t// in\n    tag_499:\n      mload(0x40)\n      dup1\n      swap2\n      sub\n      swap1\n      revert\n    tag_498:\n        /* \"contracts/agency.sol\":5507:5512  sales */\n      0x02\n        /* \"contracts/agency.sol\":5513:5519  saleID */\n      dup4\n        /* \"contracts/agency.sol\":5507:5520  sales[saleID] */\n      dup2\n      sload\n      dup2\n      lt\n      tag_501\n      jumpi\n      tag_502\n      tag_97\n      jump\t// in\n    tag_502:\n    tag_501:\n      swap1\n      0x00\n      mstore\n      keccak256(0x00, 0x20)\n      swap1\n      0x06\n      mul\n      add\n        /* \"contracts/agency.sol\":5507:5527  sales[saleID].buyers */\n      0x04\n      add\n        /* \"contracts/agency.sol\":5533:5543  msg.sender */\n      caller\n        /* \"contracts/agency.sol\":5507:5544  sales[saleID].buyers.push(msg.sender) */\n      swap1\n      dup1\n      0x01\n      dup2\n      sload\n      add\n      dup1\n      dup3\n      sstore\n      dup1\n      swap2\n      pop\n      pop\n      0x01\n      swap1\n      sub\n      swap1\n      0x00\n      mstore\n      keccak256(0x00, 0x20)\n      add\n      0x00\n      swap1\n      swap2\n      swap1\n      swap2\n      swap1\n      swap2\n      0x0100\n      exp\n      dup2\n      sload\n      dup2\n      0xffffffffffffffffffffffffffffffffffffffff\n      mul\n      not\n      and\n      swap1\n      dup4\n      0xffffffffffffffffffffffffffffffffffffffff\n      and\n      mul\n      or\n      swap1\n      sstore\n      pop\n        /* \"contracts/agency.sol\":5555:5560  sales */\n      0x02\n        /* \"contracts/agency.sol\":5561:5567  saleID */\n      dup4\n        /* \"contracts/agency.sol\":5555:5568  sales[saleID] */\n      dup2\n      sload\n      dup2\n      lt\n      tag_505\n      jumpi\n      tag_506\n      tag_97\n      jump\t// in\n    tag_506:\n    tag_505:\n      swap1\n      0x00\n      mstore\n      keccak256(0x00, 0x20)\n      swap1\n      0x06\n      mul\n      add\n        /* \"contracts/agency.sol\":5555:5575  sales[saleID].prices */\n      0x05\n      add\n        /* \"contracts/agency.sol\":5581:5590  msg.value */\n      callvalue\n        /* \"contracts/agency.sol\":5555:5591  sales[saleID].prices.push(msg.value) */\n      swap1\n      dup1\n      0x01\n      dup2\n      sload\n      add\n      dup1\n      dup3\n      sstore\n      dup1\n      swap2\n      pop\n      pop\n      0x01\n      swap1\n      sub\n      swap1\n      0x00\n      mstore\n      keccak256(0x00, 0x20)\n      add\n      0x00\n      swap1\n      swap2\n      swap1\n      swap2\n      swap1\n      swap2\n      pop\n      sstore\n        /* \"contracts/agency.sol\":4812:5599  {... */\n      pop\n      pop\n        /* \"contracts/agency.sol\":4766:5599  function addPrice(uint saleID) public payable {... */\n      pop\n      jump\t// out\n        /* \"contracts/agency.sol\":842:862  address public admin */\n    tag_87:\n      0x03\n      0x00\n      swap1\n      sload\n      swap1\n      0x0100\n      exp\n      swap1\n      div\n      0xffffffffffffffffffffffffffffffffffffffff\n      and\n      dup2\n      jump\t// out\n    tag_311:\n      dup3\n      dup1\n      sload\n      dup3\n      dup3\n      sstore\n      swap1\n      0x00\n      mstore\n      keccak256(0x00, 0x20)\n      swap1\n      dup2\n      add\n      swap3\n      dup3\n      iszero\n      tag_509\n      jumpi\n      swap2\n      0x20\n      mul\n      dup3\n      add\n    tag_510:\n      dup3\n      dup2\n      gt\n      iszero\n      tag_511\n      jumpi\n      dup3\n      mload\n      dup3\n      exp(0x0100, 0x00)\n      dup2\n      sload\n      dup2\n      0xffffffffffffffffffffffffffffffffffffffff\n      mul\n      not\n      and\n      swap1\n      dup4\n      0xffffffffffffffffffffffffffffffffffffffff\n      and\n      mul\n      or\n      swap1\n      sstore\n      pop\n      swap2\n      0x20\n      add\n      swap2\n      swap1\n      0x01\n      add\n      swap1\n      jump(tag_510)\n    tag_511:\n    tag_509:\n      pop\n      swap1\n      pop\n      tag_512\n      swap2\n      swap1\n      tag_513\n      jump\t// in\n    tag_512:\n      pop\n      swap1\n      jump\t// out\n    tag_313:\n      dup3\n      dup1\n      sload\n      dup3\n      dup3\n      sstore\n      swap1\n      0x00\n      mstore\n      keccak256(0x00, 0x20)\n      swap1\n      dup2\n      add\n      swap3\n      dup3\n      iszero\n      tag_514\n      jumpi\n      swap2\n      0x20\n      mul\n      dup3\n      add\n    tag_515:\n      dup3\n      dup2\n      gt\n      iszero\n      tag_516\n      jumpi\n      dup3\n      mload\n      dup3\n      sstore\n      swap2\n      0x20\n      add\n      swap2\n      swap1\n      0x01\n      add\n      swap1\n      jump(tag_515)\n    tag_516:\n    tag_514:\n      pop\n      swap1\n      pop\n      tag_517\n      swap2\n      swap1\n      tag_513\n      jump\t// in\n    tag_517:\n      pop\n      swap1\n      jump\t// out\n    tag_513:\n    tag_518:\n      dup1\n      dup3\n      gt\n      iszero\n      tag_519\n      jumpi\n      0x00\n      dup2\n      0x00\n      swap1\n      sstore\n      pop\n      0x01\n      add\n      jump(tag_518)\n    tag_519:\n      pop\n      swap1\n      jump\t// out\n        /* \"#utility.yul\":7:82   */\n    tag_520:\n        /* \"#utility.yul\":40:46   */\n      0x00\n        /* \"#utility.yul\":73:75   */\n      0x40\n        /* \"#utility.yul\":67:76   */\n      mload\n        /* \"#utility.yul\":57:76   */\n      swap1\n      pop\n        /* \"#utility.yul\":7:82   */\n      swap1\n      jump\t// out\n        /* \"#utility.yul\":88:205   */\n    tag_521:\n        /* \"#utility.yul\":197:198   */\n      0x00\n        /* \"#utility.yul\":194:195   */\n      dup1\n        /* \"#utility.yul\":187:199   */\n      revert\n        /* \"#utility.yul\":211:328   */\n    tag_522:\n        /* \"#utility.yul\":320:321   */\n      0x00\n        /* \"#utility.yul\":317:318   */\n      dup1\n        /* \"#utility.yul\":310:322   */\n      revert\n        /* \"#utility.yul\":334:411   */\n    tag_523:\n        /* \"#utility.yul\":371:378   */\n      0x00\n        /* \"#utility.yul\":400:405   */\n      dup2\n        /* \"#utility.yul\":389:405   */\n      swap1\n      pop\n        /* \"#utility.yul\":334:411   */\n      swap2\n      swap1\n      pop\n      jump\t// out\n        /* \"#utility.yul\":417:539   */\n    tag_524:\n        /* \"#utility.yul\":490:514   */\n      tag_623\n        /* \"#utility.yul\":508:513   */\n      dup2\n        /* \"#utility.yul\":490:514   */\n      tag_523\n      jump\t// in\n    tag_623:\n        /* \"#utility.yul\":483:488   */\n      dup2\n        /* \"#utility.yul\":480:515   */\n      eq\n        /* \"#utility.yul\":470:533   */\n      tag_624\n      jumpi\n        /* \"#utility.yul\":529:530   */\n      0x00\n        /* \"#utility.yul\":526:527   */\n      dup1\n        /* \"#utility.yul\":519:531   */\n      revert\n        /* \"#utility.yul\":470:533   */\n    tag_624:\n        /* \"#utility.yul\":417:539   */\n      pop\n      jump\t// out\n        /* \"#utility.yul\":545:684   */\n    tag_525:\n        /* \"#utility.yul\":591:596   */\n      0x00\n        /* \"#utility.yul\":629:635   */\n      dup2\n        /* \"#utility.yul\":616:636   */\n      calldataload\n        /* \"#utility.yul\":607:636   */\n      swap1\n      pop\n        /* \"#utility.yul\":645:678   */\n      tag_626\n        /* \"#utility.yul\":672:677   */\n      dup2\n        /* \"#utility.yul\":645:678   */\n      tag_524\n      jump\t// in\n    tag_626:\n        /* \"#utility.yul\":545:684   */\n      swap3\n      swap2\n      pop\n      pop\n      jump\t// out\n        /* \"#utility.yul\":690:780   */\n    tag_526:\n        /* \"#utility.yul\":724:731   */\n      0x00\n        /* \"#utility.yul\":767:772   */\n      dup2\n        /* \"#utility.yul\":760:773   */\n      iszero\n        /* \"#utility.yul\":753:774   */\n      iszero\n        /* \"#utility.yul\":742:774   */\n      swap1\n      pop\n        /* \"#utility.yul\":690:780   */\n      swap2\n      swap1\n      pop\n      jump\t// out\n        /* \"#utility.yul\":786:902   */\n    tag_527:\n        /* \"#utility.yul\":856:877   */\n      tag_629\n        /* \"#utility.yul\":871:876   */\n      dup2\n        /* \"#utility.yul\":856:877   */\n      tag_526\n      jump\t// in\n    tag_629:\n        /* \"#utility.yul\":849:854   */\n      dup2\n        /* \"#utility.yul\":846:878   */\n      eq\n        /* \"#utility.yul\":836:896   */\n      tag_630\n      jumpi\n        /* \"#utility.yul\":892:893   */\n      0x00\n        /* \"#utility.yul\":889:890   */\n      dup1\n        /* \"#utility.yul\":882:894   */\n      revert\n        /* \"#utility.yul\":836:896   */\n    tag_630:\n        /* \"#utility.yul\":786:902   */\n      pop\n      jump\t// out\n        /* \"#utility.yul\":908:1041   */\n    tag_528:\n        /* \"#utility.yul\":951:956   */\n      0x00\n        /* \"#utility.yul\":989:995   */\n      dup2\n        /* \"#utility.yul\":976:996   */\n      calldataload\n        /* \"#utility.yul\":967:996   */\n      swap1\n      pop\n        /* \"#utility.yul\":1005:1035   */\n      tag_632\n        /* \"#utility.yul\":1029:1034   */\n      dup2\n        /* \"#utility.yul\":1005:1035   */\n      tag_527\n      jump\t// in\n    tag_632:\n        /* \"#utility.yul\":908:1041   */\n      swap3\n      swap2\n      pop\n      pop\n      jump\t// out\n        /* \"#utility.yul\":1047:1515   */\n    tag_23:\n        /* \"#utility.yul\":1112:1118   */\n      0x00\n        /* \"#utility.yul\":1120:1126   */\n      dup1\n        /* \"#utility.yul\":1169:1171   */\n      0x40\n        /* \"#utility.yul\":1157:1166   */\n      dup4\n        /* \"#utility.yul\":1148:1155   */\n      dup6\n        /* \"#utility.yul\":1144:1167   */\n      sub\n        /* \"#utility.yul\":1140:1172   */\n      slt\n        /* \"#utility.yul\":1137:1256   */\n      iszero\n      tag_634\n      jumpi\n        /* \"#utility.yul\":1175:1254   */\n      tag_635\n      tag_521\n      jump\t// in\n    tag_635:\n        /* \"#utility.yul\":1137:1256   */\n    tag_634:\n        /* \"#utility.yul\":1295:1296   */\n      0x00\n        /* \"#utility.yul\":1320:1373   */\n      tag_636\n        /* \"#utility.yul\":1365:1372   */\n      dup6\n        /* \"#utility.yul\":1356:1362   */\n      dup3\n        /* \"#utility.yul\":1345:1354   */\n      dup7\n        /* \"#utility.yul\":1341:1363   */\n      add\n        /* \"#utility.yul\":1320:1373   */\n      tag_525\n      jump\t// in\n    tag_636:\n        /* \"#utility.yul\":1310:1373   */\n      swap3\n      pop\n        /* \"#utility.yul\":1266:1383   */\n      pop\n        /* \"#utility.yul\":1422:1424   */\n      0x20\n        /* \"#utility.yul\":1448:1498   */\n      tag_637\n        /* \"#utility.yul\":1490:1497   */\n      dup6\n        /* \"#utility.yul\":1481:1487   */\n      dup3\n        /* \"#utility.yul\":1470:1479   */\n      dup7\n        /* \"#utility.yul\":1466:1488   */\n      add\n        /* \"#utility.yul\":1448:1498   */\n      tag_528\n      jump\t// in\n    tag_637:\n        /* \"#utility.yul\":1438:1498   */\n      swap2\n      pop\n        /* \"#utility.yul\":1393:1508   */\n      pop\n        /* \"#utility.yul\":1047:1515   */\n      swap3\n      pop\n      swap3\n      swap1\n      pop\n      jump\t// out\n        /* \"#utility.yul\":1521:1639   */\n    tag_529:\n        /* \"#utility.yul\":1608:1632   */\n      tag_639\n        /* \"#utility.yul\":1626:1631   */\n      dup2\n        /* \"#utility.yul\":1608:1632   */\n      tag_523\n      jump\t// in\n    tag_639:\n        /* \"#utility.yul\":1603:1606   */\n      dup3\n        /* \"#utility.yul\":1596:1633   */\n      mstore\n        /* \"#utility.yul\":1521:1639   */\n      pop\n      pop\n      jump\t// out\n        /* \"#utility.yul\":1645:1867   */\n    tag_29:\n        /* \"#utility.yul\":1738:1742   */\n      0x00\n        /* \"#utility.yul\":1776:1778   */\n      0x20\n        /* \"#utility.yul\":1765:1774   */\n      dup3\n        /* \"#utility.yul\":1761:1779   */\n      add\n        /* \"#utility.yul\":1753:1779   */\n      swap1\n      pop\n        /* \"#utility.yul\":1789:1860   */\n      tag_641\n        /* \"#utility.yul\":1857:1858   */\n      0x00\n        /* \"#utility.yul\":1846:1855   */\n      dup4\n        /* \"#utility.yul\":1842:1859   */\n      add\n        /* \"#utility.yul\":1833:1839   */\n      dup5\n        /* \"#utility.yul\":1789:1860   */\n      tag_529\n      jump\t// in\n    tag_641:\n        /* \"#utility.yul\":1645:1867   */\n      swap3\n      swap2\n      pop\n      pop\n      jump\t// out\n        /* \"#utility.yul\":1873:2202   */\n    tag_32:\n        /* \"#utility.yul\":1932:1938   */\n      0x00\n        /* \"#utility.yul\":1981:1983   */\n      0x20\n        /* \"#utility.yul\":1969:1978   */\n      dup3\n        /* \"#utility.yul\":1960:1967   */\n      dup5\n        /* \"#utility.yul\":1956:1979   */\n      sub\n        /* \"#utility.yul\":1952:1984   */\n      slt\n        /* \"#utility.yul\":1949:2068   */\n      iszero\n      tag_643\n      jumpi\n        /* \"#utility.yul\":1987:2066   */\n      tag_644\n      tag_521\n      jump\t// in\n    tag_644:\n        /* \"#utility.yul\":1949:2068   */\n    tag_643:\n        /* \"#utility.yul\":2107:2108   */\n      0x00\n        /* \"#utility.yul\":2132:2185   */\n      tag_645\n        /* \"#utility.yul\":2177:2184   */\n      dup5\n        /* \"#utility.yul\":2168:2174   */\n      dup3\n        /* \"#utility.yul\":2157:2166   */\n      dup6\n        /* \"#utility.yul\":2153:2175   */\n      add\n        /* \"#utility.yul\":2132:2185   */\n      tag_525\n      jump\t// in\n    tag_645:\n        /* \"#utility.yul\":2122:2185   */\n      swap2\n      pop\n        /* \"#utility.yul\":2078:2195   */\n      pop\n        /* \"#utility.yul\":1873:2202   */\n      swap3\n      swap2\n      pop\n      pop\n      jump\t// out\n        /* \"#utility.yul\":2208:2334   */\n    tag_530:\n        /* \"#utility.yul\":2245:2252   */\n      0x00\n        /* \"#utility.yul\":2285:2327   */\n      0xffffffffffffffffffffffffffffffffffffffff\n        /* \"#utility.yul\":2278:2283   */\n      dup3\n        /* \"#utility.yul\":2274:2328   */\n      and\n        /* \"#utility.yul\":2263:2328   */\n      swap1\n      pop\n        /* \"#utility.yul\":2208:2334   */\n      swap2\n      swap1\n      pop\n      jump\t// out\n        /* \"#utility.yul\":2340:2436   */\n    tag_531:\n        /* \"#utility.yul\":2377:2384   */\n      0x00\n        /* \"#utility.yul\":2406:2430   */\n      tag_648\n        /* \"#utility.yul\":2424:2429   */\n      dup3\n        /* \"#utility.yul\":2406:2430   */\n      tag_530\n      jump\t// in\n    tag_648:\n        /* \"#utility.yul\":2395:2430   */\n      swap1\n      pop\n        /* \"#utility.yul\":2340:2436   */\n      swap2\n      swap1\n      pop\n      jump\t// out\n        /* \"#utility.yul\":2442:2560   */\n    tag_532:\n        /* \"#utility.yul\":2529:2553   */\n      tag_650\n        /* \"#utility.yul\":2547:2552   */\n      dup2\n        /* \"#utility.yul\":2529:2553   */\n      tag_531\n      jump\t// in\n    tag_650:\n        /* \"#utility.yul\":2524:2527   */\n      dup3\n        /* \"#utility.yul\":2517:2554   */\n      mstore\n        /* \"#utility.yul\":2442:2560   */\n      pop\n      pop\n      jump\t// out\n        /* \"#utility.yul\":2566:2665   */\n    tag_533:\n        /* \"#utility.yul\":2618:2624   */\n      0x00\n        /* \"#utility.yul\":2652:2657   */\n      dup2\n        /* \"#utility.yul\":2646:2658   */\n      mload\n        /* \"#utility.yul\":2636:2658   */\n      swap1\n      pop\n        /* \"#utility.yul\":2566:2665   */\n      swap2\n      swap1\n      pop\n      jump\t// out\n        /* \"#utility.yul\":2671:2840   */\n    tag_534:\n        /* \"#utility.yul\":2755:2766   */\n      0x00\n        /* \"#utility.yul\":2789:2795   */\n      dup3\n        /* \"#utility.yul\":2784:2787   */\n      dup3\n        /* \"#utility.yul\":2777:2796   */\n      mstore\n        /* \"#utility.yul\":2829:2833   */\n      0x20\n        /* \"#utility.yul\":2824:2827   */\n      dup3\n        /* \"#utility.yul\":2820:2834   */\n      add\n        /* \"#utility.yul\":2805:2834   */\n      swap1\n      pop\n        /* \"#utility.yul\":2671:2840   */\n      swap3\n      swap2\n      pop\n      pop\n      jump\t// out\n        /* \"#utility.yul\":2846:2985   */\n    tag_535:\n        /* \"#utility.yul\":2935:2941   */\n      dup3\n        /* \"#utility.yul\":2930:2933   */\n      dup2\n        /* \"#utility.yul\":2925:2928   */\n      dup4\n        /* \"#utility.yul\":2919:2942   */\n      mcopy\n        /* \"#utility.yul\":2976:2977   */\n      0x00\n        /* \"#utility.yul\":2967:2973   */\n      dup4\n        /* \"#utility.yul\":2962:2965   */\n      dup4\n        /* \"#utility.yul\":2958:2974   */\n      add\n        /* \"#utility.yul\":2951:2978   */\n      mstore\n        /* \"#utility.yul\":2846:2985   */\n      pop\n      pop\n      pop\n      jump\t// out\n        /* \"#utility.yul\":2991:3093   */\n    tag_536:\n        /* \"#utility.yul\":3032:3038   */\n      0x00\n        /* \"#utility.yul\":3083:3085   */\n      0x1f\n        /* \"#utility.yul\":3079:3086   */\n      not\n        /* \"#utility.yul\":3074:3076   */\n      0x1f\n        /* \"#utility.yul\":3067:3072   */\n      dup4\n        /* \"#utility.yul\":3063:3077   */\n      add\n        /* \"#utility.yul\":3059:3087   */\n      and\n        /* \"#utility.yul\":3049:3087   */\n      swap1\n      pop\n        /* \"#utility.yul\":2991:3093   */\n      swap2\n      swap1\n      pop\n      jump\t// out\n        /* \"#utility.yul\":3099:3476   */\n    tag_537:\n        /* \"#utility.yul\":3187:3190   */\n      0x00\n        /* \"#utility.yul\":3215:3254   */\n      tag_656\n        /* \"#utility.yul\":3248:3253   */\n      dup3\n        /* \"#utility.yul\":3215:3254   */\n      tag_533\n      jump\t// in\n    tag_656:\n        /* \"#utility.yul\":3270:3341   */\n      tag_657\n        /* \"#utility.yul\":3334:3340   */\n      dup2\n        /* \"#utility.yul\":3329:3332   */\n      dup6\n        /* \"#utility.yul\":3270:3341   */\n      tag_534\n      jump\t// in\n    tag_657:\n        /* \"#utility.yul\":3263:3341   */\n      swap4\n      pop\n        /* \"#utility.yul\":3350:3415   */\n      tag_658\n        /* \"#utility.yul\":3408:3414   */\n      dup2\n        /* \"#utility.yul\":3403:3406   */\n      dup6\n        /* \"#utility.yul\":3396:3400   */\n      0x20\n        /* \"#utility.yul\":3389:3394   */\n      dup7\n        /* \"#utility.yul\":3385:3401   */\n      add\n        /* \"#utility.yul\":3350:3415   */\n      tag_535\n      jump\t// in\n    tag_658:\n        /* \"#utility.yul\":3440:3469   */\n      tag_659\n        /* \"#utility.yul\":3462:3468   */\n      dup2\n        /* \"#utility.yul\":3440:3469   */\n      tag_536\n      jump\t// in\n    tag_659:\n        /* \"#utility.yul\":3435:3438   */\n      dup5\n        /* \"#utility.yul\":3431:3470   */\n      add\n        /* \"#utility.yul\":3424:3470   */\n      swap2\n      pop\n        /* \"#utility.yul\":3191:3476   */\n      pop\n        /* \"#utility.yul\":3099:3476   */\n      swap3\n      swap2\n      pop\n      pop\n      jump\t// out\n        /* \"#utility.yul\":3482:3591   */\n    tag_538:\n        /* \"#utility.yul\":3563:3584   */\n      tag_661\n        /* \"#utility.yul\":3578:3583   */\n      dup2\n        /* \"#utility.yul\":3563:3584   */\n      tag_526\n      jump\t// in\n    tag_661:\n        /* \"#utility.yul\":3558:3561   */\n      dup3\n        /* \"#utility.yul\":3551:3585   */\n      mstore\n        /* \"#utility.yul\":3482:3591   */\n      pop\n      pop\n      jump\t// out\n        /* \"#utility.yul\":3597:4538   */\n    tag_39:\n        /* \"#utility.yul\":3860:3864   */\n      0x00\n        /* \"#utility.yul\":3898:3901   */\n      0xe0\n        /* \"#utility.yul\":3887:3896   */\n      dup3\n        /* \"#utility.yul\":3883:3902   */\n      add\n        /* \"#utility.yul\":3875:3902   */\n      swap1\n      pop\n        /* \"#utility.yul\":3912:3983   */\n      tag_663\n        /* \"#utility.yul\":3980:3981   */\n      0x00\n        /* \"#utility.yul\":3969:3978   */\n      dup4\n        /* \"#utility.yul\":3965:3982   */\n      add\n        /* \"#utility.yul\":3956:3962   */\n      dup11\n        /* \"#utility.yul\":3912:3983   */\n      tag_529\n      jump\t// in\n    tag_663:\n        /* \"#utility.yul\":3993:4065   */\n      tag_664\n        /* \"#utility.yul\":4061:4063   */\n      0x20\n        /* \"#utility.yul\":4050:4059   */\n      dup4\n        /* \"#utility.yul\":4046:4064   */\n      add\n        /* \"#utility.yul\":4037:4043   */\n      dup10\n        /* \"#utility.yul\":3993:4065   */\n      tag_532\n      jump\t// in\n    tag_664:\n        /* \"#utility.yul\":4112:4121   */\n      dup2\n        /* \"#utility.yul\":4106:4110   */\n      dup2\n        /* \"#utility.yul\":4102:4122   */\n      sub\n        /* \"#utility.yul\":4097:4099   */\n      0x40\n        /* \"#utility.yul\":4086:4095   */\n      dup4\n        /* \"#utility.yul\":4082:4100   */\n      add\n        /* \"#utility.yul\":4075:4123   */\n      mstore\n        /* \"#utility.yul\":4140:4218   */\n      tag_665\n        /* \"#utility.yul\":4213:4217   */\n      dup2\n        /* \"#utility.yul\":4204:4210   */\n      dup9\n        /* \"#utility.yul\":4140:4218   */\n      tag_537\n      jump\t// in\n    tag_665:\n        /* \"#utility.yul\":4132:4218   */\n      swap1\n      pop\n        /* \"#utility.yul\":4228:4300   */\n      tag_666\n        /* \"#utility.yul\":4296:4298   */\n      0x60\n        /* \"#utility.yul\":4285:4294   */\n      dup4\n        /* \"#utility.yul\":4281:4299   */\n      add\n        /* \"#utility.yul\":4272:4278   */\n      dup8\n        /* \"#utility.yul\":4228:4300   */\n      tag_529\n      jump\t// in\n    tag_666:\n        /* \"#utility.yul\":4310:4377   */\n      tag_667\n        /* \"#utility.yul\":4372:4375   */\n      0x80\n        /* \"#utility.yul\":4361:4370   */\n      dup4\n        /* \"#utility.yul\":4357:4376   */\n      add\n        /* \"#utility.yul\":4348:4354   */\n      dup7\n        /* \"#utility.yul\":4310:4377   */\n      tag_538\n      jump\t// in\n    tag_667:\n        /* \"#utility.yul\":4387:4454   */\n      tag_668\n        /* \"#utility.yul\":4449:4452   */\n      0xa0\n        /* \"#utility.yul\":4438:4447   */\n      dup4\n        /* \"#utility.yul\":4434:4453   */\n      add\n        /* \"#utility.yul\":4425:4431   */\n      dup6\n        /* \"#utility.yul\":4387:4454   */\n      tag_538\n      jump\t// in\n    tag_668:\n        /* \"#utility.yul\":4464:4531   */\n      tag_669\n        /* \"#utility.yul\":4526:4529   */\n      0xc0\n        /* \"#utility.yul\":4515:4524   */\n      dup4\n        /* \"#utility.yul\":4511:4530   */\n      add\n        /* \"#utility.yul\":4502:4508   */\n      dup5\n        /* \"#utility.yul\":4464:4531   */\n      tag_538\n      jump\t// in\n    tag_669:\n        /* \"#utility.yul\":3597:4538   */\n      swap9\n      swap8\n      pop\n      pop\n      pop\n      pop\n      pop\n      pop\n      pop\n      pop\n      jump\t// out\n        /* \"#utility.yul\":4544:5018   */\n    tag_42:\n        /* \"#utility.yul\":4612:4618   */\n      0x00\n        /* \"#utility.yul\":4620:4626   */\n      dup1\n        /* \"#utility.yul\":4669:4671   */\n      0x40\n        /* \"#utility.yul\":4657:4666   */\n      dup4\n        /* \"#utility.yul\":4648:4655   */\n      dup6\n        /* \"#utility.yul\":4644:4667   */\n      sub\n        /* \"#utility.yul\":4640:4672   */\n      slt\n        /* \"#utility.yul\":4637:4756   */\n      iszero\n      tag_671\n      jumpi\n        /* \"#utility.yul\":4675:4754   */\n      tag_672\n      tag_521\n      jump\t// in\n    tag_672:\n        /* \"#utility.yul\":4637:4756   */\n    tag_671:\n        /* \"#utility.yul\":4795:4796   */\n      0x00\n        /* \"#utility.yul\":4820:4873   */\n      tag_673\n        /* \"#utility.yul\":4865:4872   */\n      dup6\n        /* \"#utility.yul\":4856:4862   */\n      dup3\n        /* \"#utility.yul\":4845:4854   */\n      dup7\n        /* \"#utility.yul\":4841:4863   */\n      add\n        /* \"#utility.yul\":4820:4873   */\n      tag_525\n      jump\t// in\n    tag_673:\n        /* \"#utility.yul\":4810:4873   */\n      swap3\n      pop\n        /* \"#utility.yul\":4766:4883   */\n      pop\n        /* \"#utility.yul\":4922:4924   */\n      0x20\n        /* \"#utility.yul\":4948:5001   */\n      tag_674\n        /* \"#utility.yul\":4993:5000   */\n      dup6\n        /* \"#utility.yul\":4984:4990   */\n      dup3\n        /* \"#utility.yul\":4973:4982   */\n      dup7\n        /* \"#utility.yul\":4969:4991   */\n      add\n        /* \"#utility.yul\":4948:5001   */\n      tag_525\n      jump\t// in\n    tag_674:\n        /* \"#utility.yul\":4938:5001   */\n      swap2\n      pop\n        /* \"#utility.yul\":4893:5011   */\n      pop\n        /* \"#utility.yul\":4544:5018   */\n      swap3\n      pop\n      swap3\n      swap1\n      pop\n      jump\t// out\n        /* \"#utility.yul\":5024:5146   */\n    tag_539:\n        /* \"#utility.yul\":5097:5121   */\n      tag_676\n        /* \"#utility.yul\":5115:5120   */\n      dup2\n        /* \"#utility.yul\":5097:5121   */\n      tag_531\n      jump\t// in\n    tag_676:\n        /* \"#utility.yul\":5090:5095   */\n      dup2\n        /* \"#utility.yul\":5087:5122   */\n      eq\n        /* \"#utility.yul\":5077:5140   */\n      tag_677\n      jumpi\n        /* \"#utility.yul\":5136:5137   */\n      0x00\n        /* \"#utility.yul\":5133:5134   */\n      dup1\n        /* \"#utility.yul\":5126:5138   */\n      revert\n        /* \"#utility.yul\":5077:5140   */\n    tag_677:\n        /* \"#utility.yul\":5024:5146   */\n      pop\n      jump\t// out\n        /* \"#utility.yul\":5152:5291   */\n    tag_540:\n        /* \"#utility.yul\":5198:5203   */\n      0x00\n        /* \"#utility.yul\":5236:5242   */\n      dup2\n        /* \"#utility.yul\":5223:5243   */\n      calldataload\n        /* \"#utility.yul\":5214:5243   */\n      swap1\n      pop\n        /* \"#utility.yul\":5252:5285   */\n      tag_679\n        /* \"#utility.yul\":5279:5284   */\n      dup2\n        /* \"#utility.yul\":5252:5285   */\n      tag_539\n      jump\t// in\n    tag_679:\n        /* \"#utility.yul\":5152:5291   */\n      swap3\n      swap2\n      pop\n      pop\n      jump\t// out\n        /* \"#utility.yul\":5297:5771   */\n    tag_47:\n        /* \"#utility.yul\":5365:5371   */\n      0x00\n        /* \"#utility.yul\":5373:5379   */\n      dup1\n        /* \"#utility.yul\":5422:5424   */\n      0x40\n        /* \"#utility.yul\":5410:5419   */\n      dup4\n        /* \"#utility.yul\":5401:5408   */\n      dup6\n        /* \"#utility.yul\":5397:5420   */\n      sub\n        /* \"#utility.yul\":5393:5425   */\n      slt\n        /* \"#utility.yul\":5390:5509   */\n      iszero\n      tag_681\n      jumpi\n        /* \"#utility.yul\":5428:5507   */\n      tag_682\n      tag_521\n      jump\t// in\n    tag_682:\n        /* \"#utility.yul\":5390:5509   */\n    tag_681:\n        /* \"#utility.yul\":5548:5549   */\n      0x00\n        /* \"#utility.yul\":5573:5626   */\n      tag_683\n        /* \"#utility.yul\":5618:5625   */\n      dup6\n        /* \"#utility.yul\":5609:5615   */\n      dup3\n        /* \"#utility.yul\":5598:5607   */\n      dup7\n        /* \"#utility.yul\":5594:5616   */\n      add\n        /* \"#utility.yul\":5573:5626   */\n      tag_525\n      jump\t// in\n    tag_683:\n        /* \"#utility.yul\":5563:5626   */\n      swap3\n      pop\n        /* \"#utility.yul\":5519:5636   */\n      pop\n        /* \"#utility.yul\":5675:5677   */\n      0x20\n        /* \"#utility.yul\":5701:5754   */\n      tag_684\n        /* \"#utility.yul\":5746:5753   */\n      dup6\n        /* \"#utility.yul\":5737:5743   */\n      dup3\n        /* \"#utility.yul\":5726:5735   */\n      dup7\n        /* \"#utility.yul\":5722:5744   */\n      add\n        /* \"#utility.yul\":5701:5754   */\n      tag_540\n      jump\t// in\n    tag_684:\n        /* \"#utility.yul\":5691:5754   */\n      swap2\n      pop\n        /* \"#utility.yul\":5646:5764   */\n      pop\n        /* \"#utility.yul\":5297:5771   */\n      swap3\n      pop\n      swap3\n      swap1\n      pop\n      jump\t// out\n        /* \"#utility.yul\":5777:5894   */\n    tag_541:\n        /* \"#utility.yul\":5886:5887   */\n      0x00\n        /* \"#utility.yul\":5883:5884   */\n      dup1\n        /* \"#utility.yul\":5876:5888   */\n      revert\n        /* \"#utility.yul\":5900:6017   */\n    tag_542:\n        /* \"#utility.yul\":6009:6010   */\n      0x00\n        /* \"#utility.yul\":6006:6007   */\n      dup1\n        /* \"#utility.yul\":5999:6011   */\n      revert\n        /* \"#utility.yul\":6023:6203   */\n    tag_543:\n        /* \"#utility.yul\":6071:6148   */\n      0x4e487b7100000000000000000000000000000000000000000000000000000000\n        /* \"#utility.yul\":6068:6069   */\n      0x00\n        /* \"#utility.yul\":6061:6149   */\n      mstore\n        /* \"#utility.yul\":6168:6172   */\n      0x41\n        /* \"#utility.yul\":6165:6166   */\n      0x04\n        /* \"#utility.yul\":6158:6173   */\n      mstore\n        /* \"#utility.yul\":6192:6196   */\n      0x24\n        /* \"#utility.yul\":6189:6190   */\n      0x00\n        /* \"#utility.yul\":6182:6197   */\n      revert\n        /* \"#utility.yul\":6209:6490   */\n    tag_544:\n        /* \"#utility.yul\":6292:6319   */\n      tag_689\n        /* \"#utility.yul\":6314:6318   */\n      dup3\n        /* \"#utility.yul\":6292:6319   */\n      tag_536\n      jump\t// in\n    tag_689:\n        /* \"#utility.yul\":6284:6290   */\n      dup2\n        /* \"#utility.yul\":6280:6320   */\n      add\n        /* \"#utility.yul\":6422:6428   */\n      dup2\n        /* \"#utility.yul\":6410:6420   */\n      dup2\n        /* \"#utility.yul\":6407:6429   */\n      lt\n        /* \"#utility.yul\":6386:6404   */\n      0xffffffffffffffff\n        /* \"#utility.yul\":6374:6384   */\n      dup3\n        /* \"#utility.yul\":6371:6405   */\n      gt\n        /* \"#utility.yul\":6368:6430   */\n      or\n        /* \"#utility.yul\":6365:6453   */\n      iszero\n      tag_690\n      jumpi\n        /* \"#utility.yul\":6433:6451   */\n      tag_691\n      tag_543\n      jump\t// in\n    tag_691:\n        /* \"#utility.yul\":6365:6453   */\n    tag_690:\n        /* \"#utility.yul\":6473:6483   */\n      dup1\n        /* \"#utility.yul\":6469:6471   */\n      0x40\n        /* \"#utility.yul\":6462:6484   */\n      mstore\n        /* \"#utility.yul\":6252:6490   */\n      pop\n        /* \"#utility.yul\":6209:6490   */\n      pop\n      pop\n      jump\t// out\n        /* \"#utility.yul\":6496:6625   */\n    tag_545:\n        /* \"#utility.yul\":6530:6536   */\n      0x00\n        /* \"#utility.yul\":6557:6577   */\n      tag_693\n      tag_520\n      jump\t// in\n    tag_693:\n        /* \"#utility.yul\":6547:6577   */\n      swap1\n      pop\n        /* \"#utility.yul\":6586:6619   */\n      tag_694\n        /* \"#utility.yul\":6614:6618   */\n      dup3\n        /* \"#utility.yul\":6606:6612   */\n      dup3\n        /* \"#utility.yul\":6586:6619   */\n      tag_544\n      jump\t// in\n    tag_694:\n        /* \"#utility.yul\":6496:6625   */\n      swap2\n      swap1\n      pop\n      jump\t// out\n        /* \"#utility.yul\":6631:6939   */\n    tag_546:\n        /* \"#utility.yul\":6693:6697   */\n      0x00\n        /* \"#utility.yul\":6783:6801   */\n      0xffffffffffffffff\n        /* \"#utility.yul\":6775:6781   */\n      dup3\n        /* \"#utility.yul\":6772:6802   */\n      gt\n        /* \"#utility.yul\":6769:6825   */\n      iszero\n      tag_696\n      jumpi\n        /* \"#utility.yul\":6805:6823   */\n      tag_697\n      tag_543\n      jump\t// in\n    tag_697:\n        /* \"#utility.yul\":6769:6825   */\n    tag_696:\n        /* \"#utility.yul\":6843:6872   */\n      tag_698\n        /* \"#utility.yul\":6865:6871   */\n      dup3\n        /* \"#utility.yul\":6843:6872   */\n      tag_536\n      jump\t// in\n    tag_698:\n        /* \"#utility.yul\":6835:6872   */\n      swap1\n      pop\n        /* \"#utility.yul\":6927:6931   */\n      0x20\n        /* \"#utility.yul\":6921:6925   */\n      dup2\n        /* \"#utility.yul\":6917:6932   */\n      add\n        /* \"#utility.yul\":6909:6932   */\n      swap1\n      pop\n        /* \"#utility.yul\":6631:6939   */\n      swap2\n      swap1\n      pop\n      jump\t// out\n        /* \"#utility.yul\":6945:7093   */\n    tag_547:\n        /* \"#utility.yul\":7043:7049   */\n      dup3\n        /* \"#utility.yul\":7038:7041   */\n      dup2\n        /* \"#utility.yul\":7033:7036   */\n      dup4\n        /* \"#utility.yul\":7020:7050   */\n      calldatacopy\n        /* \"#utility.yul\":7084:7085   */\n      0x00\n        /* \"#utility.yul\":7075:7081   */\n      dup4\n        /* \"#utility.yul\":7070:7073   */\n      dup4\n        /* \"#utility.yul\":7066:7082   */\n      add\n        /* \"#utility.yul\":7059:7086   */\n      mstore\n        /* \"#utility.yul\":6945:7093   */\n      pop\n      pop\n      pop\n      jump\t// out\n        /* \"#utility.yul\":7099:7524   */\n    tag_548:\n        /* \"#utility.yul\":7177:7182   */\n      0x00\n        /* \"#utility.yul\":7202:7268   */\n      tag_701\n        /* \"#utility.yul\":7218:7267   */\n      tag_702\n        /* \"#utility.yul\":7260:7266   */\n      dup5\n        /* \"#utility.yul\":7218:7267   */\n      tag_546\n      jump\t// in\n    tag_702:\n        /* \"#utility.yul\":7202:7268   */\n      tag_545\n      jump\t// in\n    tag_701:\n        /* \"#utility.yul\":7193:7268   */\n      swap1\n      pop\n        /* \"#utility.yul\":7291:7297   */\n      dup3\n        /* \"#utility.yul\":7284:7289   */\n      dup2\n        /* \"#utility.yul\":7277:7298   */\n      mstore\n        /* \"#utility.yul\":7329:7333   */\n      0x20\n        /* \"#utility.yul\":7322:7327   */\n      dup2\n        /* \"#utility.yul\":7318:7334   */\n      add\n        /* \"#utility.yul\":7367:7370   */\n      dup5\n        /* \"#utility.yul\":7358:7364   */\n      dup5\n        /* \"#utility.yul\":7353:7356   */\n      dup5\n        /* \"#utility.yul\":7349:7365   */\n      add\n        /* \"#utility.yul\":7346:7371   */\n      gt\n        /* \"#utility.yul\":7343:7455   */\n      iszero\n      tag_703\n      jumpi\n        /* \"#utility.yul\":7374:7453   */\n      tag_704\n      tag_542\n      jump\t// in\n    tag_704:\n        /* \"#utility.yul\":7343:7455   */\n    tag_703:\n        /* \"#utility.yul\":7464:7518   */\n      tag_705\n        /* \"#utility.yul\":7511:7517   */\n      dup5\n        /* \"#utility.yul\":7506:7509   */\n      dup3\n        /* \"#utility.yul\":7501:7504   */\n      dup6\n        /* \"#utility.yul\":7464:7518   */\n      tag_547\n      jump\t// in\n    tag_705:\n        /* \"#utility.yul\":7183:7524   */\n      pop\n        /* \"#utility.yul\":7099:7524   */\n      swap4\n      swap3\n      pop\n      pop\n      pop\n      jump\t// out\n        /* \"#utility.yul\":7544:7884   */\n    tag_549:\n        /* \"#utility.yul\":7600:7605   */\n      0x00\n        /* \"#utility.yul\":7649:7652   */\n      dup3\n        /* \"#utility.yul\":7642:7646   */\n      0x1f\n        /* \"#utility.yul\":7634:7640   */\n      dup4\n        /* \"#utility.yul\":7630:7647   */\n      add\n        /* \"#utility.yul\":7626:7653   */\n      slt\n        /* \"#utility.yul\":7616:7738   */\n      tag_707\n      jumpi\n        /* \"#utility.yul\":7657:7736   */\n      tag_708\n      tag_541\n      jump\t// in\n    tag_708:\n        /* \"#utility.yul\":7616:7738   */\n    tag_707:\n        /* \"#utility.yul\":7774:7780   */\n      dup2\n        /* \"#utility.yul\":7761:7781   */\n      calldataload\n        /* \"#utility.yul\":7799:7878   */\n      tag_709\n        /* \"#utility.yul\":7874:7877   */\n      dup5\n        /* \"#utility.yul\":7866:7872   */\n      dup3\n        /* \"#utility.yul\":7859:7863   */\n      0x20\n        /* \"#utility.yul\":7851:7857   */\n      dup7\n        /* \"#utility.yul\":7847:7864   */\n      add\n        /* \"#utility.yul\":7799:7878   */\n      tag_548\n      jump\t// in\n    tag_709:\n        /* \"#utility.yul\":7790:7878   */\n      swap2\n      pop\n        /* \"#utility.yul\":7606:7884   */\n      pop\n        /* \"#utility.yul\":7544:7884   */\n      swap3\n      swap2\n      pop\n      pop\n      jump\t// out\n        /* \"#utility.yul\":7890:8689   */\n    tag_60:\n        /* \"#utility.yul\":7977:7983   */\n      0x00\n        /* \"#utility.yul\":7985:7991   */\n      dup1\n        /* \"#utility.yul\":7993:7999   */\n      0x00\n        /* \"#utility.yul\":8042:8044   */\n      0x60\n        /* \"#utility.yul\":8030:8039   */\n      dup5\n        /* \"#utility.yul\":8021:8028   */\n      dup7\n        /* \"#utility.yul\":8017:8040   */\n      sub\n        /* \"#utility.yul\":8013:8045   */\n      slt\n        /* \"#utility.yul\":8010:8129   */\n      iszero\n      tag_711\n      jumpi\n        /* \"#utility.yul\":8048:8127   */\n      tag_712\n      tag_521\n      jump\t// in\n    tag_712:\n        /* \"#utility.yul\":8010:8129   */\n    tag_711:\n        /* \"#utility.yul\":8168:8169   */\n      0x00\n        /* \"#utility.yul\":8193:8246   */\n      tag_713\n        /* \"#utility.yul\":8238:8245   */\n      dup7\n        /* \"#utility.yul\":8229:8235   */\n      dup3\n        /* \"#utility.yul\":8218:8227   */\n      dup8\n        /* \"#utility.yul\":8214:8236   */\n      add\n        /* \"#utility.yul\":8193:8246   */\n      tag_540\n      jump\t// in\n    tag_713:\n        /* \"#utility.yul\":8183:8246   */\n      swap4\n      pop\n        /* \"#utility.yul\":8139:8256   */\n      pop\n        /* \"#utility.yul\":8323:8325   */\n      0x20\n        /* \"#utility.yul\":8312:8321   */\n      dup5\n        /* \"#utility.yul\":8308:8326   */\n      add\n        /* \"#utility.yul\":8295:8327   */\n      calldataload\n        /* \"#utility.yul\":8354:8372   */\n      0xffffffffffffffff\n        /* \"#utility.yul\":8346:8352   */\n      dup2\n        /* \"#utility.yul\":8343:8373   */\n      gt\n        /* \"#utility.yul\":8340:8457   */\n      iszero\n      tag_714\n      jumpi\n        /* \"#utility.yul\":8376:8455   */\n      tag_715\n      tag_522\n      jump\t// in\n    tag_715:\n        /* \"#utility.yul\":8340:8457   */\n    tag_714:\n        /* \"#utility.yul\":8481:8544   */\n      tag_716\n        /* \"#utility.yul\":8536:8543   */\n      dup7\n        /* \"#utility.yul\":8527:8533   */\n      dup3\n        /* \"#utility.yul\":8516:8525   */\n      dup8\n        /* \"#utility.yul\":8512:8534   */\n      add\n        /* \"#utility.yul\":8481:8544   */\n      tag_549\n      jump\t// in\n    tag_716:\n        /* \"#utility.yul\":8471:8544   */\n      swap3\n      pop\n        /* \"#utility.yul\":8266:8554   */\n      pop\n        /* \"#utility.yul\":8593:8595   */\n      0x40\n        /* \"#utility.yul\":8619:8672   */\n      tag_717\n        /* \"#utility.yul\":8664:8671   */\n      dup7\n        /* \"#utility.yul\":8655:8661   */\n      dup3\n        /* \"#utility.yul\":8644:8653   */\n      dup8\n        /* \"#utility.yul\":8640:8662   */\n      add\n        /* \"#utility.yul\":8619:8672   */\n      tag_525\n      jump\t// in\n    tag_717:\n        /* \"#utility.yul\":8609:8672   */\n      swap2\n      pop\n        /* \"#utility.yul\":8564:8682   */\n      pop\n        /* \"#utility.yul\":7890:8689   */\n      swap3\n      pop\n      swap3\n      pop\n      swap3\n      jump\t// out\n        /* \"#utility.yul\":8695:9248   */\n    tag_67:\n        /* \"#utility.yul\":8872:8876   */\n      0x00\n        /* \"#utility.yul\":8910:8913   */\n      0x80\n        /* \"#utility.yul\":8899:8908   */\n      dup3\n        /* \"#utility.yul\":8895:8914   */\n      add\n        /* \"#utility.yul\":8887:8914   */\n      swap1\n      pop\n        /* \"#utility.yul\":8924:8995   */\n      tag_719\n        /* \"#utility.yul\":8992:8993   */\n      0x00\n        /* \"#utility.yul\":8981:8990   */\n      dup4\n        /* \"#utility.yul\":8977:8994   */\n      add\n        /* \"#utility.yul\":8968:8974   */\n      dup8\n        /* \"#utility.yul\":8924:8995   */\n      tag_529\n      jump\t// in\n    tag_719:\n        /* \"#utility.yul\":9005:9077   */\n      tag_720\n        /* \"#utility.yul\":9073:9075   */\n      0x20\n        /* \"#utility.yul\":9062:9071   */\n      dup4\n        /* \"#utility.yul\":9058:9076   */\n      add\n        /* \"#utility.yul\":9049:9055   */\n      dup7\n        /* \"#utility.yul\":9005:9077   */\n      tag_532\n      jump\t// in\n    tag_720:\n        /* \"#utility.yul\":9087:9159   */\n      tag_721\n        /* \"#utility.yul\":9155:9157   */\n      0x40\n        /* \"#utility.yul\":9144:9153   */\n      dup4\n        /* \"#utility.yul\":9140:9158   */\n      add\n        /* \"#utility.yul\":9131:9137   */\n      dup6\n        /* \"#utility.yul\":9087:9159   */\n      tag_532\n      jump\t// in\n    tag_721:\n        /* \"#utility.yul\":9169:9241   */\n      tag_722\n        /* \"#utility.yul\":9237:9239   */\n      0x60\n        /* \"#utility.yul\":9226:9235   */\n      dup4\n        /* \"#utility.yul\":9222:9240   */\n      add\n        /* \"#utility.yul\":9213:9219   */\n      dup5\n        /* \"#utility.yul\":9169:9241   */\n      tag_529\n      jump\t// in\n    tag_722:\n        /* \"#utility.yul\":8695:9248   */\n      swap6\n      swap5\n      pop\n      pop\n      pop\n      pop\n      pop\n      jump\t// out\n        /* \"#utility.yul\":9254:9434   */\n    tag_276:\n        /* \"#utility.yul\":9302:9379   */\n      0x4e487b7100000000000000000000000000000000000000000000000000000000\n        /* \"#utility.yul\":9299:9300   */\n      0x00\n        /* \"#utility.yul\":9292:9380   */\n      mstore\n        /* \"#utility.yul\":9399:9403   */\n      0x21\n        /* \"#utility.yul\":9396:9397   */\n      0x04\n        /* \"#utility.yul\":9389:9404   */\n      mstore\n        /* \"#utility.yul\":9423:9427   */\n      0x24\n        /* \"#utility.yul\":9420:9421   */\n      0x00\n        /* \"#utility.yul\":9413:9428   */\n      revert\n        /* \"#utility.yul\":9440:9556   */\n    tag_550:\n        /* \"#utility.yul\":9524:9525   */\n      0x05\n        /* \"#utility.yul\":9517:9522   */\n      dup2\n        /* \"#utility.yul\":9514:9526   */\n      lt\n        /* \"#utility.yul\":9504:9550   */\n      tag_725\n      jumpi\n        /* \"#utility.yul\":9530:9548   */\n      tag_726\n      tag_276\n      jump\t// in\n    tag_726:\n        /* \"#utility.yul\":9504:9550   */\n    tag_725:\n        /* \"#utility.yul\":9440:9556   */\n      pop\n      jump\t// out\n        /* \"#utility.yul\":9562:9695   */\n    tag_551:\n        /* \"#utility.yul\":9610:9617   */\n      0x00\n        /* \"#utility.yul\":9639:9644   */\n      dup2\n        /* \"#utility.yul\":9628:9644   */\n      swap1\n      pop\n        /* \"#utility.yul\":9645:9689   */\n      tag_728\n        /* \"#utility.yul\":9683:9688   */\n      dup3\n        /* \"#utility.yul\":9645:9689   */\n      tag_550\n      jump\t// in\n    tag_728:\n        /* \"#utility.yul\":9562:9695   */\n      swap2\n      swap1\n      pop\n      jump\t// out\n        /* \"#utility.yul\":9701:9834   */\n    tag_552:\n        /* \"#utility.yul\":9760:9769   */\n      0x00\n        /* \"#utility.yul\":9793:9828   */\n      tag_730\n        /* \"#utility.yul\":9822:9827   */\n      dup3\n        /* \"#utility.yul\":9793:9828   */\n      tag_551\n      jump\t// in\n    tag_730:\n        /* \"#utility.yul\":9780:9828   */\n      swap1\n      pop\n        /* \"#utility.yul\":9701:9834   */\n      swap2\n      swap1\n      pop\n      jump\t// out\n        /* \"#utility.yul\":9840:9989   */\n    tag_553:\n        /* \"#utility.yul\":9936:9982   */\n      tag_732\n        /* \"#utility.yul\":9976:9981   */\n      dup2\n        /* \"#utility.yul\":9936:9982   */\n      tag_552\n      jump\t// in\n    tag_732:\n        /* \"#utility.yul\":9931:9934   */\n      dup3\n        /* \"#utility.yul\":9924:9983   */\n      mstore\n        /* \"#utility.yul\":9840:9989   */\n      pop\n      pop\n      jump\t// out\n        /* \"#utility.yul\":9995:10788   */\n    tag_77:\n        /* \"#utility.yul\":10237:10241   */\n      0x00\n        /* \"#utility.yul\":10275:10278   */\n      0xc0\n        /* \"#utility.yul\":10264:10273   */\n      dup3\n        /* \"#utility.yul\":10260:10279   */\n      add\n        /* \"#utility.yul\":10252:10279   */\n      swap1\n      pop\n        /* \"#utility.yul\":10289:10360   */\n      tag_734\n        /* \"#utility.yul\":10357:10358   */\n      0x00\n        /* \"#utility.yul\":10346:10355   */\n      dup4\n        /* \"#utility.yul\":10342:10359   */\n      add\n        /* \"#utility.yul\":10333:10339   */\n      dup10\n        /* \"#utility.yul\":10289:10360   */\n      tag_529\n      jump\t// in\n    tag_734:\n        /* \"#utility.yul\":10370:10442   */\n      tag_735\n        /* \"#utility.yul\":10438:10440   */\n      0x20\n        /* \"#utility.yul\":10427:10436   */\n      dup4\n        /* \"#utility.yul\":10423:10441   */\n      add\n        /* \"#utility.yul\":10414:10420   */\n      dup9\n        /* \"#utility.yul\":10370:10442   */\n      tag_529\n      jump\t// in\n    tag_735:\n        /* \"#utility.yul\":10452:10524   */\n      tag_736\n        /* \"#utility.yul\":10520:10522   */\n      0x40\n        /* \"#utility.yul\":10509:10518   */\n      dup4\n        /* \"#utility.yul\":10505:10523   */\n      add\n        /* \"#utility.yul\":10496:10502   */\n      dup8\n        /* \"#utility.yul\":10452:10524   */\n      tag_532\n      jump\t// in\n    tag_736:\n        /* \"#utility.yul\":10534:10606   */\n      tag_737\n        /* \"#utility.yul\":10602:10604   */\n      0x60\n        /* \"#utility.yul\":10591:10600   */\n      dup4\n        /* \"#utility.yul\":10587:10605   */\n      add\n        /* \"#utility.yul\":10578:10584   */\n      dup7\n        /* \"#utility.yul\":10534:10606   */\n      tag_532\n      jump\t// in\n    tag_737:\n        /* \"#utility.yul\":10616:10689   */\n      tag_738\n        /* \"#utility.yul\":10684:10687   */\n      0x80\n        /* \"#utility.yul\":10673:10682   */\n      dup4\n        /* \"#utility.yul\":10669:10688   */\n      add\n        /* \"#utility.yul\":10660:10666   */\n      dup6\n        /* \"#utility.yul\":10616:10689   */\n      tag_529\n      jump\t// in\n    tag_738:\n        /* \"#utility.yul\":10699:10781   */\n      tag_739\n        /* \"#utility.yul\":10776:10779   */\n      0xa0\n        /* \"#utility.yul\":10765:10774   */\n      dup4\n        /* \"#utility.yul\":10761:10780   */\n      add\n        /* \"#utility.yul\":10752:10758   */\n      dup5\n        /* \"#utility.yul\":10699:10781   */\n      tag_553\n      jump\t// in\n    tag_739:\n        /* \"#utility.yul\":9995:10788   */\n      swap8\n      swap7\n      pop\n      pop\n      pop\n      pop\n      pop\n      pop\n      pop\n      jump\t// out\n        /* \"#utility.yul\":10794:11016   */\n    tag_89:\n        /* \"#utility.yul\":10887:10891   */\n      0x00\n        /* \"#utility.yul\":10925:10927   */\n      0x20\n        /* \"#utility.yul\":10914:10923   */\n      dup3\n        /* \"#utility.yul\":10910:10928   */\n      add\n        /* \"#utility.yul\":10902:10928   */\n      swap1\n      pop\n        /* \"#utility.yul\":10938:11009   */\n      tag_741\n        /* \"#utility.yul\":11006:11007   */\n      0x00\n        /* \"#utility.yul\":10995:11004   */\n      dup4\n        /* \"#utility.yul\":10991:11008   */\n      add\n        /* \"#utility.yul\":10982:10988   */\n      dup5\n        /* \"#utility.yul\":10938:11009   */\n      tag_532\n      jump\t// in\n    tag_741:\n        /* \"#utility.yul\":10794:11016   */\n      swap3\n      swap2\n      pop\n      pop\n      jump\t// out\n        /* \"#utility.yul\":11022:11189   */\n    tag_554:\n        /* \"#utility.yul\":11162:11181   */\n      0x596f7520617265206e6f742061646d696e000000000000000000000000000000\n        /* \"#utility.yul\":11158:11159   */\n      0x00\n        /* \"#utility.yul\":11150:11156   */\n      dup3\n        /* \"#utility.yul\":11146:11160   */\n      add\n        /* \"#utility.yul\":11139:11182   */\n      mstore\n        /* \"#utility.yul\":11022:11189   */\n      pop\n      jump\t// out\n        /* \"#utility.yul\":11195:11561   */\n    tag_555:\n        /* \"#utility.yul\":11337:11340   */\n      0x00\n        /* \"#utility.yul\":11358:11425   */\n      tag_744\n        /* \"#utility.yul\":11422:11424   */\n      0x11\n        /* \"#utility.yul\":11417:11420   */\n      dup4\n        /* \"#utility.yul\":11358:11425   */\n      tag_534\n      jump\t// in\n    tag_744:\n        /* \"#utility.yul\":11351:11425   */\n      swap2\n      pop\n        /* \"#utility.yul\":11434:11527   */\n      tag_745\n        /* \"#utility.yul\":11523:11526   */\n      dup3\n        /* \"#utility.yul\":11434:11527   */\n      tag_554\n      jump\t// in\n    tag_745:\n        /* \"#utility.yul\":11552:11554   */\n      0x20\n        /* \"#utility.yul\":11547:11550   */\n      dup3\n        /* \"#utility.yul\":11543:11555   */\n      add\n        /* \"#utility.yul\":11536:11555   */\n      swap1\n      pop\n        /* \"#utility.yul\":11195:11561   */\n      swap2\n      swap1\n      pop\n      jump\t// out\n        /* \"#utility.yul\":11567:11986   */\n    tag_93:\n        /* \"#utility.yul\":11733:11737   */\n      0x00\n        /* \"#utility.yul\":11771:11773   */\n      0x20\n        /* \"#utility.yul\":11760:11769   */\n      dup3\n        /* \"#utility.yul\":11756:11774   */\n      add\n        /* \"#utility.yul\":11748:11774   */\n      swap1\n      pop\n        /* \"#utility.yul\":11820:11829   */\n      dup2\n        /* \"#utility.yul\":11814:11818   */\n      dup2\n        /* \"#utility.yul\":11810:11830   */\n      sub\n        /* \"#utility.yul\":11806:11807   */\n      0x00\n        /* \"#utility.yul\":11795:11804   */\n      dup4\n        /* \"#utility.yul\":11791:11808   */\n      add\n        /* \"#utility.yul\":11784:11831   */\n      mstore\n        /* \"#utility.yul\":11848:11979   */\n      tag_747\n        /* \"#utility.yul\":11974:11978   */\n      dup2\n        /* \"#utility.yul\":11848:11979   */\n      tag_555\n      jump\t// in\n    tag_747:\n        /* \"#utility.yul\":11840:11979   */\n      swap1\n      pop\n        /* \"#utility.yul\":11567:11986   */\n      swap2\n      swap1\n      pop\n      jump\t// out\n        /* \"#utility.yul\":11992:12172   */\n    tag_97:\n        /* \"#utility.yul\":12040:12117   */\n      0x4e487b7100000000000000000000000000000000000000000000000000000000\n        /* \"#utility.yul\":12037:12038   */\n      0x00\n        /* \"#utility.yul\":12030:12118   */\n      mstore\n        /* \"#utility.yul\":12137:12141   */\n      0x32\n        /* \"#utility.yul\":12134:12135   */\n      0x04\n        /* \"#utility.yul\":12127:12142   */\n      mstore\n        /* \"#utility.yul\":12161:12165   */\n      0x24\n        /* \"#utility.yul\":12158:12159   */\n      0x00\n        /* \"#utility.yul\":12151:12166   */\n      revert\n        /* \"#utility.yul\":12178:12342   */\n    tag_556:\n        /* \"#utility.yul\":12318:12334   */\n      0x7468652073616d65206172657374000000000000000000000000000000000000\n        /* \"#utility.yul\":12314:12315   */\n      0x00\n        /* \"#utility.yul\":12306:12312   */\n      dup3\n        /* \"#utility.yul\":12302:12316   */\n      add\n        /* \"#utility.yul\":12295:12335   */\n      mstore\n        /* \"#utility.yul\":12178:12342   */\n      pop\n      jump\t// out\n        /* \"#utility.yul\":12348:12714   */\n    tag_557:\n        /* \"#utility.yul\":12490:12493   */\n      0x00\n        /* \"#utility.yul\":12511:12578   */\n      tag_751\n        /* \"#utility.yul\":12575:12577   */\n      0x0e\n        /* \"#utility.yul\":12570:12573   */\n      dup4\n        /* \"#utility.yul\":12511:12578   */\n      tag_534\n      jump\t// in\n    tag_751:\n        /* \"#utility.yul\":12504:12578   */\n      swap2\n      pop\n        /* \"#utility.yul\":12587:12680   */\n      tag_752\n        /* \"#utility.yul\":12676:12679   */\n      dup3\n        /* \"#utility.yul\":12587:12680   */\n      tag_556\n      jump\t// in\n    tag_752:\n        /* \"#utility.yul\":12705:12707   */\n      0x20\n        /* \"#utility.yul\":12700:12703   */\n      dup3\n        /* \"#utility.yul\":12696:12708   */\n      add\n        /* \"#utility.yul\":12689:12708   */\n      swap1\n      pop\n        /* \"#utility.yul\":12348:12714   */\n      swap2\n      swap1\n      pop\n      jump\t// out\n        /* \"#utility.yul\":12720:13139   */\n    tag_101:\n        /* \"#utility.yul\":12886:12890   */\n      0x00\n        /* \"#utility.yul\":12924:12926   */\n      0x20\n        /* \"#utility.yul\":12913:12922   */\n      dup3\n        /* \"#utility.yul\":12909:12927   */\n      add\n        /* \"#utility.yul\":12901:12927   */\n      swap1\n      pop\n        /* \"#utility.yul\":12973:12982   */\n      dup2\n        /* \"#utility.yul\":12967:12971   */\n      dup2\n        /* \"#utility.yul\":12963:12983   */\n      sub\n        /* \"#utility.yul\":12959:12960   */\n      0x00\n        /* \"#utility.yul\":12948:12957   */\n      dup4\n        /* \"#utility.yul\":12944:12961   */\n      add\n        /* \"#utility.yul\":12937:12984   */\n      mstore\n        /* \"#utility.yul\":13001:13132   */\n      tag_754\n        /* \"#utility.yul\":13127:13131   */\n      dup2\n        /* \"#utility.yul\":13001:13132   */\n      tag_557\n      jump\t// in\n    tag_754:\n        /* \"#utility.yul\":12993:13132   */\n      swap1\n      pop\n        /* \"#utility.yul\":12720:13139   */\n      swap2\n      swap1\n      pop\n      jump\t// out\n        /* \"#utility.yul\":13145:13313   */\n    tag_558:\n        /* \"#utility.yul\":13285:13305   */\n      0x77726f6e672073616c6549442076616c75650000000000000000000000000000\n        /* \"#utility.yul\":13281:13282   */\n      0x00\n        /* \"#utility.yul\":13273:13279   */\n      dup3\n        /* \"#utility.yul\":13269:13283   */\n      add\n        /* \"#utility.yul\":13262:13306   */\n      mstore\n        /* \"#utility.yul\":13145:13313   */\n      pop\n      jump\t// out\n        /* \"#utility.yul\":13319:13685   */\n    tag_559:\n        /* \"#utility.yul\":13461:13464   */\n      0x00\n        /* \"#utility.yul\":13482:13549   */\n      tag_757\n        /* \"#utility.yul\":13546:13548   */\n      0x12\n        /* \"#utility.yul\":13541:13544   */\n      dup4\n        /* \"#utility.yul\":13482:13549   */\n      tag_534\n      jump\t// in\n    tag_757:\n        /* \"#utility.yul\":13475:13549   */\n      swap2\n      pop\n        /* \"#utility.yul\":13558:13651   */\n      tag_758\n        /* \"#utility.yul\":13647:13650   */\n      dup3\n        /* \"#utility.yul\":13558:13651   */\n      tag_558\n      jump\t// in\n    tag_758:\n        /* \"#utility.yul\":13676:13678   */\n      0x20\n        /* \"#utility.yul\":13671:13674   */\n      dup3\n        /* \"#utility.yul\":13667:13679   */\n      add\n        /* \"#utility.yul\":13660:13679   */\n      swap1\n      pop\n        /* \"#utility.yul\":13319:13685   */\n      swap2\n      swap1\n      pop\n      jump\t// out\n        /* \"#utility.yul\":13691:14110   */\n    tag_108:\n        /* \"#utility.yul\":13857:13861   */\n      0x00\n        /* \"#utility.yul\":13895:13897   */\n      0x20\n        /* \"#utility.yul\":13884:13893   */\n      dup3\n        /* \"#utility.yul\":13880:13898   */\n      add\n        /* \"#utility.yul\":13872:13898   */\n      swap1\n      pop\n        /* \"#utility.yul\":13944:13953   */\n      dup2\n        /* \"#utility.yul\":13938:13942   */\n      dup2\n        /* \"#utility.yul\":13934:13954   */\n      sub\n        /* \"#utility.yul\":13930:13931   */\n      0x00\n        /* \"#utility.yul\":13919:13928   */\n      dup4\n        /* \"#utility.yul\":13915:13932   */\n      add\n        /* \"#utility.yul\":13908:13955   */\n      mstore\n        /* \"#utility.yul\":13972:14103   */\n      tag_760\n        /* \"#utility.yul\":14098:14102   */\n      dup2\n        /* \"#utility.yul\":13972:14103   */\n      tag_559\n      jump\t// in\n    tag_760:\n        /* \"#utility.yul\":13964:14103   */\n      swap1\n      pop\n        /* \"#utility.yul\":13691:14110   */\n      swap2\n      swap1\n      pop\n      jump\t// out\n        /* \"#utility.yul\":14116:14280   */\n    tag_560:\n        /* \"#utility.yul\":14256:14272   */\n      0x53616c6520697320636c6f736564000000000000000000000000000000000000\n        /* \"#utility.yul\":14252:14253   */\n      0x00\n        /* \"#utility.yul\":14244:14250   */\n      dup3\n        /* \"#utility.yul\":14240:14254   */\n      add\n        /* \"#utility.yul\":14233:14273   */\n      mstore\n        /* \"#utility.yul\":14116:14280   */\n      pop\n      jump\t// out\n        /* \"#utility.yul\":14286:14652   */\n    tag_561:\n        /* \"#utility.yul\":14428:14431   */\n      0x00\n        /* \"#utility.yul\":14449:14516   */\n      tag_763\n        /* \"#utility.yul\":14513:14515   */\n      0x0e\n        /* \"#utility.yul\":14508:14511   */\n      dup4\n        /* \"#utility.yul\":14449:14516   */\n      tag_534\n      jump\t// in\n    tag_763:\n        /* \"#utility.yul\":14442:14516   */\n      swap2\n      pop\n        /* \"#utility.yul\":14525:14618   */\n      tag_764\n        /* \"#utility.yul\":14614:14617   */\n      dup3\n        /* \"#utility.yul\":14525:14618   */\n      tag_560\n      jump\t// in\n    tag_764:\n        /* \"#utility.yul\":14643:14645   */\n      0x20\n        /* \"#utility.yul\":14638:14641   */\n      dup3\n        /* \"#utility.yul\":14634:14646   */\n      add\n        /* \"#utility.yul\":14627:14646   */\n      swap1\n      pop\n        /* \"#utility.yul\":14286:14652   */\n      swap2\n      swap1\n      pop\n      jump\t// out\n        /* \"#utility.yul\":14658:15077   */\n    tag_114:\n        /* \"#utility.yul\":14824:14828   */\n      0x00\n        /* \"#utility.yul\":14862:14864   */\n      0x20\n        /* \"#utility.yul\":14851:14860   */\n      dup3\n        /* \"#utility.yul\":14847:14865   */\n      add\n        /* \"#utility.yul\":14839:14865   */\n      swap1\n      pop\n        /* \"#utility.yul\":14911:14920   */\n      dup2\n        /* \"#utility.yul\":14905:14909   */\n      dup2\n        /* \"#utility.yul\":14901:14921   */\n      sub\n        /* \"#utility.yul\":14897:14898   */\n      0x00\n        /* \"#utility.yul\":14886:14895   */\n      dup4\n        /* \"#utility.yul\":14882:14899   */\n      add\n        /* \"#utility.yul\":14875:14922   */\n      mstore\n        /* \"#utility.yul\":14939:15070   */\n      tag_766\n        /* \"#utility.yul\":15065:15069   */\n      dup2\n        /* \"#utility.yul\":14939:15070   */\n      tag_561\n      jump\t// in\n    tag_766:\n        /* \"#utility.yul\":14931:15070   */\n      swap1\n      pop\n        /* \"#utility.yul\":14658:15077   */\n      swap2\n      swap1\n      pop\n      jump\t// out\n        /* \"#utility.yul\":15083:15247   */\n    tag_562:\n        /* \"#utility.yul\":15223:15239   */\n      0x796f752070726963652069732030000000000000000000000000000000000000\n        /* \"#utility.yul\":15219:15220   */\n      0x00\n        /* \"#utility.yul\":15211:15217   */\n      dup3\n        /* \"#utility.yul\":15207:15221   */\n      add\n        /* \"#utility.yul\":15200:15240   */\n      mstore\n        /* \"#utility.yul\":15083:15247   */\n      pop\n      jump\t// out\n        /* \"#utility.yul\":15253:15619   */\n    tag_563:\n        /* \"#utility.yul\":15395:15398   */\n      0x00\n        /* \"#utility.yul\":15416:15483   */\n      tag_769\n        /* \"#utility.yul\":15480:15482   */\n      0x0e\n        /* \"#utility.yul\":15475:15478   */\n      dup4\n        /* \"#utility.yul\":15416:15483   */\n      tag_534\n      jump\t// in\n    tag_769:\n        /* \"#utility.yul\":15409:15483   */\n      swap2\n      pop\n        /* \"#utility.yul\":15492:15585   */\n      tag_770\n        /* \"#utility.yul\":15581:15584   */\n      dup3\n        /* \"#utility.yul\":15492:15585   */\n      tag_562\n      jump\t// in\n    tag_770:\n        /* \"#utility.yul\":15610:15612   */\n      0x20\n        /* \"#utility.yul\":15605:15608   */\n      dup3\n        /* \"#utility.yul\":15601:15613   */\n      add\n        /* \"#utility.yul\":15594:15613   */\n      swap1\n      pop\n        /* \"#utility.yul\":15253:15619   */\n      swap2\n      swap1\n      pop\n      jump\t// out\n        /* \"#utility.yul\":15625:16044   */\n    tag_136:\n        /* \"#utility.yul\":15791:15795   */\n      0x00\n        /* \"#utility.yul\":15829:15831   */\n      0x20\n        /* \"#utility.yul\":15818:15827   */\n      dup3\n        /* \"#utility.yul\":15814:15832   */\n      add\n        /* \"#utility.yul\":15806:15832   */\n      swap1\n      pop\n        /* \"#utility.yul\":15878:15887   */\n      dup2\n        /* \"#utility.yul\":15872:15876   */\n      dup2\n        /* \"#utility.yul\":15868:15888   */\n      sub\n        /* \"#utility.yul\":15864:15865   */\n      0x00\n        /* \"#utility.yul\":15853:15862   */\n      dup4\n        /* \"#utility.yul\":15849:15866   */\n      add\n        /* \"#utility.yul\":15842:15889   */\n      mstore\n        /* \"#utility.yul\":15906:16037   */\n      tag_772\n        /* \"#utility.yul\":16032:16036   */\n      dup2\n        /* \"#utility.yul\":15906:16037   */\n      tag_563\n      jump\t// in\n    tag_772:\n        /* \"#utility.yul\":15898:16037   */\n      swap1\n      pop\n        /* \"#utility.yul\":15625:16044   */\n      swap2\n      swap1\n      pop\n      jump\t// out\n        /* \"#utility.yul\":16050:16230   */\n    tag_564:\n        /* \"#utility.yul\":16098:16175   */\n      0x4e487b7100000000000000000000000000000000000000000000000000000000\n        /* \"#utility.yul\":16095:16096   */\n      0x00\n        /* \"#utility.yul\":16088:16176   */\n      mstore\n        /* \"#utility.yul\":16195:16199   */\n      0x22\n        /* \"#utility.yul\":16192:16193   */\n      0x04\n        /* \"#utility.yul\":16185:16200   */\n      mstore\n        /* \"#utility.yul\":16219:16223   */\n      0x24\n        /* \"#utility.yul\":16216:16217   */\n      0x00\n        /* \"#utility.yul\":16209:16224   */\n      revert\n        /* \"#utility.yul\":16236:16556   */\n    tag_154:\n        /* \"#utility.yul\":16280:16286   */\n      0x00\n        /* \"#utility.yul\":16317:16318   */\n      0x02\n        /* \"#utility.yul\":16311:16315   */\n      dup3\n        /* \"#utility.yul\":16307:16319   */\n      div\n        /* \"#utility.yul\":16297:16319   */\n      swap1\n      pop\n        /* \"#utility.yul\":16364:16365   */\n      0x01\n        /* \"#utility.yul\":16358:16362   */\n      dup3\n        /* \"#utility.yul\":16354:16366   */\n      and\n        /* \"#utility.yul\":16385:16403   */\n      dup1\n        /* \"#utility.yul\":16375:16456   */\n      tag_775\n      jumpi\n        /* \"#utility.yul\":16441:16445   */\n      0x7f\n        /* \"#utility.yul\":16433:16439   */\n      dup3\n        /* \"#utility.yul\":16429:16446   */\n      and\n        /* \"#utility.yul\":16419:16446   */\n      swap2\n      pop\n        /* \"#utility.yul\":16375:16456   */\n    tag_775:\n        /* \"#utility.yul\":16503:16505   */\n      0x20\n        /* \"#utility.yul\":16495:16501   */\n      dup3\n        /* \"#utility.yul\":16492:16506   */\n      lt\n        /* \"#utility.yul\":16472:16490   */\n      dup2\n        /* \"#utility.yul\":16469:16507   */\n      sub\n        /* \"#utility.yul\":16466:16550   */\n      tag_776\n      jumpi\n        /* \"#utility.yul\":16522:16540   */\n      tag_777\n      tag_564\n      jump\t// in\n    tag_777:\n        /* \"#utility.yul\":16466:16550   */\n    tag_776:\n        /* \"#utility.yul\":16287:16556   */\n      pop\n        /* \"#utility.yul\":16236:16556   */\n      swap2\n      swap1\n      pop\n      jump\t// out\n        /* \"#utility.yul\":16562:16724   */\n    tag_565:\n        /* \"#utility.yul\":16702:16716   */\n      0x4e6f7420796f752073616c650000000000000000000000000000000000000000\n        /* \"#utility.yul\":16698:16699   */\n      0x00\n        /* \"#utility.yul\":16690:16696   */\n      dup3\n        /* \"#utility.yul\":16686:16700   */\n      add\n        /* \"#utility.yul\":16679:16717   */\n      mstore\n        /* \"#utility.yul\":16562:16724   */\n      pop\n      jump\t// out\n        /* \"#utility.yul\":16730:17096   */\n    tag_566:\n        /* \"#utility.yul\":16872:16875   */\n      0x00\n        /* \"#utility.yul\":16893:16960   */\n      tag_780\n        /* \"#utility.yul\":16957:16959   */\n      0x0c\n        /* \"#utility.yul\":16952:16955   */\n      dup4\n        /* \"#utility.yul\":16893:16960   */\n      tag_534\n      jump\t// in\n    tag_780:\n        /* \"#utility.yul\":16886:16960   */\n      swap2\n      pop\n        /* \"#utility.yul\":16969:17062   */\n      tag_781\n        /* \"#utility.yul\":17058:17061   */\n      dup3\n        /* \"#utility.yul\":16969:17062   */\n      tag_565\n      jump\t// in\n    tag_781:\n        /* \"#utility.yul\":17087:17089   */\n      0x20\n        /* \"#utility.yul\":17082:17085   */\n      dup3\n        /* \"#utility.yul\":17078:17090   */\n      add\n        /* \"#utility.yul\":17071:17090   */\n      swap1\n      pop\n        /* \"#utility.yul\":16730:17096   */\n      swap2\n      swap1\n      pop\n      jump\t// out\n        /* \"#utility.yul\":17102:17521   */\n    tag_175:\n        /* \"#utility.yul\":17268:17272   */\n      0x00\n        /* \"#utility.yul\":17306:17308   */\n      0x20\n        /* \"#utility.yul\":17295:17304   */\n      dup3\n        /* \"#utility.yul\":17291:17309   */\n      add\n        /* \"#utility.yul\":17283:17309   */\n      swap1\n      pop\n        /* \"#utility.yul\":17355:17364   */\n      dup2\n        /* \"#utility.yul\":17349:17353   */\n      dup2\n        /* \"#utility.yul\":17345:17365   */\n      sub\n        /* \"#utility.yul\":17341:17342   */\n      0x00\n        /* \"#utility.yul\":17330:17339   */\n      dup4\n        /* \"#utility.yul\":17326:17343   */\n      add\n        /* \"#utility.yul\":17319:17366   */\n      mstore\n        /* \"#utility.yul\":17383:17514   */\n      tag_783\n        /* \"#utility.yul\":17509:17513   */\n      dup2\n        /* \"#utility.yul\":17383:17514   */\n      tag_566\n      jump\t// in\n    tag_783:\n        /* \"#utility.yul\":17375:17514   */\n      swap1\n      pop\n        /* \"#utility.yul\":17102:17521   */\n      swap2\n      swap1\n      pop\n      jump\t// out\n        /* \"#utility.yul\":17527:17693   */\n    tag_567:\n        /* \"#utility.yul\":17667:17685   */\n      0x6275696c64206973206172657374656400000000000000000000000000000000\n        /* \"#utility.yul\":17663:17664   */\n      0x00\n        /* \"#utility.yul\":17655:17661   */\n      dup3\n        /* \"#utility.yul\":17651:17665   */\n      add\n        /* \"#utility.yul\":17644:17686   */\n      mstore\n        /* \"#utility.yul\":17527:17693   */\n      pop\n      jump\t// out\n        /* \"#utility.yul\":17699:18065   */\n    tag_568:\n        /* \"#utility.yul\":17841:17844   */\n      0x00\n        /* \"#utility.yul\":17862:17929   */\n      tag_786\n        /* \"#utility.yul\":17926:17928   */\n      0x10\n        /* \"#utility.yul\":17921:17924   */\n      dup4\n        /* \"#utility.yul\":17862:17929   */\n      tag_534\n      jump\t// in\n    tag_786:\n        /* \"#utility.yul\":17855:17929   */\n      swap2\n      pop\n        /* \"#utility.yul\":17938:18031   */\n      tag_787\n        /* \"#utility.yul\":18027:18030   */\n      dup3\n        /* \"#utility.yul\":17938:18031   */\n      tag_567\n      jump\t// in\n    tag_787:\n        /* \"#utility.yul\":18056:18058   */\n      0x20\n        /* \"#utility.yul\":18051:18054   */\n      dup3\n        /* \"#utility.yul\":18047:18059   */\n      add\n        /* \"#utility.yul\":18040:18059   */\n      swap1\n      pop\n        /* \"#utility.yul\":17699:18065   */\n      swap2\n      swap1\n      pop\n      jump\t// out\n        /* \"#utility.yul\":18071:18490   */\n    tag_181:\n        /* \"#utility.yul\":18237:18241   */\n      0x00\n        /* \"#utility.yul\":18275:18277   */\n      0x20\n        /* \"#utility.yul\":18264:18273   */\n      dup3\n        /* \"#utility.yul\":18260:18278   */\n      add\n        /* \"#utility.yul\":18252:18278   */\n      swap1\n      pop\n        /* \"#utility.yul\":18324:18333   */\n      dup2\n        /* \"#utility.yul\":18318:18322   */\n      dup2\n        /* \"#utility.yul\":18314:18334   */\n      sub\n        /* \"#utility.yul\":18310:18311   */\n      0x00\n        /* \"#utility.yul\":18299:18308   */\n      dup4\n        /* \"#utility.yul\":18295:18312   */\n      add\n        /* \"#utility.yul\":18288:18335   */\n      mstore\n        /* \"#utility.yul\":18352:18483   */\n      tag_789\n        /* \"#utility.yul\":18478:18482   */\n      dup2\n        /* \"#utility.yul\":18352:18483   */\n      tag_568\n      jump\t// in\n    tag_789:\n        /* \"#utility.yul\":18344:18483   */\n      swap1\n      pop\n        /* \"#utility.yul\":18071:18490   */\n      swap2\n      swap1\n      pop\n      jump\t// out\n        /* \"#utility.yul\":18496:18663   */\n    tag_569:\n        /* \"#utility.yul\":18636:18655   */\n      0x4973206e6f7420796f7572206275696c64000000000000000000000000000000\n        /* \"#utility.yul\":18632:18633   */\n      0x00\n        /* \"#utility.yul\":18624:18630   */\n      dup3\n        /* \"#utility.yul\":18620:18634   */\n      add\n        /* \"#utility.yul\":18613:18656   */\n      mstore\n        /* \"#utility.yul\":18496:18663   */\n      pop\n      jump\t// out\n        /* \"#utility.yul\":18669:19035   */\n    tag_570:\n        /* \"#utility.yul\":18811:18814   */\n      0x00\n        /* \"#utility.yul\":18832:18899   */\n      tag_792\n        /* \"#utility.yul\":18896:18898   */\n      0x11\n        /* \"#utility.yul\":18891:18894   */\n      dup4\n        /* \"#utility.yul\":18832:18899   */\n      tag_534\n      jump\t// in\n    tag_792:\n        /* \"#utility.yul\":18825:18899   */\n      swap2\n      pop\n        /* \"#utility.yul\":18908:19001   */\n      tag_793\n        /* \"#utility.yul\":18997:19000   */\n      dup3\n        /* \"#utility.yul\":18908:19001   */\n      tag_569\n      jump\t// in\n    tag_793:\n        /* \"#utility.yul\":19026:19028   */\n      0x20\n        /* \"#utility.yul\":19021:19024   */\n      dup3\n        /* \"#utility.yul\":19017:19029   */\n      add\n        /* \"#utility.yul\":19010:19029   */\n      swap1\n      pop\n        /* \"#utility.yul\":18669:19035   */\n      swap2\n      swap1\n      pop\n      jump\t// out\n        /* \"#utility.yul\":19041:19460   */\n    tag_242:\n        /* \"#utility.yul\":19207:19211   */\n      0x00\n        /* \"#utility.yul\":19245:19247   */\n      0x20\n        /* \"#utility.yul\":19234:19243   */\n      dup3\n        /* \"#utility.yul\":19230:19248   */\n      add\n        /* \"#utility.yul\":19222:19248   */\n      swap1\n      pop\n        /* \"#utility.yul\":19294:19303   */\n      dup2\n        /* \"#utility.yul\":19288:19292   */\n      dup2\n        /* \"#utility.yul\":19284:19304   */\n      sub\n        /* \"#utility.yul\":19280:19281   */\n      0x00\n        /* \"#utility.yul\":19269:19278   */\n      dup4\n        /* \"#utility.yul\":19265:19282   */\n      add\n        /* \"#utility.yul\":19258:19305   */\n      mstore\n        /* \"#utility.yul\":19322:19453   */\n      tag_795\n        /* \"#utility.yul\":19448:19452   */\n      dup2\n        /* \"#utility.yul\":19322:19453   */\n      tag_570\n      jump\t// in\n    tag_795:\n        /* \"#utility.yul\":19314:19453   */\n      swap1\n      pop\n        /* \"#utility.yul\":19041:19460   */\n      swap2\n      swap1\n      pop\n      jump\t// out\n        /* \"#utility.yul\":19466:19634   */\n    tag_571:\n        /* \"#utility.yul\":19606:19626   */\n      0x416c726561647920696e2070726573656e740000000000000000000000000000\n        /* \"#utility.yul\":19602:19603   */\n      0x00\n        /* \"#utility.yul\":19594:19600   */\n      dup3\n        /* \"#utility.yul\":19590:19604   */\n      add\n        /* \"#utility.yul\":19583:19627   */\n      mstore\n        /* \"#utility.yul\":19466:19634   */\n      pop\n      jump\t// out\n        /* \"#utility.yul\":19640:20006   */\n    tag_572:\n        /* \"#utility.yul\":19782:19785   */\n      0x00\n        /* \"#utility.yul\":19803:19870   */\n      tag_798\n        /* \"#utility.yul\":19867:19869   */\n      0x12\n        /* \"#utility.yul\":19862:19865   */\n      dup4\n        /* \"#utility.yul\":19803:19870   */\n      tag_534\n      jump\t// in\n    tag_798:\n        /* \"#utility.yul\":19796:19870   */\n      swap2\n      pop\n        /* \"#utility.yul\":19879:19972   */\n      tag_799\n        /* \"#utility.yul\":19968:19971   */\n      dup3\n        /* \"#utility.yul\":19879:19972   */\n      tag_571\n      jump\t// in\n    tag_799:\n        /* \"#utility.yul\":19997:19999   */\n      0x20\n        /* \"#utility.yul\":19992:19995   */\n      dup3\n        /* \"#utility.yul\":19988:20000   */\n      add\n        /* \"#utility.yul\":19981:20000   */\n      swap1\n      pop\n        /* \"#utility.yul\":19640:20006   */\n      swap2\n      swap1\n      pop\n      jump\t// out\n        /* \"#utility.yul\":20012:20431   */\n    tag_249:\n        /* \"#utility.yul\":20178:20182   */\n      0x00\n        /* \"#utility.yul\":20216:20218   */\n      0x20\n        /* \"#utility.yul\":20205:20214   */\n      dup3\n        /* \"#utility.yul\":20201:20219   */\n      add\n        /* \"#utility.yul\":20193:20219   */\n      swap1\n      pop\n        /* \"#utility.yul\":20265:20274   */\n      dup2\n        /* \"#utility.yul\":20259:20263   */\n      dup2\n        /* \"#utility.yul\":20255:20275   */\n      sub\n        /* \"#utility.yul\":20251:20252   */\n      0x00\n        /* \"#utility.yul\":20240:20249   */\n      dup4\n        /* \"#utility.yul\":20236:20253   */\n      add\n        /* \"#utility.yul\":20229:20276   */\n      mstore\n        /* \"#utility.yul\":20293:20424   */\n      tag_801\n        /* \"#utility.yul\":20419:20423   */\n      dup2\n        /* \"#utility.yul\":20293:20424   */\n      tag_572\n      jump\t// in\n    tag_801:\n        /* \"#utility.yul\":20285:20424   */\n      swap1\n      pop\n        /* \"#utility.yul\":20012:20431   */\n      swap2\n      swap1\n      pop\n      jump\t// out\n        /* \"#utility.yul\":20437:20602   */\n    tag_573:\n        /* \"#utility.yul\":20577:20594   */\n      0x416c726561647920696e2073616c650000000000000000000000000000000000\n        /* \"#utility.yul\":20573:20574   */\n      0x00\n        /* \"#utility.yul\":20565:20571   */\n      dup3\n        /* \"#utility.yul\":20561:20575   */\n      add\n        /* \"#utility.yul\":20554:20595   */\n      mstore\n        /* \"#utility.yul\":20437:20602   */\n      pop\n      jump\t// out\n        /* \"#utility.yul\":20608:20974   */\n    tag_574:\n        /* \"#utility.yul\":20750:20753   */\n      0x00\n        /* \"#utility.yul\":20771:20838   */\n      tag_804\n        /* \"#utility.yul\":20835:20837   */\n      0x0f\n        /* \"#utility.yul\":20830:20833   */\n      dup4\n        /* \"#utility.yul\":20771:20838   */\n      tag_534\n      jump\t// in\n    tag_804:\n        /* \"#utility.yul\":20764:20838   */\n      swap2\n      pop\n        /* \"#utility.yul\":20847:20940   */\n      tag_805\n        /* \"#utility.yul\":20936:20939   */\n      dup3\n        /* \"#utility.yul\":20847:20940   */\n      tag_573\n      jump\t// in\n    tag_805:\n        /* \"#utility.yul\":20965:20967   */\n      0x20\n        /* \"#utility.yul\":20960:20963   */\n      dup3\n        /* \"#utility.yul\":20956:20968   */\n      add\n        /* \"#utility.yul\":20949:20968   */\n      swap1\n      pop\n        /* \"#utility.yul\":20608:20974   */\n      swap2\n      swap1\n      pop\n      jump\t// out\n        /* \"#utility.yul\":20980:21399   */\n    tag_255:\n        /* \"#utility.yul\":21146:21150   */\n      0x00\n        /* \"#utility.yul\":21184:21186   */\n      0x20\n        /* \"#utility.yul\":21173:21182   */\n      dup3\n        /* \"#utility.yul\":21169:21187   */\n      add\n        /* \"#utility.yul\":21161:21187   */\n      swap1\n      pop\n        /* \"#utility.yul\":21233:21242   */\n      dup2\n        /* \"#utility.yul\":21227:21231   */\n      dup2\n        /* \"#utility.yul\":21223:21243   */\n      sub\n        /* \"#utility.yul\":21219:21220   */\n      0x00\n        /* \"#utility.yul\":21208:21217   */\n      dup4\n        /* \"#utility.yul\":21204:21221   */\n      add\n        /* \"#utility.yul\":21197:21244   */\n      mstore\n        /* \"#utility.yul\":21261:21392   */\n      tag_807\n        /* \"#utility.yul\":21387:21391   */\n      dup2\n        /* \"#utility.yul\":21261:21392   */\n      tag_574\n      jump\t// in\n    tag_807:\n        /* \"#utility.yul\":21253:21392   */\n      swap1\n      pop\n        /* \"#utility.yul\":20980:21399   */\n      swap2\n      swap1\n      pop\n      jump\t// out\n        /* \"#utility.yul\":21405:21569   */\n    tag_575:\n        /* \"#utility.yul\":21545:21561   */\n      0x4275696c6420696e206172657374000000000000000000000000000000000000\n        /* \"#utility.yul\":21541:21542   */\n      0x00\n        /* \"#utility.yul\":21533:21539   */\n      dup3\n        /* \"#utility.yul\":21529:21543   */\n      add\n        /* \"#utility.yul\":21522:21562   */\n      mstore\n        /* \"#utility.yul\":21405:21569   */\n      pop\n      jump\t// out\n        /* \"#utility.yul\":21575:21941   */\n    tag_576:\n        /* \"#utility.yul\":21717:21720   */\n      0x00\n        /* \"#utility.yul\":21738:21805   */\n      tag_810\n        /* \"#utility.yul\":21802:21804   */\n      0x0e\n        /* \"#utility.yul\":21797:21800   */\n      dup4\n        /* \"#utility.yul\":21738:21805   */\n      tag_534\n      jump\t// in\n    tag_810:\n        /* \"#utility.yul\":21731:21805   */\n      swap2\n      pop\n        /* \"#utility.yul\":21814:21907   */\n      tag_811\n        /* \"#utility.yul\":21903:21906   */\n      dup3\n        /* \"#utility.yul\":21814:21907   */\n      tag_575\n      jump\t// in\n    tag_811:\n        /* \"#utility.yul\":21932:21934   */\n      0x20\n        /* \"#utility.yul\":21927:21930   */\n      dup3\n        /* \"#utility.yul\":21923:21935   */\n      add\n        /* \"#utility.yul\":21916:21935   */\n      swap1\n      pop\n        /* \"#utility.yul\":21575:21941   */\n      swap2\n      swap1\n      pop\n      jump\t// out\n        /* \"#utility.yul\":21947:22366   */\n    tag_261:\n        /* \"#utility.yul\":22113:22117   */\n      0x00\n        /* \"#utility.yul\":22151:22153   */\n      0x20\n        /* \"#utility.yul\":22140:22149   */\n      dup3\n        /* \"#utility.yul\":22136:22154   */\n      add\n        /* \"#utility.yul\":22128:22154   */\n      swap1\n      pop\n        /* \"#utility.yul\":22200:22209   */\n      dup2\n        /* \"#utility.yul\":22194:22198   */\n      dup2\n        /* \"#utility.yul\":22190:22210   */\n      sub\n        /* \"#utility.yul\":22186:22187   */\n      0x00\n        /* \"#utility.yul\":22175:22184   */\n      dup4\n        /* \"#utility.yul\":22171:22188   */\n      add\n        /* \"#utility.yul\":22164:22211   */\n      mstore\n        /* \"#utility.yul\":22228:22359   */\n      tag_813\n        /* \"#utility.yul\":22354:22358   */\n      dup2\n        /* \"#utility.yul\":22228:22359   */\n      tag_576\n      jump\t// in\n    tag_813:\n        /* \"#utility.yul\":22220:22359   */\n      swap1\n      pop\n        /* \"#utility.yul\":21947:22366   */\n      swap2\n      swap1\n      pop\n      jump\t// out\n        /* \"#utility.yul\":22372:22535   */\n    tag_577:\n        /* \"#utility.yul\":22512:22527   */\n      0x77726f6e675f6164647265737300000000000000000000000000000000000000\n        /* \"#utility.yul\":22508:22509   */\n      0x00\n        /* \"#utility.yul\":22500:22506   */\n      dup3\n        /* \"#utility.yul\":22496:22510   */\n      add\n        /* \"#utility.yul\":22489:22528   */\n      mstore\n        /* \"#utility.yul\":22372:22535   */\n      pop\n      jump\t// out\n        /* \"#utility.yul\":22541:22907   */\n    tag_578:\n        /* \"#utility.yul\":22683:22686   */\n      0x00\n        /* \"#utility.yul\":22704:22771   */\n      tag_816\n        /* \"#utility.yul\":22768:22770   */\n      0x0d\n        /* \"#utility.yul\":22763:22766   */\n      dup4\n        /* \"#utility.yul\":22704:22771   */\n      tag_534\n      jump\t// in\n    tag_816:\n        /* \"#utility.yul\":22697:22771   */\n      swap2\n      pop\n        /* \"#utility.yul\":22780:22873   */\n      tag_817\n        /* \"#utility.yul\":22869:22872   */\n      dup3\n        /* \"#utility.yul\":22780:22873   */\n      tag_577\n      jump\t// in\n    tag_817:\n        /* \"#utility.yul\":22898:22900   */\n      0x20\n        /* \"#utility.yul\":22893:22896   */\n      dup3\n        /* \"#utility.yul\":22889:22901   */\n      add\n        /* \"#utility.yul\":22882:22901   */\n      swap1\n      pop\n        /* \"#utility.yul\":22541:22907   */\n      swap2\n      swap1\n      pop\n      jump\t// out\n        /* \"#utility.yul\":22913:23332   */\n    tag_265:\n        /* \"#utility.yul\":23079:23083   */\n      0x00\n        /* \"#utility.yul\":23117:23119   */\n      0x20\n        /* \"#utility.yul\":23106:23115   */\n      dup3\n        /* \"#utility.yul\":23102:23120   */\n      add\n        /* \"#utility.yul\":23094:23120   */\n      swap1\n      pop\n        /* \"#utility.yul\":23166:23175   */\n      dup2\n        /* \"#utility.yul\":23160:23164   */\n      dup2\n        /* \"#utility.yul\":23156:23176   */\n      sub\n        /* \"#utility.yul\":23152:23153   */\n      0x00\n        /* \"#utility.yul\":23141:23150   */\n      dup4\n        /* \"#utility.yul\":23137:23154   */\n      add\n        /* \"#utility.yul\":23130:23177   */\n      mstore\n        /* \"#utility.yul\":23194:23325   */\n      tag_819\n        /* \"#utility.yul\":23320:23324   */\n      dup2\n        /* \"#utility.yul\":23194:23325   */\n      tag_578\n      jump\t// in\n    tag_819:\n        /* \"#utility.yul\":23186:23325   */\n      swap1\n      pop\n        /* \"#utility.yul\":22913:23332   */\n      swap2\n      swap1\n      pop\n      jump\t// out\n        /* \"#utility.yul\":23338:23507   */\n    tag_579:\n        /* \"#utility.yul\":23478:23499   */\n      0x77726f6e67206275696c6449442076616c756500000000000000000000000000\n        /* \"#utility.yul\":23474:23475   */\n      0x00\n        /* \"#utility.yul\":23466:23472   */\n      dup3\n        /* \"#utility.yul\":23462:23476   */\n      add\n        /* \"#utility.yul\":23455:23500   */\n      mstore\n        /* \"#utility.yul\":23338:23507   */\n      pop\n      jump\t// out\n        /* \"#utility.yul\":23513:23879   */\n    tag_580:\n        /* \"#utility.yul\":23655:23658   */\n      0x00\n        /* \"#utility.yul\":23676:23743   */\n      tag_822\n        /* \"#utility.yul\":23740:23742   */\n      0x13\n        /* \"#utility.yul\":23735:23738   */\n      dup4\n        /* \"#utility.yul\":23676:23743   */\n      tag_534\n      jump\t// in\n    tag_822:\n        /* \"#utility.yul\":23669:23743   */\n      swap2\n      pop\n        /* \"#utility.yul\":23752:23845   */\n      tag_823\n        /* \"#utility.yul\":23841:23844   */\n      dup3\n        /* \"#utility.yul\":23752:23845   */\n      tag_579\n      jump\t// in\n    tag_823:\n        /* \"#utility.yul\":23870:23872   */\n      0x20\n        /* \"#utility.yul\":23865:23868   */\n      dup3\n        /* \"#utility.yul\":23861:23873   */\n      add\n        /* \"#utility.yul\":23854:23873   */\n      swap1\n      pop\n        /* \"#utility.yul\":23513:23879   */\n      swap2\n      swap1\n      pop\n      jump\t// out\n        /* \"#utility.yul\":23885:24304   */\n    tag_268:\n        /* \"#utility.yul\":24051:24055   */\n      0x00\n        /* \"#utility.yul\":24089:24091   */\n      0x20\n        /* \"#utility.yul\":24078:24087   */\n      dup3\n        /* \"#utility.yul\":24074:24092   */\n      add\n        /* \"#utility.yul\":24066:24092   */\n      swap1\n      pop\n        /* \"#utility.yul\":24138:24147   */\n      dup2\n        /* \"#utility.yul\":24132:24136   */\n      dup2\n        /* \"#utility.yul\":24128:24148   */\n      sub\n        /* \"#utility.yul\":24124:24125   */\n      0x00\n        /* \"#utility.yul\":24113:24122   */\n      dup4\n        /* \"#utility.yul\":24109:24126   */\n      add\n        /* \"#utility.yul\":24102:24149   */\n      mstore\n        /* \"#utility.yul\":24166:24297   */\n      tag_825\n        /* \"#utility.yul\":24292:24296   */\n      dup2\n        /* \"#utility.yul\":24166:24297   */\n      tag_580\n      jump\t// in\n    tag_825:\n        /* \"#utility.yul\":24158:24297   */\n      swap1\n      pop\n        /* \"#utility.yul\":23885:24304   */\n      swap2\n      swap1\n      pop\n      jump\t// out\n        /* \"#utility.yul\":24310:24469   */\n    tag_581:\n        /* \"#utility.yul\":24450:24461   */\n      0x73656c6620676966740000000000000000000000000000000000000000000000\n        /* \"#utility.yul\":24446:24447   */\n      0x00\n        /* \"#utility.yul\":24438:24444   */\n      dup3\n        /* \"#utility.yul\":24434:24448   */\n      add\n        /* \"#utility.yul\":24427:24462   */\n      mstore\n        /* \"#utility.yul\":24310:24469   */\n      pop\n      jump\t// out\n        /* \"#utility.yul\":24475:24840   */\n    tag_582:\n        /* \"#utility.yul\":24617:24620   */\n      0x00\n        /* \"#utility.yul\":24638:24704   */\n      tag_828\n        /* \"#utility.yul\":24702:24703   */\n      0x09\n        /* \"#utility.yul\":24697:24700   */\n      dup4\n        /* \"#utility.yul\":24638:24704   */\n      tag_534\n      jump\t// in\n    tag_828:\n        /* \"#utility.yul\":24631:24704   */\n      swap2\n      pop\n        /* \"#utility.yul\":24713:24806   */\n      tag_829\n        /* \"#utility.yul\":24802:24805   */\n      dup3\n        /* \"#utility.yul\":24713:24806   */\n      tag_581\n      jump\t// in\n    tag_829:\n        /* \"#utility.yul\":24831:24833   */\n      0x20\n        /* \"#utility.yul\":24826:24829   */\n      dup3\n        /* \"#utility.yul\":24822:24834   */\n      add\n        /* \"#utility.yul\":24815:24834   */\n      swap1\n      pop\n        /* \"#utility.yul\":24475:24840   */\n      swap2\n      swap1\n      pop\n      jump\t// out\n        /* \"#utility.yul\":24846:25265   */\n    tag_271:\n        /* \"#utility.yul\":25012:25016   */\n      0x00\n        /* \"#utility.yul\":25050:25052   */\n      0x20\n        /* \"#utility.yul\":25039:25048   */\n      dup3\n        /* \"#utility.yul\":25035:25053   */\n      add\n        /* \"#utility.yul\":25027:25053   */\n      swap1\n      pop\n        /* \"#utility.yul\":25099:25108   */\n      dup2\n        /* \"#utility.yul\":25093:25097   */\n      dup2\n        /* \"#utility.yul\":25089:25109   */\n      sub\n        /* \"#utility.yul\":25085:25086   */\n      0x00\n        /* \"#utility.yul\":25074:25083   */\n      dup4\n        /* \"#utility.yul\":25070:25087   */\n      add\n        /* \"#utility.yul\":25063:25110   */\n      mstore\n        /* \"#utility.yul\":25127:25258   */\n      tag_831\n        /* \"#utility.yul\":25253:25257   */\n      dup2\n        /* \"#utility.yul\":25127:25258   */\n      tag_582\n      jump\t// in\n    tag_831:\n        /* \"#utility.yul\":25119:25258   */\n      swap1\n      pop\n        /* \"#utility.yul\":24846:25265   */\n      swap2\n      swap1\n      pop\n      jump\t// out\n        /* \"#utility.yul\":25271:25451   */\n    tag_583:\n        /* \"#utility.yul\":25319:25396   */\n      0x4e487b7100000000000000000000000000000000000000000000000000000000\n        /* \"#utility.yul\":25316:25317   */\n      0x00\n        /* \"#utility.yul\":25309:25397   */\n      mstore\n        /* \"#utility.yul\":25416:25420   */\n      0x11\n        /* \"#utility.yul\":25413:25414   */\n      0x04\n        /* \"#utility.yul\":25406:25421   */\n      mstore\n        /* \"#utility.yul\":25440:25444   */\n      0x24\n        /* \"#utility.yul\":25437:25438   */\n      0x00\n        /* \"#utility.yul\":25430:25445   */\n      revert\n        /* \"#utility.yul\":25457:25648   */\n    tag_273:\n        /* \"#utility.yul\":25497:25500   */\n      0x00\n        /* \"#utility.yul\":25516:25536   */\n      tag_834\n        /* \"#utility.yul\":25534:25535   */\n      dup3\n        /* \"#utility.yul\":25516:25536   */\n      tag_523\n      jump\t// in\n    tag_834:\n        /* \"#utility.yul\":25511:25536   */\n      swap2\n      pop\n        /* \"#utility.yul\":25550:25570   */\n      tag_835\n        /* \"#utility.yul\":25568:25569   */\n      dup4\n        /* \"#utility.yul\":25550:25570   */\n      tag_523\n      jump\t// in\n    tag_835:\n        /* \"#utility.yul\":25545:25570   */\n      swap3\n      pop\n        /* \"#utility.yul\":25593:25594   */\n      dup3\n        /* \"#utility.yul\":25590:25591   */\n      dup3\n        /* \"#utility.yul\":25586:25595   */\n      add\n        /* \"#utility.yul\":25579:25595   */\n      swap1\n      pop\n        /* \"#utility.yul\":25614:25617   */\n      dup1\n        /* \"#utility.yul\":25611:25612   */\n      dup3\n        /* \"#utility.yul\":25608:25618   */\n      gt\n        /* \"#utility.yul\":25605:25641   */\n      iszero\n      tag_836\n      jumpi\n        /* \"#utility.yul\":25621:25639   */\n      tag_837\n      tag_583\n      jump\t// in\n    tag_837:\n        /* \"#utility.yul\":25605:25641   */\n    tag_836:\n        /* \"#utility.yul\":25457:25648   */\n      swap3\n      swap2\n      pop\n      pop\n      jump\t// out\n        /* \"#utility.yul\":25654:25820   */\n    tag_584:\n        /* \"#utility.yul\":25794:25812   */\n      0x416c72656164792066696e697368656400000000000000000000000000000000\n        /* \"#utility.yul\":25790:25791   */\n      0x00\n        /* \"#utility.yul\":25782:25788   */\n      dup3\n        /* \"#utility.yul\":25778:25792   */\n      add\n        /* \"#utility.yul\":25771:25813   */\n      mstore\n        /* \"#utility.yul\":25654:25820   */\n      pop\n      jump\t// out\n        /* \"#utility.yul\":25826:26192   */\n    tag_585:\n        /* \"#utility.yul\":25968:25971   */\n      0x00\n        /* \"#utility.yul\":25989:26056   */\n      tag_840\n        /* \"#utility.yul\":26053:26055   */\n      0x10\n        /* \"#utility.yul\":26048:26051   */\n      dup4\n        /* \"#utility.yul\":25989:26056   */\n      tag_534\n      jump\t// in\n    tag_840:\n        /* \"#utility.yul\":25982:26056   */\n      swap2\n      pop\n        /* \"#utility.yul\":26065:26158   */\n      tag_841\n        /* \"#utility.yul\":26154:26157   */\n      dup3\n        /* \"#utility.yul\":26065:26158   */\n      tag_584\n      jump\t// in\n    tag_841:\n        /* \"#utility.yul\":26183:26185   */\n      0x20\n        /* \"#utility.yul\":26178:26181   */\n      dup3\n        /* \"#utility.yul\":26174:26186   */\n      add\n        /* \"#utility.yul\":26167:26186   */\n      swap1\n      pop\n        /* \"#utility.yul\":25826:26192   */\n      swap2\n      swap1\n      pop\n      jump\t// out\n        /* \"#utility.yul\":26198:26617   */\n    tag_328:\n        /* \"#utility.yul\":26364:26368   */\n      0x00\n        /* \"#utility.yul\":26402:26404   */\n      0x20\n        /* \"#utility.yul\":26391:26400   */\n      dup3\n        /* \"#utility.yul\":26387:26405   */\n      add\n        /* \"#utility.yul\":26379:26405   */\n      swap1\n      pop\n        /* \"#utility.yul\":26451:26460   */\n      dup2\n        /* \"#utility.yul\":26445:26449   */\n      dup2\n        /* \"#utility.yul\":26441:26461   */\n      sub\n        /* \"#utility.yul\":26437:26438   */\n      0x00\n        /* \"#utility.yul\":26426:26435   */\n      dup4\n        /* \"#utility.yul\":26422:26439   */\n      add\n        /* \"#utility.yul\":26415:26462   */\n      mstore\n        /* \"#utility.yul\":26479:26610   */\n      tag_843\n        /* \"#utility.yul\":26605:26609   */\n      dup2\n        /* \"#utility.yul\":26479:26610   */\n      tag_585\n      jump\t// in\n    tag_843:\n        /* \"#utility.yul\":26471:26610   */\n      swap1\n      pop\n        /* \"#utility.yul\":26198:26617   */\n      swap2\n      swap1\n      pop\n      jump\t// out\n        /* \"#utility.yul\":26623:26790   */\n    tag_586:\n        /* \"#utility.yul\":26763:26782   */\n      0x596f7520617265206e6f74206f776e6572000000000000000000000000000000\n        /* \"#utility.yul\":26759:26760   */\n      0x00\n        /* \"#utility.yul\":26751:26757   */\n      dup3\n        /* \"#utility.yul\":26747:26761   */\n      add\n        /* \"#utility.yul\":26740:26783   */\n      mstore\n        /* \"#utility.yul\":26623:26790   */\n      pop\n      jump\t// out\n        /* \"#utility.yul\":26796:27162   */\n    tag_587:\n        /* \"#utility.yul\":26938:26941   */\n      0x00\n        /* \"#utility.yul\":26959:27026   */\n      tag_846\n        /* \"#utility.yul\":27023:27025   */\n      0x11\n        /* \"#utility.yul\":27018:27021   */\n      dup4\n        /* \"#utility.yul\":26959:27026   */\n      tag_534\n      jump\t// in\n    tag_846:\n        /* \"#utility.yul\":26952:27026   */\n      swap2\n      pop\n        /* \"#utility.yul\":27035:27128   */\n      tag_847\n        /* \"#utility.yul\":27124:27127   */\n      dup3\n        /* \"#utility.yul\":27035:27128   */\n      tag_586\n      jump\t// in\n    tag_847:\n        /* \"#utility.yul\":27153:27155   */\n      0x20\n        /* \"#utility.yul\":27148:27151   */\n      dup3\n        /* \"#utility.yul\":27144:27156   */\n      add\n        /* \"#utility.yul\":27137:27156   */\n      swap1\n      pop\n        /* \"#utility.yul\":26796:27162   */\n      swap2\n      swap1\n      pop\n      jump\t// out\n        /* \"#utility.yul\":27168:27587   */\n    tag_334:\n        /* \"#utility.yul\":27334:27338   */\n      0x00\n        /* \"#utility.yul\":27372:27374   */\n      0x20\n        /* \"#utility.yul\":27361:27370   */\n      dup3\n        /* \"#utility.yul\":27357:27375   */\n      add\n        /* \"#utility.yul\":27349:27375   */\n      swap1\n      pop\n        /* \"#utility.yul\":27421:27430   */\n      dup2\n        /* \"#utility.yul\":27415:27419   */\n      dup2\n        /* \"#utility.yul\":27411:27431   */\n      sub\n        /* \"#utility.yul\":27407:27408   */\n      0x00\n        /* \"#utility.yul\":27396:27405   */\n      dup4\n        /* \"#utility.yul\":27392:27409   */\n      add\n        /* \"#utility.yul\":27385:27432   */\n      mstore\n        /* \"#utility.yul\":27449:27580   */\n      tag_849\n        /* \"#utility.yul\":27575:27579   */\n      dup2\n        /* \"#utility.yul\":27449:27580   */\n      tag_587\n      jump\t// in\n    tag_849:\n        /* \"#utility.yul\":27441:27580   */\n      swap1\n      pop\n        /* \"#utility.yul\":27168:27587   */\n      swap2\n      swap1\n      pop\n      jump\t// out\n        /* \"#utility.yul\":27593:27756   */\n    tag_588:\n        /* \"#utility.yul\":27733:27748   */\n      0x77726f6e67206164647265737300000000000000000000000000000000000000\n        /* \"#utility.yul\":27729:27730   */\n      0x00\n        /* \"#utility.yul\":27721:27727   */\n      dup3\n        /* \"#utility.yul\":27717:27731   */\n      add\n        /* \"#utility.yul\":27710:27749   */\n      mstore\n        /* \"#utility.yul\":27593:27756   */\n      pop\n      jump\t// out\n        /* \"#utility.yul\":27762:28128   */\n    tag_589:\n        /* \"#utility.yul\":27904:27907   */\n      0x00\n        /* \"#utility.yul\":27925:27992   */\n      tag_852\n        /* \"#utility.yul\":27989:27991   */\n      0x0d\n        /* \"#utility.yul\":27984:27987   */\n      dup4\n        /* \"#utility.yul\":27925:27992   */\n      tag_534\n      jump\t// in\n    tag_852:\n        /* \"#utility.yul\":27918:27992   */\n      swap2\n      pop\n        /* \"#utility.yul\":28001:28094   */\n      tag_853\n        /* \"#utility.yul\":28090:28093   */\n      dup3\n        /* \"#utility.yul\":28001:28094   */\n      tag_588\n      jump\t// in\n    tag_853:\n        /* \"#utility.yul\":28119:28121   */\n      0x20\n        /* \"#utility.yul\":28114:28117   */\n      dup3\n        /* \"#utility.yul\":28110:28122   */\n      add\n        /* \"#utility.yul\":28103:28122   */\n      swap1\n      pop\n        /* \"#utility.yul\":27762:28128   */\n      swap2\n      swap1\n      pop\n      jump\t// out\n        /* \"#utility.yul\":28134:28553   */\n    tag_362:\n        /* \"#utility.yul\":28300:28304   */\n      0x00\n        /* \"#utility.yul\":28338:28340   */\n      0x20\n        /* \"#utility.yul\":28327:28336   */\n      dup3\n        /* \"#utility.yul\":28323:28341   */\n      add\n        /* \"#utility.yul\":28315:28341   */\n      swap1\n      pop\n        /* \"#utility.yul\":28387:28396   */\n      dup2\n        /* \"#utility.yul\":28381:28385   */\n      dup2\n        /* \"#utility.yul\":28377:28397   */\n      sub\n        /* \"#utility.yul\":28373:28374   */\n      0x00\n        /* \"#utility.yul\":28362:28371   */\n      dup4\n        /* \"#utility.yul\":28358:28375   */\n      add\n        /* \"#utility.yul\":28351:28398   */\n      mstore\n        /* \"#utility.yul\":28415:28546   */\n      tag_855\n        /* \"#utility.yul\":28541:28545   */\n      dup2\n        /* \"#utility.yul\":28415:28546   */\n      tag_589\n      jump\t// in\n    tag_855:\n        /* \"#utility.yul\":28407:28546   */\n      swap1\n      pop\n        /* \"#utility.yul\":28134:28553   */\n      swap2\n      swap1\n      pop\n      jump\t// out\n        /* \"#utility.yul\":28559:28721   */\n    tag_590:\n        /* \"#utility.yul\":28699:28713   */\n      0x77726f6e67207371756172650000000000000000000000000000000000000000\n        /* \"#utility.yul\":28695:28696   */\n      0x00\n        /* \"#utility.yul\":28687:28693   */\n      dup3\n        /* \"#utility.yul\":28683:28697   */\n      add\n        /* \"#utility.yul\":28676:28714   */\n      mstore\n        /* \"#utility.yul\":28559:28721   */\n      pop\n      jump\t// out\n        /* \"#utility.yul\":28727:29093   */\n    tag_591:\n        /* \"#utility.yul\":28869:28872   */\n      0x00\n        /* \"#utility.yul\":28890:28957   */\n      tag_858\n        /* \"#utility.yul\":28954:28956   */\n      0x0c\n        /* \"#utility.yul\":28949:28952   */\n      dup4\n        /* \"#utility.yul\":28890:28957   */\n      tag_534\n      jump\t// in\n    tag_858:\n        /* \"#utility.yul\":28883:28957   */\n      swap2\n      pop\n        /* \"#utility.yul\":28966:29059   */\n      tag_859\n        /* \"#utility.yul\":29055:29058   */\n      dup3\n        /* \"#utility.yul\":28966:29059   */\n      tag_590\n      jump\t// in\n    tag_859:\n        /* \"#utility.yul\":29084:29086   */\n      0x20\n        /* \"#utility.yul\":29079:29082   */\n      dup3\n        /* \"#utility.yul\":29075:29087   */\n      add\n        /* \"#utility.yul\":29068:29087   */\n      swap1\n      pop\n        /* \"#utility.yul\":28727:29093   */\n      swap2\n      swap1\n      pop\n      jump\t// out\n        /* \"#utility.yul\":29099:29518   */\n    tag_365:\n        /* \"#utility.yul\":29265:29269   */\n      0x00\n        /* \"#utility.yul\":29303:29305   */\n      0x20\n        /* \"#utility.yul\":29292:29301   */\n      dup3\n        /* \"#utility.yul\":29288:29306   */\n      add\n        /* \"#utility.yul\":29280:29306   */\n      swap1\n      pop\n        /* \"#utility.yul\":29352:29361   */\n      dup2\n        /* \"#utility.yul\":29346:29350   */\n      dup2\n        /* \"#utility.yul\":29342:29362   */\n      sub\n        /* \"#utility.yul\":29338:29339   */\n      0x00\n        /* \"#utility.yul\":29327:29336   */\n      dup4\n        /* \"#utility.yul\":29323:29340   */\n      add\n        /* \"#utility.yul\":29316:29363   */\n      mstore\n        /* \"#utility.yul\":29380:29511   */\n      tag_861\n        /* \"#utility.yul\":29506:29510   */\n      dup2\n        /* \"#utility.yul\":29380:29511   */\n      tag_591\n      jump\t// in\n    tag_861:\n        /* \"#utility.yul\":29372:29511   */\n      swap1\n      pop\n        /* \"#utility.yul\":29099:29518   */\n      swap2\n      swap1\n      pop\n      jump\t// out\n        /* \"#utility.yul\":29524:29665   */\n    tag_592:\n        /* \"#utility.yul\":29573:29577   */\n      0x00\n        /* \"#utility.yul\":29596:29599   */\n      dup2\n        /* \"#utility.yul\":29588:29599   */\n      swap1\n      pop\n        /* \"#utility.yul\":29619:29622   */\n      dup2\n        /* \"#utility.yul\":29616:29617   */\n      0x00\n        /* \"#utility.yul\":29609:29623   */\n      mstore\n        /* \"#utility.yul\":29653:29657   */\n      0x20\n        /* \"#utility.yul\":29650:29651   */\n      0x00\n        /* \"#utility.yul\":29640:29658   */\n      keccak256\n        /* \"#utility.yul\":29632:29658   */\n      swap1\n      pop\n        /* \"#utility.yul\":29524:29665   */\n      swap2\n      swap1\n      pop\n      jump\t// out\n        /* \"#utility.yul\":29671:29764   */\n    tag_593:\n        /* \"#utility.yul\":29708:29714   */\n      0x00\n        /* \"#utility.yul\":29755:29757   */\n      0x20\n        /* \"#utility.yul\":29750:29752   */\n      0x1f\n        /* \"#utility.yul\":29743:29748   */\n      dup4\n        /* \"#utility.yul\":29739:29753   */\n      add\n        /* \"#utility.yul\":29735:29758   */\n      div\n        /* \"#utility.yul\":29725:29758   */\n      swap1\n      pop\n        /* \"#utility.yul\":29671:29764   */\n      swap2\n      swap1\n      pop\n      jump\t// out\n        /* \"#utility.yul\":29770:29877   */\n    tag_594:\n        /* \"#utility.yul\":29814:29822   */\n      0x00\n        /* \"#utility.yul\":29864:29869   */\n      dup3\n        /* \"#utility.yul\":29858:29862   */\n      dup3\n        /* \"#utility.yul\":29854:29870   */\n      shl\n        /* \"#utility.yul\":29833:29870   */\n      swap1\n      pop\n        /* \"#utility.yul\":29770:29877   */\n      swap3\n      swap2\n      pop\n      pop\n      jump\t// out\n        /* \"#utility.yul\":29883:30276   */\n    tag_595:\n        /* \"#utility.yul\":29952:29958   */\n      0x00\n        /* \"#utility.yul\":30002:30003   */\n      0x08\n        /* \"#utility.yul\":29990:30000   */\n      dup4\n        /* \"#utility.yul\":29986:30004   */\n      mul\n        /* \"#utility.yul\":30025:30122   */\n      tag_866\n        /* \"#utility.yul\":30055:30121   */\n      0xffffffffffffffffffffffffffffffffffffffffffffffffffffffffffffffff\n        /* \"#utility.yul\":30044:30053   */\n      dup3\n        /* \"#utility.yul\":30025:30122   */\n      tag_594\n      jump\t// in\n    tag_866:\n        /* \"#utility.yul\":30143:30182   */\n      tag_867\n        /* \"#utility.yul\":30173:30181   */\n      dup7\n        /* \"#utility.yul\":30162:30171   */\n      dup4\n        /* \"#utility.yul\":30143:30182   */\n      tag_594\n      jump\t// in\n    tag_867:\n        /* \"#utility.yul\":30131:30182   */\n      swap6\n      pop\n        /* \"#utility.yul\":30215:30219   */\n      dup1\n        /* \"#utility.yul\":30211:30220   */\n      not\n        /* \"#utility.yul\":30204:30209   */\n      dup5\n        /* \"#utility.yul\":30200:30221   */\n      and\n        /* \"#utility.yul\":30191:30221   */\n      swap4\n      pop\n        /* \"#utility.yul\":30264:30268   */\n      dup1\n        /* \"#utility.yul\":30254:30262   */\n      dup7\n        /* \"#utility.yul\":30250:30269   */\n      and\n        /* \"#utility.yul\":30243:30248   */\n      dup5\n        /* \"#utility.yul\":30240:30270   */\n      or\n        /* \"#utility.yul\":30230:30270   */\n      swap3\n      pop\n        /* \"#utility.yul\":29959:30276   */\n      pop\n      pop\n        /* \"#utility.yul\":29883:30276   */\n      swap4\n      swap3\n      pop\n      pop\n      pop\n      jump\t// out\n        /* \"#utility.yul\":30282:30342   */\n    tag_596:\n        /* \"#utility.yul\":30310:30313   */\n      0x00\n        /* \"#utility.yul\":30331:30336   */\n      dup2\n        /* \"#utility.yul\":30324:30336   */\n      swap1\n      pop\n        /* \"#utility.yul\":30282:30342   */\n      swap2\n      swap1\n      pop\n      jump\t// out\n        /* \"#utility.yul\":30348:30490   */\n    tag_597:\n        /* \"#utility.yul\":30398:30407   */\n      0x00\n        /* \"#utility.yul\":30431:30484   */\n      tag_870\n        /* \"#utility.yul\":30449:30483   */\n      tag_871\n        /* \"#utility.yul\":30458:30482   */\n      tag_872\n        /* \"#utility.yul\":30476:30481   */\n      dup5\n        /* \"#utility.yul\":30458:30482   */\n      tag_523\n      jump\t// in\n    tag_872:\n        /* \"#utility.yul\":30449:30483   */\n      tag_596\n      jump\t// in\n    tag_871:\n        /* \"#utility.yul\":30431:30484   */\n      tag_523\n      jump\t// in\n    tag_870:\n        /* \"#utility.yul\":30418:30484   */\n      swap1\n      pop\n        /* \"#utility.yul\":30348:30490   */\n      swap2\n      swap1\n      pop\n      jump\t// out\n        /* \"#utility.yul\":30496:30571   */\n    tag_598:\n        /* \"#utility.yul\":30539:30542   */\n      0x00\n        /* \"#utility.yul\":30560:30565   */\n      dup2\n        /* \"#utility.yul\":30553:30565   */\n      swap1\n      pop\n        /* \"#utility.yul\":30496:30571   */\n      swap2\n      swap1\n      pop\n      jump\t// out\n        /* \"#utility.yul\":30577:30846   */\n    tag_599:\n        /* \"#utility.yul\":30687:30726   */\n      tag_875\n        /* \"#utility.yul\":30718:30725   */\n      dup4\n        /* \"#utility.yul\":30687:30726   */\n      tag_597\n      jump\t// in\n    tag_875:\n        /* \"#utility.yul\":30748:30839   */\n      tag_876\n        /* \"#utility.yul\":30797:30838   */\n      tag_877\n        /* \"#utility.yul\":30821:30837   */\n      dup3\n        /* \"#utility.yul\":30797:30838   */\n      tag_598\n      jump\t// in\n    tag_877:\n        /* \"#utility.yul\":30789:30795   */\n      dup5\n        /* \"#utility.yul\":30782:30786   */\n      dup5\n        /* \"#utility.yul\":30776:30787   */\n      sload\n        /* \"#utility.yul\":30748:30839   */\n      tag_595\n      jump\t// in\n    tag_876:\n        /* \"#utility.yul\":30742:30746   */\n      dup3\n        /* \"#utility.yul\":30735:30840   */\n      sstore\n        /* \"#utility.yul\":30653:30846   */\n      pop\n        /* \"#utility.yul\":30577:30846   */\n      pop\n      pop\n      pop\n      jump\t// out\n        /* \"#utility.yul\":30852:30925   */\n    tag_600:\n        /* \"#utility.yul\":30897:30900   */\n      0x00\n        /* \"#utility.yul\":30852:30925   */\n      swap1\n      jump\t// out\n        /* \"#utility.yul\":30931:31120   */\n    tag_601:\n        /* \"#utility.yul\":31008:31040   */\n      tag_880\n      tag_600\n      jump\t// in\n    tag_880:\n        /* \"#utility.yul\":31049:31114   */\n      tag_881\n        /* \"#utility.yul\":31107:31113   */\n      dup2\n        /* \"#utility.yul\":31099:31105   */\n      dup5\n        /* \"#utility.yul\":31093:31097   */\n      dup5\n        /* \"#utility.yul\":31049:31114   */\n      tag_599\n      jump\t// in\n    tag_881:\n        /* \"#utility.yul\":30984:31120   */\n      pop\n        /* \"#utility.yul\":30931:31120   */\n      pop\n      pop\n      jump\t// out\n        /* \"#utility.yul\":31126:31312   */\n    tag_602:\n        /* \"#utility.yul\":31186:31306   */\n    tag_883:\n        /* \"#utility.yul\":31203:31206   */\n      dup2\n        /* \"#utility.yul\":31196:31201   */\n      dup2\n        /* \"#utility.yul\":31193:31207   */\n      lt\n        /* \"#utility.yul\":31186:31306   */\n      iszero\n      tag_885\n      jumpi\n        /* \"#utility.yul\":31257:31296   */\n      tag_886\n        /* \"#utility.yul\":31294:31295   */\n      0x00\n        /* \"#utility.yul\":31287:31292   */\n      dup3\n        /* \"#utility.yul\":31257:31296   */\n      tag_601\n      jump\t// in\n    tag_886:\n        /* \"#utility.yul\":31230:31231   */\n      0x01\n        /* \"#utility.yul\":31223:31228   */\n      dup2\n        /* \"#utility.yul\":31219:31232   */\n      add\n        /* \"#utility.yul\":31210:31232   */\n      swap1\n      pop\n        /* \"#utility.yul\":31186:31306   */\n      jump(tag_883)\n    tag_885:\n        /* \"#utility.yul\":31126:31312   */\n      pop\n      pop\n      jump\t// out\n        /* \"#utility.yul\":31318:31861   */\n    tag_603:\n        /* \"#utility.yul\":31419:31421   */\n      0x1f\n        /* \"#utility.yul\":31414:31417   */\n      dup3\n        /* \"#utility.yul\":31411:31422   */\n      gt\n        /* \"#utility.yul\":31408:31854   */\n      iszero\n      tag_888\n      jumpi\n        /* \"#utility.yul\":31453:31491   */\n      tag_889\n        /* \"#utility.yul\":31485:31490   */\n      dup2\n        /* \"#utility.yul\":31453:31491   */\n      tag_592\n      jump\t// in\n    tag_889:\n        /* \"#utility.yul\":31537:31566   */\n      tag_890\n        /* \"#utility.yul\":31555:31565   */\n      dup5\n        /* \"#utility.yul\":31537:31566   */\n      tag_593\n      jump\t// in\n    tag_890:\n        /* \"#utility.yul\":31527:31535   */\n      dup2\n        /* \"#utility.yul\":31523:31567   */\n      add\n        /* \"#utility.yul\":31720:31722   */\n      0x20\n        /* \"#utility.yul\":31708:31718   */\n      dup6\n        /* \"#utility.yul\":31705:31723   */\n      lt\n        /* \"#utility.yul\":31702:31751   */\n      iszero\n      tag_891\n      jumpi\n        /* \"#utility.yul\":31741:31749   */\n      dup2\n        /* \"#utility.yul\":31726:31749   */\n      swap1\n      pop\n        /* \"#utility.yul\":31702:31751   */\n    tag_891:\n        /* \"#utility.yul\":31764:31844   */\n      tag_892\n        /* \"#utility.yul\":31820:31842   */\n      tag_893\n        /* \"#utility.yul\":31838:31841   */\n      dup6\n        /* \"#utility.yul\":31820:31842   */\n      tag_593\n      jump\t// in\n    tag_893:\n        /* \"#utility.yul\":31810:31818   */\n      dup4\n        /* \"#utility.yul\":31806:31843   */\n      add\n        /* \"#utility.yul\":31793:31804   */\n      dup3\n        /* \"#utility.yul\":31764:31844   */\n      tag_602\n      jump\t// in\n    tag_892:\n        /* \"#utility.yul\":31423:31854   */\n      pop\n      pop\n        /* \"#utility.yul\":31408:31854   */\n    tag_888:\n        /* \"#utility.yul\":31318:31861   */\n      pop\n      pop\n      pop\n      jump\t// out\n        /* \"#utility.yul\":31867:31984   */\n    tag_604:\n        /* \"#utility.yul\":31921:31929   */\n      0x00\n        /* \"#utility.yul\":31971:31976   */\n      dup3\n        /* \"#utility.yul\":31965:31969   */\n      dup3\n        /* \"#utility.yul\":31961:31977   */\n      shr\n        /* \"#utility.yul\":31940:31977   */\n      swap1\n      pop\n        /* \"#utility.yul\":31867:31984   */\n      swap3\n      swap2\n      pop\n      pop\n      jump\t// out\n        /* \"#utility.yul\":31990:32159   */\n    tag_605:\n        /* \"#utility.yul\":32034:32040   */\n      0x00\n        /* \"#utility.yul\":32067:32118   */\n      tag_896\n        /* \"#utility.yul\":32115:32116   */\n      0x00\n        /* \"#utility.yul\":32111:32117   */\n      not\n        /* \"#utility.yul\":32103:32108   */\n      dup5\n        /* \"#utility.yul\":32100:32101   */\n      0x08\n        /* \"#utility.yul\":32096:32109   */\n      mul\n        /* \"#utility.yul\":32067:32118   */\n      tag_604\n      jump\t// in\n    tag_896:\n        /* \"#utility.yul\":32063:32119   */\n      not\n        /* \"#utility.yul\":32148:32152   */\n      dup1\n        /* \"#utility.yul\":32142:32146   */\n      dup4\n        /* \"#utility.yul\":32138:32153   */\n      and\n        /* \"#utility.yul\":32128:32153   */\n      swap2\n      pop\n        /* \"#utility.yul\":32041:32159   */\n      pop\n        /* \"#utility.yul\":31990:32159   */\n      swap3\n      swap2\n      pop\n      pop\n      jump\t// out\n        /* \"#utility.yul\":32164:32459   */\n    tag_606:\n        /* \"#utility.yul\":32240:32244   */\n      0x00\n        /* \"#utility.yul\":32386:32415   */\n      tag_898\n        /* \"#utility.yul\":32411:32414   */\n      dup4\n        /* \"#utility.yul\":32405:32409   */\n      dup4\n        /* \"#utility.yul\":32386:32415   */\n      tag_605\n      jump\t// in\n    tag_898:\n        /* \"#utility.yul\":32378:32415   */\n      swap2\n      pop\n        /* \"#utility.yul\":32448:32451   */\n      dup3\n        /* \"#utility.yul\":32445:32446   */\n      0x02\n        /* \"#utility.yul\":32441:32452   */\n      mul\n        /* \"#utility.yul\":32435:32439   */\n      dup3\n        /* \"#utility.yul\":32432:32453   */\n      or\n        /* \"#utility.yul\":32424:32453   */\n      swap1\n      pop\n        /* \"#utility.yul\":32164:32459   */\n      swap3\n      swap2\n      pop\n      pop\n      jump\t// out\n        /* \"#utility.yul\":32464:33859   */\n    tag_368:\n        /* \"#utility.yul\":32581:32618   */\n      tag_900\n        /* \"#utility.yul\":32614:32617   */\n      dup3\n        /* \"#utility.yul\":32581:32618   */\n      tag_533\n      jump\t// in\n    tag_900:\n        /* \"#utility.yul\":32683:32701   */\n      0xffffffffffffffff\n        /* \"#utility.yul\":32675:32681   */\n      dup2\n        /* \"#utility.yul\":32672:32702   */\n      gt\n        /* \"#utility.yul\":32669:32725   */\n      iszero\n      tag_901\n      jumpi\n        /* \"#utility.yul\":32705:32723   */\n      tag_902\n      tag_543\n      jump\t// in\n    tag_902:\n        /* \"#utility.yul\":32669:32725   */\n    tag_901:\n        /* \"#utility.yul\":32749:32787   */\n      tag_903\n        /* \"#utility.yul\":32781:32785   */\n      dup3\n        /* \"#utility.yul\":32775:32786   */\n      sload\n        /* \"#utility.yul\":32749:32787   */\n      tag_154\n      jump\t// in\n    tag_903:\n        /* \"#utility.yul\":32834:32901   */\n      tag_904\n        /* \"#utility.yul\":32894:32900   */\n      dup3\n        /* \"#utility.yul\":32886:32892   */\n      dup3\n        /* \"#utility.yul\":32880:32884   */\n      dup6\n        /* \"#utility.yul\":32834:32901   */\n      tag_603\n      jump\t// in\n    tag_904:\n        /* \"#utility.yul\":32928:32929   */\n      0x00\n        /* \"#utility.yul\":32952:32956   */\n      0x20\n        /* \"#utility.yul\":32939:32956   */\n      swap1\n      pop\n        /* \"#utility.yul\":32984:32986   */\n      0x1f\n        /* \"#utility.yul\":32976:32982   */\n      dup4\n        /* \"#utility.yul\":32973:32987   */\n      gt\n        /* \"#utility.yul\":33001:33002   */\n      0x01\n        /* \"#utility.yul\":32996:33614   */\n      dup2\n      eq\n      tag_906\n      jumpi\n        /* \"#utility.yul\":33658:33659   */\n      0x00\n        /* \"#utility.yul\":33675:33681   */\n      dup5\n        /* \"#utility.yul\":33672:33749   */\n      iszero\n      tag_907\n      jumpi\n        /* \"#utility.yul\":33724:33733   */\n      dup3\n        /* \"#utility.yul\":33719:33722   */\n      dup8\n        /* \"#utility.yul\":33715:33734   */\n      add\n        /* \"#utility.yul\":33709:33735   */\n      mload\n        /* \"#utility.yul\":33700:33735   */\n      swap1\n      pop\n        /* \"#utility.yul\":33672:33749   */\n    tag_907:\n        /* \"#utility.yul\":33775:33842   */\n      tag_908\n        /* \"#utility.yul\":33835:33841   */\n      dup6\n        /* \"#utility.yul\":33828:33833   */\n      dup3\n        /* \"#utility.yul\":33775:33842   */\n      tag_606\n      jump\t// in\n    tag_908:\n        /* \"#utility.yul\":33769:33773   */\n      dup7\n        /* \"#utility.yul\":33762:33843   */\n      sstore\n        /* \"#utility.yul\":33631:33853   */\n      pop\n        /* \"#utility.yul\":32966:33853   */\n      jump(tag_905)\n        /* \"#utility.yul\":32996:33614   */\n    tag_906:\n        /* \"#utility.yul\":33048:33052   */\n      0x1f\n        /* \"#utility.yul\":33044:33053   */\n      not\n        /* \"#utility.yul\":33036:33042   */\n      dup5\n        /* \"#utility.yul\":33032:33054   */\n      and\n        /* \"#utility.yul\":33082:33119   */\n      tag_909\n        /* \"#utility.yul\":33114:33118   */\n      dup7\n        /* \"#utility.yul\":33082:33119   */\n      tag_592\n      jump\t// in\n    tag_909:\n        /* \"#utility.yul\":33141:33142   */\n      0x00\n        /* \"#utility.yul\":33155:33363   */\n    tag_910:\n        /* \"#utility.yul\":33169:33176   */\n      dup3\n        /* \"#utility.yul\":33166:33167   */\n      dup2\n        /* \"#utility.yul\":33163:33177   */\n      lt\n        /* \"#utility.yul\":33155:33363   */\n      iszero\n      tag_912\n      jumpi\n        /* \"#utility.yul\":33248:33257   */\n      dup5\n        /* \"#utility.yul\":33243:33246   */\n      dup10\n        /* \"#utility.yul\":33239:33258   */\n      add\n        /* \"#utility.yul\":33233:33259   */\n      mload\n        /* \"#utility.yul\":33225:33231   */\n      dup3\n        /* \"#utility.yul\":33218:33260   */\n      sstore\n        /* \"#utility.yul\":33299:33300   */\n      0x01\n        /* \"#utility.yul\":33291:33297   */\n      dup3\n        /* \"#utility.yul\":33287:33301   */\n      add\n        /* \"#utility.yul\":33277:33301   */\n      swap2\n      pop\n        /* \"#utility.yul\":33346:33348   */\n      0x20\n        /* \"#utility.yul\":33335:33344   */\n      dup6\n        /* \"#utility.yul\":33331:33349   */\n      add\n        /* \"#utility.yul\":33318:33349   */\n      swap5\n      pop\n        /* \"#utility.yul\":33192:33196   */\n      0x20\n        /* \"#utility.yul\":33189:33190   */\n      dup2\n        /* \"#utility.yul\":33185:33197   */\n      add\n        /* \"#utility.yul\":33180:33197   */\n      swap1\n      pop\n        /* \"#utility.yul\":33155:33363   */\n      jump(tag_910)\n    tag_912:\n        /* \"#utility.yul\":33391:33397   */\n      dup7\n        /* \"#utility.yul\":33382:33389   */\n      dup4\n        /* \"#utility.yul\":33379:33398   */\n      lt\n        /* \"#utility.yul\":33376:33555   */\n      iszero\n      tag_913\n      jumpi\n        /* \"#utility.yul\":33449:33458   */\n      dup5\n        /* \"#utility.yul\":33444:33447   */\n      dup10\n        /* \"#utility.yul\":33440:33459   */\n      add\n        /* \"#utility.yul\":33434:33460   */\n      mload\n        /* \"#utility.yul\":33492:33540   */\n      tag_914\n        /* \"#utility.yul\":33534:33538   */\n      0x1f\n        /* \"#utility.yul\":33526:33532   */\n      dup10\n        /* \"#utility.yul\":33522:33539   */\n      and\n        /* \"#utility.yul\":33511:33520   */\n      dup3\n        /* \"#utility.yul\":33492:33540   */\n      tag_605\n      jump\t// in\n    tag_914:\n        /* \"#utility.yul\":33484:33490   */\n      dup4\n        /* \"#utility.yul\":33477:33541   */\n      sstore\n        /* \"#utility.yul\":33399:33555   */\n      pop\n        /* \"#utility.yul\":33376:33555   */\n    tag_913:\n        /* \"#utility.yul\":33601:33602   */\n      0x01\n        /* \"#utility.yul\":33597:33598   */\n      0x02\n        /* \"#utility.yul\":33589:33595   */\n      dup9\n        /* \"#utility.yul\":33585:33599   */\n      mul\n        /* \"#utility.yul\":33581:33603   */\n      add\n        /* \"#utility.yul\":33575:33579   */\n      dup9\n        /* \"#utility.yul\":33568:33604   */\n      sstore\n        /* \"#utility.yul\":33003:33614   */\n      pop\n      pop\n      pop\n        /* \"#utility.yul\":32966:33853   */\n    tag_905:\n      pop\n        /* \"#utility.yul\":32556:33859   */\n      pop\n      pop\n      pop\n        /* \"#utility.yul\":32464:33859   */\n      pop\n      pop\n      jump\t// out\n        /* \"#utility.yul\":33865:34039   */\n    tag_607:\n        /* \"#utility.yul\":34005:34031   */\n      0x546869732069732067696674206e6f7420666f7220796f750000000000000000\n        /* \"#utility.yul\":34001:34002   */\n      0x00\n        /* \"#utility.yul\":33993:33999   */\n      dup3\n        /* \"#utility.yul\":33989:34003   */\n      add\n        /* \"#utility.yul\":33982:34032   */\n      mstore\n        /* \"#utility.yul\":33865:34039   */\n      pop\n      jump\t// out\n        /* \"#utility.yul\":34045:34411   */\n    tag_608:\n        /* \"#utility.yul\":34187:34190   */\n      0x00\n        /* \"#utility.yul\":34208:34275   */\n      tag_917\n        /* \"#utility.yul\":34272:34274   */\n      0x18\n        /* \"#utility.yul\":34267:34270   */\n      dup4\n        /* \"#utility.yul\":34208:34275   */\n      tag_534\n      jump\t// in\n    tag_917:\n        /* \"#utility.yul\":34201:34275   */\n      swap2\n      pop\n        /* \"#utility.yul\":34284:34377   */\n      tag_918\n        /* \"#utility.yul\":34373:34376   */\n      dup3\n        /* \"#utility.yul\":34284:34377   */\n      tag_607\n      jump\t// in\n    tag_918:\n        /* \"#utility.yul\":34402:34404   */\n      0x20\n        /* \"#utility.yul\":34397:34400   */\n      dup3\n        /* \"#utility.yul\":34393:34405   */\n      add\n        /* \"#utility.yul\":34386:34405   */\n      swap1\n      pop\n        /* \"#utility.yul\":34045:34411   */\n      swap2\n      swap1\n      pop\n      jump\t// out\n        /* \"#utility.yul\":34417:34836   */\n    tag_395:\n        /* \"#utility.yul\":34583:34587   */\n      0x00\n        /* \"#utility.yul\":34621:34623   */\n      0x20\n        /* \"#utility.yul\":34610:34619   */\n      dup3\n        /* \"#utility.yul\":34606:34624   */\n      add\n        /* \"#utility.yul\":34598:34624   */\n      swap1\n      pop\n        /* \"#utility.yul\":34670:34679   */\n      dup2\n        /* \"#utility.yul\":34664:34668   */\n      dup2\n        /* \"#utility.yul\":34660:34680   */\n      sub\n        /* \"#utility.yul\":34656:34657   */\n      0x00\n        /* \"#utility.yul\":34645:34654   */\n      dup4\n        /* \"#utility.yul\":34641:34658   */\n      add\n        /* \"#utility.yul\":34634:34681   */\n      mstore\n        /* \"#utility.yul\":34698:34829   */\n      tag_920\n        /* \"#utility.yul\":34824:34828   */\n      dup2\n        /* \"#utility.yul\":34698:34829   */\n      tag_608\n      jump\t// in\n    tag_920:\n        /* \"#utility.yul\":34690:34829   */\n      swap1\n      pop\n        /* \"#utility.yul\":34417:34836   */\n      swap2\n      swap1\n      pop\n      jump\t// out\n        /* \"#utility.yul\":34842:35006   */\n    tag_609:\n        /* \"#utility.yul\":34982:34998   */\n      0x6573746174652061726573746564000000000000000000000000000000000000\n        /* \"#utility.yul\":34978:34979   */\n      0x00\n        /* \"#utility.yul\":34970:34976   */\n      dup3\n        /* \"#utility.yul\":34966:34980   */\n      add\n        /* \"#utility.yul\":34959:34999   */\n      mstore\n        /* \"#utility.yul\":34842:35006   */\n      pop\n      jump\t// out\n        /* \"#utility.yul\":35012:35378   */\n    tag_610:\n        /* \"#utility.yul\":35154:35157   */\n      0x00\n        /* \"#utility.yul\":35175:35242   */\n      tag_923\n        /* \"#utility.yul\":35239:35241   */\n      0x0e\n        /* \"#utility.yul\":35234:35237   */\n      dup4\n        /* \"#utility.yul\":35175:35242   */\n      tag_534\n      jump\t// in\n    tag_923:\n        /* \"#utility.yul\":35168:35242   */\n      swap2\n      pop\n        /* \"#utility.yul\":35251:35344   */\n      tag_924\n        /* \"#utility.yul\":35340:35343   */\n      dup3\n        /* \"#utility.yul\":35251:35344   */\n      tag_609\n      jump\t// in\n    tag_924:\n        /* \"#utility.yul\":35369:35371   */\n      0x20\n        /* \"#utility.yul\":35364:35367   */\n      dup3\n        /* \"#utility.yul\":35360:35372   */\n      add\n        /* \"#utility.yul\":35353:35372   */\n      swap1\n      pop\n        /* \"#utility.yul\":35012:35378   */\n      swap2\n      swap1\n      pop\n      jump\t// out\n        /* \"#utility.yul\":35384:35803   */\n    tag_465:\n        /* \"#utility.yul\":35550:35554   */\n      0x00\n        /* \"#utility.yul\":35588:35590   */\n      0x20\n        /* \"#utility.yul\":35577:35586   */\n      dup3\n        /* \"#utility.yul\":35573:35591   */\n      add\n        /* \"#utility.yul\":35565:35591   */\n      swap1\n      pop\n        /* \"#utility.yul\":35637:35646   */\n      dup2\n        /* \"#utility.yul\":35631:35635   */\n      dup2\n        /* \"#utility.yul\":35627:35647   */\n      sub\n        /* \"#utility.yul\":35623:35624   */\n      0x00\n        /* \"#utility.yul\":35612:35621   */\n      dup4\n        /* \"#utility.yul\":35608:35625   */\n      add\n        /* \"#utility.yul\":35601:35648   */\n      mstore\n        /* \"#utility.yul\":35665:35796   */\n      tag_926\n        /* \"#utility.yul\":35791:35795   */\n      dup2\n        /* \"#utility.yul\":35665:35796   */\n      tag_610\n      jump\t// in\n    tag_926:\n        /* \"#utility.yul\":35657:35796   */\n      swap1\n      pop\n        /* \"#utility.yul\":35384:35803   */\n      swap2\n      swap1\n      pop\n      jump\t// out\n        /* \"#utility.yul\":35809:35968   */\n    tag_611:\n        /* \"#utility.yul\":35949:35960   */\n      0x73656c662073616c650000000000000000000000000000000000000000000000\n        /* \"#utility.yul\":35945:35946   */\n      0x00\n        /* \"#utility.yul\":35937:35943   */\n      dup3\n        /* \"#utility.yul\":35933:35947   */\n      add\n        /* \"#utility.yul\":35926:35961   */\n      mstore\n        /* \"#utility.yul\":35809:35968   */\n      pop\n      jump\t// out\n        /* \"#utility.yul\":35974:36339   */\n    tag_612:\n        /* \"#utility.yul\":36116:36119   */\n      0x00\n        /* \"#utility.yul\":36137:36203   */\n      tag_929\n        /* \"#utility.yul\":36201:36202   */\n      0x09\n        /* \"#utility.yul\":36196:36199   */\n      dup4\n        /* \"#utility.yul\":36137:36203   */\n      tag_534\n      jump\t// in\n    tag_929:\n        /* \"#utility.yul\":36130:36203   */\n      swap2\n      pop\n        /* \"#utility.yul\":36212:36305   */\n      tag_930\n        /* \"#utility.yul\":36301:36304   */\n      dup3\n        /* \"#utility.yul\":36212:36305   */\n      tag_611\n      jump\t// in\n    tag_930:\n        /* \"#utility.yul\":36330:36332   */\n      0x20\n        /* \"#utility.yul\":36325:36328   */\n      dup3\n        /* \"#utility.yul\":36321:36333   */\n      add\n        /* \"#utility.yul\":36314:36333   */\n      swap1\n      pop\n        /* \"#utility.yul\":35974:36339   */\n      swap2\n      swap1\n      pop\n      jump\t// out\n        /* \"#utility.yul\":36345:36764   */\n    tag_473:\n        /* \"#utility.yul\":36511:36515   */\n      0x00\n        /* \"#utility.yul\":36549:36551   */\n      0x20\n        /* \"#utility.yul\":36538:36547   */\n      dup3\n        /* \"#utility.yul\":36534:36552   */\n      add\n        /* \"#utility.yul\":36526:36552   */\n      swap1\n      pop\n        /* \"#utility.yul\":36598:36607   */\n      dup2\n        /* \"#utility.yul\":36592:36596   */\n      dup2\n        /* \"#utility.yul\":36588:36608   */\n      sub\n        /* \"#utility.yul\":36584:36585   */\n      0x00\n        /* \"#utility.yul\":36573:36582   */\n      dup4\n        /* \"#utility.yul\":36569:36586   */\n      add\n        /* \"#utility.yul\":36562:36609   */\n      mstore\n        /* \"#utility.yul\":36626:36757   */\n      tag_932\n        /* \"#utility.yul\":36752:36756   */\n      dup2\n        /* \"#utility.yul\":36626:36757   */\n      tag_612\n      jump\t// in\n    tag_932:\n        /* \"#utility.yul\":36618:36757   */\n      swap1\n      pop\n        /* \"#utility.yul\":36345:36764   */\n      swap2\n      swap1\n      pop\n      jump\t// out\n        /* \"#utility.yul\":36770:36935   */\n    tag_613:\n        /* \"#utility.yul\":36910:36927   */\n      0x77726f6e67206574682076616c75650000000000000000000000000000000000\n        /* \"#utility.yul\":36906:36907   */\n      0x00\n        /* \"#utility.yul\":36898:36904   */\n      dup3\n        /* \"#utility.yul\":36894:36908   */\n      add\n        /* \"#utility.yul\":36887:36928   */\n      mstore\n        /* \"#utility.yul\":36770:36935   */\n      pop\n      jump\t// out\n        /* \"#utility.yul\":36941:37307   */\n    tag_614:\n        /* \"#utility.yul\":37083:37086   */\n      0x00\n        /* \"#utility.yul\":37104:37171   */\n      tag_935\n        /* \"#utility.yul\":37168:37170   */\n      0x0f\n        /* \"#utility.yul\":37163:37166   */\n      dup4\n        /* \"#utility.yul\":37104:37171   */\n      tag_534\n      jump\t// in\n    tag_935:\n        /* \"#utility.yul\":37097:37171   */\n      swap2\n      pop\n        /* \"#utility.yul\":37180:37273   */\n      tag_936\n        /* \"#utility.yul\":37269:37272   */\n      dup3\n        /* \"#utility.yul\":37180:37273   */\n      tag_613\n      jump\t// in\n    tag_936:\n        /* \"#utility.yul\":37298:37300   */\n      0x20\n        /* \"#utility.yul\":37293:37296   */\n      dup3\n        /* \"#utility.yul\":37289:37301   */\n      add\n        /* \"#utility.yul\":37282:37301   */\n      swap1\n      pop\n        /* \"#utility.yul\":36941:37307   */\n      swap2\n      swap1\n      pop\n      jump\t// out\n        /* \"#utility.yul\":37313:37732   */\n    tag_484:\n        /* \"#utility.yul\":37479:37483   */\n      0x00\n        /* \"#utility.yul\":37517:37519   */\n      0x20\n        /* \"#utility.yul\":37506:37515   */\n      dup3\n        /* \"#utility.yul\":37502:37520   */\n      add\n        /* \"#utility.yul\":37494:37520   */\n      swap1\n      pop\n        /* \"#utility.yul\":37566:37575   */\n      dup2\n        /* \"#utility.yul\":37560:37564   */\n      dup2\n        /* \"#utility.yul\":37556:37576   */\n      sub\n        /* \"#utility.yul\":37552:37553   */\n      0x00\n        /* \"#utility.yul\":37541:37550   */\n      dup4\n        /* \"#utility.yul\":37537:37554   */\n      add\n        /* \"#utility.yul\":37530:37577   */\n      mstore\n        /* \"#utility.yul\":37594:37725   */\n      tag_938\n        /* \"#utility.yul\":37720:37724   */\n      dup2\n        /* \"#utility.yul\":37594:37725   */\n      tag_614\n      jump\t// in\n    tag_938:\n        /* \"#utility.yul\":37586:37725   */\n      swap1\n      pop\n        /* \"#utility.yul\":37313:37732   */\n      swap2\n      swap1\n      pop\n      jump\t// out\n        /* \"#utility.yul\":37738:37909   */\n    tag_615:\n        /* \"#utility.yul\":37878:37901   */\n      0x796f7520616c726561647920696e207072696365730000000000000000000000\n        /* \"#utility.yul\":37874:37875   */\n      0x00\n        /* \"#utility.yul\":37866:37872   */\n      dup3\n        /* \"#utility.yul\":37862:37876   */\n      add\n        /* \"#utility.yul\":37855:37902   */\n      mstore\n        /* \"#utility.yul\":37738:37909   */\n      pop\n      jump\t// out\n        /* \"#utility.yul\":37915:38281   */\n    tag_616:\n        /* \"#utility.yul\":38057:38060   */\n      0x00\n        /* \"#utility.yul\":38078:38145   */\n      tag_941\n        /* \"#utility.yul\":38142:38144   */\n      0x15\n        /* \"#utility.yul\":38137:38140   */\n      dup4\n        /* \"#utility.yul\":38078:38145   */\n      tag_534\n      jump\t// in\n    tag_941:\n        /* \"#utility.yul\":38071:38145   */\n      swap2\n      pop\n        /* \"#utility.yul\":38154:38247   */\n      tag_942\n        /* \"#utility.yul\":38243:38246   */\n      dup3\n        /* \"#utility.yul\":38154:38247   */\n      tag_615\n      jump\t// in\n    tag_942:\n        /* \"#utility.yul\":38272:38274   */\n      0x20\n        /* \"#utility.yul\":38267:38270   */\n      dup3\n        /* \"#utility.yul\":38263:38275   */\n      add\n        /* \"#utility.yul\":38256:38275   */\n      swap1\n      pop\n        /* \"#utility.yul\":37915:38281   */\n      swap2\n      swap1\n      pop\n      jump\t// out\n        /* \"#utility.yul\":38287:38706   */\n    tag_500:\n        /* \"#utility.yul\":38453:38457   */\n      0x00\n        /* \"#utility.yul\":38491:38493   */\n      0x20\n        /* \"#utility.yul\":38480:38489   */\n      dup3\n        /* \"#utility.yul\":38476:38494   */\n      add\n        /* \"#utility.yul\":38468:38494   */\n      swap1\n      pop\n        /* \"#utility.yul\":38540:38549   */\n      dup2\n        /* \"#utility.yul\":38534:38538   */\n      dup2\n        /* \"#utility.yul\":38530:38550   */\n      sub\n        /* \"#utility.yul\":38526:38527   */\n      0x00\n        /* \"#utility.yul\":38515:38524   */\n      dup4\n        /* \"#utility.yul\":38511:38528   */\n      add\n        /* \"#utility.yul\":38504:38551   */\n      mstore\n        /* \"#utility.yul\":38568:38699   */\n      tag_944\n        /* \"#utility.yul\":38694:38698   */\n      dup2\n        /* \"#utility.yul\":38568:38699   */\n      tag_616\n      jump\t// in\n    tag_944:\n        /* \"#utility.yul\":38560:38699   */\n      swap1\n      pop\n        /* \"#utility.yul\":38287:38706   */\n      swap2\n      swap1\n      pop\n      jump\t// out\n\n    auxdata: 0xa2646970667358221220e23d1ba5e2f373e7e6cd347e200693c4710a0c9da5512f0ea9967ed80fd1adc964736f6c634300081a0033\n}\n",
				"bytecode": {
					"linkReferences": {},
					"object": "6080604052603c600455348015610014575f80fd5b50604051613ce5380380613ce5833981810160405281019061003691906100da565b8060035f6101000a81548173ffffffffffffffffffffffffffffffffffffffff021916908373ffffffffffffffffffffffffffffffffffffffff16021790555050610105565b5f80fd5b5f73ffffffffffffffffffffffffffffffffffffffff82169050919050565b5f6100a982610080565b9050919050565b6100b98161009f565b81146100c3575f80fd5b50565b5f815190506100d4816100b0565b92915050565b5f602082840312156100ef576100ee61007c565b5b5f6100fc848285016100c6565b91505092915050565b613bd3806101125f395ff3fe6080604052600436106100e7575f3560e01c80638ee69ae811610089578063d606593511610058578063d6065935146102be578063db4c049d146102ff578063e9f0ee5614610327578063f851a44014610343576100e7565b80638ee69ae8146102075780639a22ed8f1461022f578063b5f522f714610257578063d0ab383a14610296576100e7565b80634c96a062116100c55780634c96a06214610159578063572793531461019b57806358c97164146101b75780636019061b146101df576100e7565b806306238e6e146100eb5780630a483421146101135780632a50fe2c1461013d575b5f80fd5b3480156100f6575f80fd5b50610111600480360381019061010c91906129c0565b61036d565b005b34801561011e575f80fd5b506101276104af565b6040516101349190612a0d565b60405180910390f35b61015760048036038101906101529190612a26565b6104b5565b005b348015610164575f80fd5b5061017f600480360381019061017a9190612a26565b6107c8565b6040516101929796959493929190612b0f565b60405180910390f35b6101b560048036038101906101b09190612b83565b6108df565b005b3480156101c2575f80fd5b506101dd60048036038101906101d89190612beb565b610ec4565b005b3480156101ea575f80fd5b5061020560048036038101906102009190612b83565b6113b3565b005b348015610212575f80fd5b5061022d60048036038101906102289190612a26565b6117b8565b005b34801561023a575f80fd5b5061025560048036038101906102509190612d55565b611a38565b005b348015610262575f80fd5b5061027d60048036038101906102789190612a26565b611cc5565b60405161028d9493929190612dc1565b60405180910390f35b3480156102a1575f80fd5b506102bc60048036038101906102b79190612a26565b611d3e565b005b3480156102c9575f80fd5b506102e460048036038101906102df9190612a26565b612093565b6040516102f696959493929190612e77565b60405180910390f35b34801561030a575f80fd5b5061032560048036038101906103209190612a26565b612124565b005b610341600480360381019061033c9190612a26565b6123a3565b005b34801561034e575f80fd5b50610357612835565b6040516103649190612ed6565b60405180910390f35b60035f9054906101000a900473ffffffffffffffffffffffffffffffffffffffff1673ffffffffffffffffffffffffffffffffffffffff163373ffffffffffffffffffffffffffffffffffffffff16146103fc576040517f08c379a00000000000000000000000000000000000000000000000000000000081526004016103f390612f39565b60405180910390fd5b5f828154811061040f5761040e612f57565b5b905f5260205f20906005020160040160029054906101000a900460ff16151581151503610471576040517f08c379a000000000000000000000000000000000000000000000000000000000815260040161046890612fce565b60405180910390fd5b805f838154811061048557610484612f57565b5b905f5260205f20906005020160040160026101000a81548160ff0219169083151502179055505050565b60045481565b60028054905081106104fc576040517f08c379a00000000000000000000000000000000000000000000000000000000081526004016104f390613036565b60405180910390fd5b5f73ffffffffffffffffffffffffffffffffffffffff166002828154811061052757610526612f57565b5b905f5260205f2090600602016002015f9054906101000a900473ffffffffffffffffffffffffffffffffffffffff1673ffffffffffffffffffffffffffffffffffffffff16146105ac576040517f08c379a00000000000000000000000000000000000000000000000000000000081526004016105a39061309e565b60405180910390fd5b5f5b600282815481106105c2576105c1612f57565b5b905f5260205f209060060201600401805490508110156107c4573373ffffffffffffffffffffffffffffffffffffffff166002838154811061060757610606612f57565b5b905f5260205f209060060201600401828154811061062857610627612f57565b5b905f5260205f20015f9054906101000a900473ffffffffffffffffffffffffffffffffffffffff1673ffffffffffffffffffffffffffffffffffffffff16036107b7575f600283815481106106805761067f612f57565b5b905f5260205f20906006020160050182815481106106a1576106a0612f57565b5b905f5260205f20015490505f81036106ee576040517f08c379a00000000000000000000000000000000000000000000000000000000081526004016106e590613106565b60405180910390fd5b3373ffffffffffffffffffffffffffffffffffffffff166108fc6002858154811061071c5761071b612f57565b5b905f5260205f209060060201600501848154811061073d5761073c612f57565b5b905f5260205f20015490811502906040515f60405180830381858888f1935050505015801561076e573d5f803e3d5ffd5b505f6002848154811061078457610783612f57565b5b905f5260205f20906006020160050183815481106107a5576107a4612f57565b5b905f5260205f200181905550506107c4565b80806001019150506105ae565b5050565b5f81815481106107d6575f80fd5b905f5260205f2090600502015f91509050805f015490806001015f9054906101000a900473ffffffffffffffffffffffffffffffffffffffff169080600201805461082090613151565b80601f016020809104026020016040519081016040528092919081815260200182805461084c90613151565b80156108975780601f1061086e57610100808354040283529160200191610897565b820191905f5260205f20905b81548152906001019060200180831161087a57829003601f168201915b505050505090806003015490806004015f9054906101000a900460ff16908060040160019054906101000a900460ff16908060040160029054906101000a900460ff16905087565b5f600283815481106108f4576108f3612f57565b5b905f5260205f2090600602015f01549050600280549050831061094c576040517f08c379a000000000000000000000000000000000000000000000000000000000815260040161094390613036565b60405180910390fd5b5f73ffffffffffffffffffffffffffffffffffffffff166002848154811061097757610976612f57565b5b905f5260205f2090600602016002015f9054906101000a900473ffffffffffffffffffffffffffffffffffffffff1673ffffffffffffffffffffffffffffffffffffffff16146109fc576040517f08c379a00000000000000000000000000000000000000000000000000000000081526004016109f39061309e565b60405180910390fd5b3373ffffffffffffffffffffffffffffffffffffffff1660028481548110610a2757610a26612f57565b5b905f5260205f2090600602016001015f9054906101000a900473ffffffffffffffffffffffffffffffffffffffff1673ffffffffffffffffffffffffffffffffffffffff1614610aac576040517f08c379a0000000000000000000000000000000000000000000000000000000008152600401610aa3906131cb565b60405180910390fd5b5f15155f8281548110610ac257610ac1612f57565b5b905f5260205f20906005020160040160029054906101000a900460ff16151514610b21576040517f08c379a0000000000000000000000000000000000000000000000000000000008152600401610b1890613233565b60405180910390fd5b5f5b60028481548110610b3757610b36612f57565b5b905f5260205f20906006020160040180549050811015610e8457828114610c3a5760028481548110610b6c57610b6b612f57565b5b905f5260205f2090600602016004018181548110610b8d57610b8c612f57565b5b905f5260205f20015f9054906101000a900473ffffffffffffffffffffffffffffffffffffffff1673ffffffffffffffffffffffffffffffffffffffff166108fc60028681548110610be257610be1612f57565b5b905f5260205f2090600602016005018381548110610c0357610c02612f57565b5b905f5260205f20015490811502906040515f60405180830381858888f19350505050158015610c34573d5f803e3d5ffd5b50610e77565b60028481548110610c4e57610c4d612f57565b5b905f5260205f2090600602016001015f9054906101000a900473ffffffffffffffffffffffffffffffffffffffff1673ffffffffffffffffffffffffffffffffffffffff166108fc60028681548110610caa57610ca9612f57565b5b905f5260205f2090600602016005018581548110610ccb57610cca612f57565b5b905f5260205f20015490811502906040515f60405180830381858888f19350505050158015610cfc573d5f803e3d5ffd5b5060028481548110610d1157610d10612f57565b5b905f5260205f2090600602016004018381548110610d3257610d31612f57565b5b905f5260205f20015f9054906101000a900473ffffffffffffffffffffffffffffffffffffffff1660028581548110610d6e57610d6d612f57565b5b905f5260205f2090600602016002015f6101000a81548173ffffffffffffffffffffffffffffffffffffffff021916908373ffffffffffffffffffffffffffffffffffffffff16021790555060028481548110610dce57610dcd612f57565b5b905f5260205f2090600602016004018381548110610def57610dee612f57565b5b905f5260205f20015f9054906101000a900473ffffffffffffffffffffffffffffffffffffffff165f8381548110610e2a57610e29612f57565b5b905f5260205f2090600502016001015f6101000a81548173ffffffffffffffffffffffffffffffffffffffff021916908373ffffffffffffffffffffffffffffffffffffffff1602179055505b8080600101915050610b23565b505f808281548110610e9957610e98612f57565b5b905f5260205f20906005020160040160016101000a81548160ff021916908315150217905550505050565b813373ffffffffffffffffffffffffffffffffffffffff165f8281548110610eef57610eee612f57565b5b905f5260205f2090600502016001015f9054906101000a900473ffffffffffffffffffffffffffffffffffffffff1673ffffffffffffffffffffffffffffffffffffffff1614610f74576040517f08c379a0000000000000000000000000000000000000000000000000000000008152600401610f6b9061329b565b60405180910390fd5b825f15155f8281548110610f8b57610f8a612f57565b5b905f5260205f2090600502016004015f9054906101000a900460ff16151514610fe9576040517f08c379a0000000000000000000000000000000000000000000000000000000008152600401610fe090613303565b60405180910390fd5b5f15155f8281548110610fff57610ffe612f57565b5b905f5260205f20906005020160040160019054906101000a900460ff1615151461105e576040517f08c379a00000000000000000000000000000000000000000000000000000000081526004016110559061336b565b60405180910390fd5b5f15155f828154811061107457611073612f57565b5b905f5260205f20906005020160040160029054906101000a900460ff161515146110d3576040517f08c379a00000000000000000000000000000000000000000000000000000000081526004016110ca906133d3565b60405180910390fd5b5f73ffffffffffffffffffffffffffffffffffffffff168373ffffffffffffffffffffffffffffffffffffffff1603611141576040517f08c379a00000000000000000000000000000000000000000000000000000000081526004016111389061343b565b60405180910390fd5b5f805490508410611187576040517f08c379a000000000000000000000000000000000000000000000000000000000815260040161117e906134a3565b60405180910390fd5b3373ffffffffffffffffffffffffffffffffffffffff168373ffffffffffffffffffffffffffffffffffffffff16036111f5576040517f08c379a00000000000000000000000000000000000000000000000000000000081526004016111ec9061350b565b60405180910390fd5b60016040518060c0016040528060018054905081526020018681526020013373ffffffffffffffffffffffffffffffffffffffff1681526020018573ffffffffffffffffffffffffffffffffffffffff168152602001426004546112599190613556565b81526020015f600481111561127157611270612e04565b5b815250908060018154018082558091505060019003905f5260205f2090600602015f909190919091505f820151815f0155602082015181600101556040820151816002015f6101000a81548173ffffffffffffffffffffffffffffffffffffffff021916908373ffffffffffffffffffffffffffffffffffffffff1602179055506060820151816003015f6101000a81548173ffffffffffffffffffffffffffffffffffffffff021916908373ffffffffffffffffffffffffffffffffffffffff1602179055506080820151816004015560a0820151816005015f6101000a81548160ff0219169083600481111561136c5761136b612e04565b5b0217905550505060015f858154811061138857611387612f57565b5b905f5260205f2090600502016004015f6101000a81548160ff02191690831515021790555050505050565b813373ffffffffffffffffffffffffffffffffffffffff165f82815481106113de576113dd612f57565b5b905f5260205f2090600502016001015f9054906101000a900473ffffffffffffffffffffffffffffffffffffffff1673ffffffffffffffffffffffffffffffffffffffff1614611463576040517f08c379a000000000000000000000000000000000000000000000000000000000815260040161145a9061329b565b60405180910390fd5b825f15155f828154811061147a57611479612f57565b5b905f5260205f2090600502016004015f9054906101000a900460ff161515146114d8576040517f08c379a00000000000000000000000000000000000000000000000000000000081526004016114cf90613303565b60405180910390fd5b5f15155f82815481106114ee576114ed612f57565b5b905f5260205f20906005020160040160019054906101000a900460ff1615151461154d576040517f08c379a00000000000000000000000000000000000000000000000000000000081526004016115449061336b565b60405180910390fd5b5f15155f828154811061156357611562612f57565b5b905f5260205f20906005020160040160029054906101000a900460ff161515146115c2576040517f08c379a00000000000000000000000000000000000000000000000000000000081526004016115b9906133d3565b60405180910390fd5b5f805490508410611608576040517f08c379a00000000000000000000000000000000000000000000000000000000081526004016115ff906134a3565b60405180910390fd5b633b9aca008311611617575f80fd5b60608060026040518060c001604052808881526020013373ffffffffffffffffffffffffffffffffffffffff1681526020015f73ffffffffffffffffffffffffffffffffffffffff16815260200187815260200184815260200183815250908060018154018082558091505060019003905f5260205f2090600602015f909190919091505f820151815f01556020820151816001015f6101000a81548173ffffffffffffffffffffffffffffffffffffffff021916908373ffffffffffffffffffffffffffffffffffffffff1602179055506040820151816002015f6101000a81548173ffffffffffffffffffffffffffffffffffffffff021916908373ffffffffffffffffffffffffffffffffffffffff16021790555060608201518160030155608082015181600401908051906020019061175592919061285a565b5060a08201518160050190805190602001906117729291906128e1565b50505060015f878154811061178a57611789612f57565b5b905f5260205f20906005020160040160016101000a81548160ff021916908315150217905550505050505050565b60018054905081106117c8575f80fd5b5f60048111156117db576117da612e04565b5b600182815481106117ef576117ee612f57565b5b905f5260205f2090600602016005015f9054906101000a900460ff16600481111561181d5761181c612e04565b5b1461185d576040517f08c379a0000000000000000000000000000000000000000000000000000000008152600401611854906135d3565b60405180910390fd5b3373ffffffffffffffffffffffffffffffffffffffff166001828154811061188857611887612f57565b5b905f5260205f2090600602016002015f9054906101000a900473ffffffffffffffffffffffffffffffffffffffff1673ffffffffffffffffffffffffffffffffffffffff161461190d576040517f08c379a00000000000000000000000000000000000000000000000000000000081526004016119049061363b565b60405180910390fd5b5f6001828154811061192257611921612f57565b5b905f5260205f209060060201600101549050426001838154811061194957611948612f57565b5b905f5260205f2090600602016004015411156119af5760046001838154811061197557611974612f57565b5b905f5260205f2090600602016005015f6101000a81548160ff021916908360048111156119a5576119a4612e04565b5b02179055506119fb565b6003600183815481106119c5576119c4612f57565b5b905f5260205f2090600602016005015f6101000a81548160ff021916908360048111156119f5576119f4612e04565b5b02179055505b5f808281548110611a0f57611a0e612f57565b5b905f5260205f2090600502016004015f6101000a81548160ff0219169083151502179055505050565b60035f9054906101000a900473ffffffffffffffffffffffffffffffffffffffff1673ffffffffffffffffffffffffffffffffffffffff163373ffffffffffffffffffffffffffffffffffffffff1614611ac7576040517f08c379a0000000000000000000000000000000000000000000000000000000008152600401611abe90612f39565b60405180910390fd5b5f73ffffffffffffffffffffffffffffffffffffffff168373ffffffffffffffffffffffffffffffffffffffff1603611b35576040517f08c379a0000000000000000000000000000000000000000000000000000000008152600401611b2c906136a3565b60405180910390fd5b5f8111611b77576040517f08c379a0000000000000000000000000000000000000000000000000000000008152600401611b6e9061370b565b60405180910390fd5b5f6040518060e001604052805f8054905081526020018573ffffffffffffffffffffffffffffffffffffffff1681526020018481526020018381526020015f151581526020015f151581526020015f1515815250908060018154018082558091505060019003905f5260205f2090600502015f909190919091505f820151815f01556020820151816001015f6101000a81548173ffffffffffffffffffffffffffffffffffffffff021916908373ffffffffffffffffffffffffffffffffffffffff1602179055506040820151816002019081611c5491906138c6565b50606082015181600301556080820151816004015f6101000a81548160ff02191690831515021790555060a08201518160040160016101000a81548160ff02191690831515021790555060c08201518160040160026101000a81548160ff0219169083151502179055505050505050565b60028181548110611cd4575f80fd5b905f5260205f2090600602015f91509050805f015490806001015f9054906101000a900473ffffffffffffffffffffffffffffffffffffffff1690806002015f9054906101000a900473ffffffffffffffffffffffffffffffffffffffff16908060030154905084565b5f60018281548110611d5357611d52612f57565b5b905f5260205f2090600602016001015490505f15155f8281548110611d7b57611d7a612f57565b5b905f5260205f20906005020160040160029054906101000a900460ff16151514611dda576040517f08c379a0000000000000000000000000000000000000000000000000000000008152600401611dd190613233565b60405180910390fd5b6001805490508210611dea575f80fd5b5f6004811115611dfd57611dfc612e04565b5b60018381548110611e1157611e10612f57565b5b905f5260205f2090600602016005015f9054906101000a900460ff166004811115611e3f57611e3e612e04565b5b14611e7f576040517f08c379a0000000000000000000000000000000000000000000000000000000008152600401611e76906135d3565b60405180910390fd5b3373ffffffffffffffffffffffffffffffffffffffff1660018381548110611eaa57611ea9612f57565b5b905f5260205f2090600602016003015f9054906101000a900473ffffffffffffffffffffffffffffffffffffffff1673ffffffffffffffffffffffffffffffffffffffff1614611f2f576040517f08c379a0000000000000000000000000000000000000000000000000000000008152600401611f26906139df565b60405180910390fd5b4260018381548110611f4457611f43612f57565b5b905f5260205f20906006020160040154111561200a57600260018381548110611f7057611f6f612f57565b5b905f5260205f2090600602016005015f6101000a81548160ff02191690836004811115611fa057611f9f612e04565b5b0217905550335f8281548110611fb957611fb8612f57565b5b905f5260205f2090600502016001015f6101000a81548173ffffffffffffffffffffffffffffffffffffffff021916908373ffffffffffffffffffffffffffffffffffffffff160217905550612056565b6003600183815481106120205761201f612f57565b5b905f5260205f2090600602016005015f6101000a81548160ff021916908360048111156120505761204f612e04565b5b02179055505b5f80828154811061206a57612069612f57565b5b905f5260205f2090600502016004015f6101000a81548160ff0219169083151502179055505050565b600181815481106120a2575f80fd5b905f5260205f2090600602015f91509050805f015490806001015490806002015f9054906101000a900473ffffffffffffffffffffffffffffffffffffffff1690806003015f9054906101000a900473ffffffffffffffffffffffffffffffffffffffff1690806004015490806005015f9054906101000a900460ff16905086565b5f6001828154811061213957612138612f57565b5b905f5260205f209060060201600101549050600180549050821061215b575f80fd5b5f600481111561216e5761216d612e04565b5b6001838154811061218257612181612f57565b5b905f5260205f2090600602016005015f9054906101000a900460ff1660048111156121b0576121af612e04565b5b146121f0576040517f08c379a00000000000000000000000000000000000000000000000000000000081526004016121e7906135d3565b60405180910390fd5b3373ffffffffffffffffffffffffffffffffffffffff166001838154811061221b5761221a612f57565b5b905f5260205f2090600602016003015f9054906101000a900473ffffffffffffffffffffffffffffffffffffffff1673ffffffffffffffffffffffffffffffffffffffff16146122a0576040517f08c379a0000000000000000000000000000000000000000000000000000000008152600401612297906139df565b60405180910390fd5b42600183815481106122b5576122b4612f57565b5b905f5260205f20906006020160040154111561231a5760018083815481106122e0576122df612f57565b5b905f5260205f2090600602016005015f6101000a81548160ff021916908360048111156123105761230f612e04565b5b0217905550612366565b6003600183815481106123305761232f612f57565b5b905f5260205f2090600602016005015f6101000a81548160ff021916908360048111156123605761235f612e04565b5b02179055505b5f80828154811061237a57612379612f57565b5b905f5260205f2090600502016004015f6101000a81548160ff0219169083151502179055505050565b5f600282815481106123b8576123b7612f57565b5b905f5260205f2090600602015f015490505f15155f82815481106123df576123de612f57565b5b905f5260205f20906005020160040160029054906101000a900460ff1615151461243e576040517f08c379a000000000000000000000000000000000000000000000000000000000815260040161243590613a47565b60405180910390fd5b6002805490508210612485576040517f08c379a000000000000000000000000000000000000000000000000000000000815260040161247c90613036565b60405180910390fd5b3373ffffffffffffffffffffffffffffffffffffffff16600283815481106124b0576124af612f57565b5b905f5260205f2090600602016001015f9054906101000a900473ffffffffffffffffffffffffffffffffffffffff1673ffffffffffffffffffffffffffffffffffffffff1603612535576040517f08c379a000000000000000000000000000000000000000000000000000000000815260040161252c90613aaf565b60405180910390fd5b5f73ffffffffffffffffffffffffffffffffffffffff16600283815481106125605761255f612f57565b5b905f5260205f2090600602016002015f9054906101000a900473ffffffffffffffffffffffffffffffffffffffff1673ffffffffffffffffffffffffffffffffffffffff16146125e5576040517f08c379a00000000000000000000000000000000000000000000000000000000081526004016125dc9061309e565b60405180910390fd5b34600283815481106125fa576125f9612f57565b5b905f5260205f20906006020160030154111561264b576040517f08c379a000000000000000000000000000000000000000000000000000000000815260040161264290613b17565b60405180910390fd5b5f805b6002848154811061266257612661612f57565b5b905f5260205f20906006020160040180549050811015612721573373ffffffffffffffffffffffffffffffffffffffff16600285815481106126a7576126a6612f57565b5b905f5260205f20906006020160040182815481106126c8576126c7612f57565b5b905f5260205f20015f9054906101000a900473ffffffffffffffffffffffffffffffffffffffff1673ffffffffffffffffffffffffffffffffffffffff16036127145760019150612721565b808060010191505061264e565b505f151581151514612768576040517f08c379a000000000000000000000000000000000000000000000000000000000815260040161275f90613b7f565b60405180910390fd5b6002838154811061277c5761277b612f57565b5b905f5260205f20906006020160040133908060018154018082558091505060019003905f5260205f20015f9091909190916101000a81548173ffffffffffffffffffffffffffffffffffffffff021916908373ffffffffffffffffffffffffffffffffffffffff160217905550600283815481106127fd576127fc612f57565b5b905f5260205f20906006020160050134908060018154018082558091505060019003905f5260205f20015f9091909190915055505050565b60035f9054906101000a900473ffffffffffffffffffffffffffffffffffffffff1681565b828054828255905f5260205f209081019282156128d0579160200282015b828111156128cf578251825f6101000a81548173ffffffffffffffffffffffffffffffffffffffff021916908373ffffffffffffffffffffffffffffffffffffffff16021790555091602001919060010190612878565b5b5090506128dd919061292c565b5090565b828054828255905f5260205f2090810192821561291b579160200282015b8281111561291a5782518255916020019190600101906128ff565b5b509050612928919061292c565b5090565b5b80821115612943575f815f90555060010161292d565b5090565b5f604051905090565b5f80fd5b5f80fd5b5f819050919050565b61296a81612958565b8114612974575f80fd5b50565b5f8135905061298581612961565b92915050565b5f8115159050919050565b61299f8161298b565b81146129a9575f80fd5b50565b5f813590506129ba81612996565b92915050565b5f80604083850312156129d6576129d5612950565b5b5f6129e385828601612977565b92505060206129f4858286016129ac565b9150509250929050565b612a0781612958565b82525050565b5f602082019050612a205f8301846129fe565b92915050565b5f60208284031215612a3b57612a3a612950565b5b5f612a4884828501612977565b91505092915050565b5f73ffffffffffffffffffffffffffffffffffffffff82169050919050565b5f612a7a82612a51565b9050919050565b612a8a81612a70565b82525050565b5f81519050919050565b5f82825260208201905092915050565b8281835e5f83830152505050565b5f601f19601f8301169050919050565b5f612ad282612a90565b612adc8185612a9a565b9350612aec818560208601612aaa565b612af581612ab8565b840191505092915050565b612b098161298b565b82525050565b5f60e082019050612b225f83018a6129fe565b612b2f6020830189612a81565b8181036040830152612b418188612ac8565b9050612b5060608301876129fe565b612b5d6080830186612b00565b612b6a60a0830185612b00565b612b7760c0830184612b00565b98975050505050505050565b5f8060408385031215612b9957612b98612950565b5b5f612ba685828601612977565b9250506020612bb785828601612977565b9150509250929050565b612bca81612a70565b8114612bd4575f80fd5b50565b5f81359050612be581612bc1565b92915050565b5f8060408385031215612c0157612c00612950565b5b5f612c0e85828601612977565b9250506020612c1f85828601612bd7565b9150509250929050565b5f80fd5b5f80fd5b7f4e487b71000000000000000000000000000000000000000000000000000000005f52604160045260245ffd5b612c6782612ab8565b810181811067ffffffffffffffff82111715612c8657612c85612c31565b5b80604052505050565b5f612c98612947565b9050612ca48282612c5e565b919050565b5f67ffffffffffffffff821115612cc357612cc2612c31565b5b612ccc82612ab8565b9050602081019050919050565b828183375f83830152505050565b5f612cf9612cf484612ca9565b612c8f565b905082815260208101848484011115612d1557612d14612c2d565b5b612d20848285612cd9565b509392505050565b5f82601f830112612d3c57612d3b612c29565b5b8135612d4c848260208601612ce7565b91505092915050565b5f805f60608486031215612d6c57612d6b612950565b5b5f612d7986828701612bd7565b935050602084013567ffffffffffffffff811115612d9a57612d99612954565b5b612da686828701612d28565b9250506040612db786828701612977565b9150509250925092565b5f608082019050612dd45f8301876129fe565b612de16020830186612a81565b612dee6040830185612a81565b612dfb60608301846129fe565b95945050505050565b7f4e487b71000000000000000000000000000000000000000000000000000000005f52602160045260245ffd5b60058110612e4257612e41612e04565b5b50565b5f819050612e5282612e31565b919050565b5f612e6182612e45565b9050919050565b612e7181612e57565b82525050565b5f60c082019050612e8a5f8301896129fe565b612e9760208301886129fe565b612ea46040830187612a81565b612eb16060830186612a81565b612ebe60808301856129fe565b612ecb60a0830184612e68565b979650505050505050565b5f602082019050612ee95f830184612a81565b92915050565b7f596f7520617265206e6f742061646d696e0000000000000000000000000000005f82015250565b5f612f23601183612a9a565b9150612f2e82612eef565b602082019050919050565b5f6020820190508181035f830152612f5081612f17565b9050919050565b7f4e487b71000000000000000000000000000000000000000000000000000000005f52603260045260245ffd5b7f7468652073616d652061726573740000000000000000000000000000000000005f82015250565b5f612fb8600e83612a9a565b9150612fc382612f84565b602082019050919050565b5f6020820190508181035f830152612fe581612fac565b9050919050565b7f77726f6e672073616c6549442076616c756500000000000000000000000000005f82015250565b5f613020601283612a9a565b915061302b82612fec565b602082019050919050565b5f6020820190508181035f83015261304d81613014565b9050919050565b7f53616c6520697320636c6f7365640000000000000000000000000000000000005f82015250565b5f613088600e83612a9a565b915061309382613054565b602082019050919050565b5f6020820190508181035f8301526130b58161307c565b9050919050565b7f796f7520707269636520697320300000000000000000000000000000000000005f82015250565b5f6130f0600e83612a9a565b91506130fb826130bc565b602082019050919050565b5f6020820190508181035f83015261311d816130e4565b9050919050565b7f4e487b71000000000000000000000000000000000000000000000000000000005f52602260045260245ffd5b5f600282049050600182168061316857607f821691505b60208210810361317b5761317a613124565b5b50919050565b7f4e6f7420796f752073616c6500000000000000000000000000000000000000005f82015250565b5f6131b5600c83612a9a565b91506131c082613181565b602082019050919050565b5f6020820190508181035f8301526131e2816131a9565b9050919050565b7f6275696c642069732061726573746564000000000000000000000000000000005f82015250565b5f61321d601083612a9a565b9150613228826131e9565b602082019050919050565b5f6020820190508181035f83015261324a81613211565b9050919050565b7f4973206e6f7420796f7572206275696c640000000000000000000000000000005f82015250565b5f613285601183612a9a565b915061329082613251565b602082019050919050565b5f6020820190508181035f8301526132b281613279565b9050919050565b7f416c726561647920696e2070726573656e7400000000000000000000000000005f82015250565b5f6132ed601283612a9a565b91506132f8826132b9565b602082019050919050565b5f6020820190508181035f83015261331a816132e1565b9050919050565b7f416c726561647920696e2073616c6500000000000000000000000000000000005f82015250565b5f613355600f83612a9a565b915061336082613321565b602082019050919050565b5f6020820190508181035f83015261338281613349565b9050919050565b7f4275696c6420696e2061726573740000000000000000000000000000000000005f82015250565b5f6133bd600e83612a9a565b91506133c882613389565b602082019050919050565b5f6020820190508181035f8301526133ea816133b1565b9050919050565b7f77726f6e675f61646472657373000000000000000000000000000000000000005f82015250565b5f613425600d83612a9a565b9150613430826133f1565b602082019050919050565b5f6020820190508181035f83015261345281613419565b9050919050565b7f77726f6e67206275696c6449442076616c7565000000000000000000000000005f82015250565b5f61348d601383612a9a565b915061349882613459565b602082019050919050565b5f6020820190508181035f8301526134ba81613481565b9050919050565b7f73656c66206769667400000000000000000000000000000000000000000000005f82015250565b5f6134f5600983612a9a565b9150613500826134c1565b602082019050919050565b5f6020820190508181035f830152613522816134e9565b9050919050565b7f4e487b71000000000000000000000000000000000000000000000000000000005f52601160045260245ffd5b5f61356082612958565b915061356b83612958565b925082820190508082111561358357613582613529565b5b92915050565b7f416c72656164792066696e6973686564000000000000000000000000000000005f82015250565b5f6135bd601083612a9a565b91506135c882613589565b602082019050919050565b5f6020820190508181035f8301526135ea816135b1565b9050919050565b7f596f7520617265206e6f74206f776e65720000000000000000000000000000005f82015250565b5f613625601183612a9a565b9150613630826135f1565b602082019050919050565b5f6020820190508181035f83015261365281613619565b9050919050565b7f77726f6e672061646472657373000000000000000000000000000000000000005f82015250565b5f61368d600d83612a9a565b915061369882613659565b602082019050919050565b5f6020820190508181035f8301526136ba81613681565b9050919050565b7f77726f6e672073717561726500000000000000000000000000000000000000005f82015250565b5f6136f5600c83612a9a565b9150613700826136c1565b602082019050919050565b5f6020820190508181035f830152613722816136e9565b9050919050565b5f819050815f5260205f209050919050565b5f6020601f8301049050919050565b5f82821b905092915050565b5f600883026137857fffffffffffffffffffffffffffffffffffffffffffffffffffffffffffffffff8261374a565b61378f868361374a565b95508019841693508086168417925050509392505050565b5f819050919050565b5f6137ca6137c56137c084612958565b6137a7565b612958565b9050919050565b5f819050919050565b6137e3836137b0565b6137f76137ef826137d1565b848454613756565b825550505050565b5f90565b61380b6137ff565b6138168184846137da565b505050565b5b818110156138395761382e5f82613803565b60018101905061381c565b5050565b601f82111561387e5761384f81613729565b6138588461373b565b81016020851015613867578190505b61387b6138738561373b565b83018261381b565b50505b505050565b5f82821c905092915050565b5f61389e5f1984600802613883565b1980831691505092915050565b5f6138b6838361388f565b9150826002028217905092915050565b6138cf82612a90565b67ffffffffffffffff8111156138e8576138e7612c31565b5b6138f28254613151565b6138fd82828561383d565b5f60209050601f83116001811461392e575f841561391c578287015190505b61392685826138ab565b86555061398d565b601f19841661393c86613729565b5f5b828110156139635784890151825560018201915060208501945060208101905061393e565b86831015613980578489015161397c601f89168261388f565b8355505b6001600288020188555050505b505050505050565b7f546869732069732067696674206e6f7420666f7220796f7500000000000000005f82015250565b5f6139c9601883612a9a565b91506139d482613995565b602082019050919050565b5f6020820190508181035f8301526139f6816139bd565b9050919050565b7f65737461746520617265737465640000000000000000000000000000000000005f82015250565b5f613a31600e83612a9a565b9150613a3c826139fd565b602082019050919050565b5f6020820190508181035f830152613a5e81613a25565b9050919050565b7f73656c662073616c6500000000000000000000000000000000000000000000005f82015250565b5f613a99600983612a9a565b9150613aa482613a65565b602082019050919050565b5f6020820190508181035f830152613ac681613a8d565b9050919050565b7f77726f6e67206574682076616c756500000000000000000000000000000000005f82015250565b5f613b01600f83612a9a565b9150613b0c82613acd565b602082019050919050565b5f6020820190508181035f830152613b2e81613af5565b9050919050565b7f796f7520616c726561647920696e2070726963657300000000000000000000005f82015250565b5f613b69601583612a9a565b9150613b7482613b35565b602082019050919050565b5f6020820190508181035f830152613b9681613b5d565b905091905056fea2646970667358221220e23d1ba5e2f373e7e6cd347e200693c4710a0c9da5512f0ea9967ed80fd1adc964736f6c634300081a0033",
					"opcodes": "PUSH1 0x80 PUSH1 0x40 MSTORE PUSH1 0x3C PUSH1 0x4 SSTORE CALLVALUE DUP1 ISZERO PUSH2 0x14 JUMPI PUSH0 DUP1 REVERT JUMPDEST POP PUSH1 0x40 MLOAD PUSH2 0x3CE5 CODESIZE SUB DUP1 PUSH2 0x3CE5 DUP4 CODECOPY DUP2 DUP2 ADD PUSH1 0x40 MSTORE DUP2 ADD SWAP1 PUSH2 0x36 SWAP2 SWAP1 PUSH2 0xDA JUMP JUMPDEST DUP1 PUSH1 0x3 PUSH0 PUSH2 0x100 EXP DUP2 SLOAD DUP2 PUSH20 0xFFFFFFFFFFFFFFFFFFFFFFFFFFFFFFFFFFFFFFFF MUL NOT AND SWAP1 DUP4 PUSH20 0xFFFFFFFFFFFFFFFFFFFFFFFFFFFFFFFFFFFFFFFF AND MUL OR SWAP1 SSTORE POP POP PUSH2 0x105 JUMP JUMPDEST PUSH0 DUP1 REVERT JUMPDEST PUSH0 PUSH20 0xFFFFFFFFFFFFFFFFFFFFFFFFFFFFFFFFFFFFFFFF DUP3 AND SWAP1 POP SWAP2 SWAP1 POP JUMP JUMPDEST PUSH0 PUSH2 0xA9 DUP3 PUSH2 0x80 JUMP JUMPDEST SWAP1 POP SWAP2 SWAP1 POP JUMP JUMPDEST PUSH2 0xB9 DUP2 PUSH2 0x9F JUMP JUMPDEST DUP2 EQ PUSH2 0xC3 JUMPI PUSH0 DUP1 REVERT JUMPDEST POP JUMP JUMPDEST PUSH0 DUP2 MLOAD SWAP1 POP PUSH2 0xD4 DUP2 PUSH2 0xB0 JUMP JUMPDEST SWAP3 SWAP2 POP POP JUMP JUMPDEST PUSH0 PUSH1 0x20 DUP3 DUP5 SUB SLT ISZERO PUSH2 0xEF JUMPI PUSH2 0xEE PUSH2 0x7C JUMP JUMPDEST JUMPDEST PUSH0 PUSH2 0xFC DUP5 DUP3 DUP6 ADD PUSH2 0xC6 JUMP JUMPDEST SWAP2 POP POP SWAP3 SWAP2 POP POP JUMP JUMPDEST PUSH2 0x3BD3 DUP1 PUSH2 0x112 PUSH0 CODECOPY PUSH0 RETURN INVALID PUSH1 0x80 PUSH1 0x40 MSTORE PUSH1 0x4 CALLDATASIZE LT PUSH2 0xE7 JUMPI PUSH0 CALLDATALOAD PUSH1 0xE0 SHR DUP1 PUSH4 0x8EE69AE8 GT PUSH2 0x89 JUMPI DUP1 PUSH4 0xD6065935 GT PUSH2 0x58 JUMPI DUP1 PUSH4 0xD6065935 EQ PUSH2 0x2BE JUMPI DUP1 PUSH4 0xDB4C049D EQ PUSH2 0x2FF JUMPI DUP1 PUSH4 0xE9F0EE56 EQ PUSH2 0x327 JUMPI DUP1 PUSH4 0xF851A440 EQ PUSH2 0x343 JUMPI PUSH2 0xE7 JUMP JUMPDEST DUP1 PUSH4 0x8EE69AE8 EQ PUSH2 0x207 JUMPI DUP1 PUSH4 0x9A22ED8F EQ PUSH2 0x22F JUMPI DUP1 PUSH4 0xB5F522F7 EQ PUSH2 0x257 JUMPI DUP1 PUSH4 0xD0AB383A EQ PUSH2 0x296 JUMPI PUSH2 0xE7 JUMP JUMPDEST DUP1 PUSH4 0x4C96A062 GT PUSH2 0xC5 JUMPI DUP1 PUSH4 0x4C96A062 EQ PUSH2 0x159 JUMPI DUP1 PUSH4 0x57279353 EQ PUSH2 0x19B JUMPI DUP1 PUSH4 0x58C97164 EQ PUSH2 0x1B7 JUMPI DUP1 PUSH4 0x6019061B EQ PUSH2 0x1DF JUMPI PUSH2 0xE7 JUMP JUMPDEST DUP1 PUSH4 0x6238E6E EQ PUSH2 0xEB JUMPI DUP1 PUSH4 0xA483421 EQ PUSH2 0x113 JUMPI DUP1 PUSH4 0x2A50FE2C EQ PUSH2 0x13D JUMPI JUMPDEST PUSH0 DUP1 REVERT JUMPDEST CALLVALUE DUP1 ISZERO PUSH2 0xF6 JUMPI PUSH0 DUP1 REVERT JUMPDEST POP PUSH2 0x111 PUSH1 0x4 DUP1 CALLDATASIZE SUB DUP2 ADD SWAP1 PUSH2 0x10C SWAP2 SWAP1 PUSH2 0x29C0 JUMP JUMPDEST PUSH2 0x36D JUMP JUMPDEST STOP JUMPDEST CALLVALUE DUP1 ISZERO PUSH2 0x11E JUMPI PUSH0 DUP1 REVERT JUMPDEST POP PUSH2 0x127 PUSH2 0x4AF JUMP JUMPDEST PUSH1 0x40 MLOAD PUSH2 0x134 SWAP2 SWAP1 PUSH2 0x2A0D JUMP JUMPDEST PUSH1 0x40 MLOAD DUP1 SWAP2 SUB SWAP1 RETURN JUMPDEST PUSH2 0x157 PUSH1 0x4 DUP1 CALLDATASIZE SUB DUP2 ADD SWAP1 PUSH2 0x152 SWAP2 SWAP1 PUSH2 0x2A26 JUMP JUMPDEST PUSH2 0x4B5 JUMP JUMPDEST STOP JUMPDEST CALLVALUE DUP1 ISZERO PUSH2 0x164 JUMPI PUSH0 DUP1 REVERT JUMPDEST POP PUSH2 0x17F PUSH1 0x4 DUP1 CALLDATASIZE SUB DUP2 ADD SWAP1 PUSH2 0x17A SWAP2 SWAP1 PUSH2 0x2A26 JUMP JUMPDEST PUSH2 0x7C8 JUMP JUMPDEST PUSH1 0x40 MLOAD PUSH2 0x192 SWAP8 SWAP7 SWAP6 SWAP5 SWAP4 SWAP3 SWAP2 SWAP1 PUSH2 0x2B0F JUMP JUMPDEST PUSH1 0x40 MLOAD DUP1 SWAP2 SUB SWAP1 RETURN JUMPDEST PUSH2 0x1B5 PUSH1 0x4 DUP1 CALLDATASIZE SUB DUP2 ADD SWAP1 PUSH2 0x1B0 SWAP2 SWAP1 PUSH2 0x2B83 JUMP JUMPDEST PUSH2 0x8DF JUMP JUMPDEST STOP JUMPDEST CALLVALUE DUP1 ISZERO PUSH2 0x1C2 JUMPI PUSH0 DUP1 REVERT JUMPDEST POP PUSH2 0x1DD PUSH1 0x4 DUP1 CALLDATASIZE SUB DUP2 ADD SWAP1 PUSH2 0x1D8 SWAP2 SWAP1 PUSH2 0x2BEB JUMP JUMPDEST PUSH2 0xEC4 JUMP JUMPDEST STOP JUMPDEST CALLVALUE DUP1 ISZERO PUSH2 0x1EA JUMPI PUSH0 DUP1 REVERT JUMPDEST POP PUSH2 0x205 PUSH1 0x4 DUP1 CALLDATASIZE SUB DUP2 ADD SWAP1 PUSH2 0x200 SWAP2 SWAP1 PUSH2 0x2B83 JUMP JUMPDEST PUSH2 0x13B3 JUMP JUMPDEST STOP JUMPDEST CALLVALUE DUP1 ISZERO PUSH2 0x212 JUMPI PUSH0 DUP1 REVERT JUMPDEST POP PUSH2 0x22D PUSH1 0x4 DUP1 CALLDATASIZE SUB DUP2 ADD SWAP1 PUSH2 0x228 SWAP2 SWAP1 PUSH2 0x2A26 JUMP JUMPDEST PUSH2 0x17B8 JUMP JUMPDEST STOP JUMPDEST CALLVALUE DUP1 ISZERO PUSH2 0x23A JUMPI PUSH0 DUP1 REVERT JUMPDEST POP PUSH2 0x255 PUSH1 0x4 DUP1 CALLDATASIZE SUB DUP2 ADD SWAP1 PUSH2 0x250 SWAP2 SWAP1 PUSH2 0x2D55 JUMP JUMPDEST PUSH2 0x1A38 JUMP JUMPDEST STOP JUMPDEST CALLVALUE DUP1 ISZERO PUSH2 0x262 JUMPI PUSH0 DUP1 REVERT JUMPDEST POP PUSH2 0x27D PUSH1 0x4 DUP1 CALLDATASIZE SUB DUP2 ADD SWAP1 PUSH2 0x278 SWAP2 SWAP1 PUSH2 0x2A26 JUMP JUMPDEST PUSH2 0x1CC5 JUMP JUMPDEST PUSH1 0x40 MLOAD PUSH2 0x28D SWAP5 SWAP4 SWAP3 SWAP2 SWAP1 PUSH2 0x2DC1 JUMP JUMPDEST PUSH1 0x40 MLOAD DUP1 SWAP2 SUB SWAP1 RETURN JUMPDEST CALLVALUE DUP1 ISZERO PUSH2 0x2A1 JUMPI PUSH0 DUP1 REVERT JUMPDEST POP PUSH2 0x2BC PUSH1 0x4 DUP1 CALLDATASIZE SUB DUP2 ADD SWAP1 PUSH2 0x2B7 SWAP2 SWAP1 PUSH2 0x2A26 JUMP JUMPDEST PUSH2 0x1D3E JUMP JUMPDEST STOP JUMPDEST CALLVALUE DUP1 ISZERO PUSH2 0x2C9 JUMPI PUSH0 DUP1 REVERT JUMPDEST POP PUSH2 0x2E4 PUSH1 0x4 DUP1 CALLDATASIZE SUB DUP2 ADD SWAP1 PUSH2 0x2DF SWAP2 SWAP1 PUSH2 0x2A26 JUMP JUMPDEST PUSH2 0x2093 JUMP JUMPDEST PUSH1 0x40 MLOAD PUSH2 0x2F6 SWAP7 SWAP6 SWAP5 SWAP4 SWAP3 SWAP2 SWAP1 PUSH2 0x2E77 JUMP JUMPDEST PUSH1 0x40 MLOAD DUP1 SWAP2 SUB SWAP1 RETURN JUMPDEST CALLVALUE DUP1 ISZERO PUSH2 0x30A JUMPI PUSH0 DUP1 REVERT JUMPDEST POP PUSH2 0x325 PUSH1 0x4 DUP1 CALLDATASIZE SUB DUP2 ADD SWAP1 PUSH2 0x320 SWAP2 SWAP1 PUSH2 0x2A26 JUMP JUMPDEST PUSH2 0x2124 JUMP JUMPDEST STOP JUMPDEST PUSH2 0x341 PUSH1 0x4 DUP1 CALLDATASIZE SUB DUP2 ADD SWAP1 PUSH2 0x33C SWAP2 SWAP1 PUSH2 0x2A26 JUMP JUMPDEST PUSH2 0x23A3 JUMP JUMPDEST STOP JUMPDEST CALLVALUE DUP1 ISZERO PUSH2 0x34E JUMPI PUSH0 DUP1 REVERT JUMPDEST POP PUSH2 0x357 PUSH2 0x2835 JUMP JUMPDEST PUSH1 0x40 MLOAD PUSH2 0x364 SWAP2 SWAP1 PUSH2 0x2ED6 JUMP JUMPDEST PUSH1 0x40 MLOAD DUP1 SWAP2 SUB SWAP1 RETURN JUMPDEST PUSH1 0x3 PUSH0 SWAP1 SLOAD SWAP1 PUSH2 0x100 EXP SWAP1 DIV PUSH20 0xFFFFFFFFFFFFFFFFFFFFFFFFFFFFFFFFFFFFFFFF AND PUSH20 0xFFFFFFFFFFFFFFFFFFFFFFFFFFFFFFFFFFFFFFFF AND CALLER PUSH20 0xFFFFFFFFFFFFFFFFFFFFFFFFFFFFFFFFFFFFFFFF AND EQ PUSH2 0x3FC JUMPI PUSH1 0x40 MLOAD PUSH32 0x8C379A000000000000000000000000000000000000000000000000000000000 DUP2 MSTORE PUSH1 0x4 ADD PUSH2 0x3F3 SWAP1 PUSH2 0x2F39 JUMP JUMPDEST PUSH1 0x40 MLOAD DUP1 SWAP2 SUB SWAP1 REVERT JUMPDEST PUSH0 DUP3 DUP2 SLOAD DUP2 LT PUSH2 0x40F JUMPI PUSH2 0x40E PUSH2 0x2F57 JUMP JUMPDEST JUMPDEST SWAP1 PUSH0 MSTORE PUSH1 0x20 PUSH0 KECCAK256 SWAP1 PUSH1 0x5 MUL ADD PUSH1 0x4 ADD PUSH1 0x2 SWAP1 SLOAD SWAP1 PUSH2 0x100 EXP SWAP1 DIV PUSH1 0xFF AND ISZERO ISZERO DUP2 ISZERO ISZERO SUB PUSH2 0x471 JUMPI PUSH1 0x40 MLOAD PUSH32 0x8C379A000000000000000000000000000000000000000000000000000000000 DUP2 MSTORE PUSH1 0x4 ADD PUSH2 0x468 SWAP1 PUSH2 0x2FCE JUMP JUMPDEST PUSH1 0x40 MLOAD DUP1 SWAP2 SUB SWAP1 REVERT JUMPDEST DUP1 PUSH0 DUP4 DUP2 SLOAD DUP2 LT PUSH2 0x485 JUMPI PUSH2 0x484 PUSH2 0x2F57 JUMP JUMPDEST JUMPDEST SWAP1 PUSH0 MSTORE PUSH1 0x20 PUSH0 KECCAK256 SWAP1 PUSH1 0x5 MUL ADD PUSH1 0x4 ADD PUSH1 0x2 PUSH2 0x100 EXP DUP2 SLOAD DUP2 PUSH1 0xFF MUL NOT AND SWAP1 DUP4 ISZERO ISZERO MUL OR SWAP1 SSTORE POP POP POP JUMP JUMPDEST PUSH1 0x4 SLOAD DUP2 JUMP JUMPDEST PUSH1 0x2 DUP1 SLOAD SWAP1 POP DUP2 LT PUSH2 0x4FC JUMPI PUSH1 0x40 MLOAD PUSH32 0x8C379A000000000000000000000000000000000000000000000000000000000 DUP2 MSTORE PUSH1 0x4 ADD PUSH2 0x4F3 SWAP1 PUSH2 0x3036 JUMP JUMPDEST PUSH1 0x40 MLOAD DUP1 SWAP2 SUB SWAP1 REVERT JUMPDEST PUSH0 PUSH20 0xFFFFFFFFFFFFFFFFFFFFFFFFFFFFFFFFFFFFFFFF AND PUSH1 0x2 DUP3 DUP2 SLOAD DUP2 LT PUSH2 0x527 JUMPI PUSH2 0x526 PUSH2 0x2F57 JUMP JUMPDEST JUMPDEST SWAP1 PUSH0 MSTORE PUSH1 0x20 PUSH0 KECCAK256 SWAP1 PUSH1 0x6 MUL ADD PUSH1 0x2 ADD PUSH0 SWAP1 SLOAD SWAP1 PUSH2 0x100 EXP SWAP1 DIV PUSH20 0xFFFFFFFFFFFFFFFFFFFFFFFFFFFFFFFFFFFFFFFF AND PUSH20 0xFFFFFFFFFFFFFFFFFFFFFFFFFFFFFFFFFFFFFFFF AND EQ PUSH2 0x5AC JUMPI PUSH1 0x40 MLOAD PUSH32 0x8C379A000000000000000000000000000000000000000000000000000000000 DUP2 MSTORE PUSH1 0x4 ADD PUSH2 0x5A3 SWAP1 PUSH2 0x309E JUMP JUMPDEST PUSH1 0x40 MLOAD DUP1 SWAP2 SUB SWAP1 REVERT JUMPDEST PUSH0 JUMPDEST PUSH1 0x2 DUP3 DUP2 SLOAD DUP2 LT PUSH2 0x5C2 JUMPI PUSH2 0x5C1 PUSH2 0x2F57 JUMP JUMPDEST JUMPDEST SWAP1 PUSH0 MSTORE PUSH1 0x20 PUSH0 KECCAK256 SWAP1 PUSH1 0x6 MUL ADD PUSH1 0x4 ADD DUP1 SLOAD SWAP1 POP DUP2 LT ISZERO PUSH2 0x7C4 JUMPI CALLER PUSH20 0xFFFFFFFFFFFFFFFFFFFFFFFFFFFFFFFFFFFFFFFF AND PUSH1 0x2 DUP4 DUP2 SLOAD DUP2 LT PUSH2 0x607 JUMPI PUSH2 0x606 PUSH2 0x2F57 JUMP JUMPDEST JUMPDEST SWAP1 PUSH0 MSTORE PUSH1 0x20 PUSH0 KECCAK256 SWAP1 PUSH1 0x6 MUL ADD PUSH1 0x4 ADD DUP3 DUP2 SLOAD DUP2 LT PUSH2 0x628 JUMPI PUSH2 0x627 PUSH2 0x2F57 JUMP JUMPDEST JUMPDEST SWAP1 PUSH0 MSTORE PUSH1 0x20 PUSH0 KECCAK256 ADD PUSH0 SWAP1 SLOAD SWAP1 PUSH2 0x100 EXP SWAP1 DIV PUSH20 0xFFFFFFFFFFFFFFFFFFFFFFFFFFFFFFFFFFFFFFFF AND PUSH20 0xFFFFFFFFFFFFFFFFFFFFFFFFFFFFFFFFFFFFFFFF AND SUB PUSH2 0x7B7 JUMPI PUSH0 PUSH1 0x2 DUP4 DUP2 SLOAD DUP2 LT PUSH2 0x680 JUMPI PUSH2 0x67F PUSH2 0x2F57 JUMP JUMPDEST JUMPDEST SWAP1 PUSH0 MSTORE PUSH1 0x20 PUSH0 KECCAK256 SWAP1 PUSH1 0x6 MUL ADD PUSH1 0x5 ADD DUP3 DUP2 SLOAD DUP2 LT PUSH2 0x6A1 JUMPI PUSH2 0x6A0 PUSH2 0x2F57 JUMP JUMPDEST JUMPDEST SWAP1 PUSH0 MSTORE PUSH1 0x20 PUSH0 KECCAK256 ADD SLOAD SWAP1 POP PUSH0 DUP2 SUB PUSH2 0x6EE JUMPI PUSH1 0x40 MLOAD PUSH32 0x8C379A000000000000000000000000000000000000000000000000000000000 DUP2 MSTORE PUSH1 0x4 ADD PUSH2 0x6E5 SWAP1 PUSH2 0x3106 JUMP JUMPDEST PUSH1 0x40 MLOAD DUP1 SWAP2 SUB SWAP1 REVERT JUMPDEST CALLER PUSH20 0xFFFFFFFFFFFFFFFFFFFFFFFFFFFFFFFFFFFFFFFF AND PUSH2 0x8FC PUSH1 0x2 DUP6 DUP2 SLOAD DUP2 LT PUSH2 0x71C JUMPI PUSH2 0x71B PUSH2 0x2F57 JUMP JUMPDEST JUMPDEST SWAP1 PUSH0 MSTORE PUSH1 0x20 PUSH0 KECCAK256 SWAP1 PUSH1 0x6 MUL ADD PUSH1 0x5 ADD DUP5 DUP2 SLOAD DUP2 LT PUSH2 0x73D JUMPI PUSH2 0x73C PUSH2 0x2F57 JUMP JUMPDEST JUMPDEST SWAP1 PUSH0 MSTORE PUSH1 0x20 PUSH0 KECCAK256 ADD SLOAD SWAP1 DUP2 ISZERO MUL SWAP1 PUSH1 0x40 MLOAD PUSH0 PUSH1 0x40 MLOAD DUP1 DUP4 SUB DUP2 DUP6 DUP9 DUP9 CALL SWAP4 POP POP POP POP ISZERO DUP1 ISZERO PUSH2 0x76E JUMPI RETURNDATASIZE PUSH0 DUP1 RETURNDATACOPY RETURNDATASIZE PUSH0 REVERT JUMPDEST POP PUSH0 PUSH1 0x2 DUP5 DUP2 SLOAD DUP2 LT PUSH2 0x784 JUMPI PUSH2 0x783 PUSH2 0x2F57 JUMP JUMPDEST JUMPDEST SWAP1 PUSH0 MSTORE PUSH1 0x20 PUSH0 KECCAK256 SWAP1 PUSH1 0x6 MUL ADD PUSH1 0x5 ADD DUP4 DUP2 SLOAD DUP2 LT PUSH2 0x7A5 JUMPI PUSH2 0x7A4 PUSH2 0x2F57 JUMP JUMPDEST JUMPDEST SWAP1 PUSH0 MSTORE PUSH1 0x20 PUSH0 KECCAK256 ADD DUP2 SWAP1 SSTORE POP POP PUSH2 0x7C4 JUMP JUMPDEST DUP1 DUP1 PUSH1 0x1 ADD SWAP2 POP POP PUSH2 0x5AE JUMP JUMPDEST POP POP JUMP JUMPDEST PUSH0 DUP2 DUP2 SLOAD DUP2 LT PUSH2 0x7D6 JUMPI PUSH0 DUP1 REVERT JUMPDEST SWAP1 PUSH0 MSTORE PUSH1 0x20 PUSH0 KECCAK256 SWAP1 PUSH1 0x5 MUL ADD PUSH0 SWAP2 POP SWAP1 POP DUP1 PUSH0 ADD SLOAD SWAP1 DUP1 PUSH1 0x1 ADD PUSH0 SWAP1 SLOAD SWAP1 PUSH2 0x100 EXP SWAP1 DIV PUSH20 0xFFFFFFFFFFFFFFFFFFFFFFFFFFFFFFFFFFFFFFFF AND SWAP1 DUP1 PUSH1 0x2 ADD DUP1 SLOAD PUSH2 0x820 SWAP1 PUSH2 0x3151 JUMP JUMPDEST DUP1 PUSH1 0x1F ADD PUSH1 0x20 DUP1 SWAP2 DIV MUL PUSH1 0x20 ADD PUSH1 0x40 MLOAD SWAP1 DUP2 ADD PUSH1 0x40 MSTORE DUP1 SWAP3 SWAP2 SWAP1 DUP2 DUP2 MSTORE PUSH1 0x20 ADD DUP3 DUP1 SLOAD PUSH2 0x84C SWAP1 PUSH2 0x3151 JUMP JUMPDEST DUP1 ISZERO PUSH2 0x897 JUMPI DUP1 PUSH1 0x1F LT PUSH2 0x86E JUMPI PUSH2 0x100 DUP1 DUP4 SLOAD DIV MUL DUP4 MSTORE SWAP2 PUSH1 0x20 ADD SWAP2 PUSH2 0x897 JUMP JUMPDEST DUP3 ADD SWAP2 SWAP1 PUSH0 MSTORE PUSH1 0x20 PUSH0 KECCAK256 SWAP1 JUMPDEST DUP2 SLOAD DUP2 MSTORE SWAP1 PUSH1 0x1 ADD SWAP1 PUSH1 0x20 ADD DUP1 DUP4 GT PUSH2 0x87A JUMPI DUP3 SWAP1 SUB PUSH1 0x1F AND DUP3 ADD SWAP2 JUMPDEST POP POP POP POP POP SWAP1 DUP1 PUSH1 0x3 ADD SLOAD SWAP1 DUP1 PUSH1 0x4 ADD PUSH0 SWAP1 SLOAD SWAP1 PUSH2 0x100 EXP SWAP1 DIV PUSH1 0xFF AND SWAP1 DUP1 PUSH1 0x4 ADD PUSH1 0x1 SWAP1 SLOAD SWAP1 PUSH2 0x100 EXP SWAP1 DIV PUSH1 0xFF AND SWAP1 DUP1 PUSH1 0x4 ADD PUSH1 0x2 SWAP1 SLOAD SWAP1 PUSH2 0x100 EXP SWAP1 DIV PUSH1 0xFF AND SWAP1 POP DUP8 JUMP JUMPDEST PUSH0 PUSH1 0x2 DUP4 DUP2 SLOAD DUP2 LT PUSH2 0x8F4 JUMPI PUSH2 0x8F3 PUSH2 0x2F57 JUMP JUMPDEST JUMPDEST SWAP1 PUSH0 MSTORE PUSH1 0x20 PUSH0 KECCAK256 SWAP1 PUSH1 0x6 MUL ADD PUSH0 ADD SLOAD SWAP1 POP PUSH1 0x2 DUP1 SLOAD SWAP1 POP DUP4 LT PUSH2 0x94C JUMPI PUSH1 0x40 MLOAD PUSH32 0x8C379A000000000000000000000000000000000000000000000000000000000 DUP2 MSTORE PUSH1 0x4 ADD PUSH2 0x943 SWAP1 PUSH2 0x3036 JUMP JUMPDEST PUSH1 0x40 MLOAD DUP1 SWAP2 SUB SWAP1 REVERT JUMPDEST PUSH0 PUSH20 0xFFFFFFFFFFFFFFFFFFFFFFFFFFFFFFFFFFFFFFFF AND PUSH1 0x2 DUP5 DUP2 SLOAD DUP2 LT PUSH2 0x977 JUMPI PUSH2 0x976 PUSH2 0x2F57 JUMP JUMPDEST JUMPDEST SWAP1 PUSH0 MSTORE PUSH1 0x20 PUSH0 KECCAK256 SWAP1 PUSH1 0x6 MUL ADD PUSH1 0x2 ADD PUSH0 SWAP1 SLOAD SWAP1 PUSH2 0x100 EXP SWAP1 DIV PUSH20 0xFFFFFFFFFFFFFFFFFFFFFFFFFFFFFFFFFFFFFFFF AND PUSH20 0xFFFFFFFFFFFFFFFFFFFFFFFFFFFFFFFFFFFFFFFF AND EQ PUSH2 0x9FC JUMPI PUSH1 0x40 MLOAD PUSH32 0x8C379A000000000000000000000000000000000000000000000000000000000 DUP2 MSTORE PUSH1 0x4 ADD PUSH2 0x9F3 SWAP1 PUSH2 0x309E JUMP JUMPDEST PUSH1 0x40 MLOAD DUP1 SWAP2 SUB SWAP1 REVERT JUMPDEST CALLER PUSH20 0xFFFFFFFFFFFFFFFFFFFFFFFFFFFFFFFFFFFFFFFF AND PUSH1 0x2 DUP5 DUP2 SLOAD DUP2 LT PUSH2 0xA27 JUMPI PUSH2 0xA26 PUSH2 0x2F57 JUMP JUMPDEST JUMPDEST SWAP1 PUSH0 MSTORE PUSH1 0x20 PUSH0 KECCAK256 SWAP1 PUSH1 0x6 MUL ADD PUSH1 0x1 ADD PUSH0 SWAP1 SLOAD SWAP1 PUSH2 0x100 EXP SWAP1 DIV PUSH20 0xFFFFFFFFFFFFFFFFFFFFFFFFFFFFFFFFFFFFFFFF AND PUSH20 0xFFFFFFFFFFFFFFFFFFFFFFFFFFFFFFFFFFFFFFFF AND EQ PUSH2 0xAAC JUMPI PUSH1 0x40 MLOAD PUSH32 0x8C379A000000000000000000000000000000000000000000000000000000000 DUP2 MSTORE PUSH1 0x4 ADD PUSH2 0xAA3 SWAP1 PUSH2 0x31CB JUMP JUMPDEST PUSH1 0x40 MLOAD DUP1 SWAP2 SUB SWAP1 REVERT JUMPDEST PUSH0 ISZERO ISZERO PUSH0 DUP3 DUP2 SLOAD DUP2 LT PUSH2 0xAC2 JUMPI PUSH2 0xAC1 PUSH2 0x2F57 JUMP JUMPDEST JUMPDEST SWAP1 PUSH0 MSTORE PUSH1 0x20 PUSH0 KECCAK256 SWAP1 PUSH1 0x5 MUL ADD PUSH1 0x4 ADD PUSH1 0x2 SWAP1 SLOAD SWAP1 PUSH2 0x100 EXP SWAP1 DIV PUSH1 0xFF AND ISZERO ISZERO EQ PUSH2 0xB21 JUMPI PUSH1 0x40 MLOAD PUSH32 0x8C379A000000000000000000000000000000000000000000000000000000000 DUP2 MSTORE PUSH1 0x4 ADD PUSH2 0xB18 SWAP1 PUSH2 0x3233 JUMP JUMPDEST PUSH1 0x40 MLOAD DUP1 SWAP2 SUB SWAP1 REVERT JUMPDEST PUSH0 JUMPDEST PUSH1 0x2 DUP5 DUP2 SLOAD DUP2 LT PUSH2 0xB37 JUMPI PUSH2 0xB36 PUSH2 0x2F57 JUMP JUMPDEST JUMPDEST SWAP1 PUSH0 MSTORE PUSH1 0x20 PUSH0 KECCAK256 SWAP1 PUSH1 0x6 MUL ADD PUSH1 0x4 ADD DUP1 SLOAD SWAP1 POP DUP2 LT ISZERO PUSH2 0xE84 JUMPI DUP3 DUP2 EQ PUSH2 0xC3A JUMPI PUSH1 0x2 DUP5 DUP2 SLOAD DUP2 LT PUSH2 0xB6C JUMPI PUSH2 0xB6B PUSH2 0x2F57 JUMP JUMPDEST JUMPDEST SWAP1 PUSH0 MSTORE PUSH1 0x20 PUSH0 KECCAK256 SWAP1 PUSH1 0x6 MUL ADD PUSH1 0x4 ADD DUP2 DUP2 SLOAD DUP2 LT PUSH2 0xB8D JUMPI PUSH2 0xB8C PUSH2 0x2F57 JUMP JUMPDEST JUMPDEST SWAP1 PUSH0 MSTORE PUSH1 0x20 PUSH0 KECCAK256 ADD PUSH0 SWAP1 SLOAD SWAP1 PUSH2 0x100 EXP SWAP1 DIV PUSH20 0xFFFFFFFFFFFFFFFFFFFFFFFFFFFFFFFFFFFFFFFF AND PUSH20 0xFFFFFFFFFFFFFFFFFFFFFFFFFFFFFFFFFFFFFFFF AND PUSH2 0x8FC PUSH1 0x2 DUP7 DUP2 SLOAD DUP2 LT PUSH2 0xBE2 JUMPI PUSH2 0xBE1 PUSH2 0x2F57 JUMP JUMPDEST JUMPDEST SWAP1 PUSH0 MSTORE PUSH1 0x20 PUSH0 KECCAK256 SWAP1 PUSH1 0x6 MUL ADD PUSH1 0x5 ADD DUP4 DUP2 SLOAD DUP2 LT PUSH2 0xC03 JUMPI PUSH2 0xC02 PUSH2 0x2F57 JUMP JUMPDEST JUMPDEST SWAP1 PUSH0 MSTORE PUSH1 0x20 PUSH0 KECCAK256 ADD SLOAD SWAP1 DUP2 ISZERO MUL SWAP1 PUSH1 0x40 MLOAD PUSH0 PUSH1 0x40 MLOAD DUP1 DUP4 SUB DUP2 DUP6 DUP9 DUP9 CALL SWAP4 POP POP POP POP ISZERO DUP1 ISZERO PUSH2 0xC34 JUMPI RETURNDATASIZE PUSH0 DUP1 RETURNDATACOPY RETURNDATASIZE PUSH0 REVERT JUMPDEST POP PUSH2 0xE77 JUMP JUMPDEST PUSH1 0x2 DUP5 DUP2 SLOAD DUP2 LT PUSH2 0xC4E JUMPI PUSH2 0xC4D PUSH2 0x2F57 JUMP JUMPDEST JUMPDEST SWAP1 PUSH0 MSTORE PUSH1 0x20 PUSH0 KECCAK256 SWAP1 PUSH1 0x6 MUL ADD PUSH1 0x1 ADD PUSH0 SWAP1 SLOAD SWAP1 PUSH2 0x100 EXP SWAP1 DIV PUSH20 0xFFFFFFFFFFFFFFFFFFFFFFFFFFFFFFFFFFFFFFFF AND PUSH20 0xFFFFFFFFFFFFFFFFFFFFFFFFFFFFFFFFFFFFFFFF AND PUSH2 0x8FC PUSH1 0x2 DUP7 DUP2 SLOAD DUP2 LT PUSH2 0xCAA JUMPI PUSH2 0xCA9 PUSH2 0x2F57 JUMP JUMPDEST JUMPDEST SWAP1 PUSH0 MSTORE PUSH1 0x20 PUSH0 KECCAK256 SWAP1 PUSH1 0x6 MUL ADD PUSH1 0x5 ADD DUP6 DUP2 SLOAD DUP2 LT PUSH2 0xCCB JUMPI PUSH2 0xCCA PUSH2 0x2F57 JUMP JUMPDEST JUMPDEST SWAP1 PUSH0 MSTORE PUSH1 0x20 PUSH0 KECCAK256 ADD SLOAD SWAP1 DUP2 ISZERO MUL SWAP1 PUSH1 0x40 MLOAD PUSH0 PUSH1 0x40 MLOAD DUP1 DUP4 SUB DUP2 DUP6 DUP9 DUP9 CALL SWAP4 POP POP POP POP ISZERO DUP1 ISZERO PUSH2 0xCFC JUMPI RETURNDATASIZE PUSH0 DUP1 RETURNDATACOPY RETURNDATASIZE PUSH0 REVERT JUMPDEST POP PUSH1 0x2 DUP5 DUP2 SLOAD DUP2 LT PUSH2 0xD11 JUMPI PUSH2 0xD10 PUSH2 0x2F57 JUMP JUMPDEST JUMPDEST SWAP1 PUSH0 MSTORE PUSH1 0x20 PUSH0 KECCAK256 SWAP1 PUSH1 0x6 MUL ADD PUSH1 0x4 ADD DUP4 DUP2 SLOAD DUP2 LT PUSH2 0xD32 JUMPI PUSH2 0xD31 PUSH2 0x2F57 JUMP JUMPDEST JUMPDEST SWAP1 PUSH0 MSTORE PUSH1 0x20 PUSH0 KECCAK256 ADD PUSH0 SWAP1 SLOAD SWAP1 PUSH2 0x100 EXP SWAP1 DIV PUSH20 0xFFFFFFFFFFFFFFFFFFFFFFFFFFFFFFFFFFFFFFFF AND PUSH1 0x2 DUP6 DUP2 SLOAD DUP2 LT PUSH2 0xD6E JUMPI PUSH2 0xD6D PUSH2 0x2F57 JUMP JUMPDEST JUMPDEST SWAP1 PUSH0 MSTORE PUSH1 0x20 PUSH0 KECCAK256 SWAP1 PUSH1 0x6 MUL ADD PUSH1 0x2 ADD PUSH0 PUSH2 0x100 EXP DUP2 SLOAD DUP2 PUSH20 0xFFFFFFFFFFFFFFFFFFFFFFFFFFFFFFFFFFFFFFFF MUL NOT AND SWAP1 DUP4 PUSH20 0xFFFFFFFFFFFFFFFFFFFFFFFFFFFFFFFFFFFFFFFF AND MUL OR SWAP1 SSTORE POP PUSH1 0x2 DUP5 DUP2 SLOAD DUP2 LT PUSH2 0xDCE JUMPI PUSH2 0xDCD PUSH2 0x2F57 JUMP JUMPDEST JUMPDEST SWAP1 PUSH0 MSTORE PUSH1 0x20 PUSH0 KECCAK256 SWAP1 PUSH1 0x6 MUL ADD PUSH1 0x4 ADD DUP4 DUP2 SLOAD DUP2 LT PUSH2 0xDEF JUMPI PUSH2 0xDEE PUSH2 0x2F57 JUMP JUMPDEST JUMPDEST SWAP1 PUSH0 MSTORE PUSH1 0x20 PUSH0 KECCAK256 ADD PUSH0 SWAP1 SLOAD SWAP1 PUSH2 0x100 EXP SWAP1 DIV PUSH20 0xFFFFFFFFFFFFFFFFFFFFFFFFFFFFFFFFFFFFFFFF AND PUSH0 DUP4 DUP2 SLOAD DUP2 LT PUSH2 0xE2A JUMPI PUSH2 0xE29 PUSH2 0x2F57 JUMP JUMPDEST JUMPDEST SWAP1 PUSH0 MSTORE PUSH1 0x20 PUSH0 KECCAK256 SWAP1 PUSH1 0x5 MUL ADD PUSH1 0x1 ADD PUSH0 PUSH2 0x100 EXP DUP2 SLOAD DUP2 PUSH20 0xFFFFFFFFFFFFFFFFFFFFFFFFFFFFFFFFFFFFFFFF MUL NOT AND SWAP1 DUP4 PUSH20 0xFFFFFFFFFFFFFFFFFFFFFFFFFFFFFFFFFFFFFFFF AND MUL OR SWAP1 SSTORE POP JUMPDEST DUP1 DUP1 PUSH1 0x1 ADD SWAP2 POP POP PUSH2 0xB23 JUMP JUMPDEST POP PUSH0 DUP1 DUP3 DUP2 SLOAD DUP2 LT PUSH2 0xE99 JUMPI PUSH2 0xE98 PUSH2 0x2F57 JUMP JUMPDEST JUMPDEST SWAP1 PUSH0 MSTORE PUSH1 0x20 PUSH0 KECCAK256 SWAP1 PUSH1 0x5 MUL ADD PUSH1 0x4 ADD PUSH1 0x1 PUSH2 0x100 EXP DUP2 SLOAD DUP2 PUSH1 0xFF MUL NOT AND SWAP1 DUP4 ISZERO ISZERO MUL OR SWAP1 SSTORE POP POP POP POP JUMP JUMPDEST DUP2 CALLER PUSH20 0xFFFFFFFFFFFFFFFFFFFFFFFFFFFFFFFFFFFFFFFF AND PUSH0 DUP3 DUP2 SLOAD DUP2 LT PUSH2 0xEEF JUMPI PUSH2 0xEEE PUSH2 0x2F57 JUMP JUMPDEST JUMPDEST SWAP1 PUSH0 MSTORE PUSH1 0x20 PUSH0 KECCAK256 SWAP1 PUSH1 0x5 MUL ADD PUSH1 0x1 ADD PUSH0 SWAP1 SLOAD SWAP1 PUSH2 0x100 EXP SWAP1 DIV PUSH20 0xFFFFFFFFFFFFFFFFFFFFFFFFFFFFFFFFFFFFFFFF AND PUSH20 0xFFFFFFFFFFFFFFFFFFFFFFFFFFFFFFFFFFFFFFFF AND EQ PUSH2 0xF74 JUMPI PUSH1 0x40 MLOAD PUSH32 0x8C379A000000000000000000000000000000000000000000000000000000000 DUP2 MSTORE PUSH1 0x4 ADD PUSH2 0xF6B SWAP1 PUSH2 0x329B JUMP JUMPDEST PUSH1 0x40 MLOAD DUP1 SWAP2 SUB SWAP1 REVERT JUMPDEST DUP3 PUSH0 ISZERO ISZERO PUSH0 DUP3 DUP2 SLOAD DUP2 LT PUSH2 0xF8B JUMPI PUSH2 0xF8A PUSH2 0x2F57 JUMP JUMPDEST JUMPDEST SWAP1 PUSH0 MSTORE PUSH1 0x20 PUSH0 KECCAK256 SWAP1 PUSH1 0x5 MUL ADD PUSH1 0x4 ADD PUSH0 SWAP1 SLOAD SWAP1 PUSH2 0x100 EXP SWAP1 DIV PUSH1 0xFF AND ISZERO ISZERO EQ PUSH2 0xFE9 JUMPI PUSH1 0x40 MLOAD PUSH32 0x8C379A000000000000000000000000000000000000000000000000000000000 DUP2 MSTORE PUSH1 0x4 ADD PUSH2 0xFE0 SWAP1 PUSH2 0x3303 JUMP JUMPDEST PUSH1 0x40 MLOAD DUP1 SWAP2 SUB SWAP1 REVERT JUMPDEST PUSH0 ISZERO ISZERO PUSH0 DUP3 DUP2 SLOAD DUP2 LT PUSH2 0xFFF JUMPI PUSH2 0xFFE PUSH2 0x2F57 JUMP JUMPDEST JUMPDEST SWAP1 PUSH0 MSTORE PUSH1 0x20 PUSH0 KECCAK256 SWAP1 PUSH1 0x5 MUL ADD PUSH1 0x4 ADD PUSH1 0x1 SWAP1 SLOAD SWAP1 PUSH2 0x100 EXP SWAP1 DIV PUSH1 0xFF AND ISZERO ISZERO EQ PUSH2 0x105E JUMPI PUSH1 0x40 MLOAD PUSH32 0x8C379A000000000000000000000000000000000000000000000000000000000 DUP2 MSTORE PUSH1 0x4 ADD PUSH2 0x1055 SWAP1 PUSH2 0x336B JUMP JUMPDEST PUSH1 0x40 MLOAD DUP1 SWAP2 SUB SWAP1 REVERT JUMPDEST PUSH0 ISZERO ISZERO PUSH0 DUP3 DUP2 SLOAD DUP2 LT PUSH2 0x1074 JUMPI PUSH2 0x1073 PUSH2 0x2F57 JUMP JUMPDEST JUMPDEST SWAP1 PUSH0 MSTORE PUSH1 0x20 PUSH0 KECCAK256 SWAP1 PUSH1 0x5 MUL ADD PUSH1 0x4 ADD PUSH1 0x2 SWAP1 SLOAD SWAP1 PUSH2 0x100 EXP SWAP1 DIV PUSH1 0xFF AND ISZERO ISZERO EQ PUSH2 0x10D3 JUMPI PUSH1 0x40 MLOAD PUSH32 0x8C379A000000000000000000000000000000000000000000000000000000000 DUP2 MSTORE PUSH1 0x4 ADD PUSH2 0x10CA SWAP1 PUSH2 0x33D3 JUMP JUMPDEST PUSH1 0x40 MLOAD DUP1 SWAP2 SUB SWAP1 REVERT JUMPDEST PUSH0 PUSH20 0xFFFFFFFFFFFFFFFFFFFFFFFFFFFFFFFFFFFFFFFF AND DUP4 PUSH20 0xFFFFFFFFFFFFFFFFFFFFFFFFFFFFFFFFFFFFFFFF AND SUB PUSH2 0x1141 JUMPI PUSH1 0x40 MLOAD PUSH32 0x8C379A000000000000000000000000000000000000000000000000000000000 DUP2 MSTORE PUSH1 0x4 ADD PUSH2 0x1138 SWAP1 PUSH2 0x343B JUMP JUMPDEST PUSH1 0x40 MLOAD DUP1 SWAP2 SUB SWAP1 REVERT JUMPDEST PUSH0 DUP1 SLOAD SWAP1 POP DUP5 LT PUSH2 0x1187 JUMPI PUSH1 0x40 MLOAD PUSH32 0x8C379A000000000000000000000000000000000000000000000000000000000 DUP2 MSTORE PUSH1 0x4 ADD PUSH2 0x117E SWAP1 PUSH2 0x34A3 JUMP JUMPDEST PUSH1 0x40 MLOAD DUP1 SWAP2 SUB SWAP1 REVERT JUMPDEST CALLER PUSH20 0xFFFFFFFFFFFFFFFFFFFFFFFFFFFFFFFFFFFFFFFF AND DUP4 PUSH20 0xFFFFFFFFFFFFFFFFFFFFFFFFFFFFFFFFFFFFFFFF AND SUB PUSH2 0x11F5 JUMPI PUSH1 0x40 MLOAD PUSH32 0x8C379A000000000000000000000000000000000000000000000000000000000 DUP2 MSTORE PUSH1 0x4 ADD PUSH2 0x11EC SWAP1 PUSH2 0x350B JUMP JUMPDEST PUSH1 0x40 MLOAD DUP1 SWAP2 SUB SWAP1 REVERT JUMPDEST PUSH1 0x1 PUSH1 0x40 MLOAD DUP1 PUSH1 0xC0 ADD PUSH1 0x40 MSTORE DUP1 PUSH1 0x1 DUP1 SLOAD SWAP1 POP DUP2 MSTORE PUSH1 0x20 ADD DUP7 DUP2 MSTORE PUSH1 0x20 ADD CALLER PUSH20 0xFFFFFFFFFFFFFFFFFFFFFFFFFFFFFFFFFFFFFFFF AND DUP2 MSTORE PUSH1 0x20 ADD DUP6 PUSH20 0xFFFFFFFFFFFFFFFFFFFFFFFFFFFFFFFFFFFFFFFF AND DUP2 MSTORE PUSH1 0x20 ADD TIMESTAMP PUSH1 0x4 SLOAD PUSH2 0x1259 SWAP2 SWAP1 PUSH2 0x3556 JUMP JUMPDEST DUP2 MSTORE PUSH1 0x20 ADD PUSH0 PUSH1 0x4 DUP2 GT ISZERO PUSH2 0x1271 JUMPI PUSH2 0x1270 PUSH2 0x2E04 JUMP JUMPDEST JUMPDEST DUP2 MSTORE POP SWAP1 DUP1 PUSH1 0x1 DUP2 SLOAD ADD DUP1 DUP3 SSTORE DUP1 SWAP2 POP POP PUSH1 0x1 SWAP1 SUB SWAP1 PUSH0 MSTORE PUSH1 0x20 PUSH0 KECCAK256 SWAP1 PUSH1 0x6 MUL ADD PUSH0 SWAP1 SWAP2 SWAP1 SWAP2 SWAP1 SWAP2 POP PUSH0 DUP3 ADD MLOAD DUP2 PUSH0 ADD SSTORE PUSH1 0x20 DUP3 ADD MLOAD DUP2 PUSH1 0x1 ADD SSTORE PUSH1 0x40 DUP3 ADD MLOAD DUP2 PUSH1 0x2 ADD PUSH0 PUSH2 0x100 EXP DUP2 SLOAD DUP2 PUSH20 0xFFFFFFFFFFFFFFFFFFFFFFFFFFFFFFFFFFFFFFFF MUL NOT AND SWAP1 DUP4 PUSH20 0xFFFFFFFFFFFFFFFFFFFFFFFFFFFFFFFFFFFFFFFF AND MUL OR SWAP1 SSTORE POP PUSH1 0x60 DUP3 ADD MLOAD DUP2 PUSH1 0x3 ADD PUSH0 PUSH2 0x100 EXP DUP2 SLOAD DUP2 PUSH20 0xFFFFFFFFFFFFFFFFFFFFFFFFFFFFFFFFFFFFFFFF MUL NOT AND SWAP1 DUP4 PUSH20 0xFFFFFFFFFFFFFFFFFFFFFFFFFFFFFFFFFFFFFFFF AND MUL OR SWAP1 SSTORE POP PUSH1 0x80 DUP3 ADD MLOAD DUP2 PUSH1 0x4 ADD SSTORE PUSH1 0xA0 DUP3 ADD MLOAD DUP2 PUSH1 0x5 ADD PUSH0 PUSH2 0x100 EXP DUP2 SLOAD DUP2 PUSH1 0xFF MUL NOT AND SWAP1 DUP4 PUSH1 0x4 DUP2 GT ISZERO PUSH2 0x136C JUMPI PUSH2 0x136B PUSH2 0x2E04 JUMP JUMPDEST JUMPDEST MUL OR SWAP1 SSTORE POP POP POP PUSH1 0x1 PUSH0 DUP6 DUP2 SLOAD DUP2 LT PUSH2 0x1388 JUMPI PUSH2 0x1387 PUSH2 0x2F57 JUMP JUMPDEST JUMPDEST SWAP1 PUSH0 MSTORE PUSH1 0x20 PUSH0 KECCAK256 SWAP1 PUSH1 0x5 MUL ADD PUSH1 0x4 ADD PUSH0 PUSH2 0x100 EXP DUP2 SLOAD DUP2 PUSH1 0xFF MUL NOT AND SWAP1 DUP4 ISZERO ISZERO MUL OR SWAP1 SSTORE POP POP POP POP POP JUMP JUMPDEST DUP2 CALLER PUSH20 0xFFFFFFFFFFFFFFFFFFFFFFFFFFFFFFFFFFFFFFFF AND PUSH0 DUP3 DUP2 SLOAD DUP2 LT PUSH2 0x13DE JUMPI PUSH2 0x13DD PUSH2 0x2F57 JUMP JUMPDEST JUMPDEST SWAP1 PUSH0 MSTORE PUSH1 0x20 PUSH0 KECCAK256 SWAP1 PUSH1 0x5 MUL ADD PUSH1 0x1 ADD PUSH0 SWAP1 SLOAD SWAP1 PUSH2 0x100 EXP SWAP1 DIV PUSH20 0xFFFFFFFFFFFFFFFFFFFFFFFFFFFFFFFFFFFFFFFF AND PUSH20 0xFFFFFFFFFFFFFFFFFFFFFFFFFFFFFFFFFFFFFFFF AND EQ PUSH2 0x1463 JUMPI PUSH1 0x40 MLOAD PUSH32 0x8C379A000000000000000000000000000000000000000000000000000000000 DUP2 MSTORE PUSH1 0x4 ADD PUSH2 0x145A SWAP1 PUSH2 0x329B JUMP JUMPDEST PUSH1 0x40 MLOAD DUP1 SWAP2 SUB SWAP1 REVERT JUMPDEST DUP3 PUSH0 ISZERO ISZERO PUSH0 DUP3 DUP2 SLOAD DUP2 LT PUSH2 0x147A JUMPI PUSH2 0x1479 PUSH2 0x2F57 JUMP JUMPDEST JUMPDEST SWAP1 PUSH0 MSTORE PUSH1 0x20 PUSH0 KECCAK256 SWAP1 PUSH1 0x5 MUL ADD PUSH1 0x4 ADD PUSH0 SWAP1 SLOAD SWAP1 PUSH2 0x100 EXP SWAP1 DIV PUSH1 0xFF AND ISZERO ISZERO EQ PUSH2 0x14D8 JUMPI PUSH1 0x40 MLOAD PUSH32 0x8C379A000000000000000000000000000000000000000000000000000000000 DUP2 MSTORE PUSH1 0x4 ADD PUSH2 0x14CF SWAP1 PUSH2 0x3303 JUMP JUMPDEST PUSH1 0x40 MLOAD DUP1 SWAP2 SUB SWAP1 REVERT JUMPDEST PUSH0 ISZERO ISZERO PUSH0 DUP3 DUP2 SLOAD DUP2 LT PUSH2 0x14EE JUMPI PUSH2 0x14ED PUSH2 0x2F57 JUMP JUMPDEST JUMPDEST SWAP1 PUSH0 MSTORE PUSH1 0x20 PUSH0 KECCAK256 SWAP1 PUSH1 0x5 MUL ADD PUSH1 0x4 ADD PUSH1 0x1 SWAP1 SLOAD SWAP1 PUSH2 0x100 EXP SWAP1 DIV PUSH1 0xFF AND ISZERO ISZERO EQ PUSH2 0x154D JUMPI PUSH1 0x40 MLOAD PUSH32 0x8C379A000000000000000000000000000000000000000000000000000000000 DUP2 MSTORE PUSH1 0x4 ADD PUSH2 0x1544 SWAP1 PUSH2 0x336B JUMP JUMPDEST PUSH1 0x40 MLOAD DUP1 SWAP2 SUB SWAP1 REVERT JUMPDEST PUSH0 ISZERO ISZERO PUSH0 DUP3 DUP2 SLOAD DUP2 LT PUSH2 0x1563 JUMPI PUSH2 0x1562 PUSH2 0x2F57 JUMP JUMPDEST JUMPDEST SWAP1 PUSH0 MSTORE PUSH1 0x20 PUSH0 KECCAK256 SWAP1 PUSH1 0x5 MUL ADD PUSH1 0x4 ADD PUSH1 0x2 SWAP1 SLOAD SWAP1 PUSH2 0x100 EXP SWAP1 DIV PUSH1 0xFF AND ISZERO ISZERO EQ PUSH2 0x15C2 JUMPI PUSH1 0x40 MLOAD PUSH32 0x8C379A000000000000000000000000000000000000000000000000000000000 DUP2 MSTORE PUSH1 0x4 ADD PUSH2 0x15B9 SWAP1 PUSH2 0x33D3 JUMP JUMPDEST PUSH1 0x40 MLOAD DUP1 SWAP2 SUB SWAP1 REVERT JUMPDEST PUSH0 DUP1 SLOAD SWAP1 POP DUP5 LT PUSH2 0x1608 JUMPI PUSH1 0x40 MLOAD PUSH32 0x8C379A000000000000000000000000000000000000000000000000000000000 DUP2 MSTORE PUSH1 0x4 ADD PUSH2 0x15FF SWAP1 PUSH2 0x34A3 JUMP JUMPDEST PUSH1 0x40 MLOAD DUP1 SWAP2 SUB SWAP1 REVERT JUMPDEST PUSH4 0x3B9ACA00 DUP4 GT PUSH2 0x1617 JUMPI PUSH0 DUP1 REVERT JUMPDEST PUSH1 0x60 DUP1 PUSH1 0x2 PUSH1 0x40 MLOAD DUP1 PUSH1 0xC0 ADD PUSH1 0x40 MSTORE DUP1 DUP9 DUP2 MSTORE PUSH1 0x20 ADD CALLER PUSH20 0xFFFFFFFFFFFFFFFFFFFFFFFFFFFFFFFFFFFFFFFF AND DUP2 MSTORE PUSH1 0x20 ADD PUSH0 PUSH20 0xFFFFFFFFFFFFFFFFFFFFFFFFFFFFFFFFFFFFFFFF AND DUP2 MSTORE PUSH1 0x20 ADD DUP8 DUP2 MSTORE PUSH1 0x20 ADD DUP5 DUP2 MSTORE PUSH1 0x20 ADD DUP4 DUP2 MSTORE POP SWAP1 DUP1 PUSH1 0x1 DUP2 SLOAD ADD DUP1 DUP3 SSTORE DUP1 SWAP2 POP POP PUSH1 0x1 SWAP1 SUB SWAP1 PUSH0 MSTORE PUSH1 0x20 PUSH0 KECCAK256 SWAP1 PUSH1 0x6 MUL ADD PUSH0 SWAP1 SWAP2 SWAP1 SWAP2 SWAP1 SWAP2 POP PUSH0 DUP3 ADD MLOAD DUP2 PUSH0 ADD SSTORE PUSH1 0x20 DUP3 ADD MLOAD DUP2 PUSH1 0x1 ADD PUSH0 PUSH2 0x100 EXP DUP2 SLOAD DUP2 PUSH20 0xFFFFFFFFFFFFFFFFFFFFFFFFFFFFFFFFFFFFFFFF MUL NOT AND SWAP1 DUP4 PUSH20 0xFFFFFFFFFFFFFFFFFFFFFFFFFFFFFFFFFFFFFFFF AND MUL OR SWAP1 SSTORE POP PUSH1 0x40 DUP3 ADD MLOAD DUP2 PUSH1 0x2 ADD PUSH0 PUSH2 0x100 EXP DUP2 SLOAD DUP2 PUSH20 0xFFFFFFFFFFFFFFFFFFFFFFFFFFFFFFFFFFFFFFFF MUL NOT AND SWAP1 DUP4 PUSH20 0xFFFFFFFFFFFFFFFFFFFFFFFFFFFFFFFFFFFFFFFF AND MUL OR SWAP1 SSTORE POP PUSH1 0x60 DUP3 ADD MLOAD DUP2 PUSH1 0x3 ADD SSTORE PUSH1 0x80 DUP3 ADD MLOAD DUP2 PUSH1 0x4 ADD SWAP1 DUP1 MLOAD SWAP1 PUSH1 0x20 ADD SWAP1 PUSH2 0x1755 SWAP3 SWAP2 SWAP1 PUSH2 0x285A JUMP JUMPDEST POP PUSH1 0xA0 DUP3 ADD MLOAD DUP2 PUSH1 0x5 ADD SWAP1 DUP1 MLOAD SWAP1 PUSH1 0x20 ADD SWAP1 PUSH2 0x1772 SWAP3 SWAP2 SWAP1 PUSH2 0x28E1 JUMP JUMPDEST POP POP POP PUSH1 0x1 PUSH0 DUP8 DUP2 SLOAD DUP2 LT PUSH2 0x178A JUMPI PUSH2 0x1789 PUSH2 0x2F57 JUMP JUMPDEST JUMPDEST SWAP1 PUSH0 MSTORE PUSH1 0x20 PUSH0 KECCAK256 SWAP1 PUSH1 0x5 MUL ADD PUSH1 0x4 ADD PUSH1 0x1 PUSH2 0x100 EXP DUP2 SLOAD DUP2 PUSH1 0xFF MUL NOT AND SWAP1 DUP4 ISZERO ISZERO MUL OR SWAP1 SSTORE POP POP POP POP POP POP POP JUMP JUMPDEST PUSH1 0x1 DUP1 SLOAD SWAP1 POP DUP2 LT PUSH2 0x17C8 JUMPI PUSH0 DUP1 REVERT JUMPDEST PUSH0 PUSH1 0x4 DUP2 GT ISZERO PUSH2 0x17DB JUMPI PUSH2 0x17DA PUSH2 0x2E04 JUMP JUMPDEST JUMPDEST PUSH1 0x1 DUP3 DUP2 SLOAD DUP2 LT PUSH2 0x17EF JUMPI PUSH2 0x17EE PUSH2 0x2F57 JUMP JUMPDEST JUMPDEST SWAP1 PUSH0 MSTORE PUSH1 0x20 PUSH0 KECCAK256 SWAP1 PUSH1 0x6 MUL ADD PUSH1 0x5 ADD PUSH0 SWAP1 SLOAD SWAP1 PUSH2 0x100 EXP SWAP1 DIV PUSH1 0xFF AND PUSH1 0x4 DUP2 GT ISZERO PUSH2 0x181D JUMPI PUSH2 0x181C PUSH2 0x2E04 JUMP JUMPDEST JUMPDEST EQ PUSH2 0x185D JUMPI PUSH1 0x40 MLOAD PUSH32 0x8C379A000000000000000000000000000000000000000000000000000000000 DUP2 MSTORE PUSH1 0x4 ADD PUSH2 0x1854 SWAP1 PUSH2 0x35D3 JUMP JUMPDEST PUSH1 0x40 MLOAD DUP1 SWAP2 SUB SWAP1 REVERT JUMPDEST CALLER PUSH20 0xFFFFFFFFFFFFFFFFFFFFFFFFFFFFFFFFFFFFFFFF AND PUSH1 0x1 DUP3 DUP2 SLOAD DUP2 LT PUSH2 0x1888 JUMPI PUSH2 0x1887 PUSH2 0x2F57 JUMP JUMPDEST JUMPDEST SWAP1 PUSH0 MSTORE PUSH1 0x20 PUSH0 KECCAK256 SWAP1 PUSH1 0x6 MUL ADD PUSH1 0x2 ADD PUSH0 SWAP1 SLOAD SWAP1 PUSH2 0x100 EXP SWAP1 DIV PUSH20 0xFFFFFFFFFFFFFFFFFFFFFFFFFFFFFFFFFFFFFFFF AND PUSH20 0xFFFFFFFFFFFFFFFFFFFFFFFFFFFFFFFFFFFFFFFF AND EQ PUSH2 0x190D JUMPI PUSH1 0x40 MLOAD PUSH32 0x8C379A000000000000000000000000000000000000000000000000000000000 DUP2 MSTORE PUSH1 0x4 ADD PUSH2 0x1904 SWAP1 PUSH2 0x363B JUMP JUMPDEST PUSH1 0x40 MLOAD DUP1 SWAP2 SUB SWAP1 REVERT JUMPDEST PUSH0 PUSH1 0x1 DUP3 DUP2 SLOAD DUP2 LT PUSH2 0x1922 JUMPI PUSH2 0x1921 PUSH2 0x2F57 JUMP JUMPDEST JUMPDEST SWAP1 PUSH0 MSTORE PUSH1 0x20 PUSH0 KECCAK256 SWAP1 PUSH1 0x6 MUL ADD PUSH1 0x1 ADD SLOAD SWAP1 POP TIMESTAMP PUSH1 0x1 DUP4 DUP2 SLOAD DUP2 LT PUSH2 0x1949 JUMPI PUSH2 0x1948 PUSH2 0x2F57 JUMP JUMPDEST JUMPDEST SWAP1 PUSH0 MSTORE PUSH1 0x20 PUSH0 KECCAK256 SWAP1 PUSH1 0x6 MUL ADD PUSH1 0x4 ADD SLOAD GT ISZERO PUSH2 0x19AF JUMPI PUSH1 0x4 PUSH1 0x1 DUP4 DUP2 SLOAD DUP2 LT PUSH2 0x1975 JUMPI PUSH2 0x1974 PUSH2 0x2F57 JUMP JUMPDEST JUMPDEST SWAP1 PUSH0 MSTORE PUSH1 0x20 PUSH0 KECCAK256 SWAP1 PUSH1 0x6 MUL ADD PUSH1 0x5 ADD PUSH0 PUSH2 0x100 EXP DUP2 SLOAD DUP2 PUSH1 0xFF MUL NOT AND SWAP1 DUP4 PUSH1 0x4 DUP2 GT ISZERO PUSH2 0x19A5 JUMPI PUSH2 0x19A4 PUSH2 0x2E04 JUMP JUMPDEST JUMPDEST MUL OR SWAP1 SSTORE POP PUSH2 0x19FB JUMP JUMPDEST PUSH1 0x3 PUSH1 0x1 DUP4 DUP2 SLOAD DUP2 LT PUSH2 0x19C5 JUMPI PUSH2 0x19C4 PUSH2 0x2F57 JUMP JUMPDEST JUMPDEST SWAP1 PUSH0 MSTORE PUSH1 0x20 PUSH0 KECCAK256 SWAP1 PUSH1 0x6 MUL ADD PUSH1 0x5 ADD PUSH0 PUSH2 0x100 EXP DUP2 SLOAD DUP2 PUSH1 0xFF MUL NOT AND SWAP1 DUP4 PUSH1 0x4 DUP2 GT ISZERO PUSH2 0x19F5 JUMPI PUSH2 0x19F4 PUSH2 0x2E04 JUMP JUMPDEST JUMPDEST MUL OR SWAP1 SSTORE POP JUMPDEST PUSH0 DUP1 DUP3 DUP2 SLOAD DUP2 LT PUSH2 0x1A0F JUMPI PUSH2 0x1A0E PUSH2 0x2F57 JUMP JUMPDEST JUMPDEST SWAP1 PUSH0 MSTORE PUSH1 0x20 PUSH0 KECCAK256 SWAP1 PUSH1 0x5 MUL ADD PUSH1 0x4 ADD PUSH0 PUSH2 0x100 EXP DUP2 SLOAD DUP2 PUSH1 0xFF MUL NOT AND SWAP1 DUP4 ISZERO ISZERO MUL OR SWAP1 SSTORE POP POP POP JUMP JUMPDEST PUSH1 0x3 PUSH0 SWAP1 SLOAD SWAP1 PUSH2 0x100 EXP SWAP1 DIV PUSH20 0xFFFFFFFFFFFFFFFFFFFFFFFFFFFFFFFFFFFFFFFF AND PUSH20 0xFFFFFFFFFFFFFFFFFFFFFFFFFFFFFFFFFFFFFFFF AND CALLER PUSH20 0xFFFFFFFFFFFFFFFFFFFFFFFFFFFFFFFFFFFFFFFF AND EQ PUSH2 0x1AC7 JUMPI PUSH1 0x40 MLOAD PUSH32 0x8C379A000000000000000000000000000000000000000000000000000000000 DUP2 MSTORE PUSH1 0x4 ADD PUSH2 0x1ABE SWAP1 PUSH2 0x2F39 JUMP JUMPDEST PUSH1 0x40 MLOAD DUP1 SWAP2 SUB SWAP1 REVERT JUMPDEST PUSH0 PUSH20 0xFFFFFFFFFFFFFFFFFFFFFFFFFFFFFFFFFFFFFFFF AND DUP4 PUSH20 0xFFFFFFFFFFFFFFFFFFFFFFFFFFFFFFFFFFFFFFFF AND SUB PUSH2 0x1B35 JUMPI PUSH1 0x40 MLOAD PUSH32 0x8C379A000000000000000000000000000000000000000000000000000000000 DUP2 MSTORE PUSH1 0x4 ADD PUSH2 0x1B2C SWAP1 PUSH2 0x36A3 JUMP JUMPDEST PUSH1 0x40 MLOAD DUP1 SWAP2 SUB SWAP1 REVERT JUMPDEST PUSH0 DUP2 GT PUSH2 0x1B77 JUMPI PUSH1 0x40 MLOAD PUSH32 0x8C379A000000000000000000000000000000000000000000000000000000000 DUP2 MSTORE PUSH1 0x4 ADD PUSH2 0x1B6E SWAP1 PUSH2 0x370B JUMP JUMPDEST PUSH1 0x40 MLOAD DUP1 SWAP2 SUB SWAP1 REVERT JUMPDEST PUSH0 PUSH1 0x40 MLOAD DUP1 PUSH1 0xE0 ADD PUSH1 0x40 MSTORE DUP1 PUSH0 DUP1 SLOAD SWAP1 POP DUP2 MSTORE PUSH1 0x20 ADD DUP6 PUSH20 0xFFFFFFFFFFFFFFFFFFFFFFFFFFFFFFFFFFFFFFFF AND DUP2 MSTORE PUSH1 0x20 ADD DUP5 DUP2 MSTORE PUSH1 0x20 ADD DUP4 DUP2 MSTORE PUSH1 0x20 ADD PUSH0 ISZERO ISZERO DUP2 MSTORE PUSH1 0x20 ADD PUSH0 ISZERO ISZERO DUP2 MSTORE PUSH1 0x20 ADD PUSH0 ISZERO ISZERO DUP2 MSTORE POP SWAP1 DUP1 PUSH1 0x1 DUP2 SLOAD ADD DUP1 DUP3 SSTORE DUP1 SWAP2 POP POP PUSH1 0x1 SWAP1 SUB SWAP1 PUSH0 MSTORE PUSH1 0x20 PUSH0 KECCAK256 SWAP1 PUSH1 0x5 MUL ADD PUSH0 SWAP1 SWAP2 SWAP1 SWAP2 SWAP1 SWAP2 POP PUSH0 DUP3 ADD MLOAD DUP2 PUSH0 ADD SSTORE PUSH1 0x20 DUP3 ADD MLOAD DUP2 PUSH1 0x1 ADD PUSH0 PUSH2 0x100 EXP DUP2 SLOAD DUP2 PUSH20 0xFFFFFFFFFFFFFFFFFFFFFFFFFFFFFFFFFFFFFFFF MUL NOT AND SWAP1 DUP4 PUSH20 0xFFFFFFFFFFFFFFFFFFFFFFFFFFFFFFFFFFFFFFFF AND MUL OR SWAP1 SSTORE POP PUSH1 0x40 DUP3 ADD MLOAD DUP2 PUSH1 0x2 ADD SWAP1 DUP2 PUSH2 0x1C54 SWAP2 SWAP1 PUSH2 0x38C6 JUMP JUMPDEST POP PUSH1 0x60 DUP3 ADD MLOAD DUP2 PUSH1 0x3 ADD SSTORE PUSH1 0x80 DUP3 ADD MLOAD DUP2 PUSH1 0x4 ADD PUSH0 PUSH2 0x100 EXP DUP2 SLOAD DUP2 PUSH1 0xFF MUL NOT AND SWAP1 DUP4 ISZERO ISZERO MUL OR SWAP1 SSTORE POP PUSH1 0xA0 DUP3 ADD MLOAD DUP2 PUSH1 0x4 ADD PUSH1 0x1 PUSH2 0x100 EXP DUP2 SLOAD DUP2 PUSH1 0xFF MUL NOT AND SWAP1 DUP4 ISZERO ISZERO MUL OR SWAP1 SSTORE POP PUSH1 0xC0 DUP3 ADD MLOAD DUP2 PUSH1 0x4 ADD PUSH1 0x2 PUSH2 0x100 EXP DUP2 SLOAD DUP2 PUSH1 0xFF MUL NOT AND SWAP1 DUP4 ISZERO ISZERO MUL OR SWAP1 SSTORE POP POP POP POP POP POP JUMP JUMPDEST PUSH1 0x2 DUP2 DUP2 SLOAD DUP2 LT PUSH2 0x1CD4 JUMPI PUSH0 DUP1 REVERT JUMPDEST SWAP1 PUSH0 MSTORE PUSH1 0x20 PUSH0 KECCAK256 SWAP1 PUSH1 0x6 MUL ADD PUSH0 SWAP2 POP SWAP1 POP DUP1 PUSH0 ADD SLOAD SWAP1 DUP1 PUSH1 0x1 ADD PUSH0 SWAP1 SLOAD SWAP1 PUSH2 0x100 EXP SWAP1 DIV PUSH20 0xFFFFFFFFFFFFFFFFFFFFFFFFFFFFFFFFFFFFFFFF AND SWAP1 DUP1 PUSH1 0x2 ADD PUSH0 SWAP1 SLOAD SWAP1 PUSH2 0x100 EXP SWAP1 DIV PUSH20 0xFFFFFFFFFFFFFFFFFFFFFFFFFFFFFFFFFFFFFFFF AND SWAP1 DUP1 PUSH1 0x3 ADD SLOAD SWAP1 POP DUP5 JUMP JUMPDEST PUSH0 PUSH1 0x1 DUP3 DUP2 SLOAD DUP2 LT PUSH2 0x1D53 JUMPI PUSH2 0x1D52 PUSH2 0x2F57 JUMP JUMPDEST JUMPDEST SWAP1 PUSH0 MSTORE PUSH1 0x20 PUSH0 KECCAK256 SWAP1 PUSH1 0x6 MUL ADD PUSH1 0x1 ADD SLOAD SWAP1 POP PUSH0 ISZERO ISZERO PUSH0 DUP3 DUP2 SLOAD DUP2 LT PUSH2 0x1D7B JUMPI PUSH2 0x1D7A PUSH2 0x2F57 JUMP JUMPDEST JUMPDEST SWAP1 PUSH0 MSTORE PUSH1 0x20 PUSH0 KECCAK256 SWAP1 PUSH1 0x5 MUL ADD PUSH1 0x4 ADD PUSH1 0x2 SWAP1 SLOAD SWAP1 PUSH2 0x100 EXP SWAP1 DIV PUSH1 0xFF AND ISZERO ISZERO EQ PUSH2 0x1DDA JUMPI PUSH1 0x40 MLOAD PUSH32 0x8C379A000000000000000000000000000000000000000000000000000000000 DUP2 MSTORE PUSH1 0x4 ADD PUSH2 0x1DD1 SWAP1 PUSH2 0x3233 JUMP JUMPDEST PUSH1 0x40 MLOAD DUP1 SWAP2 SUB SWAP1 REVERT JUMPDEST PUSH1 0x1 DUP1 SLOAD SWAP1 POP DUP3 LT PUSH2 0x1DEA JUMPI PUSH0 DUP1 REVERT JUMPDEST PUSH0 PUSH1 0x4 DUP2 GT ISZERO PUSH2 0x1DFD JUMPI PUSH2 0x1DFC PUSH2 0x2E04 JUMP JUMPDEST JUMPDEST PUSH1 0x1 DUP4 DUP2 SLOAD DUP2 LT PUSH2 0x1E11 JUMPI PUSH2 0x1E10 PUSH2 0x2F57 JUMP JUMPDEST JUMPDEST SWAP1 PUSH0 MSTORE PUSH1 0x20 PUSH0 KECCAK256 SWAP1 PUSH1 0x6 MUL ADD PUSH1 0x5 ADD PUSH0 SWAP1 SLOAD SWAP1 PUSH2 0x100 EXP SWAP1 DIV PUSH1 0xFF AND PUSH1 0x4 DUP2 GT ISZERO PUSH2 0x1E3F JUMPI PUSH2 0x1E3E PUSH2 0x2E04 JUMP JUMPDEST JUMPDEST EQ PUSH2 0x1E7F JUMPI PUSH1 0x40 MLOAD PUSH32 0x8C379A000000000000000000000000000000000000000000000000000000000 DUP2 MSTORE PUSH1 0x4 ADD PUSH2 0x1E76 SWAP1 PUSH2 0x35D3 JUMP JUMPDEST PUSH1 0x40 MLOAD DUP1 SWAP2 SUB SWAP1 REVERT JUMPDEST CALLER PUSH20 0xFFFFFFFFFFFFFFFFFFFFFFFFFFFFFFFFFFFFFFFF AND PUSH1 0x1 DUP4 DUP2 SLOAD DUP2 LT PUSH2 0x1EAA JUMPI PUSH2 0x1EA9 PUSH2 0x2F57 JUMP JUMPDEST JUMPDEST SWAP1 PUSH0 MSTORE PUSH1 0x20 PUSH0 KECCAK256 SWAP1 PUSH1 0x6 MUL ADD PUSH1 0x3 ADD PUSH0 SWAP1 SLOAD SWAP1 PUSH2 0x100 EXP SWAP1 DIV PUSH20 0xFFFFFFFFFFFFFFFFFFFFFFFFFFFFFFFFFFFFFFFF AND PUSH20 0xFFFFFFFFFFFFFFFFFFFFFFFFFFFFFFFFFFFFFFFF AND EQ PUSH2 0x1F2F JUMPI PUSH1 0x40 MLOAD PUSH32 0x8C379A000000000000000000000000000000000000000000000000000000000 DUP2 MSTORE PUSH1 0x4 ADD PUSH2 0x1F26 SWAP1 PUSH2 0x39DF JUMP JUMPDEST PUSH1 0x40 MLOAD DUP1 SWAP2 SUB SWAP1 REVERT JUMPDEST TIMESTAMP PUSH1 0x1 DUP4 DUP2 SLOAD DUP2 LT PUSH2 0x1F44 JUMPI PUSH2 0x1F43 PUSH2 0x2F57 JUMP JUMPDEST JUMPDEST SWAP1 PUSH0 MSTORE PUSH1 0x20 PUSH0 KECCAK256 SWAP1 PUSH1 0x6 MUL ADD PUSH1 0x4 ADD SLOAD GT ISZERO PUSH2 0x200A JUMPI PUSH1 0x2 PUSH1 0x1 DUP4 DUP2 SLOAD DUP2 LT PUSH2 0x1F70 JUMPI PUSH2 0x1F6F PUSH2 0x2F57 JUMP JUMPDEST JUMPDEST SWAP1 PUSH0 MSTORE PUSH1 0x20 PUSH0 KECCAK256 SWAP1 PUSH1 0x6 MUL ADD PUSH1 0x5 ADD PUSH0 PUSH2 0x100 EXP DUP2 SLOAD DUP2 PUSH1 0xFF MUL NOT AND SWAP1 DUP4 PUSH1 0x4 DUP2 GT ISZERO PUSH2 0x1FA0 JUMPI PUSH2 0x1F9F PUSH2 0x2E04 JUMP JUMPDEST JUMPDEST MUL OR SWAP1 SSTORE POP CALLER PUSH0 DUP3 DUP2 SLOAD DUP2 LT PUSH2 0x1FB9 JUMPI PUSH2 0x1FB8 PUSH2 0x2F57 JUMP JUMPDEST JUMPDEST SWAP1 PUSH0 MSTORE PUSH1 0x20 PUSH0 KECCAK256 SWAP1 PUSH1 0x5 MUL ADD PUSH1 0x1 ADD PUSH0 PUSH2 0x100 EXP DUP2 SLOAD DUP2 PUSH20 0xFFFFFFFFFFFFFFFFFFFFFFFFFFFFFFFFFFFFFFFF MUL NOT AND SWAP1 DUP4 PUSH20 0xFFFFFFFFFFFFFFFFFFFFFFFFFFFFFFFFFFFFFFFF AND MUL OR SWAP1 SSTORE POP PUSH2 0x2056 JUMP JUMPDEST PUSH1 0x3 PUSH1 0x1 DUP4 DUP2 SLOAD DUP2 LT PUSH2 0x2020 JUMPI PUSH2 0x201F PUSH2 0x2F57 JUMP JUMPDEST JUMPDEST SWAP1 PUSH0 MSTORE PUSH1 0x20 PUSH0 KECCAK256 SWAP1 PUSH1 0x6 MUL ADD PUSH1 0x5 ADD PUSH0 PUSH2 0x100 EXP DUP2 SLOAD DUP2 PUSH1 0xFF MUL NOT AND SWAP1 DUP4 PUSH1 0x4 DUP2 GT ISZERO PUSH2 0x2050 JUMPI PUSH2 0x204F PUSH2 0x2E04 JUMP JUMPDEST JUMPDEST MUL OR SWAP1 SSTORE POP JUMPDEST PUSH0 DUP1 DUP3 DUP2 SLOAD DUP2 LT PUSH2 0x206A JUMPI PUSH2 0x2069 PUSH2 0x2F57 JUMP JUMPDEST JUMPDEST SWAP1 PUSH0 MSTORE PUSH1 0x20 PUSH0 KECCAK256 SWAP1 PUSH1 0x5 MUL ADD PUSH1 0x4 ADD PUSH0 PUSH2 0x100 EXP DUP2 SLOAD DUP2 PUSH1 0xFF MUL NOT AND SWAP1 DUP4 ISZERO ISZERO MUL OR SWAP1 SSTORE POP POP POP JUMP JUMPDEST PUSH1 0x1 DUP2 DUP2 SLOAD DUP2 LT PUSH2 0x20A2 JUMPI PUSH0 DUP1 REVERT JUMPDEST SWAP1 PUSH0 MSTORE PUSH1 0x20 PUSH0 KECCAK256 SWAP1 PUSH1 0x6 MUL ADD PUSH0 SWAP2 POP SWAP1 POP DUP1 PUSH0 ADD SLOAD SWAP1 DUP1 PUSH1 0x1 ADD SLOAD SWAP1 DUP1 PUSH1 0x2 ADD PUSH0 SWAP1 SLOAD SWAP1 PUSH2 0x100 EXP SWAP1 DIV PUSH20 0xFFFFFFFFFFFFFFFFFFFFFFFFFFFFFFFFFFFFFFFF AND SWAP1 DUP1 PUSH1 0x3 ADD PUSH0 SWAP1 SLOAD SWAP1 PUSH2 0x100 EXP SWAP1 DIV PUSH20 0xFFFFFFFFFFFFFFFFFFFFFFFFFFFFFFFFFFFFFFFF AND SWAP1 DUP1 PUSH1 0x4 ADD SLOAD SWAP1 DUP1 PUSH1 0x5 ADD PUSH0 SWAP1 SLOAD SWAP1 PUSH2 0x100 EXP SWAP1 DIV PUSH1 0xFF AND SWAP1 POP DUP7 JUMP JUMPDEST PUSH0 PUSH1 0x1 DUP3 DUP2 SLOAD DUP2 LT PUSH2 0x2139 JUMPI PUSH2 0x2138 PUSH2 0x2F57 JUMP JUMPDEST JUMPDEST SWAP1 PUSH0 MSTORE PUSH1 0x20 PUSH0 KECCAK256 SWAP1 PUSH1 0x6 MUL ADD PUSH1 0x1 ADD SLOAD SWAP1 POP PUSH1 0x1 DUP1 SLOAD SWAP1 POP DUP3 LT PUSH2 0x215B JUMPI PUSH0 DUP1 REVERT JUMPDEST PUSH0 PUSH1 0x4 DUP2 GT ISZERO PUSH2 0x216E JUMPI PUSH2 0x216D PUSH2 0x2E04 JUMP JUMPDEST JUMPDEST PUSH1 0x1 DUP4 DUP2 SLOAD DUP2 LT PUSH2 0x2182 JUMPI PUSH2 0x2181 PUSH2 0x2F57 JUMP JUMPDEST JUMPDEST SWAP1 PUSH0 MSTORE PUSH1 0x20 PUSH0 KECCAK256 SWAP1 PUSH1 0x6 MUL ADD PUSH1 0x5 ADD PUSH0 SWAP1 SLOAD SWAP1 PUSH2 0x100 EXP SWAP1 DIV PUSH1 0xFF AND PUSH1 0x4 DUP2 GT ISZERO PUSH2 0x21B0 JUMPI PUSH2 0x21AF PUSH2 0x2E04 JUMP JUMPDEST JUMPDEST EQ PUSH2 0x21F0 JUMPI PUSH1 0x40 MLOAD PUSH32 0x8C379A000000000000000000000000000000000000000000000000000000000 DUP2 MSTORE PUSH1 0x4 ADD PUSH2 0x21E7 SWAP1 PUSH2 0x35D3 JUMP JUMPDEST PUSH1 0x40 MLOAD DUP1 SWAP2 SUB SWAP1 REVERT JUMPDEST CALLER PUSH20 0xFFFFFFFFFFFFFFFFFFFFFFFFFFFFFFFFFFFFFFFF AND PUSH1 0x1 DUP4 DUP2 SLOAD DUP2 LT PUSH2 0x221B JUMPI PUSH2 0x221A PUSH2 0x2F57 JUMP JUMPDEST JUMPDEST SWAP1 PUSH0 MSTORE PUSH1 0x20 PUSH0 KECCAK256 SWAP1 PUSH1 0x6 MUL ADD PUSH1 0x3 ADD PUSH0 SWAP1 SLOAD SWAP1 PUSH2 0x100 EXP SWAP1 DIV PUSH20 0xFFFFFFFFFFFFFFFFFFFFFFFFFFFFFFFFFFFFFFFF AND PUSH20 0xFFFFFFFFFFFFFFFFFFFFFFFFFFFFFFFFFFFFFFFF AND EQ PUSH2 0x22A0 JUMPI PUSH1 0x40 MLOAD PUSH32 0x8C379A000000000000000000000000000000000000000000000000000000000 DUP2 MSTORE PUSH1 0x4 ADD PUSH2 0x2297 SWAP1 PUSH2 0x39DF JUMP JUMPDEST PUSH1 0x40 MLOAD DUP1 SWAP2 SUB SWAP1 REVERT JUMPDEST TIMESTAMP PUSH1 0x1 DUP4 DUP2 SLOAD DUP2 LT PUSH2 0x22B5 JUMPI PUSH2 0x22B4 PUSH2 0x2F57 JUMP JUMPDEST JUMPDEST SWAP1 PUSH0 MSTORE PUSH1 0x20 PUSH0 KECCAK256 SWAP1 PUSH1 0x6 MUL ADD PUSH1 0x4 ADD SLOAD GT ISZERO PUSH2 0x231A JUMPI PUSH1 0x1 DUP1 DUP4 DUP2 SLOAD DUP2 LT PUSH2 0x22E0 JUMPI PUSH2 0x22DF PUSH2 0x2F57 JUMP JUMPDEST JUMPDEST SWAP1 PUSH0 MSTORE PUSH1 0x20 PUSH0 KECCAK256 SWAP1 PUSH1 0x6 MUL ADD PUSH1 0x5 ADD PUSH0 PUSH2 0x100 EXP DUP2 SLOAD DUP2 PUSH1 0xFF MUL NOT AND SWAP1 DUP4 PUSH1 0x4 DUP2 GT ISZERO PUSH2 0x2310 JUMPI PUSH2 0x230F PUSH2 0x2E04 JUMP JUMPDEST JUMPDEST MUL OR SWAP1 SSTORE POP PUSH2 0x2366 JUMP JUMPDEST PUSH1 0x3 PUSH1 0x1 DUP4 DUP2 SLOAD DUP2 LT PUSH2 0x2330 JUMPI PUSH2 0x232F PUSH2 0x2F57 JUMP JUMPDEST JUMPDEST SWAP1 PUSH0 MSTORE PUSH1 0x20 PUSH0 KECCAK256 SWAP1 PUSH1 0x6 MUL ADD PUSH1 0x5 ADD PUSH0 PUSH2 0x100 EXP DUP2 SLOAD DUP2 PUSH1 0xFF MUL NOT AND SWAP1 DUP4 PUSH1 0x4 DUP2 GT ISZERO PUSH2 0x2360 JUMPI PUSH2 0x235F PUSH2 0x2E04 JUMP JUMPDEST JUMPDEST MUL OR SWAP1 SSTORE POP JUMPDEST PUSH0 DUP1 DUP3 DUP2 SLOAD DUP2 LT PUSH2 0x237A JUMPI PUSH2 0x2379 PUSH2 0x2F57 JUMP JUMPDEST JUMPDEST SWAP1 PUSH0 MSTORE PUSH1 0x20 PUSH0 KECCAK256 SWAP1 PUSH1 0x5 MUL ADD PUSH1 0x4 ADD PUSH0 PUSH2 0x100 EXP DUP2 SLOAD DUP2 PUSH1 0xFF MUL NOT AND SWAP1 DUP4 ISZERO ISZERO MUL OR SWAP1 SSTORE POP POP POP JUMP JUMPDEST PUSH0 PUSH1 0x2 DUP3 DUP2 SLOAD DUP2 LT PUSH2 0x23B8 JUMPI PUSH2 0x23B7 PUSH2 0x2F57 JUMP JUMPDEST JUMPDEST SWAP1 PUSH0 MSTORE PUSH1 0x20 PUSH0 KECCAK256 SWAP1 PUSH1 0x6 MUL ADD PUSH0 ADD SLOAD SWAP1 POP PUSH0 ISZERO ISZERO PUSH0 DUP3 DUP2 SLOAD DUP2 LT PUSH2 0x23DF JUMPI PUSH2 0x23DE PUSH2 0x2F57 JUMP JUMPDEST JUMPDEST SWAP1 PUSH0 MSTORE PUSH1 0x20 PUSH0 KECCAK256 SWAP1 PUSH1 0x5 MUL ADD PUSH1 0x4 ADD PUSH1 0x2 SWAP1 SLOAD SWAP1 PUSH2 0x100 EXP SWAP1 DIV PUSH1 0xFF AND ISZERO ISZERO EQ PUSH2 0x243E JUMPI PUSH1 0x40 MLOAD PUSH32 0x8C379A000000000000000000000000000000000000000000000000000000000 DUP2 MSTORE PUSH1 0x4 ADD PUSH2 0x2435 SWAP1 PUSH2 0x3A47 JUMP JUMPDEST PUSH1 0x40 MLOAD DUP1 SWAP2 SUB SWAP1 REVERT JUMPDEST PUSH1 0x2 DUP1 SLOAD SWAP1 POP DUP3 LT PUSH2 0x2485 JUMPI PUSH1 0x40 MLOAD PUSH32 0x8C379A000000000000000000000000000000000000000000000000000000000 DUP2 MSTORE PUSH1 0x4 ADD PUSH2 0x247C SWAP1 PUSH2 0x3036 JUMP JUMPDEST PUSH1 0x40 MLOAD DUP1 SWAP2 SUB SWAP1 REVERT JUMPDEST CALLER PUSH20 0xFFFFFFFFFFFFFFFFFFFFFFFFFFFFFFFFFFFFFFFF AND PUSH1 0x2 DUP4 DUP2 SLOAD DUP2 LT PUSH2 0x24B0 JUMPI PUSH2 0x24AF PUSH2 0x2F57 JUMP JUMPDEST JUMPDEST SWAP1 PUSH0 MSTORE PUSH1 0x20 PUSH0 KECCAK256 SWAP1 PUSH1 0x6 MUL ADD PUSH1 0x1 ADD PUSH0 SWAP1 SLOAD SWAP1 PUSH2 0x100 EXP SWAP1 DIV PUSH20 0xFFFFFFFFFFFFFFFFFFFFFFFFFFFFFFFFFFFFFFFF AND PUSH20 0xFFFFFFFFFFFFFFFFFFFFFFFFFFFFFFFFFFFFFFFF AND SUB PUSH2 0x2535 JUMPI PUSH1 0x40 MLOAD PUSH32 0x8C379A000000000000000000000000000000000000000000000000000000000 DUP2 MSTORE PUSH1 0x4 ADD PUSH2 0x252C SWAP1 PUSH2 0x3AAF JUMP JUMPDEST PUSH1 0x40 MLOAD DUP1 SWAP2 SUB SWAP1 REVERT JUMPDEST PUSH0 PUSH20 0xFFFFFFFFFFFFFFFFFFFFFFFFFFFFFFFFFFFFFFFF AND PUSH1 0x2 DUP4 DUP2 SLOAD DUP2 LT PUSH2 0x2560 JUMPI PUSH2 0x255F PUSH2 0x2F57 JUMP JUMPDEST JUMPDEST SWAP1 PUSH0 MSTORE PUSH1 0x20 PUSH0 KECCAK256 SWAP1 PUSH1 0x6 MUL ADD PUSH1 0x2 ADD PUSH0 SWAP1 SLOAD SWAP1 PUSH2 0x100 EXP SWAP1 DIV PUSH20 0xFFFFFFFFFFFFFFFFFFFFFFFFFFFFFFFFFFFFFFFF AND PUSH20 0xFFFFFFFFFFFFFFFFFFFFFFFFFFFFFFFFFFFFFFFF AND EQ PUSH2 0x25E5 JUMPI PUSH1 0x40 MLOAD PUSH32 0x8C379A000000000000000000000000000000000000000000000000000000000 DUP2 MSTORE PUSH1 0x4 ADD PUSH2 0x25DC SWAP1 PUSH2 0x309E JUMP JUMPDEST PUSH1 0x40 MLOAD DUP1 SWAP2 SUB SWAP1 REVERT JUMPDEST CALLVALUE PUSH1 0x2 DUP4 DUP2 SLOAD DUP2 LT PUSH2 0x25FA JUMPI PUSH2 0x25F9 PUSH2 0x2F57 JUMP JUMPDEST JUMPDEST SWAP1 PUSH0 MSTORE PUSH1 0x20 PUSH0 KECCAK256 SWAP1 PUSH1 0x6 MUL ADD PUSH1 0x3 ADD SLOAD GT ISZERO PUSH2 0x264B JUMPI PUSH1 0x40 MLOAD PUSH32 0x8C379A000000000000000000000000000000000000000000000000000000000 DUP2 MSTORE PUSH1 0x4 ADD PUSH2 0x2642 SWAP1 PUSH2 0x3B17 JUMP JUMPDEST PUSH1 0x40 MLOAD DUP1 SWAP2 SUB SWAP1 REVERT JUMPDEST PUSH0 DUP1 JUMPDEST PUSH1 0x2 DUP5 DUP2 SLOAD DUP2 LT PUSH2 0x2662 JUMPI PUSH2 0x2661 PUSH2 0x2F57 JUMP JUMPDEST JUMPDEST SWAP1 PUSH0 MSTORE PUSH1 0x20 PUSH0 KECCAK256 SWAP1 PUSH1 0x6 MUL ADD PUSH1 0x4 ADD DUP1 SLOAD SWAP1 POP DUP2 LT ISZERO PUSH2 0x2721 JUMPI CALLER PUSH20 0xFFFFFFFFFFFFFFFFFFFFFFFFFFFFFFFFFFFFFFFF AND PUSH1 0x2 DUP6 DUP2 SLOAD DUP2 LT PUSH2 0x26A7 JUMPI PUSH2 0x26A6 PUSH2 0x2F57 JUMP JUMPDEST JUMPDEST SWAP1 PUSH0 MSTORE PUSH1 0x20 PUSH0 KECCAK256 SWAP1 PUSH1 0x6 MUL ADD PUSH1 0x4 ADD DUP3 DUP2 SLOAD DUP2 LT PUSH2 0x26C8 JUMPI PUSH2 0x26C7 PUSH2 0x2F57 JUMP JUMPDEST JUMPDEST SWAP1 PUSH0 MSTORE PUSH1 0x20 PUSH0 KECCAK256 ADD PUSH0 SWAP1 SLOAD SWAP1 PUSH2 0x100 EXP SWAP1 DIV PUSH20 0xFFFFFFFFFFFFFFFFFFFFFFFFFFFFFFFFFFFFFFFF AND PUSH20 0xFFFFFFFFFFFFFFFFFFFFFFFFFFFFFFFFFFFFFFFF AND SUB PUSH2 0x2714 JUMPI PUSH1 0x1 SWAP2 POP PUSH2 0x2721 JUMP JUMPDEST DUP1 DUP1 PUSH1 0x1 ADD SWAP2 POP POP PUSH2 0x264E JUMP JUMPDEST POP PUSH0 ISZERO ISZERO DUP2 ISZERO ISZERO EQ PUSH2 0x2768 JUMPI PUSH1 0x40 MLOAD PUSH32 0x8C379A000000000000000000000000000000000000000000000000000000000 DUP2 MSTORE PUSH1 0x4 ADD PUSH2 0x275F SWAP1 PUSH2 0x3B7F JUMP JUMPDEST PUSH1 0x40 MLOAD DUP1 SWAP2 SUB SWAP1 REVERT JUMPDEST PUSH1 0x2 DUP4 DUP2 SLOAD DUP2 LT PUSH2 0x277C JUMPI PUSH2 0x277B PUSH2 0x2F57 JUMP JUMPDEST JUMPDEST SWAP1 PUSH0 MSTORE PUSH1 0x20 PUSH0 KECCAK256 SWAP1 PUSH1 0x6 MUL ADD PUSH1 0x4 ADD CALLER SWAP1 DUP1 PUSH1 0x1 DUP2 SLOAD ADD DUP1 DUP3 SSTORE DUP1 SWAP2 POP POP PUSH1 0x1 SWAP1 SUB SWAP1 PUSH0 MSTORE PUSH1 0x20 PUSH0 KECCAK256 ADD PUSH0 SWAP1 SWAP2 SWAP1 SWAP2 SWAP1 SWAP2 PUSH2 0x100 EXP DUP2 SLOAD DUP2 PUSH20 0xFFFFFFFFFFFFFFFFFFFFFFFFFFFFFFFFFFFFFFFF MUL NOT AND SWAP1 DUP4 PUSH20 0xFFFFFFFFFFFFFFFFFFFFFFFFFFFFFFFFFFFFFFFF AND MUL OR SWAP1 SSTORE POP PUSH1 0x2 DUP4 DUP2 SLOAD DUP2 LT PUSH2 0x27FD JUMPI PUSH2 0x27FC PUSH2 0x2F57 JUMP JUMPDEST JUMPDEST SWAP1 PUSH0 MSTORE PUSH1 0x20 PUSH0 KECCAK256 SWAP1 PUSH1 0x6 MUL ADD PUSH1 0x5 ADD CALLVALUE SWAP1 DUP1 PUSH1 0x1 DUP2 SLOAD ADD DUP1 DUP3 SSTORE DUP1 SWAP2 POP POP PUSH1 0x1 SWAP1 SUB SWAP1 PUSH0 MSTORE PUSH1 0x20 PUSH0 KECCAK256 ADD PUSH0 SWAP1 SWAP2 SWAP1 SWAP2 SWAP1 SWAP2 POP SSTORE POP POP POP JUMP JUMPDEST PUSH1 0x3 PUSH0 SWAP1 SLOAD SWAP1 PUSH2 0x100 EXP SWAP1 DIV PUSH20 0xFFFFFFFFFFFFFFFFFFFFFFFFFFFFFFFFFFFFFFFF AND DUP2 JUMP JUMPDEST DUP3 DUP1 SLOAD DUP3 DUP3 SSTORE SWAP1 PUSH0 MSTORE PUSH1 0x20 PUSH0 KECCAK256 SWAP1 DUP2 ADD SWAP3 DUP3 ISZERO PUSH2 0x28D0 JUMPI SWAP2 PUSH1 0x20 MUL DUP3 ADD JUMPDEST DUP3 DUP2 GT ISZERO PUSH2 0x28CF JUMPI DUP3 MLOAD DUP3 PUSH0 PUSH2 0x100 EXP DUP2 SLOAD DUP2 PUSH20 0xFFFFFFFFFFFFFFFFFFFFFFFFFFFFFFFFFFFFFFFF MUL NOT AND SWAP1 DUP4 PUSH20 0xFFFFFFFFFFFFFFFFFFFFFFFFFFFFFFFFFFFFFFFF AND MUL OR SWAP1 SSTORE POP SWAP2 PUSH1 0x20 ADD SWAP2 SWAP1 PUSH1 0x1 ADD SWAP1 PUSH2 0x2878 JUMP JUMPDEST JUMPDEST POP SWAP1 POP PUSH2 0x28DD SWAP2 SWAP1 PUSH2 0x292C JUMP JUMPDEST POP SWAP1 JUMP JUMPDEST DUP3 DUP1 SLOAD DUP3 DUP3 SSTORE SWAP1 PUSH0 MSTORE PUSH1 0x20 PUSH0 KECCAK256 SWAP1 DUP2 ADD SWAP3 DUP3 ISZERO PUSH2 0x291B JUMPI SWAP2 PUSH1 0x20 MUL DUP3 ADD JUMPDEST DUP3 DUP2 GT ISZERO PUSH2 0x291A JUMPI DUP3 MLOAD DUP3 SSTORE SWAP2 PUSH1 0x20 ADD SWAP2 SWAP1 PUSH1 0x1 ADD SWAP1 PUSH2 0x28FF JUMP JUMPDEST JUMPDEST POP SWAP1 POP PUSH2 0x2928 SWAP2 SWAP1 PUSH2 0x292C JUMP JUMPDEST POP SWAP1 JUMP JUMPDEST JUMPDEST DUP1 DUP3 GT ISZERO PUSH2 0x2943 JUMPI PUSH0 DUP2 PUSH0 SWAP1 SSTORE POP PUSH1 0x1 ADD PUSH2 0x292D JUMP JUMPDEST POP SWAP1 JUMP JUMPDEST PUSH0 PUSH1 0x40 MLOAD SWAP1 POP SWAP1 JUMP JUMPDEST PUSH0 DUP1 REVERT JUMPDEST PUSH0 DUP1 REVERT JUMPDEST PUSH0 DUP2 SWAP1 POP SWAP2 SWAP1 POP JUMP JUMPDEST PUSH2 0x296A DUP2 PUSH2 0x2958 JUMP JUMPDEST DUP2 EQ PUSH2 0x2974 JUMPI PUSH0 DUP1 REVERT JUMPDEST POP JUMP JUMPDEST PUSH0 DUP2 CALLDATALOAD SWAP1 POP PUSH2 0x2985 DUP2 PUSH2 0x2961 JUMP JUMPDEST SWAP3 SWAP2 POP POP JUMP JUMPDEST PUSH0 DUP2 ISZERO ISZERO SWAP1 POP SWAP2 SWAP1 POP JUMP JUMPDEST PUSH2 0x299F DUP2 PUSH2 0x298B JUMP JUMPDEST DUP2 EQ PUSH2 0x29A9 JUMPI PUSH0 DUP1 REVERT JUMPDEST POP JUMP JUMPDEST PUSH0 DUP2 CALLDATALOAD SWAP1 POP PUSH2 0x29BA DUP2 PUSH2 0x2996 JUMP JUMPDEST SWAP3 SWAP2 POP POP JUMP JUMPDEST PUSH0 DUP1 PUSH1 0x40 DUP4 DUP6 SUB SLT ISZERO PUSH2 0x29D6 JUMPI PUSH2 0x29D5 PUSH2 0x2950 JUMP JUMPDEST JUMPDEST PUSH0 PUSH2 0x29E3 DUP6 DUP3 DUP7 ADD PUSH2 0x2977 JUMP JUMPDEST SWAP3 POP POP PUSH1 0x20 PUSH2 0x29F4 DUP6 DUP3 DUP7 ADD PUSH2 0x29AC JUMP JUMPDEST SWAP2 POP POP SWAP3 POP SWAP3 SWAP1 POP JUMP JUMPDEST PUSH2 0x2A07 DUP2 PUSH2 0x2958 JUMP JUMPDEST DUP3 MSTORE POP POP JUMP JUMPDEST PUSH0 PUSH1 0x20 DUP3 ADD SWAP1 POP PUSH2 0x2A20 PUSH0 DUP4 ADD DUP5 PUSH2 0x29FE JUMP JUMPDEST SWAP3 SWAP2 POP POP JUMP JUMPDEST PUSH0 PUSH1 0x20 DUP3 DUP5 SUB SLT ISZERO PUSH2 0x2A3B JUMPI PUSH2 0x2A3A PUSH2 0x2950 JUMP JUMPDEST JUMPDEST PUSH0 PUSH2 0x2A48 DUP5 DUP3 DUP6 ADD PUSH2 0x2977 JUMP JUMPDEST SWAP2 POP POP SWAP3 SWAP2 POP POP JUMP JUMPDEST PUSH0 PUSH20 0xFFFFFFFFFFFFFFFFFFFFFFFFFFFFFFFFFFFFFFFF DUP3 AND SWAP1 POP SWAP2 SWAP1 POP JUMP JUMPDEST PUSH0 PUSH2 0x2A7A DUP3 PUSH2 0x2A51 JUMP JUMPDEST SWAP1 POP SWAP2 SWAP1 POP JUMP JUMPDEST PUSH2 0x2A8A DUP2 PUSH2 0x2A70 JUMP JUMPDEST DUP3 MSTORE POP POP JUMP JUMPDEST PUSH0 DUP2 MLOAD SWAP1 POP SWAP2 SWAP1 POP JUMP JUMPDEST PUSH0 DUP3 DUP3 MSTORE PUSH1 0x20 DUP3 ADD SWAP1 POP SWAP3 SWAP2 POP POP JUMP JUMPDEST DUP3 DUP2 DUP4 MCOPY PUSH0 DUP4 DUP4 ADD MSTORE POP POP POP JUMP JUMPDEST PUSH0 PUSH1 0x1F NOT PUSH1 0x1F DUP4 ADD AND SWAP1 POP SWAP2 SWAP1 POP JUMP JUMPDEST PUSH0 PUSH2 0x2AD2 DUP3 PUSH2 0x2A90 JUMP JUMPDEST PUSH2 0x2ADC DUP2 DUP6 PUSH2 0x2A9A JUMP JUMPDEST SWAP4 POP PUSH2 0x2AEC DUP2 DUP6 PUSH1 0x20 DUP7 ADD PUSH2 0x2AAA JUMP JUMPDEST PUSH2 0x2AF5 DUP2 PUSH2 0x2AB8 JUMP JUMPDEST DUP5 ADD SWAP2 POP POP SWAP3 SWAP2 POP POP JUMP JUMPDEST PUSH2 0x2B09 DUP2 PUSH2 0x298B JUMP JUMPDEST DUP3 MSTORE POP POP JUMP JUMPDEST PUSH0 PUSH1 0xE0 DUP3 ADD SWAP1 POP PUSH2 0x2B22 PUSH0 DUP4 ADD DUP11 PUSH2 0x29FE JUMP JUMPDEST PUSH2 0x2B2F PUSH1 0x20 DUP4 ADD DUP10 PUSH2 0x2A81 JUMP JUMPDEST DUP2 DUP2 SUB PUSH1 0x40 DUP4 ADD MSTORE PUSH2 0x2B41 DUP2 DUP9 PUSH2 0x2AC8 JUMP JUMPDEST SWAP1 POP PUSH2 0x2B50 PUSH1 0x60 DUP4 ADD DUP8 PUSH2 0x29FE JUMP JUMPDEST PUSH2 0x2B5D PUSH1 0x80 DUP4 ADD DUP7 PUSH2 0x2B00 JUMP JUMPDEST PUSH2 0x2B6A PUSH1 0xA0 DUP4 ADD DUP6 PUSH2 0x2B00 JUMP JUMPDEST PUSH2 0x2B77 PUSH1 0xC0 DUP4 ADD DUP5 PUSH2 0x2B00 JUMP JUMPDEST SWAP9 SWAP8 POP POP POP POP POP POP POP POP JUMP JUMPDEST PUSH0 DUP1 PUSH1 0x40 DUP4 DUP6 SUB SLT ISZERO PUSH2 0x2B99 JUMPI PUSH2 0x2B98 PUSH2 0x2950 JUMP JUMPDEST JUMPDEST PUSH0 PUSH2 0x2BA6 DUP6 DUP3 DUP7 ADD PUSH2 0x2977 JUMP JUMPDEST SWAP3 POP POP PUSH1 0x20 PUSH2 0x2BB7 DUP6 DUP3 DUP7 ADD PUSH2 0x2977 JUMP JUMPDEST SWAP2 POP POP SWAP3 POP SWAP3 SWAP1 POP JUMP JUMPDEST PUSH2 0x2BCA DUP2 PUSH2 0x2A70 JUMP JUMPDEST DUP2 EQ PUSH2 0x2BD4 JUMPI PUSH0 DUP1 REVERT JUMPDEST POP JUMP JUMPDEST PUSH0 DUP2 CALLDATALOAD SWAP1 POP PUSH2 0x2BE5 DUP2 PUSH2 0x2BC1 JUMP JUMPDEST SWAP3 SWAP2 POP POP JUMP JUMPDEST PUSH0 DUP1 PUSH1 0x40 DUP4 DUP6 SUB SLT ISZERO PUSH2 0x2C01 JUMPI PUSH2 0x2C00 PUSH2 0x2950 JUMP JUMPDEST JUMPDEST PUSH0 PUSH2 0x2C0E DUP6 DUP3 DUP7 ADD PUSH2 0x2977 JUMP JUMPDEST SWAP3 POP POP PUSH1 0x20 PUSH2 0x2C1F DUP6 DUP3 DUP7 ADD PUSH2 0x2BD7 JUMP JUMPDEST SWAP2 POP POP SWAP3 POP SWAP3 SWAP1 POP JUMP JUMPDEST PUSH0 DUP1 REVERT JUMPDEST PUSH0 DUP1 REVERT JUMPDEST PUSH32 0x4E487B7100000000000000000000000000000000000000000000000000000000 PUSH0 MSTORE PUSH1 0x41 PUSH1 0x4 MSTORE PUSH1 0x24 PUSH0 REVERT JUMPDEST PUSH2 0x2C67 DUP3 PUSH2 0x2AB8 JUMP JUMPDEST DUP2 ADD DUP2 DUP2 LT PUSH8 0xFFFFFFFFFFFFFFFF DUP3 GT OR ISZERO PUSH2 0x2C86 JUMPI PUSH2 0x2C85 PUSH2 0x2C31 JUMP JUMPDEST JUMPDEST DUP1 PUSH1 0x40 MSTORE POP POP POP JUMP JUMPDEST PUSH0 PUSH2 0x2C98 PUSH2 0x2947 JUMP JUMPDEST SWAP1 POP PUSH2 0x2CA4 DUP3 DUP3 PUSH2 0x2C5E JUMP JUMPDEST SWAP2 SWAP1 POP JUMP JUMPDEST PUSH0 PUSH8 0xFFFFFFFFFFFFFFFF DUP3 GT ISZERO PUSH2 0x2CC3 JUMPI PUSH2 0x2CC2 PUSH2 0x2C31 JUMP JUMPDEST JUMPDEST PUSH2 0x2CCC DUP3 PUSH2 0x2AB8 JUMP JUMPDEST SWAP1 POP PUSH1 0x20 DUP2 ADD SWAP1 POP SWAP2 SWAP1 POP JUMP JUMPDEST DUP3 DUP2 DUP4 CALLDATACOPY PUSH0 DUP4 DUP4 ADD MSTORE POP POP POP JUMP JUMPDEST PUSH0 PUSH2 0x2CF9 PUSH2 0x2CF4 DUP5 PUSH2 0x2CA9 JUMP JUMPDEST PUSH2 0x2C8F JUMP JUMPDEST SWAP1 POP DUP3 DUP2 MSTORE PUSH1 0x20 DUP2 ADD DUP5 DUP5 DUP5 ADD GT ISZERO PUSH2 0x2D15 JUMPI PUSH2 0x2D14 PUSH2 0x2C2D JUMP JUMPDEST JUMPDEST PUSH2 0x2D20 DUP5 DUP3 DUP6 PUSH2 0x2CD9 JUMP JUMPDEST POP SWAP4 SWAP3 POP POP POP JUMP JUMPDEST PUSH0 DUP3 PUSH1 0x1F DUP4 ADD SLT PUSH2 0x2D3C JUMPI PUSH2 0x2D3B PUSH2 0x2C29 JUMP JUMPDEST JUMPDEST DUP2 CALLDATALOAD PUSH2 0x2D4C DUP5 DUP3 PUSH1 0x20 DUP7 ADD PUSH2 0x2CE7 JUMP JUMPDEST SWAP2 POP POP SWAP3 SWAP2 POP POP JUMP JUMPDEST PUSH0 DUP1 PUSH0 PUSH1 0x60 DUP5 DUP7 SUB SLT ISZERO PUSH2 0x2D6C JUMPI PUSH2 0x2D6B PUSH2 0x2950 JUMP JUMPDEST JUMPDEST PUSH0 PUSH2 0x2D79 DUP7 DUP3 DUP8 ADD PUSH2 0x2BD7 JUMP JUMPDEST SWAP4 POP POP PUSH1 0x20 DUP5 ADD CALLDATALOAD PUSH8 0xFFFFFFFFFFFFFFFF DUP2 GT ISZERO PUSH2 0x2D9A JUMPI PUSH2 0x2D99 PUSH2 0x2954 JUMP JUMPDEST JUMPDEST PUSH2 0x2DA6 DUP7 DUP3 DUP8 ADD PUSH2 0x2D28 JUMP JUMPDEST SWAP3 POP POP PUSH1 0x40 PUSH2 0x2DB7 DUP7 DUP3 DUP8 ADD PUSH2 0x2977 JUMP JUMPDEST SWAP2 POP POP SWAP3 POP SWAP3 POP SWAP3 JUMP JUMPDEST PUSH0 PUSH1 0x80 DUP3 ADD SWAP1 POP PUSH2 0x2DD4 PUSH0 DUP4 ADD DUP8 PUSH2 0x29FE JUMP JUMPDEST PUSH2 0x2DE1 PUSH1 0x20 DUP4 ADD DUP7 PUSH2 0x2A81 JUMP JUMPDEST PUSH2 0x2DEE PUSH1 0x40 DUP4 ADD DUP6 PUSH2 0x2A81 JUMP JUMPDEST PUSH2 0x2DFB PUSH1 0x60 DUP4 ADD DUP5 PUSH2 0x29FE JUMP JUMPDEST SWAP6 SWAP5 POP POP POP POP POP JUMP JUMPDEST PUSH32 0x4E487B7100000000000000000000000000000000000000000000000000000000 PUSH0 MSTORE PUSH1 0x21 PUSH1 0x4 MSTORE PUSH1 0x24 PUSH0 REVERT JUMPDEST PUSH1 0x5 DUP2 LT PUSH2 0x2E42 JUMPI PUSH2 0x2E41 PUSH2 0x2E04 JUMP JUMPDEST JUMPDEST POP JUMP JUMPDEST PUSH0 DUP2 SWAP1 POP PUSH2 0x2E52 DUP3 PUSH2 0x2E31 JUMP JUMPDEST SWAP2 SWAP1 POP JUMP JUMPDEST PUSH0 PUSH2 0x2E61 DUP3 PUSH2 0x2E45 JUMP JUMPDEST SWAP1 POP SWAP2 SWAP1 POP JUMP JUMPDEST PUSH2 0x2E71 DUP2 PUSH2 0x2E57 JUMP JUMPDEST DUP3 MSTORE POP POP JUMP JUMPDEST PUSH0 PUSH1 0xC0 DUP3 ADD SWAP1 POP PUSH2 0x2E8A PUSH0 DUP4 ADD DUP10 PUSH2 0x29FE JUMP JUMPDEST PUSH2 0x2E97 PUSH1 0x20 DUP4 ADD DUP9 PUSH2 0x29FE JUMP JUMPDEST PUSH2 0x2EA4 PUSH1 0x40 DUP4 ADD DUP8 PUSH2 0x2A81 JUMP JUMPDEST PUSH2 0x2EB1 PUSH1 0x60 DUP4 ADD DUP7 PUSH2 0x2A81 JUMP JUMPDEST PUSH2 0x2EBE PUSH1 0x80 DUP4 ADD DUP6 PUSH2 0x29FE JUMP JUMPDEST PUSH2 0x2ECB PUSH1 0xA0 DUP4 ADD DUP5 PUSH2 0x2E68 JUMP JUMPDEST SWAP8 SWAP7 POP POP POP POP POP POP POP JUMP JUMPDEST PUSH0 PUSH1 0x20 DUP3 ADD SWAP1 POP PUSH2 0x2EE9 PUSH0 DUP4 ADD DUP5 PUSH2 0x2A81 JUMP JUMPDEST SWAP3 SWAP2 POP POP JUMP JUMPDEST PUSH32 0x596F7520617265206E6F742061646D696E000000000000000000000000000000 PUSH0 DUP3 ADD MSTORE POP JUMP JUMPDEST PUSH0 PUSH2 0x2F23 PUSH1 0x11 DUP4 PUSH2 0x2A9A JUMP JUMPDEST SWAP2 POP PUSH2 0x2F2E DUP3 PUSH2 0x2EEF JUMP JUMPDEST PUSH1 0x20 DUP3 ADD SWAP1 POP SWAP2 SWAP1 POP JUMP JUMPDEST PUSH0 PUSH1 0x20 DUP3 ADD SWAP1 POP DUP2 DUP2 SUB PUSH0 DUP4 ADD MSTORE PUSH2 0x2F50 DUP2 PUSH2 0x2F17 JUMP JUMPDEST SWAP1 POP SWAP2 SWAP1 POP JUMP JUMPDEST PUSH32 0x4E487B7100000000000000000000000000000000000000000000000000000000 PUSH0 MSTORE PUSH1 0x32 PUSH1 0x4 MSTORE PUSH1 0x24 PUSH0 REVERT JUMPDEST PUSH32 0x7468652073616D65206172657374000000000000000000000000000000000000 PUSH0 DUP3 ADD MSTORE POP JUMP JUMPDEST PUSH0 PUSH2 0x2FB8 PUSH1 0xE DUP4 PUSH2 0x2A9A JUMP JUMPDEST SWAP2 POP PUSH2 0x2FC3 DUP3 PUSH2 0x2F84 JUMP JUMPDEST PUSH1 0x20 DUP3 ADD SWAP1 POP SWAP2 SWAP1 POP JUMP JUMPDEST PUSH0 PUSH1 0x20 DUP3 ADD SWAP1 POP DUP2 DUP2 SUB PUSH0 DUP4 ADD MSTORE PUSH2 0x2FE5 DUP2 PUSH2 0x2FAC JUMP JUMPDEST SWAP1 POP SWAP2 SWAP1 POP JUMP JUMPDEST PUSH32 0x77726F6E672073616C6549442076616C75650000000000000000000000000000 PUSH0 DUP3 ADD MSTORE POP JUMP JUMPDEST PUSH0 PUSH2 0x3020 PUSH1 0x12 DUP4 PUSH2 0x2A9A JUMP JUMPDEST SWAP2 POP PUSH2 0x302B DUP3 PUSH2 0x2FEC JUMP JUMPDEST PUSH1 0x20 DUP3 ADD SWAP1 POP SWAP2 SWAP1 POP JUMP JUMPDEST PUSH0 PUSH1 0x20 DUP3 ADD SWAP1 POP DUP2 DUP2 SUB PUSH0 DUP4 ADD MSTORE PUSH2 0x304D DUP2 PUSH2 0x3014 JUMP JUMPDEST SWAP1 POP SWAP2 SWAP1 POP JUMP JUMPDEST PUSH32 0x53616C6520697320636C6F736564000000000000000000000000000000000000 PUSH0 DUP3 ADD MSTORE POP JUMP JUMPDEST PUSH0 PUSH2 0x3088 PUSH1 0xE DUP4 PUSH2 0x2A9A JUMP JUMPDEST SWAP2 POP PUSH2 0x3093 DUP3 PUSH2 0x3054 JUMP JUMPDEST PUSH1 0x20 DUP3 ADD SWAP1 POP SWAP2 SWAP1 POP JUMP JUMPDEST PUSH0 PUSH1 0x20 DUP3 ADD SWAP1 POP DUP2 DUP2 SUB PUSH0 DUP4 ADD MSTORE PUSH2 0x30B5 DUP2 PUSH2 0x307C JUMP JUMPDEST SWAP1 POP SWAP2 SWAP1 POP JUMP JUMPDEST PUSH32 0x796F752070726963652069732030000000000000000000000000000000000000 PUSH0 DUP3 ADD MSTORE POP JUMP JUMPDEST PUSH0 PUSH2 0x30F0 PUSH1 0xE DUP4 PUSH2 0x2A9A JUMP JUMPDEST SWAP2 POP PUSH2 0x30FB DUP3 PUSH2 0x30BC JUMP JUMPDEST PUSH1 0x20 DUP3 ADD SWAP1 POP SWAP2 SWAP1 POP JUMP JUMPDEST PUSH0 PUSH1 0x20 DUP3 ADD SWAP1 POP DUP2 DUP2 SUB PUSH0 DUP4 ADD MSTORE PUSH2 0x311D DUP2 PUSH2 0x30E4 JUMP JUMPDEST SWAP1 POP SWAP2 SWAP1 POP JUMP JUMPDEST PUSH32 0x4E487B7100000000000000000000000000000000000000000000000000000000 PUSH0 MSTORE PUSH1 0x22 PUSH1 0x4 MSTORE PUSH1 0x24 PUSH0 REVERT JUMPDEST PUSH0 PUSH1 0x2 DUP3 DIV SWAP1 POP PUSH1 0x1 DUP3 AND DUP1 PUSH2 0x3168 JUMPI PUSH1 0x7F DUP3 AND SWAP2 POP JUMPDEST PUSH1 0x20 DUP3 LT DUP2 SUB PUSH2 0x317B JUMPI PUSH2 0x317A PUSH2 0x3124 JUMP JUMPDEST JUMPDEST POP SWAP2 SWAP1 POP JUMP JUMPDEST PUSH32 0x4E6F7420796F752073616C650000000000000000000000000000000000000000 PUSH0 DUP3 ADD MSTORE POP JUMP JUMPDEST PUSH0 PUSH2 0x31B5 PUSH1 0xC DUP4 PUSH2 0x2A9A JUMP JUMPDEST SWAP2 POP PUSH2 0x31C0 DUP3 PUSH2 0x3181 JUMP JUMPDEST PUSH1 0x20 DUP3 ADD SWAP1 POP SWAP2 SWAP1 POP JUMP JUMPDEST PUSH0 PUSH1 0x20 DUP3 ADD SWAP1 POP DUP2 DUP2 SUB PUSH0 DUP4 ADD MSTORE PUSH2 0x31E2 DUP2 PUSH2 0x31A9 JUMP JUMPDEST SWAP1 POP SWAP2 SWAP1 POP JUMP JUMPDEST PUSH32 0x6275696C64206973206172657374656400000000000000000000000000000000 PUSH0 DUP3 ADD MSTORE POP JUMP JUMPDEST PUSH0 PUSH2 0x321D PUSH1 0x10 DUP4 PUSH2 0x2A9A JUMP JUMPDEST SWAP2 POP PUSH2 0x3228 DUP3 PUSH2 0x31E9 JUMP JUMPDEST PUSH1 0x20 DUP3 ADD SWAP1 POP SWAP2 SWAP1 POP JUMP JUMPDEST PUSH0 PUSH1 0x20 DUP3 ADD SWAP1 POP DUP2 DUP2 SUB PUSH0 DUP4 ADD MSTORE PUSH2 0x324A DUP2 PUSH2 0x3211 JUMP JUMPDEST SWAP1 POP SWAP2 SWAP1 POP JUMP JUMPDEST PUSH32 0x4973206E6F7420796F7572206275696C64000000000000000000000000000000 PUSH0 DUP3 ADD MSTORE POP JUMP JUMPDEST PUSH0 PUSH2 0x3285 PUSH1 0x11 DUP4 PUSH2 0x2A9A JUMP JUMPDEST SWAP2 POP PUSH2 0x3290 DUP3 PUSH2 0x3251 JUMP JUMPDEST PUSH1 0x20 DUP3 ADD SWAP1 POP SWAP2 SWAP1 POP JUMP JUMPDEST PUSH0 PUSH1 0x20 DUP3 ADD SWAP1 POP DUP2 DUP2 SUB PUSH0 DUP4 ADD MSTORE PUSH2 0x32B2 DUP2 PUSH2 0x3279 JUMP JUMPDEST SWAP1 POP SWAP2 SWAP1 POP JUMP JUMPDEST PUSH32 0x416C726561647920696E2070726573656E740000000000000000000000000000 PUSH0 DUP3 ADD MSTORE POP JUMP JUMPDEST PUSH0 PUSH2 0x32ED PUSH1 0x12 DUP4 PUSH2 0x2A9A JUMP JUMPDEST SWAP2 POP PUSH2 0x32F8 DUP3 PUSH2 0x32B9 JUMP JUMPDEST PUSH1 0x20 DUP3 ADD SWAP1 POP SWAP2 SWAP1 POP JUMP JUMPDEST PUSH0 PUSH1 0x20 DUP3 ADD SWAP1 POP DUP2 DUP2 SUB PUSH0 DUP4 ADD MSTORE PUSH2 0x331A DUP2 PUSH2 0x32E1 JUMP JUMPDEST SWAP1 POP SWAP2 SWAP1 POP JUMP JUMPDEST PUSH32 0x416C726561647920696E2073616C650000000000000000000000000000000000 PUSH0 DUP3 ADD MSTORE POP JUMP JUMPDEST PUSH0 PUSH2 0x3355 PUSH1 0xF DUP4 PUSH2 0x2A9A JUMP JUMPDEST SWAP2 POP PUSH2 0x3360 DUP3 PUSH2 0x3321 JUMP JUMPDEST PUSH1 0x20 DUP3 ADD SWAP1 POP SWAP2 SWAP1 POP JUMP JUMPDEST PUSH0 PUSH1 0x20 DUP3 ADD SWAP1 POP DUP2 DUP2 SUB PUSH0 DUP4 ADD MSTORE PUSH2 0x3382 DUP2 PUSH2 0x3349 JUMP JUMPDEST SWAP1 POP SWAP2 SWAP1 POP JUMP JUMPDEST PUSH32 0x4275696C6420696E206172657374000000000000000000000000000000000000 PUSH0 DUP3 ADD MSTORE POP JUMP JUMPDEST PUSH0 PUSH2 0x33BD PUSH1 0xE DUP4 PUSH2 0x2A9A JUMP JUMPDEST SWAP2 POP PUSH2 0x33C8 DUP3 PUSH2 0x3389 JUMP JUMPDEST PUSH1 0x20 DUP3 ADD SWAP1 POP SWAP2 SWAP1 POP JUMP JUMPDEST PUSH0 PUSH1 0x20 DUP3 ADD SWAP1 POP DUP2 DUP2 SUB PUSH0 DUP4 ADD MSTORE PUSH2 0x33EA DUP2 PUSH2 0x33B1 JUMP JUMPDEST SWAP1 POP SWAP2 SWAP1 POP JUMP JUMPDEST PUSH32 0x77726F6E675F6164647265737300000000000000000000000000000000000000 PUSH0 DUP3 ADD MSTORE POP JUMP JUMPDEST PUSH0 PUSH2 0x3425 PUSH1 0xD DUP4 PUSH2 0x2A9A JUMP JUMPDEST SWAP2 POP PUSH2 0x3430 DUP3 PUSH2 0x33F1 JUMP JUMPDEST PUSH1 0x20 DUP3 ADD SWAP1 POP SWAP2 SWAP1 POP JUMP JUMPDEST PUSH0 PUSH1 0x20 DUP3 ADD SWAP1 POP DUP2 DUP2 SUB PUSH0 DUP4 ADD MSTORE PUSH2 0x3452 DUP2 PUSH2 0x3419 JUMP JUMPDEST SWAP1 POP SWAP2 SWAP1 POP JUMP JUMPDEST PUSH32 0x77726F6E67206275696C6449442076616C756500000000000000000000000000 PUSH0 DUP3 ADD MSTORE POP JUMP JUMPDEST PUSH0 PUSH2 0x348D PUSH1 0x13 DUP4 PUSH2 0x2A9A JUMP JUMPDEST SWAP2 POP PUSH2 0x3498 DUP3 PUSH2 0x3459 JUMP JUMPDEST PUSH1 0x20 DUP3 ADD SWAP1 POP SWAP2 SWAP1 POP JUMP JUMPDEST PUSH0 PUSH1 0x20 DUP3 ADD SWAP1 POP DUP2 DUP2 SUB PUSH0 DUP4 ADD MSTORE PUSH2 0x34BA DUP2 PUSH2 0x3481 JUMP JUMPDEST SWAP1 POP SWAP2 SWAP1 POP JUMP JUMPDEST PUSH32 0x73656C6620676966740000000000000000000000000000000000000000000000 PUSH0 DUP3 ADD MSTORE POP JUMP JUMPDEST PUSH0 PUSH2 0x34F5 PUSH1 0x9 DUP4 PUSH2 0x2A9A JUMP JUMPDEST SWAP2 POP PUSH2 0x3500 DUP3 PUSH2 0x34C1 JUMP JUMPDEST PUSH1 0x20 DUP3 ADD SWAP1 POP SWAP2 SWAP1 POP JUMP JUMPDEST PUSH0 PUSH1 0x20 DUP3 ADD SWAP1 POP DUP2 DUP2 SUB PUSH0 DUP4 ADD MSTORE PUSH2 0x3522 DUP2 PUSH2 0x34E9 JUMP JUMPDEST SWAP1 POP SWAP2 SWAP1 POP JUMP JUMPDEST PUSH32 0x4E487B7100000000000000000000000000000000000000000000000000000000 PUSH0 MSTORE PUSH1 0x11 PUSH1 0x4 MSTORE PUSH1 0x24 PUSH0 REVERT JUMPDEST PUSH0 PUSH2 0x3560 DUP3 PUSH2 0x2958 JUMP JUMPDEST SWAP2 POP PUSH2 0x356B DUP4 PUSH2 0x2958 JUMP JUMPDEST SWAP3 POP DUP3 DUP3 ADD SWAP1 POP DUP1 DUP3 GT ISZERO PUSH2 0x3583 JUMPI PUSH2 0x3582 PUSH2 0x3529 JUMP JUMPDEST JUMPDEST SWAP3 SWAP2 POP POP JUMP JUMPDEST PUSH32 0x416C72656164792066696E697368656400000000000000000000000000000000 PUSH0 DUP3 ADD MSTORE POP JUMP JUMPDEST PUSH0 PUSH2 0x35BD PUSH1 0x10 DUP4 PUSH2 0x2A9A JUMP JUMPDEST SWAP2 POP PUSH2 0x35C8 DUP3 PUSH2 0x3589 JUMP JUMPDEST PUSH1 0x20 DUP3 ADD SWAP1 POP SWAP2 SWAP1 POP JUMP JUMPDEST PUSH0 PUSH1 0x20 DUP3 ADD SWAP1 POP DUP2 DUP2 SUB PUSH0 DUP4 ADD MSTORE PUSH2 0x35EA DUP2 PUSH2 0x35B1 JUMP JUMPDEST SWAP1 POP SWAP2 SWAP1 POP JUMP JUMPDEST PUSH32 0x596F7520617265206E6F74206F776E6572000000000000000000000000000000 PUSH0 DUP3 ADD MSTORE POP JUMP JUMPDEST PUSH0 PUSH2 0x3625 PUSH1 0x11 DUP4 PUSH2 0x2A9A JUMP JUMPDEST SWAP2 POP PUSH2 0x3630 DUP3 PUSH2 0x35F1 JUMP JUMPDEST PUSH1 0x20 DUP3 ADD SWAP1 POP SWAP2 SWAP1 POP JUMP JUMPDEST PUSH0 PUSH1 0x20 DUP3 ADD SWAP1 POP DUP2 DUP2 SUB PUSH0 DUP4 ADD MSTORE PUSH2 0x3652 DUP2 PUSH2 0x3619 JUMP JUMPDEST SWAP1 POP SWAP2 SWAP1 POP JUMP JUMPDEST PUSH32 0x77726F6E67206164647265737300000000000000000000000000000000000000 PUSH0 DUP3 ADD MSTORE POP JUMP JUMPDEST PUSH0 PUSH2 0x368D PUSH1 0xD DUP4 PUSH2 0x2A9A JUMP JUMPDEST SWAP2 POP PUSH2 0x3698 DUP3 PUSH2 0x3659 JUMP JUMPDEST PUSH1 0x20 DUP3 ADD SWAP1 POP SWAP2 SWAP1 POP JUMP JUMPDEST PUSH0 PUSH1 0x20 DUP3 ADD SWAP1 POP DUP2 DUP2 SUB PUSH0 DUP4 ADD MSTORE PUSH2 0x36BA DUP2 PUSH2 0x3681 JUMP JUMPDEST SWAP1 POP SWAP2 SWAP1 POP JUMP JUMPDEST PUSH32 0x77726F6E67207371756172650000000000000000000000000000000000000000 PUSH0 DUP3 ADD MSTORE POP JUMP JUMPDEST PUSH0 PUSH2 0x36F5 PUSH1 0xC DUP4 PUSH2 0x2A9A JUMP JUMPDEST SWAP2 POP PUSH2 0x3700 DUP3 PUSH2 0x36C1 JUMP JUMPDEST PUSH1 0x20 DUP3 ADD SWAP1 POP SWAP2 SWAP1 POP JUMP JUMPDEST PUSH0 PUSH1 0x20 DUP3 ADD SWAP1 POP DUP2 DUP2 SUB PUSH0 DUP4 ADD MSTORE PUSH2 0x3722 DUP2 PUSH2 0x36E9 JUMP JUMPDEST SWAP1 POP SWAP2 SWAP1 POP JUMP JUMPDEST PUSH0 DUP2 SWAP1 POP DUP2 PUSH0 MSTORE PUSH1 0x20 PUSH0 KECCAK256 SWAP1 POP SWAP2 SWAP1 POP JUMP JUMPDEST PUSH0 PUSH1 0x20 PUSH1 0x1F DUP4 ADD DIV SWAP1 POP SWAP2 SWAP1 POP JUMP JUMPDEST PUSH0 DUP3 DUP3 SHL SWAP1 POP SWAP3 SWAP2 POP POP JUMP JUMPDEST PUSH0 PUSH1 0x8 DUP4 MUL PUSH2 0x3785 PUSH32 0xFFFFFFFFFFFFFFFFFFFFFFFFFFFFFFFFFFFFFFFFFFFFFFFFFFFFFFFFFFFFFFFF DUP3 PUSH2 0x374A JUMP JUMPDEST PUSH2 0x378F DUP7 DUP4 PUSH2 0x374A JUMP JUMPDEST SWAP6 POP DUP1 NOT DUP5 AND SWAP4 POP DUP1 DUP7 AND DUP5 OR SWAP3 POP POP POP SWAP4 SWAP3 POP POP POP JUMP JUMPDEST PUSH0 DUP2 SWAP1 POP SWAP2 SWAP1 POP JUMP JUMPDEST PUSH0 PUSH2 0x37CA PUSH2 0x37C5 PUSH2 0x37C0 DUP5 PUSH2 0x2958 JUMP JUMPDEST PUSH2 0x37A7 JUMP JUMPDEST PUSH2 0x2958 JUMP JUMPDEST SWAP1 POP SWAP2 SWAP1 POP JUMP JUMPDEST PUSH0 DUP2 SWAP1 POP SWAP2 SWAP1 POP JUMP JUMPDEST PUSH2 0x37E3 DUP4 PUSH2 0x37B0 JUMP JUMPDEST PUSH2 0x37F7 PUSH2 0x37EF DUP3 PUSH2 0x37D1 JUMP JUMPDEST DUP5 DUP5 SLOAD PUSH2 0x3756 JUMP JUMPDEST DUP3 SSTORE POP POP POP POP JUMP JUMPDEST PUSH0 SWAP1 JUMP JUMPDEST PUSH2 0x380B PUSH2 0x37FF JUMP JUMPDEST PUSH2 0x3816 DUP2 DUP5 DUP5 PUSH2 0x37DA JUMP JUMPDEST POP POP POP JUMP JUMPDEST JUMPDEST DUP2 DUP2 LT ISZERO PUSH2 0x3839 JUMPI PUSH2 0x382E PUSH0 DUP3 PUSH2 0x3803 JUMP JUMPDEST PUSH1 0x1 DUP2 ADD SWAP1 POP PUSH2 0x381C JUMP JUMPDEST POP POP JUMP JUMPDEST PUSH1 0x1F DUP3 GT ISZERO PUSH2 0x387E JUMPI PUSH2 0x384F DUP2 PUSH2 0x3729 JUMP JUMPDEST PUSH2 0x3858 DUP5 PUSH2 0x373B JUMP JUMPDEST DUP2 ADD PUSH1 0x20 DUP6 LT ISZERO PUSH2 0x3867 JUMPI DUP2 SWAP1 POP JUMPDEST PUSH2 0x387B PUSH2 0x3873 DUP6 PUSH2 0x373B JUMP JUMPDEST DUP4 ADD DUP3 PUSH2 0x381B JUMP JUMPDEST POP POP JUMPDEST POP POP POP JUMP JUMPDEST PUSH0 DUP3 DUP3 SHR SWAP1 POP SWAP3 SWAP2 POP POP JUMP JUMPDEST PUSH0 PUSH2 0x389E PUSH0 NOT DUP5 PUSH1 0x8 MUL PUSH2 0x3883 JUMP JUMPDEST NOT DUP1 DUP4 AND SWAP2 POP POP SWAP3 SWAP2 POP POP JUMP JUMPDEST PUSH0 PUSH2 0x38B6 DUP4 DUP4 PUSH2 0x388F JUMP JUMPDEST SWAP2 POP DUP3 PUSH1 0x2 MUL DUP3 OR SWAP1 POP SWAP3 SWAP2 POP POP JUMP JUMPDEST PUSH2 0x38CF DUP3 PUSH2 0x2A90 JUMP JUMPDEST PUSH8 0xFFFFFFFFFFFFFFFF DUP2 GT ISZERO PUSH2 0x38E8 JUMPI PUSH2 0x38E7 PUSH2 0x2C31 JUMP JUMPDEST JUMPDEST PUSH2 0x38F2 DUP3 SLOAD PUSH2 0x3151 JUMP JUMPDEST PUSH2 0x38FD DUP3 DUP3 DUP6 PUSH2 0x383D JUMP JUMPDEST PUSH0 PUSH1 0x20 SWAP1 POP PUSH1 0x1F DUP4 GT PUSH1 0x1 DUP2 EQ PUSH2 0x392E JUMPI PUSH0 DUP5 ISZERO PUSH2 0x391C JUMPI DUP3 DUP8 ADD MLOAD SWAP1 POP JUMPDEST PUSH2 0x3926 DUP6 DUP3 PUSH2 0x38AB JUMP JUMPDEST DUP7 SSTORE POP PUSH2 0x398D JUMP JUMPDEST PUSH1 0x1F NOT DUP5 AND PUSH2 0x393C DUP7 PUSH2 0x3729 JUMP JUMPDEST PUSH0 JUMPDEST DUP3 DUP2 LT ISZERO PUSH2 0x3963 JUMPI DUP5 DUP10 ADD MLOAD DUP3 SSTORE PUSH1 0x1 DUP3 ADD SWAP2 POP PUSH1 0x20 DUP6 ADD SWAP5 POP PUSH1 0x20 DUP2 ADD SWAP1 POP PUSH2 0x393E JUMP JUMPDEST DUP7 DUP4 LT ISZERO PUSH2 0x3980 JUMPI DUP5 DUP10 ADD MLOAD PUSH2 0x397C PUSH1 0x1F DUP10 AND DUP3 PUSH2 0x388F JUMP JUMPDEST DUP4 SSTORE POP JUMPDEST PUSH1 0x1 PUSH1 0x2 DUP9 MUL ADD DUP9 SSTORE POP POP POP JUMPDEST POP POP POP POP POP POP JUMP JUMPDEST PUSH32 0x546869732069732067696674206E6F7420666F7220796F750000000000000000 PUSH0 DUP3 ADD MSTORE POP JUMP JUMPDEST PUSH0 PUSH2 0x39C9 PUSH1 0x18 DUP4 PUSH2 0x2A9A JUMP JUMPDEST SWAP2 POP PUSH2 0x39D4 DUP3 PUSH2 0x3995 JUMP JUMPDEST PUSH1 0x20 DUP3 ADD SWAP1 POP SWAP2 SWAP1 POP JUMP JUMPDEST PUSH0 PUSH1 0x20 DUP3 ADD SWAP1 POP DUP2 DUP2 SUB PUSH0 DUP4 ADD MSTORE PUSH2 0x39F6 DUP2 PUSH2 0x39BD JUMP JUMPDEST SWAP1 POP SWAP2 SWAP1 POP JUMP JUMPDEST PUSH32 0x6573746174652061726573746564000000000000000000000000000000000000 PUSH0 DUP3 ADD MSTORE POP JUMP JUMPDEST PUSH0 PUSH2 0x3A31 PUSH1 0xE DUP4 PUSH2 0x2A9A JUMP JUMPDEST SWAP2 POP PUSH2 0x3A3C DUP3 PUSH2 0x39FD JUMP JUMPDEST PUSH1 0x20 DUP3 ADD SWAP1 POP SWAP2 SWAP1 POP JUMP JUMPDEST PUSH0 PUSH1 0x20 DUP3 ADD SWAP1 POP DUP2 DUP2 SUB PUSH0 DUP4 ADD MSTORE PUSH2 0x3A5E DUP2 PUSH2 0x3A25 JUMP JUMPDEST SWAP1 POP SWAP2 SWAP1 POP JUMP JUMPDEST PUSH32 0x73656C662073616C650000000000000000000000000000000000000000000000 PUSH0 DUP3 ADD MSTORE POP JUMP JUMPDEST PUSH0 PUSH2 0x3A99 PUSH1 0x9 DUP4 PUSH2 0x2A9A JUMP JUMPDEST SWAP2 POP PUSH2 0x3AA4 DUP3 PUSH2 0x3A65 JUMP JUMPDEST PUSH1 0x20 DUP3 ADD SWAP1 POP SWAP2 SWAP1 POP JUMP JUMPDEST PUSH0 PUSH1 0x20 DUP3 ADD SWAP1 POP DUP2 DUP2 SUB PUSH0 DUP4 ADD MSTORE PUSH2 0x3AC6 DUP2 PUSH2 0x3A8D JUMP JUMPDEST SWAP1 POP SWAP2 SWAP1 POP JUMP JUMPDEST PUSH32 0x77726F6E67206574682076616C75650000000000000000000000000000000000 PUSH0 DUP3 ADD MSTORE POP JUMP JUMPDEST PUSH0 PUSH2 0x3B01 PUSH1 0xF DUP4 PUSH2 0x2A9A JUMP JUMPDEST SWAP2 POP PUSH2 0x3B0C DUP3 PUSH2 0x3ACD JUMP JUMPDEST PUSH1 0x20 DUP3 ADD SWAP1 POP SWAP2 SWAP1 POP JUMP JUMPDEST PUSH0 PUSH1 0x20 DUP3 ADD SWAP1 POP DUP2 DUP2 SUB PUSH0 DUP4 ADD MSTORE PUSH2 0x3B2E DUP2 PUSH2 0x3AF5 JUMP JUMPDEST SWAP1 POP SWAP2 SWAP1 POP JUMP JUMPDEST PUSH32 0x796F7520616C726561647920696E207072696365730000000000000000000000 PUSH0 DUP3 ADD MSTORE POP JUMP JUMPDEST PUSH0 PUSH2 0x3B69 PUSH1 0x15 DUP4 PUSH2 0x2A9A JUMP JUMPDEST SWAP2 POP PUSH2 0x3B74 DUP3 PUSH2 0x3B35 JUMP JUMPDEST PUSH1 0x20 DUP3 ADD SWAP1 POP SWAP2 SWAP1 POP JUMP JUMPDEST PUSH0 PUSH1 0x20 DUP3 ADD SWAP1 POP DUP2 DUP2 SUB PUSH0 DUP4 ADD MSTORE PUSH2 0x3B96 DUP2 PUSH2 0x3B5D JUMP JUMPDEST SWAP1 POP SWAP2 SWAP1 POP JUMP INVALID LOG2 PUSH5 0x6970667358 0x22 SLT KECCAK256 0xE2 RETURNDATASIZE SHL 0xA5 0xE2 RETURN PUSH20 0xE7E6CD347E200693C4710A0C9DA5512F0EA9967E 0xD8 0xF 0xD1 0xAD 0xC9 PUSH5 0x736F6C6343 STOP ADDMOD BYTE STOP CALLER "
				},
				"gasEstimates": {
					"creation": {
						"codeDepositCost": "3063000",
						"executionCost": "infinite",
						"totalCost": "infinite"
					},
					"external": {
						"acceptGift(uint256)": "103841",
						"addPrice(uint256)": "infinite",
						"addPrice(uint256,uint256)": "infinite",
						"admin()": "2596",
						"buildings(uint256)": "infinite",
						"cancelGift(uint256)": "72902",
						"changeAREST(uint256,bool)": "33697",
						"createBuild(address,string,uint256)": "infinite",
						"createGift(uint256,address)": "infinite",
						"createSale(uint256,uint256)": "infinite",
						"deletePrice(uint256)": "infinite",
						"giftTime()": "2471",
						"gifts(uint256)": "infinite",
						"refuseGift(uint256)": "72923",
						"sales(uint256)": "infinite"
					}
				},
				"methodIdentifiers": {
					"acceptGift(uint256)": "d0ab383a",
					"addPrice(uint256)": "e9f0ee56",
					"addPrice(uint256,uint256)": "57279353",
					"admin()": "f851a440",
					"buildings(uint256)": "4c96a062",
					"cancelGift(uint256)": "8ee69ae8",
					"changeAREST(uint256,bool)": "06238e6e",
					"createBuild(address,string,uint256)": "9a22ed8f",
					"createGift(uint256,address)": "58c97164",
					"createSale(uint256,uint256)": "6019061b",
					"deletePrice(uint256)": "2a50fe2c",
					"giftTime()": "0a483421",
					"gifts(uint256)": "d6065935",
					"refuseGift(uint256)": "db4c049d",
					"sales(uint256)": "b5f522f7"
				}
			},
			"storageLayout": {
				"storage": [
					{
						"astId": 55,
						"contract": "contracts/agency.sol:BuildAgency",
						"label": "buildings",
						"offset": 0,
						"slot": "0",
						"type": "t_array(t_struct(Build)16_storage)dyn_storage"
					},
					{
						"astId": 59,
						"contract": "contracts/agency.sol:BuildAgency",
						"label": "gifts",
						"offset": 0,
						"slot": "1",
						"type": "t_array(t_struct(Gift)30_storage)dyn_storage"
					},
					{
						"astId": 63,
						"contract": "contracts/agency.sol:BuildAgency",
						"label": "sales",
						"offset": 0,
						"slot": "2",
						"type": "t_array(t_struct(Sale)45_storage)dyn_storage"
					},
					{
						"astId": 65,
						"contract": "contracts/agency.sol:BuildAgency",
						"label": "admin",
						"offset": 0,
						"slot": "3",
						"type": "t_address"
					},
					{
						"astId": 68,
						"contract": "contracts/agency.sol:BuildAgency",
						"label": "giftTime",
						"offset": 0,
						"slot": "4",
						"type": "t_uint256"
					}
				],
				"types": {
					"t_address": {
						"encoding": "inplace",
						"label": "address",
						"numberOfBytes": "20"
					},
					"t_array(t_address)dyn_storage": {
						"base": "t_address",
						"encoding": "dynamic_array",
						"label": "address[]",
						"numberOfBytes": "32"
					},
					"t_array(t_struct(Build)16_storage)dyn_storage": {
						"base": "t_struct(Build)16_storage",
						"encoding": "dynamic_array",
						"label": "struct BuildAgency.Build[]",
						"numberOfBytes": "32"
					},
					"t_array(t_struct(Gift)30_storage)dyn_storage": {
						"base": "t_struct(Gift)30_storage",
						"encoding": "dynamic_array",
						"label": "struct BuildAgency.Gift[]",
						"numberOfBytes": "32"
					},
					"t_array(t_struct(Sale)45_storage)dyn_storage": {
						"base": "t_struct(Sale)45_storage",
						"encoding": "dynamic_array",
						"label": "struct BuildAgency.Sale[]",
						"numberOfBytes": "32"
					},
					"t_array(t_uint256)dyn_storage": {
						"base": "t_uint256",
						"encoding": "dynamic_array",
						"label": "uint256[]",
						"numberOfBytes": "32"
					},
					"t_bool": {
						"encoding": "inplace",
						"label": "bool",
						"numberOfBytes": "1"
					},
					"t_enum(giftSTAT)51": {
						"encoding": "inplace",
						"label": "enum BuildAgency.giftSTAT",
						"numberOfBytes": "1"
					},
					"t_string_storage": {
						"encoding": "bytes",
						"label": "string",
						"numberOfBytes": "32"
					},
					"t_struct(Build)16_storage": {
						"encoding": "inplace",
						"label": "struct BuildAgency.Build",
						"members": [
							{
								"astId": 3,
								"contract": "contracts/agency.sol:BuildAgency",
								"label": "buildID",
								"offset": 0,
								"slot": "0",
								"type": "t_uint256"
							},
							{
								"astId": 5,
								"contract": "contracts/agency.sol:BuildAgency",
								"label": "owner",
								"offset": 0,
								"slot": "1",
								"type": "t_address"
							},
							{
								"astId": 7,
								"contract": "contracts/agency.sol:BuildAgency",
								"label": "info",
								"offset": 0,
								"slot": "2",
								"type": "t_string_storage"
							},
							{
								"astId": 9,
								"contract": "contracts/agency.sol:BuildAgency",
								"label": "square",
								"offset": 0,
								"slot": "3",
								"type": "t_uint256"
							},
							{
								"astId": 11,
								"contract": "contracts/agency.sol:BuildAgency",
								"label": "giftSTATE",
								"offset": 0,
								"slot": "4",
								"type": "t_bool"
							},
							{
								"astId": 13,
								"contract": "contracts/agency.sol:BuildAgency",
								"label": "saleSTATE",
								"offset": 1,
								"slot": "4",
								"type": "t_bool"
							},
							{
								"astId": 15,
								"contract": "contracts/agency.sol:BuildAgency",
								"label": "arestSTATE",
								"offset": 2,
								"slot": "4",
								"type": "t_bool"
							}
						],
						"numberOfBytes": "160"
					},
					"t_struct(Gift)30_storage": {
						"encoding": "inplace",
						"label": "struct BuildAgency.Gift",
						"members": [
							{
								"astId": 18,
								"contract": "contracts/agency.sol:BuildAgency",
								"label": "giftID",
								"offset": 0,
								"slot": "0",
								"type": "t_uint256"
							},
							{
								"astId": 20,
								"contract": "contracts/agency.sol:BuildAgency",
								"label": "buildID",
								"offset": 0,
								"slot": "1",
								"type": "t_uint256"
							},
							{
								"astId": 22,
								"contract": "contracts/agency.sol:BuildAgency",
								"label": "_adrFrom",
								"offset": 0,
								"slot": "2",
								"type": "t_address"
							},
							{
								"astId": 24,
								"contract": "contracts/agency.sol:BuildAgency",
								"label": "_adrTo",
								"offset": 0,
								"slot": "3",
								"type": "t_address"
							},
							{
								"astId": 26,
								"contract": "contracts/agency.sol:BuildAgency",
								"label": "time",
								"offset": 0,
								"slot": "4",
								"type": "t_uint256"
							},
							{
								"astId": 29,
								"contract": "contracts/agency.sol:BuildAgency",
								"label": "status",
								"offset": 0,
								"slot": "5",
								"type": "t_enum(giftSTAT)51"
							}
						],
						"numberOfBytes": "192"
					},
					"t_struct(Sale)45_storage": {
						"encoding": "inplace",
						"label": "struct BuildAgency.Sale",
						"members": [
							{
								"astId": 32,
								"contract": "contracts/agency.sol:BuildAgency",
								"label": "buildID",
								"offset": 0,
								"slot": "0",
								"type": "t_uint256"
							},
							{
								"astId": 34,
								"contract": "contracts/agency.sol:BuildAgency",
								"label": "owner",
								"offset": 0,
								"slot": "1",
								"type": "t_address"
							},
							{
								"astId": 36,
								"contract": "contracts/agency.sol:BuildAgency",
								"label": "newOwner",
								"offset": 0,
								"slot": "2",
								"type": "t_address"
							},
							{
								"astId": 38,
								"contract": "contracts/agency.sol:BuildAgency",
								"label": "price",
								"offset": 0,
								"slot": "3",
								"type": "t_uint256"
							},
							{
								"astId": 41,
								"contract": "contracts/agency.sol:BuildAgency",
								"label": "buyers",
								"offset": 0,
								"slot": "4",
								"type": "t_array(t_address)dyn_storage"
							},
							{
								"astId": 44,
								"contract": "contracts/agency.sol:BuildAgency",
								"label": "prices",
								"offset": 0,
								"slot": "5",
								"type": "t_array(t_uint256)dyn_storage"
							}
						],
						"numberOfBytes": "192"
					},
					"t_uint256": {
						"encoding": "inplace",
						"label": "uint256",
						"numberOfBytes": "32"
					}
				}
			},
			"userdoc": {
				"kind": "user",
				"methods": {},
				"version": 1
			}
		}
	}
}