{
	"contracts/agency.sol": {
		"BuildAgency": {
			"abi": [
				{
					"inputs": [
						{
							"internalType": "address",
							"name": "adminADR",
							"type": "address"
						}
					],
					"stateMutability": "nonpayable",
					"type": "constructor"
				},
				{
					"inputs": [
						{
							"internalType": "uint256",
							"name": "giftID",
							"type": "uint256"
						}
					],
					"name": "acceptGift",
					"outputs": [],
					"stateMutability": "nonpayable",
					"type": "function"
				},
				{
					"inputs": [
						{
							"internalType": "uint256",
							"name": "saleID",
							"type": "uint256"
						}
					],
					"name": "addPrice",
					"outputs": [],
					"stateMutability": "payable",
					"type": "function"
				},
				{
					"inputs": [],
					"name": "admin",
					"outputs": [
						{
							"internalType": "address",
							"name": "",
							"type": "address"
						}
					],
					"stateMutability": "view",
					"type": "function"
				},
				{
					"inputs": [
						{
							"internalType": "uint256",
							"name": "",
							"type": "uint256"
						}
					],
					"name": "buildings",
					"outputs": [
						{
							"internalType": "uint256",
							"name": "buildID",
							"type": "uint256"
						},
						{
							"internalType": "address",
							"name": "owner",
							"type": "address"
						},
						{
							"internalType": "string",
							"name": "info",
							"type": "string"
						},
						{
							"internalType": "uint256",
							"name": "square",
							"type": "uint256"
						},
						{
							"internalType": "bool",
							"name": "giftSTATE",
							"type": "bool"
						},
						{
							"internalType": "bool",
							"name": "saleSTATE",
							"type": "bool"
						},
						{
							"internalType": "bool",
							"name": "arestSTATE",
							"type": "bool"
						}
					],
					"stateMutability": "view",
					"type": "function"
				},
				{
					"inputs": [
						{
							"internalType": "uint256",
							"name": "giftID",
							"type": "uint256"
						}
					],
					"name": "cancelGift",
					"outputs": [],
					"stateMutability": "nonpayable",
					"type": "function"
				},
				{
					"inputs": [
						{
							"internalType": "uint256",
							"name": "buildID",
							"type": "uint256"
						},
						{
							"internalType": "bool",
							"name": "_newarest",
							"type": "bool"
						}
					],
					"name": "changeAREST",
					"outputs": [],
					"stateMutability": "nonpayable",
					"type": "function"
				},
				{
					"inputs": [
						{
							"internalType": "address",
							"name": "_owner",
							"type": "address"
						},
						{
							"internalType": "string",
							"name": "_info",
							"type": "string"
						},
						{
							"internalType": "uint256",
							"name": "_square",
							"type": "uint256"
						}
					],
					"name": "createBuild",
					"outputs": [],
					"stateMutability": "nonpayable",
					"type": "function"
				},
				{
					"inputs": [
						{
							"internalType": "uint256",
							"name": "buildID",
							"type": "uint256"
						},
						{
							"internalType": "address",
							"name": "_adrTo",
							"type": "address"
						}
					],
					"name": "createGift",
					"outputs": [],
					"stateMutability": "nonpayable",
					"type": "function"
				},
				{
					"inputs": [
						{
							"internalType": "uint256",
							"name": "buildID",
							"type": "uint256"
						},
						{
							"internalType": "uint256",
							"name": "_price",
							"type": "uint256"
						}
					],
					"name": "createSale",
					"outputs": [],
					"stateMutability": "nonpayable",
					"type": "function"
				},
				{
					"inputs": [
						{
							"internalType": "uint256",
							"name": "saleID",
							"type": "uint256"
						}
					],
					"name": "deletePrice",
					"outputs": [],
					"stateMutability": "payable",
					"type": "function"
				},
				{
					"inputs": [],
					"name": "giftTime",
					"outputs": [
						{
							"internalType": "uint256",
							"name": "",
							"type": "uint256"
						}
					],
					"stateMutability": "view",
					"type": "function"
				},
				{
					"inputs": [
						{
							"internalType": "uint256",
							"name": "",
							"type": "uint256"
						}
					],
					"name": "gifts",
					"outputs": [
						{
							"internalType": "uint256",
							"name": "giftID",
							"type": "uint256"
						},
						{
							"internalType": "uint256",
							"name": "buildID",
							"type": "uint256"
						},
						{
							"internalType": "address",
							"name": "_adrFrom",
							"type": "address"
						},
						{
							"internalType": "address",
							"name": "_adrTo",
							"type": "address"
						},
						{
							"internalType": "uint256",
							"name": "time",
							"type": "uint256"
						},
						{
							"internalType": "enum BuildAgency.giftSTAT",
							"name": "status",
							"type": "uint8"
						}
					],
					"stateMutability": "view",
					"type": "function"
				},
				{
					"inputs": [
						{
							"internalType": "uint256",
							"name": "giftID",
							"type": "uint256"
						}
					],
					"name": "refuseGift",
					"outputs": [],
					"stateMutability": "nonpayable",
					"type": "function"
				},
				{
					"inputs": [
						{
							"internalType": "uint256",
							"name": "",
							"type": "uint256"
						}
					],
					"name": "sales",
					"outputs": [
						{
							"internalType": "uint256",
							"name": "buildID",
							"type": "uint256"
						},
						{
							"internalType": "address",
							"name": "owner",
							"type": "address"
						},
						{
							"internalType": "address",
							"name": "newOwner",
							"type": "address"
						},
						{
							"internalType": "uint256",
							"name": "price",
							"type": "uint256"
						}
					],
					"stateMutability": "view",
					"type": "function"
				}
			],
			"devdoc": {
				"kind": "dev",
				"methods": {},
				"version": 1
			},
			"evm": {
				"assembly": "    /* \"contracts/agency.sol\":71:6209  contract BuildAgency {... */\n  mstore(0x40, 0x80)\n    /* \"contracts/agency.sol\":892:894  60 */\n  0x3c\n    /* \"contracts/agency.sol\":869:894  uint public giftTime = 60 */\n  0x04\n  sstore\n    /* \"contracts/agency.sol\":1444:1544  constructor(address adminADR){... */\n  callvalue\n  dup1\n  iszero\n  tag_1\n  jumpi\n  0x00\n  dup1\n  revert\ntag_1:\n  pop\n  mload(0x40)\n  sub(codesize, bytecodeSize)\n  dup1\n  bytecodeSize\n  dup4\n  codecopy\n  dup2\n  dup2\n  add\n  0x40\n  mstore\n  dup2\n  add\n  swap1\n  tag_2\n  swap2\n  swap1\n  tag_3\n  jump\t// in\ntag_2:\n    /* \"contracts/agency.sol\":1528:1536  adminADR */\n  dup1\n    /* \"contracts/agency.sol\":1520:1525  admin */\n  0x03\n  0x00\n    /* \"contracts/agency.sol\":1520:1536  admin = adminADR */\n  0x0100\n  exp\n  dup2\n  sload\n  dup2\n  0xffffffffffffffffffffffffffffffffffffffff\n  mul\n  not\n  and\n  swap1\n  dup4\n  0xffffffffffffffffffffffffffffffffffffffff\n  and\n  mul\n  or\n  swap1\n  sstore\n  pop\n    /* \"contracts/agency.sol\":1444:1544  constructor(address adminADR){... */\n  pop\n    /* \"contracts/agency.sol\":71:6209  contract BuildAgency {... */\n  jump(tag_6)\n    /* \"#utility.yul\":88:205   */\ntag_8:\n    /* \"#utility.yul\":197:198   */\n  0x00\n    /* \"#utility.yul\":194:195   */\n  dup1\n    /* \"#utility.yul\":187:199   */\n  revert\n    /* \"#utility.yul\":334:460   */\ntag_10:\n    /* \"#utility.yul\":371:378   */\n  0x00\n    /* \"#utility.yul\":411:453   */\n  0xffffffffffffffffffffffffffffffffffffffff\n    /* \"#utility.yul\":404:409   */\n  dup3\n    /* \"#utility.yul\":400:454   */\n  and\n    /* \"#utility.yul\":389:454   */\n  swap1\n  pop\n    /* \"#utility.yul\":334:460   */\n  swap2\n  swap1\n  pop\n  jump\t// out\n    /* \"#utility.yul\":466:562   */\ntag_11:\n    /* \"#utility.yul\":503:510   */\n  0x00\n    /* \"#utility.yul\":532:556   */\n  tag_20\n    /* \"#utility.yul\":550:555   */\n  dup3\n    /* \"#utility.yul\":532:556   */\n  tag_10\n  jump\t// in\ntag_20:\n    /* \"#utility.yul\":521:556   */\n  swap1\n  pop\n    /* \"#utility.yul\":466:562   */\n  swap2\n  swap1\n  pop\n  jump\t// out\n    /* \"#utility.yul\":568:690   */\ntag_12:\n    /* \"#utility.yul\":641:665   */\n  tag_22\n    /* \"#utility.yul\":659:664   */\n  dup2\n    /* \"#utility.yul\":641:665   */\n  tag_11\n  jump\t// in\ntag_22:\n    /* \"#utility.yul\":634:639   */\n  dup2\n    /* \"#utility.yul\":631:666   */\n  eq\n    /* \"#utility.yul\":621:684   */\n  tag_23\n  jumpi\n    /* \"#utility.yul\":680:681   */\n  0x00\n    /* \"#utility.yul\":677:678   */\n  dup1\n    /* \"#utility.yul\":670:682   */\n  revert\n    /* \"#utility.yul\":621:684   */\ntag_23:\n    /* \"#utility.yul\":568:690   */\n  pop\n  jump\t// out\n    /* \"#utility.yul\":696:839   */\ntag_13:\n    /* \"#utility.yul\":753:758   */\n  0x00\n    /* \"#utility.yul\":784:790   */\n  dup2\n    /* \"#utility.yul\":778:791   */\n  mload\n    /* \"#utility.yul\":769:791   */\n  swap1\n  pop\n    /* \"#utility.yul\":800:833   */\n  tag_25\n    /* \"#utility.yul\":827:832   */\n  dup2\n    /* \"#utility.yul\":800:833   */\n  tag_12\n  jump\t// in\ntag_25:\n    /* \"#utility.yul\":696:839   */\n  swap3\n  swap2\n  pop\n  pop\n  jump\t// out\n    /* \"#utility.yul\":845:1196   */\ntag_3:\n    /* \"#utility.yul\":915:921   */\n  0x00\n    /* \"#utility.yul\":964:966   */\n  0x20\n    /* \"#utility.yul\":952:961   */\n  dup3\n    /* \"#utility.yul\":943:950   */\n  dup5\n    /* \"#utility.yul\":939:962   */\n  sub\n    /* \"#utility.yul\":935:967   */\n  slt\n    /* \"#utility.yul\":932:1051   */\n  iszero\n  tag_27\n  jumpi\n    /* \"#utility.yul\":970:1049   */\n  tag_28\n  tag_8\n  jump\t// in\ntag_28:\n    /* \"#utility.yul\":932:1051   */\ntag_27:\n    /* \"#utility.yul\":1090:1091   */\n  0x00\n    /* \"#utility.yul\":1115:1179   */\n  tag_29\n    /* \"#utility.yul\":1171:1178   */\n  dup5\n    /* \"#utility.yul\":1162:1168   */\n  dup3\n    /* \"#utility.yul\":1151:1160   */\n  dup6\n    /* \"#utility.yul\":1147:1169   */\n  add\n    /* \"#utility.yul\":1115:1179   */\n  tag_13\n  jump\t// in\ntag_29:\n    /* \"#utility.yul\":1105:1179   */\n  swap2\n  pop\n    /* \"#utility.yul\":1061:1189   */\n  pop\n    /* \"#utility.yul\":845:1196   */\n  swap3\n  swap2\n  pop\n  pop\n  jump\t// out\n    /* \"contracts/agency.sol\":71:6209  contract BuildAgency {... */\ntag_6:\n  dataSize(sub_0)\n  dup1\n  dataOffset(sub_0)\n  0x00\n  codecopy\n  0x00\n  return\nstop\n\nsub_0: assembly {\n        /* \"contracts/agency.sol\":71:6209  contract BuildAgency {... */\n      mstore(0x40, 0x80)\n      jumpi(tag_1, lt(calldatasize, 0x04))\n      shr(0xe0, calldataload(0x00))\n      dup1\n      0x9a22ed8f\n      gt\n      tag_16\n      jumpi\n      dup1\n      0xd6065935\n      gt\n      tag_17\n      jumpi\n      dup1\n      0xd6065935\n      eq\n      tag_12\n      jumpi\n      dup1\n      0xdb4c049d\n      eq\n      tag_13\n      jumpi\n      dup1\n      0xe9f0ee56\n      eq\n      tag_14\n      jumpi\n      dup1\n      0xf851a440\n      eq\n      tag_15\n      jumpi\n      jump(tag_1)\n    tag_17:\n      dup1\n      0x9a22ed8f\n      eq\n      tag_9\n      jumpi\n      dup1\n      0xb5f522f7\n      eq\n      tag_10\n      jumpi\n      dup1\n      0xd0ab383a\n      eq\n      tag_11\n      jumpi\n      jump(tag_1)\n    tag_16:\n      dup1\n      0x4c96a062\n      gt\n      tag_18\n      jumpi\n      dup1\n      0x4c96a062\n      eq\n      tag_5\n      jumpi\n      dup1\n      0x58c97164\n      eq\n      tag_6\n      jumpi\n      dup1\n      0x6019061b\n      eq\n      tag_7\n      jumpi\n      dup1\n      0x8ee69ae8\n      eq\n      tag_8\n      jumpi\n      jump(tag_1)\n    tag_18:\n      dup1\n      0x06238e6e\n      eq\n      tag_2\n      jumpi\n      dup1\n      0x0a483421\n      eq\n      tag_3\n      jumpi\n      dup1\n      0x2a50fe2c\n      eq\n      tag_4\n      jumpi\n    tag_1:\n      0x00\n      dup1\n      revert\n        /* \"contracts/agency.sol\":1873:2077  function changeAREST(uint buildID, bool _newarest) public isAdmin{... */\n    tag_2:\n      callvalue\n      dup1\n      iszero\n      tag_19\n      jumpi\n      0x00\n      dup1\n      revert\n    tag_19:\n      pop\n      tag_20\n      0x04\n      dup1\n      calldatasize\n      sub\n      dup2\n      add\n      swap1\n      tag_21\n      swap2\n      swap1\n      tag_22\n      jump\t// in\n    tag_21:\n      tag_23\n      jump\t// in\n    tag_20:\n      stop\n        /* \"contracts/agency.sol\":869:894  uint public giftTime = 60 */\n    tag_3:\n      callvalue\n      dup1\n      iszero\n      tag_24\n      jumpi\n      0x00\n      dup1\n      revert\n    tag_24:\n      pop\n      tag_25\n      tag_26\n      jump\t// in\n    tag_25:\n      mload(0x40)\n      tag_27\n      swap2\n      swap1\n      tag_28\n      jump\t// in\n    tag_27:\n      mload(0x40)\n      dup1\n      swap2\n      sub\n      swap1\n      return\n        /* \"contracts/agency.sol\":5607:6204  function deletePrice(uint saleID) public payable {... */\n    tag_4:\n      tag_29\n      0x04\n      dup1\n      calldatasize\n      sub\n      dup2\n      add\n      swap1\n      tag_30\n      swap2\n      swap1\n      tag_31\n      jump\t// in\n    tag_30:\n      tag_32\n      jump\t// in\n    tag_29:\n      stop\n        /* \"contracts/agency.sol\":759:783  Build[] public buildings */\n    tag_5:\n      callvalue\n      dup1\n      iszero\n      tag_33\n      jumpi\n      0x00\n      dup1\n      revert\n    tag_33:\n      pop\n      tag_34\n      0x04\n      dup1\n      calldatasize\n      sub\n      dup2\n      add\n      swap1\n      tag_35\n      swap2\n      swap1\n      tag_31\n      jump\t// in\n    tag_35:\n      tag_36\n      jump\t// in\n    tag_34:\n      mload(0x40)\n      tag_37\n      swap8\n      swap7\n      swap6\n      swap5\n      swap4\n      swap3\n      swap2\n      swap1\n      tag_38\n      jump\t// in\n    tag_37:\n      mload(0x40)\n      dup1\n      swap2\n      sub\n      swap1\n      return\n        /* \"contracts/agency.sol\":2101:2544  function createGift(uint buildID, address _adrTo) public onlyOwner(buildID) defaultSTATUS(buildID){... */\n    tag_6:\n      callvalue\n      dup1\n      iszero\n      tag_39\n      jumpi\n      0x00\n      dup1\n      revert\n    tag_39:\n      pop\n      tag_40\n      0x04\n      dup1\n      calldatasize\n      sub\n      dup2\n      add\n      swap1\n      tag_41\n      swap2\n      swap1\n      tag_42\n      jump\t// in\n    tag_41:\n      tag_43\n      jump\t// in\n    tag_40:\n      stop\n        /* \"contracts/agency.sol\":4348:4756  function createSale(uint buildID, uint _price) public onlyOwner(buildID) defaultSTATUS(buildID){... */\n    tag_7:\n      callvalue\n      dup1\n      iszero\n      tag_44\n      jumpi\n      0x00\n      dup1\n      revert\n    tag_44:\n      pop\n      tag_45\n      0x04\n      dup1\n      calldatasize\n      sub\n      dup2\n      add\n      swap1\n      tag_46\n      swap2\n      swap1\n      tag_47\n      jump\t// in\n    tag_46:\n      tag_48\n      jump\t// in\n    tag_45:\n      stop\n        /* \"contracts/agency.sol\":2556:3092  function cancelGift(uint giftID) public{... */\n    tag_8:\n      callvalue\n      dup1\n      iszero\n      tag_49\n      jumpi\n      0x00\n      dup1\n      revert\n    tag_49:\n      pop\n      tag_50\n      0x04\n      dup1\n      calldatasize\n      sub\n      dup2\n      add\n      swap1\n      tag_51\n      swap2\n      swap1\n      tag_31\n      jump\t// in\n    tag_51:\n      tag_52\n      jump\t// in\n    tag_50:\n      stop\n        /* \"contracts/agency.sol\":1567:1861  function createBuild(address _owner, string memory _info, uint _square) public isAdmin {... */\n    tag_9:\n      callvalue\n      dup1\n      iszero\n      tag_53\n      jumpi\n      0x00\n      dup1\n      revert\n    tag_53:\n      pop\n      tag_54\n      0x04\n      dup1\n      calldatasize\n      sub\n      dup2\n      add\n      swap1\n      tag_55\n      swap2\n      swap1\n      tag_56\n      jump\t// in\n    tag_55:\n      tag_57\n      jump\t// in\n    tag_54:\n      stop\n        /* \"contracts/agency.sol\":816:835  Sale[] public sales */\n    tag_10:\n      callvalue\n      dup1\n      iszero\n      tag_58\n      jumpi\n      0x00\n      dup1\n      revert\n    tag_58:\n      pop\n      tag_59\n      0x04\n      dup1\n      calldatasize\n      sub\n      dup2\n      add\n      swap1\n      tag_60\n      swap2\n      swap1\n      tag_31\n      jump\t// in\n    tag_60:\n      tag_61\n      jump\t// in\n    tag_59:\n      mload(0x40)\n      tag_62\n      swap5\n      swap4\n      swap3\n      swap2\n      swap1\n      tag_63\n      jump\t// in\n    tag_62:\n      mload(0x40)\n      dup1\n      swap2\n      sub\n      swap1\n      return\n        /* \"contracts/agency.sol\":3100:3771  function acceptGift(uint giftID) public{... */\n    tag_11:\n      callvalue\n      dup1\n      iszero\n      tag_64\n      jumpi\n      0x00\n      dup1\n      revert\n    tag_64:\n      pop\n      tag_65\n      0x04\n      dup1\n      calldatasize\n      sub\n      dup2\n      add\n      swap1\n      tag_66\n      swap2\n      swap1\n      tag_31\n      jump\t// in\n    tag_66:\n      tag_67\n      jump\t// in\n    tag_65:\n      stop\n        /* \"contracts/agency.sol\":790:809  Gift[] public gifts */\n    tag_12:\n      callvalue\n      dup1\n      iszero\n      tag_68\n      jumpi\n      0x00\n      dup1\n      revert\n    tag_68:\n      pop\n      tag_69\n      0x04\n      dup1\n      calldatasize\n      sub\n      dup2\n      add\n      swap1\n      tag_70\n      swap2\n      swap1\n      tag_31\n      jump\t// in\n    tag_70:\n      tag_71\n      jump\t// in\n    tag_69:\n      mload(0x40)\n      tag_72\n      swap7\n      swap6\n      swap5\n      swap4\n      swap3\n      swap2\n      swap1\n      tag_73\n      jump\t// in\n    tag_72:\n      mload(0x40)\n      dup1\n      swap2\n      sub\n      swap1\n      return\n        /* \"contracts/agency.sol\":3783:4325  function refuseGift(uint giftID) public {... */\n    tag_13:\n      callvalue\n      dup1\n      iszero\n      tag_74\n      jumpi\n      0x00\n      dup1\n      revert\n    tag_74:\n      pop\n      tag_75\n      0x04\n      dup1\n      calldatasize\n      sub\n      dup2\n      add\n      swap1\n      tag_76\n      swap2\n      swap1\n      tag_31\n      jump\t// in\n    tag_76:\n      tag_77\n      jump\t// in\n    tag_75:\n      stop\n        /* \"contracts/agency.sol\":4766:5599  function addPrice(uint saleID) public payable {... */\n    tag_14:\n      tag_78\n      0x04\n      dup1\n      calldatasize\n      sub\n      dup2\n      add\n      swap1\n      tag_79\n      swap2\n      swap1\n      tag_31\n      jump\t// in\n    tag_79:\n      tag_80\n      jump\t// in\n    tag_78:\n      stop\n        /* \"contracts/agency.sol\":842:862  address public admin */\n    tag_15:\n      callvalue\n      dup1\n      iszero\n      tag_81\n      jumpi\n      0x00\n      dup1\n      revert\n    tag_81:\n      pop\n      tag_82\n      tag_83\n      jump\t// in\n    tag_82:\n      mload(0x40)\n      tag_84\n      swap2\n      swap1\n      tag_85\n      jump\t// in\n    tag_84:\n      mload(0x40)\n      dup1\n      swap2\n      sub\n      swap1\n      return\n        /* \"contracts/agency.sol\":1873:2077  function changeAREST(uint buildID, bool _newarest) public isAdmin{... */\n    tag_23:\n        /* \"contracts/agency.sol\":955:960  admin */\n      0x03\n      0x00\n      swap1\n      sload\n      swap1\n      0x0100\n      exp\n      swap1\n      div\n      0xffffffffffffffffffffffffffffffffffffffff\n      and\n        /* \"contracts/agency.sol\":941:960  msg.sender == admin */\n      0xffffffffffffffffffffffffffffffffffffffff\n      and\n        /* \"contracts/agency.sol\":941:951  msg.sender */\n      caller\n        /* \"contracts/agency.sol\":941:960  msg.sender == admin */\n      0xffffffffffffffffffffffffffffffffffffffff\n      and\n      eq\n        /* \"contracts/agency.sol\":933:982  require(msg.sender == admin, \"You are not admin\") */\n      tag_87\n      jumpi\n      mload(0x40)\n      0x08c379a000000000000000000000000000000000000000000000000000000000\n      dup2\n      mstore\n      0x04\n      add\n      tag_88\n      swap1\n      tag_89\n      jump\t// in\n    tag_88:\n      mload(0x40)\n      dup1\n      swap2\n      sub\n      swap1\n      revert\n    tag_87:\n        /* \"contracts/agency.sol\":1970:1979  buildings */\n      0x00\n        /* \"contracts/agency.sol\":1980:1987  buildID */\n      dup3\n        /* \"contracts/agency.sol\":1970:1988  buildings[buildID] */\n      dup2\n      sload\n      dup2\n      lt\n      tag_91\n      jumpi\n      tag_92\n      tag_93\n      jump\t// in\n    tag_92:\n    tag_91:\n      swap1\n      0x00\n      mstore\n      keccak256(0x00, 0x20)\n      swap1\n      0x05\n      mul\n      add\n        /* \"contracts/agency.sol\":1970:1999  buildings[buildID].arestSTATE */\n      0x04\n      add\n      0x02\n      swap1\n      sload\n      swap1\n      0x0100\n      exp\n      swap1\n      div\n      0xff\n      and\n        /* \"contracts/agency.sol\":1957:1999  _newarest != buildings[buildID].arestSTATE */\n      iszero\n      iszero\n        /* \"contracts/agency.sol\":1957:1966  _newarest */\n      dup2\n        /* \"contracts/agency.sol\":1957:1999  _newarest != buildings[buildID].arestSTATE */\n      iszero\n      iszero\n      sub\n        /* \"contracts/agency.sol\":1949:2017  require(_newarest != buildings[buildID].arestSTATE,\"the same arest\") */\n      tag_95\n      jumpi\n      mload(0x40)\n      0x08c379a000000000000000000000000000000000000000000000000000000000\n      dup2\n      mstore\n      0x04\n      add\n      tag_96\n      swap1\n      tag_97\n      jump\t// in\n    tag_96:\n      mload(0x40)\n      dup1\n      swap2\n      sub\n      swap1\n      revert\n    tag_95:\n        /* \"contracts/agency.sol\":2060:2069  _newarest */\n      dup1\n        /* \"contracts/agency.sol\":2028:2037  buildings */\n      0x00\n        /* \"contracts/agency.sol\":2038:2045  buildID */\n      dup4\n        /* \"contracts/agency.sol\":2028:2046  buildings[buildID] */\n      dup2\n      sload\n      dup2\n      lt\n      tag_98\n      jumpi\n      tag_99\n      tag_93\n      jump\t// in\n    tag_99:\n    tag_98:\n      swap1\n      0x00\n      mstore\n      keccak256(0x00, 0x20)\n      swap1\n      0x05\n      mul\n      add\n        /* \"contracts/agency.sol\":2028:2057  buildings[buildID].arestSTATE */\n      0x04\n      add\n      0x02\n        /* \"contracts/agency.sol\":2028:2069  buildings[buildID].arestSTATE = _newarest */\n      0x0100\n      exp\n      dup2\n      sload\n      dup2\n      0xff\n      mul\n      not\n      and\n      swap1\n      dup4\n      iszero\n      iszero\n      mul\n      or\n      swap1\n      sstore\n      pop\n        /* \"contracts/agency.sol\":1873:2077  function changeAREST(uint buildID, bool _newarest) public isAdmin{... */\n      pop\n      pop\n      jump\t// out\n        /* \"contracts/agency.sol\":869:894  uint public giftTime = 60 */\n    tag_26:\n      sload(0x04)\n      dup2\n      jump\t// out\n        /* \"contracts/agency.sol\":5607:6204  function deletePrice(uint saleID) public payable {... */\n    tag_32:\n        /* \"contracts/agency.sol\":5684:5689  sales */\n      0x02\n        /* \"contracts/agency.sol\":5684:5696  sales.length */\n      dup1\n      sload\n      swap1\n      pop\n        /* \"contracts/agency.sol\":5675:5681  saleID */\n      dup2\n        /* \"contracts/agency.sol\":5675:5696  saleID < sales.length */\n      lt\n        /* \"contracts/agency.sol\":5667:5718  require(saleID < sales.length,\"wrong saleID value\") */\n      tag_102\n      jumpi\n      mload(0x40)\n      0x08c379a000000000000000000000000000000000000000000000000000000000\n      dup2\n      mstore\n      0x04\n      add\n      tag_103\n      swap1\n      tag_104\n      jump\t// in\n    tag_103:\n      mload(0x40)\n      dup1\n      swap2\n      sub\n      swap1\n      revert\n    tag_102:\n        /* \"contracts/agency.sol\":5771:5772  0 */\n      0x00\n        /* \"contracts/agency.sol\":5737:5773  sales[saleID].newOwner == address(0) */\n      0xffffffffffffffffffffffffffffffffffffffff\n      and\n        /* \"contracts/agency.sol\":5737:5742  sales */\n      0x02\n        /* \"contracts/agency.sol\":5743:5749  saleID */\n      dup3\n        /* \"contracts/agency.sol\":5737:5750  sales[saleID] */\n      dup2\n      sload\n      dup2\n      lt\n      tag_105\n      jumpi\n      tag_106\n      tag_93\n      jump\t// in\n    tag_106:\n    tag_105:\n      swap1\n      0x00\n      mstore\n      keccak256(0x00, 0x20)\n      swap1\n      0x06\n      mul\n      add\n        /* \"contracts/agency.sol\":5737:5759  sales[saleID].newOwner */\n      0x02\n      add\n      0x00\n      swap1\n      sload\n      swap1\n      0x0100\n      exp\n      swap1\n      div\n      0xffffffffffffffffffffffffffffffffffffffff\n      and\n        /* \"contracts/agency.sol\":5737:5773  sales[saleID].newOwner == address(0) */\n      0xffffffffffffffffffffffffffffffffffffffff\n      and\n      eq\n        /* \"contracts/agency.sol\":5729:5792  require(sales[saleID].newOwner == address(0), \"Sale is closed\") */\n      tag_108\n      jumpi\n      mload(0x40)\n      0x08c379a000000000000000000000000000000000000000000000000000000000\n      dup2\n      mstore\n      0x04\n      add\n      tag_109\n      swap1\n      tag_110\n      jump\t// in\n    tag_109:\n      mload(0x40)\n      dup1\n      swap2\n      sub\n      swap1\n      revert\n    tag_108:\n        /* \"contracts/agency.sol\":5808:5814  uint i */\n      0x00\n        /* \"contracts/agency.sol\":5803:6195  for (uint i = 0; i < sales[saleID].buyers.length; i++){... */\n    tag_111:\n        /* \"contracts/agency.sol\":5824:5829  sales */\n      0x02\n        /* \"contracts/agency.sol\":5830:5836  saleID */\n      dup3\n        /* \"contracts/agency.sol\":5824:5837  sales[saleID] */\n      dup2\n      sload\n      dup2\n      lt\n      tag_114\n      jumpi\n      tag_115\n      tag_93\n      jump\t// in\n    tag_115:\n    tag_114:\n      swap1\n      0x00\n      mstore\n      keccak256(0x00, 0x20)\n      swap1\n      0x06\n      mul\n      add\n        /* \"contracts/agency.sol\":5824:5844  sales[saleID].buyers */\n      0x04\n      add\n        /* \"contracts/agency.sol\":5824:5851  sales[saleID].buyers.length */\n      dup1\n      sload\n      swap1\n      pop\n        /* \"contracts/agency.sol\":5820:5821  i */\n      dup2\n        /* \"contracts/agency.sol\":5820:5851  i < sales[saleID].buyers.length */\n      lt\n        /* \"contracts/agency.sol\":5803:6195  for (uint i = 0; i < sales[saleID].buyers.length; i++){... */\n      iszero\n      tag_112\n      jumpi\n        /* \"contracts/agency.sol\":5903:5913  msg.sender */\n      caller\n        /* \"contracts/agency.sol\":5876:5913  sales[saleID].buyers[i] == msg.sender */\n      0xffffffffffffffffffffffffffffffffffffffff\n      and\n        /* \"contracts/agency.sol\":5876:5881  sales */\n      0x02\n        /* \"contracts/agency.sol\":5882:5888  saleID */\n      dup4\n        /* \"contracts/agency.sol\":5876:5889  sales[saleID] */\n      dup2\n      sload\n      dup2\n      lt\n      tag_117\n      jumpi\n      tag_118\n      tag_93\n      jump\t// in\n    tag_118:\n    tag_117:\n      swap1\n      0x00\n      mstore\n      keccak256(0x00, 0x20)\n      swap1\n      0x06\n      mul\n      add\n        /* \"contracts/agency.sol\":5876:5896  sales[saleID].buyers */\n      0x04\n      add\n        /* \"contracts/agency.sol\":5897:5898  i */\n      dup3\n        /* \"contracts/agency.sol\":5876:5899  sales[saleID].buyers[i] */\n      dup2\n      sload\n      dup2\n      lt\n      tag_120\n      jumpi\n      tag_121\n      tag_93\n      jump\t// in\n    tag_121:\n    tag_120:\n      swap1\n      0x00\n      mstore\n      keccak256(0x00, 0x20)\n      add\n      0x00\n      swap1\n      sload\n      swap1\n      0x0100\n      exp\n      swap1\n      div\n      0xffffffffffffffffffffffffffffffffffffffff\n      and\n        /* \"contracts/agency.sol\":5876:5913  sales[saleID].buyers[i] == msg.sender */\n      0xffffffffffffffffffffffffffffffffffffffff\n      and\n      sub\n        /* \"contracts/agency.sol\":5872:6184  if (sales[saleID].buyers[i] == msg.sender) {... */\n      tag_123\n      jumpi\n        /* \"contracts/agency.sol\":5934:5944  uint price */\n      0x00\n        /* \"contracts/agency.sol\":5947:5952  sales */\n      0x02\n        /* \"contracts/agency.sol\":5953:5959  saleID */\n      dup4\n        /* \"contracts/agency.sol\":5947:5960  sales[saleID] */\n      dup2\n      sload\n      dup2\n      lt\n      tag_124\n      jumpi\n      tag_125\n      tag_93\n      jump\t// in\n    tag_125:\n    tag_124:\n      swap1\n      0x00\n      mstore\n      keccak256(0x00, 0x20)\n      swap1\n      0x06\n      mul\n      add\n        /* \"contracts/agency.sol\":5947:5967  sales[saleID].prices */\n      0x05\n      add\n        /* \"contracts/agency.sol\":5968:5969  i */\n      dup3\n        /* \"contracts/agency.sol\":5947:5970  sales[saleID].prices[i] */\n      dup2\n      sload\n      dup2\n      lt\n      tag_127\n      jumpi\n      tag_128\n      tag_93\n      jump\t// in\n    tag_128:\n    tag_127:\n      swap1\n      0x00\n      mstore\n      keccak256(0x00, 0x20)\n      add\n      sload\n        /* \"contracts/agency.sol\":5934:5970  uint price = sales[saleID].prices[i] */\n      swap1\n      pop\n        /* \"contracts/agency.sol\":6006:6007  0 */\n      0x00\n        /* \"contracts/agency.sol\":5997:6002  price */\n      dup2\n        /* \"contracts/agency.sol\":5997:6007  price != 0 */\n      sub\n        /* \"contracts/agency.sol\":5989:6026  require(price != 0, \"you price is 0\") */\n      tag_130\n      jumpi\n      mload(0x40)\n      0x08c379a000000000000000000000000000000000000000000000000000000000\n      dup2\n      mstore\n      0x04\n      add\n      tag_131\n      swap1\n      tag_132\n      jump\t// in\n    tag_131:\n      mload(0x40)\n      dup1\n      swap2\n      sub\n      swap1\n      revert\n    tag_130:\n        /* \"contracts/agency.sol\":6053:6063  msg.sender */\n      caller\n        /* \"contracts/agency.sol\":6045:6073  payable(msg.sender).transfer */\n      0xffffffffffffffffffffffffffffffffffffffff\n      and\n        /* \"contracts/agency.sol\":6045:6098  payable(msg.sender).transfer(sales[saleID].prices[i]) */\n      0x08fc\n        /* \"contracts/agency.sol\":6074:6079  sales */\n      0x02\n        /* \"contracts/agency.sol\":6080:6086  saleID */\n      dup6\n        /* \"contracts/agency.sol\":6074:6087  sales[saleID] */\n      dup2\n      sload\n      dup2\n      lt\n      tag_133\n      jumpi\n      tag_134\n      tag_93\n      jump\t// in\n    tag_134:\n    tag_133:\n      swap1\n      0x00\n      mstore\n      keccak256(0x00, 0x20)\n      swap1\n      0x06\n      mul\n      add\n        /* \"contracts/agency.sol\":6074:6094  sales[saleID].prices */\n      0x05\n      add\n        /* \"contracts/agency.sol\":6095:6096  i */\n      dup5\n        /* \"contracts/agency.sol\":6074:6097  sales[saleID].prices[i] */\n      dup2\n      sload\n      dup2\n      lt\n      tag_136\n      jumpi\n      tag_137\n      tag_93\n      jump\t// in\n    tag_137:\n    tag_136:\n      swap1\n      0x00\n      mstore\n      keccak256(0x00, 0x20)\n      add\n      sload\n        /* \"contracts/agency.sol\":6045:6098  payable(msg.sender).transfer(sales[saleID].prices[i]) */\n      swap1\n      dup2\n      iszero\n      mul\n      swap1\n      mload(0x40)\n      0x00\n      mload(0x40)\n      dup1\n      dup4\n      sub\n      dup2\n      dup6\n      dup9\n      dup9\n      call\n      swap4\n      pop\n      pop\n      pop\n      pop\n      iszero\n      dup1\n      iszero\n      tag_140\n      jumpi\n      returndatasize\n      0x00\n      dup1\n      returndatacopy\n      revert(0x00, returndatasize)\n    tag_140:\n      pop\n        /* \"contracts/agency.sol\":6143:6144  0 */\n      0x00\n        /* \"contracts/agency.sol\":6117:6122  sales */\n      0x02\n        /* \"contracts/agency.sol\":6123:6129  saleID */\n      dup5\n        /* \"contracts/agency.sol\":6117:6130  sales[saleID] */\n      dup2\n      sload\n      dup2\n      lt\n      tag_141\n      jumpi\n      tag_142\n      tag_93\n      jump\t// in\n    tag_142:\n    tag_141:\n      swap1\n      0x00\n      mstore\n      keccak256(0x00, 0x20)\n      swap1\n      0x06\n      mul\n      add\n        /* \"contracts/agency.sol\":6117:6137  sales[saleID].prices */\n      0x05\n      add\n        /* \"contracts/agency.sol\":6138:6139  i */\n      dup4\n        /* \"contracts/agency.sol\":6117:6140  sales[saleID].prices[i] */\n      dup2\n      sload\n      dup2\n      lt\n      tag_144\n      jumpi\n      tag_145\n      tag_93\n      jump\t// in\n    tag_145:\n    tag_144:\n      swap1\n      0x00\n      mstore\n      keccak256(0x00, 0x20)\n      add\n        /* \"contracts/agency.sol\":6117:6144  sales[saleID].prices[i] = 0 */\n      dup2\n      swap1\n      sstore\n      pop\n        /* \"contracts/agency.sol\":6163:6168  break */\n      pop\n      jump(tag_112)\n        /* \"contracts/agency.sol\":5872:6184  if (sales[saleID].buyers[i] == msg.sender) {... */\n    tag_123:\n        /* \"contracts/agency.sol\":5853:5856  i++ */\n      dup1\n      dup1\n      0x01\n      add\n      swap2\n      pop\n      pop\n        /* \"contracts/agency.sol\":5803:6195  for (uint i = 0; i < sales[saleID].buyers.length; i++){... */\n      jump(tag_111)\n    tag_112:\n      pop\n        /* \"contracts/agency.sol\":5607:6204  function deletePrice(uint saleID) public payable {... */\n      pop\n      jump\t// out\n        /* \"contracts/agency.sol\":759:783  Build[] public buildings */\n    tag_36:\n      0x00\n      dup2\n      dup2\n      sload\n      dup2\n      lt\n      tag_147\n      jumpi\n      0x00\n      dup1\n      revert\n    tag_147:\n      swap1\n      0x00\n      mstore\n      keccak256(0x00, 0x20)\n      swap1\n      0x05\n      mul\n      add\n      0x00\n      swap2\n      pop\n      swap1\n      pop\n      dup1\n      0x00\n      add\n      sload\n      swap1\n      dup1\n      0x01\n      add\n      0x00\n      swap1\n      sload\n      swap1\n      0x0100\n      exp\n      swap1\n      div\n      0xffffffffffffffffffffffffffffffffffffffff\n      and\n      swap1\n      dup1\n      0x02\n      add\n      dup1\n      sload\n      tag_149\n      swap1\n      tag_150\n      jump\t// in\n    tag_149:\n      dup1\n      0x1f\n      add\n      0x20\n      dup1\n      swap2\n      div\n      mul\n      0x20\n      add\n      mload(0x40)\n      swap1\n      dup2\n      add\n      0x40\n      mstore\n      dup1\n      swap3\n      swap2\n      swap1\n      dup2\n      dup2\n      mstore\n      0x20\n      add\n      dup3\n      dup1\n      sload\n      tag_151\n      swap1\n      tag_150\n      jump\t// in\n    tag_151:\n      dup1\n      iszero\n      tag_152\n      jumpi\n      dup1\n      0x1f\n      lt\n      tag_153\n      jumpi\n      0x0100\n      dup1\n      dup4\n      sload\n      div\n      mul\n      dup4\n      mstore\n      swap2\n      0x20\n      add\n      swap2\n      jump(tag_152)\n    tag_153:\n      dup3\n      add\n      swap2\n      swap1\n      0x00\n      mstore\n      keccak256(0x00, 0x20)\n      swap1\n    tag_154:\n      dup2\n      sload\n      dup2\n      mstore\n      swap1\n      0x01\n      add\n      swap1\n      0x20\n      add\n      dup1\n      dup4\n      gt\n      tag_154\n      jumpi\n      dup3\n      swap1\n      sub\n      0x1f\n      and\n      dup3\n      add\n      swap2\n    tag_152:\n      pop\n      pop\n      pop\n      pop\n      pop\n      swap1\n      dup1\n      0x03\n      add\n      sload\n      swap1\n      dup1\n      0x04\n      add\n      0x00\n      swap1\n      sload\n      swap1\n      0x0100\n      exp\n      swap1\n      div\n      0xff\n      and\n      swap1\n      dup1\n      0x04\n      add\n      0x01\n      swap1\n      sload\n      swap1\n      0x0100\n      exp\n      swap1\n      div\n      0xff\n      and\n      swap1\n      dup1\n      0x04\n      add\n      0x02\n      swap1\n      sload\n      swap1\n      0x0100\n      exp\n      swap1\n      div\n      0xff\n      and\n      swap1\n      pop\n      dup8\n      jump\t// out\n        /* \"contracts/agency.sol\":2101:2544  function createGift(uint buildID, address _adrTo) public onlyOwner(buildID) defaultSTATUS(buildID){... */\n    tag_43:\n        /* \"contracts/agency.sol\":2168:2175  buildID */\n      dup2\n        /* \"contracts/agency.sol\":1088:1098  msg.sender */\n      caller\n        /* \"contracts/agency.sol\":1060:1098  buildings[buildID].owner == msg.sender */\n      0xffffffffffffffffffffffffffffffffffffffff\n      and\n        /* \"contracts/agency.sol\":1060:1069  buildings */\n      0x00\n        /* \"contracts/agency.sol\":1070:1077  buildID */\n      dup3\n        /* \"contracts/agency.sol\":1060:1078  buildings[buildID] */\n      dup2\n      sload\n      dup2\n      lt\n      tag_156\n      jumpi\n      tag_157\n      tag_93\n      jump\t// in\n    tag_157:\n    tag_156:\n      swap1\n      0x00\n      mstore\n      keccak256(0x00, 0x20)\n      swap1\n      0x05\n      mul\n      add\n        /* \"contracts/agency.sol\":1060:1084  buildings[buildID].owner */\n      0x01\n      add\n      0x00\n      swap1\n      sload\n      swap1\n      0x0100\n      exp\n      swap1\n      div\n      0xffffffffffffffffffffffffffffffffffffffff\n      and\n        /* \"contracts/agency.sol\":1060:1098  buildings[buildID].owner == msg.sender */\n      0xffffffffffffffffffffffffffffffffffffffff\n      and\n      eq\n        /* \"contracts/agency.sol\":1052:1120  require(buildings[buildID].owner == msg.sender, \"Is not your build\") */\n      tag_159\n      jumpi\n      mload(0x40)\n      0x08c379a000000000000000000000000000000000000000000000000000000000\n      dup2\n      mstore\n      0x04\n      add\n      tag_160\n      swap1\n      tag_161\n      jump\t// in\n    tag_160:\n      mload(0x40)\n      dup1\n      swap2\n      sub\n      swap1\n      revert\n    tag_159:\n        /* \"contracts/agency.sol\":2191:2198  buildID */\n      dup3\n        /* \"contracts/agency.sol\":1234:1239  false */\n      0x00\n        /* \"contracts/agency.sol\":1202:1239  buildings[buildID].giftSTATE == false */\n      iszero\n      iszero\n        /* \"contracts/agency.sol\":1202:1211  buildings */\n      0x00\n        /* \"contracts/agency.sol\":1212:1219  buildID */\n      dup3\n        /* \"contracts/agency.sol\":1202:1220  buildings[buildID] */\n      dup2\n      sload\n      dup2\n      lt\n      tag_163\n      jumpi\n      tag_164\n      tag_93\n      jump\t// in\n    tag_164:\n    tag_163:\n      swap1\n      0x00\n      mstore\n      keccak256(0x00, 0x20)\n      swap1\n      0x05\n      mul\n      add\n        /* \"contracts/agency.sol\":1202:1230  buildings[buildID].giftSTATE */\n      0x04\n      add\n      0x00\n      swap1\n      sload\n      swap1\n      0x0100\n      exp\n      swap1\n      div\n      0xff\n      and\n        /* \"contracts/agency.sol\":1202:1239  buildings[buildID].giftSTATE == false */\n      iszero\n      iszero\n      eq\n        /* \"contracts/agency.sol\":1194:1262  require(buildings[buildID].giftSTATE == false, \"Already in present\") */\n      tag_166\n      jumpi\n      mload(0x40)\n      0x08c379a000000000000000000000000000000000000000000000000000000000\n      dup2\n      mstore\n      0x04\n      add\n      tag_167\n      swap1\n      tag_168\n      jump\t// in\n    tag_167:\n      mload(0x40)\n      dup1\n      swap2\n      sub\n      swap1\n      revert\n    tag_166:\n        /* \"contracts/agency.sol\":1313:1318  false */\n      0x00\n        /* \"contracts/agency.sol\":1281:1318  buildings[buildID].saleSTATE == false */\n      iszero\n      iszero\n        /* \"contracts/agency.sol\":1281:1290  buildings */\n      0x00\n        /* \"contracts/agency.sol\":1291:1298  buildID */\n      dup3\n        /* \"contracts/agency.sol\":1281:1299  buildings[buildID] */\n      dup2\n      sload\n      dup2\n      lt\n      tag_169\n      jumpi\n      tag_170\n      tag_93\n      jump\t// in\n    tag_170:\n    tag_169:\n      swap1\n      0x00\n      mstore\n      keccak256(0x00, 0x20)\n      swap1\n      0x05\n      mul\n      add\n        /* \"contracts/agency.sol\":1281:1309  buildings[buildID].saleSTATE */\n      0x04\n      add\n      0x01\n      swap1\n      sload\n      swap1\n      0x0100\n      exp\n      swap1\n      div\n      0xff\n      and\n        /* \"contracts/agency.sol\":1281:1318  buildings[buildID].saleSTATE == false */\n      iszero\n      iszero\n      eq\n        /* \"contracts/agency.sol\":1273:1338  require(buildings[buildID].saleSTATE == false, \"Already in sale\") */\n      tag_172\n      jumpi\n      mload(0x40)\n      0x08c379a000000000000000000000000000000000000000000000000000000000\n      dup2\n      mstore\n      0x04\n      add\n      tag_173\n      swap1\n      tag_174\n      jump\t// in\n    tag_173:\n      mload(0x40)\n      dup1\n      swap2\n      sub\n      swap1\n      revert\n    tag_172:\n        /* \"contracts/agency.sol\":1390:1395  false */\n      0x00\n        /* \"contracts/agency.sol\":1357:1395  buildings[buildID].arestSTATE == false */\n      iszero\n      iszero\n        /* \"contracts/agency.sol\":1357:1366  buildings */\n      0x00\n        /* \"contracts/agency.sol\":1367:1374  buildID */\n      dup3\n        /* \"contracts/agency.sol\":1357:1375  buildings[buildID] */\n      dup2\n      sload\n      dup2\n      lt\n      tag_175\n      jumpi\n      tag_176\n      tag_93\n      jump\t// in\n    tag_176:\n    tag_175:\n      swap1\n      0x00\n      mstore\n      keccak256(0x00, 0x20)\n      swap1\n      0x05\n      mul\n      add\n        /* \"contracts/agency.sol\":1357:1386  buildings[buildID].arestSTATE */\n      0x04\n      add\n      0x02\n      swap1\n      sload\n      swap1\n      0x0100\n      exp\n      swap1\n      div\n      0xff\n      and\n        /* \"contracts/agency.sol\":1357:1395  buildings[buildID].arestSTATE == false */\n      iszero\n      iszero\n      eq\n        /* \"contracts/agency.sol\":1349:1414  require(buildings[buildID].arestSTATE == false, \"Build in arest\") */\n      tag_178\n      jumpi\n      mload(0x40)\n      0x08c379a000000000000000000000000000000000000000000000000000000000\n      dup2\n      mstore\n      0x04\n      add\n      tag_179\n      swap1\n      tag_180\n      jump\t// in\n    tag_179:\n      mload(0x40)\n      dup1\n      swap2\n      sub\n      swap1\n      revert\n    tag_178:\n        /* \"contracts/agency.sol\":2236:2237  0 */\n      0x00\n        /* \"contracts/agency.sol\":2218:2238  _adrTo != address(0) */\n      0xffffffffffffffffffffffffffffffffffffffff\n      and\n        /* \"contracts/agency.sol\":2218:2224  _adrTo */\n      dup4\n        /* \"contracts/agency.sol\":2218:2238  _adrTo != address(0) */\n      0xffffffffffffffffffffffffffffffffffffffff\n      and\n      sub\n        /* \"contracts/agency.sol\":2210:2256  require(_adrTo != address(0), \"wrong_address\") */\n      tag_182\n      jumpi\n      mload(0x40)\n      0x08c379a000000000000000000000000000000000000000000000000000000000\n      dup2\n      mstore\n      0x04\n      add\n      tag_183\n      swap1\n      tag_184\n      jump\t// in\n    tag_183:\n      mload(0x40)\n      dup1\n      swap2\n      sub\n      swap1\n      revert\n    tag_182:\n        /* \"contracts/agency.sol\":2285:2294  buildings */\n      0x00\n        /* \"contracts/agency.sol\":2285:2301  buildings.length */\n      dup1\n      sload\n      swap1\n      pop\n        /* \"contracts/agency.sol\":2275:2282  buildID */\n      dup5\n        /* \"contracts/agency.sol\":2275:2301  buildID < buildings.length */\n      lt\n        /* \"contracts/agency.sol\":2267:2324  require(buildID < buildings.length,\"wrong buildID value\") */\n      tag_185\n      jumpi\n      mload(0x40)\n      0x08c379a000000000000000000000000000000000000000000000000000000000\n      dup2\n      mstore\n      0x04\n      add\n      tag_186\n      swap1\n      tag_187\n      jump\t// in\n    tag_186:\n      mload(0x40)\n      dup1\n      swap2\n      sub\n      swap1\n      revert\n    tag_185:\n        /* \"contracts/agency.sol\":2353:2363  msg.sender */\n      caller\n        /* \"contracts/agency.sol\":2343:2363  _adrTo != msg.sender */\n      0xffffffffffffffffffffffffffffffffffffffff\n      and\n        /* \"contracts/agency.sol\":2343:2349  _adrTo */\n      dup4\n        /* \"contracts/agency.sol\":2343:2363  _adrTo != msg.sender */\n      0xffffffffffffffffffffffffffffffffffffffff\n      and\n      sub\n        /* \"contracts/agency.sol\":2335:2377  require(_adrTo != msg.sender, \"self gift\") */\n      tag_188\n      jumpi\n      mload(0x40)\n      0x08c379a000000000000000000000000000000000000000000000000000000000\n      dup2\n      mstore\n      0x04\n      add\n      tag_189\n      swap1\n      tag_190\n      jump\t// in\n    tag_189:\n      mload(0x40)\n      dup1\n      swap2\n      sub\n      swap1\n      revert\n    tag_188:\n        /* \"contracts/agency.sol\":2388:2393  gifts */\n      0x01\n        /* \"contracts/agency.sol\":2399:2489  Gift(gifts.length, buildID, msg.sender,_adrTo, giftTime+ block.timestamp, giftSTAT.ACTIVE) */\n      mload(0x40)\n      dup1\n      0xc0\n      add\n      0x40\n      mstore\n      dup1\n        /* \"contracts/agency.sol\":2404:2409  gifts */\n      0x01\n        /* \"contracts/agency.sol\":2404:2416  gifts.length */\n      dup1\n      sload\n      swap1\n      pop\n        /* \"contracts/agency.sol\":2399:2489  Gift(gifts.length, buildID, msg.sender,_adrTo, giftTime+ block.timestamp, giftSTAT.ACTIVE) */\n      dup2\n      mstore\n      0x20\n      add\n        /* \"contracts/agency.sol\":2418:2425  buildID */\n      dup7\n        /* \"contracts/agency.sol\":2399:2489  Gift(gifts.length, buildID, msg.sender,_adrTo, giftTime+ block.timestamp, giftSTAT.ACTIVE) */\n      dup2\n      mstore\n      0x20\n      add\n        /* \"contracts/agency.sol\":2427:2437  msg.sender */\n      caller\n        /* \"contracts/agency.sol\":2399:2489  Gift(gifts.length, buildID, msg.sender,_adrTo, giftTime+ block.timestamp, giftSTAT.ACTIVE) */\n      0xffffffffffffffffffffffffffffffffffffffff\n      and\n      dup2\n      mstore\n      0x20\n      add\n        /* \"contracts/agency.sol\":2438:2444  _adrTo */\n      dup6\n        /* \"contracts/agency.sol\":2399:2489  Gift(gifts.length, buildID, msg.sender,_adrTo, giftTime+ block.timestamp, giftSTAT.ACTIVE) */\n      0xffffffffffffffffffffffffffffffffffffffff\n      and\n      dup2\n      mstore\n      0x20\n      add\n        /* \"contracts/agency.sol\":2456:2471  block.timestamp */\n      timestamp\n        /* \"contracts/agency.sol\":2446:2454  giftTime */\n      sload(0x04)\n        /* \"contracts/agency.sol\":2446:2471  giftTime+ block.timestamp */\n      tag_191\n      swap2\n      swap1\n      tag_192\n      jump\t// in\n    tag_191:\n        /* \"contracts/agency.sol\":2399:2489  Gift(gifts.length, buildID, msg.sender,_adrTo, giftTime+ block.timestamp, giftSTAT.ACTIVE) */\n      dup2\n      mstore\n      0x20\n      add\n        /* \"contracts/agency.sol\":2473:2488  giftSTAT.ACTIVE */\n      0x00\n        /* \"contracts/agency.sol\":2399:2489  Gift(gifts.length, buildID, msg.sender,_adrTo, giftTime+ block.timestamp, giftSTAT.ACTIVE) */\n      0x04\n      dup2\n      gt\n      iszero\n      tag_193\n      jumpi\n      tag_194\n      tag_195\n      jump\t// in\n    tag_194:\n    tag_193:\n      dup2\n      mstore\n      pop\n        /* \"contracts/agency.sol\":2388:2490  gifts.push(Gift(gifts.length, buildID, msg.sender,_adrTo, giftTime+ block.timestamp, giftSTAT.ACTIVE)) */\n      swap1\n      dup1\n      0x01\n      dup2\n      sload\n      add\n      dup1\n      dup3\n      sstore\n      dup1\n      swap2\n      pop\n      pop\n      0x01\n      swap1\n      sub\n      swap1\n      0x00\n      mstore\n      keccak256(0x00, 0x20)\n      swap1\n      0x06\n      mul\n      add\n      0x00\n      swap1\n      swap2\n      swap1\n      swap2\n      swap1\n      swap2\n      pop\n      0x00\n      dup3\n      add\n      mload\n      dup2\n      0x00\n      add\n      sstore\n      0x20\n      dup3\n      add\n      mload\n      dup2\n      0x01\n      add\n      sstore\n      0x40\n      dup3\n      add\n      mload\n      dup2\n      0x02\n      add\n      exp(0x0100, 0x00)\n      dup2\n      sload\n      dup2\n      0xffffffffffffffffffffffffffffffffffffffff\n      mul\n      not\n      and\n      swap1\n      dup4\n      0xffffffffffffffffffffffffffffffffffffffff\n      and\n      mul\n      or\n      swap1\n      sstore\n      pop\n      0x60\n      dup3\n      add\n      mload\n      dup2\n      0x03\n      add\n      exp(0x0100, 0x00)\n      dup2\n      sload\n      dup2\n      0xffffffffffffffffffffffffffffffffffffffff\n      mul\n      not\n      and\n      swap1\n      dup4\n      0xffffffffffffffffffffffffffffffffffffffff\n      and\n      mul\n      or\n      swap1\n      sstore\n      pop\n      0x80\n      dup3\n      add\n      mload\n      dup2\n      0x04\n      add\n      sstore\n      0xa0\n      dup3\n      add\n      mload\n      dup2\n      0x05\n      add\n      exp(0x0100, 0x00)\n      dup2\n      sload\n      dup2\n      0xff\n      mul\n      not\n      and\n      swap1\n      dup4\n      0x04\n      dup2\n      gt\n      iszero\n      tag_197\n      jumpi\n      tag_198\n      tag_195\n      jump\t// in\n    tag_198:\n    tag_197:\n      mul\n      or\n      swap1\n      sstore\n      pop\n      pop\n      pop\n        /* \"contracts/agency.sol\":2532:2536  true */\n      0x01\n        /* \"contracts/agency.sol\":2501:2510  buildings */\n      0x00\n        /* \"contracts/agency.sol\":2511:2518  buildID */\n      dup6\n        /* \"contracts/agency.sol\":2501:2519  buildings[buildID] */\n      dup2\n      sload\n      dup2\n      lt\n      tag_199\n      jumpi\n      tag_200\n      tag_93\n      jump\t// in\n    tag_200:\n    tag_199:\n      swap1\n      0x00\n      mstore\n      keccak256(0x00, 0x20)\n      swap1\n      0x05\n      mul\n      add\n        /* \"contracts/agency.sol\":2501:2529  buildings[buildID].giftSTATE */\n      0x04\n      add\n      0x00\n        /* \"contracts/agency.sol\":2501:2536  buildings[buildID].giftSTATE = true */\n      0x0100\n      exp\n      dup2\n      sload\n      dup2\n      0xff\n      mul\n      not\n      and\n      swap1\n      dup4\n      iszero\n      iszero\n      mul\n      or\n      swap1\n      sstore\n      pop\n        /* \"contracts/agency.sol\":1131:1132  _ */\n      pop\n        /* \"contracts/agency.sol\":2101:2544  function createGift(uint buildID, address _adrTo) public onlyOwner(buildID) defaultSTATUS(buildID){... */\n      pop\n      pop\n      pop\n      jump\t// out\n        /* \"contracts/agency.sol\":4348:4756  function createSale(uint buildID, uint _price) public onlyOwner(buildID) defaultSTATUS(buildID){... */\n    tag_48:\n        /* \"contracts/agency.sol\":4412:4419  buildID */\n      dup2\n        /* \"contracts/agency.sol\":1088:1098  msg.sender */\n      caller\n        /* \"contracts/agency.sol\":1060:1098  buildings[buildID].owner == msg.sender */\n      0xffffffffffffffffffffffffffffffffffffffff\n      and\n        /* \"contracts/agency.sol\":1060:1069  buildings */\n      0x00\n        /* \"contracts/agency.sol\":1070:1077  buildID */\n      dup3\n        /* \"contracts/agency.sol\":1060:1078  buildings[buildID] */\n      dup2\n      sload\n      dup2\n      lt\n      tag_203\n      jumpi\n      tag_204\n      tag_93\n      jump\t// in\n    tag_204:\n    tag_203:\n      swap1\n      0x00\n      mstore\n      keccak256(0x00, 0x20)\n      swap1\n      0x05\n      mul\n      add\n        /* \"contracts/agency.sol\":1060:1084  buildings[buildID].owner */\n      0x01\n      add\n      0x00\n      swap1\n      sload\n      swap1\n      0x0100\n      exp\n      swap1\n      div\n      0xffffffffffffffffffffffffffffffffffffffff\n      and\n        /* \"contracts/agency.sol\":1060:1098  buildings[buildID].owner == msg.sender */\n      0xffffffffffffffffffffffffffffffffffffffff\n      and\n      eq\n        /* \"contracts/agency.sol\":1052:1120  require(buildings[buildID].owner == msg.sender, \"Is not your build\") */\n      tag_206\n      jumpi\n      mload(0x40)\n      0x08c379a000000000000000000000000000000000000000000000000000000000\n      dup2\n      mstore\n      0x04\n      add\n      tag_207\n      swap1\n      tag_161\n      jump\t// in\n    tag_207:\n      mload(0x40)\n      dup1\n      swap2\n      sub\n      swap1\n      revert\n    tag_206:\n        /* \"contracts/agency.sol\":4435:4442  buildID */\n      dup3\n        /* \"contracts/agency.sol\":1234:1239  false */\n      0x00\n        /* \"contracts/agency.sol\":1202:1239  buildings[buildID].giftSTATE == false */\n      iszero\n      iszero\n        /* \"contracts/agency.sol\":1202:1211  buildings */\n      0x00\n        /* \"contracts/agency.sol\":1212:1219  buildID */\n      dup3\n        /* \"contracts/agency.sol\":1202:1220  buildings[buildID] */\n      dup2\n      sload\n      dup2\n      lt\n      tag_209\n      jumpi\n      tag_210\n      tag_93\n      jump\t// in\n    tag_210:\n    tag_209:\n      swap1\n      0x00\n      mstore\n      keccak256(0x00, 0x20)\n      swap1\n      0x05\n      mul\n      add\n        /* \"contracts/agency.sol\":1202:1230  buildings[buildID].giftSTATE */\n      0x04\n      add\n      0x00\n      swap1\n      sload\n      swap1\n      0x0100\n      exp\n      swap1\n      div\n      0xff\n      and\n        /* \"contracts/agency.sol\":1202:1239  buildings[buildID].giftSTATE == false */\n      iszero\n      iszero\n      eq\n        /* \"contracts/agency.sol\":1194:1262  require(buildings[buildID].giftSTATE == false, \"Already in present\") */\n      tag_212\n      jumpi\n      mload(0x40)\n      0x08c379a000000000000000000000000000000000000000000000000000000000\n      dup2\n      mstore\n      0x04\n      add\n      tag_213\n      swap1\n      tag_168\n      jump\t// in\n    tag_213:\n      mload(0x40)\n      dup1\n      swap2\n      sub\n      swap1\n      revert\n    tag_212:\n        /* \"contracts/agency.sol\":1313:1318  false */\n      0x00\n        /* \"contracts/agency.sol\":1281:1318  buildings[buildID].saleSTATE == false */\n      iszero\n      iszero\n        /* \"contracts/agency.sol\":1281:1290  buildings */\n      0x00\n        /* \"contracts/agency.sol\":1291:1298  buildID */\n      dup3\n        /* \"contracts/agency.sol\":1281:1299  buildings[buildID] */\n      dup2\n      sload\n      dup2\n      lt\n      tag_214\n      jumpi\n      tag_215\n      tag_93\n      jump\t// in\n    tag_215:\n    tag_214:\n      swap1\n      0x00\n      mstore\n      keccak256(0x00, 0x20)\n      swap1\n      0x05\n      mul\n      add\n        /* \"contracts/agency.sol\":1281:1309  buildings[buildID].saleSTATE */\n      0x04\n      add\n      0x01\n      swap1\n      sload\n      swap1\n      0x0100\n      exp\n      swap1\n      div\n      0xff\n      and\n        /* \"contracts/agency.sol\":1281:1318  buildings[buildID].saleSTATE == false */\n      iszero\n      iszero\n      eq\n        /* \"contracts/agency.sol\":1273:1338  require(buildings[buildID].saleSTATE == false, \"Already in sale\") */\n      tag_217\n      jumpi\n      mload(0x40)\n      0x08c379a000000000000000000000000000000000000000000000000000000000\n      dup2\n      mstore\n      0x04\n      add\n      tag_218\n      swap1\n      tag_174\n      jump\t// in\n    tag_218:\n      mload(0x40)\n      dup1\n      swap2\n      sub\n      swap1\n      revert\n    tag_217:\n        /* \"contracts/agency.sol\":1390:1395  false */\n      0x00\n        /* \"contracts/agency.sol\":1357:1395  buildings[buildID].arestSTATE == false */\n      iszero\n      iszero\n        /* \"contracts/agency.sol\":1357:1366  buildings */\n      0x00\n        /* \"contracts/agency.sol\":1367:1374  buildID */\n      dup3\n        /* \"contracts/agency.sol\":1357:1375  buildings[buildID] */\n      dup2\n      sload\n      dup2\n      lt\n      tag_219\n      jumpi\n      tag_220\n      tag_93\n      jump\t// in\n    tag_220:\n    tag_219:\n      swap1\n      0x00\n      mstore\n      keccak256(0x00, 0x20)\n      swap1\n      0x05\n      mul\n      add\n        /* \"contracts/agency.sol\":1357:1386  buildings[buildID].arestSTATE */\n      0x04\n      add\n      0x02\n      swap1\n      sload\n      swap1\n      0x0100\n      exp\n      swap1\n      div\n      0xff\n      and\n        /* \"contracts/agency.sol\":1357:1395  buildings[buildID].arestSTATE == false */\n      iszero\n      iszero\n      eq\n        /* \"contracts/agency.sol\":1349:1414  require(buildings[buildID].arestSTATE == false, \"Build in arest\") */\n      tag_222\n      jumpi\n      mload(0x40)\n      0x08c379a000000000000000000000000000000000000000000000000000000000\n      dup2\n      mstore\n      0x04\n      add\n      tag_223\n      swap1\n      tag_180\n      jump\t// in\n    tag_223:\n      mload(0x40)\n      dup1\n      swap2\n      sub\n      swap1\n      revert\n    tag_222:\n        /* \"contracts/agency.sol\":4472:4481  buildings */\n      0x00\n        /* \"contracts/agency.sol\":4472:4488  buildings.length */\n      dup1\n      sload\n      swap1\n      pop\n        /* \"contracts/agency.sol\":4462:4469  buildID */\n      dup5\n        /* \"contracts/agency.sol\":4462:4488  buildID < buildings.length */\n      lt\n        /* \"contracts/agency.sol\":4454:4511  require(buildID < buildings.length,\"wrong buildID value\") */\n      tag_225\n      jumpi\n      mload(0x40)\n      0x08c379a000000000000000000000000000000000000000000000000000000000\n      dup2\n      mstore\n      0x04\n      add\n      tag_226\n      swap1\n      tag_187\n      jump\t// in\n    tag_226:\n      mload(0x40)\n      dup1\n      swap2\n      sub\n      swap1\n      revert\n    tag_225:\n        /* \"contracts/agency.sol\":4539:4548  10**9 wei */\n      0x3b9aca00\n        /* \"contracts/agency.sol\":4530:4536  _price */\n      dup4\n        /* \"contracts/agency.sol\":4530:4548  _price > 10**9 wei */\n      gt\n        /* \"contracts/agency.sol\":4522:4549  require(_price > 10**9 wei) */\n      tag_227\n      jumpi\n      0x00\n      dup1\n      revert\n    tag_227:\n        /* \"contracts/agency.sol\":4560:4584  address[] memory _buyers */\n      0x60\n        /* \"contracts/agency.sol\":4595:4616  uint[] memory _prices */\n      dup1\n        /* \"contracts/agency.sol\":4627:4632  sales */\n      0x02\n        /* \"contracts/agency.sol\":4638:4701  Sale(buildID, msg.sender, address(0), _price, _buyers, _prices) */\n      mload(0x40)\n      dup1\n      0xc0\n      add\n      0x40\n      mstore\n      dup1\n        /* \"contracts/agency.sol\":4643:4650  buildID */\n      dup9\n        /* \"contracts/agency.sol\":4638:4701  Sale(buildID, msg.sender, address(0), _price, _buyers, _prices) */\n      dup2\n      mstore\n      0x20\n      add\n        /* \"contracts/agency.sol\":4652:4662  msg.sender */\n      caller\n        /* \"contracts/agency.sol\":4638:4701  Sale(buildID, msg.sender, address(0), _price, _buyers, _prices) */\n      0xffffffffffffffffffffffffffffffffffffffff\n      and\n      dup2\n      mstore\n      0x20\n      add\n        /* \"contracts/agency.sol\":4672:4673  0 */\n      0x00\n        /* \"contracts/agency.sol\":4638:4701  Sale(buildID, msg.sender, address(0), _price, _buyers, _prices) */\n      0xffffffffffffffffffffffffffffffffffffffff\n      and\n      dup2\n      mstore\n      0x20\n      add\n        /* \"contracts/agency.sol\":4676:4682  _price */\n      dup8\n        /* \"contracts/agency.sol\":4638:4701  Sale(buildID, msg.sender, address(0), _price, _buyers, _prices) */\n      dup2\n      mstore\n      0x20\n      add\n        /* \"contracts/agency.sol\":4684:4691  _buyers */\n      dup5\n        /* \"contracts/agency.sol\":4638:4701  Sale(buildID, msg.sender, address(0), _price, _buyers, _prices) */\n      dup2\n      mstore\n      0x20\n      add\n        /* \"contracts/agency.sol\":4693:4700  _prices */\n      dup4\n        /* \"contracts/agency.sol\":4638:4701  Sale(buildID, msg.sender, address(0), _price, _buyers, _prices) */\n      dup2\n      mstore\n      pop\n        /* \"contracts/agency.sol\":4627:4702  sales.push(Sale(buildID, msg.sender, address(0), _price, _buyers, _prices)) */\n      swap1\n      dup1\n      0x01\n      dup2\n      sload\n      add\n      dup1\n      dup3\n      sstore\n      dup1\n      swap2\n      pop\n      pop\n      0x01\n      swap1\n      sub\n      swap1\n      0x00\n      mstore\n      keccak256(0x00, 0x20)\n      swap1\n      0x06\n      mul\n      add\n      0x00\n      swap1\n      swap2\n      swap1\n      swap2\n      swap1\n      swap2\n      pop\n      0x00\n      dup3\n      add\n      mload\n      dup2\n      0x00\n      add\n      sstore\n      0x20\n      dup3\n      add\n      mload\n      dup2\n      0x01\n      add\n      exp(0x0100, 0x00)\n      dup2\n      sload\n      dup2\n      0xffffffffffffffffffffffffffffffffffffffff\n      mul\n      not\n      and\n      swap1\n      dup4\n      0xffffffffffffffffffffffffffffffffffffffff\n      and\n      mul\n      or\n      swap1\n      sstore\n      pop\n      0x40\n      dup3\n      add\n      mload\n      dup2\n      0x02\n      add\n      exp(0x0100, 0x00)\n      dup2\n      sload\n      dup2\n      0xffffffffffffffffffffffffffffffffffffffff\n      mul\n      not\n      and\n      swap1\n      dup4\n      0xffffffffffffffffffffffffffffffffffffffff\n      and\n      mul\n      or\n      swap1\n      sstore\n      pop\n      0x60\n      dup3\n      add\n      mload\n      dup2\n      0x03\n      add\n      sstore\n      0x80\n      dup3\n      add\n      mload\n      dup2\n      0x04\n      add\n      swap1\n      dup1\n      mload\n      swap1\n      0x20\n      add\n      swap1\n      tag_229\n      swap3\n      swap2\n      swap1\n      tag_230\n      jump\t// in\n    tag_229:\n      pop\n      0xa0\n      dup3\n      add\n      mload\n      dup2\n      0x05\n      add\n      swap1\n      dup1\n      mload\n      swap1\n      0x20\n      add\n      swap1\n      tag_231\n      swap3\n      swap2\n      swap1\n      tag_232\n      jump\t// in\n    tag_231:\n      pop\n      pop\n      pop\n        /* \"contracts/agency.sol\":4744:4748  true */\n      0x01\n        /* \"contracts/agency.sol\":4713:4722  buildings */\n      0x00\n        /* \"contracts/agency.sol\":4723:4730  buildID */\n      dup8\n        /* \"contracts/agency.sol\":4713:4731  buildings[buildID] */\n      dup2\n      sload\n      dup2\n      lt\n      tag_233\n      jumpi\n      tag_234\n      tag_93\n      jump\t// in\n    tag_234:\n    tag_233:\n      swap1\n      0x00\n      mstore\n      keccak256(0x00, 0x20)\n      swap1\n      0x05\n      mul\n      add\n        /* \"contracts/agency.sol\":4713:4741  buildings[buildID].saleSTATE */\n      0x04\n      add\n      0x01\n        /* \"contracts/agency.sol\":4713:4748  buildings[buildID].saleSTATE = true */\n      0x0100\n      exp\n      dup2\n      sload\n      dup2\n      0xff\n      mul\n      not\n      and\n      swap1\n      dup4\n      iszero\n      iszero\n      mul\n      or\n      swap1\n      sstore\n      pop\n        /* \"contracts/agency.sol\":4443:4756  {... */\n      pop\n      pop\n        /* \"contracts/agency.sol\":1131:1132  _ */\n      pop\n        /* \"contracts/agency.sol\":4348:4756  function createSale(uint buildID, uint _price) public onlyOwner(buildID) defaultSTATUS(buildID){... */\n      pop\n      pop\n      pop\n      jump\t// out\n        /* \"contracts/agency.sol\":2556:3092  function cancelGift(uint giftID) public{... */\n    tag_52:\n        /* \"contracts/agency.sol\":2623:2628  gifts */\n      0x01\n        /* \"contracts/agency.sol\":2623:2635  gifts.length */\n      dup1\n      sload\n      swap1\n      pop\n        /* \"contracts/agency.sol\":2614:2620  giftID */\n      dup2\n        /* \"contracts/agency.sol\":2614:2635  giftID < gifts.length */\n      lt\n        /* \"contracts/agency.sol\":2606:2636  require(giftID < gifts.length) */\n      tag_237\n      jumpi\n      0x00\n      dup1\n      revert\n    tag_237:\n        /* \"contracts/agency.sol\":2679:2694  giftSTAT.ACTIVE */\n      0x00\n        /* \"contracts/agency.sol\":2655:2694  gifts[giftID].status == giftSTAT.ACTIVE */\n      0x04\n      dup2\n      gt\n      iszero\n      tag_238\n      jumpi\n      tag_239\n      tag_195\n      jump\t// in\n    tag_239:\n    tag_238:\n        /* \"contracts/agency.sol\":2655:2660  gifts */\n      0x01\n        /* \"contracts/agency.sol\":2661:2667  giftID */\n      dup3\n        /* \"contracts/agency.sol\":2655:2668  gifts[giftID] */\n      dup2\n      sload\n      dup2\n      lt\n      tag_240\n      jumpi\n      tag_241\n      tag_93\n      jump\t// in\n    tag_241:\n    tag_240:\n      swap1\n      0x00\n      mstore\n      keccak256(0x00, 0x20)\n      swap1\n      0x06\n      mul\n      add\n        /* \"contracts/agency.sol\":2655:2675  gifts[giftID].status */\n      0x05\n      add\n      0x00\n      swap1\n      sload\n      swap1\n      0x0100\n      exp\n      swap1\n      div\n      0xff\n      and\n        /* \"contracts/agency.sol\":2655:2694  gifts[giftID].status == giftSTAT.ACTIVE */\n      0x04\n      dup2\n      gt\n      iszero\n      tag_243\n      jumpi\n      tag_244\n      tag_195\n      jump\t// in\n    tag_244:\n    tag_243:\n      eq\n        /* \"contracts/agency.sol\":2647:2715  require(gifts[giftID].status == giftSTAT.ACTIVE, \"Already finished\") */\n      tag_245\n      jumpi\n      mload(0x40)\n      0x08c379a000000000000000000000000000000000000000000000000000000000\n      dup2\n      mstore\n      0x04\n      add\n      tag_246\n      swap1\n      tag_247\n      jump\t// in\n    tag_246:\n      mload(0x40)\n      dup1\n      swap2\n      sub\n      swap1\n      revert\n    tag_245:\n        /* \"contracts/agency.sol\":2760:2770  msg.sender */\n      caller\n        /* \"contracts/agency.sol\":2734:2770  gifts[giftID]._adrFrom == msg.sender */\n      0xffffffffffffffffffffffffffffffffffffffff\n      and\n        /* \"contracts/agency.sol\":2734:2739  gifts */\n      0x01\n        /* \"contracts/agency.sol\":2740:2746  giftID */\n      dup3\n        /* \"contracts/agency.sol\":2734:2747  gifts[giftID] */\n      dup2\n      sload\n      dup2\n      lt\n      tag_248\n      jumpi\n      tag_249\n      tag_93\n      jump\t// in\n    tag_249:\n    tag_248:\n      swap1\n      0x00\n      mstore\n      keccak256(0x00, 0x20)\n      swap1\n      0x06\n      mul\n      add\n        /* \"contracts/agency.sol\":2734:2756  gifts[giftID]._adrFrom */\n      0x02\n      add\n      0x00\n      swap1\n      sload\n      swap1\n      0x0100\n      exp\n      swap1\n      div\n      0xffffffffffffffffffffffffffffffffffffffff\n      and\n        /* \"contracts/agency.sol\":2734:2770  gifts[giftID]._adrFrom == msg.sender */\n      0xffffffffffffffffffffffffffffffffffffffff\n      and\n      eq\n        /* \"contracts/agency.sol\":2726:2792  require(gifts[giftID]._adrFrom == msg.sender, \"You are not owner\") */\n      tag_251\n      jumpi\n      mload(0x40)\n      0x08c379a000000000000000000000000000000000000000000000000000000000\n      dup2\n      mstore\n      0x04\n      add\n      tag_252\n      swap1\n      tag_253\n      jump\t// in\n    tag_252:\n      mload(0x40)\n      dup1\n      swap2\n      sub\n      swap1\n      revert\n    tag_251:\n        /* \"contracts/agency.sol\":2803:2815  uint buildID */\n      0x00\n        /* \"contracts/agency.sol\":2818:2823  gifts */\n      0x01\n        /* \"contracts/agency.sol\":2824:2830  giftID */\n      dup3\n        /* \"contracts/agency.sol\":2818:2831  gifts[giftID] */\n      dup2\n      sload\n      dup2\n      lt\n      tag_254\n      jumpi\n      tag_255\n      tag_93\n      jump\t// in\n    tag_255:\n    tag_254:\n      swap1\n      0x00\n      mstore\n      keccak256(0x00, 0x20)\n      swap1\n      0x06\n      mul\n      add\n        /* \"contracts/agency.sol\":2818:2839  gifts[giftID].buildID */\n      0x01\n      add\n      sload\n        /* \"contracts/agency.sol\":2803:2839  uint buildID = gifts[giftID].buildID */\n      swap1\n      pop\n        /* \"contracts/agency.sol\":2875:2890  block.timestamp */\n      timestamp\n        /* \"contracts/agency.sol\":2854:2859  gifts */\n      0x01\n        /* \"contracts/agency.sol\":2860:2866  giftID */\n      dup4\n        /* \"contracts/agency.sol\":2854:2867  gifts[giftID] */\n      dup2\n      sload\n      dup2\n      lt\n      tag_257\n      jumpi\n      tag_258\n      tag_93\n      jump\t// in\n    tag_258:\n    tag_257:\n      swap1\n      0x00\n      mstore\n      keccak256(0x00, 0x20)\n      swap1\n      0x06\n      mul\n      add\n        /* \"contracts/agency.sol\":2854:2872  gifts[giftID].time */\n      0x04\n      add\n      sload\n        /* \"contracts/agency.sol\":2854:2890  gifts[giftID].time > block.timestamp */\n      gt\n        /* \"contracts/agency.sol\":2850:3038  if (gifts[giftID].time > block.timestamp) {... */\n      iszero\n      tag_260\n      jumpi\n        /* \"contracts/agency.sol\":2930:2945  giftSTAT.CANCEL */\n      0x04\n        /* \"contracts/agency.sol\":2907:2912  gifts */\n      0x01\n        /* \"contracts/agency.sol\":2913:2919  giftID */\n      dup4\n        /* \"contracts/agency.sol\":2907:2920  gifts[giftID] */\n      dup2\n      sload\n      dup2\n      lt\n      tag_261\n      jumpi\n      tag_262\n      tag_93\n      jump\t// in\n    tag_262:\n    tag_261:\n      swap1\n      0x00\n      mstore\n      keccak256(0x00, 0x20)\n      swap1\n      0x06\n      mul\n      add\n        /* \"contracts/agency.sol\":2907:2927  gifts[giftID].status */\n      0x05\n      add\n      0x00\n        /* \"contracts/agency.sol\":2907:2945  gifts[giftID].status = giftSTAT.CANCEL */\n      0x0100\n      exp\n      dup2\n      sload\n      dup2\n      0xff\n      mul\n      not\n      and\n      swap1\n      dup4\n      0x04\n      dup2\n      gt\n      iszero\n      tag_264\n      jumpi\n      tag_265\n      tag_195\n      jump\t// in\n    tag_265:\n    tag_264:\n      mul\n      or\n      swap1\n      sstore\n      pop\n        /* \"contracts/agency.sol\":2850:3038  if (gifts[giftID].time > block.timestamp) {... */\n      jump(tag_266)\n    tag_260:\n        /* \"contracts/agency.sol\":3010:3026  giftSTAT.ENDTIME */\n      0x03\n        /* \"contracts/agency.sol\":2987:2992  gifts */\n      0x01\n        /* \"contracts/agency.sol\":2993:2999  giftID */\n      dup4\n        /* \"contracts/agency.sol\":2987:3000  gifts[giftID] */\n      dup2\n      sload\n      dup2\n      lt\n      tag_267\n      jumpi\n      tag_268\n      tag_93\n      jump\t// in\n    tag_268:\n    tag_267:\n      swap1\n      0x00\n      mstore\n      keccak256(0x00, 0x20)\n      swap1\n      0x06\n      mul\n      add\n        /* \"contracts/agency.sol\":2987:3007  gifts[giftID].status */\n      0x05\n      add\n      0x00\n        /* \"contracts/agency.sol\":2987:3026  gifts[giftID].status = giftSTAT.ENDTIME */\n      0x0100\n      exp\n      dup2\n      sload\n      dup2\n      0xff\n      mul\n      not\n      and\n      swap1\n      dup4\n      0x04\n      dup2\n      gt\n      iszero\n      tag_270\n      jumpi\n      tag_271\n      tag_195\n      jump\t// in\n    tag_271:\n    tag_270:\n      mul\n      or\n      swap1\n      sstore\n      pop\n        /* \"contracts/agency.sol\":2850:3038  if (gifts[giftID].time > block.timestamp) {... */\n    tag_266:\n        /* \"contracts/agency.sol\":3079:3084  false */\n      0x00\n        /* \"contracts/agency.sol\":3048:3057  buildings */\n      dup1\n        /* \"contracts/agency.sol\":3058:3065  buildID */\n      dup3\n        /* \"contracts/agency.sol\":3048:3066  buildings[buildID] */\n      dup2\n      sload\n      dup2\n      lt\n      tag_272\n      jumpi\n      tag_273\n      tag_93\n      jump\t// in\n    tag_273:\n    tag_272:\n      swap1\n      0x00\n      mstore\n      keccak256(0x00, 0x20)\n      swap1\n      0x05\n      mul\n      add\n        /* \"contracts/agency.sol\":3048:3076  buildings[buildID].giftSTATE */\n      0x04\n      add\n      0x00\n        /* \"contracts/agency.sol\":3048:3084  buildings[buildID].giftSTATE = false */\n      0x0100\n      exp\n      dup2\n      sload\n      dup2\n      0xff\n      mul\n      not\n      and\n      swap1\n      dup4\n      iszero\n      iszero\n      mul\n      or\n      swap1\n      sstore\n      pop\n        /* \"contracts/agency.sol\":2595:3092  {... */\n      pop\n        /* \"contracts/agency.sol\":2556:3092  function cancelGift(uint giftID) public{... */\n      pop\n      jump\t// out\n        /* \"contracts/agency.sol\":1567:1861  function createBuild(address _owner, string memory _info, uint _square) public isAdmin {... */\n    tag_57:\n        /* \"contracts/agency.sol\":955:960  admin */\n      0x03\n      0x00\n      swap1\n      sload\n      swap1\n      0x0100\n      exp\n      swap1\n      div\n      0xffffffffffffffffffffffffffffffffffffffff\n      and\n        /* \"contracts/agency.sol\":941:960  msg.sender == admin */\n      0xffffffffffffffffffffffffffffffffffffffff\n      and\n        /* \"contracts/agency.sol\":941:951  msg.sender */\n      caller\n        /* \"contracts/agency.sol\":941:960  msg.sender == admin */\n      0xffffffffffffffffffffffffffffffffffffffff\n      and\n      eq\n        /* \"contracts/agency.sol\":933:982  require(msg.sender == admin, \"You are not admin\") */\n      tag_276\n      jumpi\n      mload(0x40)\n      0x08c379a000000000000000000000000000000000000000000000000000000000\n      dup2\n      mstore\n      0x04\n      add\n      tag_277\n      swap1\n      tag_89\n      jump\t// in\n    tag_277:\n      mload(0x40)\n      dup1\n      swap2\n      sub\n      swap1\n      revert\n    tag_276:\n        /* \"contracts/agency.sol\":1691:1692  0 */\n      0x00\n        /* \"contracts/agency.sol\":1673:1693  _owner != address(0) */\n      0xffffffffffffffffffffffffffffffffffffffff\n      and\n        /* \"contracts/agency.sol\":1673:1679  _owner */\n      dup4\n        /* \"contracts/agency.sol\":1673:1693  _owner != address(0) */\n      0xffffffffffffffffffffffffffffffffffffffff\n      and\n      sub\n        /* \"contracts/agency.sol\":1665:1711  require(_owner != address(0), \"wrong address\") */\n      tag_279\n      jumpi\n      mload(0x40)\n      0x08c379a000000000000000000000000000000000000000000000000000000000\n      dup2\n      mstore\n      0x04\n      add\n      tag_280\n      swap1\n      tag_281\n      jump\t// in\n    tag_280:\n      mload(0x40)\n      dup1\n      swap2\n      sub\n      swap1\n      revert\n    tag_279:\n        /* \"contracts/agency.sol\":1740:1741  0 */\n      0x00\n        /* \"contracts/agency.sol\":1730:1737  _square */\n      dup2\n        /* \"contracts/agency.sol\":1730:1741  _square > 0 */\n      gt\n        /* \"contracts/agency.sol\":1722:1758  require(_square > 0, \"wrong square\") */\n      tag_282\n      jumpi\n      mload(0x40)\n      0x08c379a000000000000000000000000000000000000000000000000000000000\n      dup2\n      mstore\n      0x04\n      add\n      tag_283\n      swap1\n      tag_284\n      jump\t// in\n    tag_283:\n      mload(0x40)\n      dup1\n      swap2\n      sub\n      swap1\n      revert\n    tag_282:\n        /* \"contracts/agency.sol\":1769:1778  buildings */\n      0x00\n        /* \"contracts/agency.sol\":1784:1852  Build(buildings.length, _owner, _info, _square, false, false, false) */\n      mload(0x40)\n      dup1\n      0xe0\n      add\n      0x40\n      mstore\n      dup1\n        /* \"contracts/agency.sol\":1790:1799  buildings */\n      0x00\n        /* \"contracts/agency.sol\":1790:1806  buildings.length */\n      dup1\n      sload\n      swap1\n      pop\n        /* \"contracts/agency.sol\":1784:1852  Build(buildings.length, _owner, _info, _square, false, false, false) */\n      dup2\n      mstore\n      0x20\n      add\n        /* \"contracts/agency.sol\":1808:1814  _owner */\n      dup6\n        /* \"contracts/agency.sol\":1784:1852  Build(buildings.length, _owner, _info, _square, false, false, false) */\n      0xffffffffffffffffffffffffffffffffffffffff\n      and\n      dup2\n      mstore\n      0x20\n      add\n        /* \"contracts/agency.sol\":1816:1821  _info */\n      dup5\n        /* \"contracts/agency.sol\":1784:1852  Build(buildings.length, _owner, _info, _square, false, false, false) */\n      dup2\n      mstore\n      0x20\n      add\n        /* \"contracts/agency.sol\":1823:1830  _square */\n      dup4\n        /* \"contracts/agency.sol\":1784:1852  Build(buildings.length, _owner, _info, _square, false, false, false) */\n      dup2\n      mstore\n      0x20\n      add\n        /* \"contracts/agency.sol\":1832:1837  false */\n      0x00\n        /* \"contracts/agency.sol\":1784:1852  Build(buildings.length, _owner, _info, _square, false, false, false) */\n      iszero\n      iszero\n      dup2\n      mstore\n      0x20\n      add\n        /* \"contracts/agency.sol\":1839:1844  false */\n      0x00\n        /* \"contracts/agency.sol\":1784:1852  Build(buildings.length, _owner, _info, _square, false, false, false) */\n      iszero\n      iszero\n      dup2\n      mstore\n      0x20\n      add\n        /* \"contracts/agency.sol\":1846:1851  false */\n      0x00\n        /* \"contracts/agency.sol\":1784:1852  Build(buildings.length, _owner, _info, _square, false, false, false) */\n      iszero\n      iszero\n      dup2\n      mstore\n      pop\n        /* \"contracts/agency.sol\":1769:1853  buildings.push(Build(buildings.length, _owner, _info, _square, false, false, false)) */\n      swap1\n      dup1\n      0x01\n      dup2\n      sload\n      add\n      dup1\n      dup3\n      sstore\n      dup1\n      swap2\n      pop\n      pop\n      0x01\n      swap1\n      sub\n      swap1\n      0x00\n      mstore\n      keccak256(0x00, 0x20)\n      swap1\n      0x05\n      mul\n      add\n      0x00\n      swap1\n      swap2\n      swap1\n      swap2\n      swap1\n      swap2\n      pop\n      0x00\n      dup3\n      add\n      mload\n      dup2\n      0x00\n      add\n      sstore\n      0x20\n      dup3\n      add\n      mload\n      dup2\n      0x01\n      add\n      exp(0x0100, 0x00)\n      dup2\n      sload\n      dup2\n      0xffffffffffffffffffffffffffffffffffffffff\n      mul\n      not\n      and\n      swap1\n      dup4\n      0xffffffffffffffffffffffffffffffffffffffff\n      and\n      mul\n      or\n      swap1\n      sstore\n      pop\n      0x40\n      dup3\n      add\n      mload\n      dup2\n      0x02\n      add\n      swap1\n      dup2\n      tag_286\n      swap2\n      swap1\n      tag_287\n      jump\t// in\n    tag_286:\n      pop\n      0x60\n      dup3\n      add\n      mload\n      dup2\n      0x03\n      add\n      sstore\n      0x80\n      dup3\n      add\n      mload\n      dup2\n      0x04\n      add\n      exp(0x0100, 0x00)\n      dup2\n      sload\n      dup2\n      0xff\n      mul\n      not\n      and\n      swap1\n      dup4\n      iszero\n      iszero\n      mul\n      or\n      swap1\n      sstore\n      pop\n      0xa0\n      dup3\n      add\n      mload\n      dup2\n      0x04\n      add\n      exp(0x0100, 0x01)\n      dup2\n      sload\n      dup2\n      0xff\n      mul\n      not\n      and\n      swap1\n      dup4\n      iszero\n      iszero\n      mul\n      or\n      swap1\n      sstore\n      pop\n      0xc0\n      dup3\n      add\n      mload\n      dup2\n      0x04\n      add\n      exp(0x0100, 0x02)\n      dup2\n      sload\n      dup2\n      0xff\n      mul\n      not\n      and\n      swap1\n      dup4\n      iszero\n      iszero\n      mul\n      or\n      swap1\n      sstore\n      pop\n      pop\n      pop\n        /* \"contracts/agency.sol\":1567:1861  function createBuild(address _owner, string memory _info, uint _square) public isAdmin {... */\n      pop\n      pop\n      pop\n      jump\t// out\n        /* \"contracts/agency.sol\":816:835  Sale[] public sales */\n    tag_61:\n      0x02\n      dup2\n      dup2\n      sload\n      dup2\n      lt\n      tag_288\n      jumpi\n      0x00\n      dup1\n      revert\n    tag_288:\n      swap1\n      0x00\n      mstore\n      keccak256(0x00, 0x20)\n      swap1\n      0x06\n      mul\n      add\n      0x00\n      swap2\n      pop\n      swap1\n      pop\n      dup1\n      0x00\n      add\n      sload\n      swap1\n      dup1\n      0x01\n      add\n      0x00\n      swap1\n      sload\n      swap1\n      0x0100\n      exp\n      swap1\n      div\n      0xffffffffffffffffffffffffffffffffffffffff\n      and\n      swap1\n      dup1\n      0x02\n      add\n      0x00\n      swap1\n      sload\n      swap1\n      0x0100\n      exp\n      swap1\n      div\n      0xffffffffffffffffffffffffffffffffffffffff\n      and\n      swap1\n      dup1\n      0x03\n      add\n      sload\n      swap1\n      pop\n      dup5\n      jump\t// out\n        /* \"contracts/agency.sol\":3100:3771  function acceptGift(uint giftID) public{... */\n    tag_67:\n        /* \"contracts/agency.sol\":3150:3162  uint buildID */\n      0x00\n        /* \"contracts/agency.sol\":3165:3170  gifts */\n      0x01\n        /* \"contracts/agency.sol\":3171:3177  giftID */\n      dup3\n        /* \"contracts/agency.sol\":3165:3178  gifts[giftID] */\n      dup2\n      sload\n      dup2\n      lt\n      tag_291\n      jumpi\n      tag_292\n      tag_93\n      jump\t// in\n    tag_292:\n    tag_291:\n      swap1\n      0x00\n      mstore\n      keccak256(0x00, 0x20)\n      swap1\n      0x06\n      mul\n      add\n        /* \"contracts/agency.sol\":3165:3186  gifts[giftID].buildID */\n      0x01\n      add\n      sload\n        /* \"contracts/agency.sol\":3150:3186  uint buildID = gifts[giftID].buildID */\n      swap1\n      pop\n        /* \"contracts/agency.sol\":3238:3243  false */\n      0x00\n        /* \"contracts/agency.sol\":3205:3243  buildings[buildID].arestSTATE == false */\n      iszero\n      iszero\n        /* \"contracts/agency.sol\":3205:3214  buildings */\n      0x00\n        /* \"contracts/agency.sol\":3215:3222  buildID */\n      dup3\n        /* \"contracts/agency.sol\":3205:3223  buildings[buildID] */\n      dup2\n      sload\n      dup2\n      lt\n      tag_294\n      jumpi\n      tag_295\n      tag_93\n      jump\t// in\n    tag_295:\n    tag_294:\n      swap1\n      0x00\n      mstore\n      keccak256(0x00, 0x20)\n      swap1\n      0x05\n      mul\n      add\n        /* \"contracts/agency.sol\":3205:3234  buildings[buildID].arestSTATE */\n      0x04\n      add\n      0x02\n      swap1\n      sload\n      swap1\n      0x0100\n      exp\n      swap1\n      div\n      0xff\n      and\n        /* \"contracts/agency.sol\":3205:3243  buildings[buildID].arestSTATE == false */\n      iszero\n      iszero\n      eq\n        /* \"contracts/agency.sol\":3197:3264  require(buildings[buildID].arestSTATE == false, \"build is arested\") */\n      tag_297\n      jumpi\n      mload(0x40)\n      0x08c379a000000000000000000000000000000000000000000000000000000000\n      dup2\n      mstore\n      0x04\n      add\n      tag_298\n      swap1\n      tag_299\n      jump\t// in\n    tag_298:\n      mload(0x40)\n      dup1\n      swap2\n      sub\n      swap1\n      revert\n    tag_297:\n        /* \"contracts/agency.sol\":3292:3297  gifts */\n      0x01\n        /* \"contracts/agency.sol\":3292:3304  gifts.length */\n      dup1\n      sload\n      swap1\n      pop\n        /* \"contracts/agency.sol\":3283:3289  giftID */\n      dup3\n        /* \"contracts/agency.sol\":3283:3304  giftID < gifts.length */\n      lt\n        /* \"contracts/agency.sol\":3275:3305  require(giftID < gifts.length) */\n      tag_300\n      jumpi\n      0x00\n      dup1\n      revert\n    tag_300:\n        /* \"contracts/agency.sol\":3348:3363  giftSTAT.ACTIVE */\n      0x00\n        /* \"contracts/agency.sol\":3324:3363  gifts[giftID].status == giftSTAT.ACTIVE */\n      0x04\n      dup2\n      gt\n      iszero\n      tag_301\n      jumpi\n      tag_302\n      tag_195\n      jump\t// in\n    tag_302:\n    tag_301:\n        /* \"contracts/agency.sol\":3324:3329  gifts */\n      0x01\n        /* \"contracts/agency.sol\":3330:3336  giftID */\n      dup4\n        /* \"contracts/agency.sol\":3324:3337  gifts[giftID] */\n      dup2\n      sload\n      dup2\n      lt\n      tag_303\n      jumpi\n      tag_304\n      tag_93\n      jump\t// in\n    tag_304:\n    tag_303:\n      swap1\n      0x00\n      mstore\n      keccak256(0x00, 0x20)\n      swap1\n      0x06\n      mul\n      add\n        /* \"contracts/agency.sol\":3324:3344  gifts[giftID].status */\n      0x05\n      add\n      0x00\n      swap1\n      sload\n      swap1\n      0x0100\n      exp\n      swap1\n      div\n      0xff\n      and\n        /* \"contracts/agency.sol\":3324:3363  gifts[giftID].status == giftSTAT.ACTIVE */\n      0x04\n      dup2\n      gt\n      iszero\n      tag_306\n      jumpi\n      tag_307\n      tag_195\n      jump\t// in\n    tag_307:\n    tag_306:\n      eq\n        /* \"contracts/agency.sol\":3316:3384  require(gifts[giftID].status == giftSTAT.ACTIVE, \"Already finished\") */\n      tag_308\n      jumpi\n      mload(0x40)\n      0x08c379a000000000000000000000000000000000000000000000000000000000\n      dup2\n      mstore\n      0x04\n      add\n      tag_309\n      swap1\n      tag_247\n      jump\t// in\n    tag_309:\n      mload(0x40)\n      dup1\n      swap2\n      sub\n      swap1\n      revert\n    tag_308:\n        /* \"contracts/agency.sol\":3427:3437  msg.sender */\n      caller\n        /* \"contracts/agency.sol\":3403:3437  gifts[giftID]._adrTo == msg.sender */\n      0xffffffffffffffffffffffffffffffffffffffff\n      and\n        /* \"contracts/agency.sol\":3403:3408  gifts */\n      0x01\n        /* \"contracts/agency.sol\":3409:3415  giftID */\n      dup4\n        /* \"contracts/agency.sol\":3403:3416  gifts[giftID] */\n      dup2\n      sload\n      dup2\n      lt\n      tag_310\n      jumpi\n      tag_311\n      tag_93\n      jump\t// in\n    tag_311:\n    tag_310:\n      swap1\n      0x00\n      mstore\n      keccak256(0x00, 0x20)\n      swap1\n      0x06\n      mul\n      add\n        /* \"contracts/agency.sol\":3403:3423  gifts[giftID]._adrTo */\n      0x03\n      add\n      0x00\n      swap1\n      sload\n      swap1\n      0x0100\n      exp\n      swap1\n      div\n      0xffffffffffffffffffffffffffffffffffffffff\n      and\n        /* \"contracts/agency.sol\":3403:3437  gifts[giftID]._adrTo == msg.sender */\n      0xffffffffffffffffffffffffffffffffffffffff\n      and\n      eq\n        /* \"contracts/agency.sol\":3395:3466  require(gifts[giftID]._adrTo == msg.sender, \"This is gift not for you\") */\n      tag_313\n      jumpi\n      mload(0x40)\n      0x08c379a000000000000000000000000000000000000000000000000000000000\n      dup2\n      mstore\n      0x04\n      add\n      tag_314\n      swap1\n      tag_315\n      jump\t// in\n    tag_314:\n      mload(0x40)\n      dup1\n      swap2\n      sub\n      swap1\n      revert\n    tag_313:\n        /* \"contracts/agency.sol\":3502:3517  block.timestamp */\n      timestamp\n        /* \"contracts/agency.sol\":3481:3486  gifts */\n      0x01\n        /* \"contracts/agency.sol\":3487:3493  giftID */\n      dup4\n        /* \"contracts/agency.sol\":3481:3494  gifts[giftID] */\n      dup2\n      sload\n      dup2\n      lt\n      tag_316\n      jumpi\n      tag_317\n      tag_93\n      jump\t// in\n    tag_317:\n    tag_316:\n      swap1\n      0x00\n      mstore\n      keccak256(0x00, 0x20)\n      swap1\n      0x06\n      mul\n      add\n        /* \"contracts/agency.sol\":3481:3499  gifts[giftID].time */\n      0x04\n      add\n      sload\n        /* \"contracts/agency.sol\":3481:3517  gifts[giftID].time > block.timestamp */\n      gt\n        /* \"contracts/agency.sol\":3477:3717  if (gifts[giftID].time > block.timestamp) {... */\n      iszero\n      tag_319\n      jumpi\n        /* \"contracts/agency.sol\":3557:3572  giftSTAT.ACCEPT */\n      0x02\n        /* \"contracts/agency.sol\":3534:3539  gifts */\n      0x01\n        /* \"contracts/agency.sol\":3540:3546  giftID */\n      dup4\n        /* \"contracts/agency.sol\":3534:3547  gifts[giftID] */\n      dup2\n      sload\n      dup2\n      lt\n      tag_320\n      jumpi\n      tag_321\n      tag_93\n      jump\t// in\n    tag_321:\n    tag_320:\n      swap1\n      0x00\n      mstore\n      keccak256(0x00, 0x20)\n      swap1\n      0x06\n      mul\n      add\n        /* \"contracts/agency.sol\":3534:3554  gifts[giftID].status */\n      0x05\n      add\n      0x00\n        /* \"contracts/agency.sol\":3534:3572  gifts[giftID].status = giftSTAT.ACCEPT */\n      0x0100\n      exp\n      dup2\n      sload\n      dup2\n      0xff\n      mul\n      not\n      and\n      swap1\n      dup4\n      0x04\n      dup2\n      gt\n      iszero\n      tag_323\n      jumpi\n      tag_324\n      tag_195\n      jump\t// in\n    tag_324:\n    tag_323:\n      mul\n      or\n      swap1\n      sstore\n      pop\n        /* \"contracts/agency.sol\":3614:3624  msg.sender */\n      caller\n        /* \"contracts/agency.sol\":3587:3596  buildings */\n      0x00\n        /* \"contracts/agency.sol\":3597:3604  buildID */\n      dup3\n        /* \"contracts/agency.sol\":3587:3605  buildings[buildID] */\n      dup2\n      sload\n      dup2\n      lt\n      tag_325\n      jumpi\n      tag_326\n      tag_93\n      jump\t// in\n    tag_326:\n    tag_325:\n      swap1\n      0x00\n      mstore\n      keccak256(0x00, 0x20)\n      swap1\n      0x05\n      mul\n      add\n        /* \"contracts/agency.sol\":3587:3611  buildings[buildID].owner */\n      0x01\n      add\n      0x00\n        /* \"contracts/agency.sol\":3587:3624  buildings[buildID].owner = msg.sender */\n      0x0100\n      exp\n      dup2\n      sload\n      dup2\n      0xffffffffffffffffffffffffffffffffffffffff\n      mul\n      not\n      and\n      swap1\n      dup4\n      0xffffffffffffffffffffffffffffffffffffffff\n      and\n      mul\n      or\n      swap1\n      sstore\n      pop\n        /* \"contracts/agency.sol\":3477:3717  if (gifts[giftID].time > block.timestamp) {... */\n      jump(tag_328)\n    tag_319:\n        /* \"contracts/agency.sol\":3689:3705  giftSTAT.ENDTIME */\n      0x03\n        /* \"contracts/agency.sol\":3666:3671  gifts */\n      0x01\n        /* \"contracts/agency.sol\":3672:3678  giftID */\n      dup4\n        /* \"contracts/agency.sol\":3666:3679  gifts[giftID] */\n      dup2\n      sload\n      dup2\n      lt\n      tag_329\n      jumpi\n      tag_330\n      tag_93\n      jump\t// in\n    tag_330:\n    tag_329:\n      swap1\n      0x00\n      mstore\n      keccak256(0x00, 0x20)\n      swap1\n      0x06\n      mul\n      add\n        /* \"contracts/agency.sol\":3666:3686  gifts[giftID].status */\n      0x05\n      add\n      0x00\n        /* \"contracts/agency.sol\":3666:3705  gifts[giftID].status = giftSTAT.ENDTIME */\n      0x0100\n      exp\n      dup2\n      sload\n      dup2\n      0xff\n      mul\n      not\n      and\n      swap1\n      dup4\n      0x04\n      dup2\n      gt\n      iszero\n      tag_332\n      jumpi\n      tag_333\n      tag_195\n      jump\t// in\n    tag_333:\n    tag_332:\n      mul\n      or\n      swap1\n      sstore\n      pop\n        /* \"contracts/agency.sol\":3477:3717  if (gifts[giftID].time > block.timestamp) {... */\n    tag_328:\n        /* \"contracts/agency.sol\":3758:3763  false */\n      0x00\n        /* \"contracts/agency.sol\":3727:3736  buildings */\n      dup1\n        /* \"contracts/agency.sol\":3737:3744  buildID */\n      dup3\n        /* \"contracts/agency.sol\":3727:3745  buildings[buildID] */\n      dup2\n      sload\n      dup2\n      lt\n      tag_334\n      jumpi\n      tag_335\n      tag_93\n      jump\t// in\n    tag_335:\n    tag_334:\n      swap1\n      0x00\n      mstore\n      keccak256(0x00, 0x20)\n      swap1\n      0x05\n      mul\n      add\n        /* \"contracts/agency.sol\":3727:3755  buildings[buildID].giftSTATE */\n      0x04\n      add\n      0x00\n        /* \"contracts/agency.sol\":3727:3763  buildings[buildID].giftSTATE = false */\n      0x0100\n      exp\n      dup2\n      sload\n      dup2\n      0xff\n      mul\n      not\n      and\n      swap1\n      dup4\n      iszero\n      iszero\n      mul\n      or\n      swap1\n      sstore\n      pop\n        /* \"contracts/agency.sol\":3139:3771  {... */\n      pop\n        /* \"contracts/agency.sol\":3100:3771  function acceptGift(uint giftID) public{... */\n      pop\n      jump\t// out\n        /* \"contracts/agency.sol\":790:809  Gift[] public gifts */\n    tag_71:\n      0x01\n      dup2\n      dup2\n      sload\n      dup2\n      lt\n      tag_337\n      jumpi\n      0x00\n      dup1\n      revert\n    tag_337:\n      swap1\n      0x00\n      mstore\n      keccak256(0x00, 0x20)\n      swap1\n      0x06\n      mul\n      add\n      0x00\n      swap2\n      pop\n      swap1\n      pop\n      dup1\n      0x00\n      add\n      sload\n      swap1\n      dup1\n      0x01\n      add\n      sload\n      swap1\n      dup1\n      0x02\n      add\n      0x00\n      swap1\n      sload\n      swap1\n      0x0100\n      exp\n      swap1\n      div\n      0xffffffffffffffffffffffffffffffffffffffff\n      and\n      swap1\n      dup1\n      0x03\n      add\n      0x00\n      swap1\n      sload\n      swap1\n      0x0100\n      exp\n      swap1\n      div\n      0xffffffffffffffffffffffffffffffffffffffff\n      and\n      swap1\n      dup1\n      0x04\n      add\n      sload\n      swap1\n      dup1\n      0x05\n      add\n      0x00\n      swap1\n      sload\n      swap1\n      0x0100\n      exp\n      swap1\n      div\n      0xff\n      and\n      swap1\n      pop\n      dup7\n      jump\t// out\n        /* \"contracts/agency.sol\":3783:4325  function refuseGift(uint giftID) public {... */\n    tag_77:\n        /* \"contracts/agency.sol\":3834:3846  uint buildID */\n      0x00\n        /* \"contracts/agency.sol\":3849:3854  gifts */\n      0x01\n        /* \"contracts/agency.sol\":3855:3861  giftID */\n      dup3\n        /* \"contracts/agency.sol\":3849:3862  gifts[giftID] */\n      dup2\n      sload\n      dup2\n      lt\n      tag_340\n      jumpi\n      tag_341\n      tag_93\n      jump\t// in\n    tag_341:\n    tag_340:\n      swap1\n      0x00\n      mstore\n      keccak256(0x00, 0x20)\n      swap1\n      0x06\n      mul\n      add\n        /* \"contracts/agency.sol\":3849:3870  gifts[giftID].buildID */\n      0x01\n      add\n      sload\n        /* \"contracts/agency.sol\":3834:3870  uint buildID = gifts[giftID].buildID */\n      swap1\n      pop\n        /* \"contracts/agency.sol\":3898:3903  gifts */\n      0x01\n        /* \"contracts/agency.sol\":3898:3910  gifts.length */\n      dup1\n      sload\n      swap1\n      pop\n        /* \"contracts/agency.sol\":3889:3895  giftID */\n      dup3\n        /* \"contracts/agency.sol\":3889:3910  giftID < gifts.length */\n      lt\n        /* \"contracts/agency.sol\":3881:3911  require(giftID < gifts.length) */\n      tag_343\n      jumpi\n      0x00\n      dup1\n      revert\n    tag_343:\n        /* \"contracts/agency.sol\":3954:3969  giftSTAT.ACTIVE */\n      0x00\n        /* \"contracts/agency.sol\":3930:3969  gifts[giftID].status == giftSTAT.ACTIVE */\n      0x04\n      dup2\n      gt\n      iszero\n      tag_344\n      jumpi\n      tag_345\n      tag_195\n      jump\t// in\n    tag_345:\n    tag_344:\n        /* \"contracts/agency.sol\":3930:3935  gifts */\n      0x01\n        /* \"contracts/agency.sol\":3936:3942  giftID */\n      dup4\n        /* \"contracts/agency.sol\":3930:3943  gifts[giftID] */\n      dup2\n      sload\n      dup2\n      lt\n      tag_346\n      jumpi\n      tag_347\n      tag_93\n      jump\t// in\n    tag_347:\n    tag_346:\n      swap1\n      0x00\n      mstore\n      keccak256(0x00, 0x20)\n      swap1\n      0x06\n      mul\n      add\n        /* \"contracts/agency.sol\":3930:3950  gifts[giftID].status */\n      0x05\n      add\n      0x00\n      swap1\n      sload\n      swap1\n      0x0100\n      exp\n      swap1\n      div\n      0xff\n      and\n        /* \"contracts/agency.sol\":3930:3969  gifts[giftID].status == giftSTAT.ACTIVE */\n      0x04\n      dup2\n      gt\n      iszero\n      tag_349\n      jumpi\n      tag_350\n      tag_195\n      jump\t// in\n    tag_350:\n    tag_349:\n      eq\n        /* \"contracts/agency.sol\":3922:3990  require(gifts[giftID].status == giftSTAT.ACTIVE, \"Already finished\") */\n      tag_351\n      jumpi\n      mload(0x40)\n      0x08c379a000000000000000000000000000000000000000000000000000000000\n      dup2\n      mstore\n      0x04\n      add\n      tag_352\n      swap1\n      tag_247\n      jump\t// in\n    tag_352:\n      mload(0x40)\n      dup1\n      swap2\n      sub\n      swap1\n      revert\n    tag_351:\n        /* \"contracts/agency.sol\":4033:4043  msg.sender */\n      caller\n        /* \"contracts/agency.sol\":4009:4043  gifts[giftID]._adrTo == msg.sender */\n      0xffffffffffffffffffffffffffffffffffffffff\n      and\n        /* \"contracts/agency.sol\":4009:4014  gifts */\n      0x01\n        /* \"contracts/agency.sol\":4015:4021  giftID */\n      dup4\n        /* \"contracts/agency.sol\":4009:4022  gifts[giftID] */\n      dup2\n      sload\n      dup2\n      lt\n      tag_353\n      jumpi\n      tag_354\n      tag_93\n      jump\t// in\n    tag_354:\n    tag_353:\n      swap1\n      0x00\n      mstore\n      keccak256(0x00, 0x20)\n      swap1\n      0x06\n      mul\n      add\n        /* \"contracts/agency.sol\":4009:4029  gifts[giftID]._adrTo */\n      0x03\n      add\n      0x00\n      swap1\n      sload\n      swap1\n      0x0100\n      exp\n      swap1\n      div\n      0xffffffffffffffffffffffffffffffffffffffff\n      and\n        /* \"contracts/agency.sol\":4009:4043  gifts[giftID]._adrTo == msg.sender */\n      0xffffffffffffffffffffffffffffffffffffffff\n      and\n      eq\n        /* \"contracts/agency.sol\":4001:4072  require(gifts[giftID]._adrTo == msg.sender, \"This is gift not for you\") */\n      tag_356\n      jumpi\n      mload(0x40)\n      0x08c379a000000000000000000000000000000000000000000000000000000000\n      dup2\n      mstore\n      0x04\n      add\n      tag_357\n      swap1\n      tag_315\n      jump\t// in\n    tag_357:\n      mload(0x40)\n      dup1\n      swap2\n      sub\n      swap1\n      revert\n    tag_356:\n        /* \"contracts/agency.sol\":4108:4123  block.timestamp */\n      timestamp\n        /* \"contracts/agency.sol\":4087:4092  gifts */\n      0x01\n        /* \"contracts/agency.sol\":4093:4099  giftID */\n      dup4\n        /* \"contracts/agency.sol\":4087:4100  gifts[giftID] */\n      dup2\n      sload\n      dup2\n      lt\n      tag_358\n      jumpi\n      tag_359\n      tag_93\n      jump\t// in\n    tag_359:\n    tag_358:\n      swap1\n      0x00\n      mstore\n      keccak256(0x00, 0x20)\n      swap1\n      0x06\n      mul\n      add\n        /* \"contracts/agency.sol\":4087:4105  gifts[giftID].time */\n      0x04\n      add\n      sload\n        /* \"contracts/agency.sol\":4087:4123  gifts[giftID].time > block.timestamp */\n      gt\n        /* \"contracts/agency.sol\":4083:4271  if (gifts[giftID].time > block.timestamp) {... */\n      iszero\n      tag_361\n      jumpi\n        /* \"contracts/agency.sol\":4163:4178  giftSTAT.REFUSE */\n      0x01\n        /* \"contracts/agency.sol\":4140:4145  gifts */\n      dup1\n        /* \"contracts/agency.sol\":4146:4152  giftID */\n      dup4\n        /* \"contracts/agency.sol\":4140:4153  gifts[giftID] */\n      dup2\n      sload\n      dup2\n      lt\n      tag_362\n      jumpi\n      tag_363\n      tag_93\n      jump\t// in\n    tag_363:\n    tag_362:\n      swap1\n      0x00\n      mstore\n      keccak256(0x00, 0x20)\n      swap1\n      0x06\n      mul\n      add\n        /* \"contracts/agency.sol\":4140:4160  gifts[giftID].status */\n      0x05\n      add\n      0x00\n        /* \"contracts/agency.sol\":4140:4178  gifts[giftID].status = giftSTAT.REFUSE */\n      0x0100\n      exp\n      dup2\n      sload\n      dup2\n      0xff\n      mul\n      not\n      and\n      swap1\n      dup4\n      0x04\n      dup2\n      gt\n      iszero\n      tag_365\n      jumpi\n      tag_366\n      tag_195\n      jump\t// in\n    tag_366:\n    tag_365:\n      mul\n      or\n      swap1\n      sstore\n      pop\n        /* \"contracts/agency.sol\":4083:4271  if (gifts[giftID].time > block.timestamp) {... */\n      jump(tag_367)\n    tag_361:\n        /* \"contracts/agency.sol\":4243:4259  giftSTAT.ENDTIME */\n      0x03\n        /* \"contracts/agency.sol\":4220:4225  gifts */\n      0x01\n        /* \"contracts/agency.sol\":4226:4232  giftID */\n      dup4\n        /* \"contracts/agency.sol\":4220:4233  gifts[giftID] */\n      dup2\n      sload\n      dup2\n      lt\n      tag_368\n      jumpi\n      tag_369\n      tag_93\n      jump\t// in\n    tag_369:\n    tag_368:\n      swap1\n      0x00\n      mstore\n      keccak256(0x00, 0x20)\n      swap1\n      0x06\n      mul\n      add\n        /* \"contracts/agency.sol\":4220:4240  gifts[giftID].status */\n      0x05\n      add\n      0x00\n        /* \"contracts/agency.sol\":4220:4259  gifts[giftID].status = giftSTAT.ENDTIME */\n      0x0100\n      exp\n      dup2\n      sload\n      dup2\n      0xff\n      mul\n      not\n      and\n      swap1\n      dup4\n      0x04\n      dup2\n      gt\n      iszero\n      tag_371\n      jumpi\n      tag_372\n      tag_195\n      jump\t// in\n    tag_372:\n    tag_371:\n      mul\n      or\n      swap1\n      sstore\n      pop\n        /* \"contracts/agency.sol\":4083:4271  if (gifts[giftID].time > block.timestamp) {... */\n    tag_367:\n        /* \"contracts/agency.sol\":4312:4317  false */\n      0x00\n        /* \"contracts/agency.sol\":4281:4290  buildings */\n      dup1\n        /* \"contracts/agency.sol\":4291:4298  buildID */\n      dup3\n        /* \"contracts/agency.sol\":4281:4299  buildings[buildID] */\n      dup2\n      sload\n      dup2\n      lt\n      tag_373\n      jumpi\n      tag_374\n      tag_93\n      jump\t// in\n    tag_374:\n    tag_373:\n      swap1\n      0x00\n      mstore\n      keccak256(0x00, 0x20)\n      swap1\n      0x05\n      mul\n      add\n        /* \"contracts/agency.sol\":4281:4309  buildings[buildID].giftSTATE */\n      0x04\n      add\n      0x00\n        /* \"contracts/agency.sol\":4281:4317  buildings[buildID].giftSTATE = false */\n      0x0100\n      exp\n      dup2\n      sload\n      dup2\n      0xff\n      mul\n      not\n      and\n      swap1\n      dup4\n      iszero\n      iszero\n      mul\n      or\n      swap1\n      sstore\n      pop\n        /* \"contracts/agency.sol\":3823:4325  {... */\n      pop\n        /* \"contracts/agency.sol\":3783:4325  function refuseGift(uint giftID) public {... */\n      pop\n      jump\t// out\n        /* \"contracts/agency.sol\":4766:5599  function addPrice(uint saleID) public payable {... */\n    tag_80:\n        /* \"contracts/agency.sol\":4823:4835  uint buildID */\n      0x00\n        /* \"contracts/agency.sol\":4838:4843  sales */\n      0x02\n        /* \"contracts/agency.sol\":4844:4850  saleID */\n      dup3\n        /* \"contracts/agency.sol\":4838:4851  sales[saleID] */\n      dup2\n      sload\n      dup2\n      lt\n      tag_377\n      jumpi\n      tag_378\n      tag_93\n      jump\t// in\n    tag_378:\n    tag_377:\n      swap1\n      0x00\n      mstore\n      keccak256(0x00, 0x20)\n      swap1\n      0x06\n      mul\n      add\n        /* \"contracts/agency.sol\":4838:4859  sales[saleID].buildID */\n      0x00\n      add\n      sload\n        /* \"contracts/agency.sol\":4823:4859  uint buildID = sales[saleID].buildID */\n      swap1\n      pop\n        /* \"contracts/agency.sol\":4911:4916  false */\n      0x00\n        /* \"contracts/agency.sol\":4878:4916  buildings[buildID].arestSTATE == false */\n      iszero\n      iszero\n        /* \"contracts/agency.sol\":4878:4887  buildings */\n      0x00\n        /* \"contracts/agency.sol\":4888:4895  buildID */\n      dup3\n        /* \"contracts/agency.sol\":4878:4896  buildings[buildID] */\n      dup2\n      sload\n      dup2\n      lt\n      tag_380\n      jumpi\n      tag_381\n      tag_93\n      jump\t// in\n    tag_381:\n    tag_380:\n      swap1\n      0x00\n      mstore\n      keccak256(0x00, 0x20)\n      swap1\n      0x05\n      mul\n      add\n        /* \"contracts/agency.sol\":4878:4907  buildings[buildID].arestSTATE */\n      0x04\n      add\n      0x02\n      swap1\n      sload\n      swap1\n      0x0100\n      exp\n      swap1\n      div\n      0xff\n      and\n        /* \"contracts/agency.sol\":4878:4916  buildings[buildID].arestSTATE == false */\n      iszero\n      iszero\n      eq\n        /* \"contracts/agency.sol\":4870:4935  require(buildings[buildID].arestSTATE == false, \"estate arested\") */\n      tag_383\n      jumpi\n      mload(0x40)\n      0x08c379a000000000000000000000000000000000000000000000000000000000\n      dup2\n      mstore\n      0x04\n      add\n      tag_384\n      swap1\n      tag_385\n      jump\t// in\n    tag_384:\n      mload(0x40)\n      dup1\n      swap2\n      sub\n      swap1\n      revert\n    tag_383:\n        /* \"contracts/agency.sol\":4963:4968  sales */\n      0x02\n        /* \"contracts/agency.sol\":4963:4975  sales.length */\n      dup1\n      sload\n      swap1\n      pop\n        /* \"contracts/agency.sol\":4954:4960  saleID */\n      dup3\n        /* \"contracts/agency.sol\":4954:4975  saleID < sales.length */\n      lt\n        /* \"contracts/agency.sol\":4946:4997  require(saleID < sales.length,\"wrong saleID value\") */\n      tag_386\n      jumpi\n      mload(0x40)\n      0x08c379a000000000000000000000000000000000000000000000000000000000\n      dup2\n      mstore\n      0x04\n      add\n      tag_387\n      swap1\n      tag_104\n      jump\t// in\n    tag_387:\n      mload(0x40)\n      dup1\n      swap2\n      sub\n      swap1\n      revert\n    tag_386:\n        /* \"contracts/agency.sol\":5039:5049  msg.sender */\n      caller\n        /* \"contracts/agency.sol\":5016:5049  sales[saleID].owner != msg.sender */\n      0xffffffffffffffffffffffffffffffffffffffff\n      and\n        /* \"contracts/agency.sol\":5016:5021  sales */\n      0x02\n        /* \"contracts/agency.sol\":5022:5028  saleID */\n      dup4\n        /* \"contracts/agency.sol\":5016:5029  sales[saleID] */\n      dup2\n      sload\n      dup2\n      lt\n      tag_388\n      jumpi\n      tag_389\n      tag_93\n      jump\t// in\n    tag_389:\n    tag_388:\n      swap1\n      0x00\n      mstore\n      keccak256(0x00, 0x20)\n      swap1\n      0x06\n      mul\n      add\n        /* \"contracts/agency.sol\":5016:5035  sales[saleID].owner */\n      0x01\n      add\n      0x00\n      swap1\n      sload\n      swap1\n      0x0100\n      exp\n      swap1\n      div\n      0xffffffffffffffffffffffffffffffffffffffff\n      and\n        /* \"contracts/agency.sol\":5016:5049  sales[saleID].owner != msg.sender */\n      0xffffffffffffffffffffffffffffffffffffffff\n      and\n      sub\n        /* \"contracts/agency.sol\":5008:5063  require(sales[saleID].owner != msg.sender, \"self sale\") */\n      tag_391\n      jumpi\n      mload(0x40)\n      0x08c379a000000000000000000000000000000000000000000000000000000000\n      dup2\n      mstore\n      0x04\n      add\n      tag_392\n      swap1\n      tag_393\n      jump\t// in\n    tag_392:\n      mload(0x40)\n      dup1\n      swap2\n      sub\n      swap1\n      revert\n    tag_391:\n        /* \"contracts/agency.sol\":5116:5117  0 */\n      0x00\n        /* \"contracts/agency.sol\":5082:5118  sales[saleID].newOwner == address(0) */\n      0xffffffffffffffffffffffffffffffffffffffff\n      and\n        /* \"contracts/agency.sol\":5082:5087  sales */\n      0x02\n        /* \"contracts/agency.sol\":5088:5094  saleID */\n      dup4\n        /* \"contracts/agency.sol\":5082:5095  sales[saleID] */\n      dup2\n      sload\n      dup2\n      lt\n      tag_394\n      jumpi\n      tag_395\n      tag_93\n      jump\t// in\n    tag_395:\n    tag_394:\n      swap1\n      0x00\n      mstore\n      keccak256(0x00, 0x20)\n      swap1\n      0x06\n      mul\n      add\n        /* \"contracts/agency.sol\":5082:5104  sales[saleID].newOwner */\n      0x02\n      add\n      0x00\n      swap1\n      sload\n      swap1\n      0x0100\n      exp\n      swap1\n      div\n      0xffffffffffffffffffffffffffffffffffffffff\n      and\n        /* \"contracts/agency.sol\":5082:5118  sales[saleID].newOwner == address(0) */\n      0xffffffffffffffffffffffffffffffffffffffff\n      and\n      eq\n        /* \"contracts/agency.sol\":5074:5137  require(sales[saleID].newOwner == address(0), \"Sale is closed\") */\n      tag_397\n      jumpi\n      mload(0x40)\n      0x08c379a000000000000000000000000000000000000000000000000000000000\n      dup2\n      mstore\n      0x04\n      add\n      tag_398\n      swap1\n      tag_110\n      jump\t// in\n    tag_398:\n      mload(0x40)\n      dup1\n      swap2\n      sub\n      swap1\n      revert\n    tag_397:\n        /* \"contracts/agency.sol\":5179:5188  msg.value */\n      callvalue\n        /* \"contracts/agency.sol\":5156:5161  sales */\n      0x02\n        /* \"contracts/agency.sol\":5162:5168  saleID */\n      dup4\n        /* \"contracts/agency.sol\":5156:5169  sales[saleID] */\n      dup2\n      sload\n      dup2\n      lt\n      tag_399\n      jumpi\n      tag_400\n      tag_93\n      jump\t// in\n    tag_400:\n    tag_399:\n      swap1\n      0x00\n      mstore\n      keccak256(0x00, 0x20)\n      swap1\n      0x06\n      mul\n      add\n        /* \"contracts/agency.sol\":5156:5175  sales[saleID].price */\n      0x03\n      add\n      sload\n        /* \"contracts/agency.sol\":5156:5188  sales[saleID].price <= msg.value */\n      gt\n      iszero\n        /* \"contracts/agency.sol\":5148:5208  require(sales[saleID].price <= msg.value, \"wrong eth value\") */\n      tag_402\n      jumpi\n      mload(0x40)\n      0x08c379a000000000000000000000000000000000000000000000000000000000\n      dup2\n      mstore\n      0x04\n      add\n      tag_403\n      swap1\n      tag_404\n      jump\t// in\n    tag_403:\n      mload(0x40)\n      dup1\n      swap2\n      sub\n      swap1\n      revert\n    tag_402:\n        /* \"contracts/agency.sol\":5219:5228  bool stat */\n      0x00\n        /* \"contracts/agency.sol\":5252:5258  uint i */\n      dup1\n        /* \"contracts/agency.sol\":5247:5440  for (uint i = 0; i < sales[saleID].buyers.length; i++){... */\n    tag_405:\n        /* \"contracts/agency.sol\":5268:5273  sales */\n      0x02\n        /* \"contracts/agency.sol\":5274:5280  saleID */\n      dup5\n        /* \"contracts/agency.sol\":5268:5281  sales[saleID] */\n      dup2\n      sload\n      dup2\n      lt\n      tag_408\n      jumpi\n      tag_409\n      tag_93\n      jump\t// in\n    tag_409:\n    tag_408:\n      swap1\n      0x00\n      mstore\n      keccak256(0x00, 0x20)\n      swap1\n      0x06\n      mul\n      add\n        /* \"contracts/agency.sol\":5268:5288  sales[saleID].buyers */\n      0x04\n      add\n        /* \"contracts/agency.sol\":5268:5295  sales[saleID].buyers.length */\n      dup1\n      sload\n      swap1\n      pop\n        /* \"contracts/agency.sol\":5264:5265  i */\n      dup2\n        /* \"contracts/agency.sol\":5264:5295  i < sales[saleID].buyers.length */\n      lt\n        /* \"contracts/agency.sol\":5247:5440  for (uint i = 0; i < sales[saleID].buyers.length; i++){... */\n      iszero\n      tag_406\n      jumpi\n        /* \"contracts/agency.sol\":5347:5357  msg.sender */\n      caller\n        /* \"contracts/agency.sol\":5320:5357  sales[saleID].buyers[i] == msg.sender */\n      0xffffffffffffffffffffffffffffffffffffffff\n      and\n        /* \"contracts/agency.sol\":5320:5325  sales */\n      0x02\n        /* \"contracts/agency.sol\":5326:5332  saleID */\n      dup6\n        /* \"contracts/agency.sol\":5320:5333  sales[saleID] */\n      dup2\n      sload\n      dup2\n      lt\n      tag_411\n      jumpi\n      tag_412\n      tag_93\n      jump\t// in\n    tag_412:\n    tag_411:\n      swap1\n      0x00\n      mstore\n      keccak256(0x00, 0x20)\n      swap1\n      0x06\n      mul\n      add\n        /* \"contracts/agency.sol\":5320:5340  sales[saleID].buyers */\n      0x04\n      add\n        /* \"contracts/agency.sol\":5341:5342  i */\n      dup3\n        /* \"contracts/agency.sol\":5320:5343  sales[saleID].buyers[i] */\n      dup2\n      sload\n      dup2\n      lt\n      tag_414\n      jumpi\n      tag_415\n      tag_93\n      jump\t// in\n    tag_415:\n    tag_414:\n      swap1\n      0x00\n      mstore\n      keccak256(0x00, 0x20)\n      add\n      0x00\n      swap1\n      sload\n      swap1\n      0x0100\n      exp\n      swap1\n      div\n      0xffffffffffffffffffffffffffffffffffffffff\n      and\n        /* \"contracts/agency.sol\":5320:5357  sales[saleID].buyers[i] == msg.sender */\n      0xffffffffffffffffffffffffffffffffffffffff\n      and\n      sub\n        /* \"contracts/agency.sol\":5316:5429  if (sales[saleID].buyers[i] == msg.sender) {... */\n      tag_417\n      jumpi\n        /* \"contracts/agency.sol\":5385:5389  true */\n      0x01\n        /* \"contracts/agency.sol\":5378:5389  stat = true */\n      swap2\n      pop\n        /* \"contracts/agency.sol\":5408:5413  break */\n      jump(tag_406)\n        /* \"contracts/agency.sol\":5316:5429  if (sales[saleID].buyers[i] == msg.sender) {... */\n    tag_417:\n        /* \"contracts/agency.sol\":5297:5300  i++ */\n      dup1\n      dup1\n      0x01\n      add\n      swap2\n      pop\n      pop\n        /* \"contracts/agency.sol\":5247:5440  for (uint i = 0; i < sales[saleID].buyers.length; i++){... */\n      jump(tag_405)\n    tag_406:\n      pop\n        /* \"contracts/agency.sol\":5466:5471  false */\n      0x00\n        /* \"contracts/agency.sol\":5458:5471  stat == false */\n      iszero\n      iszero\n        /* \"contracts/agency.sol\":5458:5462  stat */\n      dup2\n        /* \"contracts/agency.sol\":5458:5471  stat == false */\n      iszero\n      iszero\n      eq\n        /* \"contracts/agency.sol\":5450:5496  require(stat == false,\"you already in prices\") */\n      tag_418\n      jumpi\n      mload(0x40)\n      0x08c379a000000000000000000000000000000000000000000000000000000000\n      dup2\n      mstore\n      0x04\n      add\n      tag_419\n      swap1\n      tag_420\n      jump\t// in\n    tag_419:\n      mload(0x40)\n      dup1\n      swap2\n      sub\n      swap1\n      revert\n    tag_418:\n        /* \"contracts/agency.sol\":5507:5512  sales */\n      0x02\n        /* \"contracts/agency.sol\":5513:5519  saleID */\n      dup4\n        /* \"contracts/agency.sol\":5507:5520  sales[saleID] */\n      dup2\n      sload\n      dup2\n      lt\n      tag_421\n      jumpi\n      tag_422\n      tag_93\n      jump\t// in\n    tag_422:\n    tag_421:\n      swap1\n      0x00\n      mstore\n      keccak256(0x00, 0x20)\n      swap1\n      0x06\n      mul\n      add\n        /* \"contracts/agency.sol\":5507:5527  sales[saleID].buyers */\n      0x04\n      add\n        /* \"contracts/agency.sol\":5533:5543  msg.sender */\n      caller\n        /* \"contracts/agency.sol\":5507:5544  sales[saleID].buyers.push(msg.sender) */\n      swap1\n      dup1\n      0x01\n      dup2\n      sload\n      add\n      dup1\n      dup3\n      sstore\n      dup1\n      swap2\n      pop\n      pop\n      0x01\n      swap1\n      sub\n      swap1\n      0x00\n      mstore\n      keccak256(0x00, 0x20)\n      add\n      0x00\n      swap1\n      swap2\n      swap1\n      swap2\n      swap1\n      swap2\n      0x0100\n      exp\n      dup2\n      sload\n      dup2\n      0xffffffffffffffffffffffffffffffffffffffff\n      mul\n      not\n      and\n      swap1\n      dup4\n      0xffffffffffffffffffffffffffffffffffffffff\n      and\n      mul\n      or\n      swap1\n      sstore\n      pop\n        /* \"contracts/agency.sol\":5555:5560  sales */\n      0x02\n        /* \"contracts/agency.sol\":5561:5567  saleID */\n      dup4\n        /* \"contracts/agency.sol\":5555:5568  sales[saleID] */\n      dup2\n      sload\n      dup2\n      lt\n      tag_425\n      jumpi\n      tag_426\n      tag_93\n      jump\t// in\n    tag_426:\n    tag_425:\n      swap1\n      0x00\n      mstore\n      keccak256(0x00, 0x20)\n      swap1\n      0x06\n      mul\n      add\n        /* \"contracts/agency.sol\":5555:5575  sales[saleID].prices */\n      0x05\n      add\n        /* \"contracts/agency.sol\":5581:5590  msg.value */\n      callvalue\n        /* \"contracts/agency.sol\":5555:5591  sales[saleID].prices.push(msg.value) */\n      swap1\n      dup1\n      0x01\n      dup2\n      sload\n      add\n      dup1\n      dup3\n      sstore\n      dup1\n      swap2\n      pop\n      pop\n      0x01\n      swap1\n      sub\n      swap1\n      0x00\n      mstore\n      keccak256(0x00, 0x20)\n      add\n      0x00\n      swap1\n      swap2\n      swap1\n      swap2\n      swap1\n      swap2\n      pop\n      sstore\n        /* \"contracts/agency.sol\":4812:5599  {... */\n      pop\n      pop\n        /* \"contracts/agency.sol\":4766:5599  function addPrice(uint saleID) public payable {... */\n      pop\n      jump\t// out\n        /* \"contracts/agency.sol\":842:862  address public admin */\n    tag_83:\n      0x03\n      0x00\n      swap1\n      sload\n      swap1\n      0x0100\n      exp\n      swap1\n      div\n      0xffffffffffffffffffffffffffffffffffffffff\n      and\n      dup2\n      jump\t// out\n    tag_230:\n      dup3\n      dup1\n      sload\n      dup3\n      dup3\n      sstore\n      swap1\n      0x00\n      mstore\n      keccak256(0x00, 0x20)\n      swap1\n      dup2\n      add\n      swap3\n      dup3\n      iszero\n      tag_429\n      jumpi\n      swap2\n      0x20\n      mul\n      dup3\n      add\n    tag_430:\n      dup3\n      dup2\n      gt\n      iszero\n      tag_431\n      jumpi\n      dup3\n      mload\n      dup3\n      exp(0x0100, 0x00)\n      dup2\n      sload\n      dup2\n      0xffffffffffffffffffffffffffffffffffffffff\n      mul\n      not\n      and\n      swap1\n      dup4\n      0xffffffffffffffffffffffffffffffffffffffff\n      and\n      mul\n      or\n      swap1\n      sstore\n      pop\n      swap2\n      0x20\n      add\n      swap2\n      swap1\n      0x01\n      add\n      swap1\n      jump(tag_430)\n    tag_431:\n    tag_429:\n      pop\n      swap1\n      pop\n      tag_432\n      swap2\n      swap1\n      tag_433\n      jump\t// in\n    tag_432:\n      pop\n      swap1\n      jump\t// out\n    tag_232:\n      dup3\n      dup1\n      sload\n      dup3\n      dup3\n      sstore\n      swap1\n      0x00\n      mstore\n      keccak256(0x00, 0x20)\n      swap1\n      dup2\n      add\n      swap3\n      dup3\n      iszero\n      tag_434\n      jumpi\n      swap2\n      0x20\n      mul\n      dup3\n      add\n    tag_435:\n      dup3\n      dup2\n      gt\n      iszero\n      tag_436\n      jumpi\n      dup3\n      mload\n      dup3\n      sstore\n      swap2\n      0x20\n      add\n      swap2\n      swap1\n      0x01\n      add\n      swap1\n      jump(tag_435)\n    tag_436:\n    tag_434:\n      pop\n      swap1\n      pop\n      tag_437\n      swap2\n      swap1\n      tag_433\n      jump\t// in\n    tag_437:\n      pop\n      swap1\n      jump\t// out\n    tag_433:\n    tag_438:\n      dup1\n      dup3\n      gt\n      iszero\n      tag_439\n      jumpi\n      0x00\n      dup2\n      0x00\n      swap1\n      sstore\n      pop\n      0x01\n      add\n      jump(tag_438)\n    tag_439:\n      pop\n      swap1\n      jump\t// out\n        /* \"#utility.yul\":7:82   */\n    tag_440:\n        /* \"#utility.yul\":40:46   */\n      0x00\n        /* \"#utility.yul\":73:75   */\n      0x40\n        /* \"#utility.yul\":67:76   */\n      mload\n        /* \"#utility.yul\":57:76   */\n      swap1\n      pop\n        /* \"#utility.yul\":7:82   */\n      swap1\n      jump\t// out\n        /* \"#utility.yul\":88:205   */\n    tag_441:\n        /* \"#utility.yul\":197:198   */\n      0x00\n        /* \"#utility.yul\":194:195   */\n      dup1\n        /* \"#utility.yul\":187:199   */\n      revert\n        /* \"#utility.yul\":211:328   */\n    tag_442:\n        /* \"#utility.yul\":320:321   */\n      0x00\n        /* \"#utility.yul\":317:318   */\n      dup1\n        /* \"#utility.yul\":310:322   */\n      revert\n        /* \"#utility.yul\":334:411   */\n    tag_443:\n        /* \"#utility.yul\":371:378   */\n      0x00\n        /* \"#utility.yul\":400:405   */\n      dup2\n        /* \"#utility.yul\":389:405   */\n      swap1\n      pop\n        /* \"#utility.yul\":334:411   */\n      swap2\n      swap1\n      pop\n      jump\t// out\n        /* \"#utility.yul\":417:539   */\n    tag_444:\n        /* \"#utility.yul\":490:514   */\n      tag_541\n        /* \"#utility.yul\":508:513   */\n      dup2\n        /* \"#utility.yul\":490:514   */\n      tag_443\n      jump\t// in\n    tag_541:\n        /* \"#utility.yul\":483:488   */\n      dup2\n        /* \"#utility.yul\":480:515   */\n      eq\n        /* \"#utility.yul\":470:533   */\n      tag_542\n      jumpi\n        /* \"#utility.yul\":529:530   */\n      0x00\n        /* \"#utility.yul\":526:527   */\n      dup1\n        /* \"#utility.yul\":519:531   */\n      revert\n        /* \"#utility.yul\":470:533   */\n    tag_542:\n        /* \"#utility.yul\":417:539   */\n      pop\n      jump\t// out\n        /* \"#utility.yul\":545:684   */\n    tag_445:\n        /* \"#utility.yul\":591:596   */\n      0x00\n        /* \"#utility.yul\":629:635   */\n      dup2\n        /* \"#utility.yul\":616:636   */\n      calldataload\n        /* \"#utility.yul\":607:636   */\n      swap1\n      pop\n        /* \"#utility.yul\":645:678   */\n      tag_544\n        /* \"#utility.yul\":672:677   */\n      dup2\n        /* \"#utility.yul\":645:678   */\n      tag_444\n      jump\t// in\n    tag_544:\n        /* \"#utility.yul\":545:684   */\n      swap3\n      swap2\n      pop\n      pop\n      jump\t// out\n        /* \"#utility.yul\":690:780   */\n    tag_446:\n        /* \"#utility.yul\":724:731   */\n      0x00\n        /* \"#utility.yul\":767:772   */\n      dup2\n        /* \"#utility.yul\":760:773   */\n      iszero\n        /* \"#utility.yul\":753:774   */\n      iszero\n        /* \"#utility.yul\":742:774   */\n      swap1\n      pop\n        /* \"#utility.yul\":690:780   */\n      swap2\n      swap1\n      pop\n      jump\t// out\n        /* \"#utility.yul\":786:902   */\n    tag_447:\n        /* \"#utility.yul\":856:877   */\n      tag_547\n        /* \"#utility.yul\":871:876   */\n      dup2\n        /* \"#utility.yul\":856:877   */\n      tag_446\n      jump\t// in\n    tag_547:\n        /* \"#utility.yul\":849:854   */\n      dup2\n        /* \"#utility.yul\":846:878   */\n      eq\n        /* \"#utility.yul\":836:896   */\n      tag_548\n      jumpi\n        /* \"#utility.yul\":892:893   */\n      0x00\n        /* \"#utility.yul\":889:890   */\n      dup1\n        /* \"#utility.yul\":882:894   */\n      revert\n        /* \"#utility.yul\":836:896   */\n    tag_548:\n        /* \"#utility.yul\":786:902   */\n      pop\n      jump\t// out\n        /* \"#utility.yul\":908:1041   */\n    tag_448:\n        /* \"#utility.yul\":951:956   */\n      0x00\n        /* \"#utility.yul\":989:995   */\n      dup2\n        /* \"#utility.yul\":976:996   */\n      calldataload\n        /* \"#utility.yul\":967:996   */\n      swap1\n      pop\n        /* \"#utility.yul\":1005:1035   */\n      tag_550\n        /* \"#utility.yul\":1029:1034   */\n      dup2\n        /* \"#utility.yul\":1005:1035   */\n      tag_447\n      jump\t// in\n    tag_550:\n        /* \"#utility.yul\":908:1041   */\n      swap3\n      swap2\n      pop\n      pop\n      jump\t// out\n        /* \"#utility.yul\":1047:1515   */\n    tag_22:\n        /* \"#utility.yul\":1112:1118   */\n      0x00\n        /* \"#utility.yul\":1120:1126   */\n      dup1\n        /* \"#utility.yul\":1169:1171   */\n      0x40\n        /* \"#utility.yul\":1157:1166   */\n      dup4\n        /* \"#utility.yul\":1148:1155   */\n      dup6\n        /* \"#utility.yul\":1144:1167   */\n      sub\n        /* \"#utility.yul\":1140:1172   */\n      slt\n        /* \"#utility.yul\":1137:1256   */\n      iszero\n      tag_552\n      jumpi\n        /* \"#utility.yul\":1175:1254   */\n      tag_553\n      tag_441\n      jump\t// in\n    tag_553:\n        /* \"#utility.yul\":1137:1256   */\n    tag_552:\n        /* \"#utility.yul\":1295:1296   */\n      0x00\n        /* \"#utility.yul\":1320:1373   */\n      tag_554\n        /* \"#utility.yul\":1365:1372   */\n      dup6\n        /* \"#utility.yul\":1356:1362   */\n      dup3\n        /* \"#utility.yul\":1345:1354   */\n      dup7\n        /* \"#utility.yul\":1341:1363   */\n      add\n        /* \"#utility.yul\":1320:1373   */\n      tag_445\n      jump\t// in\n    tag_554:\n        /* \"#utility.yul\":1310:1373   */\n      swap3\n      pop\n        /* \"#utility.yul\":1266:1383   */\n      pop\n        /* \"#utility.yul\":1422:1424   */\n      0x20\n        /* \"#utility.yul\":1448:1498   */\n      tag_555\n        /* \"#utility.yul\":1490:1497   */\n      dup6\n        /* \"#utility.yul\":1481:1487   */\n      dup3\n        /* \"#utility.yul\":1470:1479   */\n      dup7\n        /* \"#utility.yul\":1466:1488   */\n      add\n        /* \"#utility.yul\":1448:1498   */\n      tag_448\n      jump\t// in\n    tag_555:\n        /* \"#utility.yul\":1438:1498   */\n      swap2\n      pop\n        /* \"#utility.yul\":1393:1508   */\n      pop\n        /* \"#utility.yul\":1047:1515   */\n      swap3\n      pop\n      swap3\n      swap1\n      pop\n      jump\t// out\n        /* \"#utility.yul\":1521:1639   */\n    tag_449:\n        /* \"#utility.yul\":1608:1632   */\n      tag_557\n        /* \"#utility.yul\":1626:1631   */\n      dup2\n        /* \"#utility.yul\":1608:1632   */\n      tag_443\n      jump\t// in\n    tag_557:\n        /* \"#utility.yul\":1603:1606   */\n      dup3\n        /* \"#utility.yul\":1596:1633   */\n      mstore\n        /* \"#utility.yul\":1521:1639   */\n      pop\n      pop\n      jump\t// out\n        /* \"#utility.yul\":1645:1867   */\n    tag_28:\n        /* \"#utility.yul\":1738:1742   */\n      0x00\n        /* \"#utility.yul\":1776:1778   */\n      0x20\n        /* \"#utility.yul\":1765:1774   */\n      dup3\n        /* \"#utility.yul\":1761:1779   */\n      add\n        /* \"#utility.yul\":1753:1779   */\n      swap1\n      pop\n        /* \"#utility.yul\":1789:1860   */\n      tag_559\n        /* \"#utility.yul\":1857:1858   */\n      0x00\n        /* \"#utility.yul\":1846:1855   */\n      dup4\n        /* \"#utility.yul\":1842:1859   */\n      add\n        /* \"#utility.yul\":1833:1839   */\n      dup5\n        /* \"#utility.yul\":1789:1860   */\n      tag_449\n      jump\t// in\n    tag_559:\n        /* \"#utility.yul\":1645:1867   */\n      swap3\n      swap2\n      pop\n      pop\n      jump\t// out\n        /* \"#utility.yul\":1873:2202   */\n    tag_31:\n        /* \"#utility.yul\":1932:1938   */\n      0x00\n        /* \"#utility.yul\":1981:1983   */\n      0x20\n        /* \"#utility.yul\":1969:1978   */\n      dup3\n        /* \"#utility.yul\":1960:1967   */\n      dup5\n        /* \"#utility.yul\":1956:1979   */\n      sub\n        /* \"#utility.yul\":1952:1984   */\n      slt\n        /* \"#utility.yul\":1949:2068   */\n      iszero\n      tag_561\n      jumpi\n        /* \"#utility.yul\":1987:2066   */\n      tag_562\n      tag_441\n      jump\t// in\n    tag_562:\n        /* \"#utility.yul\":1949:2068   */\n    tag_561:\n        /* \"#utility.yul\":2107:2108   */\n      0x00\n        /* \"#utility.yul\":2132:2185   */\n      tag_563\n        /* \"#utility.yul\":2177:2184   */\n      dup5\n        /* \"#utility.yul\":2168:2174   */\n      dup3\n        /* \"#utility.yul\":2157:2166   */\n      dup6\n        /* \"#utility.yul\":2153:2175   */\n      add\n        /* \"#utility.yul\":2132:2185   */\n      tag_445\n      jump\t// in\n    tag_563:\n        /* \"#utility.yul\":2122:2185   */\n      swap2\n      pop\n        /* \"#utility.yul\":2078:2195   */\n      pop\n        /* \"#utility.yul\":1873:2202   */\n      swap3\n      swap2\n      pop\n      pop\n      jump\t// out\n        /* \"#utility.yul\":2208:2334   */\n    tag_450:\n        /* \"#utility.yul\":2245:2252   */\n      0x00\n        /* \"#utility.yul\":2285:2327   */\n      0xffffffffffffffffffffffffffffffffffffffff\n        /* \"#utility.yul\":2278:2283   */\n      dup3\n        /* \"#utility.yul\":2274:2328   */\n      and\n        /* \"#utility.yul\":2263:2328   */\n      swap1\n      pop\n        /* \"#utility.yul\":2208:2334   */\n      swap2\n      swap1\n      pop\n      jump\t// out\n        /* \"#utility.yul\":2340:2436   */\n    tag_451:\n        /* \"#utility.yul\":2377:2384   */\n      0x00\n        /* \"#utility.yul\":2406:2430   */\n      tag_566\n        /* \"#utility.yul\":2424:2429   */\n      dup3\n        /* \"#utility.yul\":2406:2430   */\n      tag_450\n      jump\t// in\n    tag_566:\n        /* \"#utility.yul\":2395:2430   */\n      swap1\n      pop\n        /* \"#utility.yul\":2340:2436   */\n      swap2\n      swap1\n      pop\n      jump\t// out\n        /* \"#utility.yul\":2442:2560   */\n    tag_452:\n        /* \"#utility.yul\":2529:2553   */\n      tag_568\n        /* \"#utility.yul\":2547:2552   */\n      dup2\n        /* \"#utility.yul\":2529:2553   */\n      tag_451\n      jump\t// in\n    tag_568:\n        /* \"#utility.yul\":2524:2527   */\n      dup3\n        /* \"#utility.yul\":2517:2554   */\n      mstore\n        /* \"#utility.yul\":2442:2560   */\n      pop\n      pop\n      jump\t// out\n        /* \"#utility.yul\":2566:2665   */\n    tag_453:\n        /* \"#utility.yul\":2618:2624   */\n      0x00\n        /* \"#utility.yul\":2652:2657   */\n      dup2\n        /* \"#utility.yul\":2646:2658   */\n      mload\n        /* \"#utility.yul\":2636:2658   */\n      swap1\n      pop\n        /* \"#utility.yul\":2566:2665   */\n      swap2\n      swap1\n      pop\n      jump\t// out\n        /* \"#utility.yul\":2671:2840   */\n    tag_454:\n        /* \"#utility.yul\":2755:2766   */\n      0x00\n        /* \"#utility.yul\":2789:2795   */\n      dup3\n        /* \"#utility.yul\":2784:2787   */\n      dup3\n        /* \"#utility.yul\":2777:2796   */\n      mstore\n        /* \"#utility.yul\":2829:2833   */\n      0x20\n        /* \"#utility.yul\":2824:2827   */\n      dup3\n        /* \"#utility.yul\":2820:2834   */\n      add\n        /* \"#utility.yul\":2805:2834   */\n      swap1\n      pop\n        /* \"#utility.yul\":2671:2840   */\n      swap3\n      swap2\n      pop\n      pop\n      jump\t// out\n        /* \"#utility.yul\":2846:2985   */\n    tag_455:\n        /* \"#utility.yul\":2935:2941   */\n      dup3\n        /* \"#utility.yul\":2930:2933   */\n      dup2\n        /* \"#utility.yul\":2925:2928   */\n      dup4\n        /* \"#utility.yul\":2919:2942   */\n      mcopy\n        /* \"#utility.yul\":2976:2977   */\n      0x00\n        /* \"#utility.yul\":2967:2973   */\n      dup4\n        /* \"#utility.yul\":2962:2965   */\n      dup4\n        /* \"#utility.yul\":2958:2974   */\n      add\n        /* \"#utility.yul\":2951:2978   */\n      mstore\n        /* \"#utility.yul\":2846:2985   */\n      pop\n      pop\n      pop\n      jump\t// out\n        /* \"#utility.yul\":2991:3093   */\n    tag_456:\n        /* \"#utility.yul\":3032:3038   */\n      0x00\n        /* \"#utility.yul\":3083:3085   */\n      0x1f\n        /* \"#utility.yul\":3079:3086   */\n      not\n        /* \"#utility.yul\":3074:3076   */\n      0x1f\n        /* \"#utility.yul\":3067:3072   */\n      dup4\n        /* \"#utility.yul\":3063:3077   */\n      add\n        /* \"#utility.yul\":3059:3087   */\n      and\n        /* \"#utility.yul\":3049:3087   */\n      swap1\n      pop\n        /* \"#utility.yul\":2991:3093   */\n      swap2\n      swap1\n      pop\n      jump\t// out\n        /* \"#utility.yul\":3099:3476   */\n    tag_457:\n        /* \"#utility.yul\":3187:3190   */\n      0x00\n        /* \"#utility.yul\":3215:3254   */\n      tag_574\n        /* \"#utility.yul\":3248:3253   */\n      dup3\n        /* \"#utility.yul\":3215:3254   */\n      tag_453\n      jump\t// in\n    tag_574:\n        /* \"#utility.yul\":3270:3341   */\n      tag_575\n        /* \"#utility.yul\":3334:3340   */\n      dup2\n        /* \"#utility.yul\":3329:3332   */\n      dup6\n        /* \"#utility.yul\":3270:3341   */\n      tag_454\n      jump\t// in\n    tag_575:\n        /* \"#utility.yul\":3263:3341   */\n      swap4\n      pop\n        /* \"#utility.yul\":3350:3415   */\n      tag_576\n        /* \"#utility.yul\":3408:3414   */\n      dup2\n        /* \"#utility.yul\":3403:3406   */\n      dup6\n        /* \"#utility.yul\":3396:3400   */\n      0x20\n        /* \"#utility.yul\":3389:3394   */\n      dup7\n        /* \"#utility.yul\":3385:3401   */\n      add\n        /* \"#utility.yul\":3350:3415   */\n      tag_455\n      jump\t// in\n    tag_576:\n        /* \"#utility.yul\":3440:3469   */\n      tag_577\n        /* \"#utility.yul\":3462:3468   */\n      dup2\n        /* \"#utility.yul\":3440:3469   */\n      tag_456\n      jump\t// in\n    tag_577:\n        /* \"#utility.yul\":3435:3438   */\n      dup5\n        /* \"#utility.yul\":3431:3470   */\n      add\n        /* \"#utility.yul\":3424:3470   */\n      swap2\n      pop\n        /* \"#utility.yul\":3191:3476   */\n      pop\n        /* \"#utility.yul\":3099:3476   */\n      swap3\n      swap2\n      pop\n      pop\n      jump\t// out\n        /* \"#utility.yul\":3482:3591   */\n    tag_458:\n        /* \"#utility.yul\":3563:3584   */\n      tag_579\n        /* \"#utility.yul\":3578:3583   */\n      dup2\n        /* \"#utility.yul\":3563:3584   */\n      tag_446\n      jump\t// in\n    tag_579:\n        /* \"#utility.yul\":3558:3561   */\n      dup3\n        /* \"#utility.yul\":3551:3585   */\n      mstore\n        /* \"#utility.yul\":3482:3591   */\n      pop\n      pop\n      jump\t// out\n        /* \"#utility.yul\":3597:4538   */\n    tag_38:\n        /* \"#utility.yul\":3860:3864   */\n      0x00\n        /* \"#utility.yul\":3898:3901   */\n      0xe0\n        /* \"#utility.yul\":3887:3896   */\n      dup3\n        /* \"#utility.yul\":3883:3902   */\n      add\n        /* \"#utility.yul\":3875:3902   */\n      swap1\n      pop\n        /* \"#utility.yul\":3912:3983   */\n      tag_581\n        /* \"#utility.yul\":3980:3981   */\n      0x00\n        /* \"#utility.yul\":3969:3978   */\n      dup4\n        /* \"#utility.yul\":3965:3982   */\n      add\n        /* \"#utility.yul\":3956:3962   */\n      dup11\n        /* \"#utility.yul\":3912:3983   */\n      tag_449\n      jump\t// in\n    tag_581:\n        /* \"#utility.yul\":3993:4065   */\n      tag_582\n        /* \"#utility.yul\":4061:4063   */\n      0x20\n        /* \"#utility.yul\":4050:4059   */\n      dup4\n        /* \"#utility.yul\":4046:4064   */\n      add\n        /* \"#utility.yul\":4037:4043   */\n      dup10\n        /* \"#utility.yul\":3993:4065   */\n      tag_452\n      jump\t// in\n    tag_582:\n        /* \"#utility.yul\":4112:4121   */\n      dup2\n        /* \"#utility.yul\":4106:4110   */\n      dup2\n        /* \"#utility.yul\":4102:4122   */\n      sub\n        /* \"#utility.yul\":4097:4099   */\n      0x40\n        /* \"#utility.yul\":4086:4095   */\n      dup4\n        /* \"#utility.yul\":4082:4100   */\n      add\n        /* \"#utility.yul\":4075:4123   */\n      mstore\n        /* \"#utility.yul\":4140:4218   */\n      tag_583\n        /* \"#utility.yul\":4213:4217   */\n      dup2\n        /* \"#utility.yul\":4204:4210   */\n      dup9\n        /* \"#utility.yul\":4140:4218   */\n      tag_457\n      jump\t// in\n    tag_583:\n        /* \"#utility.yul\":4132:4218   */\n      swap1\n      pop\n        /* \"#utility.yul\":4228:4300   */\n      tag_584\n        /* \"#utility.yul\":4296:4298   */\n      0x60\n        /* \"#utility.yul\":4285:4294   */\n      dup4\n        /* \"#utility.yul\":4281:4299   */\n      add\n        /* \"#utility.yul\":4272:4278   */\n      dup8\n        /* \"#utility.yul\":4228:4300   */\n      tag_449\n      jump\t// in\n    tag_584:\n        /* \"#utility.yul\":4310:4377   */\n      tag_585\n        /* \"#utility.yul\":4372:4375   */\n      0x80\n        /* \"#utility.yul\":4361:4370   */\n      dup4\n        /* \"#utility.yul\":4357:4376   */\n      add\n        /* \"#utility.yul\":4348:4354   */\n      dup7\n        /* \"#utility.yul\":4310:4377   */\n      tag_458\n      jump\t// in\n    tag_585:\n        /* \"#utility.yul\":4387:4454   */\n      tag_586\n        /* \"#utility.yul\":4449:4452   */\n      0xa0\n        /* \"#utility.yul\":4438:4447   */\n      dup4\n        /* \"#utility.yul\":4434:4453   */\n      add\n        /* \"#utility.yul\":4425:4431   */\n      dup6\n        /* \"#utility.yul\":4387:4454   */\n      tag_458\n      jump\t// in\n    tag_586:\n        /* \"#utility.yul\":4464:4531   */\n      tag_587\n        /* \"#utility.yul\":4526:4529   */\n      0xc0\n        /* \"#utility.yul\":4515:4524   */\n      dup4\n        /* \"#utility.yul\":4511:4530   */\n      add\n        /* \"#utility.yul\":4502:4508   */\n      dup5\n        /* \"#utility.yul\":4464:4531   */\n      tag_458\n      jump\t// in\n    tag_587:\n        /* \"#utility.yul\":3597:4538   */\n      swap9\n      swap8\n      pop\n      pop\n      pop\n      pop\n      pop\n      pop\n      pop\n      pop\n      jump\t// out\n        /* \"#utility.yul\":4544:4666   */\n    tag_459:\n        /* \"#utility.yul\":4617:4641   */\n      tag_589\n        /* \"#utility.yul\":4635:4640   */\n      dup2\n        /* \"#utility.yul\":4617:4641   */\n      tag_451\n      jump\t// in\n    tag_589:\n        /* \"#utility.yul\":4610:4615   */\n      dup2\n        /* \"#utility.yul\":4607:4642   */\n      eq\n        /* \"#utility.yul\":4597:4660   */\n      tag_590\n      jumpi\n        /* \"#utility.yul\":4656:4657   */\n      0x00\n        /* \"#utility.yul\":4653:4654   */\n      dup1\n        /* \"#utility.yul\":4646:4658   */\n      revert\n        /* \"#utility.yul\":4597:4660   */\n    tag_590:\n        /* \"#utility.yul\":4544:4666   */\n      pop\n      jump\t// out\n        /* \"#utility.yul\":4672:4811   */\n    tag_460:\n        /* \"#utility.yul\":4718:4723   */\n      0x00\n        /* \"#utility.yul\":4756:4762   */\n      dup2\n        /* \"#utility.yul\":4743:4763   */\n      calldataload\n        /* \"#utility.yul\":4734:4763   */\n      swap1\n      pop\n        /* \"#utility.yul\":4772:4805   */\n      tag_592\n        /* \"#utility.yul\":4799:4804   */\n      dup2\n        /* \"#utility.yul\":4772:4805   */\n      tag_459\n      jump\t// in\n    tag_592:\n        /* \"#utility.yul\":4672:4811   */\n      swap3\n      swap2\n      pop\n      pop\n      jump\t// out\n        /* \"#utility.yul\":4817:5291   */\n    tag_42:\n        /* \"#utility.yul\":4885:4891   */\n      0x00\n        /* \"#utility.yul\":4893:4899   */\n      dup1\n        /* \"#utility.yul\":4942:4944   */\n      0x40\n        /* \"#utility.yul\":4930:4939   */\n      dup4\n        /* \"#utility.yul\":4921:4928   */\n      dup6\n        /* \"#utility.yul\":4917:4940   */\n      sub\n        /* \"#utility.yul\":4913:4945   */\n      slt\n        /* \"#utility.yul\":4910:5029   */\n      iszero\n      tag_594\n      jumpi\n        /* \"#utility.yul\":4948:5027   */\n      tag_595\n      tag_441\n      jump\t// in\n    tag_595:\n        /* \"#utility.yul\":4910:5029   */\n    tag_594:\n        /* \"#utility.yul\":5068:5069   */\n      0x00\n        /* \"#utility.yul\":5093:5146   */\n      tag_596\n        /* \"#utility.yul\":5138:5145   */\n      dup6\n        /* \"#utility.yul\":5129:5135   */\n      dup3\n        /* \"#utility.yul\":5118:5127   */\n      dup7\n        /* \"#utility.yul\":5114:5136   */\n      add\n        /* \"#utility.yul\":5093:5146   */\n      tag_445\n      jump\t// in\n    tag_596:\n        /* \"#utility.yul\":5083:5146   */\n      swap3\n      pop\n        /* \"#utility.yul\":5039:5156   */\n      pop\n        /* \"#utility.yul\":5195:5197   */\n      0x20\n        /* \"#utility.yul\":5221:5274   */\n      tag_597\n        /* \"#utility.yul\":5266:5273   */\n      dup6\n        /* \"#utility.yul\":5257:5263   */\n      dup3\n        /* \"#utility.yul\":5246:5255   */\n      dup7\n        /* \"#utility.yul\":5242:5264   */\n      add\n        /* \"#utility.yul\":5221:5274   */\n      tag_460\n      jump\t// in\n    tag_597:\n        /* \"#utility.yul\":5211:5274   */\n      swap2\n      pop\n        /* \"#utility.yul\":5166:5284   */\n      pop\n        /* \"#utility.yul\":4817:5291   */\n      swap3\n      pop\n      swap3\n      swap1\n      pop\n      jump\t// out\n        /* \"#utility.yul\":5297:5771   */\n    tag_47:\n        /* \"#utility.yul\":5365:5371   */\n      0x00\n        /* \"#utility.yul\":5373:5379   */\n      dup1\n        /* \"#utility.yul\":5422:5424   */\n      0x40\n        /* \"#utility.yul\":5410:5419   */\n      dup4\n        /* \"#utility.yul\":5401:5408   */\n      dup6\n        /* \"#utility.yul\":5397:5420   */\n      sub\n        /* \"#utility.yul\":5393:5425   */\n      slt\n        /* \"#utility.yul\":5390:5509   */\n      iszero\n      tag_599\n      jumpi\n        /* \"#utility.yul\":5428:5507   */\n      tag_600\n      tag_441\n      jump\t// in\n    tag_600:\n        /* \"#utility.yul\":5390:5509   */\n    tag_599:\n        /* \"#utility.yul\":5548:5549   */\n      0x00\n        /* \"#utility.yul\":5573:5626   */\n      tag_601\n        /* \"#utility.yul\":5618:5625   */\n      dup6\n        /* \"#utility.yul\":5609:5615   */\n      dup3\n        /* \"#utility.yul\":5598:5607   */\n      dup7\n        /* \"#utility.yul\":5594:5616   */\n      add\n        /* \"#utility.yul\":5573:5626   */\n      tag_445\n      jump\t// in\n    tag_601:\n        /* \"#utility.yul\":5563:5626   */\n      swap3\n      pop\n        /* \"#utility.yul\":5519:5636   */\n      pop\n        /* \"#utility.yul\":5675:5677   */\n      0x20\n        /* \"#utility.yul\":5701:5754   */\n      tag_602\n        /* \"#utility.yul\":5746:5753   */\n      dup6\n        /* \"#utility.yul\":5737:5743   */\n      dup3\n        /* \"#utility.yul\":5726:5735   */\n      dup7\n        /* \"#utility.yul\":5722:5744   */\n      add\n        /* \"#utility.yul\":5701:5754   */\n      tag_445\n      jump\t// in\n    tag_602:\n        /* \"#utility.yul\":5691:5754   */\n      swap2\n      pop\n        /* \"#utility.yul\":5646:5764   */\n      pop\n        /* \"#utility.yul\":5297:5771   */\n      swap3\n      pop\n      swap3\n      swap1\n      pop\n      jump\t// out\n        /* \"#utility.yul\":5777:5894   */\n    tag_461:\n        /* \"#utility.yul\":5886:5887   */\n      0x00\n        /* \"#utility.yul\":5883:5884   */\n      dup1\n        /* \"#utility.yul\":5876:5888   */\n      revert\n        /* \"#utility.yul\":5900:6017   */\n    tag_462:\n        /* \"#utility.yul\":6009:6010   */\n      0x00\n        /* \"#utility.yul\":6006:6007   */\n      dup1\n        /* \"#utility.yul\":5999:6011   */\n      revert\n        /* \"#utility.yul\":6023:6203   */\n    tag_463:\n        /* \"#utility.yul\":6071:6148   */\n      0x4e487b7100000000000000000000000000000000000000000000000000000000\n        /* \"#utility.yul\":6068:6069   */\n      0x00\n        /* \"#utility.yul\":6061:6149   */\n      mstore\n        /* \"#utility.yul\":6168:6172   */\n      0x41\n        /* \"#utility.yul\":6165:6166   */\n      0x04\n        /* \"#utility.yul\":6158:6173   */\n      mstore\n        /* \"#utility.yul\":6192:6196   */\n      0x24\n        /* \"#utility.yul\":6189:6190   */\n      0x00\n        /* \"#utility.yul\":6182:6197   */\n      revert\n        /* \"#utility.yul\":6209:6490   */\n    tag_464:\n        /* \"#utility.yul\":6292:6319   */\n      tag_607\n        /* \"#utility.yul\":6314:6318   */\n      dup3\n        /* \"#utility.yul\":6292:6319   */\n      tag_456\n      jump\t// in\n    tag_607:\n        /* \"#utility.yul\":6284:6290   */\n      dup2\n        /* \"#utility.yul\":6280:6320   */\n      add\n        /* \"#utility.yul\":6422:6428   */\n      dup2\n        /* \"#utility.yul\":6410:6420   */\n      dup2\n        /* \"#utility.yul\":6407:6429   */\n      lt\n        /* \"#utility.yul\":6386:6404   */\n      0xffffffffffffffff\n        /* \"#utility.yul\":6374:6384   */\n      dup3\n        /* \"#utility.yul\":6371:6405   */\n      gt\n        /* \"#utility.yul\":6368:6430   */\n      or\n        /* \"#utility.yul\":6365:6453   */\n      iszero\n      tag_608\n      jumpi\n        /* \"#utility.yul\":6433:6451   */\n      tag_609\n      tag_463\n      jump\t// in\n    tag_609:\n        /* \"#utility.yul\":6365:6453   */\n    tag_608:\n        /* \"#utility.yul\":6473:6483   */\n      dup1\n        /* \"#utility.yul\":6469:6471   */\n      0x40\n        /* \"#utility.yul\":6462:6484   */\n      mstore\n        /* \"#utility.yul\":6252:6490   */\n      pop\n        /* \"#utility.yul\":6209:6490   */\n      pop\n      pop\n      jump\t// out\n        /* \"#utility.yul\":6496:6625   */\n    tag_465:\n        /* \"#utility.yul\":6530:6536   */\n      0x00\n        /* \"#utility.yul\":6557:6577   */\n      tag_611\n      tag_440\n      jump\t// in\n    tag_611:\n        /* \"#utility.yul\":6547:6577   */\n      swap1\n      pop\n        /* \"#utility.yul\":6586:6619   */\n      tag_612\n        /* \"#utility.yul\":6614:6618   */\n      dup3\n        /* \"#utility.yul\":6606:6612   */\n      dup3\n        /* \"#utility.yul\":6586:6619   */\n      tag_464\n      jump\t// in\n    tag_612:\n        /* \"#utility.yul\":6496:6625   */\n      swap2\n      swap1\n      pop\n      jump\t// out\n        /* \"#utility.yul\":6631:6939   */\n    tag_466:\n        /* \"#utility.yul\":6693:6697   */\n      0x00\n        /* \"#utility.yul\":6783:6801   */\n      0xffffffffffffffff\n        /* \"#utility.yul\":6775:6781   */\n      dup3\n        /* \"#utility.yul\":6772:6802   */\n      gt\n        /* \"#utility.yul\":6769:6825   */\n      iszero\n      tag_614\n      jumpi\n        /* \"#utility.yul\":6805:6823   */\n      tag_615\n      tag_463\n      jump\t// in\n    tag_615:\n        /* \"#utility.yul\":6769:6825   */\n    tag_614:\n        /* \"#utility.yul\":6843:6872   */\n      tag_616\n        /* \"#utility.yul\":6865:6871   */\n      dup3\n        /* \"#utility.yul\":6843:6872   */\n      tag_456\n      jump\t// in\n    tag_616:\n        /* \"#utility.yul\":6835:6872   */\n      swap1\n      pop\n        /* \"#utility.yul\":6927:6931   */\n      0x20\n        /* \"#utility.yul\":6921:6925   */\n      dup2\n        /* \"#utility.yul\":6917:6932   */\n      add\n        /* \"#utility.yul\":6909:6932   */\n      swap1\n      pop\n        /* \"#utility.yul\":6631:6939   */\n      swap2\n      swap1\n      pop\n      jump\t// out\n        /* \"#utility.yul\":6945:7093   */\n    tag_467:\n        /* \"#utility.yul\":7043:7049   */\n      dup3\n        /* \"#utility.yul\":7038:7041   */\n      dup2\n        /* \"#utility.yul\":7033:7036   */\n      dup4\n        /* \"#utility.yul\":7020:7050   */\n      calldatacopy\n        /* \"#utility.yul\":7084:7085   */\n      0x00\n        /* \"#utility.yul\":7075:7081   */\n      dup4\n        /* \"#utility.yul\":7070:7073   */\n      dup4\n        /* \"#utility.yul\":7066:7082   */\n      add\n        /* \"#utility.yul\":7059:7086   */\n      mstore\n        /* \"#utility.yul\":6945:7093   */\n      pop\n      pop\n      pop\n      jump\t// out\n        /* \"#utility.yul\":7099:7524   */\n    tag_468:\n        /* \"#utility.yul\":7177:7182   */\n      0x00\n        /* \"#utility.yul\":7202:7268   */\n      tag_619\n        /* \"#utility.yul\":7218:7267   */\n      tag_620\n        /* \"#utility.yul\":7260:7266   */\n      dup5\n        /* \"#utility.yul\":7218:7267   */\n      tag_466\n      jump\t// in\n    tag_620:\n        /* \"#utility.yul\":7202:7268   */\n      tag_465\n      jump\t// in\n    tag_619:\n        /* \"#utility.yul\":7193:7268   */\n      swap1\n      pop\n        /* \"#utility.yul\":7291:7297   */\n      dup3\n        /* \"#utility.yul\":7284:7289   */\n      dup2\n        /* \"#utility.yul\":7277:7298   */\n      mstore\n        /* \"#utility.yul\":7329:7333   */\n      0x20\n        /* \"#utility.yul\":7322:7327   */\n      dup2\n        /* \"#utility.yul\":7318:7334   */\n      add\n        /* \"#utility.yul\":7367:7370   */\n      dup5\n        /* \"#utility.yul\":7358:7364   */\n      dup5\n        /* \"#utility.yul\":7353:7356   */\n      dup5\n        /* \"#utility.yul\":7349:7365   */\n      add\n        /* \"#utility.yul\":7346:7371   */\n      gt\n        /* \"#utility.yul\":7343:7455   */\n      iszero\n      tag_621\n      jumpi\n        /* \"#utility.yul\":7374:7453   */\n      tag_622\n      tag_462\n      jump\t// in\n    tag_622:\n        /* \"#utility.yul\":7343:7455   */\n    tag_621:\n        /* \"#utility.yul\":7464:7518   */\n      tag_623\n        /* \"#utility.yul\":7511:7517   */\n      dup5\n        /* \"#utility.yul\":7506:7509   */\n      dup3\n        /* \"#utility.yul\":7501:7504   */\n      dup6\n        /* \"#utility.yul\":7464:7518   */\n      tag_467\n      jump\t// in\n    tag_623:\n        /* \"#utility.yul\":7183:7524   */\n      pop\n        /* \"#utility.yul\":7099:7524   */\n      swap4\n      swap3\n      pop\n      pop\n      pop\n      jump\t// out\n        /* \"#utility.yul\":7544:7884   */\n    tag_469:\n        /* \"#utility.yul\":7600:7605   */\n      0x00\n        /* \"#utility.yul\":7649:7652   */\n      dup3\n        /* \"#utility.yul\":7642:7646   */\n      0x1f\n        /* \"#utility.yul\":7634:7640   */\n      dup4\n        /* \"#utility.yul\":7630:7647   */\n      add\n        /* \"#utility.yul\":7626:7653   */\n      slt\n        /* \"#utility.yul\":7616:7738   */\n      tag_625\n      jumpi\n        /* \"#utility.yul\":7657:7736   */\n      tag_626\n      tag_461\n      jump\t// in\n    tag_626:\n        /* \"#utility.yul\":7616:7738   */\n    tag_625:\n        /* \"#utility.yul\":7774:7780   */\n      dup2\n        /* \"#utility.yul\":7761:7781   */\n      calldataload\n        /* \"#utility.yul\":7799:7878   */\n      tag_627\n        /* \"#utility.yul\":7874:7877   */\n      dup5\n        /* \"#utility.yul\":7866:7872   */\n      dup3\n        /* \"#utility.yul\":7859:7863   */\n      0x20\n        /* \"#utility.yul\":7851:7857   */\n      dup7\n        /* \"#utility.yul\":7847:7864   */\n      add\n        /* \"#utility.yul\":7799:7878   */\n      tag_468\n      jump\t// in\n    tag_627:\n        /* \"#utility.yul\":7790:7878   */\n      swap2\n      pop\n        /* \"#utility.yul\":7606:7884   */\n      pop\n        /* \"#utility.yul\":7544:7884   */\n      swap3\n      swap2\n      pop\n      pop\n      jump\t// out\n        /* \"#utility.yul\":7890:8689   */\n    tag_56:\n        /* \"#utility.yul\":7977:7983   */\n      0x00\n        /* \"#utility.yul\":7985:7991   */\n      dup1\n        /* \"#utility.yul\":7993:7999   */\n      0x00\n        /* \"#utility.yul\":8042:8044   */\n      0x60\n        /* \"#utility.yul\":8030:8039   */\n      dup5\n        /* \"#utility.yul\":8021:8028   */\n      dup7\n        /* \"#utility.yul\":8017:8040   */\n      sub\n        /* \"#utility.yul\":8013:8045   */\n      slt\n        /* \"#utility.yul\":8010:8129   */\n      iszero\n      tag_629\n      jumpi\n        /* \"#utility.yul\":8048:8127   */\n      tag_630\n      tag_441\n      jump\t// in\n    tag_630:\n        /* \"#utility.yul\":8010:8129   */\n    tag_629:\n        /* \"#utility.yul\":8168:8169   */\n      0x00\n        /* \"#utility.yul\":8193:8246   */\n      tag_631\n        /* \"#utility.yul\":8238:8245   */\n      dup7\n        /* \"#utility.yul\":8229:8235   */\n      dup3\n        /* \"#utility.yul\":8218:8227   */\n      dup8\n        /* \"#utility.yul\":8214:8236   */\n      add\n        /* \"#utility.yul\":8193:8246   */\n      tag_460\n      jump\t// in\n    tag_631:\n        /* \"#utility.yul\":8183:8246   */\n      swap4\n      pop\n        /* \"#utility.yul\":8139:8256   */\n      pop\n        /* \"#utility.yul\":8323:8325   */\n      0x20\n        /* \"#utility.yul\":8312:8321   */\n      dup5\n        /* \"#utility.yul\":8308:8326   */\n      add\n        /* \"#utility.yul\":8295:8327   */\n      calldataload\n        /* \"#utility.yul\":8354:8372   */\n      0xffffffffffffffff\n        /* \"#utility.yul\":8346:8352   */\n      dup2\n        /* \"#utility.yul\":8343:8373   */\n      gt\n        /* \"#utility.yul\":8340:8457   */\n      iszero\n      tag_632\n      jumpi\n        /* \"#utility.yul\":8376:8455   */\n      tag_633\n      tag_442\n      jump\t// in\n    tag_633:\n        /* \"#utility.yul\":8340:8457   */\n    tag_632:\n        /* \"#utility.yul\":8481:8544   */\n      tag_634\n        /* \"#utility.yul\":8536:8543   */\n      dup7\n        /* \"#utility.yul\":8527:8533   */\n      dup3\n        /* \"#utility.yul\":8516:8525   */\n      dup8\n        /* \"#utility.yul\":8512:8534   */\n      add\n        /* \"#utility.yul\":8481:8544   */\n      tag_469\n      jump\t// in\n    tag_634:\n        /* \"#utility.yul\":8471:8544   */\n      swap3\n      pop\n        /* \"#utility.yul\":8266:8554   */\n      pop\n        /* \"#utility.yul\":8593:8595   */\n      0x40\n        /* \"#utility.yul\":8619:8672   */\n      tag_635\n        /* \"#utility.yul\":8664:8671   */\n      dup7\n        /* \"#utility.yul\":8655:8661   */\n      dup3\n        /* \"#utility.yul\":8644:8653   */\n      dup8\n        /* \"#utility.yul\":8640:8662   */\n      add\n        /* \"#utility.yul\":8619:8672   */\n      tag_445\n      jump\t// in\n    tag_635:\n        /* \"#utility.yul\":8609:8672   */\n      swap2\n      pop\n        /* \"#utility.yul\":8564:8682   */\n      pop\n        /* \"#utility.yul\":7890:8689   */\n      swap3\n      pop\n      swap3\n      pop\n      swap3\n      jump\t// out\n        /* \"#utility.yul\":8695:9248   */\n    tag_63:\n        /* \"#utility.yul\":8872:8876   */\n      0x00\n        /* \"#utility.yul\":8910:8913   */\n      0x80\n        /* \"#utility.yul\":8899:8908   */\n      dup3\n        /* \"#utility.yul\":8895:8914   */\n      add\n        /* \"#utility.yul\":8887:8914   */\n      swap1\n      pop\n        /* \"#utility.yul\":8924:8995   */\n      tag_637\n        /* \"#utility.yul\":8992:8993   */\n      0x00\n        /* \"#utility.yul\":8981:8990   */\n      dup4\n        /* \"#utility.yul\":8977:8994   */\n      add\n        /* \"#utility.yul\":8968:8974   */\n      dup8\n        /* \"#utility.yul\":8924:8995   */\n      tag_449\n      jump\t// in\n    tag_637:\n        /* \"#utility.yul\":9005:9077   */\n      tag_638\n        /* \"#utility.yul\":9073:9075   */\n      0x20\n        /* \"#utility.yul\":9062:9071   */\n      dup4\n        /* \"#utility.yul\":9058:9076   */\n      add\n        /* \"#utility.yul\":9049:9055   */\n      dup7\n        /* \"#utility.yul\":9005:9077   */\n      tag_452\n      jump\t// in\n    tag_638:\n        /* \"#utility.yul\":9087:9159   */\n      tag_639\n        /* \"#utility.yul\":9155:9157   */\n      0x40\n        /* \"#utility.yul\":9144:9153   */\n      dup4\n        /* \"#utility.yul\":9140:9158   */\n      add\n        /* \"#utility.yul\":9131:9137   */\n      dup6\n        /* \"#utility.yul\":9087:9159   */\n      tag_452\n      jump\t// in\n    tag_639:\n        /* \"#utility.yul\":9169:9241   */\n      tag_640\n        /* \"#utility.yul\":9237:9239   */\n      0x60\n        /* \"#utility.yul\":9226:9235   */\n      dup4\n        /* \"#utility.yul\":9222:9240   */\n      add\n        /* \"#utility.yul\":9213:9219   */\n      dup5\n        /* \"#utility.yul\":9169:9241   */\n      tag_449\n      jump\t// in\n    tag_640:\n        /* \"#utility.yul\":8695:9248   */\n      swap6\n      swap5\n      pop\n      pop\n      pop\n      pop\n      pop\n      jump\t// out\n        /* \"#utility.yul\":9254:9434   */\n    tag_195:\n        /* \"#utility.yul\":9302:9379   */\n      0x4e487b7100000000000000000000000000000000000000000000000000000000\n        /* \"#utility.yul\":9299:9300   */\n      0x00\n        /* \"#utility.yul\":9292:9380   */\n      mstore\n        /* \"#utility.yul\":9399:9403   */\n      0x21\n        /* \"#utility.yul\":9396:9397   */\n      0x04\n        /* \"#utility.yul\":9389:9404   */\n      mstore\n        /* \"#utility.yul\":9423:9427   */\n      0x24\n        /* \"#utility.yul\":9420:9421   */\n      0x00\n        /* \"#utility.yul\":9413:9428   */\n      revert\n        /* \"#utility.yul\":9440:9556   */\n    tag_470:\n        /* \"#utility.yul\":9524:9525   */\n      0x05\n        /* \"#utility.yul\":9517:9522   */\n      dup2\n        /* \"#utility.yul\":9514:9526   */\n      lt\n        /* \"#utility.yul\":9504:9550   */\n      tag_643\n      jumpi\n        /* \"#utility.yul\":9530:9548   */\n      tag_644\n      tag_195\n      jump\t// in\n    tag_644:\n        /* \"#utility.yul\":9504:9550   */\n    tag_643:\n        /* \"#utility.yul\":9440:9556   */\n      pop\n      jump\t// out\n        /* \"#utility.yul\":9562:9695   */\n    tag_471:\n        /* \"#utility.yul\":9610:9617   */\n      0x00\n        /* \"#utility.yul\":9639:9644   */\n      dup2\n        /* \"#utility.yul\":9628:9644   */\n      swap1\n      pop\n        /* \"#utility.yul\":9645:9689   */\n      tag_646\n        /* \"#utility.yul\":9683:9688   */\n      dup3\n        /* \"#utility.yul\":9645:9689   */\n      tag_470\n      jump\t// in\n    tag_646:\n        /* \"#utility.yul\":9562:9695   */\n      swap2\n      swap1\n      pop\n      jump\t// out\n        /* \"#utility.yul\":9701:9834   */\n    tag_472:\n        /* \"#utility.yul\":9760:9769   */\n      0x00\n        /* \"#utility.yul\":9793:9828   */\n      tag_648\n        /* \"#utility.yul\":9822:9827   */\n      dup3\n        /* \"#utility.yul\":9793:9828   */\n      tag_471\n      jump\t// in\n    tag_648:\n        /* \"#utility.yul\":9780:9828   */\n      swap1\n      pop\n        /* \"#utility.yul\":9701:9834   */\n      swap2\n      swap1\n      pop\n      jump\t// out\n        /* \"#utility.yul\":9840:9989   */\n    tag_473:\n        /* \"#utility.yul\":9936:9982   */\n      tag_650\n        /* \"#utility.yul\":9976:9981   */\n      dup2\n        /* \"#utility.yul\":9936:9982   */\n      tag_472\n      jump\t// in\n    tag_650:\n        /* \"#utility.yul\":9931:9934   */\n      dup3\n        /* \"#utility.yul\":9924:9983   */\n      mstore\n        /* \"#utility.yul\":9840:9989   */\n      pop\n      pop\n      jump\t// out\n        /* \"#utility.yul\":9995:10788   */\n    tag_73:\n        /* \"#utility.yul\":10237:10241   */\n      0x00\n        /* \"#utility.yul\":10275:10278   */\n      0xc0\n        /* \"#utility.yul\":10264:10273   */\n      dup3\n        /* \"#utility.yul\":10260:10279   */\n      add\n        /* \"#utility.yul\":10252:10279   */\n      swap1\n      pop\n        /* \"#utility.yul\":10289:10360   */\n      tag_652\n        /* \"#utility.yul\":10357:10358   */\n      0x00\n        /* \"#utility.yul\":10346:10355   */\n      dup4\n        /* \"#utility.yul\":10342:10359   */\n      add\n        /* \"#utility.yul\":10333:10339   */\n      dup10\n        /* \"#utility.yul\":10289:10360   */\n      tag_449\n      jump\t// in\n    tag_652:\n        /* \"#utility.yul\":10370:10442   */\n      tag_653\n        /* \"#utility.yul\":10438:10440   */\n      0x20\n        /* \"#utility.yul\":10427:10436   */\n      dup4\n        /* \"#utility.yul\":10423:10441   */\n      add\n        /* \"#utility.yul\":10414:10420   */\n      dup9\n        /* \"#utility.yul\":10370:10442   */\n      tag_449\n      jump\t// in\n    tag_653:\n        /* \"#utility.yul\":10452:10524   */\n      tag_654\n        /* \"#utility.yul\":10520:10522   */\n      0x40\n        /* \"#utility.yul\":10509:10518   */\n      dup4\n        /* \"#utility.yul\":10505:10523   */\n      add\n        /* \"#utility.yul\":10496:10502   */\n      dup8\n        /* \"#utility.yul\":10452:10524   */\n      tag_452\n      jump\t// in\n    tag_654:\n        /* \"#utility.yul\":10534:10606   */\n      tag_655\n        /* \"#utility.yul\":10602:10604   */\n      0x60\n        /* \"#utility.yul\":10591:10600   */\n      dup4\n        /* \"#utility.yul\":10587:10605   */\n      add\n        /* \"#utility.yul\":10578:10584   */\n      dup7\n        /* \"#utility.yul\":10534:10606   */\n      tag_452\n      jump\t// in\n    tag_655:\n        /* \"#utility.yul\":10616:10689   */\n      tag_656\n        /* \"#utility.yul\":10684:10687   */\n      0x80\n        /* \"#utility.yul\":10673:10682   */\n      dup4\n        /* \"#utility.yul\":10669:10688   */\n      add\n        /* \"#utility.yul\":10660:10666   */\n      dup6\n        /* \"#utility.yul\":10616:10689   */\n      tag_449\n      jump\t// in\n    tag_656:\n        /* \"#utility.yul\":10699:10781   */\n      tag_657\n        /* \"#utility.yul\":10776:10779   */\n      0xa0\n        /* \"#utility.yul\":10765:10774   */\n      dup4\n        /* \"#utility.yul\":10761:10780   */\n      add\n        /* \"#utility.yul\":10752:10758   */\n      dup5\n        /* \"#utility.yul\":10699:10781   */\n      tag_473\n      jump\t// in\n    tag_657:\n        /* \"#utility.yul\":9995:10788   */\n      swap8\n      swap7\n      pop\n      pop\n      pop\n      pop\n      pop\n      pop\n      pop\n      jump\t// out\n        /* \"#utility.yul\":10794:11016   */\n    tag_85:\n        /* \"#utility.yul\":10887:10891   */\n      0x00\n        /* \"#utility.yul\":10925:10927   */\n      0x20\n        /* \"#utility.yul\":10914:10923   */\n      dup3\n        /* \"#utility.yul\":10910:10928   */\n      add\n        /* \"#utility.yul\":10902:10928   */\n      swap1\n      pop\n        /* \"#utility.yul\":10938:11009   */\n      tag_659\n        /* \"#utility.yul\":11006:11007   */\n      0x00\n        /* \"#utility.yul\":10995:11004   */\n      dup4\n        /* \"#utility.yul\":10991:11008   */\n      add\n        /* \"#utility.yul\":10982:10988   */\n      dup5\n        /* \"#utility.yul\":10938:11009   */\n      tag_452\n      jump\t// in\n    tag_659:\n        /* \"#utility.yul\":10794:11016   */\n      swap3\n      swap2\n      pop\n      pop\n      jump\t// out\n        /* \"#utility.yul\":11022:11189   */\n    tag_474:\n        /* \"#utility.yul\":11162:11181   */\n      0x596f7520617265206e6f742061646d696e000000000000000000000000000000\n        /* \"#utility.yul\":11158:11159   */\n      0x00\n        /* \"#utility.yul\":11150:11156   */\n      dup3\n        /* \"#utility.yul\":11146:11160   */\n      add\n        /* \"#utility.yul\":11139:11182   */\n      mstore\n        /* \"#utility.yul\":11022:11189   */\n      pop\n      jump\t// out\n        /* \"#utility.yul\":11195:11561   */\n    tag_475:\n        /* \"#utility.yul\":11337:11340   */\n      0x00\n        /* \"#utility.yul\":11358:11425   */\n      tag_662\n        /* \"#utility.yul\":11422:11424   */\n      0x11\n        /* \"#utility.yul\":11417:11420   */\n      dup4\n        /* \"#utility.yul\":11358:11425   */\n      tag_454\n      jump\t// in\n    tag_662:\n        /* \"#utility.yul\":11351:11425   */\n      swap2\n      pop\n        /* \"#utility.yul\":11434:11527   */\n      tag_663\n        /* \"#utility.yul\":11523:11526   */\n      dup3\n        /* \"#utility.yul\":11434:11527   */\n      tag_474\n      jump\t// in\n    tag_663:\n        /* \"#utility.yul\":11552:11554   */\n      0x20\n        /* \"#utility.yul\":11547:11550   */\n      dup3\n        /* \"#utility.yul\":11543:11555   */\n      add\n        /* \"#utility.yul\":11536:11555   */\n      swap1\n      pop\n        /* \"#utility.yul\":11195:11561   */\n      swap2\n      swap1\n      pop\n      jump\t// out\n        /* \"#utility.yul\":11567:11986   */\n    tag_89:\n        /* \"#utility.yul\":11733:11737   */\n      0x00\n        /* \"#utility.yul\":11771:11773   */\n      0x20\n        /* \"#utility.yul\":11760:11769   */\n      dup3\n        /* \"#utility.yul\":11756:11774   */\n      add\n        /* \"#utility.yul\":11748:11774   */\n      swap1\n      pop\n        /* \"#utility.yul\":11820:11829   */\n      dup2\n        /* \"#utility.yul\":11814:11818   */\n      dup2\n        /* \"#utility.yul\":11810:11830   */\n      sub\n        /* \"#utility.yul\":11806:11807   */\n      0x00\n        /* \"#utility.yul\":11795:11804   */\n      dup4\n        /* \"#utility.yul\":11791:11808   */\n      add\n        /* \"#utility.yul\":11784:11831   */\n      mstore\n        /* \"#utility.yul\":11848:11979   */\n      tag_665\n        /* \"#utility.yul\":11974:11978   */\n      dup2\n        /* \"#utility.yul\":11848:11979   */\n      tag_475\n      jump\t// in\n    tag_665:\n        /* \"#utility.yul\":11840:11979   */\n      swap1\n      pop\n        /* \"#utility.yul\":11567:11986   */\n      swap2\n      swap1\n      pop\n      jump\t// out\n        /* \"#utility.yul\":11992:12172   */\n    tag_93:\n        /* \"#utility.yul\":12040:12117   */\n      0x4e487b7100000000000000000000000000000000000000000000000000000000\n        /* \"#utility.yul\":12037:12038   */\n      0x00\n        /* \"#utility.yul\":12030:12118   */\n      mstore\n        /* \"#utility.yul\":12137:12141   */\n      0x32\n        /* \"#utility.yul\":12134:12135   */\n      0x04\n        /* \"#utility.yul\":12127:12142   */\n      mstore\n        /* \"#utility.yul\":12161:12165   */\n      0x24\n        /* \"#utility.yul\":12158:12159   */\n      0x00\n        /* \"#utility.yul\":12151:12166   */\n      revert\n        /* \"#utility.yul\":12178:12342   */\n    tag_476:\n        /* \"#utility.yul\":12318:12334   */\n      0x7468652073616d65206172657374000000000000000000000000000000000000\n        /* \"#utility.yul\":12314:12315   */\n      0x00\n        /* \"#utility.yul\":12306:12312   */\n      dup3\n        /* \"#utility.yul\":12302:12316   */\n      add\n        /* \"#utility.yul\":12295:12335   */\n      mstore\n        /* \"#utility.yul\":12178:12342   */\n      pop\n      jump\t// out\n        /* \"#utility.yul\":12348:12714   */\n    tag_477:\n        /* \"#utility.yul\":12490:12493   */\n      0x00\n        /* \"#utility.yul\":12511:12578   */\n      tag_669\n        /* \"#utility.yul\":12575:12577   */\n      0x0e\n        /* \"#utility.yul\":12570:12573   */\n      dup4\n        /* \"#utility.yul\":12511:12578   */\n      tag_454\n      jump\t// in\n    tag_669:\n        /* \"#utility.yul\":12504:12578   */\n      swap2\n      pop\n        /* \"#utility.yul\":12587:12680   */\n      tag_670\n        /* \"#utility.yul\":12676:12679   */\n      dup3\n        /* \"#utility.yul\":12587:12680   */\n      tag_476\n      jump\t// in\n    tag_670:\n        /* \"#utility.yul\":12705:12707   */\n      0x20\n        /* \"#utility.yul\":12700:12703   */\n      dup3\n        /* \"#utility.yul\":12696:12708   */\n      add\n        /* \"#utility.yul\":12689:12708   */\n      swap1\n      pop\n        /* \"#utility.yul\":12348:12714   */\n      swap2\n      swap1\n      pop\n      jump\t// out\n        /* \"#utility.yul\":12720:13139   */\n    tag_97:\n        /* \"#utility.yul\":12886:12890   */\n      0x00\n        /* \"#utility.yul\":12924:12926   */\n      0x20\n        /* \"#utility.yul\":12913:12922   */\n      dup3\n        /* \"#utility.yul\":12909:12927   */\n      add\n        /* \"#utility.yul\":12901:12927   */\n      swap1\n      pop\n        /* \"#utility.yul\":12973:12982   */\n      dup2\n        /* \"#utility.yul\":12967:12971   */\n      dup2\n        /* \"#utility.yul\":12963:12983   */\n      sub\n        /* \"#utility.yul\":12959:12960   */\n      0x00\n        /* \"#utility.yul\":12948:12957   */\n      dup4\n        /* \"#utility.yul\":12944:12961   */\n      add\n        /* \"#utility.yul\":12937:12984   */\n      mstore\n        /* \"#utility.yul\":13001:13132   */\n      tag_672\n        /* \"#utility.yul\":13127:13131   */\n      dup2\n        /* \"#utility.yul\":13001:13132   */\n      tag_477\n      jump\t// in\n    tag_672:\n        /* \"#utility.yul\":12993:13132   */\n      swap1\n      pop\n        /* \"#utility.yul\":12720:13139   */\n      swap2\n      swap1\n      pop\n      jump\t// out\n        /* \"#utility.yul\":13145:13313   */\n    tag_478:\n        /* \"#utility.yul\":13285:13305   */\n      0x77726f6e672073616c6549442076616c75650000000000000000000000000000\n        /* \"#utility.yul\":13281:13282   */\n      0x00\n        /* \"#utility.yul\":13273:13279   */\n      dup3\n        /* \"#utility.yul\":13269:13283   */\n      add\n        /* \"#utility.yul\":13262:13306   */\n      mstore\n        /* \"#utility.yul\":13145:13313   */\n      pop\n      jump\t// out\n        /* \"#utility.yul\":13319:13685   */\n    tag_479:\n        /* \"#utility.yul\":13461:13464   */\n      0x00\n        /* \"#utility.yul\":13482:13549   */\n      tag_675\n        /* \"#utility.yul\":13546:13548   */\n      0x12\n        /* \"#utility.yul\":13541:13544   */\n      dup4\n        /* \"#utility.yul\":13482:13549   */\n      tag_454\n      jump\t// in\n    tag_675:\n        /* \"#utility.yul\":13475:13549   */\n      swap2\n      pop\n        /* \"#utility.yul\":13558:13651   */\n      tag_676\n        /* \"#utility.yul\":13647:13650   */\n      dup3\n        /* \"#utility.yul\":13558:13651   */\n      tag_478\n      jump\t// in\n    tag_676:\n        /* \"#utility.yul\":13676:13678   */\n      0x20\n        /* \"#utility.yul\":13671:13674   */\n      dup3\n        /* \"#utility.yul\":13667:13679   */\n      add\n        /* \"#utility.yul\":13660:13679   */\n      swap1\n      pop\n        /* \"#utility.yul\":13319:13685   */\n      swap2\n      swap1\n      pop\n      jump\t// out\n        /* \"#utility.yul\":13691:14110   */\n    tag_104:\n        /* \"#utility.yul\":13857:13861   */\n      0x00\n        /* \"#utility.yul\":13895:13897   */\n      0x20\n        /* \"#utility.yul\":13884:13893   */\n      dup3\n        /* \"#utility.yul\":13880:13898   */\n      add\n        /* \"#utility.yul\":13872:13898   */\n      swap1\n      pop\n        /* \"#utility.yul\":13944:13953   */\n      dup2\n        /* \"#utility.yul\":13938:13942   */\n      dup2\n        /* \"#utility.yul\":13934:13954   */\n      sub\n        /* \"#utility.yul\":13930:13931   */\n      0x00\n        /* \"#utility.yul\":13919:13928   */\n      dup4\n        /* \"#utility.yul\":13915:13932   */\n      add\n        /* \"#utility.yul\":13908:13955   */\n      mstore\n        /* \"#utility.yul\":13972:14103   */\n      tag_678\n        /* \"#utility.yul\":14098:14102   */\n      dup2\n        /* \"#utility.yul\":13972:14103   */\n      tag_479\n      jump\t// in\n    tag_678:\n        /* \"#utility.yul\":13964:14103   */\n      swap1\n      pop\n        /* \"#utility.yul\":13691:14110   */\n      swap2\n      swap1\n      pop\n      jump\t// out\n        /* \"#utility.yul\":14116:14280   */\n    tag_480:\n        /* \"#utility.yul\":14256:14272   */\n      0x53616c6520697320636c6f736564000000000000000000000000000000000000\n        /* \"#utility.yul\":14252:14253   */\n      0x00\n        /* \"#utility.yul\":14244:14250   */\n      dup3\n        /* \"#utility.yul\":14240:14254   */\n      add\n        /* \"#utility.yul\":14233:14273   */\n      mstore\n        /* \"#utility.yul\":14116:14280   */\n      pop\n      jump\t// out\n        /* \"#utility.yul\":14286:14652   */\n    tag_481:\n        /* \"#utility.yul\":14428:14431   */\n      0x00\n        /* \"#utility.yul\":14449:14516   */\n      tag_681\n        /* \"#utility.yul\":14513:14515   */\n      0x0e\n        /* \"#utility.yul\":14508:14511   */\n      dup4\n        /* \"#utility.yul\":14449:14516   */\n      tag_454\n      jump\t// in\n    tag_681:\n        /* \"#utility.yul\":14442:14516   */\n      swap2\n      pop\n        /* \"#utility.yul\":14525:14618   */\n      tag_682\n        /* \"#utility.yul\":14614:14617   */\n      dup3\n        /* \"#utility.yul\":14525:14618   */\n      tag_480\n      jump\t// in\n    tag_682:\n        /* \"#utility.yul\":14643:14645   */\n      0x20\n        /* \"#utility.yul\":14638:14641   */\n      dup3\n        /* \"#utility.yul\":14634:14646   */\n      add\n        /* \"#utility.yul\":14627:14646   */\n      swap1\n      pop\n        /* \"#utility.yul\":14286:14652   */\n      swap2\n      swap1\n      pop\n      jump\t// out\n        /* \"#utility.yul\":14658:15077   */\n    tag_110:\n        /* \"#utility.yul\":14824:14828   */\n      0x00\n        /* \"#utility.yul\":14862:14864   */\n      0x20\n        /* \"#utility.yul\":14851:14860   */\n      dup3\n        /* \"#utility.yul\":14847:14865   */\n      add\n        /* \"#utility.yul\":14839:14865   */\n      swap1\n      pop\n        /* \"#utility.yul\":14911:14920   */\n      dup2\n        /* \"#utility.yul\":14905:14909   */\n      dup2\n        /* \"#utility.yul\":14901:14921   */\n      sub\n        /* \"#utility.yul\":14897:14898   */\n      0x00\n        /* \"#utility.yul\":14886:14895   */\n      dup4\n        /* \"#utility.yul\":14882:14899   */\n      add\n        /* \"#utility.yul\":14875:14922   */\n      mstore\n        /* \"#utility.yul\":14939:15070   */\n      tag_684\n        /* \"#utility.yul\":15065:15069   */\n      dup2\n        /* \"#utility.yul\":14939:15070   */\n      tag_481\n      jump\t// in\n    tag_684:\n        /* \"#utility.yul\":14931:15070   */\n      swap1\n      pop\n        /* \"#utility.yul\":14658:15077   */\n      swap2\n      swap1\n      pop\n      jump\t// out\n        /* \"#utility.yul\":15083:15247   */\n    tag_482:\n        /* \"#utility.yul\":15223:15239   */\n      0x796f752070726963652069732030000000000000000000000000000000000000\n        /* \"#utility.yul\":15219:15220   */\n      0x00\n        /* \"#utility.yul\":15211:15217   */\n      dup3\n        /* \"#utility.yul\":15207:15221   */\n      add\n        /* \"#utility.yul\":15200:15240   */\n      mstore\n        /* \"#utility.yul\":15083:15247   */\n      pop\n      jump\t// out\n        /* \"#utility.yul\":15253:15619   */\n    tag_483:\n        /* \"#utility.yul\":15395:15398   */\n      0x00\n        /* \"#utility.yul\":15416:15483   */\n      tag_687\n        /* \"#utility.yul\":15480:15482   */\n      0x0e\n        /* \"#utility.yul\":15475:15478   */\n      dup4\n        /* \"#utility.yul\":15416:15483   */\n      tag_454\n      jump\t// in\n    tag_687:\n        /* \"#utility.yul\":15409:15483   */\n      swap2\n      pop\n        /* \"#utility.yul\":15492:15585   */\n      tag_688\n        /* \"#utility.yul\":15581:15584   */\n      dup3\n        /* \"#utility.yul\":15492:15585   */\n      tag_482\n      jump\t// in\n    tag_688:\n        /* \"#utility.yul\":15610:15612   */\n      0x20\n        /* \"#utility.yul\":15605:15608   */\n      dup3\n        /* \"#utility.yul\":15601:15613   */\n      add\n        /* \"#utility.yul\":15594:15613   */\n      swap1\n      pop\n        /* \"#utility.yul\":15253:15619   */\n      swap2\n      swap1\n      pop\n      jump\t// out\n        /* \"#utility.yul\":15625:16044   */\n    tag_132:\n        /* \"#utility.yul\":15791:15795   */\n      0x00\n        /* \"#utility.yul\":15829:15831   */\n      0x20\n        /* \"#utility.yul\":15818:15827   */\n      dup3\n        /* \"#utility.yul\":15814:15832   */\n      add\n        /* \"#utility.yul\":15806:15832   */\n      swap1\n      pop\n        /* \"#utility.yul\":15878:15887   */\n      dup2\n        /* \"#utility.yul\":15872:15876   */\n      dup2\n        /* \"#utility.yul\":15868:15888   */\n      sub\n        /* \"#utility.yul\":15864:15865   */\n      0x00\n        /* \"#utility.yul\":15853:15862   */\n      dup4\n        /* \"#utility.yul\":15849:15866   */\n      add\n        /* \"#utility.yul\":15842:15889   */\n      mstore\n        /* \"#utility.yul\":15906:16037   */\n      tag_690\n        /* \"#utility.yul\":16032:16036   */\n      dup2\n        /* \"#utility.yul\":15906:16037   */\n      tag_483\n      jump\t// in\n    tag_690:\n        /* \"#utility.yul\":15898:16037   */\n      swap1\n      pop\n        /* \"#utility.yul\":15625:16044   */\n      swap2\n      swap1\n      pop\n      jump\t// out\n        /* \"#utility.yul\":16050:16230   */\n    tag_484:\n        /* \"#utility.yul\":16098:16175   */\n      0x4e487b7100000000000000000000000000000000000000000000000000000000\n        /* \"#utility.yul\":16095:16096   */\n      0x00\n        /* \"#utility.yul\":16088:16176   */\n      mstore\n        /* \"#utility.yul\":16195:16199   */\n      0x22\n        /* \"#utility.yul\":16192:16193   */\n      0x04\n        /* \"#utility.yul\":16185:16200   */\n      mstore\n        /* \"#utility.yul\":16219:16223   */\n      0x24\n        /* \"#utility.yul\":16216:16217   */\n      0x00\n        /* \"#utility.yul\":16209:16224   */\n      revert\n        /* \"#utility.yul\":16236:16556   */\n    tag_150:\n        /* \"#utility.yul\":16280:16286   */\n      0x00\n        /* \"#utility.yul\":16317:16318   */\n      0x02\n        /* \"#utility.yul\":16311:16315   */\n      dup3\n        /* \"#utility.yul\":16307:16319   */\n      div\n        /* \"#utility.yul\":16297:16319   */\n      swap1\n      pop\n        /* \"#utility.yul\":16364:16365   */\n      0x01\n        /* \"#utility.yul\":16358:16362   */\n      dup3\n        /* \"#utility.yul\":16354:16366   */\n      and\n        /* \"#utility.yul\":16385:16403   */\n      dup1\n        /* \"#utility.yul\":16375:16456   */\n      tag_693\n      jumpi\n        /* \"#utility.yul\":16441:16445   */\n      0x7f\n        /* \"#utility.yul\":16433:16439   */\n      dup3\n        /* \"#utility.yul\":16429:16446   */\n      and\n        /* \"#utility.yul\":16419:16446   */\n      swap2\n      pop\n        /* \"#utility.yul\":16375:16456   */\n    tag_693:\n        /* \"#utility.yul\":16503:16505   */\n      0x20\n        /* \"#utility.yul\":16495:16501   */\n      dup3\n        /* \"#utility.yul\":16492:16506   */\n      lt\n        /* \"#utility.yul\":16472:16490   */\n      dup2\n        /* \"#utility.yul\":16469:16507   */\n      sub\n        /* \"#utility.yul\":16466:16550   */\n      tag_694\n      jumpi\n        /* \"#utility.yul\":16522:16540   */\n      tag_695\n      tag_484\n      jump\t// in\n    tag_695:\n        /* \"#utility.yul\":16466:16550   */\n    tag_694:\n        /* \"#utility.yul\":16287:16556   */\n      pop\n        /* \"#utility.yul\":16236:16556   */\n      swap2\n      swap1\n      pop\n      jump\t// out\n        /* \"#utility.yul\":16562:16729   */\n    tag_485:\n        /* \"#utility.yul\":16702:16721   */\n      0x4973206e6f7420796f7572206275696c64000000000000000000000000000000\n        /* \"#utility.yul\":16698:16699   */\n      0x00\n        /* \"#utility.yul\":16690:16696   */\n      dup3\n        /* \"#utility.yul\":16686:16700   */\n      add\n        /* \"#utility.yul\":16679:16722   */\n      mstore\n        /* \"#utility.yul\":16562:16729   */\n      pop\n      jump\t// out\n        /* \"#utility.yul\":16735:17101   */\n    tag_486:\n        /* \"#utility.yul\":16877:16880   */\n      0x00\n        /* \"#utility.yul\":16898:16965   */\n      tag_698\n        /* \"#utility.yul\":16962:16964   */\n      0x11\n        /* \"#utility.yul\":16957:16960   */\n      dup4\n        /* \"#utility.yul\":16898:16965   */\n      tag_454\n      jump\t// in\n    tag_698:\n        /* \"#utility.yul\":16891:16965   */\n      swap2\n      pop\n        /* \"#utility.yul\":16974:17067   */\n      tag_699\n        /* \"#utility.yul\":17063:17066   */\n      dup3\n        /* \"#utility.yul\":16974:17067   */\n      tag_485\n      jump\t// in\n    tag_699:\n        /* \"#utility.yul\":17092:17094   */\n      0x20\n        /* \"#utility.yul\":17087:17090   */\n      dup3\n        /* \"#utility.yul\":17083:17095   */\n      add\n        /* \"#utility.yul\":17076:17095   */\n      swap1\n      pop\n        /* \"#utility.yul\":16735:17101   */\n      swap2\n      swap1\n      pop\n      jump\t// out\n        /* \"#utility.yul\":17107:17526   */\n    tag_161:\n        /* \"#utility.yul\":17273:17277   */\n      0x00\n        /* \"#utility.yul\":17311:17313   */\n      0x20\n        /* \"#utility.yul\":17300:17309   */\n      dup3\n        /* \"#utility.yul\":17296:17314   */\n      add\n        /* \"#utility.yul\":17288:17314   */\n      swap1\n      pop\n        /* \"#utility.yul\":17360:17369   */\n      dup2\n        /* \"#utility.yul\":17354:17358   */\n      dup2\n        /* \"#utility.yul\":17350:17370   */\n      sub\n        /* \"#utility.yul\":17346:17347   */\n      0x00\n        /* \"#utility.yul\":17335:17344   */\n      dup4\n        /* \"#utility.yul\":17331:17348   */\n      add\n        /* \"#utility.yul\":17324:17371   */\n      mstore\n        /* \"#utility.yul\":17388:17519   */\n      tag_701\n        /* \"#utility.yul\":17514:17518   */\n      dup2\n        /* \"#utility.yul\":17388:17519   */\n      tag_486\n      jump\t// in\n    tag_701:\n        /* \"#utility.yul\":17380:17519   */\n      swap1\n      pop\n        /* \"#utility.yul\":17107:17526   */\n      swap2\n      swap1\n      pop\n      jump\t// out\n        /* \"#utility.yul\":17532:17700   */\n    tag_487:\n        /* \"#utility.yul\":17672:17692   */\n      0x416c726561647920696e2070726573656e740000000000000000000000000000\n        /* \"#utility.yul\":17668:17669   */\n      0x00\n        /* \"#utility.yul\":17660:17666   */\n      dup3\n        /* \"#utility.yul\":17656:17670   */\n      add\n        /* \"#utility.yul\":17649:17693   */\n      mstore\n        /* \"#utility.yul\":17532:17700   */\n      pop\n      jump\t// out\n        /* \"#utility.yul\":17706:18072   */\n    tag_488:\n        /* \"#utility.yul\":17848:17851   */\n      0x00\n        /* \"#utility.yul\":17869:17936   */\n      tag_704\n        /* \"#utility.yul\":17933:17935   */\n      0x12\n        /* \"#utility.yul\":17928:17931   */\n      dup4\n        /* \"#utility.yul\":17869:17936   */\n      tag_454\n      jump\t// in\n    tag_704:\n        /* \"#utility.yul\":17862:17936   */\n      swap2\n      pop\n        /* \"#utility.yul\":17945:18038   */\n      tag_705\n        /* \"#utility.yul\":18034:18037   */\n      dup3\n        /* \"#utility.yul\":17945:18038   */\n      tag_487\n      jump\t// in\n    tag_705:\n        /* \"#utility.yul\":18063:18065   */\n      0x20\n        /* \"#utility.yul\":18058:18061   */\n      dup3\n        /* \"#utility.yul\":18054:18066   */\n      add\n        /* \"#utility.yul\":18047:18066   */\n      swap1\n      pop\n        /* \"#utility.yul\":17706:18072   */\n      swap2\n      swap1\n      pop\n      jump\t// out\n        /* \"#utility.yul\":18078:18497   */\n    tag_168:\n        /* \"#utility.yul\":18244:18248   */\n      0x00\n        /* \"#utility.yul\":18282:18284   */\n      0x20\n        /* \"#utility.yul\":18271:18280   */\n      dup3\n        /* \"#utility.yul\":18267:18285   */\n      add\n        /* \"#utility.yul\":18259:18285   */\n      swap1\n      pop\n        /* \"#utility.yul\":18331:18340   */\n      dup2\n        /* \"#utility.yul\":18325:18329   */\n      dup2\n        /* \"#utility.yul\":18321:18341   */\n      sub\n        /* \"#utility.yul\":18317:18318   */\n      0x00\n        /* \"#utility.yul\":18306:18315   */\n      dup4\n        /* \"#utility.yul\":18302:18319   */\n      add\n        /* \"#utility.yul\":18295:18342   */\n      mstore\n        /* \"#utility.yul\":18359:18490   */\n      tag_707\n        /* \"#utility.yul\":18485:18489   */\n      dup2\n        /* \"#utility.yul\":18359:18490   */\n      tag_488\n      jump\t// in\n    tag_707:\n        /* \"#utility.yul\":18351:18490   */\n      swap1\n      pop\n        /* \"#utility.yul\":18078:18497   */\n      swap2\n      swap1\n      pop\n      jump\t// out\n        /* \"#utility.yul\":18503:18668   */\n    tag_489:\n        /* \"#utility.yul\":18643:18660   */\n      0x416c726561647920696e2073616c650000000000000000000000000000000000\n        /* \"#utility.yul\":18639:18640   */\n      0x00\n        /* \"#utility.yul\":18631:18637   */\n      dup3\n        /* \"#utility.yul\":18627:18641   */\n      add\n        /* \"#utility.yul\":18620:18661   */\n      mstore\n        /* \"#utility.yul\":18503:18668   */\n      pop\n      jump\t// out\n        /* \"#utility.yul\":18674:19040   */\n    tag_490:\n        /* \"#utility.yul\":18816:18819   */\n      0x00\n        /* \"#utility.yul\":18837:18904   */\n      tag_710\n        /* \"#utility.yul\":18901:18903   */\n      0x0f\n        /* \"#utility.yul\":18896:18899   */\n      dup4\n        /* \"#utility.yul\":18837:18904   */\n      tag_454\n      jump\t// in\n    tag_710:\n        /* \"#utility.yul\":18830:18904   */\n      swap2\n      pop\n        /* \"#utility.yul\":18913:19006   */\n      tag_711\n        /* \"#utility.yul\":19002:19005   */\n      dup3\n        /* \"#utility.yul\":18913:19006   */\n      tag_489\n      jump\t// in\n    tag_711:\n        /* \"#utility.yul\":19031:19033   */\n      0x20\n        /* \"#utility.yul\":19026:19029   */\n      dup3\n        /* \"#utility.yul\":19022:19034   */\n      add\n        /* \"#utility.yul\":19015:19034   */\n      swap1\n      pop\n        /* \"#utility.yul\":18674:19040   */\n      swap2\n      swap1\n      pop\n      jump\t// out\n        /* \"#utility.yul\":19046:19465   */\n    tag_174:\n        /* \"#utility.yul\":19212:19216   */\n      0x00\n        /* \"#utility.yul\":19250:19252   */\n      0x20\n        /* \"#utility.yul\":19239:19248   */\n      dup3\n        /* \"#utility.yul\":19235:19253   */\n      add\n        /* \"#utility.yul\":19227:19253   */\n      swap1\n      pop\n        /* \"#utility.yul\":19299:19308   */\n      dup2\n        /* \"#utility.yul\":19293:19297   */\n      dup2\n        /* \"#utility.yul\":19289:19309   */\n      sub\n        /* \"#utility.yul\":19285:19286   */\n      0x00\n        /* \"#utility.yul\":19274:19283   */\n      dup4\n        /* \"#utility.yul\":19270:19287   */\n      add\n        /* \"#utility.yul\":19263:19310   */\n      mstore\n        /* \"#utility.yul\":19327:19458   */\n      tag_713\n        /* \"#utility.yul\":19453:19457   */\n      dup2\n        /* \"#utility.yul\":19327:19458   */\n      tag_490\n      jump\t// in\n    tag_713:\n        /* \"#utility.yul\":19319:19458   */\n      swap1\n      pop\n        /* \"#utility.yul\":19046:19465   */\n      swap2\n      swap1\n      pop\n      jump\t// out\n        /* \"#utility.yul\":19471:19635   */\n    tag_491:\n        /* \"#utility.yul\":19611:19627   */\n      0x4275696c6420696e206172657374000000000000000000000000000000000000\n        /* \"#utility.yul\":19607:19608   */\n      0x00\n        /* \"#utility.yul\":19599:19605   */\n      dup3\n        /* \"#utility.yul\":19595:19609   */\n      add\n        /* \"#utility.yul\":19588:19628   */\n      mstore\n        /* \"#utility.yul\":19471:19635   */\n      pop\n      jump\t// out\n        /* \"#utility.yul\":19641:20007   */\n    tag_492:\n        /* \"#utility.yul\":19783:19786   */\n      0x00\n        /* \"#utility.yul\":19804:19871   */\n      tag_716\n        /* \"#utility.yul\":19868:19870   */\n      0x0e\n        /* \"#utility.yul\":19863:19866   */\n      dup4\n        /* \"#utility.yul\":19804:19871   */\n      tag_454\n      jump\t// in\n    tag_716:\n        /* \"#utility.yul\":19797:19871   */\n      swap2\n      pop\n        /* \"#utility.yul\":19880:19973   */\n      tag_717\n        /* \"#utility.yul\":19969:19972   */\n      dup3\n        /* \"#utility.yul\":19880:19973   */\n      tag_491\n      jump\t// in\n    tag_717:\n        /* \"#utility.yul\":19998:20000   */\n      0x20\n        /* \"#utility.yul\":19993:19996   */\n      dup3\n        /* \"#utility.yul\":19989:20001   */\n      add\n        /* \"#utility.yul\":19982:20001   */\n      swap1\n      pop\n        /* \"#utility.yul\":19641:20007   */\n      swap2\n      swap1\n      pop\n      jump\t// out\n        /* \"#utility.yul\":20013:20432   */\n    tag_180:\n        /* \"#utility.yul\":20179:20183   */\n      0x00\n        /* \"#utility.yul\":20217:20219   */\n      0x20\n        /* \"#utility.yul\":20206:20215   */\n      dup3\n        /* \"#utility.yul\":20202:20220   */\n      add\n        /* \"#utility.yul\":20194:20220   */\n      swap1\n      pop\n        /* \"#utility.yul\":20266:20275   */\n      dup2\n        /* \"#utility.yul\":20260:20264   */\n      dup2\n        /* \"#utility.yul\":20256:20276   */\n      sub\n        /* \"#utility.yul\":20252:20253   */\n      0x00\n        /* \"#utility.yul\":20241:20250   */\n      dup4\n        /* \"#utility.yul\":20237:20254   */\n      add\n        /* \"#utility.yul\":20230:20277   */\n      mstore\n        /* \"#utility.yul\":20294:20425   */\n      tag_719\n        /* \"#utility.yul\":20420:20424   */\n      dup2\n        /* \"#utility.yul\":20294:20425   */\n      tag_492\n      jump\t// in\n    tag_719:\n        /* \"#utility.yul\":20286:20425   */\n      swap1\n      pop\n        /* \"#utility.yul\":20013:20432   */\n      swap2\n      swap1\n      pop\n      jump\t// out\n        /* \"#utility.yul\":20438:20601   */\n    tag_493:\n        /* \"#utility.yul\":20578:20593   */\n      0x77726f6e675f6164647265737300000000000000000000000000000000000000\n        /* \"#utility.yul\":20574:20575   */\n      0x00\n        /* \"#utility.yul\":20566:20572   */\n      dup3\n        /* \"#utility.yul\":20562:20576   */\n      add\n        /* \"#utility.yul\":20555:20594   */\n      mstore\n        /* \"#utility.yul\":20438:20601   */\n      pop\n      jump\t// out\n        /* \"#utility.yul\":20607:20973   */\n    tag_494:\n        /* \"#utility.yul\":20749:20752   */\n      0x00\n        /* \"#utility.yul\":20770:20837   */\n      tag_722\n        /* \"#utility.yul\":20834:20836   */\n      0x0d\n        /* \"#utility.yul\":20829:20832   */\n      dup4\n        /* \"#utility.yul\":20770:20837   */\n      tag_454\n      jump\t// in\n    tag_722:\n        /* \"#utility.yul\":20763:20837   */\n      swap2\n      pop\n        /* \"#utility.yul\":20846:20939   */\n      tag_723\n        /* \"#utility.yul\":20935:20938   */\n      dup3\n        /* \"#utility.yul\":20846:20939   */\n      tag_493\n      jump\t// in\n    tag_723:\n        /* \"#utility.yul\":20964:20966   */\n      0x20\n        /* \"#utility.yul\":20959:20962   */\n      dup3\n        /* \"#utility.yul\":20955:20967   */\n      add\n        /* \"#utility.yul\":20948:20967   */\n      swap1\n      pop\n        /* \"#utility.yul\":20607:20973   */\n      swap2\n      swap1\n      pop\n      jump\t// out\n        /* \"#utility.yul\":20979:21398   */\n    tag_184:\n        /* \"#utility.yul\":21145:21149   */\n      0x00\n        /* \"#utility.yul\":21183:21185   */\n      0x20\n        /* \"#utility.yul\":21172:21181   */\n      dup3\n        /* \"#utility.yul\":21168:21186   */\n      add\n        /* \"#utility.yul\":21160:21186   */\n      swap1\n      pop\n        /* \"#utility.yul\":21232:21241   */\n      dup2\n        /* \"#utility.yul\":21226:21230   */\n      dup2\n        /* \"#utility.yul\":21222:21242   */\n      sub\n        /* \"#utility.yul\":21218:21219   */\n      0x00\n        /* \"#utility.yul\":21207:21216   */\n      dup4\n        /* \"#utility.yul\":21203:21220   */\n      add\n        /* \"#utility.yul\":21196:21243   */\n      mstore\n        /* \"#utility.yul\":21260:21391   */\n      tag_725\n        /* \"#utility.yul\":21386:21390   */\n      dup2\n        /* \"#utility.yul\":21260:21391   */\n      tag_494\n      jump\t// in\n    tag_725:\n        /* \"#utility.yul\":21252:21391   */\n      swap1\n      pop\n        /* \"#utility.yul\":20979:21398   */\n      swap2\n      swap1\n      pop\n      jump\t// out\n        /* \"#utility.yul\":21404:21573   */\n    tag_495:\n        /* \"#utility.yul\":21544:21565   */\n      0x77726f6e67206275696c6449442076616c756500000000000000000000000000\n        /* \"#utility.yul\":21540:21541   */\n      0x00\n        /* \"#utility.yul\":21532:21538   */\n      dup3\n        /* \"#utility.yul\":21528:21542   */\n      add\n        /* \"#utility.yul\":21521:21566   */\n      mstore\n        /* \"#utility.yul\":21404:21573   */\n      pop\n      jump\t// out\n        /* \"#utility.yul\":21579:21945   */\n    tag_496:\n        /* \"#utility.yul\":21721:21724   */\n      0x00\n        /* \"#utility.yul\":21742:21809   */\n      tag_728\n        /* \"#utility.yul\":21806:21808   */\n      0x13\n        /* \"#utility.yul\":21801:21804   */\n      dup4\n        /* \"#utility.yul\":21742:21809   */\n      tag_454\n      jump\t// in\n    tag_728:\n        /* \"#utility.yul\":21735:21809   */\n      swap2\n      pop\n        /* \"#utility.yul\":21818:21911   */\n      tag_729\n        /* \"#utility.yul\":21907:21910   */\n      dup3\n        /* \"#utility.yul\":21818:21911   */\n      tag_495\n      jump\t// in\n    tag_729:\n        /* \"#utility.yul\":21936:21938   */\n      0x20\n        /* \"#utility.yul\":21931:21934   */\n      dup3\n        /* \"#utility.yul\":21927:21939   */\n      add\n        /* \"#utility.yul\":21920:21939   */\n      swap1\n      pop\n        /* \"#utility.yul\":21579:21945   */\n      swap2\n      swap1\n      pop\n      jump\t// out\n        /* \"#utility.yul\":21951:22370   */\n    tag_187:\n        /* \"#utility.yul\":22117:22121   */\n      0x00\n        /* \"#utility.yul\":22155:22157   */\n      0x20\n        /* \"#utility.yul\":22144:22153   */\n      dup3\n        /* \"#utility.yul\":22140:22158   */\n      add\n        /* \"#utility.yul\":22132:22158   */\n      swap1\n      pop\n        /* \"#utility.yul\":22204:22213   */\n      dup2\n        /* \"#utility.yul\":22198:22202   */\n      dup2\n        /* \"#utility.yul\":22194:22214   */\n      sub\n        /* \"#utility.yul\":22190:22191   */\n      0x00\n        /* \"#utility.yul\":22179:22188   */\n      dup4\n        /* \"#utility.yul\":22175:22192   */\n      add\n        /* \"#utility.yul\":22168:22215   */\n      mstore\n        /* \"#utility.yul\":22232:22363   */\n      tag_731\n        /* \"#utility.yul\":22358:22362   */\n      dup2\n        /* \"#utility.yul\":22232:22363   */\n      tag_496\n      jump\t// in\n    tag_731:\n        /* \"#utility.yul\":22224:22363   */\n      swap1\n      pop\n        /* \"#utility.yul\":21951:22370   */\n      swap2\n      swap1\n      pop\n      jump\t// out\n        /* \"#utility.yul\":22376:22535   */\n    tag_497:\n        /* \"#utility.yul\":22516:22527   */\n      0x73656c6620676966740000000000000000000000000000000000000000000000\n        /* \"#utility.yul\":22512:22513   */\n      0x00\n        /* \"#utility.yul\":22504:22510   */\n      dup3\n        /* \"#utility.yul\":22500:22514   */\n      add\n        /* \"#utility.yul\":22493:22528   */\n      mstore\n        /* \"#utility.yul\":22376:22535   */\n      pop\n      jump\t// out\n        /* \"#utility.yul\":22541:22906   */\n    tag_498:\n        /* \"#utility.yul\":22683:22686   */\n      0x00\n        /* \"#utility.yul\":22704:22770   */\n      tag_734\n        /* \"#utility.yul\":22768:22769   */\n      0x09\n        /* \"#utility.yul\":22763:22766   */\n      dup4\n        /* \"#utility.yul\":22704:22770   */\n      tag_454\n      jump\t// in\n    tag_734:\n        /* \"#utility.yul\":22697:22770   */\n      swap2\n      pop\n        /* \"#utility.yul\":22779:22872   */\n      tag_735\n        /* \"#utility.yul\":22868:22871   */\n      dup3\n        /* \"#utility.yul\":22779:22872   */\n      tag_497\n      jump\t// in\n    tag_735:\n        /* \"#utility.yul\":22897:22899   */\n      0x20\n        /* \"#utility.yul\":22892:22895   */\n      dup3\n        /* \"#utility.yul\":22888:22900   */\n      add\n        /* \"#utility.yul\":22881:22900   */\n      swap1\n      pop\n        /* \"#utility.yul\":22541:22906   */\n      swap2\n      swap1\n      pop\n      jump\t// out\n        /* \"#utility.yul\":22912:23331   */\n    tag_190:\n        /* \"#utility.yul\":23078:23082   */\n      0x00\n        /* \"#utility.yul\":23116:23118   */\n      0x20\n        /* \"#utility.yul\":23105:23114   */\n      dup3\n        /* \"#utility.yul\":23101:23119   */\n      add\n        /* \"#utility.yul\":23093:23119   */\n      swap1\n      pop\n        /* \"#utility.yul\":23165:23174   */\n      dup2\n        /* \"#utility.yul\":23159:23163   */\n      dup2\n        /* \"#utility.yul\":23155:23175   */\n      sub\n        /* \"#utility.yul\":23151:23152   */\n      0x00\n        /* \"#utility.yul\":23140:23149   */\n      dup4\n        /* \"#utility.yul\":23136:23153   */\n      add\n        /* \"#utility.yul\":23129:23176   */\n      mstore\n        /* \"#utility.yul\":23193:23324   */\n      tag_737\n        /* \"#utility.yul\":23319:23323   */\n      dup2\n        /* \"#utility.yul\":23193:23324   */\n      tag_498\n      jump\t// in\n    tag_737:\n        /* \"#utility.yul\":23185:23324   */\n      swap1\n      pop\n        /* \"#utility.yul\":22912:23331   */\n      swap2\n      swap1\n      pop\n      jump\t// out\n        /* \"#utility.yul\":23337:23517   */\n    tag_499:\n        /* \"#utility.yul\":23385:23462   */\n      0x4e487b7100000000000000000000000000000000000000000000000000000000\n        /* \"#utility.yul\":23382:23383   */\n      0x00\n        /* \"#utility.yul\":23375:23463   */\n      mstore\n        /* \"#utility.yul\":23482:23486   */\n      0x11\n        /* \"#utility.yul\":23479:23480   */\n      0x04\n        /* \"#utility.yul\":23472:23487   */\n      mstore\n        /* \"#utility.yul\":23506:23510   */\n      0x24\n        /* \"#utility.yul\":23503:23504   */\n      0x00\n        /* \"#utility.yul\":23496:23511   */\n      revert\n        /* \"#utility.yul\":23523:23714   */\n    tag_192:\n        /* \"#utility.yul\":23563:23566   */\n      0x00\n        /* \"#utility.yul\":23582:23602   */\n      tag_740\n        /* \"#utility.yul\":23600:23601   */\n      dup3\n        /* \"#utility.yul\":23582:23602   */\n      tag_443\n      jump\t// in\n    tag_740:\n        /* \"#utility.yul\":23577:23602   */\n      swap2\n      pop\n        /* \"#utility.yul\":23616:23636   */\n      tag_741\n        /* \"#utility.yul\":23634:23635   */\n      dup4\n        /* \"#utility.yul\":23616:23636   */\n      tag_443\n      jump\t// in\n    tag_741:\n        /* \"#utility.yul\":23611:23636   */\n      swap3\n      pop\n        /* \"#utility.yul\":23659:23660   */\n      dup3\n        /* \"#utility.yul\":23656:23657   */\n      dup3\n        /* \"#utility.yul\":23652:23661   */\n      add\n        /* \"#utility.yul\":23645:23661   */\n      swap1\n      pop\n        /* \"#utility.yul\":23680:23683   */\n      dup1\n        /* \"#utility.yul\":23677:23678   */\n      dup3\n        /* \"#utility.yul\":23674:23684   */\n      gt\n        /* \"#utility.yul\":23671:23707   */\n      iszero\n      tag_742\n      jumpi\n        /* \"#utility.yul\":23687:23705   */\n      tag_743\n      tag_499\n      jump\t// in\n    tag_743:\n        /* \"#utility.yul\":23671:23707   */\n    tag_742:\n        /* \"#utility.yul\":23523:23714   */\n      swap3\n      swap2\n      pop\n      pop\n      jump\t// out\n        /* \"#utility.yul\":23720:23886   */\n    tag_500:\n        /* \"#utility.yul\":23860:23878   */\n      0x416c72656164792066696e697368656400000000000000000000000000000000\n        /* \"#utility.yul\":23856:23857   */\n      0x00\n        /* \"#utility.yul\":23848:23854   */\n      dup3\n        /* \"#utility.yul\":23844:23858   */\n      add\n        /* \"#utility.yul\":23837:23879   */\n      mstore\n        /* \"#utility.yul\":23720:23886   */\n      pop\n      jump\t// out\n        /* \"#utility.yul\":23892:24258   */\n    tag_501:\n        /* \"#utility.yul\":24034:24037   */\n      0x00\n        /* \"#utility.yul\":24055:24122   */\n      tag_746\n        /* \"#utility.yul\":24119:24121   */\n      0x10\n        /* \"#utility.yul\":24114:24117   */\n      dup4\n        /* \"#utility.yul\":24055:24122   */\n      tag_454\n      jump\t// in\n    tag_746:\n        /* \"#utility.yul\":24048:24122   */\n      swap2\n      pop\n        /* \"#utility.yul\":24131:24224   */\n      tag_747\n        /* \"#utility.yul\":24220:24223   */\n      dup3\n        /* \"#utility.yul\":24131:24224   */\n      tag_500\n      jump\t// in\n    tag_747:\n        /* \"#utility.yul\":24249:24251   */\n      0x20\n        /* \"#utility.yul\":24244:24247   */\n      dup3\n        /* \"#utility.yul\":24240:24252   */\n      add\n        /* \"#utility.yul\":24233:24252   */\n      swap1\n      pop\n        /* \"#utility.yul\":23892:24258   */\n      swap2\n      swap1\n      pop\n      jump\t// out\n        /* \"#utility.yul\":24264:24683   */\n    tag_247:\n        /* \"#utility.yul\":24430:24434   */\n      0x00\n        /* \"#utility.yul\":24468:24470   */\n      0x20\n        /* \"#utility.yul\":24457:24466   */\n      dup3\n        /* \"#utility.yul\":24453:24471   */\n      add\n        /* \"#utility.yul\":24445:24471   */\n      swap1\n      pop\n        /* \"#utility.yul\":24517:24526   */\n      dup2\n        /* \"#utility.yul\":24511:24515   */\n      dup2\n        /* \"#utility.yul\":24507:24527   */\n      sub\n        /* \"#utility.yul\":24503:24504   */\n      0x00\n        /* \"#utility.yul\":24492:24501   */\n      dup4\n        /* \"#utility.yul\":24488:24505   */\n      add\n        /* \"#utility.yul\":24481:24528   */\n      mstore\n        /* \"#utility.yul\":24545:24676   */\n      tag_749\n        /* \"#utility.yul\":24671:24675   */\n      dup2\n        /* \"#utility.yul\":24545:24676   */\n      tag_501\n      jump\t// in\n    tag_749:\n        /* \"#utility.yul\":24537:24676   */\n      swap1\n      pop\n        /* \"#utility.yul\":24264:24683   */\n      swap2\n      swap1\n      pop\n      jump\t// out\n        /* \"#utility.yul\":24689:24856   */\n    tag_502:\n        /* \"#utility.yul\":24829:24848   */\n      0x596f7520617265206e6f74206f776e6572000000000000000000000000000000\n        /* \"#utility.yul\":24825:24826   */\n      0x00\n        /* \"#utility.yul\":24817:24823   */\n      dup3\n        /* \"#utility.yul\":24813:24827   */\n      add\n        /* \"#utility.yul\":24806:24849   */\n      mstore\n        /* \"#utility.yul\":24689:24856   */\n      pop\n      jump\t// out\n        /* \"#utility.yul\":24862:25228   */\n    tag_503:\n        /* \"#utility.yul\":25004:25007   */\n      0x00\n        /* \"#utility.yul\":25025:25092   */\n      tag_752\n        /* \"#utility.yul\":25089:25091   */\n      0x11\n        /* \"#utility.yul\":25084:25087   */\n      dup4\n        /* \"#utility.yul\":25025:25092   */\n      tag_454\n      jump\t// in\n    tag_752:\n        /* \"#utility.yul\":25018:25092   */\n      swap2\n      pop\n        /* \"#utility.yul\":25101:25194   */\n      tag_753\n        /* \"#utility.yul\":25190:25193   */\n      dup3\n        /* \"#utility.yul\":25101:25194   */\n      tag_502\n      jump\t// in\n    tag_753:\n        /* \"#utility.yul\":25219:25221   */\n      0x20\n        /* \"#utility.yul\":25214:25217   */\n      dup3\n        /* \"#utility.yul\":25210:25222   */\n      add\n        /* \"#utility.yul\":25203:25222   */\n      swap1\n      pop\n        /* \"#utility.yul\":24862:25228   */\n      swap2\n      swap1\n      pop\n      jump\t// out\n        /* \"#utility.yul\":25234:25653   */\n    tag_253:\n        /* \"#utility.yul\":25400:25404   */\n      0x00\n        /* \"#utility.yul\":25438:25440   */\n      0x20\n        /* \"#utility.yul\":25427:25436   */\n      dup3\n        /* \"#utility.yul\":25423:25441   */\n      add\n        /* \"#utility.yul\":25415:25441   */\n      swap1\n      pop\n        /* \"#utility.yul\":25487:25496   */\n      dup2\n        /* \"#utility.yul\":25481:25485   */\n      dup2\n        /* \"#utility.yul\":25477:25497   */\n      sub\n        /* \"#utility.yul\":25473:25474   */\n      0x00\n        /* \"#utility.yul\":25462:25471   */\n      dup4\n        /* \"#utility.yul\":25458:25475   */\n      add\n        /* \"#utility.yul\":25451:25498   */\n      mstore\n        /* \"#utility.yul\":25515:25646   */\n      tag_755\n        /* \"#utility.yul\":25641:25645   */\n      dup2\n        /* \"#utility.yul\":25515:25646   */\n      tag_503\n      jump\t// in\n    tag_755:\n        /* \"#utility.yul\":25507:25646   */\n      swap1\n      pop\n        /* \"#utility.yul\":25234:25653   */\n      swap2\n      swap1\n      pop\n      jump\t// out\n        /* \"#utility.yul\":25659:25822   */\n    tag_504:\n        /* \"#utility.yul\":25799:25814   */\n      0x77726f6e67206164647265737300000000000000000000000000000000000000\n        /* \"#utility.yul\":25795:25796   */\n      0x00\n        /* \"#utility.yul\":25787:25793   */\n      dup3\n        /* \"#utility.yul\":25783:25797   */\n      add\n        /* \"#utility.yul\":25776:25815   */\n      mstore\n        /* \"#utility.yul\":25659:25822   */\n      pop\n      jump\t// out\n        /* \"#utility.yul\":25828:26194   */\n    tag_505:\n        /* \"#utility.yul\":25970:25973   */\n      0x00\n        /* \"#utility.yul\":25991:26058   */\n      tag_758\n        /* \"#utility.yul\":26055:26057   */\n      0x0d\n        /* \"#utility.yul\":26050:26053   */\n      dup4\n        /* \"#utility.yul\":25991:26058   */\n      tag_454\n      jump\t// in\n    tag_758:\n        /* \"#utility.yul\":25984:26058   */\n      swap2\n      pop\n        /* \"#utility.yul\":26067:26160   */\n      tag_759\n        /* \"#utility.yul\":26156:26159   */\n      dup3\n        /* \"#utility.yul\":26067:26160   */\n      tag_504\n      jump\t// in\n    tag_759:\n        /* \"#utility.yul\":26185:26187   */\n      0x20\n        /* \"#utility.yul\":26180:26183   */\n      dup3\n        /* \"#utility.yul\":26176:26188   */\n      add\n        /* \"#utility.yul\":26169:26188   */\n      swap1\n      pop\n        /* \"#utility.yul\":25828:26194   */\n      swap2\n      swap1\n      pop\n      jump\t// out\n        /* \"#utility.yul\":26200:26619   */\n    tag_281:\n        /* \"#utility.yul\":26366:26370   */\n      0x00\n        /* \"#utility.yul\":26404:26406   */\n      0x20\n        /* \"#utility.yul\":26393:26402   */\n      dup3\n        /* \"#utility.yul\":26389:26407   */\n      add\n        /* \"#utility.yul\":26381:26407   */\n      swap1\n      pop\n        /* \"#utility.yul\":26453:26462   */\n      dup2\n        /* \"#utility.yul\":26447:26451   */\n      dup2\n        /* \"#utility.yul\":26443:26463   */\n      sub\n        /* \"#utility.yul\":26439:26440   */\n      0x00\n        /* \"#utility.yul\":26428:26437   */\n      dup4\n        /* \"#utility.yul\":26424:26441   */\n      add\n        /* \"#utility.yul\":26417:26464   */\n      mstore\n        /* \"#utility.yul\":26481:26612   */\n      tag_761\n        /* \"#utility.yul\":26607:26611   */\n      dup2\n        /* \"#utility.yul\":26481:26612   */\n      tag_505\n      jump\t// in\n    tag_761:\n        /* \"#utility.yul\":26473:26612   */\n      swap1\n      pop\n        /* \"#utility.yul\":26200:26619   */\n      swap2\n      swap1\n      pop\n      jump\t// out\n        /* \"#utility.yul\":26625:26787   */\n    tag_506:\n        /* \"#utility.yul\":26765:26779   */\n      0x77726f6e67207371756172650000000000000000000000000000000000000000\n        /* \"#utility.yul\":26761:26762   */\n      0x00\n        /* \"#utility.yul\":26753:26759   */\n      dup3\n        /* \"#utility.yul\":26749:26763   */\n      add\n        /* \"#utility.yul\":26742:26780   */\n      mstore\n        /* \"#utility.yul\":26625:26787   */\n      pop\n      jump\t// out\n        /* \"#utility.yul\":26793:27159   */\n    tag_507:\n        /* \"#utility.yul\":26935:26938   */\n      0x00\n        /* \"#utility.yul\":26956:27023   */\n      tag_764\n        /* \"#utility.yul\":27020:27022   */\n      0x0c\n        /* \"#utility.yul\":27015:27018   */\n      dup4\n        /* \"#utility.yul\":26956:27023   */\n      tag_454\n      jump\t// in\n    tag_764:\n        /* \"#utility.yul\":26949:27023   */\n      swap2\n      pop\n        /* \"#utility.yul\":27032:27125   */\n      tag_765\n        /* \"#utility.yul\":27121:27124   */\n      dup3\n        /* \"#utility.yul\":27032:27125   */\n      tag_506\n      jump\t// in\n    tag_765:\n        /* \"#utility.yul\":27150:27152   */\n      0x20\n        /* \"#utility.yul\":27145:27148   */\n      dup3\n        /* \"#utility.yul\":27141:27153   */\n      add\n        /* \"#utility.yul\":27134:27153   */\n      swap1\n      pop\n        /* \"#utility.yul\":26793:27159   */\n      swap2\n      swap1\n      pop\n      jump\t// out\n        /* \"#utility.yul\":27165:27584   */\n    tag_284:\n        /* \"#utility.yul\":27331:27335   */\n      0x00\n        /* \"#utility.yul\":27369:27371   */\n      0x20\n        /* \"#utility.yul\":27358:27367   */\n      dup3\n        /* \"#utility.yul\":27354:27372   */\n      add\n        /* \"#utility.yul\":27346:27372   */\n      swap1\n      pop\n        /* \"#utility.yul\":27418:27427   */\n      dup2\n        /* \"#utility.yul\":27412:27416   */\n      dup2\n        /* \"#utility.yul\":27408:27428   */\n      sub\n        /* \"#utility.yul\":27404:27405   */\n      0x00\n        /* \"#utility.yul\":27393:27402   */\n      dup4\n        /* \"#utility.yul\":27389:27406   */\n      add\n        /* \"#utility.yul\":27382:27429   */\n      mstore\n        /* \"#utility.yul\":27446:27577   */\n      tag_767\n        /* \"#utility.yul\":27572:27576   */\n      dup2\n        /* \"#utility.yul\":27446:27577   */\n      tag_507\n      jump\t// in\n    tag_767:\n        /* \"#utility.yul\":27438:27577   */\n      swap1\n      pop\n        /* \"#utility.yul\":27165:27584   */\n      swap2\n      swap1\n      pop\n      jump\t// out\n        /* \"#utility.yul\":27590:27731   */\n    tag_508:\n        /* \"#utility.yul\":27639:27643   */\n      0x00\n        /* \"#utility.yul\":27662:27665   */\n      dup2\n        /* \"#utility.yul\":27654:27665   */\n      swap1\n      pop\n        /* \"#utility.yul\":27685:27688   */\n      dup2\n        /* \"#utility.yul\":27682:27683   */\n      0x00\n        /* \"#utility.yul\":27675:27689   */\n      mstore\n        /* \"#utility.yul\":27719:27723   */\n      0x20\n        /* \"#utility.yul\":27716:27717   */\n      0x00\n        /* \"#utility.yul\":27706:27724   */\n      keccak256\n        /* \"#utility.yul\":27698:27724   */\n      swap1\n      pop\n        /* \"#utility.yul\":27590:27731   */\n      swap2\n      swap1\n      pop\n      jump\t// out\n        /* \"#utility.yul\":27737:27830   */\n    tag_509:\n        /* \"#utility.yul\":27774:27780   */\n      0x00\n        /* \"#utility.yul\":27821:27823   */\n      0x20\n        /* \"#utility.yul\":27816:27818   */\n      0x1f\n        /* \"#utility.yul\":27809:27814   */\n      dup4\n        /* \"#utility.yul\":27805:27819   */\n      add\n        /* \"#utility.yul\":27801:27824   */\n      div\n        /* \"#utility.yul\":27791:27824   */\n      swap1\n      pop\n        /* \"#utility.yul\":27737:27830   */\n      swap2\n      swap1\n      pop\n      jump\t// out\n        /* \"#utility.yul\":27836:27943   */\n    tag_510:\n        /* \"#utility.yul\":27880:27888   */\n      0x00\n        /* \"#utility.yul\":27930:27935   */\n      dup3\n        /* \"#utility.yul\":27924:27928   */\n      dup3\n        /* \"#utility.yul\":27920:27936   */\n      shl\n        /* \"#utility.yul\":27899:27936   */\n      swap1\n      pop\n        /* \"#utility.yul\":27836:27943   */\n      swap3\n      swap2\n      pop\n      pop\n      jump\t// out\n        /* \"#utility.yul\":27949:28342   */\n    tag_511:\n        /* \"#utility.yul\":28018:28024   */\n      0x00\n        /* \"#utility.yul\":28068:28069   */\n      0x08\n        /* \"#utility.yul\":28056:28066   */\n      dup4\n        /* \"#utility.yul\":28052:28070   */\n      mul\n        /* \"#utility.yul\":28091:28188   */\n      tag_772\n        /* \"#utility.yul\":28121:28187   */\n      0xffffffffffffffffffffffffffffffffffffffffffffffffffffffffffffffff\n        /* \"#utility.yul\":28110:28119   */\n      dup3\n        /* \"#utility.yul\":28091:28188   */\n      tag_510\n      jump\t// in\n    tag_772:\n        /* \"#utility.yul\":28209:28248   */\n      tag_773\n        /* \"#utility.yul\":28239:28247   */\n      dup7\n        /* \"#utility.yul\":28228:28237   */\n      dup4\n        /* \"#utility.yul\":28209:28248   */\n      tag_510\n      jump\t// in\n    tag_773:\n        /* \"#utility.yul\":28197:28248   */\n      swap6\n      pop\n        /* \"#utility.yul\":28281:28285   */\n      dup1\n        /* \"#utility.yul\":28277:28286   */\n      not\n        /* \"#utility.yul\":28270:28275   */\n      dup5\n        /* \"#utility.yul\":28266:28287   */\n      and\n        /* \"#utility.yul\":28257:28287   */\n      swap4\n      pop\n        /* \"#utility.yul\":28330:28334   */\n      dup1\n        /* \"#utility.yul\":28320:28328   */\n      dup7\n        /* \"#utility.yul\":28316:28335   */\n      and\n        /* \"#utility.yul\":28309:28314   */\n      dup5\n        /* \"#utility.yul\":28306:28336   */\n      or\n        /* \"#utility.yul\":28296:28336   */\n      swap3\n      pop\n        /* \"#utility.yul\":28025:28342   */\n      pop\n      pop\n        /* \"#utility.yul\":27949:28342   */\n      swap4\n      swap3\n      pop\n      pop\n      pop\n      jump\t// out\n        /* \"#utility.yul\":28348:28408   */\n    tag_512:\n        /* \"#utility.yul\":28376:28379   */\n      0x00\n        /* \"#utility.yul\":28397:28402   */\n      dup2\n        /* \"#utility.yul\":28390:28402   */\n      swap1\n      pop\n        /* \"#utility.yul\":28348:28408   */\n      swap2\n      swap1\n      pop\n      jump\t// out\n        /* \"#utility.yul\":28414:28556   */\n    tag_513:\n        /* \"#utility.yul\":28464:28473   */\n      0x00\n        /* \"#utility.yul\":28497:28550   */\n      tag_776\n        /* \"#utility.yul\":28515:28549   */\n      tag_777\n        /* \"#utility.yul\":28524:28548   */\n      tag_778\n        /* \"#utility.yul\":28542:28547   */\n      dup5\n        /* \"#utility.yul\":28524:28548   */\n      tag_443\n      jump\t// in\n    tag_778:\n        /* \"#utility.yul\":28515:28549   */\n      tag_512\n      jump\t// in\n    tag_777:\n        /* \"#utility.yul\":28497:28550   */\n      tag_443\n      jump\t// in\n    tag_776:\n        /* \"#utility.yul\":28484:28550   */\n      swap1\n      pop\n        /* \"#utility.yul\":28414:28556   */\n      swap2\n      swap1\n      pop\n      jump\t// out\n        /* \"#utility.yul\":28562:28637   */\n    tag_514:\n        /* \"#utility.yul\":28605:28608   */\n      0x00\n        /* \"#utility.yul\":28626:28631   */\n      dup2\n        /* \"#utility.yul\":28619:28631   */\n      swap1\n      pop\n        /* \"#utility.yul\":28562:28637   */\n      swap2\n      swap1\n      pop\n      jump\t// out\n        /* \"#utility.yul\":28643:28912   */\n    tag_515:\n        /* \"#utility.yul\":28753:28792   */\n      tag_781\n        /* \"#utility.yul\":28784:28791   */\n      dup4\n        /* \"#utility.yul\":28753:28792   */\n      tag_513\n      jump\t// in\n    tag_781:\n        /* \"#utility.yul\":28814:28905   */\n      tag_782\n        /* \"#utility.yul\":28863:28904   */\n      tag_783\n        /* \"#utility.yul\":28887:28903   */\n      dup3\n        /* \"#utility.yul\":28863:28904   */\n      tag_514\n      jump\t// in\n    tag_783:\n        /* \"#utility.yul\":28855:28861   */\n      dup5\n        /* \"#utility.yul\":28848:28852   */\n      dup5\n        /* \"#utility.yul\":28842:28853   */\n      sload\n        /* \"#utility.yul\":28814:28905   */\n      tag_511\n      jump\t// in\n    tag_782:\n        /* \"#utility.yul\":28808:28812   */\n      dup3\n        /* \"#utility.yul\":28801:28906   */\n      sstore\n        /* \"#utility.yul\":28719:28912   */\n      pop\n        /* \"#utility.yul\":28643:28912   */\n      pop\n      pop\n      pop\n      jump\t// out\n        /* \"#utility.yul\":28918:28991   */\n    tag_516:\n        /* \"#utility.yul\":28963:28966   */\n      0x00\n        /* \"#utility.yul\":28918:28991   */\n      swap1\n      jump\t// out\n        /* \"#utility.yul\":28997:29186   */\n    tag_517:\n        /* \"#utility.yul\":29074:29106   */\n      tag_786\n      tag_516\n      jump\t// in\n    tag_786:\n        /* \"#utility.yul\":29115:29180   */\n      tag_787\n        /* \"#utility.yul\":29173:29179   */\n      dup2\n        /* \"#utility.yul\":29165:29171   */\n      dup5\n        /* \"#utility.yul\":29159:29163   */\n      dup5\n        /* \"#utility.yul\":29115:29180   */\n      tag_515\n      jump\t// in\n    tag_787:\n        /* \"#utility.yul\":29050:29186   */\n      pop\n        /* \"#utility.yul\":28997:29186   */\n      pop\n      pop\n      jump\t// out\n        /* \"#utility.yul\":29192:29378   */\n    tag_518:\n        /* \"#utility.yul\":29252:29372   */\n    tag_789:\n        /* \"#utility.yul\":29269:29272   */\n      dup2\n        /* \"#utility.yul\":29262:29267   */\n      dup2\n        /* \"#utility.yul\":29259:29273   */\n      lt\n        /* \"#utility.yul\":29252:29372   */\n      iszero\n      tag_791\n      jumpi\n        /* \"#utility.yul\":29323:29362   */\n      tag_792\n        /* \"#utility.yul\":29360:29361   */\n      0x00\n        /* \"#utility.yul\":29353:29358   */\n      dup3\n        /* \"#utility.yul\":29323:29362   */\n      tag_517\n      jump\t// in\n    tag_792:\n        /* \"#utility.yul\":29296:29297   */\n      0x01\n        /* \"#utility.yul\":29289:29294   */\n      dup2\n        /* \"#utility.yul\":29285:29298   */\n      add\n        /* \"#utility.yul\":29276:29298   */\n      swap1\n      pop\n        /* \"#utility.yul\":29252:29372   */\n      jump(tag_789)\n    tag_791:\n        /* \"#utility.yul\":29192:29378   */\n      pop\n      pop\n      jump\t// out\n        /* \"#utility.yul\":29384:29927   */\n    tag_519:\n        /* \"#utility.yul\":29485:29487   */\n      0x1f\n        /* \"#utility.yul\":29480:29483   */\n      dup3\n        /* \"#utility.yul\":29477:29488   */\n      gt\n        /* \"#utility.yul\":29474:29920   */\n      iszero\n      tag_794\n      jumpi\n        /* \"#utility.yul\":29519:29557   */\n      tag_795\n        /* \"#utility.yul\":29551:29556   */\n      dup2\n        /* \"#utility.yul\":29519:29557   */\n      tag_508\n      jump\t// in\n    tag_795:\n        /* \"#utility.yul\":29603:29632   */\n      tag_796\n        /* \"#utility.yul\":29621:29631   */\n      dup5\n        /* \"#utility.yul\":29603:29632   */\n      tag_509\n      jump\t// in\n    tag_796:\n        /* \"#utility.yul\":29593:29601   */\n      dup2\n        /* \"#utility.yul\":29589:29633   */\n      add\n        /* \"#utility.yul\":29786:29788   */\n      0x20\n        /* \"#utility.yul\":29774:29784   */\n      dup6\n        /* \"#utility.yul\":29771:29789   */\n      lt\n        /* \"#utility.yul\":29768:29817   */\n      iszero\n      tag_797\n      jumpi\n        /* \"#utility.yul\":29807:29815   */\n      dup2\n        /* \"#utility.yul\":29792:29815   */\n      swap1\n      pop\n        /* \"#utility.yul\":29768:29817   */\n    tag_797:\n        /* \"#utility.yul\":29830:29910   */\n      tag_798\n        /* \"#utility.yul\":29886:29908   */\n      tag_799\n        /* \"#utility.yul\":29904:29907   */\n      dup6\n        /* \"#utility.yul\":29886:29908   */\n      tag_509\n      jump\t// in\n    tag_799:\n        /* \"#utility.yul\":29876:29884   */\n      dup4\n        /* \"#utility.yul\":29872:29909   */\n      add\n        /* \"#utility.yul\":29859:29870   */\n      dup3\n        /* \"#utility.yul\":29830:29910   */\n      tag_518\n      jump\t// in\n    tag_798:\n        /* \"#utility.yul\":29489:29920   */\n      pop\n      pop\n        /* \"#utility.yul\":29474:29920   */\n    tag_794:\n        /* \"#utility.yul\":29384:29927   */\n      pop\n      pop\n      pop\n      jump\t// out\n        /* \"#utility.yul\":29933:30050   */\n    tag_520:\n        /* \"#utility.yul\":29987:29995   */\n      0x00\n        /* \"#utility.yul\":30037:30042   */\n      dup3\n        /* \"#utility.yul\":30031:30035   */\n      dup3\n        /* \"#utility.yul\":30027:30043   */\n      shr\n        /* \"#utility.yul\":30006:30043   */\n      swap1\n      pop\n        /* \"#utility.yul\":29933:30050   */\n      swap3\n      swap2\n      pop\n      pop\n      jump\t// out\n        /* \"#utility.yul\":30056:30225   */\n    tag_521:\n        /* \"#utility.yul\":30100:30106   */\n      0x00\n        /* \"#utility.yul\":30133:30184   */\n      tag_802\n        /* \"#utility.yul\":30181:30182   */\n      0x00\n        /* \"#utility.yul\":30177:30183   */\n      not\n        /* \"#utility.yul\":30169:30174   */\n      dup5\n        /* \"#utility.yul\":30166:30167   */\n      0x08\n        /* \"#utility.yul\":30162:30175   */\n      mul\n        /* \"#utility.yul\":30133:30184   */\n      tag_520\n      jump\t// in\n    tag_802:\n        /* \"#utility.yul\":30129:30185   */\n      not\n        /* \"#utility.yul\":30214:30218   */\n      dup1\n        /* \"#utility.yul\":30208:30212   */\n      dup4\n        /* \"#utility.yul\":30204:30219   */\n      and\n        /* \"#utility.yul\":30194:30219   */\n      swap2\n      pop\n        /* \"#utility.yul\":30107:30225   */\n      pop\n        /* \"#utility.yul\":30056:30225   */\n      swap3\n      swap2\n      pop\n      pop\n      jump\t// out\n        /* \"#utility.yul\":30230:30525   */\n    tag_522:\n        /* \"#utility.yul\":30306:30310   */\n      0x00\n        /* \"#utility.yul\":30452:30481   */\n      tag_804\n        /* \"#utility.yul\":30477:30480   */\n      dup4\n        /* \"#utility.yul\":30471:30475   */\n      dup4\n        /* \"#utility.yul\":30452:30481   */\n      tag_521\n      jump\t// in\n    tag_804:\n        /* \"#utility.yul\":30444:30481   */\n      swap2\n      pop\n        /* \"#utility.yul\":30514:30517   */\n      dup3\n        /* \"#utility.yul\":30511:30512   */\n      0x02\n        /* \"#utility.yul\":30507:30518   */\n      mul\n        /* \"#utility.yul\":30501:30505   */\n      dup3\n        /* \"#utility.yul\":30498:30519   */\n      or\n        /* \"#utility.yul\":30490:30519   */\n      swap1\n      pop\n        /* \"#utility.yul\":30230:30525   */\n      swap3\n      swap2\n      pop\n      pop\n      jump\t// out\n        /* \"#utility.yul\":30530:31925   */\n    tag_287:\n        /* \"#utility.yul\":30647:30684   */\n      tag_806\n        /* \"#utility.yul\":30680:30683   */\n      dup3\n        /* \"#utility.yul\":30647:30684   */\n      tag_453\n      jump\t// in\n    tag_806:\n        /* \"#utility.yul\":30749:30767   */\n      0xffffffffffffffff\n        /* \"#utility.yul\":30741:30747   */\n      dup2\n        /* \"#utility.yul\":30738:30768   */\n      gt\n        /* \"#utility.yul\":30735:30791   */\n      iszero\n      tag_807\n      jumpi\n        /* \"#utility.yul\":30771:30789   */\n      tag_808\n      tag_463\n      jump\t// in\n    tag_808:\n        /* \"#utility.yul\":30735:30791   */\n    tag_807:\n        /* \"#utility.yul\":30815:30853   */\n      tag_809\n        /* \"#utility.yul\":30847:30851   */\n      dup3\n        /* \"#utility.yul\":30841:30852   */\n      sload\n        /* \"#utility.yul\":30815:30853   */\n      tag_150\n      jump\t// in\n    tag_809:\n        /* \"#utility.yul\":30900:30967   */\n      tag_810\n        /* \"#utility.yul\":30960:30966   */\n      dup3\n        /* \"#utility.yul\":30952:30958   */\n      dup3\n        /* \"#utility.yul\":30946:30950   */\n      dup6\n        /* \"#utility.yul\":30900:30967   */\n      tag_519\n      jump\t// in\n    tag_810:\n        /* \"#utility.yul\":30994:30995   */\n      0x00\n        /* \"#utility.yul\":31018:31022   */\n      0x20\n        /* \"#utility.yul\":31005:31022   */\n      swap1\n      pop\n        /* \"#utility.yul\":31050:31052   */\n      0x1f\n        /* \"#utility.yul\":31042:31048   */\n      dup4\n        /* \"#utility.yul\":31039:31053   */\n      gt\n        /* \"#utility.yul\":31067:31068   */\n      0x01\n        /* \"#utility.yul\":31062:31680   */\n      dup2\n      eq\n      tag_812\n      jumpi\n        /* \"#utility.yul\":31724:31725   */\n      0x00\n        /* \"#utility.yul\":31741:31747   */\n      dup5\n        /* \"#utility.yul\":31738:31815   */\n      iszero\n      tag_813\n      jumpi\n        /* \"#utility.yul\":31790:31799   */\n      dup3\n        /* \"#utility.yul\":31785:31788   */\n      dup8\n        /* \"#utility.yul\":31781:31800   */\n      add\n        /* \"#utility.yul\":31775:31801   */\n      mload\n        /* \"#utility.yul\":31766:31801   */\n      swap1\n      pop\n        /* \"#utility.yul\":31738:31815   */\n    tag_813:\n        /* \"#utility.yul\":31841:31908   */\n      tag_814\n        /* \"#utility.yul\":31901:31907   */\n      dup6\n        /* \"#utility.yul\":31894:31899   */\n      dup3\n        /* \"#utility.yul\":31841:31908   */\n      tag_522\n      jump\t// in\n    tag_814:\n        /* \"#utility.yul\":31835:31839   */\n      dup7\n        /* \"#utility.yul\":31828:31909   */\n      sstore\n        /* \"#utility.yul\":31697:31919   */\n      pop\n        /* \"#utility.yul\":31032:31919   */\n      jump(tag_811)\n        /* \"#utility.yul\":31062:31680   */\n    tag_812:\n        /* \"#utility.yul\":31114:31118   */\n      0x1f\n        /* \"#utility.yul\":31110:31119   */\n      not\n        /* \"#utility.yul\":31102:31108   */\n      dup5\n        /* \"#utility.yul\":31098:31120   */\n      and\n        /* \"#utility.yul\":31148:31185   */\n      tag_815\n        /* \"#utility.yul\":31180:31184   */\n      dup7\n        /* \"#utility.yul\":31148:31185   */\n      tag_508\n      jump\t// in\n    tag_815:\n        /* \"#utility.yul\":31207:31208   */\n      0x00\n        /* \"#utility.yul\":31221:31429   */\n    tag_816:\n        /* \"#utility.yul\":31235:31242   */\n      dup3\n        /* \"#utility.yul\":31232:31233   */\n      dup2\n        /* \"#utility.yul\":31229:31243   */\n      lt\n        /* \"#utility.yul\":31221:31429   */\n      iszero\n      tag_818\n      jumpi\n        /* \"#utility.yul\":31314:31323   */\n      dup5\n        /* \"#utility.yul\":31309:31312   */\n      dup10\n        /* \"#utility.yul\":31305:31324   */\n      add\n        /* \"#utility.yul\":31299:31325   */\n      mload\n        /* \"#utility.yul\":31291:31297   */\n      dup3\n        /* \"#utility.yul\":31284:31326   */\n      sstore\n        /* \"#utility.yul\":31365:31366   */\n      0x01\n        /* \"#utility.yul\":31357:31363   */\n      dup3\n        /* \"#utility.yul\":31353:31367   */\n      add\n        /* \"#utility.yul\":31343:31367   */\n      swap2\n      pop\n        /* \"#utility.yul\":31412:31414   */\n      0x20\n        /* \"#utility.yul\":31401:31410   */\n      dup6\n        /* \"#utility.yul\":31397:31415   */\n      add\n        /* \"#utility.yul\":31384:31415   */\n      swap5\n      pop\n        /* \"#utility.yul\":31258:31262   */\n      0x20\n        /* \"#utility.yul\":31255:31256   */\n      dup2\n        /* \"#utility.yul\":31251:31263   */\n      add\n        /* \"#utility.yul\":31246:31263   */\n      swap1\n      pop\n        /* \"#utility.yul\":31221:31429   */\n      jump(tag_816)\n    tag_818:\n        /* \"#utility.yul\":31457:31463   */\n      dup7\n        /* \"#utility.yul\":31448:31455   */\n      dup4\n        /* \"#utility.yul\":31445:31464   */\n      lt\n        /* \"#utility.yul\":31442:31621   */\n      iszero\n      tag_819\n      jumpi\n        /* \"#utility.yul\":31515:31524   */\n      dup5\n        /* \"#utility.yul\":31510:31513   */\n      dup10\n        /* \"#utility.yul\":31506:31525   */\n      add\n        /* \"#utility.yul\":31500:31526   */\n      mload\n        /* \"#utility.yul\":31558:31606   */\n      tag_820\n        /* \"#utility.yul\":31600:31604   */\n      0x1f\n        /* \"#utility.yul\":31592:31598   */\n      dup10\n        /* \"#utility.yul\":31588:31605   */\n      and\n        /* \"#utility.yul\":31577:31586   */\n      dup3\n        /* \"#utility.yul\":31558:31606   */\n      tag_521\n      jump\t// in\n    tag_820:\n        /* \"#utility.yul\":31550:31556   */\n      dup4\n        /* \"#utility.yul\":31543:31607   */\n      sstore\n        /* \"#utility.yul\":31465:31621   */\n      pop\n        /* \"#utility.yul\":31442:31621   */\n    tag_819:\n        /* \"#utility.yul\":31667:31668   */\n      0x01\n        /* \"#utility.yul\":31663:31664   */\n      0x02\n        /* \"#utility.yul\":31655:31661   */\n      dup9\n        /* \"#utility.yul\":31651:31665   */\n      mul\n        /* \"#utility.yul\":31647:31669   */\n      add\n        /* \"#utility.yul\":31641:31645   */\n      dup9\n        /* \"#utility.yul\":31634:31670   */\n      sstore\n        /* \"#utility.yul\":31069:31680   */\n      pop\n      pop\n      pop\n        /* \"#utility.yul\":31032:31919   */\n    tag_811:\n      pop\n        /* \"#utility.yul\":30622:31925   */\n      pop\n      pop\n      pop\n        /* \"#utility.yul\":30530:31925   */\n      pop\n      pop\n      jump\t// out\n        /* \"#utility.yul\":31931:32097   */\n    tag_523:\n        /* \"#utility.yul\":32071:32089   */\n      0x6275696c64206973206172657374656400000000000000000000000000000000\n        /* \"#utility.yul\":32067:32068   */\n      0x00\n        /* \"#utility.yul\":32059:32065   */\n      dup3\n        /* \"#utility.yul\":32055:32069   */\n      add\n        /* \"#utility.yul\":32048:32090   */\n      mstore\n        /* \"#utility.yul\":31931:32097   */\n      pop\n      jump\t// out\n        /* \"#utility.yul\":32103:32469   */\n    tag_524:\n        /* \"#utility.yul\":32245:32248   */\n      0x00\n        /* \"#utility.yul\":32266:32333   */\n      tag_823\n        /* \"#utility.yul\":32330:32332   */\n      0x10\n        /* \"#utility.yul\":32325:32328   */\n      dup4\n        /* \"#utility.yul\":32266:32333   */\n      tag_454\n      jump\t// in\n    tag_823:\n        /* \"#utility.yul\":32259:32333   */\n      swap2\n      pop\n        /* \"#utility.yul\":32342:32435   */\n      tag_824\n        /* \"#utility.yul\":32431:32434   */\n      dup3\n        /* \"#utility.yul\":32342:32435   */\n      tag_523\n      jump\t// in\n    tag_824:\n        /* \"#utility.yul\":32460:32462   */\n      0x20\n        /* \"#utility.yul\":32455:32458   */\n      dup3\n        /* \"#utility.yul\":32451:32463   */\n      add\n        /* \"#utility.yul\":32444:32463   */\n      swap1\n      pop\n        /* \"#utility.yul\":32103:32469   */\n      swap2\n      swap1\n      pop\n      jump\t// out\n        /* \"#utility.yul\":32475:32894   */\n    tag_299:\n        /* \"#utility.yul\":32641:32645   */\n      0x00\n        /* \"#utility.yul\":32679:32681   */\n      0x20\n        /* \"#utility.yul\":32668:32677   */\n      dup3\n        /* \"#utility.yul\":32664:32682   */\n      add\n        /* \"#utility.yul\":32656:32682   */\n      swap1\n      pop\n        /* \"#utility.yul\":32728:32737   */\n      dup2\n        /* \"#utility.yul\":32722:32726   */\n      dup2\n        /* \"#utility.yul\":32718:32738   */\n      sub\n        /* \"#utility.yul\":32714:32715   */\n      0x00\n        /* \"#utility.yul\":32703:32712   */\n      dup4\n        /* \"#utility.yul\":32699:32716   */\n      add\n        /* \"#utility.yul\":32692:32739   */\n      mstore\n        /* \"#utility.yul\":32756:32887   */\n      tag_826\n        /* \"#utility.yul\":32882:32886   */\n      dup2\n        /* \"#utility.yul\":32756:32887   */\n      tag_524\n      jump\t// in\n    tag_826:\n        /* \"#utility.yul\":32748:32887   */\n      swap1\n      pop\n        /* \"#utility.yul\":32475:32894   */\n      swap2\n      swap1\n      pop\n      jump\t// out\n        /* \"#utility.yul\":32900:33074   */\n    tag_525:\n        /* \"#utility.yul\":33040:33066   */\n      0x546869732069732067696674206e6f7420666f7220796f750000000000000000\n        /* \"#utility.yul\":33036:33037   */\n      0x00\n        /* \"#utility.yul\":33028:33034   */\n      dup3\n        /* \"#utility.yul\":33024:33038   */\n      add\n        /* \"#utility.yul\":33017:33067   */\n      mstore\n        /* \"#utility.yul\":32900:33074   */\n      pop\n      jump\t// out\n        /* \"#utility.yul\":33080:33446   */\n    tag_526:\n        /* \"#utility.yul\":33222:33225   */\n      0x00\n        /* \"#utility.yul\":33243:33310   */\n      tag_829\n        /* \"#utility.yul\":33307:33309   */\n      0x18\n        /* \"#utility.yul\":33302:33305   */\n      dup4\n        /* \"#utility.yul\":33243:33310   */\n      tag_454\n      jump\t// in\n    tag_829:\n        /* \"#utility.yul\":33236:33310   */\n      swap2\n      pop\n        /* \"#utility.yul\":33319:33412   */\n      tag_830\n        /* \"#utility.yul\":33408:33411   */\n      dup3\n        /* \"#utility.yul\":33319:33412   */\n      tag_525\n      jump\t// in\n    tag_830:\n        /* \"#utility.yul\":33437:33439   */\n      0x20\n        /* \"#utility.yul\":33432:33435   */\n      dup3\n        /* \"#utility.yul\":33428:33440   */\n      add\n        /* \"#utility.yul\":33421:33440   */\n      swap1\n      pop\n        /* \"#utility.yul\":33080:33446   */\n      swap2\n      swap1\n      pop\n      jump\t// out\n        /* \"#utility.yul\":33452:33871   */\n    tag_315:\n        /* \"#utility.yul\":33618:33622   */\n      0x00\n        /* \"#utility.yul\":33656:33658   */\n      0x20\n        /* \"#utility.yul\":33645:33654   */\n      dup3\n        /* \"#utility.yul\":33641:33659   */\n      add\n        /* \"#utility.yul\":33633:33659   */\n      swap1\n      pop\n        /* \"#utility.yul\":33705:33714   */\n      dup2\n        /* \"#utility.yul\":33699:33703   */\n      dup2\n        /* \"#utility.yul\":33695:33715   */\n      sub\n        /* \"#utility.yul\":33691:33692   */\n      0x00\n        /* \"#utility.yul\":33680:33689   */\n      dup4\n        /* \"#utility.yul\":33676:33693   */\n      add\n        /* \"#utility.yul\":33669:33716   */\n      mstore\n        /* \"#utility.yul\":33733:33864   */\n      tag_832\n        /* \"#utility.yul\":33859:33863   */\n      dup2\n        /* \"#utility.yul\":33733:33864   */\n      tag_526\n      jump\t// in\n    tag_832:\n        /* \"#utility.yul\":33725:33864   */\n      swap1\n      pop\n        /* \"#utility.yul\":33452:33871   */\n      swap2\n      swap1\n      pop\n      jump\t// out\n        /* \"#utility.yul\":33877:34041   */\n    tag_527:\n        /* \"#utility.yul\":34017:34033   */\n      0x6573746174652061726573746564000000000000000000000000000000000000\n        /* \"#utility.yul\":34013:34014   */\n      0x00\n        /* \"#utility.yul\":34005:34011   */\n      dup3\n        /* \"#utility.yul\":34001:34015   */\n      add\n        /* \"#utility.yul\":33994:34034   */\n      mstore\n        /* \"#utility.yul\":33877:34041   */\n      pop\n      jump\t// out\n        /* \"#utility.yul\":34047:34413   */\n    tag_528:\n        /* \"#utility.yul\":34189:34192   */\n      0x00\n        /* \"#utility.yul\":34210:34277   */\n      tag_835\n        /* \"#utility.yul\":34274:34276   */\n      0x0e\n        /* \"#utility.yul\":34269:34272   */\n      dup4\n        /* \"#utility.yul\":34210:34277   */\n      tag_454\n      jump\t// in\n    tag_835:\n        /* \"#utility.yul\":34203:34277   */\n      swap2\n      pop\n        /* \"#utility.yul\":34286:34379   */\n      tag_836\n        /* \"#utility.yul\":34375:34378   */\n      dup3\n        /* \"#utility.yul\":34286:34379   */\n      tag_527\n      jump\t// in\n    tag_836:\n        /* \"#utility.yul\":34404:34406   */\n      0x20\n        /* \"#utility.yul\":34399:34402   */\n      dup3\n        /* \"#utility.yul\":34395:34407   */\n      add\n        /* \"#utility.yul\":34388:34407   */\n      swap1\n      pop\n        /* \"#utility.yul\":34047:34413   */\n      swap2\n      swap1\n      pop\n      jump\t// out\n        /* \"#utility.yul\":34419:34838   */\n    tag_385:\n        /* \"#utility.yul\":34585:34589   */\n      0x00\n        /* \"#utility.yul\":34623:34625   */\n      0x20\n        /* \"#utility.yul\":34612:34621   */\n      dup3\n        /* \"#utility.yul\":34608:34626   */\n      add\n        /* \"#utility.yul\":34600:34626   */\n      swap1\n      pop\n        /* \"#utility.yul\":34672:34681   */\n      dup2\n        /* \"#utility.yul\":34666:34670   */\n      dup2\n        /* \"#utility.yul\":34662:34682   */\n      sub\n        /* \"#utility.yul\":34658:34659   */\n      0x00\n        /* \"#utility.yul\":34647:34656   */\n      dup4\n        /* \"#utility.yul\":34643:34660   */\n      add\n        /* \"#utility.yul\":34636:34683   */\n      mstore\n        /* \"#utility.yul\":34700:34831   */\n      tag_838\n        /* \"#utility.yul\":34826:34830   */\n      dup2\n        /* \"#utility.yul\":34700:34831   */\n      tag_528\n      jump\t// in\n    tag_838:\n        /* \"#utility.yul\":34692:34831   */\n      swap1\n      pop\n        /* \"#utility.yul\":34419:34838   */\n      swap2\n      swap1\n      pop\n      jump\t// out\n        /* \"#utility.yul\":34844:35003   */\n    tag_529:\n        /* \"#utility.yul\":34984:34995   */\n      0x73656c662073616c650000000000000000000000000000000000000000000000\n        /* \"#utility.yul\":34980:34981   */\n      0x00\n        /* \"#utility.yul\":34972:34978   */\n      dup3\n        /* \"#utility.yul\":34968:34982   */\n      add\n        /* \"#utility.yul\":34961:34996   */\n      mstore\n        /* \"#utility.yul\":34844:35003   */\n      pop\n      jump\t// out\n        /* \"#utility.yul\":35009:35374   */\n    tag_530:\n        /* \"#utility.yul\":35151:35154   */\n      0x00\n        /* \"#utility.yul\":35172:35238   */\n      tag_841\n        /* \"#utility.yul\":35236:35237   */\n      0x09\n        /* \"#utility.yul\":35231:35234   */\n      dup4\n        /* \"#utility.yul\":35172:35238   */\n      tag_454\n      jump\t// in\n    tag_841:\n        /* \"#utility.yul\":35165:35238   */\n      swap2\n      pop\n        /* \"#utility.yul\":35247:35340   */\n      tag_842\n        /* \"#utility.yul\":35336:35339   */\n      dup3\n        /* \"#utility.yul\":35247:35340   */\n      tag_529\n      jump\t// in\n    tag_842:\n        /* \"#utility.yul\":35365:35367   */\n      0x20\n        /* \"#utility.yul\":35360:35363   */\n      dup3\n        /* \"#utility.yul\":35356:35368   */\n      add\n        /* \"#utility.yul\":35349:35368   */\n      swap1\n      pop\n        /* \"#utility.yul\":35009:35374   */\n      swap2\n      swap1\n      pop\n      jump\t// out\n        /* \"#utility.yul\":35380:35799   */\n    tag_393:\n        /* \"#utility.yul\":35546:35550   */\n      0x00\n        /* \"#utility.yul\":35584:35586   */\n      0x20\n        /* \"#utility.yul\":35573:35582   */\n      dup3\n        /* \"#utility.yul\":35569:35587   */\n      add\n        /* \"#utility.yul\":35561:35587   */\n      swap1\n      pop\n        /* \"#utility.yul\":35633:35642   */\n      dup2\n        /* \"#utility.yul\":35627:35631   */\n      dup2\n        /* \"#utility.yul\":35623:35643   */\n      sub\n        /* \"#utility.yul\":35619:35620   */\n      0x00\n        /* \"#utility.yul\":35608:35617   */\n      dup4\n        /* \"#utility.yul\":35604:35621   */\n      add\n        /* \"#utility.yul\":35597:35644   */\n      mstore\n        /* \"#utility.yul\":35661:35792   */\n      tag_844\n        /* \"#utility.yul\":35787:35791   */\n      dup2\n        /* \"#utility.yul\":35661:35792   */\n      tag_530\n      jump\t// in\n    tag_844:\n        /* \"#utility.yul\":35653:35792   */\n      swap1\n      pop\n        /* \"#utility.yul\":35380:35799   */\n      swap2\n      swap1\n      pop\n      jump\t// out\n        /* \"#utility.yul\":35805:35970   */\n    tag_531:\n        /* \"#utility.yul\":35945:35962   */\n      0x77726f6e67206574682076616c75650000000000000000000000000000000000\n        /* \"#utility.yul\":35941:35942   */\n      0x00\n        /* \"#utility.yul\":35933:35939   */\n      dup3\n        /* \"#utility.yul\":35929:35943   */\n      add\n        /* \"#utility.yul\":35922:35963   */\n      mstore\n        /* \"#utility.yul\":35805:35970   */\n      pop\n      jump\t// out\n        /* \"#utility.yul\":35976:36342   */\n    tag_532:\n        /* \"#utility.yul\":36118:36121   */\n      0x00\n        /* \"#utility.yul\":36139:36206   */\n      tag_847\n        /* \"#utility.yul\":36203:36205   */\n      0x0f\n        /* \"#utility.yul\":36198:36201   */\n      dup4\n        /* \"#utility.yul\":36139:36206   */\n      tag_454\n      jump\t// in\n    tag_847:\n        /* \"#utility.yul\":36132:36206   */\n      swap2\n      pop\n        /* \"#utility.yul\":36215:36308   */\n      tag_848\n        /* \"#utility.yul\":36304:36307   */\n      dup3\n        /* \"#utility.yul\":36215:36308   */\n      tag_531\n      jump\t// in\n    tag_848:\n        /* \"#utility.yul\":36333:36335   */\n      0x20\n        /* \"#utility.yul\":36328:36331   */\n      dup3\n        /* \"#utility.yul\":36324:36336   */\n      add\n        /* \"#utility.yul\":36317:36336   */\n      swap1\n      pop\n        /* \"#utility.yul\":35976:36342   */\n      swap2\n      swap1\n      pop\n      jump\t// out\n        /* \"#utility.yul\":36348:36767   */\n    tag_404:\n        /* \"#utility.yul\":36514:36518   */\n      0x00\n        /* \"#utility.yul\":36552:36554   */\n      0x20\n        /* \"#utility.yul\":36541:36550   */\n      dup3\n        /* \"#utility.yul\":36537:36555   */\n      add\n        /* \"#utility.yul\":36529:36555   */\n      swap1\n      pop\n        /* \"#utility.yul\":36601:36610   */\n      dup2\n        /* \"#utility.yul\":36595:36599   */\n      dup2\n        /* \"#utility.yul\":36591:36611   */\n      sub\n        /* \"#utility.yul\":36587:36588   */\n      0x00\n        /* \"#utility.yul\":36576:36585   */\n      dup4\n        /* \"#utility.yul\":36572:36589   */\n      add\n        /* \"#utility.yul\":36565:36612   */\n      mstore\n        /* \"#utility.yul\":36629:36760   */\n      tag_850\n        /* \"#utility.yul\":36755:36759   */\n      dup2\n        /* \"#utility.yul\":36629:36760   */\n      tag_532\n      jump\t// in\n    tag_850:\n        /* \"#utility.yul\":36621:36760   */\n      swap1\n      pop\n        /* \"#utility.yul\":36348:36767   */\n      swap2\n      swap1\n      pop\n      jump\t// out\n        /* \"#utility.yul\":36773:36944   */\n    tag_533:\n        /* \"#utility.yul\":36913:36936   */\n      0x796f7520616c726561647920696e207072696365730000000000000000000000\n        /* \"#utility.yul\":36909:36910   */\n      0x00\n        /* \"#utility.yul\":36901:36907   */\n      dup3\n        /* \"#utility.yul\":36897:36911   */\n      add\n        /* \"#utility.yul\":36890:36937   */\n      mstore\n        /* \"#utility.yul\":36773:36944   */\n      pop\n      jump\t// out\n        /* \"#utility.yul\":36950:37316   */\n    tag_534:\n        /* \"#utility.yul\":37092:37095   */\n      0x00\n        /* \"#utility.yul\":37113:37180   */\n      tag_853\n        /* \"#utility.yul\":37177:37179   */\n      0x15\n        /* \"#utility.yul\":37172:37175   */\n      dup4\n        /* \"#utility.yul\":37113:37180   */\n      tag_454\n      jump\t// in\n    tag_853:\n        /* \"#utility.yul\":37106:37180   */\n      swap2\n      pop\n        /* \"#utility.yul\":37189:37282   */\n      tag_854\n        /* \"#utility.yul\":37278:37281   */\n      dup3\n        /* \"#utility.yul\":37189:37282   */\n      tag_533\n      jump\t// in\n    tag_854:\n        /* \"#utility.yul\":37307:37309   */\n      0x20\n        /* \"#utility.yul\":37302:37305   */\n      dup3\n        /* \"#utility.yul\":37298:37310   */\n      add\n        /* \"#utility.yul\":37291:37310   */\n      swap1\n      pop\n        /* \"#utility.yul\":36950:37316   */\n      swap2\n      swap1\n      pop\n      jump\t// out\n        /* \"#utility.yul\":37322:37741   */\n    tag_420:\n        /* \"#utility.yul\":37488:37492   */\n      0x00\n        /* \"#utility.yul\":37526:37528   */\n      0x20\n        /* \"#utility.yul\":37515:37524   */\n      dup3\n        /* \"#utility.yul\":37511:37529   */\n      add\n        /* \"#utility.yul\":37503:37529   */\n      swap1\n      pop\n        /* \"#utility.yul\":37575:37584   */\n      dup2\n        /* \"#utility.yul\":37569:37573   */\n      dup2\n        /* \"#utility.yul\":37565:37585   */\n      sub\n        /* \"#utility.yul\":37561:37562   */\n      0x00\n        /* \"#utility.yul\":37550:37559   */\n      dup4\n        /* \"#utility.yul\":37546:37563   */\n      add\n        /* \"#utility.yul\":37539:37586   */\n      mstore\n        /* \"#utility.yul\":37603:37734   */\n      tag_856\n        /* \"#utility.yul\":37729:37733   */\n      dup2\n        /* \"#utility.yul\":37603:37734   */\n      tag_534\n      jump\t// in\n    tag_856:\n        /* \"#utility.yul\":37595:37734   */\n      swap1\n      pop\n        /* \"#utility.yul\":37322:37741   */\n      swap2\n      swap1\n      pop\n      jump\t// out\n\n    auxdata: 0xa26469706673582212201b30c88806c1955e485e907557338007a76c381c34e486a64dd99588994739bd64736f6c634300081a0033\n}\n",
				"bytecode": {
					"linkReferences": {},
					"object": "6080604052603c600455348015610014575f80fd5b50604051613671380380613671833981810160405281019061003691906100da565b8060035f6101000a81548173ffffffffffffffffffffffffffffffffffffffff021916908373ffffffffffffffffffffffffffffffffffffffff16021790555050610105565b5f80fd5b5f73ffffffffffffffffffffffffffffffffffffffff82169050919050565b5f6100a982610080565b9050919050565b6100b98161009f565b81146100c3575f80fd5b50565b5f815190506100d4816100b0565b92915050565b5f602082840312156100ef576100ee61007c565b5b5f6100fc848285016100c6565b91505092915050565b61355f806101125f395ff3fe6080604052600436106100dc575f3560e01c80639a22ed8f1161007e578063d606593511610058578063d606593514610297578063db4c049d146102d8578063e9f0ee5614610300578063f851a4401461031c576100dc565b80639a22ed8f14610208578063b5f522f714610230578063d0ab383a1461026f576100dc565b80634c96a062116100ba5780634c96a0621461014e57806358c97164146101905780636019061b146101b85780638ee69ae8146101e0576100dc565b806306238e6e146100e05780630a483421146101085780632a50fe2c14610132575b5f80fd5b3480156100eb575f80fd5b50610106600480360381019061010191906123b4565b610346565b005b348015610113575f80fd5b5061011c610488565b6040516101299190612401565b60405180910390f35b61014c6004803603810190610147919061241a565b61048e565b005b348015610159575f80fd5b50610174600480360381019061016f919061241a565b6107a1565b6040516101879796959493929190612503565b60405180910390f35b34801561019b575f80fd5b506101b660048036038101906101b191906125a1565b6108b8565b005b3480156101c3575f80fd5b506101de60048036038101906101d991906125df565b610da7565b005b3480156101eb575f80fd5b506102066004803603810190610201919061241a565b6111ac565b005b348015610213575f80fd5b5061022e60048036038101906102299190612749565b61142c565b005b34801561023b575f80fd5b506102566004803603810190610251919061241a565b6116b9565b60405161026694939291906127b5565b60405180910390f35b34801561027a575f80fd5b506102956004803603810190610290919061241a565b611732565b005b3480156102a2575f80fd5b506102bd60048036038101906102b8919061241a565b611a87565b6040516102cf9695949392919061286b565b60405180910390f35b3480156102e3575f80fd5b506102fe60048036038101906102f9919061241a565b611b18565b005b61031a6004803603810190610315919061241a565b611d97565b005b348015610327575f80fd5b50610330612229565b60405161033d91906128ca565b60405180910390f35b60035f9054906101000a900473ffffffffffffffffffffffffffffffffffffffff1673ffffffffffffffffffffffffffffffffffffffff163373ffffffffffffffffffffffffffffffffffffffff16146103d5576040517f08c379a00000000000000000000000000000000000000000000000000000000081526004016103cc9061292d565b60405180910390fd5b5f82815481106103e8576103e761294b565b5b905f5260205f20906005020160040160029054906101000a900460ff1615158115150361044a576040517f08c379a0000000000000000000000000000000000000000000000000000000008152600401610441906129c2565b60405180910390fd5b805f838154811061045e5761045d61294b565b5b905f5260205f20906005020160040160026101000a81548160ff0219169083151502179055505050565b60045481565b60028054905081106104d5576040517f08c379a00000000000000000000000000000000000000000000000000000000081526004016104cc90612a2a565b60405180910390fd5b5f73ffffffffffffffffffffffffffffffffffffffff1660028281548110610500576104ff61294b565b5b905f5260205f2090600602016002015f9054906101000a900473ffffffffffffffffffffffffffffffffffffffff1673ffffffffffffffffffffffffffffffffffffffff1614610585576040517f08c379a000000000000000000000000000000000000000000000000000000000815260040161057c90612a92565b60405180910390fd5b5f5b6002828154811061059b5761059a61294b565b5b905f5260205f2090600602016004018054905081101561079d573373ffffffffffffffffffffffffffffffffffffffff16600283815481106105e0576105df61294b565b5b905f5260205f20906006020160040182815481106106015761060061294b565b5b905f5260205f20015f9054906101000a900473ffffffffffffffffffffffffffffffffffffffff1673ffffffffffffffffffffffffffffffffffffffff1603610790575f600283815481106106595761065861294b565b5b905f5260205f209060060201600501828154811061067a5761067961294b565b5b905f5260205f20015490505f81036106c7576040517f08c379a00000000000000000000000000000000000000000000000000000000081526004016106be90612afa565b60405180910390fd5b3373ffffffffffffffffffffffffffffffffffffffff166108fc600285815481106106f5576106f461294b565b5b905f5260205f20906006020160050184815481106107165761071561294b565b5b905f5260205f20015490811502906040515f60405180830381858888f19350505050158015610747573d5f803e3d5ffd5b505f6002848154811061075d5761075c61294b565b5b905f5260205f209060060201600501838154811061077e5761077d61294b565b5b905f5260205f2001819055505061079d565b8080600101915050610587565b5050565b5f81815481106107af575f80fd5b905f5260205f2090600502015f91509050805f015490806001015f9054906101000a900473ffffffffffffffffffffffffffffffffffffffff16908060020180546107f990612b45565b80601f016020809104026020016040519081016040528092919081815260200182805461082590612b45565b80156108705780601f1061084757610100808354040283529160200191610870565b820191905f5260205f20905b81548152906001019060200180831161085357829003601f168201915b505050505090806003015490806004015f9054906101000a900460ff16908060040160019054906101000a900460ff16908060040160029054906101000a900460ff16905087565b813373ffffffffffffffffffffffffffffffffffffffff165f82815481106108e3576108e261294b565b5b905f5260205f2090600502016001015f9054906101000a900473ffffffffffffffffffffffffffffffffffffffff1673ffffffffffffffffffffffffffffffffffffffff1614610968576040517f08c379a000000000000000000000000000000000000000000000000000000000815260040161095f90612bbf565b60405180910390fd5b825f15155f828154811061097f5761097e61294b565b5b905f5260205f2090600502016004015f9054906101000a900460ff161515146109dd576040517f08c379a00000000000000000000000000000000000000000000000000000000081526004016109d490612c27565b60405180910390fd5b5f15155f82815481106109f3576109f261294b565b5b905f5260205f20906005020160040160019054906101000a900460ff16151514610a52576040517f08c379a0000000000000000000000000000000000000000000000000000000008152600401610a4990612c8f565b60405180910390fd5b5f15155f8281548110610a6857610a6761294b565b5b905f5260205f20906005020160040160029054906101000a900460ff16151514610ac7576040517f08c379a0000000000000000000000000000000000000000000000000000000008152600401610abe90612cf7565b60405180910390fd5b5f73ffffffffffffffffffffffffffffffffffffffff168373ffffffffffffffffffffffffffffffffffffffff1603610b35576040517f08c379a0000000000000000000000000000000000000000000000000000000008152600401610b2c90612d5f565b60405180910390fd5b5f805490508410610b7b576040517f08c379a0000000000000000000000000000000000000000000000000000000008152600401610b7290612dc7565b60405180910390fd5b3373ffffffffffffffffffffffffffffffffffffffff168373ffffffffffffffffffffffffffffffffffffffff1603610be9576040517f08c379a0000000000000000000000000000000000000000000000000000000008152600401610be090612e2f565b60405180910390fd5b60016040518060c0016040528060018054905081526020018681526020013373ffffffffffffffffffffffffffffffffffffffff1681526020018573ffffffffffffffffffffffffffffffffffffffff16815260200142600454610c4d9190612e7a565b81526020015f6004811115610c6557610c646127f8565b5b815250908060018154018082558091505060019003905f5260205f2090600602015f909190919091505f820151815f0155602082015181600101556040820151816002015f6101000a81548173ffffffffffffffffffffffffffffffffffffffff021916908373ffffffffffffffffffffffffffffffffffffffff1602179055506060820151816003015f6101000a81548173ffffffffffffffffffffffffffffffffffffffff021916908373ffffffffffffffffffffffffffffffffffffffff1602179055506080820151816004015560a0820151816005015f6101000a81548160ff02191690836004811115610d6057610d5f6127f8565b5b0217905550505060015f8581548110610d7c57610d7b61294b565b5b905f5260205f2090600502016004015f6101000a81548160ff02191690831515021790555050505050565b813373ffffffffffffffffffffffffffffffffffffffff165f8281548110610dd257610dd161294b565b5b905f5260205f2090600502016001015f9054906101000a900473ffffffffffffffffffffffffffffffffffffffff1673ffffffffffffffffffffffffffffffffffffffff1614610e57576040517f08c379a0000000000000000000000000000000000000000000000000000000008152600401610e4e90612bbf565b60405180910390fd5b825f15155f8281548110610e6e57610e6d61294b565b5b905f5260205f2090600502016004015f9054906101000a900460ff16151514610ecc576040517f08c379a0000000000000000000000000000000000000000000000000000000008152600401610ec390612c27565b60405180910390fd5b5f15155f8281548110610ee257610ee161294b565b5b905f5260205f20906005020160040160019054906101000a900460ff16151514610f41576040517f08c379a0000000000000000000000000000000000000000000000000000000008152600401610f3890612c8f565b60405180910390fd5b5f15155f8281548110610f5757610f5661294b565b5b905f5260205f20906005020160040160029054906101000a900460ff16151514610fb6576040517f08c379a0000000000000000000000000000000000000000000000000000000008152600401610fad90612cf7565b60405180910390fd5b5f805490508410610ffc576040517f08c379a0000000000000000000000000000000000000000000000000000000008152600401610ff390612dc7565b60405180910390fd5b633b9aca00831161100b575f80fd5b60608060026040518060c001604052808881526020013373ffffffffffffffffffffffffffffffffffffffff1681526020015f73ffffffffffffffffffffffffffffffffffffffff16815260200187815260200184815260200183815250908060018154018082558091505060019003905f5260205f2090600602015f909190919091505f820151815f01556020820151816001015f6101000a81548173ffffffffffffffffffffffffffffffffffffffff021916908373ffffffffffffffffffffffffffffffffffffffff1602179055506040820151816002015f6101000a81548173ffffffffffffffffffffffffffffffffffffffff021916908373ffffffffffffffffffffffffffffffffffffffff16021790555060608201518160030155608082015181600401908051906020019061114992919061224e565b5060a08201518160050190805190602001906111669291906122d5565b50505060015f878154811061117e5761117d61294b565b5b905f5260205f20906005020160040160016101000a81548160ff021916908315150217905550505050505050565b60018054905081106111bc575f80fd5b5f60048111156111cf576111ce6127f8565b5b600182815481106111e3576111e261294b565b5b905f5260205f2090600602016005015f9054906101000a900460ff166004811115611211576112106127f8565b5b14611251576040517f08c379a000000000000000000000000000000000000000000000000000000000815260040161124890612ef7565b60405180910390fd5b3373ffffffffffffffffffffffffffffffffffffffff166001828154811061127c5761127b61294b565b5b905f5260205f2090600602016002015f9054906101000a900473ffffffffffffffffffffffffffffffffffffffff1673ffffffffffffffffffffffffffffffffffffffff1614611301576040517f08c379a00000000000000000000000000000000000000000000000000000000081526004016112f890612f5f565b60405180910390fd5b5f600182815481106113165761131561294b565b5b905f5260205f209060060201600101549050426001838154811061133d5761133c61294b565b5b905f5260205f2090600602016004015411156113a3576004600183815481106113695761136861294b565b5b905f5260205f2090600602016005015f6101000a81548160ff02191690836004811115611399576113986127f8565b5b02179055506113ef565b6003600183815481106113b9576113b861294b565b5b905f5260205f2090600602016005015f6101000a81548160ff021916908360048111156113e9576113e86127f8565b5b02179055505b5f8082815481106114035761140261294b565b5b905f5260205f2090600502016004015f6101000a81548160ff0219169083151502179055505050565b60035f9054906101000a900473ffffffffffffffffffffffffffffffffffffffff1673ffffffffffffffffffffffffffffffffffffffff163373ffffffffffffffffffffffffffffffffffffffff16146114bb576040517f08c379a00000000000000000000000000000000000000000000000000000000081526004016114b29061292d565b60405180910390fd5b5f73ffffffffffffffffffffffffffffffffffffffff168373ffffffffffffffffffffffffffffffffffffffff1603611529576040517f08c379a000000000000000000000000000000000000000000000000000000000815260040161152090612fc7565b60405180910390fd5b5f811161156b576040517f08c379a00000000000000000000000000000000000000000000000000000000081526004016115629061302f565b60405180910390fd5b5f6040518060e001604052805f8054905081526020018573ffffffffffffffffffffffffffffffffffffffff1681526020018481526020018381526020015f151581526020015f151581526020015f1515815250908060018154018082558091505060019003905f5260205f2090600502015f909190919091505f820151815f01556020820151816001015f6101000a81548173ffffffffffffffffffffffffffffffffffffffff021916908373ffffffffffffffffffffffffffffffffffffffff160217905550604082015181600201908161164891906131ea565b50606082015181600301556080820151816004015f6101000a81548160ff02191690831515021790555060a08201518160040160016101000a81548160ff02191690831515021790555060c08201518160040160026101000a81548160ff0219169083151502179055505050505050565b600281815481106116c8575f80fd5b905f5260205f2090600602015f91509050805f015490806001015f9054906101000a900473ffffffffffffffffffffffffffffffffffffffff1690806002015f9054906101000a900473ffffffffffffffffffffffffffffffffffffffff16908060030154905084565b5f600182815481106117475761174661294b565b5b905f5260205f2090600602016001015490505f15155f828154811061176f5761176e61294b565b5b905f5260205f20906005020160040160029054906101000a900460ff161515146117ce576040517f08c379a00000000000000000000000000000000000000000000000000000000081526004016117c590613303565b60405180910390fd5b60018054905082106117de575f80fd5b5f60048111156117f1576117f06127f8565b5b600183815481106118055761180461294b565b5b905f5260205f2090600602016005015f9054906101000a900460ff166004811115611833576118326127f8565b5b14611873576040517f08c379a000000000000000000000000000000000000000000000000000000000815260040161186a90612ef7565b60405180910390fd5b3373ffffffffffffffffffffffffffffffffffffffff166001838154811061189e5761189d61294b565b5b905f5260205f2090600602016003015f9054906101000a900473ffffffffffffffffffffffffffffffffffffffff1673ffffffffffffffffffffffffffffffffffffffff1614611923576040517f08c379a000000000000000000000000000000000000000000000000000000000815260040161191a9061336b565b60405180910390fd5b42600183815481106119385761193761294b565b5b905f5260205f2090600602016004015411156119fe576002600183815481106119645761196361294b565b5b905f5260205f2090600602016005015f6101000a81548160ff02191690836004811115611994576119936127f8565b5b0217905550335f82815481106119ad576119ac61294b565b5b905f5260205f2090600502016001015f6101000a81548173ffffffffffffffffffffffffffffffffffffffff021916908373ffffffffffffffffffffffffffffffffffffffff160217905550611a4a565b600360018381548110611a1457611a1361294b565b5b905f5260205f2090600602016005015f6101000a81548160ff02191690836004811115611a4457611a436127f8565b5b02179055505b5f808281548110611a5e57611a5d61294b565b5b905f5260205f2090600502016004015f6101000a81548160ff0219169083151502179055505050565b60018181548110611a96575f80fd5b905f5260205f2090600602015f91509050805f015490806001015490806002015f9054906101000a900473ffffffffffffffffffffffffffffffffffffffff1690806003015f9054906101000a900473ffffffffffffffffffffffffffffffffffffffff1690806004015490806005015f9054906101000a900460ff16905086565b5f60018281548110611b2d57611b2c61294b565b5b905f5260205f2090600602016001015490506001805490508210611b4f575f80fd5b5f6004811115611b6257611b616127f8565b5b60018381548110611b7657611b7561294b565b5b905f5260205f2090600602016005015f9054906101000a900460ff166004811115611ba457611ba36127f8565b5b14611be4576040517f08c379a0000000000000000000000000000000000000000000000000000000008152600401611bdb90612ef7565b60405180910390fd5b3373ffffffffffffffffffffffffffffffffffffffff1660018381548110611c0f57611c0e61294b565b5b905f5260205f2090600602016003015f9054906101000a900473ffffffffffffffffffffffffffffffffffffffff1673ffffffffffffffffffffffffffffffffffffffff1614611c94576040517f08c379a0000000000000000000000000000000000000000000000000000000008152600401611c8b9061336b565b60405180910390fd5b4260018381548110611ca957611ca861294b565b5b905f5260205f209060060201600401541115611d0e576001808381548110611cd457611cd361294b565b5b905f5260205f2090600602016005015f6101000a81548160ff02191690836004811115611d0457611d036127f8565b5b0217905550611d5a565b600360018381548110611d2457611d2361294b565b5b905f5260205f2090600602016005015f6101000a81548160ff02191690836004811115611d5457611d536127f8565b5b02179055505b5f808281548110611d6e57611d6d61294b565b5b905f5260205f2090600502016004015f6101000a81548160ff0219169083151502179055505050565b5f60028281548110611dac57611dab61294b565b5b905f5260205f2090600602015f015490505f15155f8281548110611dd357611dd261294b565b5b905f5260205f20906005020160040160029054906101000a900460ff16151514611e32576040517f08c379a0000000000000000000000000000000000000000000000000000000008152600401611e29906133d3565b60405180910390fd5b6002805490508210611e79576040517f08c379a0000000000000000000000000000000000000000000000000000000008152600401611e7090612a2a565b60405180910390fd5b3373ffffffffffffffffffffffffffffffffffffffff1660028381548110611ea457611ea361294b565b5b905f5260205f2090600602016001015f9054906101000a900473ffffffffffffffffffffffffffffffffffffffff1673ffffffffffffffffffffffffffffffffffffffff1603611f29576040517f08c379a0000000000000000000000000000000000000000000000000000000008152600401611f209061343b565b60405180910390fd5b5f73ffffffffffffffffffffffffffffffffffffffff1660028381548110611f5457611f5361294b565b5b905f5260205f2090600602016002015f9054906101000a900473ffffffffffffffffffffffffffffffffffffffff1673ffffffffffffffffffffffffffffffffffffffff1614611fd9576040517f08c379a0000000000000000000000000000000000000000000000000000000008152600401611fd090612a92565b60405180910390fd5b3460028381548110611fee57611fed61294b565b5b905f5260205f20906006020160030154111561203f576040517f08c379a0000000000000000000000000000000000000000000000000000000008152600401612036906134a3565b60405180910390fd5b5f805b600284815481106120565761205561294b565b5b905f5260205f20906006020160040180549050811015612115573373ffffffffffffffffffffffffffffffffffffffff166002858154811061209b5761209a61294b565b5b905f5260205f20906006020160040182815481106120bc576120bb61294b565b5b905f5260205f20015f9054906101000a900473ffffffffffffffffffffffffffffffffffffffff1673ffffffffffffffffffffffffffffffffffffffff16036121085760019150612115565b8080600101915050612042565b505f15158115151461215c576040517f08c379a00000000000000000000000000000000000000000000000000000000081526004016121539061350b565b60405180910390fd5b600283815481106121705761216f61294b565b5b905f5260205f20906006020160040133908060018154018082558091505060019003905f5260205f20015f9091909190916101000a81548173ffffffffffffffffffffffffffffffffffffffff021916908373ffffffffffffffffffffffffffffffffffffffff160217905550600283815481106121f1576121f061294b565b5b905f5260205f20906006020160050134908060018154018082558091505060019003905f5260205f20015f9091909190915055505050565b60035f9054906101000a900473ffffffffffffffffffffffffffffffffffffffff1681565b828054828255905f5260205f209081019282156122c4579160200282015b828111156122c3578251825f6101000a81548173ffffffffffffffffffffffffffffffffffffffff021916908373ffffffffffffffffffffffffffffffffffffffff1602179055509160200191906001019061226c565b5b5090506122d19190612320565b5090565b828054828255905f5260205f2090810192821561230f579160200282015b8281111561230e5782518255916020019190600101906122f3565b5b50905061231c9190612320565b5090565b5b80821115612337575f815f905550600101612321565b5090565b5f604051905090565b5f80fd5b5f80fd5b5f819050919050565b61235e8161234c565b8114612368575f80fd5b50565b5f8135905061237981612355565b92915050565b5f8115159050919050565b6123938161237f565b811461239d575f80fd5b50565b5f813590506123ae8161238a565b92915050565b5f80604083850312156123ca576123c9612344565b5b5f6123d78582860161236b565b92505060206123e8858286016123a0565b9150509250929050565b6123fb8161234c565b82525050565b5f6020820190506124145f8301846123f2565b92915050565b5f6020828403121561242f5761242e612344565b5b5f61243c8482850161236b565b91505092915050565b5f73ffffffffffffffffffffffffffffffffffffffff82169050919050565b5f61246e82612445565b9050919050565b61247e81612464565b82525050565b5f81519050919050565b5f82825260208201905092915050565b8281835e5f83830152505050565b5f601f19601f8301169050919050565b5f6124c682612484565b6124d0818561248e565b93506124e081856020860161249e565b6124e9816124ac565b840191505092915050565b6124fd8161237f565b82525050565b5f60e0820190506125165f83018a6123f2565b6125236020830189612475565b818103604083015261253581886124bc565b905061254460608301876123f2565b61255160808301866124f4565b61255e60a08301856124f4565b61256b60c08301846124f4565b98975050505050505050565b61258081612464565b811461258a575f80fd5b50565b5f8135905061259b81612577565b92915050565b5f80604083850312156125b7576125b6612344565b5b5f6125c48582860161236b565b92505060206125d58582860161258d565b9150509250929050565b5f80604083850312156125f5576125f4612344565b5b5f6126028582860161236b565b92505060206126138582860161236b565b9150509250929050565b5f80fd5b5f80fd5b7f4e487b71000000000000000000000000000000000000000000000000000000005f52604160045260245ffd5b61265b826124ac565b810181811067ffffffffffffffff8211171561267a57612679612625565b5b80604052505050565b5f61268c61233b565b90506126988282612652565b919050565b5f67ffffffffffffffff8211156126b7576126b6612625565b5b6126c0826124ac565b9050602081019050919050565b828183375f83830152505050565b5f6126ed6126e88461269d565b612683565b90508281526020810184848401111561270957612708612621565b5b6127148482856126cd565b509392505050565b5f82601f8301126127305761272f61261d565b5b81356127408482602086016126db565b91505092915050565b5f805f606084860312156127605761275f612344565b5b5f61276d8682870161258d565b935050602084013567ffffffffffffffff81111561278e5761278d612348565b5b61279a8682870161271c565b92505060406127ab8682870161236b565b9150509250925092565b5f6080820190506127c85f8301876123f2565b6127d56020830186612475565b6127e26040830185612475565b6127ef60608301846123f2565b95945050505050565b7f4e487b71000000000000000000000000000000000000000000000000000000005f52602160045260245ffd5b60058110612836576128356127f8565b5b50565b5f81905061284682612825565b919050565b5f61285582612839565b9050919050565b6128658161284b565b82525050565b5f60c08201905061287e5f8301896123f2565b61288b60208301886123f2565b6128986040830187612475565b6128a56060830186612475565b6128b260808301856123f2565b6128bf60a083018461285c565b979650505050505050565b5f6020820190506128dd5f830184612475565b92915050565b7f596f7520617265206e6f742061646d696e0000000000000000000000000000005f82015250565b5f61291760118361248e565b9150612922826128e3565b602082019050919050565b5f6020820190508181035f8301526129448161290b565b9050919050565b7f4e487b71000000000000000000000000000000000000000000000000000000005f52603260045260245ffd5b7f7468652073616d652061726573740000000000000000000000000000000000005f82015250565b5f6129ac600e8361248e565b91506129b782612978565b602082019050919050565b5f6020820190508181035f8301526129d9816129a0565b9050919050565b7f77726f6e672073616c6549442076616c756500000000000000000000000000005f82015250565b5f612a1460128361248e565b9150612a1f826129e0565b602082019050919050565b5f6020820190508181035f830152612a4181612a08565b9050919050565b7f53616c6520697320636c6f7365640000000000000000000000000000000000005f82015250565b5f612a7c600e8361248e565b9150612a8782612a48565b602082019050919050565b5f6020820190508181035f830152612aa981612a70565b9050919050565b7f796f7520707269636520697320300000000000000000000000000000000000005f82015250565b5f612ae4600e8361248e565b9150612aef82612ab0565b602082019050919050565b5f6020820190508181035f830152612b1181612ad8565b9050919050565b7f4e487b71000000000000000000000000000000000000000000000000000000005f52602260045260245ffd5b5f6002820490506001821680612b5c57607f821691505b602082108103612b6f57612b6e612b18565b5b50919050565b7f4973206e6f7420796f7572206275696c640000000000000000000000000000005f82015250565b5f612ba960118361248e565b9150612bb482612b75565b602082019050919050565b5f6020820190508181035f830152612bd681612b9d565b9050919050565b7f416c726561647920696e2070726573656e7400000000000000000000000000005f82015250565b5f612c1160128361248e565b9150612c1c82612bdd565b602082019050919050565b5f6020820190508181035f830152612c3e81612c05565b9050919050565b7f416c726561647920696e2073616c6500000000000000000000000000000000005f82015250565b5f612c79600f8361248e565b9150612c8482612c45565b602082019050919050565b5f6020820190508181035f830152612ca681612c6d565b9050919050565b7f4275696c6420696e2061726573740000000000000000000000000000000000005f82015250565b5f612ce1600e8361248e565b9150612cec82612cad565b602082019050919050565b5f6020820190508181035f830152612d0e81612cd5565b9050919050565b7f77726f6e675f61646472657373000000000000000000000000000000000000005f82015250565b5f612d49600d8361248e565b9150612d5482612d15565b602082019050919050565b5f6020820190508181035f830152612d7681612d3d565b9050919050565b7f77726f6e67206275696c6449442076616c7565000000000000000000000000005f82015250565b5f612db160138361248e565b9150612dbc82612d7d565b602082019050919050565b5f6020820190508181035f830152612dde81612da5565b9050919050565b7f73656c66206769667400000000000000000000000000000000000000000000005f82015250565b5f612e1960098361248e565b9150612e2482612de5565b602082019050919050565b5f6020820190508181035f830152612e4681612e0d565b9050919050565b7f4e487b71000000000000000000000000000000000000000000000000000000005f52601160045260245ffd5b5f612e848261234c565b9150612e8f8361234c565b9250828201905080821115612ea757612ea6612e4d565b5b92915050565b7f416c72656164792066696e6973686564000000000000000000000000000000005f82015250565b5f612ee160108361248e565b9150612eec82612ead565b602082019050919050565b5f6020820190508181035f830152612f0e81612ed5565b9050919050565b7f596f7520617265206e6f74206f776e65720000000000000000000000000000005f82015250565b5f612f4960118361248e565b9150612f5482612f15565b602082019050919050565b5f6020820190508181035f830152612f7681612f3d565b9050919050565b7f77726f6e672061646472657373000000000000000000000000000000000000005f82015250565b5f612fb1600d8361248e565b9150612fbc82612f7d565b602082019050919050565b5f6020820190508181035f830152612fde81612fa5565b9050919050565b7f77726f6e672073717561726500000000000000000000000000000000000000005f82015250565b5f613019600c8361248e565b915061302482612fe5565b602082019050919050565b5f6020820190508181035f8301526130468161300d565b9050919050565b5f819050815f5260205f209050919050565b5f6020601f8301049050919050565b5f82821b905092915050565b5f600883026130a97fffffffffffffffffffffffffffffffffffffffffffffffffffffffffffffffff8261306e565b6130b3868361306e565b95508019841693508086168417925050509392505050565b5f819050919050565b5f6130ee6130e96130e48461234c565b6130cb565b61234c565b9050919050565b5f819050919050565b613107836130d4565b61311b613113826130f5565b84845461307a565b825550505050565b5f90565b61312f613123565b61313a8184846130fe565b505050565b5b8181101561315d576131525f82613127565b600181019050613140565b5050565b601f8211156131a2576131738161304d565b61317c8461305f565b8101602085101561318b578190505b61319f6131978561305f565b83018261313f565b50505b505050565b5f82821c905092915050565b5f6131c25f19846008026131a7565b1980831691505092915050565b5f6131da83836131b3565b9150826002028217905092915050565b6131f382612484565b67ffffffffffffffff81111561320c5761320b612625565b5b6132168254612b45565b613221828285613161565b5f60209050601f831160018114613252575f8415613240578287015190505b61324a85826131cf565b8655506132b1565b601f1984166132608661304d565b5f5b8281101561328757848901518255600182019150602085019450602081019050613262565b868310156132a457848901516132a0601f8916826131b3565b8355505b6001600288020188555050505b505050505050565b7f6275696c642069732061726573746564000000000000000000000000000000005f82015250565b5f6132ed60108361248e565b91506132f8826132b9565b602082019050919050565b5f6020820190508181035f83015261331a816132e1565b9050919050565b7f546869732069732067696674206e6f7420666f7220796f7500000000000000005f82015250565b5f61335560188361248e565b915061336082613321565b602082019050919050565b5f6020820190508181035f83015261338281613349565b9050919050565b7f65737461746520617265737465640000000000000000000000000000000000005f82015250565b5f6133bd600e8361248e565b91506133c882613389565b602082019050919050565b5f6020820190508181035f8301526133ea816133b1565b9050919050565b7f73656c662073616c6500000000000000000000000000000000000000000000005f82015250565b5f61342560098361248e565b9150613430826133f1565b602082019050919050565b5f6020820190508181035f83015261345281613419565b9050919050565b7f77726f6e67206574682076616c756500000000000000000000000000000000005f82015250565b5f61348d600f8361248e565b915061349882613459565b602082019050919050565b5f6020820190508181035f8301526134ba81613481565b9050919050565b7f796f7520616c726561647920696e2070726963657300000000000000000000005f82015250565b5f6134f560158361248e565b9150613500826134c1565b602082019050919050565b5f6020820190508181035f830152613522816134e9565b905091905056fea26469706673582212201b30c88806c1955e485e907557338007a76c381c34e486a64dd99588994739bd64736f6c634300081a0033",
					"opcodes": "PUSH1 0x80 PUSH1 0x40 MSTORE PUSH1 0x3C PUSH1 0x4 SSTORE CALLVALUE DUP1 ISZERO PUSH2 0x14 JUMPI PUSH0 DUP1 REVERT JUMPDEST POP PUSH1 0x40 MLOAD PUSH2 0x3671 CODESIZE SUB DUP1 PUSH2 0x3671 DUP4 CODECOPY DUP2 DUP2 ADD PUSH1 0x40 MSTORE DUP2 ADD SWAP1 PUSH2 0x36 SWAP2 SWAP1 PUSH2 0xDA JUMP JUMPDEST DUP1 PUSH1 0x3 PUSH0 PUSH2 0x100 EXP DUP2 SLOAD DUP2 PUSH20 0xFFFFFFFFFFFFFFFFFFFFFFFFFFFFFFFFFFFFFFFF MUL NOT AND SWAP1 DUP4 PUSH20 0xFFFFFFFFFFFFFFFFFFFFFFFFFFFFFFFFFFFFFFFF AND MUL OR SWAP1 SSTORE POP POP PUSH2 0x105 JUMP JUMPDEST PUSH0 DUP1 REVERT JUMPDEST PUSH0 PUSH20 0xFFFFFFFFFFFFFFFFFFFFFFFFFFFFFFFFFFFFFFFF DUP3 AND SWAP1 POP SWAP2 SWAP1 POP JUMP JUMPDEST PUSH0 PUSH2 0xA9 DUP3 PUSH2 0x80 JUMP JUMPDEST SWAP1 POP SWAP2 SWAP1 POP JUMP JUMPDEST PUSH2 0xB9 DUP2 PUSH2 0x9F JUMP JUMPDEST DUP2 EQ PUSH2 0xC3 JUMPI PUSH0 DUP1 REVERT JUMPDEST POP JUMP JUMPDEST PUSH0 DUP2 MLOAD SWAP1 POP PUSH2 0xD4 DUP2 PUSH2 0xB0 JUMP JUMPDEST SWAP3 SWAP2 POP POP JUMP JUMPDEST PUSH0 PUSH1 0x20 DUP3 DUP5 SUB SLT ISZERO PUSH2 0xEF JUMPI PUSH2 0xEE PUSH2 0x7C JUMP JUMPDEST JUMPDEST PUSH0 PUSH2 0xFC DUP5 DUP3 DUP6 ADD PUSH2 0xC6 JUMP JUMPDEST SWAP2 POP POP SWAP3 SWAP2 POP POP JUMP JUMPDEST PUSH2 0x355F DUP1 PUSH2 0x112 PUSH0 CODECOPY PUSH0 RETURN INVALID PUSH1 0x80 PUSH1 0x40 MSTORE PUSH1 0x4 CALLDATASIZE LT PUSH2 0xDC JUMPI PUSH0 CALLDATALOAD PUSH1 0xE0 SHR DUP1 PUSH4 0x9A22ED8F GT PUSH2 0x7E JUMPI DUP1 PUSH4 0xD6065935 GT PUSH2 0x58 JUMPI DUP1 PUSH4 0xD6065935 EQ PUSH2 0x297 JUMPI DUP1 PUSH4 0xDB4C049D EQ PUSH2 0x2D8 JUMPI DUP1 PUSH4 0xE9F0EE56 EQ PUSH2 0x300 JUMPI DUP1 PUSH4 0xF851A440 EQ PUSH2 0x31C JUMPI PUSH2 0xDC JUMP JUMPDEST DUP1 PUSH4 0x9A22ED8F EQ PUSH2 0x208 JUMPI DUP1 PUSH4 0xB5F522F7 EQ PUSH2 0x230 JUMPI DUP1 PUSH4 0xD0AB383A EQ PUSH2 0x26F JUMPI PUSH2 0xDC JUMP JUMPDEST DUP1 PUSH4 0x4C96A062 GT PUSH2 0xBA JUMPI DUP1 PUSH4 0x4C96A062 EQ PUSH2 0x14E JUMPI DUP1 PUSH4 0x58C97164 EQ PUSH2 0x190 JUMPI DUP1 PUSH4 0x6019061B EQ PUSH2 0x1B8 JUMPI DUP1 PUSH4 0x8EE69AE8 EQ PUSH2 0x1E0 JUMPI PUSH2 0xDC JUMP JUMPDEST DUP1 PUSH4 0x6238E6E EQ PUSH2 0xE0 JUMPI DUP1 PUSH4 0xA483421 EQ PUSH2 0x108 JUMPI DUP1 PUSH4 0x2A50FE2C EQ PUSH2 0x132 JUMPI JUMPDEST PUSH0 DUP1 REVERT JUMPDEST CALLVALUE DUP1 ISZERO PUSH2 0xEB JUMPI PUSH0 DUP1 REVERT JUMPDEST POP PUSH2 0x106 PUSH1 0x4 DUP1 CALLDATASIZE SUB DUP2 ADD SWAP1 PUSH2 0x101 SWAP2 SWAP1 PUSH2 0x23B4 JUMP JUMPDEST PUSH2 0x346 JUMP JUMPDEST STOP JUMPDEST CALLVALUE DUP1 ISZERO PUSH2 0x113 JUMPI PUSH0 DUP1 REVERT JUMPDEST POP PUSH2 0x11C PUSH2 0x488 JUMP JUMPDEST PUSH1 0x40 MLOAD PUSH2 0x129 SWAP2 SWAP1 PUSH2 0x2401 JUMP JUMPDEST PUSH1 0x40 MLOAD DUP1 SWAP2 SUB SWAP1 RETURN JUMPDEST PUSH2 0x14C PUSH1 0x4 DUP1 CALLDATASIZE SUB DUP2 ADD SWAP1 PUSH2 0x147 SWAP2 SWAP1 PUSH2 0x241A JUMP JUMPDEST PUSH2 0x48E JUMP JUMPDEST STOP JUMPDEST CALLVALUE DUP1 ISZERO PUSH2 0x159 JUMPI PUSH0 DUP1 REVERT JUMPDEST POP PUSH2 0x174 PUSH1 0x4 DUP1 CALLDATASIZE SUB DUP2 ADD SWAP1 PUSH2 0x16F SWAP2 SWAP1 PUSH2 0x241A JUMP JUMPDEST PUSH2 0x7A1 JUMP JUMPDEST PUSH1 0x40 MLOAD PUSH2 0x187 SWAP8 SWAP7 SWAP6 SWAP5 SWAP4 SWAP3 SWAP2 SWAP1 PUSH2 0x2503 JUMP JUMPDEST PUSH1 0x40 MLOAD DUP1 SWAP2 SUB SWAP1 RETURN JUMPDEST CALLVALUE DUP1 ISZERO PUSH2 0x19B JUMPI PUSH0 DUP1 REVERT JUMPDEST POP PUSH2 0x1B6 PUSH1 0x4 DUP1 CALLDATASIZE SUB DUP2 ADD SWAP1 PUSH2 0x1B1 SWAP2 SWAP1 PUSH2 0x25A1 JUMP JUMPDEST PUSH2 0x8B8 JUMP JUMPDEST STOP JUMPDEST CALLVALUE DUP1 ISZERO PUSH2 0x1C3 JUMPI PUSH0 DUP1 REVERT JUMPDEST POP PUSH2 0x1DE PUSH1 0x4 DUP1 CALLDATASIZE SUB DUP2 ADD SWAP1 PUSH2 0x1D9 SWAP2 SWAP1 PUSH2 0x25DF JUMP JUMPDEST PUSH2 0xDA7 JUMP JUMPDEST STOP JUMPDEST CALLVALUE DUP1 ISZERO PUSH2 0x1EB JUMPI PUSH0 DUP1 REVERT JUMPDEST POP PUSH2 0x206 PUSH1 0x4 DUP1 CALLDATASIZE SUB DUP2 ADD SWAP1 PUSH2 0x201 SWAP2 SWAP1 PUSH2 0x241A JUMP JUMPDEST PUSH2 0x11AC JUMP JUMPDEST STOP JUMPDEST CALLVALUE DUP1 ISZERO PUSH2 0x213 JUMPI PUSH0 DUP1 REVERT JUMPDEST POP PUSH2 0x22E PUSH1 0x4 DUP1 CALLDATASIZE SUB DUP2 ADD SWAP1 PUSH2 0x229 SWAP2 SWAP1 PUSH2 0x2749 JUMP JUMPDEST PUSH2 0x142C JUMP JUMPDEST STOP JUMPDEST CALLVALUE DUP1 ISZERO PUSH2 0x23B JUMPI PUSH0 DUP1 REVERT JUMPDEST POP PUSH2 0x256 PUSH1 0x4 DUP1 CALLDATASIZE SUB DUP2 ADD SWAP1 PUSH2 0x251 SWAP2 SWAP1 PUSH2 0x241A JUMP JUMPDEST PUSH2 0x16B9 JUMP JUMPDEST PUSH1 0x40 MLOAD PUSH2 0x266 SWAP5 SWAP4 SWAP3 SWAP2 SWAP1 PUSH2 0x27B5 JUMP JUMPDEST PUSH1 0x40 MLOAD DUP1 SWAP2 SUB SWAP1 RETURN JUMPDEST CALLVALUE DUP1 ISZERO PUSH2 0x27A JUMPI PUSH0 DUP1 REVERT JUMPDEST POP PUSH2 0x295 PUSH1 0x4 DUP1 CALLDATASIZE SUB DUP2 ADD SWAP1 PUSH2 0x290 SWAP2 SWAP1 PUSH2 0x241A JUMP JUMPDEST PUSH2 0x1732 JUMP JUMPDEST STOP JUMPDEST CALLVALUE DUP1 ISZERO PUSH2 0x2A2 JUMPI PUSH0 DUP1 REVERT JUMPDEST POP PUSH2 0x2BD PUSH1 0x4 DUP1 CALLDATASIZE SUB DUP2 ADD SWAP1 PUSH2 0x2B8 SWAP2 SWAP1 PUSH2 0x241A JUMP JUMPDEST PUSH2 0x1A87 JUMP JUMPDEST PUSH1 0x40 MLOAD PUSH2 0x2CF SWAP7 SWAP6 SWAP5 SWAP4 SWAP3 SWAP2 SWAP1 PUSH2 0x286B JUMP JUMPDEST PUSH1 0x40 MLOAD DUP1 SWAP2 SUB SWAP1 RETURN JUMPDEST CALLVALUE DUP1 ISZERO PUSH2 0x2E3 JUMPI PUSH0 DUP1 REVERT JUMPDEST POP PUSH2 0x2FE PUSH1 0x4 DUP1 CALLDATASIZE SUB DUP2 ADD SWAP1 PUSH2 0x2F9 SWAP2 SWAP1 PUSH2 0x241A JUMP JUMPDEST PUSH2 0x1B18 JUMP JUMPDEST STOP JUMPDEST PUSH2 0x31A PUSH1 0x4 DUP1 CALLDATASIZE SUB DUP2 ADD SWAP1 PUSH2 0x315 SWAP2 SWAP1 PUSH2 0x241A JUMP JUMPDEST PUSH2 0x1D97 JUMP JUMPDEST STOP JUMPDEST CALLVALUE DUP1 ISZERO PUSH2 0x327 JUMPI PUSH0 DUP1 REVERT JUMPDEST POP PUSH2 0x330 PUSH2 0x2229 JUMP JUMPDEST PUSH1 0x40 MLOAD PUSH2 0x33D SWAP2 SWAP1 PUSH2 0x28CA JUMP JUMPDEST PUSH1 0x40 MLOAD DUP1 SWAP2 SUB SWAP1 RETURN JUMPDEST PUSH1 0x3 PUSH0 SWAP1 SLOAD SWAP1 PUSH2 0x100 EXP SWAP1 DIV PUSH20 0xFFFFFFFFFFFFFFFFFFFFFFFFFFFFFFFFFFFFFFFF AND PUSH20 0xFFFFFFFFFFFFFFFFFFFFFFFFFFFFFFFFFFFFFFFF AND CALLER PUSH20 0xFFFFFFFFFFFFFFFFFFFFFFFFFFFFFFFFFFFFFFFF AND EQ PUSH2 0x3D5 JUMPI PUSH1 0x40 MLOAD PUSH32 0x8C379A000000000000000000000000000000000000000000000000000000000 DUP2 MSTORE PUSH1 0x4 ADD PUSH2 0x3CC SWAP1 PUSH2 0x292D JUMP JUMPDEST PUSH1 0x40 MLOAD DUP1 SWAP2 SUB SWAP1 REVERT JUMPDEST PUSH0 DUP3 DUP2 SLOAD DUP2 LT PUSH2 0x3E8 JUMPI PUSH2 0x3E7 PUSH2 0x294B JUMP JUMPDEST JUMPDEST SWAP1 PUSH0 MSTORE PUSH1 0x20 PUSH0 KECCAK256 SWAP1 PUSH1 0x5 MUL ADD PUSH1 0x4 ADD PUSH1 0x2 SWAP1 SLOAD SWAP1 PUSH2 0x100 EXP SWAP1 DIV PUSH1 0xFF AND ISZERO ISZERO DUP2 ISZERO ISZERO SUB PUSH2 0x44A JUMPI PUSH1 0x40 MLOAD PUSH32 0x8C379A000000000000000000000000000000000000000000000000000000000 DUP2 MSTORE PUSH1 0x4 ADD PUSH2 0x441 SWAP1 PUSH2 0x29C2 JUMP JUMPDEST PUSH1 0x40 MLOAD DUP1 SWAP2 SUB SWAP1 REVERT JUMPDEST DUP1 PUSH0 DUP4 DUP2 SLOAD DUP2 LT PUSH2 0x45E JUMPI PUSH2 0x45D PUSH2 0x294B JUMP JUMPDEST JUMPDEST SWAP1 PUSH0 MSTORE PUSH1 0x20 PUSH0 KECCAK256 SWAP1 PUSH1 0x5 MUL ADD PUSH1 0x4 ADD PUSH1 0x2 PUSH2 0x100 EXP DUP2 SLOAD DUP2 PUSH1 0xFF MUL NOT AND SWAP1 DUP4 ISZERO ISZERO MUL OR SWAP1 SSTORE POP POP POP JUMP JUMPDEST PUSH1 0x4 SLOAD DUP2 JUMP JUMPDEST PUSH1 0x2 DUP1 SLOAD SWAP1 POP DUP2 LT PUSH2 0x4D5 JUMPI PUSH1 0x40 MLOAD PUSH32 0x8C379A000000000000000000000000000000000000000000000000000000000 DUP2 MSTORE PUSH1 0x4 ADD PUSH2 0x4CC SWAP1 PUSH2 0x2A2A JUMP JUMPDEST PUSH1 0x40 MLOAD DUP1 SWAP2 SUB SWAP1 REVERT JUMPDEST PUSH0 PUSH20 0xFFFFFFFFFFFFFFFFFFFFFFFFFFFFFFFFFFFFFFFF AND PUSH1 0x2 DUP3 DUP2 SLOAD DUP2 LT PUSH2 0x500 JUMPI PUSH2 0x4FF PUSH2 0x294B JUMP JUMPDEST JUMPDEST SWAP1 PUSH0 MSTORE PUSH1 0x20 PUSH0 KECCAK256 SWAP1 PUSH1 0x6 MUL ADD PUSH1 0x2 ADD PUSH0 SWAP1 SLOAD SWAP1 PUSH2 0x100 EXP SWAP1 DIV PUSH20 0xFFFFFFFFFFFFFFFFFFFFFFFFFFFFFFFFFFFFFFFF AND PUSH20 0xFFFFFFFFFFFFFFFFFFFFFFFFFFFFFFFFFFFFFFFF AND EQ PUSH2 0x585 JUMPI PUSH1 0x40 MLOAD PUSH32 0x8C379A000000000000000000000000000000000000000000000000000000000 DUP2 MSTORE PUSH1 0x4 ADD PUSH2 0x57C SWAP1 PUSH2 0x2A92 JUMP JUMPDEST PUSH1 0x40 MLOAD DUP1 SWAP2 SUB SWAP1 REVERT JUMPDEST PUSH0 JUMPDEST PUSH1 0x2 DUP3 DUP2 SLOAD DUP2 LT PUSH2 0x59B JUMPI PUSH2 0x59A PUSH2 0x294B JUMP JUMPDEST JUMPDEST SWAP1 PUSH0 MSTORE PUSH1 0x20 PUSH0 KECCAK256 SWAP1 PUSH1 0x6 MUL ADD PUSH1 0x4 ADD DUP1 SLOAD SWAP1 POP DUP2 LT ISZERO PUSH2 0x79D JUMPI CALLER PUSH20 0xFFFFFFFFFFFFFFFFFFFFFFFFFFFFFFFFFFFFFFFF AND PUSH1 0x2 DUP4 DUP2 SLOAD DUP2 LT PUSH2 0x5E0 JUMPI PUSH2 0x5DF PUSH2 0x294B JUMP JUMPDEST JUMPDEST SWAP1 PUSH0 MSTORE PUSH1 0x20 PUSH0 KECCAK256 SWAP1 PUSH1 0x6 MUL ADD PUSH1 0x4 ADD DUP3 DUP2 SLOAD DUP2 LT PUSH2 0x601 JUMPI PUSH2 0x600 PUSH2 0x294B JUMP JUMPDEST JUMPDEST SWAP1 PUSH0 MSTORE PUSH1 0x20 PUSH0 KECCAK256 ADD PUSH0 SWAP1 SLOAD SWAP1 PUSH2 0x100 EXP SWAP1 DIV PUSH20 0xFFFFFFFFFFFFFFFFFFFFFFFFFFFFFFFFFFFFFFFF AND PUSH20 0xFFFFFFFFFFFFFFFFFFFFFFFFFFFFFFFFFFFFFFFF AND SUB PUSH2 0x790 JUMPI PUSH0 PUSH1 0x2 DUP4 DUP2 SLOAD DUP2 LT PUSH2 0x659 JUMPI PUSH2 0x658 PUSH2 0x294B JUMP JUMPDEST JUMPDEST SWAP1 PUSH0 MSTORE PUSH1 0x20 PUSH0 KECCAK256 SWAP1 PUSH1 0x6 MUL ADD PUSH1 0x5 ADD DUP3 DUP2 SLOAD DUP2 LT PUSH2 0x67A JUMPI PUSH2 0x679 PUSH2 0x294B JUMP JUMPDEST JUMPDEST SWAP1 PUSH0 MSTORE PUSH1 0x20 PUSH0 KECCAK256 ADD SLOAD SWAP1 POP PUSH0 DUP2 SUB PUSH2 0x6C7 JUMPI PUSH1 0x40 MLOAD PUSH32 0x8C379A000000000000000000000000000000000000000000000000000000000 DUP2 MSTORE PUSH1 0x4 ADD PUSH2 0x6BE SWAP1 PUSH2 0x2AFA JUMP JUMPDEST PUSH1 0x40 MLOAD DUP1 SWAP2 SUB SWAP1 REVERT JUMPDEST CALLER PUSH20 0xFFFFFFFFFFFFFFFFFFFFFFFFFFFFFFFFFFFFFFFF AND PUSH2 0x8FC PUSH1 0x2 DUP6 DUP2 SLOAD DUP2 LT PUSH2 0x6F5 JUMPI PUSH2 0x6F4 PUSH2 0x294B JUMP JUMPDEST JUMPDEST SWAP1 PUSH0 MSTORE PUSH1 0x20 PUSH0 KECCAK256 SWAP1 PUSH1 0x6 MUL ADD PUSH1 0x5 ADD DUP5 DUP2 SLOAD DUP2 LT PUSH2 0x716 JUMPI PUSH2 0x715 PUSH2 0x294B JUMP JUMPDEST JUMPDEST SWAP1 PUSH0 MSTORE PUSH1 0x20 PUSH0 KECCAK256 ADD SLOAD SWAP1 DUP2 ISZERO MUL SWAP1 PUSH1 0x40 MLOAD PUSH0 PUSH1 0x40 MLOAD DUP1 DUP4 SUB DUP2 DUP6 DUP9 DUP9 CALL SWAP4 POP POP POP POP ISZERO DUP1 ISZERO PUSH2 0x747 JUMPI RETURNDATASIZE PUSH0 DUP1 RETURNDATACOPY RETURNDATASIZE PUSH0 REVERT JUMPDEST POP PUSH0 PUSH1 0x2 DUP5 DUP2 SLOAD DUP2 LT PUSH2 0x75D JUMPI PUSH2 0x75C PUSH2 0x294B JUMP JUMPDEST JUMPDEST SWAP1 PUSH0 MSTORE PUSH1 0x20 PUSH0 KECCAK256 SWAP1 PUSH1 0x6 MUL ADD PUSH1 0x5 ADD DUP4 DUP2 SLOAD DUP2 LT PUSH2 0x77E JUMPI PUSH2 0x77D PUSH2 0x294B JUMP JUMPDEST JUMPDEST SWAP1 PUSH0 MSTORE PUSH1 0x20 PUSH0 KECCAK256 ADD DUP2 SWAP1 SSTORE POP POP PUSH2 0x79D JUMP JUMPDEST DUP1 DUP1 PUSH1 0x1 ADD SWAP2 POP POP PUSH2 0x587 JUMP JUMPDEST POP POP JUMP JUMPDEST PUSH0 DUP2 DUP2 SLOAD DUP2 LT PUSH2 0x7AF JUMPI PUSH0 DUP1 REVERT JUMPDEST SWAP1 PUSH0 MSTORE PUSH1 0x20 PUSH0 KECCAK256 SWAP1 PUSH1 0x5 MUL ADD PUSH0 SWAP2 POP SWAP1 POP DUP1 PUSH0 ADD SLOAD SWAP1 DUP1 PUSH1 0x1 ADD PUSH0 SWAP1 SLOAD SWAP1 PUSH2 0x100 EXP SWAP1 DIV PUSH20 0xFFFFFFFFFFFFFFFFFFFFFFFFFFFFFFFFFFFFFFFF AND SWAP1 DUP1 PUSH1 0x2 ADD DUP1 SLOAD PUSH2 0x7F9 SWAP1 PUSH2 0x2B45 JUMP JUMPDEST DUP1 PUSH1 0x1F ADD PUSH1 0x20 DUP1 SWAP2 DIV MUL PUSH1 0x20 ADD PUSH1 0x40 MLOAD SWAP1 DUP2 ADD PUSH1 0x40 MSTORE DUP1 SWAP3 SWAP2 SWAP1 DUP2 DUP2 MSTORE PUSH1 0x20 ADD DUP3 DUP1 SLOAD PUSH2 0x825 SWAP1 PUSH2 0x2B45 JUMP JUMPDEST DUP1 ISZERO PUSH2 0x870 JUMPI DUP1 PUSH1 0x1F LT PUSH2 0x847 JUMPI PUSH2 0x100 DUP1 DUP4 SLOAD DIV MUL DUP4 MSTORE SWAP2 PUSH1 0x20 ADD SWAP2 PUSH2 0x870 JUMP JUMPDEST DUP3 ADD SWAP2 SWAP1 PUSH0 MSTORE PUSH1 0x20 PUSH0 KECCAK256 SWAP1 JUMPDEST DUP2 SLOAD DUP2 MSTORE SWAP1 PUSH1 0x1 ADD SWAP1 PUSH1 0x20 ADD DUP1 DUP4 GT PUSH2 0x853 JUMPI DUP3 SWAP1 SUB PUSH1 0x1F AND DUP3 ADD SWAP2 JUMPDEST POP POP POP POP POP SWAP1 DUP1 PUSH1 0x3 ADD SLOAD SWAP1 DUP1 PUSH1 0x4 ADD PUSH0 SWAP1 SLOAD SWAP1 PUSH2 0x100 EXP SWAP1 DIV PUSH1 0xFF AND SWAP1 DUP1 PUSH1 0x4 ADD PUSH1 0x1 SWAP1 SLOAD SWAP1 PUSH2 0x100 EXP SWAP1 DIV PUSH1 0xFF AND SWAP1 DUP1 PUSH1 0x4 ADD PUSH1 0x2 SWAP1 SLOAD SWAP1 PUSH2 0x100 EXP SWAP1 DIV PUSH1 0xFF AND SWAP1 POP DUP8 JUMP JUMPDEST DUP2 CALLER PUSH20 0xFFFFFFFFFFFFFFFFFFFFFFFFFFFFFFFFFFFFFFFF AND PUSH0 DUP3 DUP2 SLOAD DUP2 LT PUSH2 0x8E3 JUMPI PUSH2 0x8E2 PUSH2 0x294B JUMP JUMPDEST JUMPDEST SWAP1 PUSH0 MSTORE PUSH1 0x20 PUSH0 KECCAK256 SWAP1 PUSH1 0x5 MUL ADD PUSH1 0x1 ADD PUSH0 SWAP1 SLOAD SWAP1 PUSH2 0x100 EXP SWAP1 DIV PUSH20 0xFFFFFFFFFFFFFFFFFFFFFFFFFFFFFFFFFFFFFFFF AND PUSH20 0xFFFFFFFFFFFFFFFFFFFFFFFFFFFFFFFFFFFFFFFF AND EQ PUSH2 0x968 JUMPI PUSH1 0x40 MLOAD PUSH32 0x8C379A000000000000000000000000000000000000000000000000000000000 DUP2 MSTORE PUSH1 0x4 ADD PUSH2 0x95F SWAP1 PUSH2 0x2BBF JUMP JUMPDEST PUSH1 0x40 MLOAD DUP1 SWAP2 SUB SWAP1 REVERT JUMPDEST DUP3 PUSH0 ISZERO ISZERO PUSH0 DUP3 DUP2 SLOAD DUP2 LT PUSH2 0x97F JUMPI PUSH2 0x97E PUSH2 0x294B JUMP JUMPDEST JUMPDEST SWAP1 PUSH0 MSTORE PUSH1 0x20 PUSH0 KECCAK256 SWAP1 PUSH1 0x5 MUL ADD PUSH1 0x4 ADD PUSH0 SWAP1 SLOAD SWAP1 PUSH2 0x100 EXP SWAP1 DIV PUSH1 0xFF AND ISZERO ISZERO EQ PUSH2 0x9DD JUMPI PUSH1 0x40 MLOAD PUSH32 0x8C379A000000000000000000000000000000000000000000000000000000000 DUP2 MSTORE PUSH1 0x4 ADD PUSH2 0x9D4 SWAP1 PUSH2 0x2C27 JUMP JUMPDEST PUSH1 0x40 MLOAD DUP1 SWAP2 SUB SWAP1 REVERT JUMPDEST PUSH0 ISZERO ISZERO PUSH0 DUP3 DUP2 SLOAD DUP2 LT PUSH2 0x9F3 JUMPI PUSH2 0x9F2 PUSH2 0x294B JUMP JUMPDEST JUMPDEST SWAP1 PUSH0 MSTORE PUSH1 0x20 PUSH0 KECCAK256 SWAP1 PUSH1 0x5 MUL ADD PUSH1 0x4 ADD PUSH1 0x1 SWAP1 SLOAD SWAP1 PUSH2 0x100 EXP SWAP1 DIV PUSH1 0xFF AND ISZERO ISZERO EQ PUSH2 0xA52 JUMPI PUSH1 0x40 MLOAD PUSH32 0x8C379A000000000000000000000000000000000000000000000000000000000 DUP2 MSTORE PUSH1 0x4 ADD PUSH2 0xA49 SWAP1 PUSH2 0x2C8F JUMP JUMPDEST PUSH1 0x40 MLOAD DUP1 SWAP2 SUB SWAP1 REVERT JUMPDEST PUSH0 ISZERO ISZERO PUSH0 DUP3 DUP2 SLOAD DUP2 LT PUSH2 0xA68 JUMPI PUSH2 0xA67 PUSH2 0x294B JUMP JUMPDEST JUMPDEST SWAP1 PUSH0 MSTORE PUSH1 0x20 PUSH0 KECCAK256 SWAP1 PUSH1 0x5 MUL ADD PUSH1 0x4 ADD PUSH1 0x2 SWAP1 SLOAD SWAP1 PUSH2 0x100 EXP SWAP1 DIV PUSH1 0xFF AND ISZERO ISZERO EQ PUSH2 0xAC7 JUMPI PUSH1 0x40 MLOAD PUSH32 0x8C379A000000000000000000000000000000000000000000000000000000000 DUP2 MSTORE PUSH1 0x4 ADD PUSH2 0xABE SWAP1 PUSH2 0x2CF7 JUMP JUMPDEST PUSH1 0x40 MLOAD DUP1 SWAP2 SUB SWAP1 REVERT JUMPDEST PUSH0 PUSH20 0xFFFFFFFFFFFFFFFFFFFFFFFFFFFFFFFFFFFFFFFF AND DUP4 PUSH20 0xFFFFFFFFFFFFFFFFFFFFFFFFFFFFFFFFFFFFFFFF AND SUB PUSH2 0xB35 JUMPI PUSH1 0x40 MLOAD PUSH32 0x8C379A000000000000000000000000000000000000000000000000000000000 DUP2 MSTORE PUSH1 0x4 ADD PUSH2 0xB2C SWAP1 PUSH2 0x2D5F JUMP JUMPDEST PUSH1 0x40 MLOAD DUP1 SWAP2 SUB SWAP1 REVERT JUMPDEST PUSH0 DUP1 SLOAD SWAP1 POP DUP5 LT PUSH2 0xB7B JUMPI PUSH1 0x40 MLOAD PUSH32 0x8C379A000000000000000000000000000000000000000000000000000000000 DUP2 MSTORE PUSH1 0x4 ADD PUSH2 0xB72 SWAP1 PUSH2 0x2DC7 JUMP JUMPDEST PUSH1 0x40 MLOAD DUP1 SWAP2 SUB SWAP1 REVERT JUMPDEST CALLER PUSH20 0xFFFFFFFFFFFFFFFFFFFFFFFFFFFFFFFFFFFFFFFF AND DUP4 PUSH20 0xFFFFFFFFFFFFFFFFFFFFFFFFFFFFFFFFFFFFFFFF AND SUB PUSH2 0xBE9 JUMPI PUSH1 0x40 MLOAD PUSH32 0x8C379A000000000000000000000000000000000000000000000000000000000 DUP2 MSTORE PUSH1 0x4 ADD PUSH2 0xBE0 SWAP1 PUSH2 0x2E2F JUMP JUMPDEST PUSH1 0x40 MLOAD DUP1 SWAP2 SUB SWAP1 REVERT JUMPDEST PUSH1 0x1 PUSH1 0x40 MLOAD DUP1 PUSH1 0xC0 ADD PUSH1 0x40 MSTORE DUP1 PUSH1 0x1 DUP1 SLOAD SWAP1 POP DUP2 MSTORE PUSH1 0x20 ADD DUP7 DUP2 MSTORE PUSH1 0x20 ADD CALLER PUSH20 0xFFFFFFFFFFFFFFFFFFFFFFFFFFFFFFFFFFFFFFFF AND DUP2 MSTORE PUSH1 0x20 ADD DUP6 PUSH20 0xFFFFFFFFFFFFFFFFFFFFFFFFFFFFFFFFFFFFFFFF AND DUP2 MSTORE PUSH1 0x20 ADD TIMESTAMP PUSH1 0x4 SLOAD PUSH2 0xC4D SWAP2 SWAP1 PUSH2 0x2E7A JUMP JUMPDEST DUP2 MSTORE PUSH1 0x20 ADD PUSH0 PUSH1 0x4 DUP2 GT ISZERO PUSH2 0xC65 JUMPI PUSH2 0xC64 PUSH2 0x27F8 JUMP JUMPDEST JUMPDEST DUP2 MSTORE POP SWAP1 DUP1 PUSH1 0x1 DUP2 SLOAD ADD DUP1 DUP3 SSTORE DUP1 SWAP2 POP POP PUSH1 0x1 SWAP1 SUB SWAP1 PUSH0 MSTORE PUSH1 0x20 PUSH0 KECCAK256 SWAP1 PUSH1 0x6 MUL ADD PUSH0 SWAP1 SWAP2 SWAP1 SWAP2 SWAP1 SWAP2 POP PUSH0 DUP3 ADD MLOAD DUP2 PUSH0 ADD SSTORE PUSH1 0x20 DUP3 ADD MLOAD DUP2 PUSH1 0x1 ADD SSTORE PUSH1 0x40 DUP3 ADD MLOAD DUP2 PUSH1 0x2 ADD PUSH0 PUSH2 0x100 EXP DUP2 SLOAD DUP2 PUSH20 0xFFFFFFFFFFFFFFFFFFFFFFFFFFFFFFFFFFFFFFFF MUL NOT AND SWAP1 DUP4 PUSH20 0xFFFFFFFFFFFFFFFFFFFFFFFFFFFFFFFFFFFFFFFF AND MUL OR SWAP1 SSTORE POP PUSH1 0x60 DUP3 ADD MLOAD DUP2 PUSH1 0x3 ADD PUSH0 PUSH2 0x100 EXP DUP2 SLOAD DUP2 PUSH20 0xFFFFFFFFFFFFFFFFFFFFFFFFFFFFFFFFFFFFFFFF MUL NOT AND SWAP1 DUP4 PUSH20 0xFFFFFFFFFFFFFFFFFFFFFFFFFFFFFFFFFFFFFFFF AND MUL OR SWAP1 SSTORE POP PUSH1 0x80 DUP3 ADD MLOAD DUP2 PUSH1 0x4 ADD SSTORE PUSH1 0xA0 DUP3 ADD MLOAD DUP2 PUSH1 0x5 ADD PUSH0 PUSH2 0x100 EXP DUP2 SLOAD DUP2 PUSH1 0xFF MUL NOT AND SWAP1 DUP4 PUSH1 0x4 DUP2 GT ISZERO PUSH2 0xD60 JUMPI PUSH2 0xD5F PUSH2 0x27F8 JUMP JUMPDEST JUMPDEST MUL OR SWAP1 SSTORE POP POP POP PUSH1 0x1 PUSH0 DUP6 DUP2 SLOAD DUP2 LT PUSH2 0xD7C JUMPI PUSH2 0xD7B PUSH2 0x294B JUMP JUMPDEST JUMPDEST SWAP1 PUSH0 MSTORE PUSH1 0x20 PUSH0 KECCAK256 SWAP1 PUSH1 0x5 MUL ADD PUSH1 0x4 ADD PUSH0 PUSH2 0x100 EXP DUP2 SLOAD DUP2 PUSH1 0xFF MUL NOT AND SWAP1 DUP4 ISZERO ISZERO MUL OR SWAP1 SSTORE POP POP POP POP POP JUMP JUMPDEST DUP2 CALLER PUSH20 0xFFFFFFFFFFFFFFFFFFFFFFFFFFFFFFFFFFFFFFFF AND PUSH0 DUP3 DUP2 SLOAD DUP2 LT PUSH2 0xDD2 JUMPI PUSH2 0xDD1 PUSH2 0x294B JUMP JUMPDEST JUMPDEST SWAP1 PUSH0 MSTORE PUSH1 0x20 PUSH0 KECCAK256 SWAP1 PUSH1 0x5 MUL ADD PUSH1 0x1 ADD PUSH0 SWAP1 SLOAD SWAP1 PUSH2 0x100 EXP SWAP1 DIV PUSH20 0xFFFFFFFFFFFFFFFFFFFFFFFFFFFFFFFFFFFFFFFF AND PUSH20 0xFFFFFFFFFFFFFFFFFFFFFFFFFFFFFFFFFFFFFFFF AND EQ PUSH2 0xE57 JUMPI PUSH1 0x40 MLOAD PUSH32 0x8C379A000000000000000000000000000000000000000000000000000000000 DUP2 MSTORE PUSH1 0x4 ADD PUSH2 0xE4E SWAP1 PUSH2 0x2BBF JUMP JUMPDEST PUSH1 0x40 MLOAD DUP1 SWAP2 SUB SWAP1 REVERT JUMPDEST DUP3 PUSH0 ISZERO ISZERO PUSH0 DUP3 DUP2 SLOAD DUP2 LT PUSH2 0xE6E JUMPI PUSH2 0xE6D PUSH2 0x294B JUMP JUMPDEST JUMPDEST SWAP1 PUSH0 MSTORE PUSH1 0x20 PUSH0 KECCAK256 SWAP1 PUSH1 0x5 MUL ADD PUSH1 0x4 ADD PUSH0 SWAP1 SLOAD SWAP1 PUSH2 0x100 EXP SWAP1 DIV PUSH1 0xFF AND ISZERO ISZERO EQ PUSH2 0xECC JUMPI PUSH1 0x40 MLOAD PUSH32 0x8C379A000000000000000000000000000000000000000000000000000000000 DUP2 MSTORE PUSH1 0x4 ADD PUSH2 0xEC3 SWAP1 PUSH2 0x2C27 JUMP JUMPDEST PUSH1 0x40 MLOAD DUP1 SWAP2 SUB SWAP1 REVERT JUMPDEST PUSH0 ISZERO ISZERO PUSH0 DUP3 DUP2 SLOAD DUP2 LT PUSH2 0xEE2 JUMPI PUSH2 0xEE1 PUSH2 0x294B JUMP JUMPDEST JUMPDEST SWAP1 PUSH0 MSTORE PUSH1 0x20 PUSH0 KECCAK256 SWAP1 PUSH1 0x5 MUL ADD PUSH1 0x4 ADD PUSH1 0x1 SWAP1 SLOAD SWAP1 PUSH2 0x100 EXP SWAP1 DIV PUSH1 0xFF AND ISZERO ISZERO EQ PUSH2 0xF41 JUMPI PUSH1 0x40 MLOAD PUSH32 0x8C379A000000000000000000000000000000000000000000000000000000000 DUP2 MSTORE PUSH1 0x4 ADD PUSH2 0xF38 SWAP1 PUSH2 0x2C8F JUMP JUMPDEST PUSH1 0x40 MLOAD DUP1 SWAP2 SUB SWAP1 REVERT JUMPDEST PUSH0 ISZERO ISZERO PUSH0 DUP3 DUP2 SLOAD DUP2 LT PUSH2 0xF57 JUMPI PUSH2 0xF56 PUSH2 0x294B JUMP JUMPDEST JUMPDEST SWAP1 PUSH0 MSTORE PUSH1 0x20 PUSH0 KECCAK256 SWAP1 PUSH1 0x5 MUL ADD PUSH1 0x4 ADD PUSH1 0x2 SWAP1 SLOAD SWAP1 PUSH2 0x100 EXP SWAP1 DIV PUSH1 0xFF AND ISZERO ISZERO EQ PUSH2 0xFB6 JUMPI PUSH1 0x40 MLOAD PUSH32 0x8C379A000000000000000000000000000000000000000000000000000000000 DUP2 MSTORE PUSH1 0x4 ADD PUSH2 0xFAD SWAP1 PUSH2 0x2CF7 JUMP JUMPDEST PUSH1 0x40 MLOAD DUP1 SWAP2 SUB SWAP1 REVERT JUMPDEST PUSH0 DUP1 SLOAD SWAP1 POP DUP5 LT PUSH2 0xFFC JUMPI PUSH1 0x40 MLOAD PUSH32 0x8C379A000000000000000000000000000000000000000000000000000000000 DUP2 MSTORE PUSH1 0x4 ADD PUSH2 0xFF3 SWAP1 PUSH2 0x2DC7 JUMP JUMPDEST PUSH1 0x40 MLOAD DUP1 SWAP2 SUB SWAP1 REVERT JUMPDEST PUSH4 0x3B9ACA00 DUP4 GT PUSH2 0x100B JUMPI PUSH0 DUP1 REVERT JUMPDEST PUSH1 0x60 DUP1 PUSH1 0x2 PUSH1 0x40 MLOAD DUP1 PUSH1 0xC0 ADD PUSH1 0x40 MSTORE DUP1 DUP9 DUP2 MSTORE PUSH1 0x20 ADD CALLER PUSH20 0xFFFFFFFFFFFFFFFFFFFFFFFFFFFFFFFFFFFFFFFF AND DUP2 MSTORE PUSH1 0x20 ADD PUSH0 PUSH20 0xFFFFFFFFFFFFFFFFFFFFFFFFFFFFFFFFFFFFFFFF AND DUP2 MSTORE PUSH1 0x20 ADD DUP8 DUP2 MSTORE PUSH1 0x20 ADD DUP5 DUP2 MSTORE PUSH1 0x20 ADD DUP4 DUP2 MSTORE POP SWAP1 DUP1 PUSH1 0x1 DUP2 SLOAD ADD DUP1 DUP3 SSTORE DUP1 SWAP2 POP POP PUSH1 0x1 SWAP1 SUB SWAP1 PUSH0 MSTORE PUSH1 0x20 PUSH0 KECCAK256 SWAP1 PUSH1 0x6 MUL ADD PUSH0 SWAP1 SWAP2 SWAP1 SWAP2 SWAP1 SWAP2 POP PUSH0 DUP3 ADD MLOAD DUP2 PUSH0 ADD SSTORE PUSH1 0x20 DUP3 ADD MLOAD DUP2 PUSH1 0x1 ADD PUSH0 PUSH2 0x100 EXP DUP2 SLOAD DUP2 PUSH20 0xFFFFFFFFFFFFFFFFFFFFFFFFFFFFFFFFFFFFFFFF MUL NOT AND SWAP1 DUP4 PUSH20 0xFFFFFFFFFFFFFFFFFFFFFFFFFFFFFFFFFFFFFFFF AND MUL OR SWAP1 SSTORE POP PUSH1 0x40 DUP3 ADD MLOAD DUP2 PUSH1 0x2 ADD PUSH0 PUSH2 0x100 EXP DUP2 SLOAD DUP2 PUSH20 0xFFFFFFFFFFFFFFFFFFFFFFFFFFFFFFFFFFFFFFFF MUL NOT AND SWAP1 DUP4 PUSH20 0xFFFFFFFFFFFFFFFFFFFFFFFFFFFFFFFFFFFFFFFF AND MUL OR SWAP1 SSTORE POP PUSH1 0x60 DUP3 ADD MLOAD DUP2 PUSH1 0x3 ADD SSTORE PUSH1 0x80 DUP3 ADD MLOAD DUP2 PUSH1 0x4 ADD SWAP1 DUP1 MLOAD SWAP1 PUSH1 0x20 ADD SWAP1 PUSH2 0x1149 SWAP3 SWAP2 SWAP1 PUSH2 0x224E JUMP JUMPDEST POP PUSH1 0xA0 DUP3 ADD MLOAD DUP2 PUSH1 0x5 ADD SWAP1 DUP1 MLOAD SWAP1 PUSH1 0x20 ADD SWAP1 PUSH2 0x1166 SWAP3 SWAP2 SWAP1 PUSH2 0x22D5 JUMP JUMPDEST POP POP POP PUSH1 0x1 PUSH0 DUP8 DUP2 SLOAD DUP2 LT PUSH2 0x117E JUMPI PUSH2 0x117D PUSH2 0x294B JUMP JUMPDEST JUMPDEST SWAP1 PUSH0 MSTORE PUSH1 0x20 PUSH0 KECCAK256 SWAP1 PUSH1 0x5 MUL ADD PUSH1 0x4 ADD PUSH1 0x1 PUSH2 0x100 EXP DUP2 SLOAD DUP2 PUSH1 0xFF MUL NOT AND SWAP1 DUP4 ISZERO ISZERO MUL OR SWAP1 SSTORE POP POP POP POP POP POP POP JUMP JUMPDEST PUSH1 0x1 DUP1 SLOAD SWAP1 POP DUP2 LT PUSH2 0x11BC JUMPI PUSH0 DUP1 REVERT JUMPDEST PUSH0 PUSH1 0x4 DUP2 GT ISZERO PUSH2 0x11CF JUMPI PUSH2 0x11CE PUSH2 0x27F8 JUMP JUMPDEST JUMPDEST PUSH1 0x1 DUP3 DUP2 SLOAD DUP2 LT PUSH2 0x11E3 JUMPI PUSH2 0x11E2 PUSH2 0x294B JUMP JUMPDEST JUMPDEST SWAP1 PUSH0 MSTORE PUSH1 0x20 PUSH0 KECCAK256 SWAP1 PUSH1 0x6 MUL ADD PUSH1 0x5 ADD PUSH0 SWAP1 SLOAD SWAP1 PUSH2 0x100 EXP SWAP1 DIV PUSH1 0xFF AND PUSH1 0x4 DUP2 GT ISZERO PUSH2 0x1211 JUMPI PUSH2 0x1210 PUSH2 0x27F8 JUMP JUMPDEST JUMPDEST EQ PUSH2 0x1251 JUMPI PUSH1 0x40 MLOAD PUSH32 0x8C379A000000000000000000000000000000000000000000000000000000000 DUP2 MSTORE PUSH1 0x4 ADD PUSH2 0x1248 SWAP1 PUSH2 0x2EF7 JUMP JUMPDEST PUSH1 0x40 MLOAD DUP1 SWAP2 SUB SWAP1 REVERT JUMPDEST CALLER PUSH20 0xFFFFFFFFFFFFFFFFFFFFFFFFFFFFFFFFFFFFFFFF AND PUSH1 0x1 DUP3 DUP2 SLOAD DUP2 LT PUSH2 0x127C JUMPI PUSH2 0x127B PUSH2 0x294B JUMP JUMPDEST JUMPDEST SWAP1 PUSH0 MSTORE PUSH1 0x20 PUSH0 KECCAK256 SWAP1 PUSH1 0x6 MUL ADD PUSH1 0x2 ADD PUSH0 SWAP1 SLOAD SWAP1 PUSH2 0x100 EXP SWAP1 DIV PUSH20 0xFFFFFFFFFFFFFFFFFFFFFFFFFFFFFFFFFFFFFFFF AND PUSH20 0xFFFFFFFFFFFFFFFFFFFFFFFFFFFFFFFFFFFFFFFF AND EQ PUSH2 0x1301 JUMPI PUSH1 0x40 MLOAD PUSH32 0x8C379A000000000000000000000000000000000000000000000000000000000 DUP2 MSTORE PUSH1 0x4 ADD PUSH2 0x12F8 SWAP1 PUSH2 0x2F5F JUMP JUMPDEST PUSH1 0x40 MLOAD DUP1 SWAP2 SUB SWAP1 REVERT JUMPDEST PUSH0 PUSH1 0x1 DUP3 DUP2 SLOAD DUP2 LT PUSH2 0x1316 JUMPI PUSH2 0x1315 PUSH2 0x294B JUMP JUMPDEST JUMPDEST SWAP1 PUSH0 MSTORE PUSH1 0x20 PUSH0 KECCAK256 SWAP1 PUSH1 0x6 MUL ADD PUSH1 0x1 ADD SLOAD SWAP1 POP TIMESTAMP PUSH1 0x1 DUP4 DUP2 SLOAD DUP2 LT PUSH2 0x133D JUMPI PUSH2 0x133C PUSH2 0x294B JUMP JUMPDEST JUMPDEST SWAP1 PUSH0 MSTORE PUSH1 0x20 PUSH0 KECCAK256 SWAP1 PUSH1 0x6 MUL ADD PUSH1 0x4 ADD SLOAD GT ISZERO PUSH2 0x13A3 JUMPI PUSH1 0x4 PUSH1 0x1 DUP4 DUP2 SLOAD DUP2 LT PUSH2 0x1369 JUMPI PUSH2 0x1368 PUSH2 0x294B JUMP JUMPDEST JUMPDEST SWAP1 PUSH0 MSTORE PUSH1 0x20 PUSH0 KECCAK256 SWAP1 PUSH1 0x6 MUL ADD PUSH1 0x5 ADD PUSH0 PUSH2 0x100 EXP DUP2 SLOAD DUP2 PUSH1 0xFF MUL NOT AND SWAP1 DUP4 PUSH1 0x4 DUP2 GT ISZERO PUSH2 0x1399 JUMPI PUSH2 0x1398 PUSH2 0x27F8 JUMP JUMPDEST JUMPDEST MUL OR SWAP1 SSTORE POP PUSH2 0x13EF JUMP JUMPDEST PUSH1 0x3 PUSH1 0x1 DUP4 DUP2 SLOAD DUP2 LT PUSH2 0x13B9 JUMPI PUSH2 0x13B8 PUSH2 0x294B JUMP JUMPDEST JUMPDEST SWAP1 PUSH0 MSTORE PUSH1 0x20 PUSH0 KECCAK256 SWAP1 PUSH1 0x6 MUL ADD PUSH1 0x5 ADD PUSH0 PUSH2 0x100 EXP DUP2 SLOAD DUP2 PUSH1 0xFF MUL NOT AND SWAP1 DUP4 PUSH1 0x4 DUP2 GT ISZERO PUSH2 0x13E9 JUMPI PUSH2 0x13E8 PUSH2 0x27F8 JUMP JUMPDEST JUMPDEST MUL OR SWAP1 SSTORE POP JUMPDEST PUSH0 DUP1 DUP3 DUP2 SLOAD DUP2 LT PUSH2 0x1403 JUMPI PUSH2 0x1402 PUSH2 0x294B JUMP JUMPDEST JUMPDEST SWAP1 PUSH0 MSTORE PUSH1 0x20 PUSH0 KECCAK256 SWAP1 PUSH1 0x5 MUL ADD PUSH1 0x4 ADD PUSH0 PUSH2 0x100 EXP DUP2 SLOAD DUP2 PUSH1 0xFF MUL NOT AND SWAP1 DUP4 ISZERO ISZERO MUL OR SWAP1 SSTORE POP POP POP JUMP JUMPDEST PUSH1 0x3 PUSH0 SWAP1 SLOAD SWAP1 PUSH2 0x100 EXP SWAP1 DIV PUSH20 0xFFFFFFFFFFFFFFFFFFFFFFFFFFFFFFFFFFFFFFFF AND PUSH20 0xFFFFFFFFFFFFFFFFFFFFFFFFFFFFFFFFFFFFFFFF AND CALLER PUSH20 0xFFFFFFFFFFFFFFFFFFFFFFFFFFFFFFFFFFFFFFFF AND EQ PUSH2 0x14BB JUMPI PUSH1 0x40 MLOAD PUSH32 0x8C379A000000000000000000000000000000000000000000000000000000000 DUP2 MSTORE PUSH1 0x4 ADD PUSH2 0x14B2 SWAP1 PUSH2 0x292D JUMP JUMPDEST PUSH1 0x40 MLOAD DUP1 SWAP2 SUB SWAP1 REVERT JUMPDEST PUSH0 PUSH20 0xFFFFFFFFFFFFFFFFFFFFFFFFFFFFFFFFFFFFFFFF AND DUP4 PUSH20 0xFFFFFFFFFFFFFFFFFFFFFFFFFFFFFFFFFFFFFFFF AND SUB PUSH2 0x1529 JUMPI PUSH1 0x40 MLOAD PUSH32 0x8C379A000000000000000000000000000000000000000000000000000000000 DUP2 MSTORE PUSH1 0x4 ADD PUSH2 0x1520 SWAP1 PUSH2 0x2FC7 JUMP JUMPDEST PUSH1 0x40 MLOAD DUP1 SWAP2 SUB SWAP1 REVERT JUMPDEST PUSH0 DUP2 GT PUSH2 0x156B JUMPI PUSH1 0x40 MLOAD PUSH32 0x8C379A000000000000000000000000000000000000000000000000000000000 DUP2 MSTORE PUSH1 0x4 ADD PUSH2 0x1562 SWAP1 PUSH2 0x302F JUMP JUMPDEST PUSH1 0x40 MLOAD DUP1 SWAP2 SUB SWAP1 REVERT JUMPDEST PUSH0 PUSH1 0x40 MLOAD DUP1 PUSH1 0xE0 ADD PUSH1 0x40 MSTORE DUP1 PUSH0 DUP1 SLOAD SWAP1 POP DUP2 MSTORE PUSH1 0x20 ADD DUP6 PUSH20 0xFFFFFFFFFFFFFFFFFFFFFFFFFFFFFFFFFFFFFFFF AND DUP2 MSTORE PUSH1 0x20 ADD DUP5 DUP2 MSTORE PUSH1 0x20 ADD DUP4 DUP2 MSTORE PUSH1 0x20 ADD PUSH0 ISZERO ISZERO DUP2 MSTORE PUSH1 0x20 ADD PUSH0 ISZERO ISZERO DUP2 MSTORE PUSH1 0x20 ADD PUSH0 ISZERO ISZERO DUP2 MSTORE POP SWAP1 DUP1 PUSH1 0x1 DUP2 SLOAD ADD DUP1 DUP3 SSTORE DUP1 SWAP2 POP POP PUSH1 0x1 SWAP1 SUB SWAP1 PUSH0 MSTORE PUSH1 0x20 PUSH0 KECCAK256 SWAP1 PUSH1 0x5 MUL ADD PUSH0 SWAP1 SWAP2 SWAP1 SWAP2 SWAP1 SWAP2 POP PUSH0 DUP3 ADD MLOAD DUP2 PUSH0 ADD SSTORE PUSH1 0x20 DUP3 ADD MLOAD DUP2 PUSH1 0x1 ADD PUSH0 PUSH2 0x100 EXP DUP2 SLOAD DUP2 PUSH20 0xFFFFFFFFFFFFFFFFFFFFFFFFFFFFFFFFFFFFFFFF MUL NOT AND SWAP1 DUP4 PUSH20 0xFFFFFFFFFFFFFFFFFFFFFFFFFFFFFFFFFFFFFFFF AND MUL OR SWAP1 SSTORE POP PUSH1 0x40 DUP3 ADD MLOAD DUP2 PUSH1 0x2 ADD SWAP1 DUP2 PUSH2 0x1648 SWAP2 SWAP1 PUSH2 0x31EA JUMP JUMPDEST POP PUSH1 0x60 DUP3 ADD MLOAD DUP2 PUSH1 0x3 ADD SSTORE PUSH1 0x80 DUP3 ADD MLOAD DUP2 PUSH1 0x4 ADD PUSH0 PUSH2 0x100 EXP DUP2 SLOAD DUP2 PUSH1 0xFF MUL NOT AND SWAP1 DUP4 ISZERO ISZERO MUL OR SWAP1 SSTORE POP PUSH1 0xA0 DUP3 ADD MLOAD DUP2 PUSH1 0x4 ADD PUSH1 0x1 PUSH2 0x100 EXP DUP2 SLOAD DUP2 PUSH1 0xFF MUL NOT AND SWAP1 DUP4 ISZERO ISZERO MUL OR SWAP1 SSTORE POP PUSH1 0xC0 DUP3 ADD MLOAD DUP2 PUSH1 0x4 ADD PUSH1 0x2 PUSH2 0x100 EXP DUP2 SLOAD DUP2 PUSH1 0xFF MUL NOT AND SWAP1 DUP4 ISZERO ISZERO MUL OR SWAP1 SSTORE POP POP POP POP POP POP JUMP JUMPDEST PUSH1 0x2 DUP2 DUP2 SLOAD DUP2 LT PUSH2 0x16C8 JUMPI PUSH0 DUP1 REVERT JUMPDEST SWAP1 PUSH0 MSTORE PUSH1 0x20 PUSH0 KECCAK256 SWAP1 PUSH1 0x6 MUL ADD PUSH0 SWAP2 POP SWAP1 POP DUP1 PUSH0 ADD SLOAD SWAP1 DUP1 PUSH1 0x1 ADD PUSH0 SWAP1 SLOAD SWAP1 PUSH2 0x100 EXP SWAP1 DIV PUSH20 0xFFFFFFFFFFFFFFFFFFFFFFFFFFFFFFFFFFFFFFFF AND SWAP1 DUP1 PUSH1 0x2 ADD PUSH0 SWAP1 SLOAD SWAP1 PUSH2 0x100 EXP SWAP1 DIV PUSH20 0xFFFFFFFFFFFFFFFFFFFFFFFFFFFFFFFFFFFFFFFF AND SWAP1 DUP1 PUSH1 0x3 ADD SLOAD SWAP1 POP DUP5 JUMP JUMPDEST PUSH0 PUSH1 0x1 DUP3 DUP2 SLOAD DUP2 LT PUSH2 0x1747 JUMPI PUSH2 0x1746 PUSH2 0x294B JUMP JUMPDEST JUMPDEST SWAP1 PUSH0 MSTORE PUSH1 0x20 PUSH0 KECCAK256 SWAP1 PUSH1 0x6 MUL ADD PUSH1 0x1 ADD SLOAD SWAP1 POP PUSH0 ISZERO ISZERO PUSH0 DUP3 DUP2 SLOAD DUP2 LT PUSH2 0x176F JUMPI PUSH2 0x176E PUSH2 0x294B JUMP JUMPDEST JUMPDEST SWAP1 PUSH0 MSTORE PUSH1 0x20 PUSH0 KECCAK256 SWAP1 PUSH1 0x5 MUL ADD PUSH1 0x4 ADD PUSH1 0x2 SWAP1 SLOAD SWAP1 PUSH2 0x100 EXP SWAP1 DIV PUSH1 0xFF AND ISZERO ISZERO EQ PUSH2 0x17CE JUMPI PUSH1 0x40 MLOAD PUSH32 0x8C379A000000000000000000000000000000000000000000000000000000000 DUP2 MSTORE PUSH1 0x4 ADD PUSH2 0x17C5 SWAP1 PUSH2 0x3303 JUMP JUMPDEST PUSH1 0x40 MLOAD DUP1 SWAP2 SUB SWAP1 REVERT JUMPDEST PUSH1 0x1 DUP1 SLOAD SWAP1 POP DUP3 LT PUSH2 0x17DE JUMPI PUSH0 DUP1 REVERT JUMPDEST PUSH0 PUSH1 0x4 DUP2 GT ISZERO PUSH2 0x17F1 JUMPI PUSH2 0x17F0 PUSH2 0x27F8 JUMP JUMPDEST JUMPDEST PUSH1 0x1 DUP4 DUP2 SLOAD DUP2 LT PUSH2 0x1805 JUMPI PUSH2 0x1804 PUSH2 0x294B JUMP JUMPDEST JUMPDEST SWAP1 PUSH0 MSTORE PUSH1 0x20 PUSH0 KECCAK256 SWAP1 PUSH1 0x6 MUL ADD PUSH1 0x5 ADD PUSH0 SWAP1 SLOAD SWAP1 PUSH2 0x100 EXP SWAP1 DIV PUSH1 0xFF AND PUSH1 0x4 DUP2 GT ISZERO PUSH2 0x1833 JUMPI PUSH2 0x1832 PUSH2 0x27F8 JUMP JUMPDEST JUMPDEST EQ PUSH2 0x1873 JUMPI PUSH1 0x40 MLOAD PUSH32 0x8C379A000000000000000000000000000000000000000000000000000000000 DUP2 MSTORE PUSH1 0x4 ADD PUSH2 0x186A SWAP1 PUSH2 0x2EF7 JUMP JUMPDEST PUSH1 0x40 MLOAD DUP1 SWAP2 SUB SWAP1 REVERT JUMPDEST CALLER PUSH20 0xFFFFFFFFFFFFFFFFFFFFFFFFFFFFFFFFFFFFFFFF AND PUSH1 0x1 DUP4 DUP2 SLOAD DUP2 LT PUSH2 0x189E JUMPI PUSH2 0x189D PUSH2 0x294B JUMP JUMPDEST JUMPDEST SWAP1 PUSH0 MSTORE PUSH1 0x20 PUSH0 KECCAK256 SWAP1 PUSH1 0x6 MUL ADD PUSH1 0x3 ADD PUSH0 SWAP1 SLOAD SWAP1 PUSH2 0x100 EXP SWAP1 DIV PUSH20 0xFFFFFFFFFFFFFFFFFFFFFFFFFFFFFFFFFFFFFFFF AND PUSH20 0xFFFFFFFFFFFFFFFFFFFFFFFFFFFFFFFFFFFFFFFF AND EQ PUSH2 0x1923 JUMPI PUSH1 0x40 MLOAD PUSH32 0x8C379A000000000000000000000000000000000000000000000000000000000 DUP2 MSTORE PUSH1 0x4 ADD PUSH2 0x191A SWAP1 PUSH2 0x336B JUMP JUMPDEST PUSH1 0x40 MLOAD DUP1 SWAP2 SUB SWAP1 REVERT JUMPDEST TIMESTAMP PUSH1 0x1 DUP4 DUP2 SLOAD DUP2 LT PUSH2 0x1938 JUMPI PUSH2 0x1937 PUSH2 0x294B JUMP JUMPDEST JUMPDEST SWAP1 PUSH0 MSTORE PUSH1 0x20 PUSH0 KECCAK256 SWAP1 PUSH1 0x6 MUL ADD PUSH1 0x4 ADD SLOAD GT ISZERO PUSH2 0x19FE JUMPI PUSH1 0x2 PUSH1 0x1 DUP4 DUP2 SLOAD DUP2 LT PUSH2 0x1964 JUMPI PUSH2 0x1963 PUSH2 0x294B JUMP JUMPDEST JUMPDEST SWAP1 PUSH0 MSTORE PUSH1 0x20 PUSH0 KECCAK256 SWAP1 PUSH1 0x6 MUL ADD PUSH1 0x5 ADD PUSH0 PUSH2 0x100 EXP DUP2 SLOAD DUP2 PUSH1 0xFF MUL NOT AND SWAP1 DUP4 PUSH1 0x4 DUP2 GT ISZERO PUSH2 0x1994 JUMPI PUSH2 0x1993 PUSH2 0x27F8 JUMP JUMPDEST JUMPDEST MUL OR SWAP1 SSTORE POP CALLER PUSH0 DUP3 DUP2 SLOAD DUP2 LT PUSH2 0x19AD JUMPI PUSH2 0x19AC PUSH2 0x294B JUMP JUMPDEST JUMPDEST SWAP1 PUSH0 MSTORE PUSH1 0x20 PUSH0 KECCAK256 SWAP1 PUSH1 0x5 MUL ADD PUSH1 0x1 ADD PUSH0 PUSH2 0x100 EXP DUP2 SLOAD DUP2 PUSH20 0xFFFFFFFFFFFFFFFFFFFFFFFFFFFFFFFFFFFFFFFF MUL NOT AND SWAP1 DUP4 PUSH20 0xFFFFFFFFFFFFFFFFFFFFFFFFFFFFFFFFFFFFFFFF AND MUL OR SWAP1 SSTORE POP PUSH2 0x1A4A JUMP JUMPDEST PUSH1 0x3 PUSH1 0x1 DUP4 DUP2 SLOAD DUP2 LT PUSH2 0x1A14 JUMPI PUSH2 0x1A13 PUSH2 0x294B JUMP JUMPDEST JUMPDEST SWAP1 PUSH0 MSTORE PUSH1 0x20 PUSH0 KECCAK256 SWAP1 PUSH1 0x6 MUL ADD PUSH1 0x5 ADD PUSH0 PUSH2 0x100 EXP DUP2 SLOAD DUP2 PUSH1 0xFF MUL NOT AND SWAP1 DUP4 PUSH1 0x4 DUP2 GT ISZERO PUSH2 0x1A44 JUMPI PUSH2 0x1A43 PUSH2 0x27F8 JUMP JUMPDEST JUMPDEST MUL OR SWAP1 SSTORE POP JUMPDEST PUSH0 DUP1 DUP3 DUP2 SLOAD DUP2 LT PUSH2 0x1A5E JUMPI PUSH2 0x1A5D PUSH2 0x294B JUMP JUMPDEST JUMPDEST SWAP1 PUSH0 MSTORE PUSH1 0x20 PUSH0 KECCAK256 SWAP1 PUSH1 0x5 MUL ADD PUSH1 0x4 ADD PUSH0 PUSH2 0x100 EXP DUP2 SLOAD DUP2 PUSH1 0xFF MUL NOT AND SWAP1 DUP4 ISZERO ISZERO MUL OR SWAP1 SSTORE POP POP POP JUMP JUMPDEST PUSH1 0x1 DUP2 DUP2 SLOAD DUP2 LT PUSH2 0x1A96 JUMPI PUSH0 DUP1 REVERT JUMPDEST SWAP1 PUSH0 MSTORE PUSH1 0x20 PUSH0 KECCAK256 SWAP1 PUSH1 0x6 MUL ADD PUSH0 SWAP2 POP SWAP1 POP DUP1 PUSH0 ADD SLOAD SWAP1 DUP1 PUSH1 0x1 ADD SLOAD SWAP1 DUP1 PUSH1 0x2 ADD PUSH0 SWAP1 SLOAD SWAP1 PUSH2 0x100 EXP SWAP1 DIV PUSH20 0xFFFFFFFFFFFFFFFFFFFFFFFFFFFFFFFFFFFFFFFF AND SWAP1 DUP1 PUSH1 0x3 ADD PUSH0 SWAP1 SLOAD SWAP1 PUSH2 0x100 EXP SWAP1 DIV PUSH20 0xFFFFFFFFFFFFFFFFFFFFFFFFFFFFFFFFFFFFFFFF AND SWAP1 DUP1 PUSH1 0x4 ADD SLOAD SWAP1 DUP1 PUSH1 0x5 ADD PUSH0 SWAP1 SLOAD SWAP1 PUSH2 0x100 EXP SWAP1 DIV PUSH1 0xFF AND SWAP1 POP DUP7 JUMP JUMPDEST PUSH0 PUSH1 0x1 DUP3 DUP2 SLOAD DUP2 LT PUSH2 0x1B2D JUMPI PUSH2 0x1B2C PUSH2 0x294B JUMP JUMPDEST JUMPDEST SWAP1 PUSH0 MSTORE PUSH1 0x20 PUSH0 KECCAK256 SWAP1 PUSH1 0x6 MUL ADD PUSH1 0x1 ADD SLOAD SWAP1 POP PUSH1 0x1 DUP1 SLOAD SWAP1 POP DUP3 LT PUSH2 0x1B4F JUMPI PUSH0 DUP1 REVERT JUMPDEST PUSH0 PUSH1 0x4 DUP2 GT ISZERO PUSH2 0x1B62 JUMPI PUSH2 0x1B61 PUSH2 0x27F8 JUMP JUMPDEST JUMPDEST PUSH1 0x1 DUP4 DUP2 SLOAD DUP2 LT PUSH2 0x1B76 JUMPI PUSH2 0x1B75 PUSH2 0x294B JUMP JUMPDEST JUMPDEST SWAP1 PUSH0 MSTORE PUSH1 0x20 PUSH0 KECCAK256 SWAP1 PUSH1 0x6 MUL ADD PUSH1 0x5 ADD PUSH0 SWAP1 SLOAD SWAP1 PUSH2 0x100 EXP SWAP1 DIV PUSH1 0xFF AND PUSH1 0x4 DUP2 GT ISZERO PUSH2 0x1BA4 JUMPI PUSH2 0x1BA3 PUSH2 0x27F8 JUMP JUMPDEST JUMPDEST EQ PUSH2 0x1BE4 JUMPI PUSH1 0x40 MLOAD PUSH32 0x8C379A000000000000000000000000000000000000000000000000000000000 DUP2 MSTORE PUSH1 0x4 ADD PUSH2 0x1BDB SWAP1 PUSH2 0x2EF7 JUMP JUMPDEST PUSH1 0x40 MLOAD DUP1 SWAP2 SUB SWAP1 REVERT JUMPDEST CALLER PUSH20 0xFFFFFFFFFFFFFFFFFFFFFFFFFFFFFFFFFFFFFFFF AND PUSH1 0x1 DUP4 DUP2 SLOAD DUP2 LT PUSH2 0x1C0F JUMPI PUSH2 0x1C0E PUSH2 0x294B JUMP JUMPDEST JUMPDEST SWAP1 PUSH0 MSTORE PUSH1 0x20 PUSH0 KECCAK256 SWAP1 PUSH1 0x6 MUL ADD PUSH1 0x3 ADD PUSH0 SWAP1 SLOAD SWAP1 PUSH2 0x100 EXP SWAP1 DIV PUSH20 0xFFFFFFFFFFFFFFFFFFFFFFFFFFFFFFFFFFFFFFFF AND PUSH20 0xFFFFFFFFFFFFFFFFFFFFFFFFFFFFFFFFFFFFFFFF AND EQ PUSH2 0x1C94 JUMPI PUSH1 0x40 MLOAD PUSH32 0x8C379A000000000000000000000000000000000000000000000000000000000 DUP2 MSTORE PUSH1 0x4 ADD PUSH2 0x1C8B SWAP1 PUSH2 0x336B JUMP JUMPDEST PUSH1 0x40 MLOAD DUP1 SWAP2 SUB SWAP1 REVERT JUMPDEST TIMESTAMP PUSH1 0x1 DUP4 DUP2 SLOAD DUP2 LT PUSH2 0x1CA9 JUMPI PUSH2 0x1CA8 PUSH2 0x294B JUMP JUMPDEST JUMPDEST SWAP1 PUSH0 MSTORE PUSH1 0x20 PUSH0 KECCAK256 SWAP1 PUSH1 0x6 MUL ADD PUSH1 0x4 ADD SLOAD GT ISZERO PUSH2 0x1D0E JUMPI PUSH1 0x1 DUP1 DUP4 DUP2 SLOAD DUP2 LT PUSH2 0x1CD4 JUMPI PUSH2 0x1CD3 PUSH2 0x294B JUMP JUMPDEST JUMPDEST SWAP1 PUSH0 MSTORE PUSH1 0x20 PUSH0 KECCAK256 SWAP1 PUSH1 0x6 MUL ADD PUSH1 0x5 ADD PUSH0 PUSH2 0x100 EXP DUP2 SLOAD DUP2 PUSH1 0xFF MUL NOT AND SWAP1 DUP4 PUSH1 0x4 DUP2 GT ISZERO PUSH2 0x1D04 JUMPI PUSH2 0x1D03 PUSH2 0x27F8 JUMP JUMPDEST JUMPDEST MUL OR SWAP1 SSTORE POP PUSH2 0x1D5A JUMP JUMPDEST PUSH1 0x3 PUSH1 0x1 DUP4 DUP2 SLOAD DUP2 LT PUSH2 0x1D24 JUMPI PUSH2 0x1D23 PUSH2 0x294B JUMP JUMPDEST JUMPDEST SWAP1 PUSH0 MSTORE PUSH1 0x20 PUSH0 KECCAK256 SWAP1 PUSH1 0x6 MUL ADD PUSH1 0x5 ADD PUSH0 PUSH2 0x100 EXP DUP2 SLOAD DUP2 PUSH1 0xFF MUL NOT AND SWAP1 DUP4 PUSH1 0x4 DUP2 GT ISZERO PUSH2 0x1D54 JUMPI PUSH2 0x1D53 PUSH2 0x27F8 JUMP JUMPDEST JUMPDEST MUL OR SWAP1 SSTORE POP JUMPDEST PUSH0 DUP1 DUP3 DUP2 SLOAD DUP2 LT PUSH2 0x1D6E JUMPI PUSH2 0x1D6D PUSH2 0x294B JUMP JUMPDEST JUMPDEST SWAP1 PUSH0 MSTORE PUSH1 0x20 PUSH0 KECCAK256 SWAP1 PUSH1 0x5 MUL ADD PUSH1 0x4 ADD PUSH0 PUSH2 0x100 EXP DUP2 SLOAD DUP2 PUSH1 0xFF MUL NOT AND SWAP1 DUP4 ISZERO ISZERO MUL OR SWAP1 SSTORE POP POP POP JUMP JUMPDEST PUSH0 PUSH1 0x2 DUP3 DUP2 SLOAD DUP2 LT PUSH2 0x1DAC JUMPI PUSH2 0x1DAB PUSH2 0x294B JUMP JUMPDEST JUMPDEST SWAP1 PUSH0 MSTORE PUSH1 0x20 PUSH0 KECCAK256 SWAP1 PUSH1 0x6 MUL ADD PUSH0 ADD SLOAD SWAP1 POP PUSH0 ISZERO ISZERO PUSH0 DUP3 DUP2 SLOAD DUP2 LT PUSH2 0x1DD3 JUMPI PUSH2 0x1DD2 PUSH2 0x294B JUMP JUMPDEST JUMPDEST SWAP1 PUSH0 MSTORE PUSH1 0x20 PUSH0 KECCAK256 SWAP1 PUSH1 0x5 MUL ADD PUSH1 0x4 ADD PUSH1 0x2 SWAP1 SLOAD SWAP1 PUSH2 0x100 EXP SWAP1 DIV PUSH1 0xFF AND ISZERO ISZERO EQ PUSH2 0x1E32 JUMPI PUSH1 0x40 MLOAD PUSH32 0x8C379A000000000000000000000000000000000000000000000000000000000 DUP2 MSTORE PUSH1 0x4 ADD PUSH2 0x1E29 SWAP1 PUSH2 0x33D3 JUMP JUMPDEST PUSH1 0x40 MLOAD DUP1 SWAP2 SUB SWAP1 REVERT JUMPDEST PUSH1 0x2 DUP1 SLOAD SWAP1 POP DUP3 LT PUSH2 0x1E79 JUMPI PUSH1 0x40 MLOAD PUSH32 0x8C379A000000000000000000000000000000000000000000000000000000000 DUP2 MSTORE PUSH1 0x4 ADD PUSH2 0x1E70 SWAP1 PUSH2 0x2A2A JUMP JUMPDEST PUSH1 0x40 MLOAD DUP1 SWAP2 SUB SWAP1 REVERT JUMPDEST CALLER PUSH20 0xFFFFFFFFFFFFFFFFFFFFFFFFFFFFFFFFFFFFFFFF AND PUSH1 0x2 DUP4 DUP2 SLOAD DUP2 LT PUSH2 0x1EA4 JUMPI PUSH2 0x1EA3 PUSH2 0x294B JUMP JUMPDEST JUMPDEST SWAP1 PUSH0 MSTORE PUSH1 0x20 PUSH0 KECCAK256 SWAP1 PUSH1 0x6 MUL ADD PUSH1 0x1 ADD PUSH0 SWAP1 SLOAD SWAP1 PUSH2 0x100 EXP SWAP1 DIV PUSH20 0xFFFFFFFFFFFFFFFFFFFFFFFFFFFFFFFFFFFFFFFF AND PUSH20 0xFFFFFFFFFFFFFFFFFFFFFFFFFFFFFFFFFFFFFFFF AND SUB PUSH2 0x1F29 JUMPI PUSH1 0x40 MLOAD PUSH32 0x8C379A000000000000000000000000000000000000000000000000000000000 DUP2 MSTORE PUSH1 0x4 ADD PUSH2 0x1F20 SWAP1 PUSH2 0x343B JUMP JUMPDEST PUSH1 0x40 MLOAD DUP1 SWAP2 SUB SWAP1 REVERT JUMPDEST PUSH0 PUSH20 0xFFFFFFFFFFFFFFFFFFFFFFFFFFFFFFFFFFFFFFFF AND PUSH1 0x2 DUP4 DUP2 SLOAD DUP2 LT PUSH2 0x1F54 JUMPI PUSH2 0x1F53 PUSH2 0x294B JUMP JUMPDEST JUMPDEST SWAP1 PUSH0 MSTORE PUSH1 0x20 PUSH0 KECCAK256 SWAP1 PUSH1 0x6 MUL ADD PUSH1 0x2 ADD PUSH0 SWAP1 SLOAD SWAP1 PUSH2 0x100 EXP SWAP1 DIV PUSH20 0xFFFFFFFFFFFFFFFFFFFFFFFFFFFFFFFFFFFFFFFF AND PUSH20 0xFFFFFFFFFFFFFFFFFFFFFFFFFFFFFFFFFFFFFFFF AND EQ PUSH2 0x1FD9 JUMPI PUSH1 0x40 MLOAD PUSH32 0x8C379A000000000000000000000000000000000000000000000000000000000 DUP2 MSTORE PUSH1 0x4 ADD PUSH2 0x1FD0 SWAP1 PUSH2 0x2A92 JUMP JUMPDEST PUSH1 0x40 MLOAD DUP1 SWAP2 SUB SWAP1 REVERT JUMPDEST CALLVALUE PUSH1 0x2 DUP4 DUP2 SLOAD DUP2 LT PUSH2 0x1FEE JUMPI PUSH2 0x1FED PUSH2 0x294B JUMP JUMPDEST JUMPDEST SWAP1 PUSH0 MSTORE PUSH1 0x20 PUSH0 KECCAK256 SWAP1 PUSH1 0x6 MUL ADD PUSH1 0x3 ADD SLOAD GT ISZERO PUSH2 0x203F JUMPI PUSH1 0x40 MLOAD PUSH32 0x8C379A000000000000000000000000000000000000000000000000000000000 DUP2 MSTORE PUSH1 0x4 ADD PUSH2 0x2036 SWAP1 PUSH2 0x34A3 JUMP JUMPDEST PUSH1 0x40 MLOAD DUP1 SWAP2 SUB SWAP1 REVERT JUMPDEST PUSH0 DUP1 JUMPDEST PUSH1 0x2 DUP5 DUP2 SLOAD DUP2 LT PUSH2 0x2056 JUMPI PUSH2 0x2055 PUSH2 0x294B JUMP JUMPDEST JUMPDEST SWAP1 PUSH0 MSTORE PUSH1 0x20 PUSH0 KECCAK256 SWAP1 PUSH1 0x6 MUL ADD PUSH1 0x4 ADD DUP1 SLOAD SWAP1 POP DUP2 LT ISZERO PUSH2 0x2115 JUMPI CALLER PUSH20 0xFFFFFFFFFFFFFFFFFFFFFFFFFFFFFFFFFFFFFFFF AND PUSH1 0x2 DUP6 DUP2 SLOAD DUP2 LT PUSH2 0x209B JUMPI PUSH2 0x209A PUSH2 0x294B JUMP JUMPDEST JUMPDEST SWAP1 PUSH0 MSTORE PUSH1 0x20 PUSH0 KECCAK256 SWAP1 PUSH1 0x6 MUL ADD PUSH1 0x4 ADD DUP3 DUP2 SLOAD DUP2 LT PUSH2 0x20BC JUMPI PUSH2 0x20BB PUSH2 0x294B JUMP JUMPDEST JUMPDEST SWAP1 PUSH0 MSTORE PUSH1 0x20 PUSH0 KECCAK256 ADD PUSH0 SWAP1 SLOAD SWAP1 PUSH2 0x100 EXP SWAP1 DIV PUSH20 0xFFFFFFFFFFFFFFFFFFFFFFFFFFFFFFFFFFFFFFFF AND PUSH20 0xFFFFFFFFFFFFFFFFFFFFFFFFFFFFFFFFFFFFFFFF AND SUB PUSH2 0x2108 JUMPI PUSH1 0x1 SWAP2 POP PUSH2 0x2115 JUMP JUMPDEST DUP1 DUP1 PUSH1 0x1 ADD SWAP2 POP POP PUSH2 0x2042 JUMP JUMPDEST POP PUSH0 ISZERO ISZERO DUP2 ISZERO ISZERO EQ PUSH2 0x215C JUMPI PUSH1 0x40 MLOAD PUSH32 0x8C379A000000000000000000000000000000000000000000000000000000000 DUP2 MSTORE PUSH1 0x4 ADD PUSH2 0x2153 SWAP1 PUSH2 0x350B JUMP JUMPDEST PUSH1 0x40 MLOAD DUP1 SWAP2 SUB SWAP1 REVERT JUMPDEST PUSH1 0x2 DUP4 DUP2 SLOAD DUP2 LT PUSH2 0x2170 JUMPI PUSH2 0x216F PUSH2 0x294B JUMP JUMPDEST JUMPDEST SWAP1 PUSH0 MSTORE PUSH1 0x20 PUSH0 KECCAK256 SWAP1 PUSH1 0x6 MUL ADD PUSH1 0x4 ADD CALLER SWAP1 DUP1 PUSH1 0x1 DUP2 SLOAD ADD DUP1 DUP3 SSTORE DUP1 SWAP2 POP POP PUSH1 0x1 SWAP1 SUB SWAP1 PUSH0 MSTORE PUSH1 0x20 PUSH0 KECCAK256 ADD PUSH0 SWAP1 SWAP2 SWAP1 SWAP2 SWAP1 SWAP2 PUSH2 0x100 EXP DUP2 SLOAD DUP2 PUSH20 0xFFFFFFFFFFFFFFFFFFFFFFFFFFFFFFFFFFFFFFFF MUL NOT AND SWAP1 DUP4 PUSH20 0xFFFFFFFFFFFFFFFFFFFFFFFFFFFFFFFFFFFFFFFF AND MUL OR SWAP1 SSTORE POP PUSH1 0x2 DUP4 DUP2 SLOAD DUP2 LT PUSH2 0x21F1 JUMPI PUSH2 0x21F0 PUSH2 0x294B JUMP JUMPDEST JUMPDEST SWAP1 PUSH0 MSTORE PUSH1 0x20 PUSH0 KECCAK256 SWAP1 PUSH1 0x6 MUL ADD PUSH1 0x5 ADD CALLVALUE SWAP1 DUP1 PUSH1 0x1 DUP2 SLOAD ADD DUP1 DUP3 SSTORE DUP1 SWAP2 POP POP PUSH1 0x1 SWAP1 SUB SWAP1 PUSH0 MSTORE PUSH1 0x20 PUSH0 KECCAK256 ADD PUSH0 SWAP1 SWAP2 SWAP1 SWAP2 SWAP1 SWAP2 POP SSTORE POP POP POP JUMP JUMPDEST PUSH1 0x3 PUSH0 SWAP1 SLOAD SWAP1 PUSH2 0x100 EXP SWAP1 DIV PUSH20 0xFFFFFFFFFFFFFFFFFFFFFFFFFFFFFFFFFFFFFFFF AND DUP2 JUMP JUMPDEST DUP3 DUP1 SLOAD DUP3 DUP3 SSTORE SWAP1 PUSH0 MSTORE PUSH1 0x20 PUSH0 KECCAK256 SWAP1 DUP2 ADD SWAP3 DUP3 ISZERO PUSH2 0x22C4 JUMPI SWAP2 PUSH1 0x20 MUL DUP3 ADD JUMPDEST DUP3 DUP2 GT ISZERO PUSH2 0x22C3 JUMPI DUP3 MLOAD DUP3 PUSH0 PUSH2 0x100 EXP DUP2 SLOAD DUP2 PUSH20 0xFFFFFFFFFFFFFFFFFFFFFFFFFFFFFFFFFFFFFFFF MUL NOT AND SWAP1 DUP4 PUSH20 0xFFFFFFFFFFFFFFFFFFFFFFFFFFFFFFFFFFFFFFFF AND MUL OR SWAP1 SSTORE POP SWAP2 PUSH1 0x20 ADD SWAP2 SWAP1 PUSH1 0x1 ADD SWAP1 PUSH2 0x226C JUMP JUMPDEST JUMPDEST POP SWAP1 POP PUSH2 0x22D1 SWAP2 SWAP1 PUSH2 0x2320 JUMP JUMPDEST POP SWAP1 JUMP JUMPDEST DUP3 DUP1 SLOAD DUP3 DUP3 SSTORE SWAP1 PUSH0 MSTORE PUSH1 0x20 PUSH0 KECCAK256 SWAP1 DUP2 ADD SWAP3 DUP3 ISZERO PUSH2 0x230F JUMPI SWAP2 PUSH1 0x20 MUL DUP3 ADD JUMPDEST DUP3 DUP2 GT ISZERO PUSH2 0x230E JUMPI DUP3 MLOAD DUP3 SSTORE SWAP2 PUSH1 0x20 ADD SWAP2 SWAP1 PUSH1 0x1 ADD SWAP1 PUSH2 0x22F3 JUMP JUMPDEST JUMPDEST POP SWAP1 POP PUSH2 0x231C SWAP2 SWAP1 PUSH2 0x2320 JUMP JUMPDEST POP SWAP1 JUMP JUMPDEST JUMPDEST DUP1 DUP3 GT ISZERO PUSH2 0x2337 JUMPI PUSH0 DUP2 PUSH0 SWAP1 SSTORE POP PUSH1 0x1 ADD PUSH2 0x2321 JUMP JUMPDEST POP SWAP1 JUMP JUMPDEST PUSH0 PUSH1 0x40 MLOAD SWAP1 POP SWAP1 JUMP JUMPDEST PUSH0 DUP1 REVERT JUMPDEST PUSH0 DUP1 REVERT JUMPDEST PUSH0 DUP2 SWAP1 POP SWAP2 SWAP1 POP JUMP JUMPDEST PUSH2 0x235E DUP2 PUSH2 0x234C JUMP JUMPDEST DUP2 EQ PUSH2 0x2368 JUMPI PUSH0 DUP1 REVERT JUMPDEST POP JUMP JUMPDEST PUSH0 DUP2 CALLDATALOAD SWAP1 POP PUSH2 0x2379 DUP2 PUSH2 0x2355 JUMP JUMPDEST SWAP3 SWAP2 POP POP JUMP JUMPDEST PUSH0 DUP2 ISZERO ISZERO SWAP1 POP SWAP2 SWAP1 POP JUMP JUMPDEST PUSH2 0x2393 DUP2 PUSH2 0x237F JUMP JUMPDEST DUP2 EQ PUSH2 0x239D JUMPI PUSH0 DUP1 REVERT JUMPDEST POP JUMP JUMPDEST PUSH0 DUP2 CALLDATALOAD SWAP1 POP PUSH2 0x23AE DUP2 PUSH2 0x238A JUMP JUMPDEST SWAP3 SWAP2 POP POP JUMP JUMPDEST PUSH0 DUP1 PUSH1 0x40 DUP4 DUP6 SUB SLT ISZERO PUSH2 0x23CA JUMPI PUSH2 0x23C9 PUSH2 0x2344 JUMP JUMPDEST JUMPDEST PUSH0 PUSH2 0x23D7 DUP6 DUP3 DUP7 ADD PUSH2 0x236B JUMP JUMPDEST SWAP3 POP POP PUSH1 0x20 PUSH2 0x23E8 DUP6 DUP3 DUP7 ADD PUSH2 0x23A0 JUMP JUMPDEST SWAP2 POP POP SWAP3 POP SWAP3 SWAP1 POP JUMP JUMPDEST PUSH2 0x23FB DUP2 PUSH2 0x234C JUMP JUMPDEST DUP3 MSTORE POP POP JUMP JUMPDEST PUSH0 PUSH1 0x20 DUP3 ADD SWAP1 POP PUSH2 0x2414 PUSH0 DUP4 ADD DUP5 PUSH2 0x23F2 JUMP JUMPDEST SWAP3 SWAP2 POP POP JUMP JUMPDEST PUSH0 PUSH1 0x20 DUP3 DUP5 SUB SLT ISZERO PUSH2 0x242F JUMPI PUSH2 0x242E PUSH2 0x2344 JUMP JUMPDEST JUMPDEST PUSH0 PUSH2 0x243C DUP5 DUP3 DUP6 ADD PUSH2 0x236B JUMP JUMPDEST SWAP2 POP POP SWAP3 SWAP2 POP POP JUMP JUMPDEST PUSH0 PUSH20 0xFFFFFFFFFFFFFFFFFFFFFFFFFFFFFFFFFFFFFFFF DUP3 AND SWAP1 POP SWAP2 SWAP1 POP JUMP JUMPDEST PUSH0 PUSH2 0x246E DUP3 PUSH2 0x2445 JUMP JUMPDEST SWAP1 POP SWAP2 SWAP1 POP JUMP JUMPDEST PUSH2 0x247E DUP2 PUSH2 0x2464 JUMP JUMPDEST DUP3 MSTORE POP POP JUMP JUMPDEST PUSH0 DUP2 MLOAD SWAP1 POP SWAP2 SWAP1 POP JUMP JUMPDEST PUSH0 DUP3 DUP3 MSTORE PUSH1 0x20 DUP3 ADD SWAP1 POP SWAP3 SWAP2 POP POP JUMP JUMPDEST DUP3 DUP2 DUP4 MCOPY PUSH0 DUP4 DUP4 ADD MSTORE POP POP POP JUMP JUMPDEST PUSH0 PUSH1 0x1F NOT PUSH1 0x1F DUP4 ADD AND SWAP1 POP SWAP2 SWAP1 POP JUMP JUMPDEST PUSH0 PUSH2 0x24C6 DUP3 PUSH2 0x2484 JUMP JUMPDEST PUSH2 0x24D0 DUP2 DUP6 PUSH2 0x248E JUMP JUMPDEST SWAP4 POP PUSH2 0x24E0 DUP2 DUP6 PUSH1 0x20 DUP7 ADD PUSH2 0x249E JUMP JUMPDEST PUSH2 0x24E9 DUP2 PUSH2 0x24AC JUMP JUMPDEST DUP5 ADD SWAP2 POP POP SWAP3 SWAP2 POP POP JUMP JUMPDEST PUSH2 0x24FD DUP2 PUSH2 0x237F JUMP JUMPDEST DUP3 MSTORE POP POP JUMP JUMPDEST PUSH0 PUSH1 0xE0 DUP3 ADD SWAP1 POP PUSH2 0x2516 PUSH0 DUP4 ADD DUP11 PUSH2 0x23F2 JUMP JUMPDEST PUSH2 0x2523 PUSH1 0x20 DUP4 ADD DUP10 PUSH2 0x2475 JUMP JUMPDEST DUP2 DUP2 SUB PUSH1 0x40 DUP4 ADD MSTORE PUSH2 0x2535 DUP2 DUP9 PUSH2 0x24BC JUMP JUMPDEST SWAP1 POP PUSH2 0x2544 PUSH1 0x60 DUP4 ADD DUP8 PUSH2 0x23F2 JUMP JUMPDEST PUSH2 0x2551 PUSH1 0x80 DUP4 ADD DUP7 PUSH2 0x24F4 JUMP JUMPDEST PUSH2 0x255E PUSH1 0xA0 DUP4 ADD DUP6 PUSH2 0x24F4 JUMP JUMPDEST PUSH2 0x256B PUSH1 0xC0 DUP4 ADD DUP5 PUSH2 0x24F4 JUMP JUMPDEST SWAP9 SWAP8 POP POP POP POP POP POP POP POP JUMP JUMPDEST PUSH2 0x2580 DUP2 PUSH2 0x2464 JUMP JUMPDEST DUP2 EQ PUSH2 0x258A JUMPI PUSH0 DUP1 REVERT JUMPDEST POP JUMP JUMPDEST PUSH0 DUP2 CALLDATALOAD SWAP1 POP PUSH2 0x259B DUP2 PUSH2 0x2577 JUMP JUMPDEST SWAP3 SWAP2 POP POP JUMP JUMPDEST PUSH0 DUP1 PUSH1 0x40 DUP4 DUP6 SUB SLT ISZERO PUSH2 0x25B7 JUMPI PUSH2 0x25B6 PUSH2 0x2344 JUMP JUMPDEST JUMPDEST PUSH0 PUSH2 0x25C4 DUP6 DUP3 DUP7 ADD PUSH2 0x236B JUMP JUMPDEST SWAP3 POP POP PUSH1 0x20 PUSH2 0x25D5 DUP6 DUP3 DUP7 ADD PUSH2 0x258D JUMP JUMPDEST SWAP2 POP POP SWAP3 POP SWAP3 SWAP1 POP JUMP JUMPDEST PUSH0 DUP1 PUSH1 0x40 DUP4 DUP6 SUB SLT ISZERO PUSH2 0x25F5 JUMPI PUSH2 0x25F4 PUSH2 0x2344 JUMP JUMPDEST JUMPDEST PUSH0 PUSH2 0x2602 DUP6 DUP3 DUP7 ADD PUSH2 0x236B JUMP JUMPDEST SWAP3 POP POP PUSH1 0x20 PUSH2 0x2613 DUP6 DUP3 DUP7 ADD PUSH2 0x236B JUMP JUMPDEST SWAP2 POP POP SWAP3 POP SWAP3 SWAP1 POP JUMP JUMPDEST PUSH0 DUP1 REVERT JUMPDEST PUSH0 DUP1 REVERT JUMPDEST PUSH32 0x4E487B7100000000000000000000000000000000000000000000000000000000 PUSH0 MSTORE PUSH1 0x41 PUSH1 0x4 MSTORE PUSH1 0x24 PUSH0 REVERT JUMPDEST PUSH2 0x265B DUP3 PUSH2 0x24AC JUMP JUMPDEST DUP2 ADD DUP2 DUP2 LT PUSH8 0xFFFFFFFFFFFFFFFF DUP3 GT OR ISZERO PUSH2 0x267A JUMPI PUSH2 0x2679 PUSH2 0x2625 JUMP JUMPDEST JUMPDEST DUP1 PUSH1 0x40 MSTORE POP POP POP JUMP JUMPDEST PUSH0 PUSH2 0x268C PUSH2 0x233B JUMP JUMPDEST SWAP1 POP PUSH2 0x2698 DUP3 DUP3 PUSH2 0x2652 JUMP JUMPDEST SWAP2 SWAP1 POP JUMP JUMPDEST PUSH0 PUSH8 0xFFFFFFFFFFFFFFFF DUP3 GT ISZERO PUSH2 0x26B7 JUMPI PUSH2 0x26B6 PUSH2 0x2625 JUMP JUMPDEST JUMPDEST PUSH2 0x26C0 DUP3 PUSH2 0x24AC JUMP JUMPDEST SWAP1 POP PUSH1 0x20 DUP2 ADD SWAP1 POP SWAP2 SWAP1 POP JUMP JUMPDEST DUP3 DUP2 DUP4 CALLDATACOPY PUSH0 DUP4 DUP4 ADD MSTORE POP POP POP JUMP JUMPDEST PUSH0 PUSH2 0x26ED PUSH2 0x26E8 DUP5 PUSH2 0x269D JUMP JUMPDEST PUSH2 0x2683 JUMP JUMPDEST SWAP1 POP DUP3 DUP2 MSTORE PUSH1 0x20 DUP2 ADD DUP5 DUP5 DUP5 ADD GT ISZERO PUSH2 0x2709 JUMPI PUSH2 0x2708 PUSH2 0x2621 JUMP JUMPDEST JUMPDEST PUSH2 0x2714 DUP5 DUP3 DUP6 PUSH2 0x26CD JUMP JUMPDEST POP SWAP4 SWAP3 POP POP POP JUMP JUMPDEST PUSH0 DUP3 PUSH1 0x1F DUP4 ADD SLT PUSH2 0x2730 JUMPI PUSH2 0x272F PUSH2 0x261D JUMP JUMPDEST JUMPDEST DUP2 CALLDATALOAD PUSH2 0x2740 DUP5 DUP3 PUSH1 0x20 DUP7 ADD PUSH2 0x26DB JUMP JUMPDEST SWAP2 POP POP SWAP3 SWAP2 POP POP JUMP JUMPDEST PUSH0 DUP1 PUSH0 PUSH1 0x60 DUP5 DUP7 SUB SLT ISZERO PUSH2 0x2760 JUMPI PUSH2 0x275F PUSH2 0x2344 JUMP JUMPDEST JUMPDEST PUSH0 PUSH2 0x276D DUP7 DUP3 DUP8 ADD PUSH2 0x258D JUMP JUMPDEST SWAP4 POP POP PUSH1 0x20 DUP5 ADD CALLDATALOAD PUSH8 0xFFFFFFFFFFFFFFFF DUP2 GT ISZERO PUSH2 0x278E JUMPI PUSH2 0x278D PUSH2 0x2348 JUMP JUMPDEST JUMPDEST PUSH2 0x279A DUP7 DUP3 DUP8 ADD PUSH2 0x271C JUMP JUMPDEST SWAP3 POP POP PUSH1 0x40 PUSH2 0x27AB DUP7 DUP3 DUP8 ADD PUSH2 0x236B JUMP JUMPDEST SWAP2 POP POP SWAP3 POP SWAP3 POP SWAP3 JUMP JUMPDEST PUSH0 PUSH1 0x80 DUP3 ADD SWAP1 POP PUSH2 0x27C8 PUSH0 DUP4 ADD DUP8 PUSH2 0x23F2 JUMP JUMPDEST PUSH2 0x27D5 PUSH1 0x20 DUP4 ADD DUP7 PUSH2 0x2475 JUMP JUMPDEST PUSH2 0x27E2 PUSH1 0x40 DUP4 ADD DUP6 PUSH2 0x2475 JUMP JUMPDEST PUSH2 0x27EF PUSH1 0x60 DUP4 ADD DUP5 PUSH2 0x23F2 JUMP JUMPDEST SWAP6 SWAP5 POP POP POP POP POP JUMP JUMPDEST PUSH32 0x4E487B7100000000000000000000000000000000000000000000000000000000 PUSH0 MSTORE PUSH1 0x21 PUSH1 0x4 MSTORE PUSH1 0x24 PUSH0 REVERT JUMPDEST PUSH1 0x5 DUP2 LT PUSH2 0x2836 JUMPI PUSH2 0x2835 PUSH2 0x27F8 JUMP JUMPDEST JUMPDEST POP JUMP JUMPDEST PUSH0 DUP2 SWAP1 POP PUSH2 0x2846 DUP3 PUSH2 0x2825 JUMP JUMPDEST SWAP2 SWAP1 POP JUMP JUMPDEST PUSH0 PUSH2 0x2855 DUP3 PUSH2 0x2839 JUMP JUMPDEST SWAP1 POP SWAP2 SWAP1 POP JUMP JUMPDEST PUSH2 0x2865 DUP2 PUSH2 0x284B JUMP JUMPDEST DUP3 MSTORE POP POP JUMP JUMPDEST PUSH0 PUSH1 0xC0 DUP3 ADD SWAP1 POP PUSH2 0x287E PUSH0 DUP4 ADD DUP10 PUSH2 0x23F2 JUMP JUMPDEST PUSH2 0x288B PUSH1 0x20 DUP4 ADD DUP9 PUSH2 0x23F2 JUMP JUMPDEST PUSH2 0x2898 PUSH1 0x40 DUP4 ADD DUP8 PUSH2 0x2475 JUMP JUMPDEST PUSH2 0x28A5 PUSH1 0x60 DUP4 ADD DUP7 PUSH2 0x2475 JUMP JUMPDEST PUSH2 0x28B2 PUSH1 0x80 DUP4 ADD DUP6 PUSH2 0x23F2 JUMP JUMPDEST PUSH2 0x28BF PUSH1 0xA0 DUP4 ADD DUP5 PUSH2 0x285C JUMP JUMPDEST SWAP8 SWAP7 POP POP POP POP POP POP POP JUMP JUMPDEST PUSH0 PUSH1 0x20 DUP3 ADD SWAP1 POP PUSH2 0x28DD PUSH0 DUP4 ADD DUP5 PUSH2 0x2475 JUMP JUMPDEST SWAP3 SWAP2 POP POP JUMP JUMPDEST PUSH32 0x596F7520617265206E6F742061646D696E000000000000000000000000000000 PUSH0 DUP3 ADD MSTORE POP JUMP JUMPDEST PUSH0 PUSH2 0x2917 PUSH1 0x11 DUP4 PUSH2 0x248E JUMP JUMPDEST SWAP2 POP PUSH2 0x2922 DUP3 PUSH2 0x28E3 JUMP JUMPDEST PUSH1 0x20 DUP3 ADD SWAP1 POP SWAP2 SWAP1 POP JUMP JUMPDEST PUSH0 PUSH1 0x20 DUP3 ADD SWAP1 POP DUP2 DUP2 SUB PUSH0 DUP4 ADD MSTORE PUSH2 0x2944 DUP2 PUSH2 0x290B JUMP JUMPDEST SWAP1 POP SWAP2 SWAP1 POP JUMP JUMPDEST PUSH32 0x4E487B7100000000000000000000000000000000000000000000000000000000 PUSH0 MSTORE PUSH1 0x32 PUSH1 0x4 MSTORE PUSH1 0x24 PUSH0 REVERT JUMPDEST PUSH32 0x7468652073616D65206172657374000000000000000000000000000000000000 PUSH0 DUP3 ADD MSTORE POP JUMP JUMPDEST PUSH0 PUSH2 0x29AC PUSH1 0xE DUP4 PUSH2 0x248E JUMP JUMPDEST SWAP2 POP PUSH2 0x29B7 DUP3 PUSH2 0x2978 JUMP JUMPDEST PUSH1 0x20 DUP3 ADD SWAP1 POP SWAP2 SWAP1 POP JUMP JUMPDEST PUSH0 PUSH1 0x20 DUP3 ADD SWAP1 POP DUP2 DUP2 SUB PUSH0 DUP4 ADD MSTORE PUSH2 0x29D9 DUP2 PUSH2 0x29A0 JUMP JUMPDEST SWAP1 POP SWAP2 SWAP1 POP JUMP JUMPDEST PUSH32 0x77726F6E672073616C6549442076616C75650000000000000000000000000000 PUSH0 DUP3 ADD MSTORE POP JUMP JUMPDEST PUSH0 PUSH2 0x2A14 PUSH1 0x12 DUP4 PUSH2 0x248E JUMP JUMPDEST SWAP2 POP PUSH2 0x2A1F DUP3 PUSH2 0x29E0 JUMP JUMPDEST PUSH1 0x20 DUP3 ADD SWAP1 POP SWAP2 SWAP1 POP JUMP JUMPDEST PUSH0 PUSH1 0x20 DUP3 ADD SWAP1 POP DUP2 DUP2 SUB PUSH0 DUP4 ADD MSTORE PUSH2 0x2A41 DUP2 PUSH2 0x2A08 JUMP JUMPDEST SWAP1 POP SWAP2 SWAP1 POP JUMP JUMPDEST PUSH32 0x53616C6520697320636C6F736564000000000000000000000000000000000000 PUSH0 DUP3 ADD MSTORE POP JUMP JUMPDEST PUSH0 PUSH2 0x2A7C PUSH1 0xE DUP4 PUSH2 0x248E JUMP JUMPDEST SWAP2 POP PUSH2 0x2A87 DUP3 PUSH2 0x2A48 JUMP JUMPDEST PUSH1 0x20 DUP3 ADD SWAP1 POP SWAP2 SWAP1 POP JUMP JUMPDEST PUSH0 PUSH1 0x20 DUP3 ADD SWAP1 POP DUP2 DUP2 SUB PUSH0 DUP4 ADD MSTORE PUSH2 0x2AA9 DUP2 PUSH2 0x2A70 JUMP JUMPDEST SWAP1 POP SWAP2 SWAP1 POP JUMP JUMPDEST PUSH32 0x796F752070726963652069732030000000000000000000000000000000000000 PUSH0 DUP3 ADD MSTORE POP JUMP JUMPDEST PUSH0 PUSH2 0x2AE4 PUSH1 0xE DUP4 PUSH2 0x248E JUMP JUMPDEST SWAP2 POP PUSH2 0x2AEF DUP3 PUSH2 0x2AB0 JUMP JUMPDEST PUSH1 0x20 DUP3 ADD SWAP1 POP SWAP2 SWAP1 POP JUMP JUMPDEST PUSH0 PUSH1 0x20 DUP3 ADD SWAP1 POP DUP2 DUP2 SUB PUSH0 DUP4 ADD MSTORE PUSH2 0x2B11 DUP2 PUSH2 0x2AD8 JUMP JUMPDEST SWAP1 POP SWAP2 SWAP1 POP JUMP JUMPDEST PUSH32 0x4E487B7100000000000000000000000000000000000000000000000000000000 PUSH0 MSTORE PUSH1 0x22 PUSH1 0x4 MSTORE PUSH1 0x24 PUSH0 REVERT JUMPDEST PUSH0 PUSH1 0x2 DUP3 DIV SWAP1 POP PUSH1 0x1 DUP3 AND DUP1 PUSH2 0x2B5C JUMPI PUSH1 0x7F DUP3 AND SWAP2 POP JUMPDEST PUSH1 0x20 DUP3 LT DUP2 SUB PUSH2 0x2B6F JUMPI PUSH2 0x2B6E PUSH2 0x2B18 JUMP JUMPDEST JUMPDEST POP SWAP2 SWAP1 POP JUMP JUMPDEST PUSH32 0x4973206E6F7420796F7572206275696C64000000000000000000000000000000 PUSH0 DUP3 ADD MSTORE POP JUMP JUMPDEST PUSH0 PUSH2 0x2BA9 PUSH1 0x11 DUP4 PUSH2 0x248E JUMP JUMPDEST SWAP2 POP PUSH2 0x2BB4 DUP3 PUSH2 0x2B75 JUMP JUMPDEST PUSH1 0x20 DUP3 ADD SWAP1 POP SWAP2 SWAP1 POP JUMP JUMPDEST PUSH0 PUSH1 0x20 DUP3 ADD SWAP1 POP DUP2 DUP2 SUB PUSH0 DUP4 ADD MSTORE PUSH2 0x2BD6 DUP2 PUSH2 0x2B9D JUMP JUMPDEST SWAP1 POP SWAP2 SWAP1 POP JUMP JUMPDEST PUSH32 0x416C726561647920696E2070726573656E740000000000000000000000000000 PUSH0 DUP3 ADD MSTORE POP JUMP JUMPDEST PUSH0 PUSH2 0x2C11 PUSH1 0x12 DUP4 PUSH2 0x248E JUMP JUMPDEST SWAP2 POP PUSH2 0x2C1C DUP3 PUSH2 0x2BDD JUMP JUMPDEST PUSH1 0x20 DUP3 ADD SWAP1 POP SWAP2 SWAP1 POP JUMP JUMPDEST PUSH0 PUSH1 0x20 DUP3 ADD SWAP1 POP DUP2 DUP2 SUB PUSH0 DUP4 ADD MSTORE PUSH2 0x2C3E DUP2 PUSH2 0x2C05 JUMP JUMPDEST SWAP1 POP SWAP2 SWAP1 POP JUMP JUMPDEST PUSH32 0x416C726561647920696E2073616C650000000000000000000000000000000000 PUSH0 DUP3 ADD MSTORE POP JUMP JUMPDEST PUSH0 PUSH2 0x2C79 PUSH1 0xF DUP4 PUSH2 0x248E JUMP JUMPDEST SWAP2 POP PUSH2 0x2C84 DUP3 PUSH2 0x2C45 JUMP JUMPDEST PUSH1 0x20 DUP3 ADD SWAP1 POP SWAP2 SWAP1 POP JUMP JUMPDEST PUSH0 PUSH1 0x20 DUP3 ADD SWAP1 POP DUP2 DUP2 SUB PUSH0 DUP4 ADD MSTORE PUSH2 0x2CA6 DUP2 PUSH2 0x2C6D JUMP JUMPDEST SWAP1 POP SWAP2 SWAP1 POP JUMP JUMPDEST PUSH32 0x4275696C6420696E206172657374000000000000000000000000000000000000 PUSH0 DUP3 ADD MSTORE POP JUMP JUMPDEST PUSH0 PUSH2 0x2CE1 PUSH1 0xE DUP4 PUSH2 0x248E JUMP JUMPDEST SWAP2 POP PUSH2 0x2CEC DUP3 PUSH2 0x2CAD JUMP JUMPDEST PUSH1 0x20 DUP3 ADD SWAP1 POP SWAP2 SWAP1 POP JUMP JUMPDEST PUSH0 PUSH1 0x20 DUP3 ADD SWAP1 POP DUP2 DUP2 SUB PUSH0 DUP4 ADD MSTORE PUSH2 0x2D0E DUP2 PUSH2 0x2CD5 JUMP JUMPDEST SWAP1 POP SWAP2 SWAP1 POP JUMP JUMPDEST PUSH32 0x77726F6E675F6164647265737300000000000000000000000000000000000000 PUSH0 DUP3 ADD MSTORE POP JUMP JUMPDEST PUSH0 PUSH2 0x2D49 PUSH1 0xD DUP4 PUSH2 0x248E JUMP JUMPDEST SWAP2 POP PUSH2 0x2D54 DUP3 PUSH2 0x2D15 JUMP JUMPDEST PUSH1 0x20 DUP3 ADD SWAP1 POP SWAP2 SWAP1 POP JUMP JUMPDEST PUSH0 PUSH1 0x20 DUP3 ADD SWAP1 POP DUP2 DUP2 SUB PUSH0 DUP4 ADD MSTORE PUSH2 0x2D76 DUP2 PUSH2 0x2D3D JUMP JUMPDEST SWAP1 POP SWAP2 SWAP1 POP JUMP JUMPDEST PUSH32 0x77726F6E67206275696C6449442076616C756500000000000000000000000000 PUSH0 DUP3 ADD MSTORE POP JUMP JUMPDEST PUSH0 PUSH2 0x2DB1 PUSH1 0x13 DUP4 PUSH2 0x248E JUMP JUMPDEST SWAP2 POP PUSH2 0x2DBC DUP3 PUSH2 0x2D7D JUMP JUMPDEST PUSH1 0x20 DUP3 ADD SWAP1 POP SWAP2 SWAP1 POP JUMP JUMPDEST PUSH0 PUSH1 0x20 DUP3 ADD SWAP1 POP DUP2 DUP2 SUB PUSH0 DUP4 ADD MSTORE PUSH2 0x2DDE DUP2 PUSH2 0x2DA5 JUMP JUMPDEST SWAP1 POP SWAP2 SWAP1 POP JUMP JUMPDEST PUSH32 0x73656C6620676966740000000000000000000000000000000000000000000000 PUSH0 DUP3 ADD MSTORE POP JUMP JUMPDEST PUSH0 PUSH2 0x2E19 PUSH1 0x9 DUP4 PUSH2 0x248E JUMP JUMPDEST SWAP2 POP PUSH2 0x2E24 DUP3 PUSH2 0x2DE5 JUMP JUMPDEST PUSH1 0x20 DUP3 ADD SWAP1 POP SWAP2 SWAP1 POP JUMP JUMPDEST PUSH0 PUSH1 0x20 DUP3 ADD SWAP1 POP DUP2 DUP2 SUB PUSH0 DUP4 ADD MSTORE PUSH2 0x2E46 DUP2 PUSH2 0x2E0D JUMP JUMPDEST SWAP1 POP SWAP2 SWAP1 POP JUMP JUMPDEST PUSH32 0x4E487B7100000000000000000000000000000000000000000000000000000000 PUSH0 MSTORE PUSH1 0x11 PUSH1 0x4 MSTORE PUSH1 0x24 PUSH0 REVERT JUMPDEST PUSH0 PUSH2 0x2E84 DUP3 PUSH2 0x234C JUMP JUMPDEST SWAP2 POP PUSH2 0x2E8F DUP4 PUSH2 0x234C JUMP JUMPDEST SWAP3 POP DUP3 DUP3 ADD SWAP1 POP DUP1 DUP3 GT ISZERO PUSH2 0x2EA7 JUMPI PUSH2 0x2EA6 PUSH2 0x2E4D JUMP JUMPDEST JUMPDEST SWAP3 SWAP2 POP POP JUMP JUMPDEST PUSH32 0x416C72656164792066696E697368656400000000000000000000000000000000 PUSH0 DUP3 ADD MSTORE POP JUMP JUMPDEST PUSH0 PUSH2 0x2EE1 PUSH1 0x10 DUP4 PUSH2 0x248E JUMP JUMPDEST SWAP2 POP PUSH2 0x2EEC DUP3 PUSH2 0x2EAD JUMP JUMPDEST PUSH1 0x20 DUP3 ADD SWAP1 POP SWAP2 SWAP1 POP JUMP JUMPDEST PUSH0 PUSH1 0x20 DUP3 ADD SWAP1 POP DUP2 DUP2 SUB PUSH0 DUP4 ADD MSTORE PUSH2 0x2F0E DUP2 PUSH2 0x2ED5 JUMP JUMPDEST SWAP1 POP SWAP2 SWAP1 POP JUMP JUMPDEST PUSH32 0x596F7520617265206E6F74206F776E6572000000000000000000000000000000 PUSH0 DUP3 ADD MSTORE POP JUMP JUMPDEST PUSH0 PUSH2 0x2F49 PUSH1 0x11 DUP4 PUSH2 0x248E JUMP JUMPDEST SWAP2 POP PUSH2 0x2F54 DUP3 PUSH2 0x2F15 JUMP JUMPDEST PUSH1 0x20 DUP3 ADD SWAP1 POP SWAP2 SWAP1 POP JUMP JUMPDEST PUSH0 PUSH1 0x20 DUP3 ADD SWAP1 POP DUP2 DUP2 SUB PUSH0 DUP4 ADD MSTORE PUSH2 0x2F76 DUP2 PUSH2 0x2F3D JUMP JUMPDEST SWAP1 POP SWAP2 SWAP1 POP JUMP JUMPDEST PUSH32 0x77726F6E67206164647265737300000000000000000000000000000000000000 PUSH0 DUP3 ADD MSTORE POP JUMP JUMPDEST PUSH0 PUSH2 0x2FB1 PUSH1 0xD DUP4 PUSH2 0x248E JUMP JUMPDEST SWAP2 POP PUSH2 0x2FBC DUP3 PUSH2 0x2F7D JUMP JUMPDEST PUSH1 0x20 DUP3 ADD SWAP1 POP SWAP2 SWAP1 POP JUMP JUMPDEST PUSH0 PUSH1 0x20 DUP3 ADD SWAP1 POP DUP2 DUP2 SUB PUSH0 DUP4 ADD MSTORE PUSH2 0x2FDE DUP2 PUSH2 0x2FA5 JUMP JUMPDEST SWAP1 POP SWAP2 SWAP1 POP JUMP JUMPDEST PUSH32 0x77726F6E67207371756172650000000000000000000000000000000000000000 PUSH0 DUP3 ADD MSTORE POP JUMP JUMPDEST PUSH0 PUSH2 0x3019 PUSH1 0xC DUP4 PUSH2 0x248E JUMP JUMPDEST SWAP2 POP PUSH2 0x3024 DUP3 PUSH2 0x2FE5 JUMP JUMPDEST PUSH1 0x20 DUP3 ADD SWAP1 POP SWAP2 SWAP1 POP JUMP JUMPDEST PUSH0 PUSH1 0x20 DUP3 ADD SWAP1 POP DUP2 DUP2 SUB PUSH0 DUP4 ADD MSTORE PUSH2 0x3046 DUP2 PUSH2 0x300D JUMP JUMPDEST SWAP1 POP SWAP2 SWAP1 POP JUMP JUMPDEST PUSH0 DUP2 SWAP1 POP DUP2 PUSH0 MSTORE PUSH1 0x20 PUSH0 KECCAK256 SWAP1 POP SWAP2 SWAP1 POP JUMP JUMPDEST PUSH0 PUSH1 0x20 PUSH1 0x1F DUP4 ADD DIV SWAP1 POP SWAP2 SWAP1 POP JUMP JUMPDEST PUSH0 DUP3 DUP3 SHL SWAP1 POP SWAP3 SWAP2 POP POP JUMP JUMPDEST PUSH0 PUSH1 0x8 DUP4 MUL PUSH2 0x30A9 PUSH32 0xFFFFFFFFFFFFFFFFFFFFFFFFFFFFFFFFFFFFFFFFFFFFFFFFFFFFFFFFFFFFFFFF DUP3 PUSH2 0x306E JUMP JUMPDEST PUSH2 0x30B3 DUP7 DUP4 PUSH2 0x306E JUMP JUMPDEST SWAP6 POP DUP1 NOT DUP5 AND SWAP4 POP DUP1 DUP7 AND DUP5 OR SWAP3 POP POP POP SWAP4 SWAP3 POP POP POP JUMP JUMPDEST PUSH0 DUP2 SWAP1 POP SWAP2 SWAP1 POP JUMP JUMPDEST PUSH0 PUSH2 0x30EE PUSH2 0x30E9 PUSH2 0x30E4 DUP5 PUSH2 0x234C JUMP JUMPDEST PUSH2 0x30CB JUMP JUMPDEST PUSH2 0x234C JUMP JUMPDEST SWAP1 POP SWAP2 SWAP1 POP JUMP JUMPDEST PUSH0 DUP2 SWAP1 POP SWAP2 SWAP1 POP JUMP JUMPDEST PUSH2 0x3107 DUP4 PUSH2 0x30D4 JUMP JUMPDEST PUSH2 0x311B PUSH2 0x3113 DUP3 PUSH2 0x30F5 JUMP JUMPDEST DUP5 DUP5 SLOAD PUSH2 0x307A JUMP JUMPDEST DUP3 SSTORE POP POP POP POP JUMP JUMPDEST PUSH0 SWAP1 JUMP JUMPDEST PUSH2 0x312F PUSH2 0x3123 JUMP JUMPDEST PUSH2 0x313A DUP2 DUP5 DUP5 PUSH2 0x30FE JUMP JUMPDEST POP POP POP JUMP JUMPDEST JUMPDEST DUP2 DUP2 LT ISZERO PUSH2 0x315D JUMPI PUSH2 0x3152 PUSH0 DUP3 PUSH2 0x3127 JUMP JUMPDEST PUSH1 0x1 DUP2 ADD SWAP1 POP PUSH2 0x3140 JUMP JUMPDEST POP POP JUMP JUMPDEST PUSH1 0x1F DUP3 GT ISZERO PUSH2 0x31A2 JUMPI PUSH2 0x3173 DUP2 PUSH2 0x304D JUMP JUMPDEST PUSH2 0x317C DUP5 PUSH2 0x305F JUMP JUMPDEST DUP2 ADD PUSH1 0x20 DUP6 LT ISZERO PUSH2 0x318B JUMPI DUP2 SWAP1 POP JUMPDEST PUSH2 0x319F PUSH2 0x3197 DUP6 PUSH2 0x305F JUMP JUMPDEST DUP4 ADD DUP3 PUSH2 0x313F JUMP JUMPDEST POP POP JUMPDEST POP POP POP JUMP JUMPDEST PUSH0 DUP3 DUP3 SHR SWAP1 POP SWAP3 SWAP2 POP POP JUMP JUMPDEST PUSH0 PUSH2 0x31C2 PUSH0 NOT DUP5 PUSH1 0x8 MUL PUSH2 0x31A7 JUMP JUMPDEST NOT DUP1 DUP4 AND SWAP2 POP POP SWAP3 SWAP2 POP POP JUMP JUMPDEST PUSH0 PUSH2 0x31DA DUP4 DUP4 PUSH2 0x31B3 JUMP JUMPDEST SWAP2 POP DUP3 PUSH1 0x2 MUL DUP3 OR SWAP1 POP SWAP3 SWAP2 POP POP JUMP JUMPDEST PUSH2 0x31F3 DUP3 PUSH2 0x2484 JUMP JUMPDEST PUSH8 0xFFFFFFFFFFFFFFFF DUP2 GT ISZERO PUSH2 0x320C JUMPI PUSH2 0x320B PUSH2 0x2625 JUMP JUMPDEST JUMPDEST PUSH2 0x3216 DUP3 SLOAD PUSH2 0x2B45 JUMP JUMPDEST PUSH2 0x3221 DUP3 DUP3 DUP6 PUSH2 0x3161 JUMP JUMPDEST PUSH0 PUSH1 0x20 SWAP1 POP PUSH1 0x1F DUP4 GT PUSH1 0x1 DUP2 EQ PUSH2 0x3252 JUMPI PUSH0 DUP5 ISZERO PUSH2 0x3240 JUMPI DUP3 DUP8 ADD MLOAD SWAP1 POP JUMPDEST PUSH2 0x324A DUP6 DUP3 PUSH2 0x31CF JUMP JUMPDEST DUP7 SSTORE POP PUSH2 0x32B1 JUMP JUMPDEST PUSH1 0x1F NOT DUP5 AND PUSH2 0x3260 DUP7 PUSH2 0x304D JUMP JUMPDEST PUSH0 JUMPDEST DUP3 DUP2 LT ISZERO PUSH2 0x3287 JUMPI DUP5 DUP10 ADD MLOAD DUP3 SSTORE PUSH1 0x1 DUP3 ADD SWAP2 POP PUSH1 0x20 DUP6 ADD SWAP5 POP PUSH1 0x20 DUP2 ADD SWAP1 POP PUSH2 0x3262 JUMP JUMPDEST DUP7 DUP4 LT ISZERO PUSH2 0x32A4 JUMPI DUP5 DUP10 ADD MLOAD PUSH2 0x32A0 PUSH1 0x1F DUP10 AND DUP3 PUSH2 0x31B3 JUMP JUMPDEST DUP4 SSTORE POP JUMPDEST PUSH1 0x1 PUSH1 0x2 DUP9 MUL ADD DUP9 SSTORE POP POP POP JUMPDEST POP POP POP POP POP POP JUMP JUMPDEST PUSH32 0x6275696C64206973206172657374656400000000000000000000000000000000 PUSH0 DUP3 ADD MSTORE POP JUMP JUMPDEST PUSH0 PUSH2 0x32ED PUSH1 0x10 DUP4 PUSH2 0x248E JUMP JUMPDEST SWAP2 POP PUSH2 0x32F8 DUP3 PUSH2 0x32B9 JUMP JUMPDEST PUSH1 0x20 DUP3 ADD SWAP1 POP SWAP2 SWAP1 POP JUMP JUMPDEST PUSH0 PUSH1 0x20 DUP3 ADD SWAP1 POP DUP2 DUP2 SUB PUSH0 DUP4 ADD MSTORE PUSH2 0x331A DUP2 PUSH2 0x32E1 JUMP JUMPDEST SWAP1 POP SWAP2 SWAP1 POP JUMP JUMPDEST PUSH32 0x546869732069732067696674206E6F7420666F7220796F750000000000000000 PUSH0 DUP3 ADD MSTORE POP JUMP JUMPDEST PUSH0 PUSH2 0x3355 PUSH1 0x18 DUP4 PUSH2 0x248E JUMP JUMPDEST SWAP2 POP PUSH2 0x3360 DUP3 PUSH2 0x3321 JUMP JUMPDEST PUSH1 0x20 DUP3 ADD SWAP1 POP SWAP2 SWAP1 POP JUMP JUMPDEST PUSH0 PUSH1 0x20 DUP3 ADD SWAP1 POP DUP2 DUP2 SUB PUSH0 DUP4 ADD MSTORE PUSH2 0x3382 DUP2 PUSH2 0x3349 JUMP JUMPDEST SWAP1 POP SWAP2 SWAP1 POP JUMP JUMPDEST PUSH32 0x6573746174652061726573746564000000000000000000000000000000000000 PUSH0 DUP3 ADD MSTORE POP JUMP JUMPDEST PUSH0 PUSH2 0x33BD PUSH1 0xE DUP4 PUSH2 0x248E JUMP JUMPDEST SWAP2 POP PUSH2 0x33C8 DUP3 PUSH2 0x3389 JUMP JUMPDEST PUSH1 0x20 DUP3 ADD SWAP1 POP SWAP2 SWAP1 POP JUMP JUMPDEST PUSH0 PUSH1 0x20 DUP3 ADD SWAP1 POP DUP2 DUP2 SUB PUSH0 DUP4 ADD MSTORE PUSH2 0x33EA DUP2 PUSH2 0x33B1 JUMP JUMPDEST SWAP1 POP SWAP2 SWAP1 POP JUMP JUMPDEST PUSH32 0x73656C662073616C650000000000000000000000000000000000000000000000 PUSH0 DUP3 ADD MSTORE POP JUMP JUMPDEST PUSH0 PUSH2 0x3425 PUSH1 0x9 DUP4 PUSH2 0x248E JUMP JUMPDEST SWAP2 POP PUSH2 0x3430 DUP3 PUSH2 0x33F1 JUMP JUMPDEST PUSH1 0x20 DUP3 ADD SWAP1 POP SWAP2 SWAP1 POP JUMP JUMPDEST PUSH0 PUSH1 0x20 DUP3 ADD SWAP1 POP DUP2 DUP2 SUB PUSH0 DUP4 ADD MSTORE PUSH2 0x3452 DUP2 PUSH2 0x3419 JUMP JUMPDEST SWAP1 POP SWAP2 SWAP1 POP JUMP JUMPDEST PUSH32 0x77726F6E67206574682076616C75650000000000000000000000000000000000 PUSH0 DUP3 ADD MSTORE POP JUMP JUMPDEST PUSH0 PUSH2 0x348D PUSH1 0xF DUP4 PUSH2 0x248E JUMP JUMPDEST SWAP2 POP PUSH2 0x3498 DUP3 PUSH2 0x3459 JUMP JUMPDEST PUSH1 0x20 DUP3 ADD SWAP1 POP SWAP2 SWAP1 POP JUMP JUMPDEST PUSH0 PUSH1 0x20 DUP3 ADD SWAP1 POP DUP2 DUP2 SUB PUSH0 DUP4 ADD MSTORE PUSH2 0x34BA DUP2 PUSH2 0x3481 JUMP JUMPDEST SWAP1 POP SWAP2 SWAP1 POP JUMP JUMPDEST PUSH32 0x796F7520616C726561647920696E207072696365730000000000000000000000 PUSH0 DUP3 ADD MSTORE POP JUMP JUMPDEST PUSH0 PUSH2 0x34F5 PUSH1 0x15 DUP4 PUSH2 0x248E JUMP JUMPDEST SWAP2 POP PUSH2 0x3500 DUP3 PUSH2 0x34C1 JUMP JUMPDEST PUSH1 0x20 DUP3 ADD SWAP1 POP SWAP2 SWAP1 POP JUMP JUMPDEST PUSH0 PUSH1 0x20 DUP3 ADD SWAP1 POP DUP2 DUP2 SUB PUSH0 DUP4 ADD MSTORE PUSH2 0x3522 DUP2 PUSH2 0x34E9 JUMP JUMPDEST SWAP1 POP SWAP2 SWAP1 POP JUMP INVALID LOG2 PUSH5 0x6970667358 0x22 SLT KECCAK256 SHL ADDRESS 0xC8 DUP9 MOD 0xC1 SWAP6 MCOPY BASEFEE MCOPY SWAP1 PUSH22 0x57338007A76C381C34E486A64DD99588994739BD6473 PUSH16 0x6C634300081A00330000000000000000 "
				},
				"gasEstimates": {
					"creation": {
						"codeDepositCost": "2732600",
						"executionCost": "infinite",
						"totalCost": "infinite"
					},
					"external": {
						"acceptGift(uint256)": "103819",
						"addPrice(uint256)": "infinite",
						"admin()": "2596",
						"buildings(uint256)": "infinite",
						"cancelGift(uint256)": "72968",
						"changeAREST(uint256,bool)": "33697",
						"createBuild(address,string,uint256)": "infinite",
						"createGift(uint256,address)": "infinite",
						"createSale(uint256,uint256)": "infinite",
						"deletePrice(uint256)": "infinite",
						"giftTime()": "2471",
						"gifts(uint256)": "infinite",
						"refuseGift(uint256)": "72923",
						"sales(uint256)": "infinite"
					}
				},
				"methodIdentifiers": {
					"acceptGift(uint256)": "d0ab383a",
					"addPrice(uint256)": "e9f0ee56",
					"admin()": "f851a440",
					"buildings(uint256)": "4c96a062",
					"cancelGift(uint256)": "8ee69ae8",
					"changeAREST(uint256,bool)": "06238e6e",
					"createBuild(address,string,uint256)": "9a22ed8f",
					"createGift(uint256,address)": "58c97164",
					"createSale(uint256,uint256)": "6019061b",
					"deletePrice(uint256)": "2a50fe2c",
					"giftTime()": "0a483421",
					"gifts(uint256)": "d6065935",
					"refuseGift(uint256)": "db4c049d",
					"sales(uint256)": "b5f522f7"
				}
			},
			"storageLayout": {
				"storage": [
					{
						"astId": 55,
						"contract": "contracts/agency.sol:BuildAgency",
						"label": "buildings",
						"offset": 0,
						"slot": "0",
						"type": "t_array(t_struct(Build)16_storage)dyn_storage"
					},
					{
						"astId": 59,
						"contract": "contracts/agency.sol:BuildAgency",
						"label": "gifts",
						"offset": 0,
						"slot": "1",
						"type": "t_array(t_struct(Gift)30_storage)dyn_storage"
					},
					{
						"astId": 63,
						"contract": "contracts/agency.sol:BuildAgency",
						"label": "sales",
						"offset": 0,
						"slot": "2",
						"type": "t_array(t_struct(Sale)45_storage)dyn_storage"
					},
					{
						"astId": 65,
						"contract": "contracts/agency.sol:BuildAgency",
						"label": "admin",
						"offset": 0,
						"slot": "3",
						"type": "t_address"
					},
					{
						"astId": 68,
						"contract": "contracts/agency.sol:BuildAgency",
						"label": "giftTime",
						"offset": 0,
						"slot": "4",
						"type": "t_uint256"
					}
				],
				"types": {
					"t_address": {
						"encoding": "inplace",
						"label": "address",
						"numberOfBytes": "20"
					},
					"t_array(t_address)dyn_storage": {
						"base": "t_address",
						"encoding": "dynamic_array",
						"label": "address[]",
						"numberOfBytes": "32"
					},
					"t_array(t_struct(Build)16_storage)dyn_storage": {
						"base": "t_struct(Build)16_storage",
						"encoding": "dynamic_array",
						"label": "struct BuildAgency.Build[]",
						"numberOfBytes": "32"
					},
					"t_array(t_struct(Gift)30_storage)dyn_storage": {
						"base": "t_struct(Gift)30_storage",
						"encoding": "dynamic_array",
						"label": "struct BuildAgency.Gift[]",
						"numberOfBytes": "32"
					},
					"t_array(t_struct(Sale)45_storage)dyn_storage": {
						"base": "t_struct(Sale)45_storage",
						"encoding": "dynamic_array",
						"label": "struct BuildAgency.Sale[]",
						"numberOfBytes": "32"
					},
					"t_array(t_uint256)dyn_storage": {
						"base": "t_uint256",
						"encoding": "dynamic_array",
						"label": "uint256[]",
						"numberOfBytes": "32"
					},
					"t_bool": {
						"encoding": "inplace",
						"label": "bool",
						"numberOfBytes": "1"
					},
					"t_enum(giftSTAT)51": {
						"encoding": "inplace",
						"label": "enum BuildAgency.giftSTAT",
						"numberOfBytes": "1"
					},
					"t_string_storage": {
						"encoding": "bytes",
						"label": "string",
						"numberOfBytes": "32"
					},
					"t_struct(Build)16_storage": {
						"encoding": "inplace",
						"label": "struct BuildAgency.Build",
						"members": [
							{
								"astId": 3,
								"contract": "contracts/agency.sol:BuildAgency",
								"label": "buildID",
								"offset": 0,
								"slot": "0",
								"type": "t_uint256"
							},
							{
								"astId": 5,
								"contract": "contracts/agency.sol:BuildAgency",
								"label": "owner",
								"offset": 0,
								"slot": "1",
								"type": "t_address"
							},
							{
								"astId": 7,
								"contract": "contracts/agency.sol:BuildAgency",
								"label": "info",
								"offset": 0,
								"slot": "2",
								"type": "t_string_storage"
							},
							{
								"astId": 9,
								"contract": "contracts/agency.sol:BuildAgency",
								"label": "square",
								"offset": 0,
								"slot": "3",
								"type": "t_uint256"
							},
							{
								"astId": 11,
								"contract": "contracts/agency.sol:BuildAgency",
								"label": "giftSTATE",
								"offset": 0,
								"slot": "4",
								"type": "t_bool"
							},
							{
								"astId": 13,
								"contract": "contracts/agency.sol:BuildAgency",
								"label": "saleSTATE",
								"offset": 1,
								"slot": "4",
								"type": "t_bool"
							},
							{
								"astId": 15,
								"contract": "contracts/agency.sol:BuildAgency",
								"label": "arestSTATE",
								"offset": 2,
								"slot": "4",
								"type": "t_bool"
							}
						],
						"numberOfBytes": "160"
					},
					"t_struct(Gift)30_storage": {
						"encoding": "inplace",
						"label": "struct BuildAgency.Gift",
						"members": [
							{
								"astId": 18,
								"contract": "contracts/agency.sol:BuildAgency",
								"label": "giftID",
								"offset": 0,
								"slot": "0",
								"type": "t_uint256"
							},
							{
								"astId": 20,
								"contract": "contracts/agency.sol:BuildAgency",
								"label": "buildID",
								"offset": 0,
								"slot": "1",
								"type": "t_uint256"
							},
							{
								"astId": 22,
								"contract": "contracts/agency.sol:BuildAgency",
								"label": "_adrFrom",
								"offset": 0,
								"slot": "2",
								"type": "t_address"
							},
							{
								"astId": 24,
								"contract": "contracts/agency.sol:BuildAgency",
								"label": "_adrTo",
								"offset": 0,
								"slot": "3",
								"type": "t_address"
							},
							{
								"astId": 26,
								"contract": "contracts/agency.sol:BuildAgency",
								"label": "time",
								"offset": 0,
								"slot": "4",
								"type": "t_uint256"
							},
							{
								"astId": 29,
								"contract": "contracts/agency.sol:BuildAgency",
								"label": "status",
								"offset": 0,
								"slot": "5",
								"type": "t_enum(giftSTAT)51"
							}
						],
						"numberOfBytes": "192"
					},
					"t_struct(Sale)45_storage": {
						"encoding": "inplace",
						"label": "struct BuildAgency.Sale",
						"members": [
							{
								"astId": 32,
								"contract": "contracts/agency.sol:BuildAgency",
								"label": "buildID",
								"offset": 0,
								"slot": "0",
								"type": "t_uint256"
							},
							{
								"astId": 34,
								"contract": "contracts/agency.sol:BuildAgency",
								"label": "owner",
								"offset": 0,
								"slot": "1",
								"type": "t_address"
							},
							{
								"astId": 36,
								"contract": "contracts/agency.sol:BuildAgency",
								"label": "newOwner",
								"offset": 0,
								"slot": "2",
								"type": "t_address"
							},
							{
								"astId": 38,
								"contract": "contracts/agency.sol:BuildAgency",
								"label": "price",
								"offset": 0,
								"slot": "3",
								"type": "t_uint256"
							},
							{
								"astId": 41,
								"contract": "contracts/agency.sol:BuildAgency",
								"label": "buyers",
								"offset": 0,
								"slot": "4",
								"type": "t_array(t_address)dyn_storage"
							},
							{
								"astId": 44,
								"contract": "contracts/agency.sol:BuildAgency",
								"label": "prices",
								"offset": 0,
								"slot": "5",
								"type": "t_array(t_uint256)dyn_storage"
							}
						],
						"numberOfBytes": "192"
					},
					"t_uint256": {
						"encoding": "inplace",
						"label": "uint256",
						"numberOfBytes": "32"
					}
				}
			},
			"userdoc": {
				"kind": "user",
				"methods": {},
				"version": 1
			}
		}
	}
}