{
	"contracts/agency.sol": {
		"BuildAgency": {
			"abi": [
				{
					"inputs": [
						{
							"internalType": "address",
							"name": "adminADR",
							"type": "address"
						}
					],
					"stateMutability": "nonpayable",
					"type": "constructor"
				},
				{
					"inputs": [
						{
							"internalType": "uint256",
							"name": "giftID",
							"type": "uint256"
						}
					],
					"name": "acceptGift",
					"outputs": [],
					"stateMutability": "nonpayable",
					"type": "function"
				},
				{
					"inputs": [
						{
							"internalType": "uint256",
							"name": "saleID",
							"type": "uint256"
						},
						{
							"internalType": "uint256",
							"name": "priceID",
							"type": "uint256"
						}
					],
					"name": "addPrice",
					"outputs": [],
					"stateMutability": "payable",
					"type": "function"
				},
				{
					"inputs": [
						{
							"internalType": "uint256",
							"name": "saleID",
							"type": "uint256"
						}
					],
					"name": "addPrice",
					"outputs": [],
					"stateMutability": "payable",
					"type": "function"
				},
				{
					"inputs": [],
					"name": "admin",
					"outputs": [
						{
							"internalType": "address",
							"name": "",
							"type": "address"
						}
					],
					"stateMutability": "view",
					"type": "function"
				},
				{
					"inputs": [
						{
							"internalType": "uint256",
							"name": "",
							"type": "uint256"
						}
					],
					"name": "buildings",
					"outputs": [
						{
							"internalType": "uint256",
							"name": "buildID",
							"type": "uint256"
						},
						{
							"internalType": "address",
							"name": "owner",
							"type": "address"
						},
						{
							"internalType": "string",
							"name": "info",
							"type": "string"
						},
						{
							"internalType": "uint256",
							"name": "square",
							"type": "uint256"
						},
						{
							"internalType": "bool",
							"name": "giftSTATE",
							"type": "bool"
						},
						{
							"internalType": "bool",
							"name": "saleSTATE",
							"type": "bool"
						},
						{
							"internalType": "bool",
							"name": "arestSTATE",
							"type": "bool"
						}
					],
					"stateMutability": "view",
					"type": "function"
				},
				{
					"inputs": [
						{
							"internalType": "uint256",
							"name": "giftID",
							"type": "uint256"
						}
					],
					"name": "cancelGift",
					"outputs": [],
					"stateMutability": "nonpayable",
					"type": "function"
				},
				{
					"inputs": [
						{
							"internalType": "uint256",
							"name": "saleID",
							"type": "uint256"
						}
					],
					"name": "canelSale",
					"outputs": [],
					"stateMutability": "payable",
					"type": "function"
				},
				{
					"inputs": [
						{
							"internalType": "uint256",
							"name": "buildID",
							"type": "uint256"
						},
						{
							"internalType": "bool",
							"name": "_newarest",
							"type": "bool"
						}
					],
					"name": "changeAREST",
					"outputs": [],
					"stateMutability": "nonpayable",
					"type": "function"
				},
				{
					"inputs": [
						{
							"internalType": "address",
							"name": "_owner",
							"type": "address"
						},
						{
							"internalType": "string",
							"name": "_info",
							"type": "string"
						},
						{
							"internalType": "uint256",
							"name": "_square",
							"type": "uint256"
						}
					],
					"name": "createBuild",
					"outputs": [],
					"stateMutability": "nonpayable",
					"type": "function"
				},
				{
					"inputs": [
						{
							"internalType": "uint256",
							"name": "buildID",
							"type": "uint256"
						},
						{
							"internalType": "address",
							"name": "_adrTo",
							"type": "address"
						}
					],
					"name": "createGift",
					"outputs": [],
					"stateMutability": "nonpayable",
					"type": "function"
				},
				{
					"inputs": [
						{
							"internalType": "uint256",
							"name": "buildID",
							"type": "uint256"
						},
						{
							"internalType": "uint256",
							"name": "_price",
							"type": "uint256"
						}
					],
					"name": "createSale",
					"outputs": [],
					"stateMutability": "nonpayable",
					"type": "function"
				},
				{
					"inputs": [
						{
							"internalType": "uint256",
							"name": "saleID",
							"type": "uint256"
						}
					],
					"name": "deletePrice",
					"outputs": [],
					"stateMutability": "payable",
					"type": "function"
				},
				{
					"inputs": [
						{
							"internalType": "uint256",
							"name": "saleID",
							"type": "uint256"
						}
					],
					"name": "getBuyers",
					"outputs": [
						{
							"internalType": "address[]",
							"name": "",
							"type": "address[]"
						}
					],
					"stateMutability": "view",
					"type": "function"
				},
				{
					"inputs": [
						{
							"internalType": "uint256",
							"name": "saleID",
							"type": "uint256"
						}
					],
					"name": "getPrices",
					"outputs": [
						{
							"internalType": "uint256[]",
							"name": "",
							"type": "uint256[]"
						}
					],
					"stateMutability": "view",
					"type": "function"
				},
				{
					"inputs": [],
					"name": "giftTime",
					"outputs": [
						{
							"internalType": "uint256",
							"name": "",
							"type": "uint256"
						}
					],
					"stateMutability": "view",
					"type": "function"
				},
				{
					"inputs": [
						{
							"internalType": "uint256",
							"name": "",
							"type": "uint256"
						}
					],
					"name": "gifts",
					"outputs": [
						{
							"internalType": "uint256",
							"name": "giftID",
							"type": "uint256"
						},
						{
							"internalType": "uint256",
							"name": "buildID",
							"type": "uint256"
						},
						{
							"internalType": "address",
							"name": "_adrFrom",
							"type": "address"
						},
						{
							"internalType": "address",
							"name": "_adrTo",
							"type": "address"
						},
						{
							"internalType": "uint256",
							"name": "time",
							"type": "uint256"
						},
						{
							"internalType": "enum BuildAgency.giftSTAT",
							"name": "status",
							"type": "uint8"
						}
					],
					"stateMutability": "view",
					"type": "function"
				},
				{
					"inputs": [
						{
							"internalType": "uint256",
							"name": "giftID",
							"type": "uint256"
						}
					],
					"name": "refuseGift",
					"outputs": [],
					"stateMutability": "nonpayable",
					"type": "function"
				},
				{
					"inputs": [
						{
							"internalType": "uint256",
							"name": "",
							"type": "uint256"
						}
					],
					"name": "sales",
					"outputs": [
						{
							"internalType": "uint256",
							"name": "buildID",
							"type": "uint256"
						},
						{
							"internalType": "address",
							"name": "owner",
							"type": "address"
						},
						{
							"internalType": "address",
							"name": "newOwner",
							"type": "address"
						},
						{
							"internalType": "uint256",
							"name": "price",
							"type": "uint256"
						}
					],
					"stateMutability": "view",
					"type": "function"
				}
			],
			"devdoc": {
				"kind": "dev",
				"methods": {},
				"version": 1
			},
			"evm": {
				"assembly": "    /* \"contracts/agency.sol\":71:7950  contract BuildAgency {... */\n  mstore(0x40, 0x80)\n    /* \"contracts/agency.sol\":892:894  60 */\n  0x3c\n    /* \"contracts/agency.sol\":869:894  uint public giftTime = 60 */\n  0x04\n  sstore\n    /* \"contracts/agency.sol\":1444:1544  constructor(address adminADR){... */\n  callvalue\n  dup1\n  iszero\n  tag_1\n  jumpi\n  0x00\n  dup1\n  revert\ntag_1:\n  pop\n  mload(0x40)\n  sub(codesize, bytecodeSize)\n  dup1\n  bytecodeSize\n  dup4\n  codecopy\n  dup2\n  dup2\n  add\n  0x40\n  mstore\n  dup2\n  add\n  swap1\n  tag_2\n  swap2\n  swap1\n  tag_3\n  jump\t// in\ntag_2:\n    /* \"contracts/agency.sol\":1528:1536  adminADR */\n  dup1\n    /* \"contracts/agency.sol\":1520:1525  admin */\n  0x03\n  0x00\n    /* \"contracts/agency.sol\":1520:1536  admin = adminADR */\n  0x0100\n  exp\n  dup2\n  sload\n  dup2\n  0xffffffffffffffffffffffffffffffffffffffff\n  mul\n  not\n  and\n  swap1\n  dup4\n  0xffffffffffffffffffffffffffffffffffffffff\n  and\n  mul\n  or\n  swap1\n  sstore\n  pop\n    /* \"contracts/agency.sol\":1444:1544  constructor(address adminADR){... */\n  pop\n    /* \"contracts/agency.sol\":71:7950  contract BuildAgency {... */\n  jump(tag_6)\n    /* \"#utility.yul\":88:205   */\ntag_8:\n    /* \"#utility.yul\":197:198   */\n  0x00\n    /* \"#utility.yul\":194:195   */\n  dup1\n    /* \"#utility.yul\":187:199   */\n  revert\n    /* \"#utility.yul\":334:460   */\ntag_10:\n    /* \"#utility.yul\":371:378   */\n  0x00\n    /* \"#utility.yul\":411:453   */\n  0xffffffffffffffffffffffffffffffffffffffff\n    /* \"#utility.yul\":404:409   */\n  dup3\n    /* \"#utility.yul\":400:454   */\n  and\n    /* \"#utility.yul\":389:454   */\n  swap1\n  pop\n    /* \"#utility.yul\":334:460   */\n  swap2\n  swap1\n  pop\n  jump\t// out\n    /* \"#utility.yul\":466:562   */\ntag_11:\n    /* \"#utility.yul\":503:510   */\n  0x00\n    /* \"#utility.yul\":532:556   */\n  tag_20\n    /* \"#utility.yul\":550:555   */\n  dup3\n    /* \"#utility.yul\":532:556   */\n  tag_10\n  jump\t// in\ntag_20:\n    /* \"#utility.yul\":521:556   */\n  swap1\n  pop\n    /* \"#utility.yul\":466:562   */\n  swap2\n  swap1\n  pop\n  jump\t// out\n    /* \"#utility.yul\":568:690   */\ntag_12:\n    /* \"#utility.yul\":641:665   */\n  tag_22\n    /* \"#utility.yul\":659:664   */\n  dup2\n    /* \"#utility.yul\":641:665   */\n  tag_11\n  jump\t// in\ntag_22:\n    /* \"#utility.yul\":634:639   */\n  dup2\n    /* \"#utility.yul\":631:666   */\n  eq\n    /* \"#utility.yul\":621:684   */\n  tag_23\n  jumpi\n    /* \"#utility.yul\":680:681   */\n  0x00\n    /* \"#utility.yul\":677:678   */\n  dup1\n    /* \"#utility.yul\":670:682   */\n  revert\n    /* \"#utility.yul\":621:684   */\ntag_23:\n    /* \"#utility.yul\":568:690   */\n  pop\n  jump\t// out\n    /* \"#utility.yul\":696:839   */\ntag_13:\n    /* \"#utility.yul\":753:758   */\n  0x00\n    /* \"#utility.yul\":784:790   */\n  dup2\n    /* \"#utility.yul\":778:791   */\n  mload\n    /* \"#utility.yul\":769:791   */\n  swap1\n  pop\n    /* \"#utility.yul\":800:833   */\n  tag_25\n    /* \"#utility.yul\":827:832   */\n  dup2\n    /* \"#utility.yul\":800:833   */\n  tag_12\n  jump\t// in\ntag_25:\n    /* \"#utility.yul\":696:839   */\n  swap3\n  swap2\n  pop\n  pop\n  jump\t// out\n    /* \"#utility.yul\":845:1196   */\ntag_3:\n    /* \"#utility.yul\":915:921   */\n  0x00\n    /* \"#utility.yul\":964:966   */\n  0x20\n    /* \"#utility.yul\":952:961   */\n  dup3\n    /* \"#utility.yul\":943:950   */\n  dup5\n    /* \"#utility.yul\":939:962   */\n  sub\n    /* \"#utility.yul\":935:967   */\n  slt\n    /* \"#utility.yul\":932:1051   */\n  iszero\n  tag_27\n  jumpi\n    /* \"#utility.yul\":970:1049   */\n  tag_28\n  tag_8\n  jump\t// in\ntag_28:\n    /* \"#utility.yul\":932:1051   */\ntag_27:\n    /* \"#utility.yul\":1090:1091   */\n  0x00\n    /* \"#utility.yul\":1115:1179   */\n  tag_29\n    /* \"#utility.yul\":1171:1178   */\n  dup5\n    /* \"#utility.yul\":1162:1168   */\n  dup3\n    /* \"#utility.yul\":1151:1160   */\n  dup6\n    /* \"#utility.yul\":1147:1169   */\n  add\n    /* \"#utility.yul\":1115:1179   */\n  tag_13\n  jump\t// in\ntag_29:\n    /* \"#utility.yul\":1105:1179   */\n  swap2\n  pop\n    /* \"#utility.yul\":1061:1189   */\n  pop\n    /* \"#utility.yul\":845:1196   */\n  swap3\n  swap2\n  pop\n  pop\n  jump\t// out\n    /* \"contracts/agency.sol\":71:7950  contract BuildAgency {... */\ntag_6:\n  dataSize(sub_0)\n  dup1\n  dataOffset(sub_0)\n  0x00\n  codecopy\n  0x00\n  return\nstop\n\nsub_0: assembly {\n        /* \"contracts/agency.sol\":71:7950  contract BuildAgency {... */\n      mstore(0x40, 0x80)\n      jumpi(tag_1, lt(calldatasize, 0x04))\n      shr(0xe0, calldataload(0x00))\n      dup1\n      0x8ee69ae8\n      gt\n      tag_20\n      jumpi\n      dup1\n      0xd0ab383a\n      gt\n      tag_21\n      jumpi\n      dup1\n      0xd0ab383a\n      eq\n      tag_15\n      jumpi\n      dup1\n      0xd6065935\n      eq\n      tag_16\n      jumpi\n      dup1\n      0xdb4c049d\n      eq\n      tag_17\n      jumpi\n      dup1\n      0xe9f0ee56\n      eq\n      tag_18\n      jumpi\n      dup1\n      0xf851a440\n      eq\n      tag_19\n      jumpi\n      jump(tag_1)\n    tag_21:\n      dup1\n      0x8ee69ae8\n      eq\n      tag_11\n      jumpi\n      dup1\n      0x91492956\n      eq\n      tag_12\n      jumpi\n      dup1\n      0x9a22ed8f\n      eq\n      tag_13\n      jumpi\n      dup1\n      0xb5f522f7\n      eq\n      tag_14\n      jumpi\n      jump(tag_1)\n    tag_20:\n      dup1\n      0x57279353\n      gt\n      tag_22\n      jumpi\n      dup1\n      0x57279353\n      eq\n      tag_6\n      jumpi\n      dup1\n      0x58c97164\n      eq\n      tag_7\n      jumpi\n      dup1\n      0x6019061b\n      eq\n      tag_8\n      jumpi\n      dup1\n      0x7feafd20\n      eq\n      tag_9\n      jumpi\n      dup1\n      0x8e821ca2\n      eq\n      tag_10\n      jumpi\n      jump(tag_1)\n    tag_22:\n      dup1\n      0x06238e6e\n      eq\n      tag_2\n      jumpi\n      dup1\n      0x0a483421\n      eq\n      tag_3\n      jumpi\n      dup1\n      0x2a50fe2c\n      eq\n      tag_4\n      jumpi\n      dup1\n      0x4c96a062\n      eq\n      tag_5\n      jumpi\n    tag_1:\n      0x00\n      dup1\n      revert\n        /* \"contracts/agency.sol\":1873:2077  function changeAREST(uint buildID, bool _newarest) public isAdmin{... */\n    tag_2:\n      callvalue\n      dup1\n      iszero\n      tag_23\n      jumpi\n      0x00\n      dup1\n      revert\n    tag_23:\n      pop\n      tag_24\n      0x04\n      dup1\n      calldatasize\n      sub\n      dup2\n      add\n      swap1\n      tag_25\n      swap2\n      swap1\n      tag_26\n      jump\t// in\n    tag_25:\n      tag_27\n      jump\t// in\n    tag_24:\n      stop\n        /* \"contracts/agency.sol\":869:894  uint public giftTime = 60 */\n    tag_3:\n      callvalue\n      dup1\n      iszero\n      tag_28\n      jumpi\n      0x00\n      dup1\n      revert\n    tag_28:\n      pop\n      tag_29\n      tag_30\n      jump\t// in\n    tag_29:\n      mload(0x40)\n      tag_31\n      swap2\n      swap1\n      tag_32\n      jump\t// in\n    tag_31:\n      mload(0x40)\n      dup1\n      swap2\n      sub\n      swap1\n      return\n        /* \"contracts/agency.sol\":5607:6204  function deletePrice(uint saleID) public payable {... */\n    tag_4:\n      tag_33\n      0x04\n      dup1\n      calldatasize\n      sub\n      dup2\n      add\n      swap1\n      tag_34\n      swap2\n      swap1\n      tag_35\n      jump\t// in\n    tag_34:\n      tag_36\n      jump\t// in\n    tag_33:\n      stop\n        /* \"contracts/agency.sol\":759:783  Build[] public buildings */\n    tag_5:\n      callvalue\n      dup1\n      iszero\n      tag_37\n      jumpi\n      0x00\n      dup1\n      revert\n    tag_37:\n      pop\n      tag_38\n      0x04\n      dup1\n      calldatasize\n      sub\n      dup2\n      add\n      swap1\n      tag_39\n      swap2\n      swap1\n      tag_35\n      jump\t// in\n    tag_39:\n      tag_40\n      jump\t// in\n    tag_38:\n      mload(0x40)\n      tag_41\n      swap8\n      swap7\n      swap6\n      swap5\n      swap4\n      swap3\n      swap2\n      swap1\n      tag_42\n      jump\t// in\n    tag_41:\n      mload(0x40)\n      dup1\n      swap2\n      sub\n      swap1\n      return\n        /* \"contracts/agency.sol\":6210:7133  function addPrice(uint saleID, uint priceID) public payable {... */\n    tag_6:\n      tag_43\n      0x04\n      dup1\n      calldatasize\n      sub\n      dup2\n      add\n      swap1\n      tag_44\n      swap2\n      swap1\n      tag_45\n      jump\t// in\n    tag_44:\n      tag_46\n      jump\t// in\n    tag_43:\n      stop\n        /* \"contracts/agency.sol\":2101:2544  function createGift(uint buildID, address _adrTo) public onlyOwner(buildID) defaultSTATUS(buildID){... */\n    tag_7:\n      callvalue\n      dup1\n      iszero\n      tag_47\n      jumpi\n      0x00\n      dup1\n      revert\n    tag_47:\n      pop\n      tag_48\n      0x04\n      dup1\n      calldatasize\n      sub\n      dup2\n      add\n      swap1\n      tag_49\n      swap2\n      swap1\n      tag_50\n      jump\t// in\n    tag_49:\n      tag_51\n      jump\t// in\n    tag_48:\n      stop\n        /* \"contracts/agency.sol\":4348:4756  function createSale(uint buildID, uint _price) public onlyOwner(buildID) defaultSTATUS(buildID){... */\n    tag_8:\n      callvalue\n      dup1\n      iszero\n      tag_52\n      jumpi\n      0x00\n      dup1\n      revert\n    tag_52:\n      pop\n      tag_53\n      0x04\n      dup1\n      calldatasize\n      sub\n      dup2\n      add\n      swap1\n      tag_54\n      swap2\n      swap1\n      tag_45\n      jump\t// in\n    tag_54:\n      tag_55\n      jump\t// in\n    tag_53:\n      stop\n        /* \"contracts/agency.sol\":7708:7825  function getBuyers(uint saleID) public view returns(address[] memory){... */\n    tag_9:\n      callvalue\n      dup1\n      iszero\n      tag_56\n      jumpi\n      0x00\n      dup1\n      revert\n    tag_56:\n      pop\n      tag_57\n      0x04\n      dup1\n      calldatasize\n      sub\n      dup2\n      add\n      swap1\n      tag_58\n      swap2\n      swap1\n      tag_35\n      jump\t// in\n    tag_58:\n      tag_59\n      jump\t// in\n    tag_57:\n      mload(0x40)\n      tag_60\n      swap2\n      swap1\n      tag_61\n      jump\t// in\n    tag_60:\n      mload(0x40)\n      dup1\n      swap2\n      sub\n      swap1\n      return\n        /* \"contracts/agency.sol\":7141:7698  function canelSale(uint saleID) public payable {... */\n    tag_10:\n      tag_62\n      0x04\n      dup1\n      calldatasize\n      sub\n      dup2\n      add\n      swap1\n      tag_63\n      swap2\n      swap1\n      tag_35\n      jump\t// in\n    tag_63:\n      tag_64\n      jump\t// in\n    tag_62:\n      stop\n        /* \"contracts/agency.sol\":2556:3092  function cancelGift(uint giftID) public{... */\n    tag_11:\n      callvalue\n      dup1\n      iszero\n      tag_65\n      jumpi\n      0x00\n      dup1\n      revert\n    tag_65:\n      pop\n      tag_66\n      0x04\n      dup1\n      calldatasize\n      sub\n      dup2\n      add\n      swap1\n      tag_67\n      swap2\n      swap1\n      tag_35\n      jump\t// in\n    tag_67:\n      tag_68\n      jump\t// in\n    tag_66:\n      stop\n        /* \"contracts/agency.sol\":7833:7947  function getPrices(uint saleID) public view returns(uint[] memory){... */\n    tag_12:\n      callvalue\n      dup1\n      iszero\n      tag_69\n      jumpi\n      0x00\n      dup1\n      revert\n    tag_69:\n      pop\n      tag_70\n      0x04\n      dup1\n      calldatasize\n      sub\n      dup2\n      add\n      swap1\n      tag_71\n      swap2\n      swap1\n      tag_35\n      jump\t// in\n    tag_71:\n      tag_72\n      jump\t// in\n    tag_70:\n      mload(0x40)\n      tag_73\n      swap2\n      swap1\n      tag_74\n      jump\t// in\n    tag_73:\n      mload(0x40)\n      dup1\n      swap2\n      sub\n      swap1\n      return\n        /* \"contracts/agency.sol\":1567:1861  function createBuild(address _owner, string memory _info, uint _square) public isAdmin {... */\n    tag_13:\n      callvalue\n      dup1\n      iszero\n      tag_75\n      jumpi\n      0x00\n      dup1\n      revert\n    tag_75:\n      pop\n      tag_76\n      0x04\n      dup1\n      calldatasize\n      sub\n      dup2\n      add\n      swap1\n      tag_77\n      swap2\n      swap1\n      tag_78\n      jump\t// in\n    tag_77:\n      tag_79\n      jump\t// in\n    tag_76:\n      stop\n        /* \"contracts/agency.sol\":816:835  Sale[] public sales */\n    tag_14:\n      callvalue\n      dup1\n      iszero\n      tag_80\n      jumpi\n      0x00\n      dup1\n      revert\n    tag_80:\n      pop\n      tag_81\n      0x04\n      dup1\n      calldatasize\n      sub\n      dup2\n      add\n      swap1\n      tag_82\n      swap2\n      swap1\n      tag_35\n      jump\t// in\n    tag_82:\n      tag_83\n      jump\t// in\n    tag_81:\n      mload(0x40)\n      tag_84\n      swap5\n      swap4\n      swap3\n      swap2\n      swap1\n      tag_85\n      jump\t// in\n    tag_84:\n      mload(0x40)\n      dup1\n      swap2\n      sub\n      swap1\n      return\n        /* \"contracts/agency.sol\":3100:3771  function acceptGift(uint giftID) public{... */\n    tag_15:\n      callvalue\n      dup1\n      iszero\n      tag_86\n      jumpi\n      0x00\n      dup1\n      revert\n    tag_86:\n      pop\n      tag_87\n      0x04\n      dup1\n      calldatasize\n      sub\n      dup2\n      add\n      swap1\n      tag_88\n      swap2\n      swap1\n      tag_35\n      jump\t// in\n    tag_88:\n      tag_89\n      jump\t// in\n    tag_87:\n      stop\n        /* \"contracts/agency.sol\":790:809  Gift[] public gifts */\n    tag_16:\n      callvalue\n      dup1\n      iszero\n      tag_90\n      jumpi\n      0x00\n      dup1\n      revert\n    tag_90:\n      pop\n      tag_91\n      0x04\n      dup1\n      calldatasize\n      sub\n      dup2\n      add\n      swap1\n      tag_92\n      swap2\n      swap1\n      tag_35\n      jump\t// in\n    tag_92:\n      tag_93\n      jump\t// in\n    tag_91:\n      mload(0x40)\n      tag_94\n      swap7\n      swap6\n      swap5\n      swap4\n      swap3\n      swap2\n      swap1\n      tag_95\n      jump\t// in\n    tag_94:\n      mload(0x40)\n      dup1\n      swap2\n      sub\n      swap1\n      return\n        /* \"contracts/agency.sol\":3783:4325  function refuseGift(uint giftID) public {... */\n    tag_17:\n      callvalue\n      dup1\n      iszero\n      tag_96\n      jumpi\n      0x00\n      dup1\n      revert\n    tag_96:\n      pop\n      tag_97\n      0x04\n      dup1\n      calldatasize\n      sub\n      dup2\n      add\n      swap1\n      tag_98\n      swap2\n      swap1\n      tag_35\n      jump\t// in\n    tag_98:\n      tag_99\n      jump\t// in\n    tag_97:\n      stop\n        /* \"contracts/agency.sol\":4766:5599  function addPrice(uint saleID) public payable {... */\n    tag_18:\n      tag_100\n      0x04\n      dup1\n      calldatasize\n      sub\n      dup2\n      add\n      swap1\n      tag_101\n      swap2\n      swap1\n      tag_35\n      jump\t// in\n    tag_101:\n      tag_102\n      jump\t// in\n    tag_100:\n      stop\n        /* \"contracts/agency.sol\":842:862  address public admin */\n    tag_19:\n      callvalue\n      dup1\n      iszero\n      tag_103\n      jumpi\n      0x00\n      dup1\n      revert\n    tag_103:\n      pop\n      tag_104\n      tag_105\n      jump\t// in\n    tag_104:\n      mload(0x40)\n      tag_106\n      swap2\n      swap1\n      tag_107\n      jump\t// in\n    tag_106:\n      mload(0x40)\n      dup1\n      swap2\n      sub\n      swap1\n      return\n        /* \"contracts/agency.sol\":1873:2077  function changeAREST(uint buildID, bool _newarest) public isAdmin{... */\n    tag_27:\n        /* \"contracts/agency.sol\":955:960  admin */\n      0x03\n      0x00\n      swap1\n      sload\n      swap1\n      0x0100\n      exp\n      swap1\n      div\n      0xffffffffffffffffffffffffffffffffffffffff\n      and\n        /* \"contracts/agency.sol\":941:960  msg.sender == admin */\n      0xffffffffffffffffffffffffffffffffffffffff\n      and\n        /* \"contracts/agency.sol\":941:951  msg.sender */\n      caller\n        /* \"contracts/agency.sol\":941:960  msg.sender == admin */\n      0xffffffffffffffffffffffffffffffffffffffff\n      and\n      eq\n        /* \"contracts/agency.sol\":933:982  require(msg.sender == admin, \"You are not admin\") */\n      tag_109\n      jumpi\n      mload(0x40)\n      0x08c379a000000000000000000000000000000000000000000000000000000000\n      dup2\n      mstore\n      0x04\n      add\n      tag_110\n      swap1\n      tag_111\n      jump\t// in\n    tag_110:\n      mload(0x40)\n      dup1\n      swap2\n      sub\n      swap1\n      revert\n    tag_109:\n        /* \"contracts/agency.sol\":1970:1979  buildings */\n      0x00\n        /* \"contracts/agency.sol\":1980:1987  buildID */\n      dup3\n        /* \"contracts/agency.sol\":1970:1988  buildings[buildID] */\n      dup2\n      sload\n      dup2\n      lt\n      tag_113\n      jumpi\n      tag_114\n      tag_115\n      jump\t// in\n    tag_114:\n    tag_113:\n      swap1\n      0x00\n      mstore\n      keccak256(0x00, 0x20)\n      swap1\n      0x05\n      mul\n      add\n        /* \"contracts/agency.sol\":1970:1999  buildings[buildID].arestSTATE */\n      0x04\n      add\n      0x02\n      swap1\n      sload\n      swap1\n      0x0100\n      exp\n      swap1\n      div\n      0xff\n      and\n        /* \"contracts/agency.sol\":1957:1999  _newarest != buildings[buildID].arestSTATE */\n      iszero\n      iszero\n        /* \"contracts/agency.sol\":1957:1966  _newarest */\n      dup2\n        /* \"contracts/agency.sol\":1957:1999  _newarest != buildings[buildID].arestSTATE */\n      iszero\n      iszero\n      sub\n        /* \"contracts/agency.sol\":1949:2017  require(_newarest != buildings[buildID].arestSTATE,\"the same arest\") */\n      tag_117\n      jumpi\n      mload(0x40)\n      0x08c379a000000000000000000000000000000000000000000000000000000000\n      dup2\n      mstore\n      0x04\n      add\n      tag_118\n      swap1\n      tag_119\n      jump\t// in\n    tag_118:\n      mload(0x40)\n      dup1\n      swap2\n      sub\n      swap1\n      revert\n    tag_117:\n        /* \"contracts/agency.sol\":2060:2069  _newarest */\n      dup1\n        /* \"contracts/agency.sol\":2028:2037  buildings */\n      0x00\n        /* \"contracts/agency.sol\":2038:2045  buildID */\n      dup4\n        /* \"contracts/agency.sol\":2028:2046  buildings[buildID] */\n      dup2\n      sload\n      dup2\n      lt\n      tag_120\n      jumpi\n      tag_121\n      tag_115\n      jump\t// in\n    tag_121:\n    tag_120:\n      swap1\n      0x00\n      mstore\n      keccak256(0x00, 0x20)\n      swap1\n      0x05\n      mul\n      add\n        /* \"contracts/agency.sol\":2028:2057  buildings[buildID].arestSTATE */\n      0x04\n      add\n      0x02\n        /* \"contracts/agency.sol\":2028:2069  buildings[buildID].arestSTATE = _newarest */\n      0x0100\n      exp\n      dup2\n      sload\n      dup2\n      0xff\n      mul\n      not\n      and\n      swap1\n      dup4\n      iszero\n      iszero\n      mul\n      or\n      swap1\n      sstore\n      pop\n        /* \"contracts/agency.sol\":1873:2077  function changeAREST(uint buildID, bool _newarest) public isAdmin{... */\n      pop\n      pop\n      jump\t// out\n        /* \"contracts/agency.sol\":869:894  uint public giftTime = 60 */\n    tag_30:\n      sload(0x04)\n      dup2\n      jump\t// out\n        /* \"contracts/agency.sol\":5607:6204  function deletePrice(uint saleID) public payable {... */\n    tag_36:\n        /* \"contracts/agency.sol\":5684:5689  sales */\n      0x02\n        /* \"contracts/agency.sol\":5684:5696  sales.length */\n      dup1\n      sload\n      swap1\n      pop\n        /* \"contracts/agency.sol\":5675:5681  saleID */\n      dup2\n        /* \"contracts/agency.sol\":5675:5696  saleID < sales.length */\n      lt\n        /* \"contracts/agency.sol\":5667:5718  require(saleID < sales.length,\"wrong saleID value\") */\n      tag_124\n      jumpi\n      mload(0x40)\n      0x08c379a000000000000000000000000000000000000000000000000000000000\n      dup2\n      mstore\n      0x04\n      add\n      tag_125\n      swap1\n      tag_126\n      jump\t// in\n    tag_125:\n      mload(0x40)\n      dup1\n      swap2\n      sub\n      swap1\n      revert\n    tag_124:\n        /* \"contracts/agency.sol\":5771:5772  0 */\n      0x00\n        /* \"contracts/agency.sol\":5737:5773  sales[saleID].newOwner == address(0) */\n      0xffffffffffffffffffffffffffffffffffffffff\n      and\n        /* \"contracts/agency.sol\":5737:5742  sales */\n      0x02\n        /* \"contracts/agency.sol\":5743:5749  saleID */\n      dup3\n        /* \"contracts/agency.sol\":5737:5750  sales[saleID] */\n      dup2\n      sload\n      dup2\n      lt\n      tag_127\n      jumpi\n      tag_128\n      tag_115\n      jump\t// in\n    tag_128:\n    tag_127:\n      swap1\n      0x00\n      mstore\n      keccak256(0x00, 0x20)\n      swap1\n      0x06\n      mul\n      add\n        /* \"contracts/agency.sol\":5737:5759  sales[saleID].newOwner */\n      0x02\n      add\n      0x00\n      swap1\n      sload\n      swap1\n      0x0100\n      exp\n      swap1\n      div\n      0xffffffffffffffffffffffffffffffffffffffff\n      and\n        /* \"contracts/agency.sol\":5737:5773  sales[saleID].newOwner == address(0) */\n      0xffffffffffffffffffffffffffffffffffffffff\n      and\n      eq\n        /* \"contracts/agency.sol\":5729:5792  require(sales[saleID].newOwner == address(0), \"Sale is closed\") */\n      tag_130\n      jumpi\n      mload(0x40)\n      0x08c379a000000000000000000000000000000000000000000000000000000000\n      dup2\n      mstore\n      0x04\n      add\n      tag_131\n      swap1\n      tag_132\n      jump\t// in\n    tag_131:\n      mload(0x40)\n      dup1\n      swap2\n      sub\n      swap1\n      revert\n    tag_130:\n        /* \"contracts/agency.sol\":5808:5814  uint i */\n      0x00\n        /* \"contracts/agency.sol\":5803:6195  for (uint i = 0; i < sales[saleID].buyers.length; i++){... */\n    tag_133:\n        /* \"contracts/agency.sol\":5824:5829  sales */\n      0x02\n        /* \"contracts/agency.sol\":5830:5836  saleID */\n      dup3\n        /* \"contracts/agency.sol\":5824:5837  sales[saleID] */\n      dup2\n      sload\n      dup2\n      lt\n      tag_136\n      jumpi\n      tag_137\n      tag_115\n      jump\t// in\n    tag_137:\n    tag_136:\n      swap1\n      0x00\n      mstore\n      keccak256(0x00, 0x20)\n      swap1\n      0x06\n      mul\n      add\n        /* \"contracts/agency.sol\":5824:5844  sales[saleID].buyers */\n      0x04\n      add\n        /* \"contracts/agency.sol\":5824:5851  sales[saleID].buyers.length */\n      dup1\n      sload\n      swap1\n      pop\n        /* \"contracts/agency.sol\":5820:5821  i */\n      dup2\n        /* \"contracts/agency.sol\":5820:5851  i < sales[saleID].buyers.length */\n      lt\n        /* \"contracts/agency.sol\":5803:6195  for (uint i = 0; i < sales[saleID].buyers.length; i++){... */\n      iszero\n      tag_134\n      jumpi\n        /* \"contracts/agency.sol\":5903:5913  msg.sender */\n      caller\n        /* \"contracts/agency.sol\":5876:5913  sales[saleID].buyers[i] == msg.sender */\n      0xffffffffffffffffffffffffffffffffffffffff\n      and\n        /* \"contracts/agency.sol\":5876:5881  sales */\n      0x02\n        /* \"contracts/agency.sol\":5882:5888  saleID */\n      dup4\n        /* \"contracts/agency.sol\":5876:5889  sales[saleID] */\n      dup2\n      sload\n      dup2\n      lt\n      tag_139\n      jumpi\n      tag_140\n      tag_115\n      jump\t// in\n    tag_140:\n    tag_139:\n      swap1\n      0x00\n      mstore\n      keccak256(0x00, 0x20)\n      swap1\n      0x06\n      mul\n      add\n        /* \"contracts/agency.sol\":5876:5896  sales[saleID].buyers */\n      0x04\n      add\n        /* \"contracts/agency.sol\":5897:5898  i */\n      dup3\n        /* \"contracts/agency.sol\":5876:5899  sales[saleID].buyers[i] */\n      dup2\n      sload\n      dup2\n      lt\n      tag_142\n      jumpi\n      tag_143\n      tag_115\n      jump\t// in\n    tag_143:\n    tag_142:\n      swap1\n      0x00\n      mstore\n      keccak256(0x00, 0x20)\n      add\n      0x00\n      swap1\n      sload\n      swap1\n      0x0100\n      exp\n      swap1\n      div\n      0xffffffffffffffffffffffffffffffffffffffff\n      and\n        /* \"contracts/agency.sol\":5876:5913  sales[saleID].buyers[i] == msg.sender */\n      0xffffffffffffffffffffffffffffffffffffffff\n      and\n      sub\n        /* \"contracts/agency.sol\":5872:6184  if (sales[saleID].buyers[i] == msg.sender) {... */\n      tag_145\n      jumpi\n        /* \"contracts/agency.sol\":5934:5944  uint price */\n      0x00\n        /* \"contracts/agency.sol\":5947:5952  sales */\n      0x02\n        /* \"contracts/agency.sol\":5953:5959  saleID */\n      dup4\n        /* \"contracts/agency.sol\":5947:5960  sales[saleID] */\n      dup2\n      sload\n      dup2\n      lt\n      tag_146\n      jumpi\n      tag_147\n      tag_115\n      jump\t// in\n    tag_147:\n    tag_146:\n      swap1\n      0x00\n      mstore\n      keccak256(0x00, 0x20)\n      swap1\n      0x06\n      mul\n      add\n        /* \"contracts/agency.sol\":5947:5967  sales[saleID].prices */\n      0x05\n      add\n        /* \"contracts/agency.sol\":5968:5969  i */\n      dup3\n        /* \"contracts/agency.sol\":5947:5970  sales[saleID].prices[i] */\n      dup2\n      sload\n      dup2\n      lt\n      tag_149\n      jumpi\n      tag_150\n      tag_115\n      jump\t// in\n    tag_150:\n    tag_149:\n      swap1\n      0x00\n      mstore\n      keccak256(0x00, 0x20)\n      add\n      sload\n        /* \"contracts/agency.sol\":5934:5970  uint price = sales[saleID].prices[i] */\n      swap1\n      pop\n        /* \"contracts/agency.sol\":6006:6007  0 */\n      0x00\n        /* \"contracts/agency.sol\":5997:6002  price */\n      dup2\n        /* \"contracts/agency.sol\":5997:6007  price != 0 */\n      sub\n        /* \"contracts/agency.sol\":5989:6026  require(price != 0, \"you price is 0\") */\n      tag_152\n      jumpi\n      mload(0x40)\n      0x08c379a000000000000000000000000000000000000000000000000000000000\n      dup2\n      mstore\n      0x04\n      add\n      tag_153\n      swap1\n      tag_154\n      jump\t// in\n    tag_153:\n      mload(0x40)\n      dup1\n      swap2\n      sub\n      swap1\n      revert\n    tag_152:\n        /* \"contracts/agency.sol\":6053:6063  msg.sender */\n      caller\n        /* \"contracts/agency.sol\":6045:6073  payable(msg.sender).transfer */\n      0xffffffffffffffffffffffffffffffffffffffff\n      and\n        /* \"contracts/agency.sol\":6045:6098  payable(msg.sender).transfer(sales[saleID].prices[i]) */\n      0x08fc\n        /* \"contracts/agency.sol\":6074:6079  sales */\n      0x02\n        /* \"contracts/agency.sol\":6080:6086  saleID */\n      dup6\n        /* \"contracts/agency.sol\":6074:6087  sales[saleID] */\n      dup2\n      sload\n      dup2\n      lt\n      tag_155\n      jumpi\n      tag_156\n      tag_115\n      jump\t// in\n    tag_156:\n    tag_155:\n      swap1\n      0x00\n      mstore\n      keccak256(0x00, 0x20)\n      swap1\n      0x06\n      mul\n      add\n        /* \"contracts/agency.sol\":6074:6094  sales[saleID].prices */\n      0x05\n      add\n        /* \"contracts/agency.sol\":6095:6096  i */\n      dup5\n        /* \"contracts/agency.sol\":6074:6097  sales[saleID].prices[i] */\n      dup2\n      sload\n      dup2\n      lt\n      tag_158\n      jumpi\n      tag_159\n      tag_115\n      jump\t// in\n    tag_159:\n    tag_158:\n      swap1\n      0x00\n      mstore\n      keccak256(0x00, 0x20)\n      add\n      sload\n        /* \"contracts/agency.sol\":6045:6098  payable(msg.sender).transfer(sales[saleID].prices[i]) */\n      swap1\n      dup2\n      iszero\n      mul\n      swap1\n      mload(0x40)\n      0x00\n      mload(0x40)\n      dup1\n      dup4\n      sub\n      dup2\n      dup6\n      dup9\n      dup9\n      call\n      swap4\n      pop\n      pop\n      pop\n      pop\n      iszero\n      dup1\n      iszero\n      tag_162\n      jumpi\n      returndatasize\n      0x00\n      dup1\n      returndatacopy\n      revert(0x00, returndatasize)\n    tag_162:\n      pop\n        /* \"contracts/agency.sol\":6143:6144  0 */\n      0x00\n        /* \"contracts/agency.sol\":6117:6122  sales */\n      0x02\n        /* \"contracts/agency.sol\":6123:6129  saleID */\n      dup5\n        /* \"contracts/agency.sol\":6117:6130  sales[saleID] */\n      dup2\n      sload\n      dup2\n      lt\n      tag_163\n      jumpi\n      tag_164\n      tag_115\n      jump\t// in\n    tag_164:\n    tag_163:\n      swap1\n      0x00\n      mstore\n      keccak256(0x00, 0x20)\n      swap1\n      0x06\n      mul\n      add\n        /* \"contracts/agency.sol\":6117:6137  sales[saleID].prices */\n      0x05\n      add\n        /* \"contracts/agency.sol\":6138:6139  i */\n      dup4\n        /* \"contracts/agency.sol\":6117:6140  sales[saleID].prices[i] */\n      dup2\n      sload\n      dup2\n      lt\n      tag_166\n      jumpi\n      tag_167\n      tag_115\n      jump\t// in\n    tag_167:\n    tag_166:\n      swap1\n      0x00\n      mstore\n      keccak256(0x00, 0x20)\n      add\n        /* \"contracts/agency.sol\":6117:6144  sales[saleID].prices[i] = 0 */\n      dup2\n      swap1\n      sstore\n      pop\n        /* \"contracts/agency.sol\":6163:6168  break */\n      pop\n      jump(tag_134)\n        /* \"contracts/agency.sol\":5872:6184  if (sales[saleID].buyers[i] == msg.sender) {... */\n    tag_145:\n        /* \"contracts/agency.sol\":5853:5856  i++ */\n      dup1\n      dup1\n      0x01\n      add\n      swap2\n      pop\n      pop\n        /* \"contracts/agency.sol\":5803:6195  for (uint i = 0; i < sales[saleID].buyers.length; i++){... */\n      jump(tag_133)\n    tag_134:\n      pop\n        /* \"contracts/agency.sol\":5607:6204  function deletePrice(uint saleID) public payable {... */\n      pop\n      jump\t// out\n        /* \"contracts/agency.sol\":759:783  Build[] public buildings */\n    tag_40:\n      0x00\n      dup2\n      dup2\n      sload\n      dup2\n      lt\n      tag_169\n      jumpi\n      0x00\n      dup1\n      revert\n    tag_169:\n      swap1\n      0x00\n      mstore\n      keccak256(0x00, 0x20)\n      swap1\n      0x05\n      mul\n      add\n      0x00\n      swap2\n      pop\n      swap1\n      pop\n      dup1\n      0x00\n      add\n      sload\n      swap1\n      dup1\n      0x01\n      add\n      0x00\n      swap1\n      sload\n      swap1\n      0x0100\n      exp\n      swap1\n      div\n      0xffffffffffffffffffffffffffffffffffffffff\n      and\n      swap1\n      dup1\n      0x02\n      add\n      dup1\n      sload\n      tag_171\n      swap1\n      tag_172\n      jump\t// in\n    tag_171:\n      dup1\n      0x1f\n      add\n      0x20\n      dup1\n      swap2\n      div\n      mul\n      0x20\n      add\n      mload(0x40)\n      swap1\n      dup2\n      add\n      0x40\n      mstore\n      dup1\n      swap3\n      swap2\n      swap1\n      dup2\n      dup2\n      mstore\n      0x20\n      add\n      dup3\n      dup1\n      sload\n      tag_173\n      swap1\n      tag_172\n      jump\t// in\n    tag_173:\n      dup1\n      iszero\n      tag_174\n      jumpi\n      dup1\n      0x1f\n      lt\n      tag_175\n      jumpi\n      0x0100\n      dup1\n      dup4\n      sload\n      div\n      mul\n      dup4\n      mstore\n      swap2\n      0x20\n      add\n      swap2\n      jump(tag_174)\n    tag_175:\n      dup3\n      add\n      swap2\n      swap1\n      0x00\n      mstore\n      keccak256(0x00, 0x20)\n      swap1\n    tag_176:\n      dup2\n      sload\n      dup2\n      mstore\n      swap1\n      0x01\n      add\n      swap1\n      0x20\n      add\n      dup1\n      dup4\n      gt\n      tag_176\n      jumpi\n      dup3\n      swap1\n      sub\n      0x1f\n      and\n      dup3\n      add\n      swap2\n    tag_174:\n      pop\n      pop\n      pop\n      pop\n      pop\n      swap1\n      dup1\n      0x03\n      add\n      sload\n      swap1\n      dup1\n      0x04\n      add\n      0x00\n      swap1\n      sload\n      swap1\n      0x0100\n      exp\n      swap1\n      div\n      0xff\n      and\n      swap1\n      dup1\n      0x04\n      add\n      0x01\n      swap1\n      sload\n      swap1\n      0x0100\n      exp\n      swap1\n      div\n      0xff\n      and\n      swap1\n      dup1\n      0x04\n      add\n      0x02\n      swap1\n      sload\n      swap1\n      0x0100\n      exp\n      swap1\n      div\n      0xff\n      and\n      swap1\n      pop\n      dup8\n      jump\t// out\n        /* \"contracts/agency.sol\":6210:7133  function addPrice(uint saleID, uint priceID) public payable {... */\n    tag_46:\n        /* \"contracts/agency.sol\":6281:6293  uint buildID */\n      0x00\n        /* \"contracts/agency.sol\":6296:6301  sales */\n      0x02\n        /* \"contracts/agency.sol\":6302:6308  saleID */\n      dup4\n        /* \"contracts/agency.sol\":6296:6309  sales[saleID] */\n      dup2\n      sload\n      dup2\n      lt\n      tag_178\n      jumpi\n      tag_179\n      tag_115\n      jump\t// in\n    tag_179:\n    tag_178:\n      swap1\n      0x00\n      mstore\n      keccak256(0x00, 0x20)\n      swap1\n      0x06\n      mul\n      add\n        /* \"contracts/agency.sol\":6296:6317  sales[saleID].buildID */\n      0x00\n      add\n      sload\n        /* \"contracts/agency.sol\":6281:6317  uint buildID = sales[saleID].buildID */\n      swap1\n      pop\n        /* \"contracts/agency.sol\":6345:6350  sales */\n      0x02\n        /* \"contracts/agency.sol\":6345:6357  sales.length */\n      dup1\n      sload\n      swap1\n      pop\n        /* \"contracts/agency.sol\":6336:6342  saleID */\n      dup4\n        /* \"contracts/agency.sol\":6336:6357  saleID < sales.length */\n      lt\n        /* \"contracts/agency.sol\":6328:6379  require(saleID < sales.length,\"wrong saleID value\") */\n      tag_181\n      jumpi\n      mload(0x40)\n      0x08c379a000000000000000000000000000000000000000000000000000000000\n      dup2\n      mstore\n      0x04\n      add\n      tag_182\n      swap1\n      tag_126\n      jump\t// in\n    tag_182:\n      mload(0x40)\n      dup1\n      swap2\n      sub\n      swap1\n      revert\n    tag_181:\n        /* \"contracts/agency.sol\":6432:6433  0 */\n      0x00\n        /* \"contracts/agency.sol\":6398:6434  sales[saleID].newOwner == address(0) */\n      0xffffffffffffffffffffffffffffffffffffffff\n      and\n        /* \"contracts/agency.sol\":6398:6403  sales */\n      0x02\n        /* \"contracts/agency.sol\":6404:6410  saleID */\n      dup5\n        /* \"contracts/agency.sol\":6398:6411  sales[saleID] */\n      dup2\n      sload\n      dup2\n      lt\n      tag_183\n      jumpi\n      tag_184\n      tag_115\n      jump\t// in\n    tag_184:\n    tag_183:\n      swap1\n      0x00\n      mstore\n      keccak256(0x00, 0x20)\n      swap1\n      0x06\n      mul\n      add\n        /* \"contracts/agency.sol\":6398:6420  sales[saleID].newOwner */\n      0x02\n      add\n      0x00\n      swap1\n      sload\n      swap1\n      0x0100\n      exp\n      swap1\n      div\n      0xffffffffffffffffffffffffffffffffffffffff\n      and\n        /* \"contracts/agency.sol\":6398:6434  sales[saleID].newOwner == address(0) */\n      0xffffffffffffffffffffffffffffffffffffffff\n      and\n      eq\n        /* \"contracts/agency.sol\":6390:6453  require(sales[saleID].newOwner == address(0), \"Sale is closed\") */\n      tag_186\n      jumpi\n      mload(0x40)\n      0x08c379a000000000000000000000000000000000000000000000000000000000\n      dup2\n      mstore\n      0x04\n      add\n      tag_187\n      swap1\n      tag_132\n      jump\t// in\n    tag_187:\n      mload(0x40)\n      dup1\n      swap2\n      sub\n      swap1\n      revert\n    tag_186:\n        /* \"contracts/agency.sol\":6495:6505  msg.sender */\n      caller\n        /* \"contracts/agency.sol\":6472:6505  sales[saleID].owner == msg.sender */\n      0xffffffffffffffffffffffffffffffffffffffff\n      and\n        /* \"contracts/agency.sol\":6472:6477  sales */\n      0x02\n        /* \"contracts/agency.sol\":6478:6484  saleID */\n      dup5\n        /* \"contracts/agency.sol\":6472:6485  sales[saleID] */\n      dup2\n      sload\n      dup2\n      lt\n      tag_188\n      jumpi\n      tag_189\n      tag_115\n      jump\t// in\n    tag_189:\n    tag_188:\n      swap1\n      0x00\n      mstore\n      keccak256(0x00, 0x20)\n      swap1\n      0x06\n      mul\n      add\n        /* \"contracts/agency.sol\":6472:6491  sales[saleID].owner */\n      0x01\n      add\n      0x00\n      swap1\n      sload\n      swap1\n      0x0100\n      exp\n      swap1\n      div\n      0xffffffffffffffffffffffffffffffffffffffff\n      and\n        /* \"contracts/agency.sol\":6472:6505  sales[saleID].owner == msg.sender */\n      0xffffffffffffffffffffffffffffffffffffffff\n      and\n      eq\n        /* \"contracts/agency.sol\":6464:6522  require(sales[saleID].owner == msg.sender, \"Not you sale\") */\n      tag_191\n      jumpi\n      mload(0x40)\n      0x08c379a000000000000000000000000000000000000000000000000000000000\n      dup2\n      mstore\n      0x04\n      add\n      tag_192\n      swap1\n      tag_193\n      jump\t// in\n    tag_192:\n      mload(0x40)\n      dup1\n      swap2\n      sub\n      swap1\n      revert\n    tag_191:\n        /* \"contracts/agency.sol\":6574:6579  false */\n      0x00\n        /* \"contracts/agency.sol\":6541:6579  buildings[buildID].arestSTATE == false */\n      iszero\n      iszero\n        /* \"contracts/agency.sol\":6541:6550  buildings */\n      0x00\n        /* \"contracts/agency.sol\":6551:6558  buildID */\n      dup3\n        /* \"contracts/agency.sol\":6541:6559  buildings[buildID] */\n      dup2\n      sload\n      dup2\n      lt\n      tag_194\n      jumpi\n      tag_195\n      tag_115\n      jump\t// in\n    tag_195:\n    tag_194:\n      swap1\n      0x00\n      mstore\n      keccak256(0x00, 0x20)\n      swap1\n      0x05\n      mul\n      add\n        /* \"contracts/agency.sol\":6541:6570  buildings[buildID].arestSTATE */\n      0x04\n      add\n      0x02\n      swap1\n      sload\n      swap1\n      0x0100\n      exp\n      swap1\n      div\n      0xff\n      and\n        /* \"contracts/agency.sol\":6541:6579  buildings[buildID].arestSTATE == false */\n      iszero\n      iszero\n      eq\n        /* \"contracts/agency.sol\":6533:6600  require(buildings[buildID].arestSTATE == false, \"build is arested\") */\n      tag_197\n      jumpi\n      mload(0x40)\n      0x08c379a000000000000000000000000000000000000000000000000000000000\n      dup2\n      mstore\n      0x04\n      add\n      tag_198\n      swap1\n      tag_199\n      jump\t// in\n    tag_198:\n      mload(0x40)\n      dup1\n      swap2\n      sub\n      swap1\n      revert\n    tag_197:\n        /* \"contracts/agency.sol\":6616:6622  uint i */\n      0x00\n        /* \"contracts/agency.sol\":6611:7079  for (uint i = 0; i < sales[saleID].buyers.length; i++){... */\n    tag_200:\n        /* \"contracts/agency.sol\":6632:6637  sales */\n      0x02\n        /* \"contracts/agency.sol\":6638:6644  saleID */\n      dup5\n        /* \"contracts/agency.sol\":6632:6645  sales[saleID] */\n      dup2\n      sload\n      dup2\n      lt\n      tag_203\n      jumpi\n      tag_204\n      tag_115\n      jump\t// in\n    tag_204:\n    tag_203:\n      swap1\n      0x00\n      mstore\n      keccak256(0x00, 0x20)\n      swap1\n      0x06\n      mul\n      add\n        /* \"contracts/agency.sol\":6632:6652  sales[saleID].buyers */\n      0x04\n      add\n        /* \"contracts/agency.sol\":6632:6659  sales[saleID].buyers.length */\n      dup1\n      sload\n      swap1\n      pop\n        /* \"contracts/agency.sol\":6628:6629  i */\n      dup2\n        /* \"contracts/agency.sol\":6628:6659  i < sales[saleID].buyers.length */\n      lt\n        /* \"contracts/agency.sol\":6611:7079  for (uint i = 0; i < sales[saleID].buyers.length; i++){... */\n      iszero\n      tag_201\n      jumpi\n        /* \"contracts/agency.sol\":6689:6696  priceID */\n      dup3\n        /* \"contracts/agency.sol\":6684:6685  i */\n      dup2\n        /* \"contracts/agency.sol\":6684:6696  i != priceID */\n      eq\n        /* \"contracts/agency.sol\":6680:7068  if (i != priceID) {... */\n      tag_206\n      jumpi\n        /* \"contracts/agency.sol\":6725:6730  sales */\n      0x02\n        /* \"contracts/agency.sol\":6731:6737  saleID */\n      dup5\n        /* \"contracts/agency.sol\":6725:6738  sales[saleID] */\n      dup2\n      sload\n      dup2\n      lt\n      tag_207\n      jumpi\n      tag_208\n      tag_115\n      jump\t// in\n    tag_208:\n    tag_207:\n      swap1\n      0x00\n      mstore\n      keccak256(0x00, 0x20)\n      swap1\n      0x06\n      mul\n      add\n        /* \"contracts/agency.sol\":6725:6745  sales[saleID].buyers */\n      0x04\n      add\n        /* \"contracts/agency.sol\":6746:6747  i */\n      dup2\n        /* \"contracts/agency.sol\":6725:6748  sales[saleID].buyers[i] */\n      dup2\n      sload\n      dup2\n      lt\n      tag_210\n      jumpi\n      tag_211\n      tag_115\n      jump\t// in\n    tag_211:\n    tag_210:\n      swap1\n      0x00\n      mstore\n      keccak256(0x00, 0x20)\n      add\n      0x00\n      swap1\n      sload\n      swap1\n      0x0100\n      exp\n      swap1\n      div\n      0xffffffffffffffffffffffffffffffffffffffff\n      and\n        /* \"contracts/agency.sol\":6717:6758  payable(sales[saleID].buyers[i]).transfer */\n      0xffffffffffffffffffffffffffffffffffffffff\n      and\n        /* \"contracts/agency.sol\":6717:6783  payable(sales[saleID].buyers[i]).transfer(sales[saleID].prices[i]) */\n      0x08fc\n        /* \"contracts/agency.sol\":6759:6764  sales */\n      0x02\n        /* \"contracts/agency.sol\":6765:6771  saleID */\n      dup7\n        /* \"contracts/agency.sol\":6759:6772  sales[saleID] */\n      dup2\n      sload\n      dup2\n      lt\n      tag_213\n      jumpi\n      tag_214\n      tag_115\n      jump\t// in\n    tag_214:\n    tag_213:\n      swap1\n      0x00\n      mstore\n      keccak256(0x00, 0x20)\n      swap1\n      0x06\n      mul\n      add\n        /* \"contracts/agency.sol\":6759:6779  sales[saleID].prices */\n      0x05\n      add\n        /* \"contracts/agency.sol\":6780:6781  i */\n      dup4\n        /* \"contracts/agency.sol\":6759:6782  sales[saleID].prices[i] */\n      dup2\n      sload\n      dup2\n      lt\n      tag_216\n      jumpi\n      tag_217\n      tag_115\n      jump\t// in\n    tag_217:\n    tag_216:\n      swap1\n      0x00\n      mstore\n      keccak256(0x00, 0x20)\n      add\n      sload\n        /* \"contracts/agency.sol\":6717:6783  payable(sales[saleID].buyers[i]).transfer(sales[saleID].prices[i]) */\n      swap1\n      dup2\n      iszero\n      mul\n      swap1\n      mload(0x40)\n      0x00\n      mload(0x40)\n      dup1\n      dup4\n      sub\n      dup2\n      dup6\n      dup9\n      dup9\n      call\n      swap4\n      pop\n      pop\n      pop\n      pop\n      iszero\n      dup1\n      iszero\n      tag_220\n      jumpi\n      returndatasize\n      0x00\n      dup1\n      returndatacopy\n      revert(0x00, returndatasize)\n    tag_220:\n      pop\n        /* \"contracts/agency.sol\":6680:7068  if (i != priceID) {... */\n      jump(tag_221)\n    tag_206:\n        /* \"contracts/agency.sol\":6844:6849  sales */\n      0x02\n        /* \"contracts/agency.sol\":6850:6856  saleID */\n      dup5\n        /* \"contracts/agency.sol\":6844:6857  sales[saleID] */\n      dup2\n      sload\n      dup2\n      lt\n      tag_222\n      jumpi\n      tag_223\n      tag_115\n      jump\t// in\n    tag_223:\n    tag_222:\n      swap1\n      0x00\n      mstore\n      keccak256(0x00, 0x20)\n      swap1\n      0x06\n      mul\n      add\n        /* \"contracts/agency.sol\":6844:6863  sales[saleID].owner */\n      0x01\n      add\n      0x00\n      swap1\n      sload\n      swap1\n      0x0100\n      exp\n      swap1\n      div\n      0xffffffffffffffffffffffffffffffffffffffff\n      and\n        /* \"contracts/agency.sol\":6836:6873  payable(sales[saleID].owner).transfer */\n      0xffffffffffffffffffffffffffffffffffffffff\n      and\n        /* \"contracts/agency.sol\":6836:6904  payable(sales[saleID].owner).transfer(sales[saleID].prices[priceID]) */\n      0x08fc\n        /* \"contracts/agency.sol\":6874:6879  sales */\n      0x02\n        /* \"contracts/agency.sol\":6880:6886  saleID */\n      dup7\n        /* \"contracts/agency.sol\":6874:6887  sales[saleID] */\n      dup2\n      sload\n      dup2\n      lt\n      tag_225\n      jumpi\n      tag_226\n      tag_115\n      jump\t// in\n    tag_226:\n    tag_225:\n      swap1\n      0x00\n      mstore\n      keccak256(0x00, 0x20)\n      swap1\n      0x06\n      mul\n      add\n        /* \"contracts/agency.sol\":6874:6894  sales[saleID].prices */\n      0x05\n      add\n        /* \"contracts/agency.sol\":6895:6902  priceID */\n      dup6\n        /* \"contracts/agency.sol\":6874:6903  sales[saleID].prices[priceID] */\n      dup2\n      sload\n      dup2\n      lt\n      tag_228\n      jumpi\n      tag_229\n      tag_115\n      jump\t// in\n    tag_229:\n    tag_228:\n      swap1\n      0x00\n      mstore\n      keccak256(0x00, 0x20)\n      add\n      sload\n        /* \"contracts/agency.sol\":6836:6904  payable(sales[saleID].owner).transfer(sales[saleID].prices[priceID]) */\n      swap1\n      dup2\n      iszero\n      mul\n      swap1\n      mload(0x40)\n      0x00\n      mload(0x40)\n      dup1\n      dup4\n      sub\n      dup2\n      dup6\n      dup9\n      dup9\n      call\n      swap4\n      pop\n      pop\n      pop\n      pop\n      iszero\n      dup1\n      iszero\n      tag_232\n      jumpi\n      returndatasize\n      0x00\n      dup1\n      returndatacopy\n      revert(0x00, returndatasize)\n    tag_232:\n      pop\n        /* \"contracts/agency.sol\":6948:6953  sales */\n      0x02\n        /* \"contracts/agency.sol\":6954:6960  saleID */\n      dup5\n        /* \"contracts/agency.sol\":6948:6961  sales[saleID] */\n      dup2\n      sload\n      dup2\n      lt\n      tag_233\n      jumpi\n      tag_234\n      tag_115\n      jump\t// in\n    tag_234:\n    tag_233:\n      swap1\n      0x00\n      mstore\n      keccak256(0x00, 0x20)\n      swap1\n      0x06\n      mul\n      add\n        /* \"contracts/agency.sol\":6948:6968  sales[saleID].buyers */\n      0x04\n      add\n        /* \"contracts/agency.sol\":6969:6976  priceID */\n      dup4\n        /* \"contracts/agency.sol\":6948:6977  sales[saleID].buyers[priceID] */\n      dup2\n      sload\n      dup2\n      lt\n      tag_236\n      jumpi\n      tag_237\n      tag_115\n      jump\t// in\n    tag_237:\n    tag_236:\n      swap1\n      0x00\n      mstore\n      keccak256(0x00, 0x20)\n      add\n      0x00\n      swap1\n      sload\n      swap1\n      0x0100\n      exp\n      swap1\n      div\n      0xffffffffffffffffffffffffffffffffffffffff\n      and\n        /* \"contracts/agency.sol\":6923:6928  sales */\n      0x02\n        /* \"contracts/agency.sol\":6929:6935  saleID */\n      dup6\n        /* \"contracts/agency.sol\":6923:6936  sales[saleID] */\n      dup2\n      sload\n      dup2\n      lt\n      tag_239\n      jumpi\n      tag_240\n      tag_115\n      jump\t// in\n    tag_240:\n    tag_239:\n      swap1\n      0x00\n      mstore\n      keccak256(0x00, 0x20)\n      swap1\n      0x06\n      mul\n      add\n        /* \"contracts/agency.sol\":6923:6945  sales[saleID].newOwner */\n      0x02\n      add\n      0x00\n        /* \"contracts/agency.sol\":6923:6977  sales[saleID].newOwner = sales[saleID].buyers[priceID] */\n      0x0100\n      exp\n      dup2\n      sload\n      dup2\n      0xffffffffffffffffffffffffffffffffffffffff\n      mul\n      not\n      and\n      swap1\n      dup4\n      0xffffffffffffffffffffffffffffffffffffffff\n      and\n      mul\n      or\n      swap1\n      sstore\n      pop\n        /* \"contracts/agency.sol\":7023:7028  sales */\n      0x02\n        /* \"contracts/agency.sol\":7029:7035  saleID */\n      dup5\n        /* \"contracts/agency.sol\":7023:7036  sales[saleID] */\n      dup2\n      sload\n      dup2\n      lt\n      tag_242\n      jumpi\n      tag_243\n      tag_115\n      jump\t// in\n    tag_243:\n    tag_242:\n      swap1\n      0x00\n      mstore\n      keccak256(0x00, 0x20)\n      swap1\n      0x06\n      mul\n      add\n        /* \"contracts/agency.sol\":7023:7043  sales[saleID].buyers */\n      0x04\n      add\n        /* \"contracts/agency.sol\":7044:7051  priceID */\n      dup4\n        /* \"contracts/agency.sol\":7023:7052  sales[saleID].buyers[priceID] */\n      dup2\n      sload\n      dup2\n      lt\n      tag_245\n      jumpi\n      tag_246\n      tag_115\n      jump\t// in\n    tag_246:\n    tag_245:\n      swap1\n      0x00\n      mstore\n      keccak256(0x00, 0x20)\n      add\n      0x00\n      swap1\n      sload\n      swap1\n      0x0100\n      exp\n      swap1\n      div\n      0xffffffffffffffffffffffffffffffffffffffff\n      and\n        /* \"contracts/agency.sol\":6996:7005  buildings */\n      0x00\n        /* \"contracts/agency.sol\":7006:7013  buildID */\n      dup4\n        /* \"contracts/agency.sol\":6996:7014  buildings[buildID] */\n      dup2\n      sload\n      dup2\n      lt\n      tag_248\n      jumpi\n      tag_249\n      tag_115\n      jump\t// in\n    tag_249:\n    tag_248:\n      swap1\n      0x00\n      mstore\n      keccak256(0x00, 0x20)\n      swap1\n      0x05\n      mul\n      add\n        /* \"contracts/agency.sol\":6996:7020  buildings[buildID].owner */\n      0x01\n      add\n      0x00\n        /* \"contracts/agency.sol\":6996:7052  buildings[buildID].owner = sales[saleID].buyers[priceID] */\n      0x0100\n      exp\n      dup2\n      sload\n      dup2\n      0xffffffffffffffffffffffffffffffffffffffff\n      mul\n      not\n      and\n      swap1\n      dup4\n      0xffffffffffffffffffffffffffffffffffffffff\n      and\n      mul\n      or\n      swap1\n      sstore\n      pop\n        /* \"contracts/agency.sol\":6680:7068  if (i != priceID) {... */\n    tag_221:\n        /* \"contracts/agency.sol\":6661:6664  i++ */\n      dup1\n      dup1\n      0x01\n      add\n      swap2\n      pop\n      pop\n        /* \"contracts/agency.sol\":6611:7079  for (uint i = 0; i < sales[saleID].buyers.length; i++){... */\n      jump(tag_200)\n    tag_201:\n      pop\n        /* \"contracts/agency.sol\":7120:7125  false */\n      0x00\n        /* \"contracts/agency.sol\":7089:7098  buildings */\n      dup1\n        /* \"contracts/agency.sol\":7099:7106  buildID */\n      dup3\n        /* \"contracts/agency.sol\":7089:7107  buildings[buildID] */\n      dup2\n      sload\n      dup2\n      lt\n      tag_251\n      jumpi\n      tag_252\n      tag_115\n      jump\t// in\n    tag_252:\n    tag_251:\n      swap1\n      0x00\n      mstore\n      keccak256(0x00, 0x20)\n      swap1\n      0x05\n      mul\n      add\n        /* \"contracts/agency.sol\":7089:7117  buildings[buildID].saleSTATE */\n      0x04\n      add\n      0x01\n        /* \"contracts/agency.sol\":7089:7125  buildings[buildID].saleSTATE = false */\n      0x0100\n      exp\n      dup2\n      sload\n      dup2\n      0xff\n      mul\n      not\n      and\n      swap1\n      dup4\n      iszero\n      iszero\n      mul\n      or\n      swap1\n      sstore\n      pop\n        /* \"contracts/agency.sol\":6270:7133  {... */\n      pop\n        /* \"contracts/agency.sol\":6210:7133  function addPrice(uint saleID, uint priceID) public payable {... */\n      pop\n      pop\n      jump\t// out\n        /* \"contracts/agency.sol\":2101:2544  function createGift(uint buildID, address _adrTo) public onlyOwner(buildID) defaultSTATUS(buildID){... */\n    tag_51:\n        /* \"contracts/agency.sol\":2168:2175  buildID */\n      dup2\n        /* \"contracts/agency.sol\":1088:1098  msg.sender */\n      caller\n        /* \"contracts/agency.sol\":1060:1098  buildings[buildID].owner == msg.sender */\n      0xffffffffffffffffffffffffffffffffffffffff\n      and\n        /* \"contracts/agency.sol\":1060:1069  buildings */\n      0x00\n        /* \"contracts/agency.sol\":1070:1077  buildID */\n      dup3\n        /* \"contracts/agency.sol\":1060:1078  buildings[buildID] */\n      dup2\n      sload\n      dup2\n      lt\n      tag_255\n      jumpi\n      tag_256\n      tag_115\n      jump\t// in\n    tag_256:\n    tag_255:\n      swap1\n      0x00\n      mstore\n      keccak256(0x00, 0x20)\n      swap1\n      0x05\n      mul\n      add\n        /* \"contracts/agency.sol\":1060:1084  buildings[buildID].owner */\n      0x01\n      add\n      0x00\n      swap1\n      sload\n      swap1\n      0x0100\n      exp\n      swap1\n      div\n      0xffffffffffffffffffffffffffffffffffffffff\n      and\n        /* \"contracts/agency.sol\":1060:1098  buildings[buildID].owner == msg.sender */\n      0xffffffffffffffffffffffffffffffffffffffff\n      and\n      eq\n        /* \"contracts/agency.sol\":1052:1120  require(buildings[buildID].owner == msg.sender, \"Is not your build\") */\n      tag_258\n      jumpi\n      mload(0x40)\n      0x08c379a000000000000000000000000000000000000000000000000000000000\n      dup2\n      mstore\n      0x04\n      add\n      tag_259\n      swap1\n      tag_260\n      jump\t// in\n    tag_259:\n      mload(0x40)\n      dup1\n      swap2\n      sub\n      swap1\n      revert\n    tag_258:\n        /* \"contracts/agency.sol\":2191:2198  buildID */\n      dup3\n        /* \"contracts/agency.sol\":1234:1239  false */\n      0x00\n        /* \"contracts/agency.sol\":1202:1239  buildings[buildID].giftSTATE == false */\n      iszero\n      iszero\n        /* \"contracts/agency.sol\":1202:1211  buildings */\n      0x00\n        /* \"contracts/agency.sol\":1212:1219  buildID */\n      dup3\n        /* \"contracts/agency.sol\":1202:1220  buildings[buildID] */\n      dup2\n      sload\n      dup2\n      lt\n      tag_262\n      jumpi\n      tag_263\n      tag_115\n      jump\t// in\n    tag_263:\n    tag_262:\n      swap1\n      0x00\n      mstore\n      keccak256(0x00, 0x20)\n      swap1\n      0x05\n      mul\n      add\n        /* \"contracts/agency.sol\":1202:1230  buildings[buildID].giftSTATE */\n      0x04\n      add\n      0x00\n      swap1\n      sload\n      swap1\n      0x0100\n      exp\n      swap1\n      div\n      0xff\n      and\n        /* \"contracts/agency.sol\":1202:1239  buildings[buildID].giftSTATE == false */\n      iszero\n      iszero\n      eq\n        /* \"contracts/agency.sol\":1194:1262  require(buildings[buildID].giftSTATE == false, \"Already in present\") */\n      tag_265\n      jumpi\n      mload(0x40)\n      0x08c379a000000000000000000000000000000000000000000000000000000000\n      dup2\n      mstore\n      0x04\n      add\n      tag_266\n      swap1\n      tag_267\n      jump\t// in\n    tag_266:\n      mload(0x40)\n      dup1\n      swap2\n      sub\n      swap1\n      revert\n    tag_265:\n        /* \"contracts/agency.sol\":1313:1318  false */\n      0x00\n        /* \"contracts/agency.sol\":1281:1318  buildings[buildID].saleSTATE == false */\n      iszero\n      iszero\n        /* \"contracts/agency.sol\":1281:1290  buildings */\n      0x00\n        /* \"contracts/agency.sol\":1291:1298  buildID */\n      dup3\n        /* \"contracts/agency.sol\":1281:1299  buildings[buildID] */\n      dup2\n      sload\n      dup2\n      lt\n      tag_268\n      jumpi\n      tag_269\n      tag_115\n      jump\t// in\n    tag_269:\n    tag_268:\n      swap1\n      0x00\n      mstore\n      keccak256(0x00, 0x20)\n      swap1\n      0x05\n      mul\n      add\n        /* \"contracts/agency.sol\":1281:1309  buildings[buildID].saleSTATE */\n      0x04\n      add\n      0x01\n      swap1\n      sload\n      swap1\n      0x0100\n      exp\n      swap1\n      div\n      0xff\n      and\n        /* \"contracts/agency.sol\":1281:1318  buildings[buildID].saleSTATE == false */\n      iszero\n      iszero\n      eq\n        /* \"contracts/agency.sol\":1273:1338  require(buildings[buildID].saleSTATE == false, \"Already in sale\") */\n      tag_271\n      jumpi\n      mload(0x40)\n      0x08c379a000000000000000000000000000000000000000000000000000000000\n      dup2\n      mstore\n      0x04\n      add\n      tag_272\n      swap1\n      tag_273\n      jump\t// in\n    tag_272:\n      mload(0x40)\n      dup1\n      swap2\n      sub\n      swap1\n      revert\n    tag_271:\n        /* \"contracts/agency.sol\":1390:1395  false */\n      0x00\n        /* \"contracts/agency.sol\":1357:1395  buildings[buildID].arestSTATE == false */\n      iszero\n      iszero\n        /* \"contracts/agency.sol\":1357:1366  buildings */\n      0x00\n        /* \"contracts/agency.sol\":1367:1374  buildID */\n      dup3\n        /* \"contracts/agency.sol\":1357:1375  buildings[buildID] */\n      dup2\n      sload\n      dup2\n      lt\n      tag_274\n      jumpi\n      tag_275\n      tag_115\n      jump\t// in\n    tag_275:\n    tag_274:\n      swap1\n      0x00\n      mstore\n      keccak256(0x00, 0x20)\n      swap1\n      0x05\n      mul\n      add\n        /* \"contracts/agency.sol\":1357:1386  buildings[buildID].arestSTATE */\n      0x04\n      add\n      0x02\n      swap1\n      sload\n      swap1\n      0x0100\n      exp\n      swap1\n      div\n      0xff\n      and\n        /* \"contracts/agency.sol\":1357:1395  buildings[buildID].arestSTATE == false */\n      iszero\n      iszero\n      eq\n        /* \"contracts/agency.sol\":1349:1414  require(buildings[buildID].arestSTATE == false, \"Build in arest\") */\n      tag_277\n      jumpi\n      mload(0x40)\n      0x08c379a000000000000000000000000000000000000000000000000000000000\n      dup2\n      mstore\n      0x04\n      add\n      tag_278\n      swap1\n      tag_279\n      jump\t// in\n    tag_278:\n      mload(0x40)\n      dup1\n      swap2\n      sub\n      swap1\n      revert\n    tag_277:\n        /* \"contracts/agency.sol\":2236:2237  0 */\n      0x00\n        /* \"contracts/agency.sol\":2218:2238  _adrTo != address(0) */\n      0xffffffffffffffffffffffffffffffffffffffff\n      and\n        /* \"contracts/agency.sol\":2218:2224  _adrTo */\n      dup4\n        /* \"contracts/agency.sol\":2218:2238  _adrTo != address(0) */\n      0xffffffffffffffffffffffffffffffffffffffff\n      and\n      sub\n        /* \"contracts/agency.sol\":2210:2256  require(_adrTo != address(0), \"wrong_address\") */\n      tag_281\n      jumpi\n      mload(0x40)\n      0x08c379a000000000000000000000000000000000000000000000000000000000\n      dup2\n      mstore\n      0x04\n      add\n      tag_282\n      swap1\n      tag_283\n      jump\t// in\n    tag_282:\n      mload(0x40)\n      dup1\n      swap2\n      sub\n      swap1\n      revert\n    tag_281:\n        /* \"contracts/agency.sol\":2285:2294  buildings */\n      0x00\n        /* \"contracts/agency.sol\":2285:2301  buildings.length */\n      dup1\n      sload\n      swap1\n      pop\n        /* \"contracts/agency.sol\":2275:2282  buildID */\n      dup5\n        /* \"contracts/agency.sol\":2275:2301  buildID < buildings.length */\n      lt\n        /* \"contracts/agency.sol\":2267:2324  require(buildID < buildings.length,\"wrong buildID value\") */\n      tag_284\n      jumpi\n      mload(0x40)\n      0x08c379a000000000000000000000000000000000000000000000000000000000\n      dup2\n      mstore\n      0x04\n      add\n      tag_285\n      swap1\n      tag_286\n      jump\t// in\n    tag_285:\n      mload(0x40)\n      dup1\n      swap2\n      sub\n      swap1\n      revert\n    tag_284:\n        /* \"contracts/agency.sol\":2353:2363  msg.sender */\n      caller\n        /* \"contracts/agency.sol\":2343:2363  _adrTo != msg.sender */\n      0xffffffffffffffffffffffffffffffffffffffff\n      and\n        /* \"contracts/agency.sol\":2343:2349  _adrTo */\n      dup4\n        /* \"contracts/agency.sol\":2343:2363  _adrTo != msg.sender */\n      0xffffffffffffffffffffffffffffffffffffffff\n      and\n      sub\n        /* \"contracts/agency.sol\":2335:2377  require(_adrTo != msg.sender, \"self gift\") */\n      tag_287\n      jumpi\n      mload(0x40)\n      0x08c379a000000000000000000000000000000000000000000000000000000000\n      dup2\n      mstore\n      0x04\n      add\n      tag_288\n      swap1\n      tag_289\n      jump\t// in\n    tag_288:\n      mload(0x40)\n      dup1\n      swap2\n      sub\n      swap1\n      revert\n    tag_287:\n        /* \"contracts/agency.sol\":2388:2393  gifts */\n      0x01\n        /* \"contracts/agency.sol\":2399:2489  Gift(gifts.length, buildID, msg.sender,_adrTo, giftTime+ block.timestamp, giftSTAT.ACTIVE) */\n      mload(0x40)\n      dup1\n      0xc0\n      add\n      0x40\n      mstore\n      dup1\n        /* \"contracts/agency.sol\":2404:2409  gifts */\n      0x01\n        /* \"contracts/agency.sol\":2404:2416  gifts.length */\n      dup1\n      sload\n      swap1\n      pop\n        /* \"contracts/agency.sol\":2399:2489  Gift(gifts.length, buildID, msg.sender,_adrTo, giftTime+ block.timestamp, giftSTAT.ACTIVE) */\n      dup2\n      mstore\n      0x20\n      add\n        /* \"contracts/agency.sol\":2418:2425  buildID */\n      dup7\n        /* \"contracts/agency.sol\":2399:2489  Gift(gifts.length, buildID, msg.sender,_adrTo, giftTime+ block.timestamp, giftSTAT.ACTIVE) */\n      dup2\n      mstore\n      0x20\n      add\n        /* \"contracts/agency.sol\":2427:2437  msg.sender */\n      caller\n        /* \"contracts/agency.sol\":2399:2489  Gift(gifts.length, buildID, msg.sender,_adrTo, giftTime+ block.timestamp, giftSTAT.ACTIVE) */\n      0xffffffffffffffffffffffffffffffffffffffff\n      and\n      dup2\n      mstore\n      0x20\n      add\n        /* \"contracts/agency.sol\":2438:2444  _adrTo */\n      dup6\n        /* \"contracts/agency.sol\":2399:2489  Gift(gifts.length, buildID, msg.sender,_adrTo, giftTime+ block.timestamp, giftSTAT.ACTIVE) */\n      0xffffffffffffffffffffffffffffffffffffffff\n      and\n      dup2\n      mstore\n      0x20\n      add\n        /* \"contracts/agency.sol\":2456:2471  block.timestamp */\n      timestamp\n        /* \"contracts/agency.sol\":2446:2454  giftTime */\n      sload(0x04)\n        /* \"contracts/agency.sol\":2446:2471  giftTime+ block.timestamp */\n      tag_290\n      swap2\n      swap1\n      tag_291\n      jump\t// in\n    tag_290:\n        /* \"contracts/agency.sol\":2399:2489  Gift(gifts.length, buildID, msg.sender,_adrTo, giftTime+ block.timestamp, giftSTAT.ACTIVE) */\n      dup2\n      mstore\n      0x20\n      add\n        /* \"contracts/agency.sol\":2473:2488  giftSTAT.ACTIVE */\n      0x00\n        /* \"contracts/agency.sol\":2399:2489  Gift(gifts.length, buildID, msg.sender,_adrTo, giftTime+ block.timestamp, giftSTAT.ACTIVE) */\n      0x04\n      dup2\n      gt\n      iszero\n      tag_292\n      jumpi\n      tag_293\n      tag_294\n      jump\t// in\n    tag_293:\n    tag_292:\n      dup2\n      mstore\n      pop\n        /* \"contracts/agency.sol\":2388:2490  gifts.push(Gift(gifts.length, buildID, msg.sender,_adrTo, giftTime+ block.timestamp, giftSTAT.ACTIVE)) */\n      swap1\n      dup1\n      0x01\n      dup2\n      sload\n      add\n      dup1\n      dup3\n      sstore\n      dup1\n      swap2\n      pop\n      pop\n      0x01\n      swap1\n      sub\n      swap1\n      0x00\n      mstore\n      keccak256(0x00, 0x20)\n      swap1\n      0x06\n      mul\n      add\n      0x00\n      swap1\n      swap2\n      swap1\n      swap2\n      swap1\n      swap2\n      pop\n      0x00\n      dup3\n      add\n      mload\n      dup2\n      0x00\n      add\n      sstore\n      0x20\n      dup3\n      add\n      mload\n      dup2\n      0x01\n      add\n      sstore\n      0x40\n      dup3\n      add\n      mload\n      dup2\n      0x02\n      add\n      exp(0x0100, 0x00)\n      dup2\n      sload\n      dup2\n      0xffffffffffffffffffffffffffffffffffffffff\n      mul\n      not\n      and\n      swap1\n      dup4\n      0xffffffffffffffffffffffffffffffffffffffff\n      and\n      mul\n      or\n      swap1\n      sstore\n      pop\n      0x60\n      dup3\n      add\n      mload\n      dup2\n      0x03\n      add\n      exp(0x0100, 0x00)\n      dup2\n      sload\n      dup2\n      0xffffffffffffffffffffffffffffffffffffffff\n      mul\n      not\n      and\n      swap1\n      dup4\n      0xffffffffffffffffffffffffffffffffffffffff\n      and\n      mul\n      or\n      swap1\n      sstore\n      pop\n      0x80\n      dup3\n      add\n      mload\n      dup2\n      0x04\n      add\n      sstore\n      0xa0\n      dup3\n      add\n      mload\n      dup2\n      0x05\n      add\n      exp(0x0100, 0x00)\n      dup2\n      sload\n      dup2\n      0xff\n      mul\n      not\n      and\n      swap1\n      dup4\n      0x04\n      dup2\n      gt\n      iszero\n      tag_296\n      jumpi\n      tag_297\n      tag_294\n      jump\t// in\n    tag_297:\n    tag_296:\n      mul\n      or\n      swap1\n      sstore\n      pop\n      pop\n      pop\n        /* \"contracts/agency.sol\":2532:2536  true */\n      0x01\n        /* \"contracts/agency.sol\":2501:2510  buildings */\n      0x00\n        /* \"contracts/agency.sol\":2511:2518  buildID */\n      dup6\n        /* \"contracts/agency.sol\":2501:2519  buildings[buildID] */\n      dup2\n      sload\n      dup2\n      lt\n      tag_298\n      jumpi\n      tag_299\n      tag_115\n      jump\t// in\n    tag_299:\n    tag_298:\n      swap1\n      0x00\n      mstore\n      keccak256(0x00, 0x20)\n      swap1\n      0x05\n      mul\n      add\n        /* \"contracts/agency.sol\":2501:2529  buildings[buildID].giftSTATE */\n      0x04\n      add\n      0x00\n        /* \"contracts/agency.sol\":2501:2536  buildings[buildID].giftSTATE = true */\n      0x0100\n      exp\n      dup2\n      sload\n      dup2\n      0xff\n      mul\n      not\n      and\n      swap1\n      dup4\n      iszero\n      iszero\n      mul\n      or\n      swap1\n      sstore\n      pop\n        /* \"contracts/agency.sol\":1131:1132  _ */\n      pop\n        /* \"contracts/agency.sol\":2101:2544  function createGift(uint buildID, address _adrTo) public onlyOwner(buildID) defaultSTATUS(buildID){... */\n      pop\n      pop\n      pop\n      jump\t// out\n        /* \"contracts/agency.sol\":4348:4756  function createSale(uint buildID, uint _price) public onlyOwner(buildID) defaultSTATUS(buildID){... */\n    tag_55:\n        /* \"contracts/agency.sol\":4412:4419  buildID */\n      dup2\n        /* \"contracts/agency.sol\":1088:1098  msg.sender */\n      caller\n        /* \"contracts/agency.sol\":1060:1098  buildings[buildID].owner == msg.sender */\n      0xffffffffffffffffffffffffffffffffffffffff\n      and\n        /* \"contracts/agency.sol\":1060:1069  buildings */\n      0x00\n        /* \"contracts/agency.sol\":1070:1077  buildID */\n      dup3\n        /* \"contracts/agency.sol\":1060:1078  buildings[buildID] */\n      dup2\n      sload\n      dup2\n      lt\n      tag_302\n      jumpi\n      tag_303\n      tag_115\n      jump\t// in\n    tag_303:\n    tag_302:\n      swap1\n      0x00\n      mstore\n      keccak256(0x00, 0x20)\n      swap1\n      0x05\n      mul\n      add\n        /* \"contracts/agency.sol\":1060:1084  buildings[buildID].owner */\n      0x01\n      add\n      0x00\n      swap1\n      sload\n      swap1\n      0x0100\n      exp\n      swap1\n      div\n      0xffffffffffffffffffffffffffffffffffffffff\n      and\n        /* \"contracts/agency.sol\":1060:1098  buildings[buildID].owner == msg.sender */\n      0xffffffffffffffffffffffffffffffffffffffff\n      and\n      eq\n        /* \"contracts/agency.sol\":1052:1120  require(buildings[buildID].owner == msg.sender, \"Is not your build\") */\n      tag_305\n      jumpi\n      mload(0x40)\n      0x08c379a000000000000000000000000000000000000000000000000000000000\n      dup2\n      mstore\n      0x04\n      add\n      tag_306\n      swap1\n      tag_260\n      jump\t// in\n    tag_306:\n      mload(0x40)\n      dup1\n      swap2\n      sub\n      swap1\n      revert\n    tag_305:\n        /* \"contracts/agency.sol\":4435:4442  buildID */\n      dup3\n        /* \"contracts/agency.sol\":1234:1239  false */\n      0x00\n        /* \"contracts/agency.sol\":1202:1239  buildings[buildID].giftSTATE == false */\n      iszero\n      iszero\n        /* \"contracts/agency.sol\":1202:1211  buildings */\n      0x00\n        /* \"contracts/agency.sol\":1212:1219  buildID */\n      dup3\n        /* \"contracts/agency.sol\":1202:1220  buildings[buildID] */\n      dup2\n      sload\n      dup2\n      lt\n      tag_308\n      jumpi\n      tag_309\n      tag_115\n      jump\t// in\n    tag_309:\n    tag_308:\n      swap1\n      0x00\n      mstore\n      keccak256(0x00, 0x20)\n      swap1\n      0x05\n      mul\n      add\n        /* \"contracts/agency.sol\":1202:1230  buildings[buildID].giftSTATE */\n      0x04\n      add\n      0x00\n      swap1\n      sload\n      swap1\n      0x0100\n      exp\n      swap1\n      div\n      0xff\n      and\n        /* \"contracts/agency.sol\":1202:1239  buildings[buildID].giftSTATE == false */\n      iszero\n      iszero\n      eq\n        /* \"contracts/agency.sol\":1194:1262  require(buildings[buildID].giftSTATE == false, \"Already in present\") */\n      tag_311\n      jumpi\n      mload(0x40)\n      0x08c379a000000000000000000000000000000000000000000000000000000000\n      dup2\n      mstore\n      0x04\n      add\n      tag_312\n      swap1\n      tag_267\n      jump\t// in\n    tag_312:\n      mload(0x40)\n      dup1\n      swap2\n      sub\n      swap1\n      revert\n    tag_311:\n        /* \"contracts/agency.sol\":1313:1318  false */\n      0x00\n        /* \"contracts/agency.sol\":1281:1318  buildings[buildID].saleSTATE == false */\n      iszero\n      iszero\n        /* \"contracts/agency.sol\":1281:1290  buildings */\n      0x00\n        /* \"contracts/agency.sol\":1291:1298  buildID */\n      dup3\n        /* \"contracts/agency.sol\":1281:1299  buildings[buildID] */\n      dup2\n      sload\n      dup2\n      lt\n      tag_313\n      jumpi\n      tag_314\n      tag_115\n      jump\t// in\n    tag_314:\n    tag_313:\n      swap1\n      0x00\n      mstore\n      keccak256(0x00, 0x20)\n      swap1\n      0x05\n      mul\n      add\n        /* \"contracts/agency.sol\":1281:1309  buildings[buildID].saleSTATE */\n      0x04\n      add\n      0x01\n      swap1\n      sload\n      swap1\n      0x0100\n      exp\n      swap1\n      div\n      0xff\n      and\n        /* \"contracts/agency.sol\":1281:1318  buildings[buildID].saleSTATE == false */\n      iszero\n      iszero\n      eq\n        /* \"contracts/agency.sol\":1273:1338  require(buildings[buildID].saleSTATE == false, \"Already in sale\") */\n      tag_316\n      jumpi\n      mload(0x40)\n      0x08c379a000000000000000000000000000000000000000000000000000000000\n      dup2\n      mstore\n      0x04\n      add\n      tag_317\n      swap1\n      tag_273\n      jump\t// in\n    tag_317:\n      mload(0x40)\n      dup1\n      swap2\n      sub\n      swap1\n      revert\n    tag_316:\n        /* \"contracts/agency.sol\":1390:1395  false */\n      0x00\n        /* \"contracts/agency.sol\":1357:1395  buildings[buildID].arestSTATE == false */\n      iszero\n      iszero\n        /* \"contracts/agency.sol\":1357:1366  buildings */\n      0x00\n        /* \"contracts/agency.sol\":1367:1374  buildID */\n      dup3\n        /* \"contracts/agency.sol\":1357:1375  buildings[buildID] */\n      dup2\n      sload\n      dup2\n      lt\n      tag_318\n      jumpi\n      tag_319\n      tag_115\n      jump\t// in\n    tag_319:\n    tag_318:\n      swap1\n      0x00\n      mstore\n      keccak256(0x00, 0x20)\n      swap1\n      0x05\n      mul\n      add\n        /* \"contracts/agency.sol\":1357:1386  buildings[buildID].arestSTATE */\n      0x04\n      add\n      0x02\n      swap1\n      sload\n      swap1\n      0x0100\n      exp\n      swap1\n      div\n      0xff\n      and\n        /* \"contracts/agency.sol\":1357:1395  buildings[buildID].arestSTATE == false */\n      iszero\n      iszero\n      eq\n        /* \"contracts/agency.sol\":1349:1414  require(buildings[buildID].arestSTATE == false, \"Build in arest\") */\n      tag_321\n      jumpi\n      mload(0x40)\n      0x08c379a000000000000000000000000000000000000000000000000000000000\n      dup2\n      mstore\n      0x04\n      add\n      tag_322\n      swap1\n      tag_279\n      jump\t// in\n    tag_322:\n      mload(0x40)\n      dup1\n      swap2\n      sub\n      swap1\n      revert\n    tag_321:\n        /* \"contracts/agency.sol\":4472:4481  buildings */\n      0x00\n        /* \"contracts/agency.sol\":4472:4488  buildings.length */\n      dup1\n      sload\n      swap1\n      pop\n        /* \"contracts/agency.sol\":4462:4469  buildID */\n      dup5\n        /* \"contracts/agency.sol\":4462:4488  buildID < buildings.length */\n      lt\n        /* \"contracts/agency.sol\":4454:4511  require(buildID < buildings.length,\"wrong buildID value\") */\n      tag_324\n      jumpi\n      mload(0x40)\n      0x08c379a000000000000000000000000000000000000000000000000000000000\n      dup2\n      mstore\n      0x04\n      add\n      tag_325\n      swap1\n      tag_286\n      jump\t// in\n    tag_325:\n      mload(0x40)\n      dup1\n      swap2\n      sub\n      swap1\n      revert\n    tag_324:\n        /* \"contracts/agency.sol\":4539:4548  10**9 wei */\n      0x3b9aca00\n        /* \"contracts/agency.sol\":4530:4536  _price */\n      dup4\n        /* \"contracts/agency.sol\":4530:4548  _price > 10**9 wei */\n      gt\n        /* \"contracts/agency.sol\":4522:4549  require(_price > 10**9 wei) */\n      tag_326\n      jumpi\n      0x00\n      dup1\n      revert\n    tag_326:\n        /* \"contracts/agency.sol\":4560:4584  address[] memory _buyers */\n      0x60\n        /* \"contracts/agency.sol\":4595:4616  uint[] memory _prices */\n      dup1\n        /* \"contracts/agency.sol\":4627:4632  sales */\n      0x02\n        /* \"contracts/agency.sol\":4638:4701  Sale(buildID, msg.sender, address(0), _price, _buyers, _prices) */\n      mload(0x40)\n      dup1\n      0xc0\n      add\n      0x40\n      mstore\n      dup1\n        /* \"contracts/agency.sol\":4643:4650  buildID */\n      dup9\n        /* \"contracts/agency.sol\":4638:4701  Sale(buildID, msg.sender, address(0), _price, _buyers, _prices) */\n      dup2\n      mstore\n      0x20\n      add\n        /* \"contracts/agency.sol\":4652:4662  msg.sender */\n      caller\n        /* \"contracts/agency.sol\":4638:4701  Sale(buildID, msg.sender, address(0), _price, _buyers, _prices) */\n      0xffffffffffffffffffffffffffffffffffffffff\n      and\n      dup2\n      mstore\n      0x20\n      add\n        /* \"contracts/agency.sol\":4672:4673  0 */\n      0x00\n        /* \"contracts/agency.sol\":4638:4701  Sale(buildID, msg.sender, address(0), _price, _buyers, _prices) */\n      0xffffffffffffffffffffffffffffffffffffffff\n      and\n      dup2\n      mstore\n      0x20\n      add\n        /* \"contracts/agency.sol\":4676:4682  _price */\n      dup8\n        /* \"contracts/agency.sol\":4638:4701  Sale(buildID, msg.sender, address(0), _price, _buyers, _prices) */\n      dup2\n      mstore\n      0x20\n      add\n        /* \"contracts/agency.sol\":4684:4691  _buyers */\n      dup5\n        /* \"contracts/agency.sol\":4638:4701  Sale(buildID, msg.sender, address(0), _price, _buyers, _prices) */\n      dup2\n      mstore\n      0x20\n      add\n        /* \"contracts/agency.sol\":4693:4700  _prices */\n      dup4\n        /* \"contracts/agency.sol\":4638:4701  Sale(buildID, msg.sender, address(0), _price, _buyers, _prices) */\n      dup2\n      mstore\n      pop\n        /* \"contracts/agency.sol\":4627:4702  sales.push(Sale(buildID, msg.sender, address(0), _price, _buyers, _prices)) */\n      swap1\n      dup1\n      0x01\n      dup2\n      sload\n      add\n      dup1\n      dup3\n      sstore\n      dup1\n      swap2\n      pop\n      pop\n      0x01\n      swap1\n      sub\n      swap1\n      0x00\n      mstore\n      keccak256(0x00, 0x20)\n      swap1\n      0x06\n      mul\n      add\n      0x00\n      swap1\n      swap2\n      swap1\n      swap2\n      swap1\n      swap2\n      pop\n      0x00\n      dup3\n      add\n      mload\n      dup2\n      0x00\n      add\n      sstore\n      0x20\n      dup3\n      add\n      mload\n      dup2\n      0x01\n      add\n      exp(0x0100, 0x00)\n      dup2\n      sload\n      dup2\n      0xffffffffffffffffffffffffffffffffffffffff\n      mul\n      not\n      and\n      swap1\n      dup4\n      0xffffffffffffffffffffffffffffffffffffffff\n      and\n      mul\n      or\n      swap1\n      sstore\n      pop\n      0x40\n      dup3\n      add\n      mload\n      dup2\n      0x02\n      add\n      exp(0x0100, 0x00)\n      dup2\n      sload\n      dup2\n      0xffffffffffffffffffffffffffffffffffffffff\n      mul\n      not\n      and\n      swap1\n      dup4\n      0xffffffffffffffffffffffffffffffffffffffff\n      and\n      mul\n      or\n      swap1\n      sstore\n      pop\n      0x60\n      dup3\n      add\n      mload\n      dup2\n      0x03\n      add\n      sstore\n      0x80\n      dup3\n      add\n      mload\n      dup2\n      0x04\n      add\n      swap1\n      dup1\n      mload\n      swap1\n      0x20\n      add\n      swap1\n      tag_328\n      swap3\n      swap2\n      swap1\n      tag_329\n      jump\t// in\n    tag_328:\n      pop\n      0xa0\n      dup3\n      add\n      mload\n      dup2\n      0x05\n      add\n      swap1\n      dup1\n      mload\n      swap1\n      0x20\n      add\n      swap1\n      tag_330\n      swap3\n      swap2\n      swap1\n      tag_331\n      jump\t// in\n    tag_330:\n      pop\n      pop\n      pop\n        /* \"contracts/agency.sol\":4744:4748  true */\n      0x01\n        /* \"contracts/agency.sol\":4713:4722  buildings */\n      0x00\n        /* \"contracts/agency.sol\":4723:4730  buildID */\n      dup8\n        /* \"contracts/agency.sol\":4713:4731  buildings[buildID] */\n      dup2\n      sload\n      dup2\n      lt\n      tag_332\n      jumpi\n      tag_333\n      tag_115\n      jump\t// in\n    tag_333:\n    tag_332:\n      swap1\n      0x00\n      mstore\n      keccak256(0x00, 0x20)\n      swap1\n      0x05\n      mul\n      add\n        /* \"contracts/agency.sol\":4713:4741  buildings[buildID].saleSTATE */\n      0x04\n      add\n      0x01\n        /* \"contracts/agency.sol\":4713:4748  buildings[buildID].saleSTATE = true */\n      0x0100\n      exp\n      dup2\n      sload\n      dup2\n      0xff\n      mul\n      not\n      and\n      swap1\n      dup4\n      iszero\n      iszero\n      mul\n      or\n      swap1\n      sstore\n      pop\n        /* \"contracts/agency.sol\":4443:4756  {... */\n      pop\n      pop\n        /* \"contracts/agency.sol\":1131:1132  _ */\n      pop\n        /* \"contracts/agency.sol\":4348:4756  function createSale(uint buildID, uint _price) public onlyOwner(buildID) defaultSTATUS(buildID){... */\n      pop\n      pop\n      pop\n      jump\t// out\n        /* \"contracts/agency.sol\":7708:7825  function getBuyers(uint saleID) public view returns(address[] memory){... */\n    tag_59:\n        /* \"contracts/agency.sol\":7760:7776  address[] memory */\n      0x60\n        /* \"contracts/agency.sol\":7795:7800  sales */\n      0x02\n        /* \"contracts/agency.sol\":7801:7807  saleID */\n      dup3\n        /* \"contracts/agency.sol\":7795:7808  sales[saleID] */\n      dup2\n      sload\n      dup2\n      lt\n      tag_336\n      jumpi\n      tag_337\n      tag_115\n      jump\t// in\n    tag_337:\n    tag_336:\n      swap1\n      0x00\n      mstore\n      keccak256(0x00, 0x20)\n      swap1\n      0x06\n      mul\n      add\n        /* \"contracts/agency.sol\":7795:7815  sales[saleID].buyers */\n      0x04\n      add\n        /* \"contracts/agency.sol\":7788:7815  return sales[saleID].buyers */\n      dup1\n      sload\n      dup1\n      0x20\n      mul\n      0x20\n      add\n      mload(0x40)\n      swap1\n      dup2\n      add\n      0x40\n      mstore\n      dup1\n      swap3\n      swap2\n      swap1\n      dup2\n      dup2\n      mstore\n      0x20\n      add\n      dup3\n      dup1\n      sload\n      dup1\n      iszero\n      tag_339\n      jumpi\n      0x20\n      mul\n      dup3\n      add\n      swap2\n      swap1\n      0x00\n      mstore\n      keccak256(0x00, 0x20)\n      swap1\n    tag_340:\n      dup2\n      0x00\n      swap1\n      sload\n      swap1\n      0x0100\n      exp\n      swap1\n      div\n      0xffffffffffffffffffffffffffffffffffffffff\n      and\n      0xffffffffffffffffffffffffffffffffffffffff\n      and\n      dup2\n      mstore\n      0x20\n      add\n      swap1\n      0x01\n      add\n      swap1\n      dup1\n      dup4\n      gt\n      tag_340\n      jumpi\n    tag_339:\n      pop\n      pop\n      pop\n      pop\n      pop\n      swap1\n      pop\n        /* \"contracts/agency.sol\":7708:7825  function getBuyers(uint saleID) public view returns(address[] memory){... */\n      swap2\n      swap1\n      pop\n      jump\t// out\n        /* \"contracts/agency.sol\":7141:7698  function canelSale(uint saleID) public payable {... */\n    tag_64:\n        /* \"contracts/agency.sol\":7199:7211  uint buildID */\n      0x00\n        /* \"contracts/agency.sol\":7214:7219  sales */\n      0x02\n        /* \"contracts/agency.sol\":7220:7226  saleID */\n      dup3\n        /* \"contracts/agency.sol\":7214:7227  sales[saleID] */\n      dup2\n      sload\n      dup2\n      lt\n      tag_342\n      jumpi\n      tag_343\n      tag_115\n      jump\t// in\n    tag_343:\n    tag_342:\n      swap1\n      0x00\n      mstore\n      keccak256(0x00, 0x20)\n      swap1\n      0x06\n      mul\n      add\n        /* \"contracts/agency.sol\":7214:7235  sales[saleID].buildID */\n      0x00\n      add\n      sload\n        /* \"contracts/agency.sol\":7199:7235  uint buildID = sales[saleID].buildID */\n      swap1\n      pop\n        /* \"contracts/agency.sol\":7263:7268  sales */\n      0x02\n        /* \"contracts/agency.sol\":7263:7275  sales.length */\n      dup1\n      sload\n      swap1\n      pop\n        /* \"contracts/agency.sol\":7254:7260  saleID */\n      dup3\n        /* \"contracts/agency.sol\":7254:7275  saleID < sales.length */\n      lt\n        /* \"contracts/agency.sol\":7246:7297  require(saleID < sales.length,\"wrong saleID value\") */\n      tag_345\n      jumpi\n      mload(0x40)\n      0x08c379a000000000000000000000000000000000000000000000000000000000\n      dup2\n      mstore\n      0x04\n      add\n      tag_346\n      swap1\n      tag_126\n      jump\t// in\n    tag_346:\n      mload(0x40)\n      dup1\n      swap2\n      sub\n      swap1\n      revert\n    tag_345:\n        /* \"contracts/agency.sol\":7350:7351  0 */\n      0x00\n        /* \"contracts/agency.sol\":7316:7352  sales[saleID].newOwner == address(0) */\n      0xffffffffffffffffffffffffffffffffffffffff\n      and\n        /* \"contracts/agency.sol\":7316:7321  sales */\n      0x02\n        /* \"contracts/agency.sol\":7322:7328  saleID */\n      dup4\n        /* \"contracts/agency.sol\":7316:7329  sales[saleID] */\n      dup2\n      sload\n      dup2\n      lt\n      tag_347\n      jumpi\n      tag_348\n      tag_115\n      jump\t// in\n    tag_348:\n    tag_347:\n      swap1\n      0x00\n      mstore\n      keccak256(0x00, 0x20)\n      swap1\n      0x06\n      mul\n      add\n        /* \"contracts/agency.sol\":7316:7338  sales[saleID].newOwner */\n      0x02\n      add\n      0x00\n      swap1\n      sload\n      swap1\n      0x0100\n      exp\n      swap1\n      div\n      0xffffffffffffffffffffffffffffffffffffffff\n      and\n        /* \"contracts/agency.sol\":7316:7352  sales[saleID].newOwner == address(0) */\n      0xffffffffffffffffffffffffffffffffffffffff\n      and\n      eq\n        /* \"contracts/agency.sol\":7308:7371  require(sales[saleID].newOwner == address(0), \"Sale is closed\") */\n      tag_350\n      jumpi\n      mload(0x40)\n      0x08c379a000000000000000000000000000000000000000000000000000000000\n      dup2\n      mstore\n      0x04\n      add\n      tag_351\n      swap1\n      tag_132\n      jump\t// in\n    tag_351:\n      mload(0x40)\n      dup1\n      swap2\n      sub\n      swap1\n      revert\n    tag_350:\n        /* \"contracts/agency.sol\":7413:7423  msg.sender */\n      caller\n        /* \"contracts/agency.sol\":7390:7423  sales[saleID].owner == msg.sender */\n      0xffffffffffffffffffffffffffffffffffffffff\n      and\n        /* \"contracts/agency.sol\":7390:7395  sales */\n      0x02\n        /* \"contracts/agency.sol\":7396:7402  saleID */\n      dup4\n        /* \"contracts/agency.sol\":7390:7403  sales[saleID] */\n      dup2\n      sload\n      dup2\n      lt\n      tag_352\n      jumpi\n      tag_353\n      tag_115\n      jump\t// in\n    tag_353:\n    tag_352:\n      swap1\n      0x00\n      mstore\n      keccak256(0x00, 0x20)\n      swap1\n      0x06\n      mul\n      add\n        /* \"contracts/agency.sol\":7390:7409  sales[saleID].owner */\n      0x01\n      add\n      0x00\n      swap1\n      sload\n      swap1\n      0x0100\n      exp\n      swap1\n      div\n      0xffffffffffffffffffffffffffffffffffffffff\n      and\n        /* \"contracts/agency.sol\":7390:7423  sales[saleID].owner == msg.sender */\n      0xffffffffffffffffffffffffffffffffffffffff\n      and\n      eq\n        /* \"contracts/agency.sol\":7382:7440  require(sales[saleID].owner == msg.sender, \"Not you sale\") */\n      tag_355\n      jumpi\n      mload(0x40)\n      0x08c379a000000000000000000000000000000000000000000000000000000000\n      dup2\n      mstore\n      0x04\n      add\n      tag_356\n      swap1\n      tag_193\n      jump\t// in\n    tag_356:\n      mload(0x40)\n      dup1\n      swap2\n      sub\n      swap1\n      revert\n    tag_355:\n        /* \"contracts/agency.sol\":7456:7462  uint i */\n      0x00\n        /* \"contracts/agency.sol\":7451:7598  for (uint i = 0; i < sales[saleID].buyers.length; i++){... */\n    tag_357:\n        /* \"contracts/agency.sol\":7472:7477  sales */\n      0x02\n        /* \"contracts/agency.sol\":7478:7484  saleID */\n      dup4\n        /* \"contracts/agency.sol\":7472:7485  sales[saleID] */\n      dup2\n      sload\n      dup2\n      lt\n      tag_360\n      jumpi\n      tag_361\n      tag_115\n      jump\t// in\n    tag_361:\n    tag_360:\n      swap1\n      0x00\n      mstore\n      keccak256(0x00, 0x20)\n      swap1\n      0x06\n      mul\n      add\n        /* \"contracts/agency.sol\":7472:7492  sales[saleID].buyers */\n      0x04\n      add\n        /* \"contracts/agency.sol\":7472:7499  sales[saleID].buyers.length */\n      dup1\n      sload\n      swap1\n      pop\n        /* \"contracts/agency.sol\":7468:7469  i */\n      dup2\n        /* \"contracts/agency.sol\":7468:7499  i < sales[saleID].buyers.length */\n      lt\n        /* \"contracts/agency.sol\":7451:7598  for (uint i = 0; i < sales[saleID].buyers.length; i++){... */\n      iszero\n      tag_358\n      jumpi\n        /* \"contracts/agency.sol\":7528:7533  sales */\n      0x02\n        /* \"contracts/agency.sol\":7534:7540  saleID */\n      dup4\n        /* \"contracts/agency.sol\":7528:7541  sales[saleID] */\n      dup2\n      sload\n      dup2\n      lt\n      tag_363\n      jumpi\n      tag_364\n      tag_115\n      jump\t// in\n    tag_364:\n    tag_363:\n      swap1\n      0x00\n      mstore\n      keccak256(0x00, 0x20)\n      swap1\n      0x06\n      mul\n      add\n        /* \"contracts/agency.sol\":7528:7548  sales[saleID].buyers */\n      0x04\n      add\n        /* \"contracts/agency.sol\":7549:7550  i */\n      dup2\n        /* \"contracts/agency.sol\":7528:7551  sales[saleID].buyers[i] */\n      dup2\n      sload\n      dup2\n      lt\n      tag_366\n      jumpi\n      tag_367\n      tag_115\n      jump\t// in\n    tag_367:\n    tag_366:\n      swap1\n      0x00\n      mstore\n      keccak256(0x00, 0x20)\n      add\n      0x00\n      swap1\n      sload\n      swap1\n      0x0100\n      exp\n      swap1\n      div\n      0xffffffffffffffffffffffffffffffffffffffff\n      and\n        /* \"contracts/agency.sol\":7520:7561  payable(sales[saleID].buyers[i]).transfer */\n      0xffffffffffffffffffffffffffffffffffffffff\n      and\n        /* \"contracts/agency.sol\":7520:7586  payable(sales[saleID].buyers[i]).transfer(sales[saleID].prices[i]) */\n      0x08fc\n        /* \"contracts/agency.sol\":7562:7567  sales */\n      0x02\n        /* \"contracts/agency.sol\":7568:7574  saleID */\n      dup6\n        /* \"contracts/agency.sol\":7562:7575  sales[saleID] */\n      dup2\n      sload\n      dup2\n      lt\n      tag_369\n      jumpi\n      tag_370\n      tag_115\n      jump\t// in\n    tag_370:\n    tag_369:\n      swap1\n      0x00\n      mstore\n      keccak256(0x00, 0x20)\n      swap1\n      0x06\n      mul\n      add\n        /* \"contracts/agency.sol\":7562:7582  sales[saleID].prices */\n      0x05\n      add\n        /* \"contracts/agency.sol\":7583:7584  i */\n      dup4\n        /* \"contracts/agency.sol\":7562:7585  sales[saleID].prices[i] */\n      dup2\n      sload\n      dup2\n      lt\n      tag_372\n      jumpi\n      tag_373\n      tag_115\n      jump\t// in\n    tag_373:\n    tag_372:\n      swap1\n      0x00\n      mstore\n      keccak256(0x00, 0x20)\n      add\n      sload\n        /* \"contracts/agency.sol\":7520:7586  payable(sales[saleID].buyers[i]).transfer(sales[saleID].prices[i]) */\n      swap1\n      dup2\n      iszero\n      mul\n      swap1\n      mload(0x40)\n      0x00\n      mload(0x40)\n      dup1\n      dup4\n      sub\n      dup2\n      dup6\n      dup9\n      dup9\n      call\n      swap4\n      pop\n      pop\n      pop\n      pop\n      iszero\n      dup1\n      iszero\n      tag_376\n      jumpi\n      returndatasize\n      0x00\n      dup1\n      returndatacopy\n      revert(0x00, returndatasize)\n    tag_376:\n      pop\n        /* \"contracts/agency.sol\":7501:7504  i++ */\n      dup1\n      dup1\n      0x01\n      add\n      swap2\n      pop\n      pop\n        /* \"contracts/agency.sol\":7451:7598  for (uint i = 0; i < sales[saleID].buyers.length; i++){... */\n      jump(tag_357)\n    tag_358:\n      pop\n        /* \"contracts/agency.sol\":7633:7643  msg.sender */\n      caller\n        /* \"contracts/agency.sol\":7608:7613  sales */\n      0x02\n        /* \"contracts/agency.sol\":7614:7620  saleID */\n      dup4\n        /* \"contracts/agency.sol\":7608:7621  sales[saleID] */\n      dup2\n      sload\n      dup2\n      lt\n      tag_377\n      jumpi\n      tag_378\n      tag_115\n      jump\t// in\n    tag_378:\n    tag_377:\n      swap1\n      0x00\n      mstore\n      keccak256(0x00, 0x20)\n      swap1\n      0x06\n      mul\n      add\n        /* \"contracts/agency.sol\":7608:7630  sales[saleID].newOwner */\n      0x02\n      add\n      0x00\n        /* \"contracts/agency.sol\":7608:7643  sales[saleID].newOwner = msg.sender */\n      0x0100\n      exp\n      dup2\n      sload\n      dup2\n      0xffffffffffffffffffffffffffffffffffffffff\n      mul\n      not\n      and\n      swap1\n      dup4\n      0xffffffffffffffffffffffffffffffffffffffff\n      and\n      mul\n      or\n      swap1\n      sstore\n      pop\n        /* \"contracts/agency.sol\":7685:7690  false */\n      0x00\n        /* \"contracts/agency.sol\":7654:7663  buildings */\n      dup1\n        /* \"contracts/agency.sol\":7664:7671  buildID */\n      dup3\n        /* \"contracts/agency.sol\":7654:7672  buildings[buildID] */\n      dup2\n      sload\n      dup2\n      lt\n      tag_380\n      jumpi\n      tag_381\n      tag_115\n      jump\t// in\n    tag_381:\n    tag_380:\n      swap1\n      0x00\n      mstore\n      keccak256(0x00, 0x20)\n      swap1\n      0x05\n      mul\n      add\n        /* \"contracts/agency.sol\":7654:7682  buildings[buildID].saleSTATE */\n      0x04\n      add\n      0x01\n        /* \"contracts/agency.sol\":7654:7690  buildings[buildID].saleSTATE = false */\n      0x0100\n      exp\n      dup2\n      sload\n      dup2\n      0xff\n      mul\n      not\n      and\n      swap1\n      dup4\n      iszero\n      iszero\n      mul\n      or\n      swap1\n      sstore\n      pop\n        /* \"contracts/agency.sol\":7188:7698  {... */\n      pop\n        /* \"contracts/agency.sol\":7141:7698  function canelSale(uint saleID) public payable {... */\n      pop\n      jump\t// out\n        /* \"contracts/agency.sol\":2556:3092  function cancelGift(uint giftID) public{... */\n    tag_68:\n        /* \"contracts/agency.sol\":2623:2628  gifts */\n      0x01\n        /* \"contracts/agency.sol\":2623:2635  gifts.length */\n      dup1\n      sload\n      swap1\n      pop\n        /* \"contracts/agency.sol\":2614:2620  giftID */\n      dup2\n        /* \"contracts/agency.sol\":2614:2635  giftID < gifts.length */\n      lt\n        /* \"contracts/agency.sol\":2606:2636  require(giftID < gifts.length) */\n      tag_384\n      jumpi\n      0x00\n      dup1\n      revert\n    tag_384:\n        /* \"contracts/agency.sol\":2679:2694  giftSTAT.ACTIVE */\n      0x00\n        /* \"contracts/agency.sol\":2655:2694  gifts[giftID].status == giftSTAT.ACTIVE */\n      0x04\n      dup2\n      gt\n      iszero\n      tag_385\n      jumpi\n      tag_386\n      tag_294\n      jump\t// in\n    tag_386:\n    tag_385:\n        /* \"contracts/agency.sol\":2655:2660  gifts */\n      0x01\n        /* \"contracts/agency.sol\":2661:2667  giftID */\n      dup3\n        /* \"contracts/agency.sol\":2655:2668  gifts[giftID] */\n      dup2\n      sload\n      dup2\n      lt\n      tag_387\n      jumpi\n      tag_388\n      tag_115\n      jump\t// in\n    tag_388:\n    tag_387:\n      swap1\n      0x00\n      mstore\n      keccak256(0x00, 0x20)\n      swap1\n      0x06\n      mul\n      add\n        /* \"contracts/agency.sol\":2655:2675  gifts[giftID].status */\n      0x05\n      add\n      0x00\n      swap1\n      sload\n      swap1\n      0x0100\n      exp\n      swap1\n      div\n      0xff\n      and\n        /* \"contracts/agency.sol\":2655:2694  gifts[giftID].status == giftSTAT.ACTIVE */\n      0x04\n      dup2\n      gt\n      iszero\n      tag_390\n      jumpi\n      tag_391\n      tag_294\n      jump\t// in\n    tag_391:\n    tag_390:\n      eq\n        /* \"contracts/agency.sol\":2647:2715  require(gifts[giftID].status == giftSTAT.ACTIVE, \"Already finished\") */\n      tag_392\n      jumpi\n      mload(0x40)\n      0x08c379a000000000000000000000000000000000000000000000000000000000\n      dup2\n      mstore\n      0x04\n      add\n      tag_393\n      swap1\n      tag_394\n      jump\t// in\n    tag_393:\n      mload(0x40)\n      dup1\n      swap2\n      sub\n      swap1\n      revert\n    tag_392:\n        /* \"contracts/agency.sol\":2760:2770  msg.sender */\n      caller\n        /* \"contracts/agency.sol\":2734:2770  gifts[giftID]._adrFrom == msg.sender */\n      0xffffffffffffffffffffffffffffffffffffffff\n      and\n        /* \"contracts/agency.sol\":2734:2739  gifts */\n      0x01\n        /* \"contracts/agency.sol\":2740:2746  giftID */\n      dup3\n        /* \"contracts/agency.sol\":2734:2747  gifts[giftID] */\n      dup2\n      sload\n      dup2\n      lt\n      tag_395\n      jumpi\n      tag_396\n      tag_115\n      jump\t// in\n    tag_396:\n    tag_395:\n      swap1\n      0x00\n      mstore\n      keccak256(0x00, 0x20)\n      swap1\n      0x06\n      mul\n      add\n        /* \"contracts/agency.sol\":2734:2756  gifts[giftID]._adrFrom */\n      0x02\n      add\n      0x00\n      swap1\n      sload\n      swap1\n      0x0100\n      exp\n      swap1\n      div\n      0xffffffffffffffffffffffffffffffffffffffff\n      and\n        /* \"contracts/agency.sol\":2734:2770  gifts[giftID]._adrFrom == msg.sender */\n      0xffffffffffffffffffffffffffffffffffffffff\n      and\n      eq\n        /* \"contracts/agency.sol\":2726:2792  require(gifts[giftID]._adrFrom == msg.sender, \"You are not owner\") */\n      tag_398\n      jumpi\n      mload(0x40)\n      0x08c379a000000000000000000000000000000000000000000000000000000000\n      dup2\n      mstore\n      0x04\n      add\n      tag_399\n      swap1\n      tag_400\n      jump\t// in\n    tag_399:\n      mload(0x40)\n      dup1\n      swap2\n      sub\n      swap1\n      revert\n    tag_398:\n        /* \"contracts/agency.sol\":2803:2815  uint buildID */\n      0x00\n        /* \"contracts/agency.sol\":2818:2823  gifts */\n      0x01\n        /* \"contracts/agency.sol\":2824:2830  giftID */\n      dup3\n        /* \"contracts/agency.sol\":2818:2831  gifts[giftID] */\n      dup2\n      sload\n      dup2\n      lt\n      tag_401\n      jumpi\n      tag_402\n      tag_115\n      jump\t// in\n    tag_402:\n    tag_401:\n      swap1\n      0x00\n      mstore\n      keccak256(0x00, 0x20)\n      swap1\n      0x06\n      mul\n      add\n        /* \"contracts/agency.sol\":2818:2839  gifts[giftID].buildID */\n      0x01\n      add\n      sload\n        /* \"contracts/agency.sol\":2803:2839  uint buildID = gifts[giftID].buildID */\n      swap1\n      pop\n        /* \"contracts/agency.sol\":2875:2890  block.timestamp */\n      timestamp\n        /* \"contracts/agency.sol\":2854:2859  gifts */\n      0x01\n        /* \"contracts/agency.sol\":2860:2866  giftID */\n      dup4\n        /* \"contracts/agency.sol\":2854:2867  gifts[giftID] */\n      dup2\n      sload\n      dup2\n      lt\n      tag_404\n      jumpi\n      tag_405\n      tag_115\n      jump\t// in\n    tag_405:\n    tag_404:\n      swap1\n      0x00\n      mstore\n      keccak256(0x00, 0x20)\n      swap1\n      0x06\n      mul\n      add\n        /* \"contracts/agency.sol\":2854:2872  gifts[giftID].time */\n      0x04\n      add\n      sload\n        /* \"contracts/agency.sol\":2854:2890  gifts[giftID].time > block.timestamp */\n      gt\n        /* \"contracts/agency.sol\":2850:3038  if (gifts[giftID].time > block.timestamp) {... */\n      iszero\n      tag_407\n      jumpi\n        /* \"contracts/agency.sol\":2930:2945  giftSTAT.CANCEL */\n      0x04\n        /* \"contracts/agency.sol\":2907:2912  gifts */\n      0x01\n        /* \"contracts/agency.sol\":2913:2919  giftID */\n      dup4\n        /* \"contracts/agency.sol\":2907:2920  gifts[giftID] */\n      dup2\n      sload\n      dup2\n      lt\n      tag_408\n      jumpi\n      tag_409\n      tag_115\n      jump\t// in\n    tag_409:\n    tag_408:\n      swap1\n      0x00\n      mstore\n      keccak256(0x00, 0x20)\n      swap1\n      0x06\n      mul\n      add\n        /* \"contracts/agency.sol\":2907:2927  gifts[giftID].status */\n      0x05\n      add\n      0x00\n        /* \"contracts/agency.sol\":2907:2945  gifts[giftID].status = giftSTAT.CANCEL */\n      0x0100\n      exp\n      dup2\n      sload\n      dup2\n      0xff\n      mul\n      not\n      and\n      swap1\n      dup4\n      0x04\n      dup2\n      gt\n      iszero\n      tag_411\n      jumpi\n      tag_412\n      tag_294\n      jump\t// in\n    tag_412:\n    tag_411:\n      mul\n      or\n      swap1\n      sstore\n      pop\n        /* \"contracts/agency.sol\":2850:3038  if (gifts[giftID].time > block.timestamp) {... */\n      jump(tag_413)\n    tag_407:\n        /* \"contracts/agency.sol\":3010:3026  giftSTAT.ENDTIME */\n      0x03\n        /* \"contracts/agency.sol\":2987:2992  gifts */\n      0x01\n        /* \"contracts/agency.sol\":2993:2999  giftID */\n      dup4\n        /* \"contracts/agency.sol\":2987:3000  gifts[giftID] */\n      dup2\n      sload\n      dup2\n      lt\n      tag_414\n      jumpi\n      tag_415\n      tag_115\n      jump\t// in\n    tag_415:\n    tag_414:\n      swap1\n      0x00\n      mstore\n      keccak256(0x00, 0x20)\n      swap1\n      0x06\n      mul\n      add\n        /* \"contracts/agency.sol\":2987:3007  gifts[giftID].status */\n      0x05\n      add\n      0x00\n        /* \"contracts/agency.sol\":2987:3026  gifts[giftID].status = giftSTAT.ENDTIME */\n      0x0100\n      exp\n      dup2\n      sload\n      dup2\n      0xff\n      mul\n      not\n      and\n      swap1\n      dup4\n      0x04\n      dup2\n      gt\n      iszero\n      tag_417\n      jumpi\n      tag_418\n      tag_294\n      jump\t// in\n    tag_418:\n    tag_417:\n      mul\n      or\n      swap1\n      sstore\n      pop\n        /* \"contracts/agency.sol\":2850:3038  if (gifts[giftID].time > block.timestamp) {... */\n    tag_413:\n        /* \"contracts/agency.sol\":3079:3084  false */\n      0x00\n        /* \"contracts/agency.sol\":3048:3057  buildings */\n      dup1\n        /* \"contracts/agency.sol\":3058:3065  buildID */\n      dup3\n        /* \"contracts/agency.sol\":3048:3066  buildings[buildID] */\n      dup2\n      sload\n      dup2\n      lt\n      tag_419\n      jumpi\n      tag_420\n      tag_115\n      jump\t// in\n    tag_420:\n    tag_419:\n      swap1\n      0x00\n      mstore\n      keccak256(0x00, 0x20)\n      swap1\n      0x05\n      mul\n      add\n        /* \"contracts/agency.sol\":3048:3076  buildings[buildID].giftSTATE */\n      0x04\n      add\n      0x00\n        /* \"contracts/agency.sol\":3048:3084  buildings[buildID].giftSTATE = false */\n      0x0100\n      exp\n      dup2\n      sload\n      dup2\n      0xff\n      mul\n      not\n      and\n      swap1\n      dup4\n      iszero\n      iszero\n      mul\n      or\n      swap1\n      sstore\n      pop\n        /* \"contracts/agency.sol\":2595:3092  {... */\n      pop\n        /* \"contracts/agency.sol\":2556:3092  function cancelGift(uint giftID) public{... */\n      pop\n      jump\t// out\n        /* \"contracts/agency.sol\":7833:7947  function getPrices(uint saleID) public view returns(uint[] memory){... */\n    tag_72:\n        /* \"contracts/agency.sol\":7885:7898  uint[] memory */\n      0x60\n        /* \"contracts/agency.sol\":7917:7922  sales */\n      0x02\n        /* \"contracts/agency.sol\":7923:7929  saleID */\n      dup3\n        /* \"contracts/agency.sol\":7917:7930  sales[saleID] */\n      dup2\n      sload\n      dup2\n      lt\n      tag_423\n      jumpi\n      tag_424\n      tag_115\n      jump\t// in\n    tag_424:\n    tag_423:\n      swap1\n      0x00\n      mstore\n      keccak256(0x00, 0x20)\n      swap1\n      0x06\n      mul\n      add\n        /* \"contracts/agency.sol\":7917:7937  sales[saleID].prices */\n      0x05\n      add\n        /* \"contracts/agency.sol\":7910:7937  return sales[saleID].prices */\n      dup1\n      sload\n      dup1\n      0x20\n      mul\n      0x20\n      add\n      mload(0x40)\n      swap1\n      dup2\n      add\n      0x40\n      mstore\n      dup1\n      swap3\n      swap2\n      swap1\n      dup2\n      dup2\n      mstore\n      0x20\n      add\n      dup3\n      dup1\n      sload\n      dup1\n      iszero\n      tag_426\n      jumpi\n      0x20\n      mul\n      dup3\n      add\n      swap2\n      swap1\n      0x00\n      mstore\n      keccak256(0x00, 0x20)\n      swap1\n    tag_427:\n      dup2\n      sload\n      dup2\n      mstore\n      0x20\n      add\n      swap1\n      0x01\n      add\n      swap1\n      dup1\n      dup4\n      gt\n      tag_427\n      jumpi\n    tag_426:\n      pop\n      pop\n      pop\n      pop\n      pop\n      swap1\n      pop\n        /* \"contracts/agency.sol\":7833:7947  function getPrices(uint saleID) public view returns(uint[] memory){... */\n      swap2\n      swap1\n      pop\n      jump\t// out\n        /* \"contracts/agency.sol\":1567:1861  function createBuild(address _owner, string memory _info, uint _square) public isAdmin {... */\n    tag_79:\n        /* \"contracts/agency.sol\":955:960  admin */\n      0x03\n      0x00\n      swap1\n      sload\n      swap1\n      0x0100\n      exp\n      swap1\n      div\n      0xffffffffffffffffffffffffffffffffffffffff\n      and\n        /* \"contracts/agency.sol\":941:960  msg.sender == admin */\n      0xffffffffffffffffffffffffffffffffffffffff\n      and\n        /* \"contracts/agency.sol\":941:951  msg.sender */\n      caller\n        /* \"contracts/agency.sol\":941:960  msg.sender == admin */\n      0xffffffffffffffffffffffffffffffffffffffff\n      and\n      eq\n        /* \"contracts/agency.sol\":933:982  require(msg.sender == admin, \"You are not admin\") */\n      tag_429\n      jumpi\n      mload(0x40)\n      0x08c379a000000000000000000000000000000000000000000000000000000000\n      dup2\n      mstore\n      0x04\n      add\n      tag_430\n      swap1\n      tag_111\n      jump\t// in\n    tag_430:\n      mload(0x40)\n      dup1\n      swap2\n      sub\n      swap1\n      revert\n    tag_429:\n        /* \"contracts/agency.sol\":1691:1692  0 */\n      0x00\n        /* \"contracts/agency.sol\":1673:1693  _owner != address(0) */\n      0xffffffffffffffffffffffffffffffffffffffff\n      and\n        /* \"contracts/agency.sol\":1673:1679  _owner */\n      dup4\n        /* \"contracts/agency.sol\":1673:1693  _owner != address(0) */\n      0xffffffffffffffffffffffffffffffffffffffff\n      and\n      sub\n        /* \"contracts/agency.sol\":1665:1711  require(_owner != address(0), \"wrong address\") */\n      tag_432\n      jumpi\n      mload(0x40)\n      0x08c379a000000000000000000000000000000000000000000000000000000000\n      dup2\n      mstore\n      0x04\n      add\n      tag_433\n      swap1\n      tag_434\n      jump\t// in\n    tag_433:\n      mload(0x40)\n      dup1\n      swap2\n      sub\n      swap1\n      revert\n    tag_432:\n        /* \"contracts/agency.sol\":1740:1741  0 */\n      0x00\n        /* \"contracts/agency.sol\":1730:1737  _square */\n      dup2\n        /* \"contracts/agency.sol\":1730:1741  _square > 0 */\n      gt\n        /* \"contracts/agency.sol\":1722:1758  require(_square > 0, \"wrong square\") */\n      tag_435\n      jumpi\n      mload(0x40)\n      0x08c379a000000000000000000000000000000000000000000000000000000000\n      dup2\n      mstore\n      0x04\n      add\n      tag_436\n      swap1\n      tag_437\n      jump\t// in\n    tag_436:\n      mload(0x40)\n      dup1\n      swap2\n      sub\n      swap1\n      revert\n    tag_435:\n        /* \"contracts/agency.sol\":1769:1778  buildings */\n      0x00\n        /* \"contracts/agency.sol\":1784:1852  Build(buildings.length, _owner, _info, _square, false, false, false) */\n      mload(0x40)\n      dup1\n      0xe0\n      add\n      0x40\n      mstore\n      dup1\n        /* \"contracts/agency.sol\":1790:1799  buildings */\n      0x00\n        /* \"contracts/agency.sol\":1790:1806  buildings.length */\n      dup1\n      sload\n      swap1\n      pop\n        /* \"contracts/agency.sol\":1784:1852  Build(buildings.length, _owner, _info, _square, false, false, false) */\n      dup2\n      mstore\n      0x20\n      add\n        /* \"contracts/agency.sol\":1808:1814  _owner */\n      dup6\n        /* \"contracts/agency.sol\":1784:1852  Build(buildings.length, _owner, _info, _square, false, false, false) */\n      0xffffffffffffffffffffffffffffffffffffffff\n      and\n      dup2\n      mstore\n      0x20\n      add\n        /* \"contracts/agency.sol\":1816:1821  _info */\n      dup5\n        /* \"contracts/agency.sol\":1784:1852  Build(buildings.length, _owner, _info, _square, false, false, false) */\n      dup2\n      mstore\n      0x20\n      add\n        /* \"contracts/agency.sol\":1823:1830  _square */\n      dup4\n        /* \"contracts/agency.sol\":1784:1852  Build(buildings.length, _owner, _info, _square, false, false, false) */\n      dup2\n      mstore\n      0x20\n      add\n        /* \"contracts/agency.sol\":1832:1837  false */\n      0x00\n        /* \"contracts/agency.sol\":1784:1852  Build(buildings.length, _owner, _info, _square, false, false, false) */\n      iszero\n      iszero\n      dup2\n      mstore\n      0x20\n      add\n        /* \"contracts/agency.sol\":1839:1844  false */\n      0x00\n        /* \"contracts/agency.sol\":1784:1852  Build(buildings.length, _owner, _info, _square, false, false, false) */\n      iszero\n      iszero\n      dup2\n      mstore\n      0x20\n      add\n        /* \"contracts/agency.sol\":1846:1851  false */\n      0x00\n        /* \"contracts/agency.sol\":1784:1852  Build(buildings.length, _owner, _info, _square, false, false, false) */\n      iszero\n      iszero\n      dup2\n      mstore\n      pop\n        /* \"contracts/agency.sol\":1769:1853  buildings.push(Build(buildings.length, _owner, _info, _square, false, false, false)) */\n      swap1\n      dup1\n      0x01\n      dup2\n      sload\n      add\n      dup1\n      dup3\n      sstore\n      dup1\n      swap2\n      pop\n      pop\n      0x01\n      swap1\n      sub\n      swap1\n      0x00\n      mstore\n      keccak256(0x00, 0x20)\n      swap1\n      0x05\n      mul\n      add\n      0x00\n      swap1\n      swap2\n      swap1\n      swap2\n      swap1\n      swap2\n      pop\n      0x00\n      dup3\n      add\n      mload\n      dup2\n      0x00\n      add\n      sstore\n      0x20\n      dup3\n      add\n      mload\n      dup2\n      0x01\n      add\n      exp(0x0100, 0x00)\n      dup2\n      sload\n      dup2\n      0xffffffffffffffffffffffffffffffffffffffff\n      mul\n      not\n      and\n      swap1\n      dup4\n      0xffffffffffffffffffffffffffffffffffffffff\n      and\n      mul\n      or\n      swap1\n      sstore\n      pop\n      0x40\n      dup3\n      add\n      mload\n      dup2\n      0x02\n      add\n      swap1\n      dup2\n      tag_439\n      swap2\n      swap1\n      tag_440\n      jump\t// in\n    tag_439:\n      pop\n      0x60\n      dup3\n      add\n      mload\n      dup2\n      0x03\n      add\n      sstore\n      0x80\n      dup3\n      add\n      mload\n      dup2\n      0x04\n      add\n      exp(0x0100, 0x00)\n      dup2\n      sload\n      dup2\n      0xff\n      mul\n      not\n      and\n      swap1\n      dup4\n      iszero\n      iszero\n      mul\n      or\n      swap1\n      sstore\n      pop\n      0xa0\n      dup3\n      add\n      mload\n      dup2\n      0x04\n      add\n      exp(0x0100, 0x01)\n      dup2\n      sload\n      dup2\n      0xff\n      mul\n      not\n      and\n      swap1\n      dup4\n      iszero\n      iszero\n      mul\n      or\n      swap1\n      sstore\n      pop\n      0xc0\n      dup3\n      add\n      mload\n      dup2\n      0x04\n      add\n      exp(0x0100, 0x02)\n      dup2\n      sload\n      dup2\n      0xff\n      mul\n      not\n      and\n      swap1\n      dup4\n      iszero\n      iszero\n      mul\n      or\n      swap1\n      sstore\n      pop\n      pop\n      pop\n        /* \"contracts/agency.sol\":1567:1861  function createBuild(address _owner, string memory _info, uint _square) public isAdmin {... */\n      pop\n      pop\n      pop\n      jump\t// out\n        /* \"contracts/agency.sol\":816:835  Sale[] public sales */\n    tag_83:\n      0x02\n      dup2\n      dup2\n      sload\n      dup2\n      lt\n      tag_441\n      jumpi\n      0x00\n      dup1\n      revert\n    tag_441:\n      swap1\n      0x00\n      mstore\n      keccak256(0x00, 0x20)\n      swap1\n      0x06\n      mul\n      add\n      0x00\n      swap2\n      pop\n      swap1\n      pop\n      dup1\n      0x00\n      add\n      sload\n      swap1\n      dup1\n      0x01\n      add\n      0x00\n      swap1\n      sload\n      swap1\n      0x0100\n      exp\n      swap1\n      div\n      0xffffffffffffffffffffffffffffffffffffffff\n      and\n      swap1\n      dup1\n      0x02\n      add\n      0x00\n      swap1\n      sload\n      swap1\n      0x0100\n      exp\n      swap1\n      div\n      0xffffffffffffffffffffffffffffffffffffffff\n      and\n      swap1\n      dup1\n      0x03\n      add\n      sload\n      swap1\n      pop\n      dup5\n      jump\t// out\n        /* \"contracts/agency.sol\":3100:3771  function acceptGift(uint giftID) public{... */\n    tag_89:\n        /* \"contracts/agency.sol\":3150:3162  uint buildID */\n      0x00\n        /* \"contracts/agency.sol\":3165:3170  gifts */\n      0x01\n        /* \"contracts/agency.sol\":3171:3177  giftID */\n      dup3\n        /* \"contracts/agency.sol\":3165:3178  gifts[giftID] */\n      dup2\n      sload\n      dup2\n      lt\n      tag_444\n      jumpi\n      tag_445\n      tag_115\n      jump\t// in\n    tag_445:\n    tag_444:\n      swap1\n      0x00\n      mstore\n      keccak256(0x00, 0x20)\n      swap1\n      0x06\n      mul\n      add\n        /* \"contracts/agency.sol\":3165:3186  gifts[giftID].buildID */\n      0x01\n      add\n      sload\n        /* \"contracts/agency.sol\":3150:3186  uint buildID = gifts[giftID].buildID */\n      swap1\n      pop\n        /* \"contracts/agency.sol\":3238:3243  false */\n      0x00\n        /* \"contracts/agency.sol\":3205:3243  buildings[buildID].arestSTATE == false */\n      iszero\n      iszero\n        /* \"contracts/agency.sol\":3205:3214  buildings */\n      0x00\n        /* \"contracts/agency.sol\":3215:3222  buildID */\n      dup3\n        /* \"contracts/agency.sol\":3205:3223  buildings[buildID] */\n      dup2\n      sload\n      dup2\n      lt\n      tag_447\n      jumpi\n      tag_448\n      tag_115\n      jump\t// in\n    tag_448:\n    tag_447:\n      swap1\n      0x00\n      mstore\n      keccak256(0x00, 0x20)\n      swap1\n      0x05\n      mul\n      add\n        /* \"contracts/agency.sol\":3205:3234  buildings[buildID].arestSTATE */\n      0x04\n      add\n      0x02\n      swap1\n      sload\n      swap1\n      0x0100\n      exp\n      swap1\n      div\n      0xff\n      and\n        /* \"contracts/agency.sol\":3205:3243  buildings[buildID].arestSTATE == false */\n      iszero\n      iszero\n      eq\n        /* \"contracts/agency.sol\":3197:3264  require(buildings[buildID].arestSTATE == false, \"build is arested\") */\n      tag_450\n      jumpi\n      mload(0x40)\n      0x08c379a000000000000000000000000000000000000000000000000000000000\n      dup2\n      mstore\n      0x04\n      add\n      tag_451\n      swap1\n      tag_199\n      jump\t// in\n    tag_451:\n      mload(0x40)\n      dup1\n      swap2\n      sub\n      swap1\n      revert\n    tag_450:\n        /* \"contracts/agency.sol\":3292:3297  gifts */\n      0x01\n        /* \"contracts/agency.sol\":3292:3304  gifts.length */\n      dup1\n      sload\n      swap1\n      pop\n        /* \"contracts/agency.sol\":3283:3289  giftID */\n      dup3\n        /* \"contracts/agency.sol\":3283:3304  giftID < gifts.length */\n      lt\n        /* \"contracts/agency.sol\":3275:3305  require(giftID < gifts.length) */\n      tag_452\n      jumpi\n      0x00\n      dup1\n      revert\n    tag_452:\n        /* \"contracts/agency.sol\":3348:3363  giftSTAT.ACTIVE */\n      0x00\n        /* \"contracts/agency.sol\":3324:3363  gifts[giftID].status == giftSTAT.ACTIVE */\n      0x04\n      dup2\n      gt\n      iszero\n      tag_453\n      jumpi\n      tag_454\n      tag_294\n      jump\t// in\n    tag_454:\n    tag_453:\n        /* \"contracts/agency.sol\":3324:3329  gifts */\n      0x01\n        /* \"contracts/agency.sol\":3330:3336  giftID */\n      dup4\n        /* \"contracts/agency.sol\":3324:3337  gifts[giftID] */\n      dup2\n      sload\n      dup2\n      lt\n      tag_455\n      jumpi\n      tag_456\n      tag_115\n      jump\t// in\n    tag_456:\n    tag_455:\n      swap1\n      0x00\n      mstore\n      keccak256(0x00, 0x20)\n      swap1\n      0x06\n      mul\n      add\n        /* \"contracts/agency.sol\":3324:3344  gifts[giftID].status */\n      0x05\n      add\n      0x00\n      swap1\n      sload\n      swap1\n      0x0100\n      exp\n      swap1\n      div\n      0xff\n      and\n        /* \"contracts/agency.sol\":3324:3363  gifts[giftID].status == giftSTAT.ACTIVE */\n      0x04\n      dup2\n      gt\n      iszero\n      tag_458\n      jumpi\n      tag_459\n      tag_294\n      jump\t// in\n    tag_459:\n    tag_458:\n      eq\n        /* \"contracts/agency.sol\":3316:3384  require(gifts[giftID].status == giftSTAT.ACTIVE, \"Already finished\") */\n      tag_460\n      jumpi\n      mload(0x40)\n      0x08c379a000000000000000000000000000000000000000000000000000000000\n      dup2\n      mstore\n      0x04\n      add\n      tag_461\n      swap1\n      tag_394\n      jump\t// in\n    tag_461:\n      mload(0x40)\n      dup1\n      swap2\n      sub\n      swap1\n      revert\n    tag_460:\n        /* \"contracts/agency.sol\":3427:3437  msg.sender */\n      caller\n        /* \"contracts/agency.sol\":3403:3437  gifts[giftID]._adrTo == msg.sender */\n      0xffffffffffffffffffffffffffffffffffffffff\n      and\n        /* \"contracts/agency.sol\":3403:3408  gifts */\n      0x01\n        /* \"contracts/agency.sol\":3409:3415  giftID */\n      dup4\n        /* \"contracts/agency.sol\":3403:3416  gifts[giftID] */\n      dup2\n      sload\n      dup2\n      lt\n      tag_462\n      jumpi\n      tag_463\n      tag_115\n      jump\t// in\n    tag_463:\n    tag_462:\n      swap1\n      0x00\n      mstore\n      keccak256(0x00, 0x20)\n      swap1\n      0x06\n      mul\n      add\n        /* \"contracts/agency.sol\":3403:3423  gifts[giftID]._adrTo */\n      0x03\n      add\n      0x00\n      swap1\n      sload\n      swap1\n      0x0100\n      exp\n      swap1\n      div\n      0xffffffffffffffffffffffffffffffffffffffff\n      and\n        /* \"contracts/agency.sol\":3403:3437  gifts[giftID]._adrTo == msg.sender */\n      0xffffffffffffffffffffffffffffffffffffffff\n      and\n      eq\n        /* \"contracts/agency.sol\":3395:3466  require(gifts[giftID]._adrTo == msg.sender, \"This is gift not for you\") */\n      tag_465\n      jumpi\n      mload(0x40)\n      0x08c379a000000000000000000000000000000000000000000000000000000000\n      dup2\n      mstore\n      0x04\n      add\n      tag_466\n      swap1\n      tag_467\n      jump\t// in\n    tag_466:\n      mload(0x40)\n      dup1\n      swap2\n      sub\n      swap1\n      revert\n    tag_465:\n        /* \"contracts/agency.sol\":3502:3517  block.timestamp */\n      timestamp\n        /* \"contracts/agency.sol\":3481:3486  gifts */\n      0x01\n        /* \"contracts/agency.sol\":3487:3493  giftID */\n      dup4\n        /* \"contracts/agency.sol\":3481:3494  gifts[giftID] */\n      dup2\n      sload\n      dup2\n      lt\n      tag_468\n      jumpi\n      tag_469\n      tag_115\n      jump\t// in\n    tag_469:\n    tag_468:\n      swap1\n      0x00\n      mstore\n      keccak256(0x00, 0x20)\n      swap1\n      0x06\n      mul\n      add\n        /* \"contracts/agency.sol\":3481:3499  gifts[giftID].time */\n      0x04\n      add\n      sload\n        /* \"contracts/agency.sol\":3481:3517  gifts[giftID].time > block.timestamp */\n      gt\n        /* \"contracts/agency.sol\":3477:3717  if (gifts[giftID].time > block.timestamp) {... */\n      iszero\n      tag_471\n      jumpi\n        /* \"contracts/agency.sol\":3557:3572  giftSTAT.ACCEPT */\n      0x02\n        /* \"contracts/agency.sol\":3534:3539  gifts */\n      0x01\n        /* \"contracts/agency.sol\":3540:3546  giftID */\n      dup4\n        /* \"contracts/agency.sol\":3534:3547  gifts[giftID] */\n      dup2\n      sload\n      dup2\n      lt\n      tag_472\n      jumpi\n      tag_473\n      tag_115\n      jump\t// in\n    tag_473:\n    tag_472:\n      swap1\n      0x00\n      mstore\n      keccak256(0x00, 0x20)\n      swap1\n      0x06\n      mul\n      add\n        /* \"contracts/agency.sol\":3534:3554  gifts[giftID].status */\n      0x05\n      add\n      0x00\n        /* \"contracts/agency.sol\":3534:3572  gifts[giftID].status = giftSTAT.ACCEPT */\n      0x0100\n      exp\n      dup2\n      sload\n      dup2\n      0xff\n      mul\n      not\n      and\n      swap1\n      dup4\n      0x04\n      dup2\n      gt\n      iszero\n      tag_475\n      jumpi\n      tag_476\n      tag_294\n      jump\t// in\n    tag_476:\n    tag_475:\n      mul\n      or\n      swap1\n      sstore\n      pop\n        /* \"contracts/agency.sol\":3614:3624  msg.sender */\n      caller\n        /* \"contracts/agency.sol\":3587:3596  buildings */\n      0x00\n        /* \"contracts/agency.sol\":3597:3604  buildID */\n      dup3\n        /* \"contracts/agency.sol\":3587:3605  buildings[buildID] */\n      dup2\n      sload\n      dup2\n      lt\n      tag_477\n      jumpi\n      tag_478\n      tag_115\n      jump\t// in\n    tag_478:\n    tag_477:\n      swap1\n      0x00\n      mstore\n      keccak256(0x00, 0x20)\n      swap1\n      0x05\n      mul\n      add\n        /* \"contracts/agency.sol\":3587:3611  buildings[buildID].owner */\n      0x01\n      add\n      0x00\n        /* \"contracts/agency.sol\":3587:3624  buildings[buildID].owner = msg.sender */\n      0x0100\n      exp\n      dup2\n      sload\n      dup2\n      0xffffffffffffffffffffffffffffffffffffffff\n      mul\n      not\n      and\n      swap1\n      dup4\n      0xffffffffffffffffffffffffffffffffffffffff\n      and\n      mul\n      or\n      swap1\n      sstore\n      pop\n        /* \"contracts/agency.sol\":3477:3717  if (gifts[giftID].time > block.timestamp) {... */\n      jump(tag_480)\n    tag_471:\n        /* \"contracts/agency.sol\":3689:3705  giftSTAT.ENDTIME */\n      0x03\n        /* \"contracts/agency.sol\":3666:3671  gifts */\n      0x01\n        /* \"contracts/agency.sol\":3672:3678  giftID */\n      dup4\n        /* \"contracts/agency.sol\":3666:3679  gifts[giftID] */\n      dup2\n      sload\n      dup2\n      lt\n      tag_481\n      jumpi\n      tag_482\n      tag_115\n      jump\t// in\n    tag_482:\n    tag_481:\n      swap1\n      0x00\n      mstore\n      keccak256(0x00, 0x20)\n      swap1\n      0x06\n      mul\n      add\n        /* \"contracts/agency.sol\":3666:3686  gifts[giftID].status */\n      0x05\n      add\n      0x00\n        /* \"contracts/agency.sol\":3666:3705  gifts[giftID].status = giftSTAT.ENDTIME */\n      0x0100\n      exp\n      dup2\n      sload\n      dup2\n      0xff\n      mul\n      not\n      and\n      swap1\n      dup4\n      0x04\n      dup2\n      gt\n      iszero\n      tag_484\n      jumpi\n      tag_485\n      tag_294\n      jump\t// in\n    tag_485:\n    tag_484:\n      mul\n      or\n      swap1\n      sstore\n      pop\n        /* \"contracts/agency.sol\":3477:3717  if (gifts[giftID].time > block.timestamp) {... */\n    tag_480:\n        /* \"contracts/agency.sol\":3758:3763  false */\n      0x00\n        /* \"contracts/agency.sol\":3727:3736  buildings */\n      dup1\n        /* \"contracts/agency.sol\":3737:3744  buildID */\n      dup3\n        /* \"contracts/agency.sol\":3727:3745  buildings[buildID] */\n      dup2\n      sload\n      dup2\n      lt\n      tag_486\n      jumpi\n      tag_487\n      tag_115\n      jump\t// in\n    tag_487:\n    tag_486:\n      swap1\n      0x00\n      mstore\n      keccak256(0x00, 0x20)\n      swap1\n      0x05\n      mul\n      add\n        /* \"contracts/agency.sol\":3727:3755  buildings[buildID].giftSTATE */\n      0x04\n      add\n      0x00\n        /* \"contracts/agency.sol\":3727:3763  buildings[buildID].giftSTATE = false */\n      0x0100\n      exp\n      dup2\n      sload\n      dup2\n      0xff\n      mul\n      not\n      and\n      swap1\n      dup4\n      iszero\n      iszero\n      mul\n      or\n      swap1\n      sstore\n      pop\n        /* \"contracts/agency.sol\":3139:3771  {... */\n      pop\n        /* \"contracts/agency.sol\":3100:3771  function acceptGift(uint giftID) public{... */\n      pop\n      jump\t// out\n        /* \"contracts/agency.sol\":790:809  Gift[] public gifts */\n    tag_93:\n      0x01\n      dup2\n      dup2\n      sload\n      dup2\n      lt\n      tag_489\n      jumpi\n      0x00\n      dup1\n      revert\n    tag_489:\n      swap1\n      0x00\n      mstore\n      keccak256(0x00, 0x20)\n      swap1\n      0x06\n      mul\n      add\n      0x00\n      swap2\n      pop\n      swap1\n      pop\n      dup1\n      0x00\n      add\n      sload\n      swap1\n      dup1\n      0x01\n      add\n      sload\n      swap1\n      dup1\n      0x02\n      add\n      0x00\n      swap1\n      sload\n      swap1\n      0x0100\n      exp\n      swap1\n      div\n      0xffffffffffffffffffffffffffffffffffffffff\n      and\n      swap1\n      dup1\n      0x03\n      add\n      0x00\n      swap1\n      sload\n      swap1\n      0x0100\n      exp\n      swap1\n      div\n      0xffffffffffffffffffffffffffffffffffffffff\n      and\n      swap1\n      dup1\n      0x04\n      add\n      sload\n      swap1\n      dup1\n      0x05\n      add\n      0x00\n      swap1\n      sload\n      swap1\n      0x0100\n      exp\n      swap1\n      div\n      0xff\n      and\n      swap1\n      pop\n      dup7\n      jump\t// out\n        /* \"contracts/agency.sol\":3783:4325  function refuseGift(uint giftID) public {... */\n    tag_99:\n        /* \"contracts/agency.sol\":3834:3846  uint buildID */\n      0x00\n        /* \"contracts/agency.sol\":3849:3854  gifts */\n      0x01\n        /* \"contracts/agency.sol\":3855:3861  giftID */\n      dup3\n        /* \"contracts/agency.sol\":3849:3862  gifts[giftID] */\n      dup2\n      sload\n      dup2\n      lt\n      tag_492\n      jumpi\n      tag_493\n      tag_115\n      jump\t// in\n    tag_493:\n    tag_492:\n      swap1\n      0x00\n      mstore\n      keccak256(0x00, 0x20)\n      swap1\n      0x06\n      mul\n      add\n        /* \"contracts/agency.sol\":3849:3870  gifts[giftID].buildID */\n      0x01\n      add\n      sload\n        /* \"contracts/agency.sol\":3834:3870  uint buildID = gifts[giftID].buildID */\n      swap1\n      pop\n        /* \"contracts/agency.sol\":3898:3903  gifts */\n      0x01\n        /* \"contracts/agency.sol\":3898:3910  gifts.length */\n      dup1\n      sload\n      swap1\n      pop\n        /* \"contracts/agency.sol\":3889:3895  giftID */\n      dup3\n        /* \"contracts/agency.sol\":3889:3910  giftID < gifts.length */\n      lt\n        /* \"contracts/agency.sol\":3881:3911  require(giftID < gifts.length) */\n      tag_495\n      jumpi\n      0x00\n      dup1\n      revert\n    tag_495:\n        /* \"contracts/agency.sol\":3954:3969  giftSTAT.ACTIVE */\n      0x00\n        /* \"contracts/agency.sol\":3930:3969  gifts[giftID].status == giftSTAT.ACTIVE */\n      0x04\n      dup2\n      gt\n      iszero\n      tag_496\n      jumpi\n      tag_497\n      tag_294\n      jump\t// in\n    tag_497:\n    tag_496:\n        /* \"contracts/agency.sol\":3930:3935  gifts */\n      0x01\n        /* \"contracts/agency.sol\":3936:3942  giftID */\n      dup4\n        /* \"contracts/agency.sol\":3930:3943  gifts[giftID] */\n      dup2\n      sload\n      dup2\n      lt\n      tag_498\n      jumpi\n      tag_499\n      tag_115\n      jump\t// in\n    tag_499:\n    tag_498:\n      swap1\n      0x00\n      mstore\n      keccak256(0x00, 0x20)\n      swap1\n      0x06\n      mul\n      add\n        /* \"contracts/agency.sol\":3930:3950  gifts[giftID].status */\n      0x05\n      add\n      0x00\n      swap1\n      sload\n      swap1\n      0x0100\n      exp\n      swap1\n      div\n      0xff\n      and\n        /* \"contracts/agency.sol\":3930:3969  gifts[giftID].status == giftSTAT.ACTIVE */\n      0x04\n      dup2\n      gt\n      iszero\n      tag_501\n      jumpi\n      tag_502\n      tag_294\n      jump\t// in\n    tag_502:\n    tag_501:\n      eq\n        /* \"contracts/agency.sol\":3922:3990  require(gifts[giftID].status == giftSTAT.ACTIVE, \"Already finished\") */\n      tag_503\n      jumpi\n      mload(0x40)\n      0x08c379a000000000000000000000000000000000000000000000000000000000\n      dup2\n      mstore\n      0x04\n      add\n      tag_504\n      swap1\n      tag_394\n      jump\t// in\n    tag_504:\n      mload(0x40)\n      dup1\n      swap2\n      sub\n      swap1\n      revert\n    tag_503:\n        /* \"contracts/agency.sol\":4033:4043  msg.sender */\n      caller\n        /* \"contracts/agency.sol\":4009:4043  gifts[giftID]._adrTo == msg.sender */\n      0xffffffffffffffffffffffffffffffffffffffff\n      and\n        /* \"contracts/agency.sol\":4009:4014  gifts */\n      0x01\n        /* \"contracts/agency.sol\":4015:4021  giftID */\n      dup4\n        /* \"contracts/agency.sol\":4009:4022  gifts[giftID] */\n      dup2\n      sload\n      dup2\n      lt\n      tag_505\n      jumpi\n      tag_506\n      tag_115\n      jump\t// in\n    tag_506:\n    tag_505:\n      swap1\n      0x00\n      mstore\n      keccak256(0x00, 0x20)\n      swap1\n      0x06\n      mul\n      add\n        /* \"contracts/agency.sol\":4009:4029  gifts[giftID]._adrTo */\n      0x03\n      add\n      0x00\n      swap1\n      sload\n      swap1\n      0x0100\n      exp\n      swap1\n      div\n      0xffffffffffffffffffffffffffffffffffffffff\n      and\n        /* \"contracts/agency.sol\":4009:4043  gifts[giftID]._adrTo == msg.sender */\n      0xffffffffffffffffffffffffffffffffffffffff\n      and\n      eq\n        /* \"contracts/agency.sol\":4001:4072  require(gifts[giftID]._adrTo == msg.sender, \"This is gift not for you\") */\n      tag_508\n      jumpi\n      mload(0x40)\n      0x08c379a000000000000000000000000000000000000000000000000000000000\n      dup2\n      mstore\n      0x04\n      add\n      tag_509\n      swap1\n      tag_467\n      jump\t// in\n    tag_509:\n      mload(0x40)\n      dup1\n      swap2\n      sub\n      swap1\n      revert\n    tag_508:\n        /* \"contracts/agency.sol\":4108:4123  block.timestamp */\n      timestamp\n        /* \"contracts/agency.sol\":4087:4092  gifts */\n      0x01\n        /* \"contracts/agency.sol\":4093:4099  giftID */\n      dup4\n        /* \"contracts/agency.sol\":4087:4100  gifts[giftID] */\n      dup2\n      sload\n      dup2\n      lt\n      tag_510\n      jumpi\n      tag_511\n      tag_115\n      jump\t// in\n    tag_511:\n    tag_510:\n      swap1\n      0x00\n      mstore\n      keccak256(0x00, 0x20)\n      swap1\n      0x06\n      mul\n      add\n        /* \"contracts/agency.sol\":4087:4105  gifts[giftID].time */\n      0x04\n      add\n      sload\n        /* \"contracts/agency.sol\":4087:4123  gifts[giftID].time > block.timestamp */\n      gt\n        /* \"contracts/agency.sol\":4083:4271  if (gifts[giftID].time > block.timestamp) {... */\n      iszero\n      tag_513\n      jumpi\n        /* \"contracts/agency.sol\":4163:4178  giftSTAT.REFUSE */\n      0x01\n        /* \"contracts/agency.sol\":4140:4145  gifts */\n      dup1\n        /* \"contracts/agency.sol\":4146:4152  giftID */\n      dup4\n        /* \"contracts/agency.sol\":4140:4153  gifts[giftID] */\n      dup2\n      sload\n      dup2\n      lt\n      tag_514\n      jumpi\n      tag_515\n      tag_115\n      jump\t// in\n    tag_515:\n    tag_514:\n      swap1\n      0x00\n      mstore\n      keccak256(0x00, 0x20)\n      swap1\n      0x06\n      mul\n      add\n        /* \"contracts/agency.sol\":4140:4160  gifts[giftID].status */\n      0x05\n      add\n      0x00\n        /* \"contracts/agency.sol\":4140:4178  gifts[giftID].status = giftSTAT.REFUSE */\n      0x0100\n      exp\n      dup2\n      sload\n      dup2\n      0xff\n      mul\n      not\n      and\n      swap1\n      dup4\n      0x04\n      dup2\n      gt\n      iszero\n      tag_517\n      jumpi\n      tag_518\n      tag_294\n      jump\t// in\n    tag_518:\n    tag_517:\n      mul\n      or\n      swap1\n      sstore\n      pop\n        /* \"contracts/agency.sol\":4083:4271  if (gifts[giftID].time > block.timestamp) {... */\n      jump(tag_519)\n    tag_513:\n        /* \"contracts/agency.sol\":4243:4259  giftSTAT.ENDTIME */\n      0x03\n        /* \"contracts/agency.sol\":4220:4225  gifts */\n      0x01\n        /* \"contracts/agency.sol\":4226:4232  giftID */\n      dup4\n        /* \"contracts/agency.sol\":4220:4233  gifts[giftID] */\n      dup2\n      sload\n      dup2\n      lt\n      tag_520\n      jumpi\n      tag_521\n      tag_115\n      jump\t// in\n    tag_521:\n    tag_520:\n      swap1\n      0x00\n      mstore\n      keccak256(0x00, 0x20)\n      swap1\n      0x06\n      mul\n      add\n        /* \"contracts/agency.sol\":4220:4240  gifts[giftID].status */\n      0x05\n      add\n      0x00\n        /* \"contracts/agency.sol\":4220:4259  gifts[giftID].status = giftSTAT.ENDTIME */\n      0x0100\n      exp\n      dup2\n      sload\n      dup2\n      0xff\n      mul\n      not\n      and\n      swap1\n      dup4\n      0x04\n      dup2\n      gt\n      iszero\n      tag_523\n      jumpi\n      tag_524\n      tag_294\n      jump\t// in\n    tag_524:\n    tag_523:\n      mul\n      or\n      swap1\n      sstore\n      pop\n        /* \"contracts/agency.sol\":4083:4271  if (gifts[giftID].time > block.timestamp) {... */\n    tag_519:\n        /* \"contracts/agency.sol\":4312:4317  false */\n      0x00\n        /* \"contracts/agency.sol\":4281:4290  buildings */\n      dup1\n        /* \"contracts/agency.sol\":4291:4298  buildID */\n      dup3\n        /* \"contracts/agency.sol\":4281:4299  buildings[buildID] */\n      dup2\n      sload\n      dup2\n      lt\n      tag_525\n      jumpi\n      tag_526\n      tag_115\n      jump\t// in\n    tag_526:\n    tag_525:\n      swap1\n      0x00\n      mstore\n      keccak256(0x00, 0x20)\n      swap1\n      0x05\n      mul\n      add\n        /* \"contracts/agency.sol\":4281:4309  buildings[buildID].giftSTATE */\n      0x04\n      add\n      0x00\n        /* \"contracts/agency.sol\":4281:4317  buildings[buildID].giftSTATE = false */\n      0x0100\n      exp\n      dup2\n      sload\n      dup2\n      0xff\n      mul\n      not\n      and\n      swap1\n      dup4\n      iszero\n      iszero\n      mul\n      or\n      swap1\n      sstore\n      pop\n        /* \"contracts/agency.sol\":3823:4325  {... */\n      pop\n        /* \"contracts/agency.sol\":3783:4325  function refuseGift(uint giftID) public {... */\n      pop\n      jump\t// out\n        /* \"contracts/agency.sol\":4766:5599  function addPrice(uint saleID) public payable {... */\n    tag_102:\n        /* \"contracts/agency.sol\":4823:4835  uint buildID */\n      0x00\n        /* \"contracts/agency.sol\":4838:4843  sales */\n      0x02\n        /* \"contracts/agency.sol\":4844:4850  saleID */\n      dup3\n        /* \"contracts/agency.sol\":4838:4851  sales[saleID] */\n      dup2\n      sload\n      dup2\n      lt\n      tag_529\n      jumpi\n      tag_530\n      tag_115\n      jump\t// in\n    tag_530:\n    tag_529:\n      swap1\n      0x00\n      mstore\n      keccak256(0x00, 0x20)\n      swap1\n      0x06\n      mul\n      add\n        /* \"contracts/agency.sol\":4838:4859  sales[saleID].buildID */\n      0x00\n      add\n      sload\n        /* \"contracts/agency.sol\":4823:4859  uint buildID = sales[saleID].buildID */\n      swap1\n      pop\n        /* \"contracts/agency.sol\":4911:4916  false */\n      0x00\n        /* \"contracts/agency.sol\":4878:4916  buildings[buildID].arestSTATE == false */\n      iszero\n      iszero\n        /* \"contracts/agency.sol\":4878:4887  buildings */\n      0x00\n        /* \"contracts/agency.sol\":4888:4895  buildID */\n      dup3\n        /* \"contracts/agency.sol\":4878:4896  buildings[buildID] */\n      dup2\n      sload\n      dup2\n      lt\n      tag_532\n      jumpi\n      tag_533\n      tag_115\n      jump\t// in\n    tag_533:\n    tag_532:\n      swap1\n      0x00\n      mstore\n      keccak256(0x00, 0x20)\n      swap1\n      0x05\n      mul\n      add\n        /* \"contracts/agency.sol\":4878:4907  buildings[buildID].arestSTATE */\n      0x04\n      add\n      0x02\n      swap1\n      sload\n      swap1\n      0x0100\n      exp\n      swap1\n      div\n      0xff\n      and\n        /* \"contracts/agency.sol\":4878:4916  buildings[buildID].arestSTATE == false */\n      iszero\n      iszero\n      eq\n        /* \"contracts/agency.sol\":4870:4935  require(buildings[buildID].arestSTATE == false, \"estate arested\") */\n      tag_535\n      jumpi\n      mload(0x40)\n      0x08c379a000000000000000000000000000000000000000000000000000000000\n      dup2\n      mstore\n      0x04\n      add\n      tag_536\n      swap1\n      tag_537\n      jump\t// in\n    tag_536:\n      mload(0x40)\n      dup1\n      swap2\n      sub\n      swap1\n      revert\n    tag_535:\n        /* \"contracts/agency.sol\":4963:4968  sales */\n      0x02\n        /* \"contracts/agency.sol\":4963:4975  sales.length */\n      dup1\n      sload\n      swap1\n      pop\n        /* \"contracts/agency.sol\":4954:4960  saleID */\n      dup3\n        /* \"contracts/agency.sol\":4954:4975  saleID < sales.length */\n      lt\n        /* \"contracts/agency.sol\":4946:4997  require(saleID < sales.length,\"wrong saleID value\") */\n      tag_538\n      jumpi\n      mload(0x40)\n      0x08c379a000000000000000000000000000000000000000000000000000000000\n      dup2\n      mstore\n      0x04\n      add\n      tag_539\n      swap1\n      tag_126\n      jump\t// in\n    tag_539:\n      mload(0x40)\n      dup1\n      swap2\n      sub\n      swap1\n      revert\n    tag_538:\n        /* \"contracts/agency.sol\":5039:5049  msg.sender */\n      caller\n        /* \"contracts/agency.sol\":5016:5049  sales[saleID].owner != msg.sender */\n      0xffffffffffffffffffffffffffffffffffffffff\n      and\n        /* \"contracts/agency.sol\":5016:5021  sales */\n      0x02\n        /* \"contracts/agency.sol\":5022:5028  saleID */\n      dup4\n        /* \"contracts/agency.sol\":5016:5029  sales[saleID] */\n      dup2\n      sload\n      dup2\n      lt\n      tag_540\n      jumpi\n      tag_541\n      tag_115\n      jump\t// in\n    tag_541:\n    tag_540:\n      swap1\n      0x00\n      mstore\n      keccak256(0x00, 0x20)\n      swap1\n      0x06\n      mul\n      add\n        /* \"contracts/agency.sol\":5016:5035  sales[saleID].owner */\n      0x01\n      add\n      0x00\n      swap1\n      sload\n      swap1\n      0x0100\n      exp\n      swap1\n      div\n      0xffffffffffffffffffffffffffffffffffffffff\n      and\n        /* \"contracts/agency.sol\":5016:5049  sales[saleID].owner != msg.sender */\n      0xffffffffffffffffffffffffffffffffffffffff\n      and\n      sub\n        /* \"contracts/agency.sol\":5008:5063  require(sales[saleID].owner != msg.sender, \"self sale\") */\n      tag_543\n      jumpi\n      mload(0x40)\n      0x08c379a000000000000000000000000000000000000000000000000000000000\n      dup2\n      mstore\n      0x04\n      add\n      tag_544\n      swap1\n      tag_545\n      jump\t// in\n    tag_544:\n      mload(0x40)\n      dup1\n      swap2\n      sub\n      swap1\n      revert\n    tag_543:\n        /* \"contracts/agency.sol\":5116:5117  0 */\n      0x00\n        /* \"contracts/agency.sol\":5082:5118  sales[saleID].newOwner == address(0) */\n      0xffffffffffffffffffffffffffffffffffffffff\n      and\n        /* \"contracts/agency.sol\":5082:5087  sales */\n      0x02\n        /* \"contracts/agency.sol\":5088:5094  saleID */\n      dup4\n        /* \"contracts/agency.sol\":5082:5095  sales[saleID] */\n      dup2\n      sload\n      dup2\n      lt\n      tag_546\n      jumpi\n      tag_547\n      tag_115\n      jump\t// in\n    tag_547:\n    tag_546:\n      swap1\n      0x00\n      mstore\n      keccak256(0x00, 0x20)\n      swap1\n      0x06\n      mul\n      add\n        /* \"contracts/agency.sol\":5082:5104  sales[saleID].newOwner */\n      0x02\n      add\n      0x00\n      swap1\n      sload\n      swap1\n      0x0100\n      exp\n      swap1\n      div\n      0xffffffffffffffffffffffffffffffffffffffff\n      and\n        /* \"contracts/agency.sol\":5082:5118  sales[saleID].newOwner == address(0) */\n      0xffffffffffffffffffffffffffffffffffffffff\n      and\n      eq\n        /* \"contracts/agency.sol\":5074:5137  require(sales[saleID].newOwner == address(0), \"Sale is closed\") */\n      tag_549\n      jumpi\n      mload(0x40)\n      0x08c379a000000000000000000000000000000000000000000000000000000000\n      dup2\n      mstore\n      0x04\n      add\n      tag_550\n      swap1\n      tag_132\n      jump\t// in\n    tag_550:\n      mload(0x40)\n      dup1\n      swap2\n      sub\n      swap1\n      revert\n    tag_549:\n        /* \"contracts/agency.sol\":5179:5188  msg.value */\n      callvalue\n        /* \"contracts/agency.sol\":5156:5161  sales */\n      0x02\n        /* \"contracts/agency.sol\":5162:5168  saleID */\n      dup4\n        /* \"contracts/agency.sol\":5156:5169  sales[saleID] */\n      dup2\n      sload\n      dup2\n      lt\n      tag_551\n      jumpi\n      tag_552\n      tag_115\n      jump\t// in\n    tag_552:\n    tag_551:\n      swap1\n      0x00\n      mstore\n      keccak256(0x00, 0x20)\n      swap1\n      0x06\n      mul\n      add\n        /* \"contracts/agency.sol\":5156:5175  sales[saleID].price */\n      0x03\n      add\n      sload\n        /* \"contracts/agency.sol\":5156:5188  sales[saleID].price <= msg.value */\n      gt\n      iszero\n        /* \"contracts/agency.sol\":5148:5208  require(sales[saleID].price <= msg.value, \"wrong eth value\") */\n      tag_554\n      jumpi\n      mload(0x40)\n      0x08c379a000000000000000000000000000000000000000000000000000000000\n      dup2\n      mstore\n      0x04\n      add\n      tag_555\n      swap1\n      tag_556\n      jump\t// in\n    tag_555:\n      mload(0x40)\n      dup1\n      swap2\n      sub\n      swap1\n      revert\n    tag_554:\n        /* \"contracts/agency.sol\":5219:5228  bool stat */\n      0x00\n        /* \"contracts/agency.sol\":5252:5258  uint i */\n      dup1\n        /* \"contracts/agency.sol\":5247:5440  for (uint i = 0; i < sales[saleID].buyers.length; i++){... */\n    tag_557:\n        /* \"contracts/agency.sol\":5268:5273  sales */\n      0x02\n        /* \"contracts/agency.sol\":5274:5280  saleID */\n      dup5\n        /* \"contracts/agency.sol\":5268:5281  sales[saleID] */\n      dup2\n      sload\n      dup2\n      lt\n      tag_560\n      jumpi\n      tag_561\n      tag_115\n      jump\t// in\n    tag_561:\n    tag_560:\n      swap1\n      0x00\n      mstore\n      keccak256(0x00, 0x20)\n      swap1\n      0x06\n      mul\n      add\n        /* \"contracts/agency.sol\":5268:5288  sales[saleID].buyers */\n      0x04\n      add\n        /* \"contracts/agency.sol\":5268:5295  sales[saleID].buyers.length */\n      dup1\n      sload\n      swap1\n      pop\n        /* \"contracts/agency.sol\":5264:5265  i */\n      dup2\n        /* \"contracts/agency.sol\":5264:5295  i < sales[saleID].buyers.length */\n      lt\n        /* \"contracts/agency.sol\":5247:5440  for (uint i = 0; i < sales[saleID].buyers.length; i++){... */\n      iszero\n      tag_558\n      jumpi\n        /* \"contracts/agency.sol\":5347:5357  msg.sender */\n      caller\n        /* \"contracts/agency.sol\":5320:5357  sales[saleID].buyers[i] == msg.sender */\n      0xffffffffffffffffffffffffffffffffffffffff\n      and\n        /* \"contracts/agency.sol\":5320:5325  sales */\n      0x02\n        /* \"contracts/agency.sol\":5326:5332  saleID */\n      dup6\n        /* \"contracts/agency.sol\":5320:5333  sales[saleID] */\n      dup2\n      sload\n      dup2\n      lt\n      tag_563\n      jumpi\n      tag_564\n      tag_115\n      jump\t// in\n    tag_564:\n    tag_563:\n      swap1\n      0x00\n      mstore\n      keccak256(0x00, 0x20)\n      swap1\n      0x06\n      mul\n      add\n        /* \"contracts/agency.sol\":5320:5340  sales[saleID].buyers */\n      0x04\n      add\n        /* \"contracts/agency.sol\":5341:5342  i */\n      dup3\n        /* \"contracts/agency.sol\":5320:5343  sales[saleID].buyers[i] */\n      dup2\n      sload\n      dup2\n      lt\n      tag_566\n      jumpi\n      tag_567\n      tag_115\n      jump\t// in\n    tag_567:\n    tag_566:\n      swap1\n      0x00\n      mstore\n      keccak256(0x00, 0x20)\n      add\n      0x00\n      swap1\n      sload\n      swap1\n      0x0100\n      exp\n      swap1\n      div\n      0xffffffffffffffffffffffffffffffffffffffff\n      and\n        /* \"contracts/agency.sol\":5320:5357  sales[saleID].buyers[i] == msg.sender */\n      0xffffffffffffffffffffffffffffffffffffffff\n      and\n      sub\n        /* \"contracts/agency.sol\":5316:5429  if (sales[saleID].buyers[i] == msg.sender) {... */\n      tag_569\n      jumpi\n        /* \"contracts/agency.sol\":5385:5389  true */\n      0x01\n        /* \"contracts/agency.sol\":5378:5389  stat = true */\n      swap2\n      pop\n        /* \"contracts/agency.sol\":5408:5413  break */\n      jump(tag_558)\n        /* \"contracts/agency.sol\":5316:5429  if (sales[saleID].buyers[i] == msg.sender) {... */\n    tag_569:\n        /* \"contracts/agency.sol\":5297:5300  i++ */\n      dup1\n      dup1\n      0x01\n      add\n      swap2\n      pop\n      pop\n        /* \"contracts/agency.sol\":5247:5440  for (uint i = 0; i < sales[saleID].buyers.length; i++){... */\n      jump(tag_557)\n    tag_558:\n      pop\n        /* \"contracts/agency.sol\":5466:5471  false */\n      0x00\n        /* \"contracts/agency.sol\":5458:5471  stat == false */\n      iszero\n      iszero\n        /* \"contracts/agency.sol\":5458:5462  stat */\n      dup2\n        /* \"contracts/agency.sol\":5458:5471  stat == false */\n      iszero\n      iszero\n      eq\n        /* \"contracts/agency.sol\":5450:5496  require(stat == false,\"you already in prices\") */\n      tag_570\n      jumpi\n      mload(0x40)\n      0x08c379a000000000000000000000000000000000000000000000000000000000\n      dup2\n      mstore\n      0x04\n      add\n      tag_571\n      swap1\n      tag_572\n      jump\t// in\n    tag_571:\n      mload(0x40)\n      dup1\n      swap2\n      sub\n      swap1\n      revert\n    tag_570:\n        /* \"contracts/agency.sol\":5507:5512  sales */\n      0x02\n        /* \"contracts/agency.sol\":5513:5519  saleID */\n      dup4\n        /* \"contracts/agency.sol\":5507:5520  sales[saleID] */\n      dup2\n      sload\n      dup2\n      lt\n      tag_573\n      jumpi\n      tag_574\n      tag_115\n      jump\t// in\n    tag_574:\n    tag_573:\n      swap1\n      0x00\n      mstore\n      keccak256(0x00, 0x20)\n      swap1\n      0x06\n      mul\n      add\n        /* \"contracts/agency.sol\":5507:5527  sales[saleID].buyers */\n      0x04\n      add\n        /* \"contracts/agency.sol\":5533:5543  msg.sender */\n      caller\n        /* \"contracts/agency.sol\":5507:5544  sales[saleID].buyers.push(msg.sender) */\n      swap1\n      dup1\n      0x01\n      dup2\n      sload\n      add\n      dup1\n      dup3\n      sstore\n      dup1\n      swap2\n      pop\n      pop\n      0x01\n      swap1\n      sub\n      swap1\n      0x00\n      mstore\n      keccak256(0x00, 0x20)\n      add\n      0x00\n      swap1\n      swap2\n      swap1\n      swap2\n      swap1\n      swap2\n      0x0100\n      exp\n      dup2\n      sload\n      dup2\n      0xffffffffffffffffffffffffffffffffffffffff\n      mul\n      not\n      and\n      swap1\n      dup4\n      0xffffffffffffffffffffffffffffffffffffffff\n      and\n      mul\n      or\n      swap1\n      sstore\n      pop\n        /* \"contracts/agency.sol\":5555:5560  sales */\n      0x02\n        /* \"contracts/agency.sol\":5561:5567  saleID */\n      dup4\n        /* \"contracts/agency.sol\":5555:5568  sales[saleID] */\n      dup2\n      sload\n      dup2\n      lt\n      tag_577\n      jumpi\n      tag_578\n      tag_115\n      jump\t// in\n    tag_578:\n    tag_577:\n      swap1\n      0x00\n      mstore\n      keccak256(0x00, 0x20)\n      swap1\n      0x06\n      mul\n      add\n        /* \"contracts/agency.sol\":5555:5575  sales[saleID].prices */\n      0x05\n      add\n        /* \"contracts/agency.sol\":5581:5590  msg.value */\n      callvalue\n        /* \"contracts/agency.sol\":5555:5591  sales[saleID].prices.push(msg.value) */\n      swap1\n      dup1\n      0x01\n      dup2\n      sload\n      add\n      dup1\n      dup3\n      sstore\n      dup1\n      swap2\n      pop\n      pop\n      0x01\n      swap1\n      sub\n      swap1\n      0x00\n      mstore\n      keccak256(0x00, 0x20)\n      add\n      0x00\n      swap1\n      swap2\n      swap1\n      swap2\n      swap1\n      swap2\n      pop\n      sstore\n        /* \"contracts/agency.sol\":4812:5599  {... */\n      pop\n      pop\n        /* \"contracts/agency.sol\":4766:5599  function addPrice(uint saleID) public payable {... */\n      pop\n      jump\t// out\n        /* \"contracts/agency.sol\":842:862  address public admin */\n    tag_105:\n      0x03\n      0x00\n      swap1\n      sload\n      swap1\n      0x0100\n      exp\n      swap1\n      div\n      0xffffffffffffffffffffffffffffffffffffffff\n      and\n      dup2\n      jump\t// out\n    tag_329:\n      dup3\n      dup1\n      sload\n      dup3\n      dup3\n      sstore\n      swap1\n      0x00\n      mstore\n      keccak256(0x00, 0x20)\n      swap1\n      dup2\n      add\n      swap3\n      dup3\n      iszero\n      tag_581\n      jumpi\n      swap2\n      0x20\n      mul\n      dup3\n      add\n    tag_582:\n      dup3\n      dup2\n      gt\n      iszero\n      tag_583\n      jumpi\n      dup3\n      mload\n      dup3\n      exp(0x0100, 0x00)\n      dup2\n      sload\n      dup2\n      0xffffffffffffffffffffffffffffffffffffffff\n      mul\n      not\n      and\n      swap1\n      dup4\n      0xffffffffffffffffffffffffffffffffffffffff\n      and\n      mul\n      or\n      swap1\n      sstore\n      pop\n      swap2\n      0x20\n      add\n      swap2\n      swap1\n      0x01\n      add\n      swap1\n      jump(tag_582)\n    tag_583:\n    tag_581:\n      pop\n      swap1\n      pop\n      tag_584\n      swap2\n      swap1\n      tag_585\n      jump\t// in\n    tag_584:\n      pop\n      swap1\n      jump\t// out\n    tag_331:\n      dup3\n      dup1\n      sload\n      dup3\n      dup3\n      sstore\n      swap1\n      0x00\n      mstore\n      keccak256(0x00, 0x20)\n      swap1\n      dup2\n      add\n      swap3\n      dup3\n      iszero\n      tag_586\n      jumpi\n      swap2\n      0x20\n      mul\n      dup3\n      add\n    tag_587:\n      dup3\n      dup2\n      gt\n      iszero\n      tag_588\n      jumpi\n      dup3\n      mload\n      dup3\n      sstore\n      swap2\n      0x20\n      add\n      swap2\n      swap1\n      0x01\n      add\n      swap1\n      jump(tag_587)\n    tag_588:\n    tag_586:\n      pop\n      swap1\n      pop\n      tag_589\n      swap2\n      swap1\n      tag_585\n      jump\t// in\n    tag_589:\n      pop\n      swap1\n      jump\t// out\n    tag_585:\n    tag_590:\n      dup1\n      dup3\n      gt\n      iszero\n      tag_591\n      jumpi\n      0x00\n      dup2\n      0x00\n      swap1\n      sstore\n      pop\n      0x01\n      add\n      jump(tag_590)\n    tag_591:\n      pop\n      swap1\n      jump\t// out\n        /* \"#utility.yul\":7:82   */\n    tag_592:\n        /* \"#utility.yul\":40:46   */\n      0x00\n        /* \"#utility.yul\":73:75   */\n      0x40\n        /* \"#utility.yul\":67:76   */\n      mload\n        /* \"#utility.yul\":57:76   */\n      swap1\n      pop\n        /* \"#utility.yul\":7:82   */\n      swap1\n      jump\t// out\n        /* \"#utility.yul\":88:205   */\n    tag_593:\n        /* \"#utility.yul\":197:198   */\n      0x00\n        /* \"#utility.yul\":194:195   */\n      dup1\n        /* \"#utility.yul\":187:199   */\n      revert\n        /* \"#utility.yul\":211:328   */\n    tag_594:\n        /* \"#utility.yul\":320:321   */\n      0x00\n        /* \"#utility.yul\":317:318   */\n      dup1\n        /* \"#utility.yul\":310:322   */\n      revert\n        /* \"#utility.yul\":334:411   */\n    tag_595:\n        /* \"#utility.yul\":371:378   */\n      0x00\n        /* \"#utility.yul\":400:405   */\n      dup2\n        /* \"#utility.yul\":389:405   */\n      swap1\n      pop\n        /* \"#utility.yul\":334:411   */\n      swap2\n      swap1\n      pop\n      jump\t// out\n        /* \"#utility.yul\":417:539   */\n    tag_596:\n        /* \"#utility.yul\":490:514   */\n      tag_709\n        /* \"#utility.yul\":508:513   */\n      dup2\n        /* \"#utility.yul\":490:514   */\n      tag_595\n      jump\t// in\n    tag_709:\n        /* \"#utility.yul\":483:488   */\n      dup2\n        /* \"#utility.yul\":480:515   */\n      eq\n        /* \"#utility.yul\":470:533   */\n      tag_710\n      jumpi\n        /* \"#utility.yul\":529:530   */\n      0x00\n        /* \"#utility.yul\":526:527   */\n      dup1\n        /* \"#utility.yul\":519:531   */\n      revert\n        /* \"#utility.yul\":470:533   */\n    tag_710:\n        /* \"#utility.yul\":417:539   */\n      pop\n      jump\t// out\n        /* \"#utility.yul\":545:684   */\n    tag_597:\n        /* \"#utility.yul\":591:596   */\n      0x00\n        /* \"#utility.yul\":629:635   */\n      dup2\n        /* \"#utility.yul\":616:636   */\n      calldataload\n        /* \"#utility.yul\":607:636   */\n      swap1\n      pop\n        /* \"#utility.yul\":645:678   */\n      tag_712\n        /* \"#utility.yul\":672:677   */\n      dup2\n        /* \"#utility.yul\":645:678   */\n      tag_596\n      jump\t// in\n    tag_712:\n        /* \"#utility.yul\":545:684   */\n      swap3\n      swap2\n      pop\n      pop\n      jump\t// out\n        /* \"#utility.yul\":690:780   */\n    tag_598:\n        /* \"#utility.yul\":724:731   */\n      0x00\n        /* \"#utility.yul\":767:772   */\n      dup2\n        /* \"#utility.yul\":760:773   */\n      iszero\n        /* \"#utility.yul\":753:774   */\n      iszero\n        /* \"#utility.yul\":742:774   */\n      swap1\n      pop\n        /* \"#utility.yul\":690:780   */\n      swap2\n      swap1\n      pop\n      jump\t// out\n        /* \"#utility.yul\":786:902   */\n    tag_599:\n        /* \"#utility.yul\":856:877   */\n      tag_715\n        /* \"#utility.yul\":871:876   */\n      dup2\n        /* \"#utility.yul\":856:877   */\n      tag_598\n      jump\t// in\n    tag_715:\n        /* \"#utility.yul\":849:854   */\n      dup2\n        /* \"#utility.yul\":846:878   */\n      eq\n        /* \"#utility.yul\":836:896   */\n      tag_716\n      jumpi\n        /* \"#utility.yul\":892:893   */\n      0x00\n        /* \"#utility.yul\":889:890   */\n      dup1\n        /* \"#utility.yul\":882:894   */\n      revert\n        /* \"#utility.yul\":836:896   */\n    tag_716:\n        /* \"#utility.yul\":786:902   */\n      pop\n      jump\t// out\n        /* \"#utility.yul\":908:1041   */\n    tag_600:\n        /* \"#utility.yul\":951:956   */\n      0x00\n        /* \"#utility.yul\":989:995   */\n      dup2\n        /* \"#utility.yul\":976:996   */\n      calldataload\n        /* \"#utility.yul\":967:996   */\n      swap1\n      pop\n        /* \"#utility.yul\":1005:1035   */\n      tag_718\n        /* \"#utility.yul\":1029:1034   */\n      dup2\n        /* \"#utility.yul\":1005:1035   */\n      tag_599\n      jump\t// in\n    tag_718:\n        /* \"#utility.yul\":908:1041   */\n      swap3\n      swap2\n      pop\n      pop\n      jump\t// out\n        /* \"#utility.yul\":1047:1515   */\n    tag_26:\n        /* \"#utility.yul\":1112:1118   */\n      0x00\n        /* \"#utility.yul\":1120:1126   */\n      dup1\n        /* \"#utility.yul\":1169:1171   */\n      0x40\n        /* \"#utility.yul\":1157:1166   */\n      dup4\n        /* \"#utility.yul\":1148:1155   */\n      dup6\n        /* \"#utility.yul\":1144:1167   */\n      sub\n        /* \"#utility.yul\":1140:1172   */\n      slt\n        /* \"#utility.yul\":1137:1256   */\n      iszero\n      tag_720\n      jumpi\n        /* \"#utility.yul\":1175:1254   */\n      tag_721\n      tag_593\n      jump\t// in\n    tag_721:\n        /* \"#utility.yul\":1137:1256   */\n    tag_720:\n        /* \"#utility.yul\":1295:1296   */\n      0x00\n        /* \"#utility.yul\":1320:1373   */\n      tag_722\n        /* \"#utility.yul\":1365:1372   */\n      dup6\n        /* \"#utility.yul\":1356:1362   */\n      dup3\n        /* \"#utility.yul\":1345:1354   */\n      dup7\n        /* \"#utility.yul\":1341:1363   */\n      add\n        /* \"#utility.yul\":1320:1373   */\n      tag_597\n      jump\t// in\n    tag_722:\n        /* \"#utility.yul\":1310:1373   */\n      swap3\n      pop\n        /* \"#utility.yul\":1266:1383   */\n      pop\n        /* \"#utility.yul\":1422:1424   */\n      0x20\n        /* \"#utility.yul\":1448:1498   */\n      tag_723\n        /* \"#utility.yul\":1490:1497   */\n      dup6\n        /* \"#utility.yul\":1481:1487   */\n      dup3\n        /* \"#utility.yul\":1470:1479   */\n      dup7\n        /* \"#utility.yul\":1466:1488   */\n      add\n        /* \"#utility.yul\":1448:1498   */\n      tag_600\n      jump\t// in\n    tag_723:\n        /* \"#utility.yul\":1438:1498   */\n      swap2\n      pop\n        /* \"#utility.yul\":1393:1508   */\n      pop\n        /* \"#utility.yul\":1047:1515   */\n      swap3\n      pop\n      swap3\n      swap1\n      pop\n      jump\t// out\n        /* \"#utility.yul\":1521:1639   */\n    tag_601:\n        /* \"#utility.yul\":1608:1632   */\n      tag_725\n        /* \"#utility.yul\":1626:1631   */\n      dup2\n        /* \"#utility.yul\":1608:1632   */\n      tag_595\n      jump\t// in\n    tag_725:\n        /* \"#utility.yul\":1603:1606   */\n      dup3\n        /* \"#utility.yul\":1596:1633   */\n      mstore\n        /* \"#utility.yul\":1521:1639   */\n      pop\n      pop\n      jump\t// out\n        /* \"#utility.yul\":1645:1867   */\n    tag_32:\n        /* \"#utility.yul\":1738:1742   */\n      0x00\n        /* \"#utility.yul\":1776:1778   */\n      0x20\n        /* \"#utility.yul\":1765:1774   */\n      dup3\n        /* \"#utility.yul\":1761:1779   */\n      add\n        /* \"#utility.yul\":1753:1779   */\n      swap1\n      pop\n        /* \"#utility.yul\":1789:1860   */\n      tag_727\n        /* \"#utility.yul\":1857:1858   */\n      0x00\n        /* \"#utility.yul\":1846:1855   */\n      dup4\n        /* \"#utility.yul\":1842:1859   */\n      add\n        /* \"#utility.yul\":1833:1839   */\n      dup5\n        /* \"#utility.yul\":1789:1860   */\n      tag_601\n      jump\t// in\n    tag_727:\n        /* \"#utility.yul\":1645:1867   */\n      swap3\n      swap2\n      pop\n      pop\n      jump\t// out\n        /* \"#utility.yul\":1873:2202   */\n    tag_35:\n        /* \"#utility.yul\":1932:1938   */\n      0x00\n        /* \"#utility.yul\":1981:1983   */\n      0x20\n        /* \"#utility.yul\":1969:1978   */\n      dup3\n        /* \"#utility.yul\":1960:1967   */\n      dup5\n        /* \"#utility.yul\":1956:1979   */\n      sub\n        /* \"#utility.yul\":1952:1984   */\n      slt\n        /* \"#utility.yul\":1949:2068   */\n      iszero\n      tag_729\n      jumpi\n        /* \"#utility.yul\":1987:2066   */\n      tag_730\n      tag_593\n      jump\t// in\n    tag_730:\n        /* \"#utility.yul\":1949:2068   */\n    tag_729:\n        /* \"#utility.yul\":2107:2108   */\n      0x00\n        /* \"#utility.yul\":2132:2185   */\n      tag_731\n        /* \"#utility.yul\":2177:2184   */\n      dup5\n        /* \"#utility.yul\":2168:2174   */\n      dup3\n        /* \"#utility.yul\":2157:2166   */\n      dup6\n        /* \"#utility.yul\":2153:2175   */\n      add\n        /* \"#utility.yul\":2132:2185   */\n      tag_597\n      jump\t// in\n    tag_731:\n        /* \"#utility.yul\":2122:2185   */\n      swap2\n      pop\n        /* \"#utility.yul\":2078:2195   */\n      pop\n        /* \"#utility.yul\":1873:2202   */\n      swap3\n      swap2\n      pop\n      pop\n      jump\t// out\n        /* \"#utility.yul\":2208:2334   */\n    tag_602:\n        /* \"#utility.yul\":2245:2252   */\n      0x00\n        /* \"#utility.yul\":2285:2327   */\n      0xffffffffffffffffffffffffffffffffffffffff\n        /* \"#utility.yul\":2278:2283   */\n      dup3\n        /* \"#utility.yul\":2274:2328   */\n      and\n        /* \"#utility.yul\":2263:2328   */\n      swap1\n      pop\n        /* \"#utility.yul\":2208:2334   */\n      swap2\n      swap1\n      pop\n      jump\t// out\n        /* \"#utility.yul\":2340:2436   */\n    tag_603:\n        /* \"#utility.yul\":2377:2384   */\n      0x00\n        /* \"#utility.yul\":2406:2430   */\n      tag_734\n        /* \"#utility.yul\":2424:2429   */\n      dup3\n        /* \"#utility.yul\":2406:2430   */\n      tag_602\n      jump\t// in\n    tag_734:\n        /* \"#utility.yul\":2395:2430   */\n      swap1\n      pop\n        /* \"#utility.yul\":2340:2436   */\n      swap2\n      swap1\n      pop\n      jump\t// out\n        /* \"#utility.yul\":2442:2560   */\n    tag_604:\n        /* \"#utility.yul\":2529:2553   */\n      tag_736\n        /* \"#utility.yul\":2547:2552   */\n      dup2\n        /* \"#utility.yul\":2529:2553   */\n      tag_603\n      jump\t// in\n    tag_736:\n        /* \"#utility.yul\":2524:2527   */\n      dup3\n        /* \"#utility.yul\":2517:2554   */\n      mstore\n        /* \"#utility.yul\":2442:2560   */\n      pop\n      pop\n      jump\t// out\n        /* \"#utility.yul\":2566:2665   */\n    tag_605:\n        /* \"#utility.yul\":2618:2624   */\n      0x00\n        /* \"#utility.yul\":2652:2657   */\n      dup2\n        /* \"#utility.yul\":2646:2658   */\n      mload\n        /* \"#utility.yul\":2636:2658   */\n      swap1\n      pop\n        /* \"#utility.yul\":2566:2665   */\n      swap2\n      swap1\n      pop\n      jump\t// out\n        /* \"#utility.yul\":2671:2840   */\n    tag_606:\n        /* \"#utility.yul\":2755:2766   */\n      0x00\n        /* \"#utility.yul\":2789:2795   */\n      dup3\n        /* \"#utility.yul\":2784:2787   */\n      dup3\n        /* \"#utility.yul\":2777:2796   */\n      mstore\n        /* \"#utility.yul\":2829:2833   */\n      0x20\n        /* \"#utility.yul\":2824:2827   */\n      dup3\n        /* \"#utility.yul\":2820:2834   */\n      add\n        /* \"#utility.yul\":2805:2834   */\n      swap1\n      pop\n        /* \"#utility.yul\":2671:2840   */\n      swap3\n      swap2\n      pop\n      pop\n      jump\t// out\n        /* \"#utility.yul\":2846:2985   */\n    tag_607:\n        /* \"#utility.yul\":2935:2941   */\n      dup3\n        /* \"#utility.yul\":2930:2933   */\n      dup2\n        /* \"#utility.yul\":2925:2928   */\n      dup4\n        /* \"#utility.yul\":2919:2942   */\n      mcopy\n        /* \"#utility.yul\":2976:2977   */\n      0x00\n        /* \"#utility.yul\":2967:2973   */\n      dup4\n        /* \"#utility.yul\":2962:2965   */\n      dup4\n        /* \"#utility.yul\":2958:2974   */\n      add\n        /* \"#utility.yul\":2951:2978   */\n      mstore\n        /* \"#utility.yul\":2846:2985   */\n      pop\n      pop\n      pop\n      jump\t// out\n        /* \"#utility.yul\":2991:3093   */\n    tag_608:\n        /* \"#utility.yul\":3032:3038   */\n      0x00\n        /* \"#utility.yul\":3083:3085   */\n      0x1f\n        /* \"#utility.yul\":3079:3086   */\n      not\n        /* \"#utility.yul\":3074:3076   */\n      0x1f\n        /* \"#utility.yul\":3067:3072   */\n      dup4\n        /* \"#utility.yul\":3063:3077   */\n      add\n        /* \"#utility.yul\":3059:3087   */\n      and\n        /* \"#utility.yul\":3049:3087   */\n      swap1\n      pop\n        /* \"#utility.yul\":2991:3093   */\n      swap2\n      swap1\n      pop\n      jump\t// out\n        /* \"#utility.yul\":3099:3476   */\n    tag_609:\n        /* \"#utility.yul\":3187:3190   */\n      0x00\n        /* \"#utility.yul\":3215:3254   */\n      tag_742\n        /* \"#utility.yul\":3248:3253   */\n      dup3\n        /* \"#utility.yul\":3215:3254   */\n      tag_605\n      jump\t// in\n    tag_742:\n        /* \"#utility.yul\":3270:3341   */\n      tag_743\n        /* \"#utility.yul\":3334:3340   */\n      dup2\n        /* \"#utility.yul\":3329:3332   */\n      dup6\n        /* \"#utility.yul\":3270:3341   */\n      tag_606\n      jump\t// in\n    tag_743:\n        /* \"#utility.yul\":3263:3341   */\n      swap4\n      pop\n        /* \"#utility.yul\":3350:3415   */\n      tag_744\n        /* \"#utility.yul\":3408:3414   */\n      dup2\n        /* \"#utility.yul\":3403:3406   */\n      dup6\n        /* \"#utility.yul\":3396:3400   */\n      0x20\n        /* \"#utility.yul\":3389:3394   */\n      dup7\n        /* \"#utility.yul\":3385:3401   */\n      add\n        /* \"#utility.yul\":3350:3415   */\n      tag_607\n      jump\t// in\n    tag_744:\n        /* \"#utility.yul\":3440:3469   */\n      tag_745\n        /* \"#utility.yul\":3462:3468   */\n      dup2\n        /* \"#utility.yul\":3440:3469   */\n      tag_608\n      jump\t// in\n    tag_745:\n        /* \"#utility.yul\":3435:3438   */\n      dup5\n        /* \"#utility.yul\":3431:3470   */\n      add\n        /* \"#utility.yul\":3424:3470   */\n      swap2\n      pop\n        /* \"#utility.yul\":3191:3476   */\n      pop\n        /* \"#utility.yul\":3099:3476   */\n      swap3\n      swap2\n      pop\n      pop\n      jump\t// out\n        /* \"#utility.yul\":3482:3591   */\n    tag_610:\n        /* \"#utility.yul\":3563:3584   */\n      tag_747\n        /* \"#utility.yul\":3578:3583   */\n      dup2\n        /* \"#utility.yul\":3563:3584   */\n      tag_598\n      jump\t// in\n    tag_747:\n        /* \"#utility.yul\":3558:3561   */\n      dup3\n        /* \"#utility.yul\":3551:3585   */\n      mstore\n        /* \"#utility.yul\":3482:3591   */\n      pop\n      pop\n      jump\t// out\n        /* \"#utility.yul\":3597:4538   */\n    tag_42:\n        /* \"#utility.yul\":3860:3864   */\n      0x00\n        /* \"#utility.yul\":3898:3901   */\n      0xe0\n        /* \"#utility.yul\":3887:3896   */\n      dup3\n        /* \"#utility.yul\":3883:3902   */\n      add\n        /* \"#utility.yul\":3875:3902   */\n      swap1\n      pop\n        /* \"#utility.yul\":3912:3983   */\n      tag_749\n        /* \"#utility.yul\":3980:3981   */\n      0x00\n        /* \"#utility.yul\":3969:3978   */\n      dup4\n        /* \"#utility.yul\":3965:3982   */\n      add\n        /* \"#utility.yul\":3956:3962   */\n      dup11\n        /* \"#utility.yul\":3912:3983   */\n      tag_601\n      jump\t// in\n    tag_749:\n        /* \"#utility.yul\":3993:4065   */\n      tag_750\n        /* \"#utility.yul\":4061:4063   */\n      0x20\n        /* \"#utility.yul\":4050:4059   */\n      dup4\n        /* \"#utility.yul\":4046:4064   */\n      add\n        /* \"#utility.yul\":4037:4043   */\n      dup10\n        /* \"#utility.yul\":3993:4065   */\n      tag_604\n      jump\t// in\n    tag_750:\n        /* \"#utility.yul\":4112:4121   */\n      dup2\n        /* \"#utility.yul\":4106:4110   */\n      dup2\n        /* \"#utility.yul\":4102:4122   */\n      sub\n        /* \"#utility.yul\":4097:4099   */\n      0x40\n        /* \"#utility.yul\":4086:4095   */\n      dup4\n        /* \"#utility.yul\":4082:4100   */\n      add\n        /* \"#utility.yul\":4075:4123   */\n      mstore\n        /* \"#utility.yul\":4140:4218   */\n      tag_751\n        /* \"#utility.yul\":4213:4217   */\n      dup2\n        /* \"#utility.yul\":4204:4210   */\n      dup9\n        /* \"#utility.yul\":4140:4218   */\n      tag_609\n      jump\t// in\n    tag_751:\n        /* \"#utility.yul\":4132:4218   */\n      swap1\n      pop\n        /* \"#utility.yul\":4228:4300   */\n      tag_752\n        /* \"#utility.yul\":4296:4298   */\n      0x60\n        /* \"#utility.yul\":4285:4294   */\n      dup4\n        /* \"#utility.yul\":4281:4299   */\n      add\n        /* \"#utility.yul\":4272:4278   */\n      dup8\n        /* \"#utility.yul\":4228:4300   */\n      tag_601\n      jump\t// in\n    tag_752:\n        /* \"#utility.yul\":4310:4377   */\n      tag_753\n        /* \"#utility.yul\":4372:4375   */\n      0x80\n        /* \"#utility.yul\":4361:4370   */\n      dup4\n        /* \"#utility.yul\":4357:4376   */\n      add\n        /* \"#utility.yul\":4348:4354   */\n      dup7\n        /* \"#utility.yul\":4310:4377   */\n      tag_610\n      jump\t// in\n    tag_753:\n        /* \"#utility.yul\":4387:4454   */\n      tag_754\n        /* \"#utility.yul\":4449:4452   */\n      0xa0\n        /* \"#utility.yul\":4438:4447   */\n      dup4\n        /* \"#utility.yul\":4434:4453   */\n      add\n        /* \"#utility.yul\":4425:4431   */\n      dup6\n        /* \"#utility.yul\":4387:4454   */\n      tag_610\n      jump\t// in\n    tag_754:\n        /* \"#utility.yul\":4464:4531   */\n      tag_755\n        /* \"#utility.yul\":4526:4529   */\n      0xc0\n        /* \"#utility.yul\":4515:4524   */\n      dup4\n        /* \"#utility.yul\":4511:4530   */\n      add\n        /* \"#utility.yul\":4502:4508   */\n      dup5\n        /* \"#utility.yul\":4464:4531   */\n      tag_610\n      jump\t// in\n    tag_755:\n        /* \"#utility.yul\":3597:4538   */\n      swap9\n      swap8\n      pop\n      pop\n      pop\n      pop\n      pop\n      pop\n      pop\n      pop\n      jump\t// out\n        /* \"#utility.yul\":4544:5018   */\n    tag_45:\n        /* \"#utility.yul\":4612:4618   */\n      0x00\n        /* \"#utility.yul\":4620:4626   */\n      dup1\n        /* \"#utility.yul\":4669:4671   */\n      0x40\n        /* \"#utility.yul\":4657:4666   */\n      dup4\n        /* \"#utility.yul\":4648:4655   */\n      dup6\n        /* \"#utility.yul\":4644:4667   */\n      sub\n        /* \"#utility.yul\":4640:4672   */\n      slt\n        /* \"#utility.yul\":4637:4756   */\n      iszero\n      tag_757\n      jumpi\n        /* \"#utility.yul\":4675:4754   */\n      tag_758\n      tag_593\n      jump\t// in\n    tag_758:\n        /* \"#utility.yul\":4637:4756   */\n    tag_757:\n        /* \"#utility.yul\":4795:4796   */\n      0x00\n        /* \"#utility.yul\":4820:4873   */\n      tag_759\n        /* \"#utility.yul\":4865:4872   */\n      dup6\n        /* \"#utility.yul\":4856:4862   */\n      dup3\n        /* \"#utility.yul\":4845:4854   */\n      dup7\n        /* \"#utility.yul\":4841:4863   */\n      add\n        /* \"#utility.yul\":4820:4873   */\n      tag_597\n      jump\t// in\n    tag_759:\n        /* \"#utility.yul\":4810:4873   */\n      swap3\n      pop\n        /* \"#utility.yul\":4766:4883   */\n      pop\n        /* \"#utility.yul\":4922:4924   */\n      0x20\n        /* \"#utility.yul\":4948:5001   */\n      tag_760\n        /* \"#utility.yul\":4993:5000   */\n      dup6\n        /* \"#utility.yul\":4984:4990   */\n      dup3\n        /* \"#utility.yul\":4973:4982   */\n      dup7\n        /* \"#utility.yul\":4969:4991   */\n      add\n        /* \"#utility.yul\":4948:5001   */\n      tag_597\n      jump\t// in\n    tag_760:\n        /* \"#utility.yul\":4938:5001   */\n      swap2\n      pop\n        /* \"#utility.yul\":4893:5011   */\n      pop\n        /* \"#utility.yul\":4544:5018   */\n      swap3\n      pop\n      swap3\n      swap1\n      pop\n      jump\t// out\n        /* \"#utility.yul\":5024:5146   */\n    tag_611:\n        /* \"#utility.yul\":5097:5121   */\n      tag_762\n        /* \"#utility.yul\":5115:5120   */\n      dup2\n        /* \"#utility.yul\":5097:5121   */\n      tag_603\n      jump\t// in\n    tag_762:\n        /* \"#utility.yul\":5090:5095   */\n      dup2\n        /* \"#utility.yul\":5087:5122   */\n      eq\n        /* \"#utility.yul\":5077:5140   */\n      tag_763\n      jumpi\n        /* \"#utility.yul\":5136:5137   */\n      0x00\n        /* \"#utility.yul\":5133:5134   */\n      dup1\n        /* \"#utility.yul\":5126:5138   */\n      revert\n        /* \"#utility.yul\":5077:5140   */\n    tag_763:\n        /* \"#utility.yul\":5024:5146   */\n      pop\n      jump\t// out\n        /* \"#utility.yul\":5152:5291   */\n    tag_612:\n        /* \"#utility.yul\":5198:5203   */\n      0x00\n        /* \"#utility.yul\":5236:5242   */\n      dup2\n        /* \"#utility.yul\":5223:5243   */\n      calldataload\n        /* \"#utility.yul\":5214:5243   */\n      swap1\n      pop\n        /* \"#utility.yul\":5252:5285   */\n      tag_765\n        /* \"#utility.yul\":5279:5284   */\n      dup2\n        /* \"#utility.yul\":5252:5285   */\n      tag_611\n      jump\t// in\n    tag_765:\n        /* \"#utility.yul\":5152:5291   */\n      swap3\n      swap2\n      pop\n      pop\n      jump\t// out\n        /* \"#utility.yul\":5297:5771   */\n    tag_50:\n        /* \"#utility.yul\":5365:5371   */\n      0x00\n        /* \"#utility.yul\":5373:5379   */\n      dup1\n        /* \"#utility.yul\":5422:5424   */\n      0x40\n        /* \"#utility.yul\":5410:5419   */\n      dup4\n        /* \"#utility.yul\":5401:5408   */\n      dup6\n        /* \"#utility.yul\":5397:5420   */\n      sub\n        /* \"#utility.yul\":5393:5425   */\n      slt\n        /* \"#utility.yul\":5390:5509   */\n      iszero\n      tag_767\n      jumpi\n        /* \"#utility.yul\":5428:5507   */\n      tag_768\n      tag_593\n      jump\t// in\n    tag_768:\n        /* \"#utility.yul\":5390:5509   */\n    tag_767:\n        /* \"#utility.yul\":5548:5549   */\n      0x00\n        /* \"#utility.yul\":5573:5626   */\n      tag_769\n        /* \"#utility.yul\":5618:5625   */\n      dup6\n        /* \"#utility.yul\":5609:5615   */\n      dup3\n        /* \"#utility.yul\":5598:5607   */\n      dup7\n        /* \"#utility.yul\":5594:5616   */\n      add\n        /* \"#utility.yul\":5573:5626   */\n      tag_597\n      jump\t// in\n    tag_769:\n        /* \"#utility.yul\":5563:5626   */\n      swap3\n      pop\n        /* \"#utility.yul\":5519:5636   */\n      pop\n        /* \"#utility.yul\":5675:5677   */\n      0x20\n        /* \"#utility.yul\":5701:5754   */\n      tag_770\n        /* \"#utility.yul\":5746:5753   */\n      dup6\n        /* \"#utility.yul\":5737:5743   */\n      dup3\n        /* \"#utility.yul\":5726:5735   */\n      dup7\n        /* \"#utility.yul\":5722:5744   */\n      add\n        /* \"#utility.yul\":5701:5754   */\n      tag_612\n      jump\t// in\n    tag_770:\n        /* \"#utility.yul\":5691:5754   */\n      swap2\n      pop\n        /* \"#utility.yul\":5646:5764   */\n      pop\n        /* \"#utility.yul\":5297:5771   */\n      swap3\n      pop\n      swap3\n      swap1\n      pop\n      jump\t// out\n        /* \"#utility.yul\":5777:5891   */\n    tag_613:\n        /* \"#utility.yul\":5844:5850   */\n      0x00\n        /* \"#utility.yul\":5878:5883   */\n      dup2\n        /* \"#utility.yul\":5872:5884   */\n      mload\n        /* \"#utility.yul\":5862:5884   */\n      swap1\n      pop\n        /* \"#utility.yul\":5777:5891   */\n      swap2\n      swap1\n      pop\n      jump\t// out\n        /* \"#utility.yul\":5897:6081   */\n    tag_614:\n        /* \"#utility.yul\":5996:6007   */\n      0x00\n        /* \"#utility.yul\":6030:6036   */\n      dup3\n        /* \"#utility.yul\":6025:6028   */\n      dup3\n        /* \"#utility.yul\":6018:6037   */\n      mstore\n        /* \"#utility.yul\":6070:6074   */\n      0x20\n        /* \"#utility.yul\":6065:6068   */\n      dup3\n        /* \"#utility.yul\":6061:6075   */\n      add\n        /* \"#utility.yul\":6046:6075   */\n      swap1\n      pop\n        /* \"#utility.yul\":5897:6081   */\n      swap3\n      swap2\n      pop\n      pop\n      jump\t// out\n        /* \"#utility.yul\":6087:6219   */\n    tag_615:\n        /* \"#utility.yul\":6154:6158   */\n      0x00\n        /* \"#utility.yul\":6177:6180   */\n      dup2\n        /* \"#utility.yul\":6169:6180   */\n      swap1\n      pop\n        /* \"#utility.yul\":6207:6211   */\n      0x20\n        /* \"#utility.yul\":6202:6205   */\n      dup3\n        /* \"#utility.yul\":6198:6212   */\n      add\n        /* \"#utility.yul\":6190:6212   */\n      swap1\n      pop\n        /* \"#utility.yul\":6087:6219   */\n      swap2\n      swap1\n      pop\n      jump\t// out\n        /* \"#utility.yul\":6225:6333   */\n    tag_616:\n        /* \"#utility.yul\":6302:6326   */\n      tag_775\n        /* \"#utility.yul\":6320:6325   */\n      dup2\n        /* \"#utility.yul\":6302:6326   */\n      tag_603\n      jump\t// in\n    tag_775:\n        /* \"#utility.yul\":6297:6300   */\n      dup3\n        /* \"#utility.yul\":6290:6327   */\n      mstore\n        /* \"#utility.yul\":6225:6333   */\n      pop\n      pop\n      jump\t// out\n        /* \"#utility.yul\":6339:6518   */\n    tag_617:\n        /* \"#utility.yul\":6408:6418   */\n      0x00\n        /* \"#utility.yul\":6429:6475   */\n      tag_777\n        /* \"#utility.yul\":6471:6474   */\n      dup4\n        /* \"#utility.yul\":6463:6469   */\n      dup4\n        /* \"#utility.yul\":6429:6475   */\n      tag_616\n      jump\t// in\n    tag_777:\n        /* \"#utility.yul\":6507:6511   */\n      0x20\n        /* \"#utility.yul\":6502:6505   */\n      dup4\n        /* \"#utility.yul\":6498:6512   */\n      add\n        /* \"#utility.yul\":6484:6512   */\n      swap1\n      pop\n        /* \"#utility.yul\":6339:6518   */\n      swap3\n      swap2\n      pop\n      pop\n      jump\t// out\n        /* \"#utility.yul\":6524:6637   */\n    tag_618:\n        /* \"#utility.yul\":6594:6598   */\n      0x00\n        /* \"#utility.yul\":6626:6630   */\n      0x20\n        /* \"#utility.yul\":6621:6624   */\n      dup3\n        /* \"#utility.yul\":6617:6631   */\n      add\n        /* \"#utility.yul\":6609:6631   */\n      swap1\n      pop\n        /* \"#utility.yul\":6524:6637   */\n      swap2\n      swap1\n      pop\n      jump\t// out\n        /* \"#utility.yul\":6673:7405   */\n    tag_619:\n        /* \"#utility.yul\":6792:6795   */\n      0x00\n        /* \"#utility.yul\":6821:6875   */\n      tag_780\n        /* \"#utility.yul\":6869:6874   */\n      dup3\n        /* \"#utility.yul\":6821:6875   */\n      tag_613\n      jump\t// in\n    tag_780:\n        /* \"#utility.yul\":6891:6977   */\n      tag_781\n        /* \"#utility.yul\":6970:6976   */\n      dup2\n        /* \"#utility.yul\":6965:6968   */\n      dup6\n        /* \"#utility.yul\":6891:6977   */\n      tag_614\n      jump\t// in\n    tag_781:\n        /* \"#utility.yul\":6884:6977   */\n      swap4\n      pop\n        /* \"#utility.yul\":7001:7057   */\n      tag_782\n        /* \"#utility.yul\":7051:7056   */\n      dup4\n        /* \"#utility.yul\":7001:7057   */\n      tag_615\n      jump\t// in\n    tag_782:\n        /* \"#utility.yul\":7080:7087   */\n      dup1\n        /* \"#utility.yul\":7111:7112   */\n      0x00\n        /* \"#utility.yul\":7096:7380   */\n    tag_783:\n        /* \"#utility.yul\":7121:7127   */\n      dup4\n        /* \"#utility.yul\":7118:7119   */\n      dup2\n        /* \"#utility.yul\":7115:7128   */\n      lt\n        /* \"#utility.yul\":7096:7380   */\n      iszero\n      tag_785\n      jumpi\n        /* \"#utility.yul\":7197:7203   */\n      dup2\n        /* \"#utility.yul\":7191:7204   */\n      mload\n        /* \"#utility.yul\":7224:7287   */\n      tag_786\n        /* \"#utility.yul\":7283:7286   */\n      dup9\n        /* \"#utility.yul\":7268:7281   */\n      dup3\n        /* \"#utility.yul\":7224:7287   */\n      tag_617\n      jump\t// in\n    tag_786:\n        /* \"#utility.yul\":7217:7287   */\n      swap8\n      pop\n        /* \"#utility.yul\":7310:7370   */\n      tag_787\n        /* \"#utility.yul\":7363:7369   */\n      dup4\n        /* \"#utility.yul\":7310:7370   */\n      tag_618\n      jump\t// in\n    tag_787:\n        /* \"#utility.yul\":7300:7370   */\n      swap3\n      pop\n        /* \"#utility.yul\":7156:7380   */\n      pop\n        /* \"#utility.yul\":7143:7144   */\n      0x01\n        /* \"#utility.yul\":7140:7141   */\n      dup2\n        /* \"#utility.yul\":7136:7145   */\n      add\n        /* \"#utility.yul\":7131:7145   */\n      swap1\n      pop\n        /* \"#utility.yul\":7096:7380   */\n      jump(tag_783)\n    tag_785:\n        /* \"#utility.yul\":7100:7114   */\n      pop\n        /* \"#utility.yul\":7396:7399   */\n      dup6\n        /* \"#utility.yul\":7389:7399   */\n      swap4\n      pop\n        /* \"#utility.yul\":6797:7405   */\n      pop\n      pop\n      pop\n        /* \"#utility.yul\":6673:7405   */\n      swap3\n      swap2\n      pop\n      pop\n      jump\t// out\n        /* \"#utility.yul\":7411:7784   */\n    tag_61:\n        /* \"#utility.yul\":7554:7558   */\n      0x00\n        /* \"#utility.yul\":7592:7594   */\n      0x20\n        /* \"#utility.yul\":7581:7590   */\n      dup3\n        /* \"#utility.yul\":7577:7595   */\n      add\n        /* \"#utility.yul\":7569:7595   */\n      swap1\n      pop\n        /* \"#utility.yul\":7641:7650   */\n      dup2\n        /* \"#utility.yul\":7635:7639   */\n      dup2\n        /* \"#utility.yul\":7631:7651   */\n      sub\n        /* \"#utility.yul\":7627:7628   */\n      0x00\n        /* \"#utility.yul\":7616:7625   */\n      dup4\n        /* \"#utility.yul\":7612:7629   */\n      add\n        /* \"#utility.yul\":7605:7652   */\n      mstore\n        /* \"#utility.yul\":7669:7777   */\n      tag_789\n        /* \"#utility.yul\":7772:7776   */\n      dup2\n        /* \"#utility.yul\":7763:7769   */\n      dup5\n        /* \"#utility.yul\":7669:7777   */\n      tag_619\n      jump\t// in\n    tag_789:\n        /* \"#utility.yul\":7661:7777   */\n      swap1\n      pop\n        /* \"#utility.yul\":7411:7784   */\n      swap3\n      swap2\n      pop\n      pop\n      jump\t// out\n        /* \"#utility.yul\":7790:7904   */\n    tag_620:\n        /* \"#utility.yul\":7857:7863   */\n      0x00\n        /* \"#utility.yul\":7891:7896   */\n      dup2\n        /* \"#utility.yul\":7885:7897   */\n      mload\n        /* \"#utility.yul\":7875:7897   */\n      swap1\n      pop\n        /* \"#utility.yul\":7790:7904   */\n      swap2\n      swap1\n      pop\n      jump\t// out\n        /* \"#utility.yul\":7910:8094   */\n    tag_621:\n        /* \"#utility.yul\":8009:8020   */\n      0x00\n        /* \"#utility.yul\":8043:8049   */\n      dup3\n        /* \"#utility.yul\":8038:8041   */\n      dup3\n        /* \"#utility.yul\":8031:8050   */\n      mstore\n        /* \"#utility.yul\":8083:8087   */\n      0x20\n        /* \"#utility.yul\":8078:8081   */\n      dup3\n        /* \"#utility.yul\":8074:8088   */\n      add\n        /* \"#utility.yul\":8059:8088   */\n      swap1\n      pop\n        /* \"#utility.yul\":7910:8094   */\n      swap3\n      swap2\n      pop\n      pop\n      jump\t// out\n        /* \"#utility.yul\":8100:8232   */\n    tag_622:\n        /* \"#utility.yul\":8167:8171   */\n      0x00\n        /* \"#utility.yul\":8190:8193   */\n      dup2\n        /* \"#utility.yul\":8182:8193   */\n      swap1\n      pop\n        /* \"#utility.yul\":8220:8224   */\n      0x20\n        /* \"#utility.yul\":8215:8218   */\n      dup3\n        /* \"#utility.yul\":8211:8225   */\n      add\n        /* \"#utility.yul\":8203:8225   */\n      swap1\n      pop\n        /* \"#utility.yul\":8100:8232   */\n      swap2\n      swap1\n      pop\n      jump\t// out\n        /* \"#utility.yul\":8238:8346   */\n    tag_623:\n        /* \"#utility.yul\":8315:8339   */\n      tag_794\n        /* \"#utility.yul\":8333:8338   */\n      dup2\n        /* \"#utility.yul\":8315:8339   */\n      tag_595\n      jump\t// in\n    tag_794:\n        /* \"#utility.yul\":8310:8313   */\n      dup3\n        /* \"#utility.yul\":8303:8340   */\n      mstore\n        /* \"#utility.yul\":8238:8346   */\n      pop\n      pop\n      jump\t// out\n        /* \"#utility.yul\":8352:8531   */\n    tag_624:\n        /* \"#utility.yul\":8421:8431   */\n      0x00\n        /* \"#utility.yul\":8442:8488   */\n      tag_796\n        /* \"#utility.yul\":8484:8487   */\n      dup4\n        /* \"#utility.yul\":8476:8482   */\n      dup4\n        /* \"#utility.yul\":8442:8488   */\n      tag_623\n      jump\t// in\n    tag_796:\n        /* \"#utility.yul\":8520:8524   */\n      0x20\n        /* \"#utility.yul\":8515:8518   */\n      dup4\n        /* \"#utility.yul\":8511:8525   */\n      add\n        /* \"#utility.yul\":8497:8525   */\n      swap1\n      pop\n        /* \"#utility.yul\":8352:8531   */\n      swap3\n      swap2\n      pop\n      pop\n      jump\t// out\n        /* \"#utility.yul\":8537:8650   */\n    tag_625:\n        /* \"#utility.yul\":8607:8611   */\n      0x00\n        /* \"#utility.yul\":8639:8643   */\n      0x20\n        /* \"#utility.yul\":8634:8637   */\n      dup3\n        /* \"#utility.yul\":8630:8644   */\n      add\n        /* \"#utility.yul\":8622:8644   */\n      swap1\n      pop\n        /* \"#utility.yul\":8537:8650   */\n      swap2\n      swap1\n      pop\n      jump\t// out\n        /* \"#utility.yul\":8686:9418   */\n    tag_626:\n        /* \"#utility.yul\":8805:8808   */\n      0x00\n        /* \"#utility.yul\":8834:8888   */\n      tag_799\n        /* \"#utility.yul\":8882:8887   */\n      dup3\n        /* \"#utility.yul\":8834:8888   */\n      tag_620\n      jump\t// in\n    tag_799:\n        /* \"#utility.yul\":8904:8990   */\n      tag_800\n        /* \"#utility.yul\":8983:8989   */\n      dup2\n        /* \"#utility.yul\":8978:8981   */\n      dup6\n        /* \"#utility.yul\":8904:8990   */\n      tag_621\n      jump\t// in\n    tag_800:\n        /* \"#utility.yul\":8897:8990   */\n      swap4\n      pop\n        /* \"#utility.yul\":9014:9070   */\n      tag_801\n        /* \"#utility.yul\":9064:9069   */\n      dup4\n        /* \"#utility.yul\":9014:9070   */\n      tag_622\n      jump\t// in\n    tag_801:\n        /* \"#utility.yul\":9093:9100   */\n      dup1\n        /* \"#utility.yul\":9124:9125   */\n      0x00\n        /* \"#utility.yul\":9109:9393   */\n    tag_802:\n        /* \"#utility.yul\":9134:9140   */\n      dup4\n        /* \"#utility.yul\":9131:9132   */\n      dup2\n        /* \"#utility.yul\":9128:9141   */\n      lt\n        /* \"#utility.yul\":9109:9393   */\n      iszero\n      tag_804\n      jumpi\n        /* \"#utility.yul\":9210:9216   */\n      dup2\n        /* \"#utility.yul\":9204:9217   */\n      mload\n        /* \"#utility.yul\":9237:9300   */\n      tag_805\n        /* \"#utility.yul\":9296:9299   */\n      dup9\n        /* \"#utility.yul\":9281:9294   */\n      dup3\n        /* \"#utility.yul\":9237:9300   */\n      tag_624\n      jump\t// in\n    tag_805:\n        /* \"#utility.yul\":9230:9300   */\n      swap8\n      pop\n        /* \"#utility.yul\":9323:9383   */\n      tag_806\n        /* \"#utility.yul\":9376:9382   */\n      dup4\n        /* \"#utility.yul\":9323:9383   */\n      tag_625\n      jump\t// in\n    tag_806:\n        /* \"#utility.yul\":9313:9383   */\n      swap3\n      pop\n        /* \"#utility.yul\":9169:9393   */\n      pop\n        /* \"#utility.yul\":9156:9157   */\n      0x01\n        /* \"#utility.yul\":9153:9154   */\n      dup2\n        /* \"#utility.yul\":9149:9158   */\n      add\n        /* \"#utility.yul\":9144:9158   */\n      swap1\n      pop\n        /* \"#utility.yul\":9109:9393   */\n      jump(tag_802)\n    tag_804:\n        /* \"#utility.yul\":9113:9127   */\n      pop\n        /* \"#utility.yul\":9409:9412   */\n      dup6\n        /* \"#utility.yul\":9402:9412   */\n      swap4\n      pop\n        /* \"#utility.yul\":8810:9418   */\n      pop\n      pop\n      pop\n        /* \"#utility.yul\":8686:9418   */\n      swap3\n      swap2\n      pop\n      pop\n      jump\t// out\n        /* \"#utility.yul\":9424:9797   */\n    tag_74:\n        /* \"#utility.yul\":9567:9571   */\n      0x00\n        /* \"#utility.yul\":9605:9607   */\n      0x20\n        /* \"#utility.yul\":9594:9603   */\n      dup3\n        /* \"#utility.yul\":9590:9608   */\n      add\n        /* \"#utility.yul\":9582:9608   */\n      swap1\n      pop\n        /* \"#utility.yul\":9654:9663   */\n      dup2\n        /* \"#utility.yul\":9648:9652   */\n      dup2\n        /* \"#utility.yul\":9644:9664   */\n      sub\n        /* \"#utility.yul\":9640:9641   */\n      0x00\n        /* \"#utility.yul\":9629:9638   */\n      dup4\n        /* \"#utility.yul\":9625:9642   */\n      add\n        /* \"#utility.yul\":9618:9665   */\n      mstore\n        /* \"#utility.yul\":9682:9790   */\n      tag_808\n        /* \"#utility.yul\":9785:9789   */\n      dup2\n        /* \"#utility.yul\":9776:9782   */\n      dup5\n        /* \"#utility.yul\":9682:9790   */\n      tag_626\n      jump\t// in\n    tag_808:\n        /* \"#utility.yul\":9674:9790   */\n      swap1\n      pop\n        /* \"#utility.yul\":9424:9797   */\n      swap3\n      swap2\n      pop\n      pop\n      jump\t// out\n        /* \"#utility.yul\":9803:9920   */\n    tag_627:\n        /* \"#utility.yul\":9912:9913   */\n      0x00\n        /* \"#utility.yul\":9909:9910   */\n      dup1\n        /* \"#utility.yul\":9902:9914   */\n      revert\n        /* \"#utility.yul\":9926:10043   */\n    tag_628:\n        /* \"#utility.yul\":10035:10036   */\n      0x00\n        /* \"#utility.yul\":10032:10033   */\n      dup1\n        /* \"#utility.yul\":10025:10037   */\n      revert\n        /* \"#utility.yul\":10049:10229   */\n    tag_629:\n        /* \"#utility.yul\":10097:10174   */\n      0x4e487b7100000000000000000000000000000000000000000000000000000000\n        /* \"#utility.yul\":10094:10095   */\n      0x00\n        /* \"#utility.yul\":10087:10175   */\n      mstore\n        /* \"#utility.yul\":10194:10198   */\n      0x41\n        /* \"#utility.yul\":10191:10192   */\n      0x04\n        /* \"#utility.yul\":10184:10199   */\n      mstore\n        /* \"#utility.yul\":10218:10222   */\n      0x24\n        /* \"#utility.yul\":10215:10216   */\n      0x00\n        /* \"#utility.yul\":10208:10223   */\n      revert\n        /* \"#utility.yul\":10235:10516   */\n    tag_630:\n        /* \"#utility.yul\":10318:10345   */\n      tag_813\n        /* \"#utility.yul\":10340:10344   */\n      dup3\n        /* \"#utility.yul\":10318:10345   */\n      tag_608\n      jump\t// in\n    tag_813:\n        /* \"#utility.yul\":10310:10316   */\n      dup2\n        /* \"#utility.yul\":10306:10346   */\n      add\n        /* \"#utility.yul\":10448:10454   */\n      dup2\n        /* \"#utility.yul\":10436:10446   */\n      dup2\n        /* \"#utility.yul\":10433:10455   */\n      lt\n        /* \"#utility.yul\":10412:10430   */\n      0xffffffffffffffff\n        /* \"#utility.yul\":10400:10410   */\n      dup3\n        /* \"#utility.yul\":10397:10431   */\n      gt\n        /* \"#utility.yul\":10394:10456   */\n      or\n        /* \"#utility.yul\":10391:10479   */\n      iszero\n      tag_814\n      jumpi\n        /* \"#utility.yul\":10459:10477   */\n      tag_815\n      tag_629\n      jump\t// in\n    tag_815:\n        /* \"#utility.yul\":10391:10479   */\n    tag_814:\n        /* \"#utility.yul\":10499:10509   */\n      dup1\n        /* \"#utility.yul\":10495:10497   */\n      0x40\n        /* \"#utility.yul\":10488:10510   */\n      mstore\n        /* \"#utility.yul\":10278:10516   */\n      pop\n        /* \"#utility.yul\":10235:10516   */\n      pop\n      pop\n      jump\t// out\n        /* \"#utility.yul\":10522:10651   */\n    tag_631:\n        /* \"#utility.yul\":10556:10562   */\n      0x00\n        /* \"#utility.yul\":10583:10603   */\n      tag_817\n      tag_592\n      jump\t// in\n    tag_817:\n        /* \"#utility.yul\":10573:10603   */\n      swap1\n      pop\n        /* \"#utility.yul\":10612:10645   */\n      tag_818\n        /* \"#utility.yul\":10640:10644   */\n      dup3\n        /* \"#utility.yul\":10632:10638   */\n      dup3\n        /* \"#utility.yul\":10612:10645   */\n      tag_630\n      jump\t// in\n    tag_818:\n        /* \"#utility.yul\":10522:10651   */\n      swap2\n      swap1\n      pop\n      jump\t// out\n        /* \"#utility.yul\":10657:10965   */\n    tag_632:\n        /* \"#utility.yul\":10719:10723   */\n      0x00\n        /* \"#utility.yul\":10809:10827   */\n      0xffffffffffffffff\n        /* \"#utility.yul\":10801:10807   */\n      dup3\n        /* \"#utility.yul\":10798:10828   */\n      gt\n        /* \"#utility.yul\":10795:10851   */\n      iszero\n      tag_820\n      jumpi\n        /* \"#utility.yul\":10831:10849   */\n      tag_821\n      tag_629\n      jump\t// in\n    tag_821:\n        /* \"#utility.yul\":10795:10851   */\n    tag_820:\n        /* \"#utility.yul\":10869:10898   */\n      tag_822\n        /* \"#utility.yul\":10891:10897   */\n      dup3\n        /* \"#utility.yul\":10869:10898   */\n      tag_608\n      jump\t// in\n    tag_822:\n        /* \"#utility.yul\":10861:10898   */\n      swap1\n      pop\n        /* \"#utility.yul\":10953:10957   */\n      0x20\n        /* \"#utility.yul\":10947:10951   */\n      dup2\n        /* \"#utility.yul\":10943:10958   */\n      add\n        /* \"#utility.yul\":10935:10958   */\n      swap1\n      pop\n        /* \"#utility.yul\":10657:10965   */\n      swap2\n      swap1\n      pop\n      jump\t// out\n        /* \"#utility.yul\":10971:11119   */\n    tag_633:\n        /* \"#utility.yul\":11069:11075   */\n      dup3\n        /* \"#utility.yul\":11064:11067   */\n      dup2\n        /* \"#utility.yul\":11059:11062   */\n      dup4\n        /* \"#utility.yul\":11046:11076   */\n      calldatacopy\n        /* \"#utility.yul\":11110:11111   */\n      0x00\n        /* \"#utility.yul\":11101:11107   */\n      dup4\n        /* \"#utility.yul\":11096:11099   */\n      dup4\n        /* \"#utility.yul\":11092:11108   */\n      add\n        /* \"#utility.yul\":11085:11112   */\n      mstore\n        /* \"#utility.yul\":10971:11119   */\n      pop\n      pop\n      pop\n      jump\t// out\n        /* \"#utility.yul\":11125:11550   */\n    tag_634:\n        /* \"#utility.yul\":11203:11208   */\n      0x00\n        /* \"#utility.yul\":11228:11294   */\n      tag_825\n        /* \"#utility.yul\":11244:11293   */\n      tag_826\n        /* \"#utility.yul\":11286:11292   */\n      dup5\n        /* \"#utility.yul\":11244:11293   */\n      tag_632\n      jump\t// in\n    tag_826:\n        /* \"#utility.yul\":11228:11294   */\n      tag_631\n      jump\t// in\n    tag_825:\n        /* \"#utility.yul\":11219:11294   */\n      swap1\n      pop\n        /* \"#utility.yul\":11317:11323   */\n      dup3\n        /* \"#utility.yul\":11310:11315   */\n      dup2\n        /* \"#utility.yul\":11303:11324   */\n      mstore\n        /* \"#utility.yul\":11355:11359   */\n      0x20\n        /* \"#utility.yul\":11348:11353   */\n      dup2\n        /* \"#utility.yul\":11344:11360   */\n      add\n        /* \"#utility.yul\":11393:11396   */\n      dup5\n        /* \"#utility.yul\":11384:11390   */\n      dup5\n        /* \"#utility.yul\":11379:11382   */\n      dup5\n        /* \"#utility.yul\":11375:11391   */\n      add\n        /* \"#utility.yul\":11372:11397   */\n      gt\n        /* \"#utility.yul\":11369:11481   */\n      iszero\n      tag_827\n      jumpi\n        /* \"#utility.yul\":11400:11479   */\n      tag_828\n      tag_628\n      jump\t// in\n    tag_828:\n        /* \"#utility.yul\":11369:11481   */\n    tag_827:\n        /* \"#utility.yul\":11490:11544   */\n      tag_829\n        /* \"#utility.yul\":11537:11543   */\n      dup5\n        /* \"#utility.yul\":11532:11535   */\n      dup3\n        /* \"#utility.yul\":11527:11530   */\n      dup6\n        /* \"#utility.yul\":11490:11544   */\n      tag_633\n      jump\t// in\n    tag_829:\n        /* \"#utility.yul\":11209:11550   */\n      pop\n        /* \"#utility.yul\":11125:11550   */\n      swap4\n      swap3\n      pop\n      pop\n      pop\n      jump\t// out\n        /* \"#utility.yul\":11570:11910   */\n    tag_635:\n        /* \"#utility.yul\":11626:11631   */\n      0x00\n        /* \"#utility.yul\":11675:11678   */\n      dup3\n        /* \"#utility.yul\":11668:11672   */\n      0x1f\n        /* \"#utility.yul\":11660:11666   */\n      dup4\n        /* \"#utility.yul\":11656:11673   */\n      add\n        /* \"#utility.yul\":11652:11679   */\n      slt\n        /* \"#utility.yul\":11642:11764   */\n      tag_831\n      jumpi\n        /* \"#utility.yul\":11683:11762   */\n      tag_832\n      tag_627\n      jump\t// in\n    tag_832:\n        /* \"#utility.yul\":11642:11764   */\n    tag_831:\n        /* \"#utility.yul\":11800:11806   */\n      dup2\n        /* \"#utility.yul\":11787:11807   */\n      calldataload\n        /* \"#utility.yul\":11825:11904   */\n      tag_833\n        /* \"#utility.yul\":11900:11903   */\n      dup5\n        /* \"#utility.yul\":11892:11898   */\n      dup3\n        /* \"#utility.yul\":11885:11889   */\n      0x20\n        /* \"#utility.yul\":11877:11883   */\n      dup7\n        /* \"#utility.yul\":11873:11890   */\n      add\n        /* \"#utility.yul\":11825:11904   */\n      tag_634\n      jump\t// in\n    tag_833:\n        /* \"#utility.yul\":11816:11904   */\n      swap2\n      pop\n        /* \"#utility.yul\":11632:11910   */\n      pop\n        /* \"#utility.yul\":11570:11910   */\n      swap3\n      swap2\n      pop\n      pop\n      jump\t// out\n        /* \"#utility.yul\":11916:12715   */\n    tag_78:\n        /* \"#utility.yul\":12003:12009   */\n      0x00\n        /* \"#utility.yul\":12011:12017   */\n      dup1\n        /* \"#utility.yul\":12019:12025   */\n      0x00\n        /* \"#utility.yul\":12068:12070   */\n      0x60\n        /* \"#utility.yul\":12056:12065   */\n      dup5\n        /* \"#utility.yul\":12047:12054   */\n      dup7\n        /* \"#utility.yul\":12043:12066   */\n      sub\n        /* \"#utility.yul\":12039:12071   */\n      slt\n        /* \"#utility.yul\":12036:12155   */\n      iszero\n      tag_835\n      jumpi\n        /* \"#utility.yul\":12074:12153   */\n      tag_836\n      tag_593\n      jump\t// in\n    tag_836:\n        /* \"#utility.yul\":12036:12155   */\n    tag_835:\n        /* \"#utility.yul\":12194:12195   */\n      0x00\n        /* \"#utility.yul\":12219:12272   */\n      tag_837\n        /* \"#utility.yul\":12264:12271   */\n      dup7\n        /* \"#utility.yul\":12255:12261   */\n      dup3\n        /* \"#utility.yul\":12244:12253   */\n      dup8\n        /* \"#utility.yul\":12240:12262   */\n      add\n        /* \"#utility.yul\":12219:12272   */\n      tag_612\n      jump\t// in\n    tag_837:\n        /* \"#utility.yul\":12209:12272   */\n      swap4\n      pop\n        /* \"#utility.yul\":12165:12282   */\n      pop\n        /* \"#utility.yul\":12349:12351   */\n      0x20\n        /* \"#utility.yul\":12338:12347   */\n      dup5\n        /* \"#utility.yul\":12334:12352   */\n      add\n        /* \"#utility.yul\":12321:12353   */\n      calldataload\n        /* \"#utility.yul\":12380:12398   */\n      0xffffffffffffffff\n        /* \"#utility.yul\":12372:12378   */\n      dup2\n        /* \"#utility.yul\":12369:12399   */\n      gt\n        /* \"#utility.yul\":12366:12483   */\n      iszero\n      tag_838\n      jumpi\n        /* \"#utility.yul\":12402:12481   */\n      tag_839\n      tag_594\n      jump\t// in\n    tag_839:\n        /* \"#utility.yul\":12366:12483   */\n    tag_838:\n        /* \"#utility.yul\":12507:12570   */\n      tag_840\n        /* \"#utility.yul\":12562:12569   */\n      dup7\n        /* \"#utility.yul\":12553:12559   */\n      dup3\n        /* \"#utility.yul\":12542:12551   */\n      dup8\n        /* \"#utility.yul\":12538:12560   */\n      add\n        /* \"#utility.yul\":12507:12570   */\n      tag_635\n      jump\t// in\n    tag_840:\n        /* \"#utility.yul\":12497:12570   */\n      swap3\n      pop\n        /* \"#utility.yul\":12292:12580   */\n      pop\n        /* \"#utility.yul\":12619:12621   */\n      0x40\n        /* \"#utility.yul\":12645:12698   */\n      tag_841\n        /* \"#utility.yul\":12690:12697   */\n      dup7\n        /* \"#utility.yul\":12681:12687   */\n      dup3\n        /* \"#utility.yul\":12670:12679   */\n      dup8\n        /* \"#utility.yul\":12666:12688   */\n      add\n        /* \"#utility.yul\":12645:12698   */\n      tag_597\n      jump\t// in\n    tag_841:\n        /* \"#utility.yul\":12635:12698   */\n      swap2\n      pop\n        /* \"#utility.yul\":12590:12708   */\n      pop\n        /* \"#utility.yul\":11916:12715   */\n      swap3\n      pop\n      swap3\n      pop\n      swap3\n      jump\t// out\n        /* \"#utility.yul\":12721:13274   */\n    tag_85:\n        /* \"#utility.yul\":12898:12902   */\n      0x00\n        /* \"#utility.yul\":12936:12939   */\n      0x80\n        /* \"#utility.yul\":12925:12934   */\n      dup3\n        /* \"#utility.yul\":12921:12940   */\n      add\n        /* \"#utility.yul\":12913:12940   */\n      swap1\n      pop\n        /* \"#utility.yul\":12950:13021   */\n      tag_843\n        /* \"#utility.yul\":13018:13019   */\n      0x00\n        /* \"#utility.yul\":13007:13016   */\n      dup4\n        /* \"#utility.yul\":13003:13020   */\n      add\n        /* \"#utility.yul\":12994:13000   */\n      dup8\n        /* \"#utility.yul\":12950:13021   */\n      tag_601\n      jump\t// in\n    tag_843:\n        /* \"#utility.yul\":13031:13103   */\n      tag_844\n        /* \"#utility.yul\":13099:13101   */\n      0x20\n        /* \"#utility.yul\":13088:13097   */\n      dup4\n        /* \"#utility.yul\":13084:13102   */\n      add\n        /* \"#utility.yul\":13075:13081   */\n      dup7\n        /* \"#utility.yul\":13031:13103   */\n      tag_604\n      jump\t// in\n    tag_844:\n        /* \"#utility.yul\":13113:13185   */\n      tag_845\n        /* \"#utility.yul\":13181:13183   */\n      0x40\n        /* \"#utility.yul\":13170:13179   */\n      dup4\n        /* \"#utility.yul\":13166:13184   */\n      add\n        /* \"#utility.yul\":13157:13163   */\n      dup6\n        /* \"#utility.yul\":13113:13185   */\n      tag_604\n      jump\t// in\n    tag_845:\n        /* \"#utility.yul\":13195:13267   */\n      tag_846\n        /* \"#utility.yul\":13263:13265   */\n      0x60\n        /* \"#utility.yul\":13252:13261   */\n      dup4\n        /* \"#utility.yul\":13248:13266   */\n      add\n        /* \"#utility.yul\":13239:13245   */\n      dup5\n        /* \"#utility.yul\":13195:13267   */\n      tag_601\n      jump\t// in\n    tag_846:\n        /* \"#utility.yul\":12721:13274   */\n      swap6\n      swap5\n      pop\n      pop\n      pop\n      pop\n      pop\n      jump\t// out\n        /* \"#utility.yul\":13280:13460   */\n    tag_294:\n        /* \"#utility.yul\":13328:13405   */\n      0x4e487b7100000000000000000000000000000000000000000000000000000000\n        /* \"#utility.yul\":13325:13326   */\n      0x00\n        /* \"#utility.yul\":13318:13406   */\n      mstore\n        /* \"#utility.yul\":13425:13429   */\n      0x21\n        /* \"#utility.yul\":13422:13423   */\n      0x04\n        /* \"#utility.yul\":13415:13430   */\n      mstore\n        /* \"#utility.yul\":13449:13453   */\n      0x24\n        /* \"#utility.yul\":13446:13447   */\n      0x00\n        /* \"#utility.yul\":13439:13454   */\n      revert\n        /* \"#utility.yul\":13466:13582   */\n    tag_636:\n        /* \"#utility.yul\":13550:13551   */\n      0x05\n        /* \"#utility.yul\":13543:13548   */\n      dup2\n        /* \"#utility.yul\":13540:13552   */\n      lt\n        /* \"#utility.yul\":13530:13576   */\n      tag_849\n      jumpi\n        /* \"#utility.yul\":13556:13574   */\n      tag_850\n      tag_294\n      jump\t// in\n    tag_850:\n        /* \"#utility.yul\":13530:13576   */\n    tag_849:\n        /* \"#utility.yul\":13466:13582   */\n      pop\n      jump\t// out\n        /* \"#utility.yul\":13588:13721   */\n    tag_637:\n        /* \"#utility.yul\":13636:13643   */\n      0x00\n        /* \"#utility.yul\":13665:13670   */\n      dup2\n        /* \"#utility.yul\":13654:13670   */\n      swap1\n      pop\n        /* \"#utility.yul\":13671:13715   */\n      tag_852\n        /* \"#utility.yul\":13709:13714   */\n      dup3\n        /* \"#utility.yul\":13671:13715   */\n      tag_636\n      jump\t// in\n    tag_852:\n        /* \"#utility.yul\":13588:13721   */\n      swap2\n      swap1\n      pop\n      jump\t// out\n        /* \"#utility.yul\":13727:13860   */\n    tag_638:\n        /* \"#utility.yul\":13786:13795   */\n      0x00\n        /* \"#utility.yul\":13819:13854   */\n      tag_854\n        /* \"#utility.yul\":13848:13853   */\n      dup3\n        /* \"#utility.yul\":13819:13854   */\n      tag_637\n      jump\t// in\n    tag_854:\n        /* \"#utility.yul\":13806:13854   */\n      swap1\n      pop\n        /* \"#utility.yul\":13727:13860   */\n      swap2\n      swap1\n      pop\n      jump\t// out\n        /* \"#utility.yul\":13866:14015   */\n    tag_639:\n        /* \"#utility.yul\":13962:14008   */\n      tag_856\n        /* \"#utility.yul\":14002:14007   */\n      dup2\n        /* \"#utility.yul\":13962:14008   */\n      tag_638\n      jump\t// in\n    tag_856:\n        /* \"#utility.yul\":13957:13960   */\n      dup3\n        /* \"#utility.yul\":13950:14009   */\n      mstore\n        /* \"#utility.yul\":13866:14015   */\n      pop\n      pop\n      jump\t// out\n        /* \"#utility.yul\":14021:14814   */\n    tag_95:\n        /* \"#utility.yul\":14263:14267   */\n      0x00\n        /* \"#utility.yul\":14301:14304   */\n      0xc0\n        /* \"#utility.yul\":14290:14299   */\n      dup3\n        /* \"#utility.yul\":14286:14305   */\n      add\n        /* \"#utility.yul\":14278:14305   */\n      swap1\n      pop\n        /* \"#utility.yul\":14315:14386   */\n      tag_858\n        /* \"#utility.yul\":14383:14384   */\n      0x00\n        /* \"#utility.yul\":14372:14381   */\n      dup4\n        /* \"#utility.yul\":14368:14385   */\n      add\n        /* \"#utility.yul\":14359:14365   */\n      dup10\n        /* \"#utility.yul\":14315:14386   */\n      tag_601\n      jump\t// in\n    tag_858:\n        /* \"#utility.yul\":14396:14468   */\n      tag_859\n        /* \"#utility.yul\":14464:14466   */\n      0x20\n        /* \"#utility.yul\":14453:14462   */\n      dup4\n        /* \"#utility.yul\":14449:14467   */\n      add\n        /* \"#utility.yul\":14440:14446   */\n      dup9\n        /* \"#utility.yul\":14396:14468   */\n      tag_601\n      jump\t// in\n    tag_859:\n        /* \"#utility.yul\":14478:14550   */\n      tag_860\n        /* \"#utility.yul\":14546:14548   */\n      0x40\n        /* \"#utility.yul\":14535:14544   */\n      dup4\n        /* \"#utility.yul\":14531:14549   */\n      add\n        /* \"#utility.yul\":14522:14528   */\n      dup8\n        /* \"#utility.yul\":14478:14550   */\n      tag_604\n      jump\t// in\n    tag_860:\n        /* \"#utility.yul\":14560:14632   */\n      tag_861\n        /* \"#utility.yul\":14628:14630   */\n      0x60\n        /* \"#utility.yul\":14617:14626   */\n      dup4\n        /* \"#utility.yul\":14613:14631   */\n      add\n        /* \"#utility.yul\":14604:14610   */\n      dup7\n        /* \"#utility.yul\":14560:14632   */\n      tag_604\n      jump\t// in\n    tag_861:\n        /* \"#utility.yul\":14642:14715   */\n      tag_862\n        /* \"#utility.yul\":14710:14713   */\n      0x80\n        /* \"#utility.yul\":14699:14708   */\n      dup4\n        /* \"#utility.yul\":14695:14714   */\n      add\n        /* \"#utility.yul\":14686:14692   */\n      dup6\n        /* \"#utility.yul\":14642:14715   */\n      tag_601\n      jump\t// in\n    tag_862:\n        /* \"#utility.yul\":14725:14807   */\n      tag_863\n        /* \"#utility.yul\":14802:14805   */\n      0xa0\n        /* \"#utility.yul\":14791:14800   */\n      dup4\n        /* \"#utility.yul\":14787:14806   */\n      add\n        /* \"#utility.yul\":14778:14784   */\n      dup5\n        /* \"#utility.yul\":14725:14807   */\n      tag_639\n      jump\t// in\n    tag_863:\n        /* \"#utility.yul\":14021:14814   */\n      swap8\n      swap7\n      pop\n      pop\n      pop\n      pop\n      pop\n      pop\n      pop\n      jump\t// out\n        /* \"#utility.yul\":14820:15042   */\n    tag_107:\n        /* \"#utility.yul\":14913:14917   */\n      0x00\n        /* \"#utility.yul\":14951:14953   */\n      0x20\n        /* \"#utility.yul\":14940:14949   */\n      dup3\n        /* \"#utility.yul\":14936:14954   */\n      add\n        /* \"#utility.yul\":14928:14954   */\n      swap1\n      pop\n        /* \"#utility.yul\":14964:15035   */\n      tag_865\n        /* \"#utility.yul\":15032:15033   */\n      0x00\n        /* \"#utility.yul\":15021:15030   */\n      dup4\n        /* \"#utility.yul\":15017:15034   */\n      add\n        /* \"#utility.yul\":15008:15014   */\n      dup5\n        /* \"#utility.yul\":14964:15035   */\n      tag_604\n      jump\t// in\n    tag_865:\n        /* \"#utility.yul\":14820:15042   */\n      swap3\n      swap2\n      pop\n      pop\n      jump\t// out\n        /* \"#utility.yul\":15048:15215   */\n    tag_640:\n        /* \"#utility.yul\":15188:15207   */\n      0x596f7520617265206e6f742061646d696e000000000000000000000000000000\n        /* \"#utility.yul\":15184:15185   */\n      0x00\n        /* \"#utility.yul\":15176:15182   */\n      dup3\n        /* \"#utility.yul\":15172:15186   */\n      add\n        /* \"#utility.yul\":15165:15208   */\n      mstore\n        /* \"#utility.yul\":15048:15215   */\n      pop\n      jump\t// out\n        /* \"#utility.yul\":15221:15587   */\n    tag_641:\n        /* \"#utility.yul\":15363:15366   */\n      0x00\n        /* \"#utility.yul\":15384:15451   */\n      tag_868\n        /* \"#utility.yul\":15448:15450   */\n      0x11\n        /* \"#utility.yul\":15443:15446   */\n      dup4\n        /* \"#utility.yul\":15384:15451   */\n      tag_606\n      jump\t// in\n    tag_868:\n        /* \"#utility.yul\":15377:15451   */\n      swap2\n      pop\n        /* \"#utility.yul\":15460:15553   */\n      tag_869\n        /* \"#utility.yul\":15549:15552   */\n      dup3\n        /* \"#utility.yul\":15460:15553   */\n      tag_640\n      jump\t// in\n    tag_869:\n        /* \"#utility.yul\":15578:15580   */\n      0x20\n        /* \"#utility.yul\":15573:15576   */\n      dup3\n        /* \"#utility.yul\":15569:15581   */\n      add\n        /* \"#utility.yul\":15562:15581   */\n      swap1\n      pop\n        /* \"#utility.yul\":15221:15587   */\n      swap2\n      swap1\n      pop\n      jump\t// out\n        /* \"#utility.yul\":15593:16012   */\n    tag_111:\n        /* \"#utility.yul\":15759:15763   */\n      0x00\n        /* \"#utility.yul\":15797:15799   */\n      0x20\n        /* \"#utility.yul\":15786:15795   */\n      dup3\n        /* \"#utility.yul\":15782:15800   */\n      add\n        /* \"#utility.yul\":15774:15800   */\n      swap1\n      pop\n        /* \"#utility.yul\":15846:15855   */\n      dup2\n        /* \"#utility.yul\":15840:15844   */\n      dup2\n        /* \"#utility.yul\":15836:15856   */\n      sub\n        /* \"#utility.yul\":15832:15833   */\n      0x00\n        /* \"#utility.yul\":15821:15830   */\n      dup4\n        /* \"#utility.yul\":15817:15834   */\n      add\n        /* \"#utility.yul\":15810:15857   */\n      mstore\n        /* \"#utility.yul\":15874:16005   */\n      tag_871\n        /* \"#utility.yul\":16000:16004   */\n      dup2\n        /* \"#utility.yul\":15874:16005   */\n      tag_641\n      jump\t// in\n    tag_871:\n        /* \"#utility.yul\":15866:16005   */\n      swap1\n      pop\n        /* \"#utility.yul\":15593:16012   */\n      swap2\n      swap1\n      pop\n      jump\t// out\n        /* \"#utility.yul\":16018:16198   */\n    tag_115:\n        /* \"#utility.yul\":16066:16143   */\n      0x4e487b7100000000000000000000000000000000000000000000000000000000\n        /* \"#utility.yul\":16063:16064   */\n      0x00\n        /* \"#utility.yul\":16056:16144   */\n      mstore\n        /* \"#utility.yul\":16163:16167   */\n      0x32\n        /* \"#utility.yul\":16160:16161   */\n      0x04\n        /* \"#utility.yul\":16153:16168   */\n      mstore\n        /* \"#utility.yul\":16187:16191   */\n      0x24\n        /* \"#utility.yul\":16184:16185   */\n      0x00\n        /* \"#utility.yul\":16177:16192   */\n      revert\n        /* \"#utility.yul\":16204:16368   */\n    tag_642:\n        /* \"#utility.yul\":16344:16360   */\n      0x7468652073616d65206172657374000000000000000000000000000000000000\n        /* \"#utility.yul\":16340:16341   */\n      0x00\n        /* \"#utility.yul\":16332:16338   */\n      dup3\n        /* \"#utility.yul\":16328:16342   */\n      add\n        /* \"#utility.yul\":16321:16361   */\n      mstore\n        /* \"#utility.yul\":16204:16368   */\n      pop\n      jump\t// out\n        /* \"#utility.yul\":16374:16740   */\n    tag_643:\n        /* \"#utility.yul\":16516:16519   */\n      0x00\n        /* \"#utility.yul\":16537:16604   */\n      tag_875\n        /* \"#utility.yul\":16601:16603   */\n      0x0e\n        /* \"#utility.yul\":16596:16599   */\n      dup4\n        /* \"#utility.yul\":16537:16604   */\n      tag_606\n      jump\t// in\n    tag_875:\n        /* \"#utility.yul\":16530:16604   */\n      swap2\n      pop\n        /* \"#utility.yul\":16613:16706   */\n      tag_876\n        /* \"#utility.yul\":16702:16705   */\n      dup3\n        /* \"#utility.yul\":16613:16706   */\n      tag_642\n      jump\t// in\n    tag_876:\n        /* \"#utility.yul\":16731:16733   */\n      0x20\n        /* \"#utility.yul\":16726:16729   */\n      dup3\n        /* \"#utility.yul\":16722:16734   */\n      add\n        /* \"#utility.yul\":16715:16734   */\n      swap1\n      pop\n        /* \"#utility.yul\":16374:16740   */\n      swap2\n      swap1\n      pop\n      jump\t// out\n        /* \"#utility.yul\":16746:17165   */\n    tag_119:\n        /* \"#utility.yul\":16912:16916   */\n      0x00\n        /* \"#utility.yul\":16950:16952   */\n      0x20\n        /* \"#utility.yul\":16939:16948   */\n      dup3\n        /* \"#utility.yul\":16935:16953   */\n      add\n        /* \"#utility.yul\":16927:16953   */\n      swap1\n      pop\n        /* \"#utility.yul\":16999:17008   */\n      dup2\n        /* \"#utility.yul\":16993:16997   */\n      dup2\n        /* \"#utility.yul\":16989:17009   */\n      sub\n        /* \"#utility.yul\":16985:16986   */\n      0x00\n        /* \"#utility.yul\":16974:16983   */\n      dup4\n        /* \"#utility.yul\":16970:16987   */\n      add\n        /* \"#utility.yul\":16963:17010   */\n      mstore\n        /* \"#utility.yul\":17027:17158   */\n      tag_878\n        /* \"#utility.yul\":17153:17157   */\n      dup2\n        /* \"#utility.yul\":17027:17158   */\n      tag_643\n      jump\t// in\n    tag_878:\n        /* \"#utility.yul\":17019:17158   */\n      swap1\n      pop\n        /* \"#utility.yul\":16746:17165   */\n      swap2\n      swap1\n      pop\n      jump\t// out\n        /* \"#utility.yul\":17171:17339   */\n    tag_644:\n        /* \"#utility.yul\":17311:17331   */\n      0x77726f6e672073616c6549442076616c75650000000000000000000000000000\n        /* \"#utility.yul\":17307:17308   */\n      0x00\n        /* \"#utility.yul\":17299:17305   */\n      dup3\n        /* \"#utility.yul\":17295:17309   */\n      add\n        /* \"#utility.yul\":17288:17332   */\n      mstore\n        /* \"#utility.yul\":17171:17339   */\n      pop\n      jump\t// out\n        /* \"#utility.yul\":17345:17711   */\n    tag_645:\n        /* \"#utility.yul\":17487:17490   */\n      0x00\n        /* \"#utility.yul\":17508:17575   */\n      tag_881\n        /* \"#utility.yul\":17572:17574   */\n      0x12\n        /* \"#utility.yul\":17567:17570   */\n      dup4\n        /* \"#utility.yul\":17508:17575   */\n      tag_606\n      jump\t// in\n    tag_881:\n        /* \"#utility.yul\":17501:17575   */\n      swap2\n      pop\n        /* \"#utility.yul\":17584:17677   */\n      tag_882\n        /* \"#utility.yul\":17673:17676   */\n      dup3\n        /* \"#utility.yul\":17584:17677   */\n      tag_644\n      jump\t// in\n    tag_882:\n        /* \"#utility.yul\":17702:17704   */\n      0x20\n        /* \"#utility.yul\":17697:17700   */\n      dup3\n        /* \"#utility.yul\":17693:17705   */\n      add\n        /* \"#utility.yul\":17686:17705   */\n      swap1\n      pop\n        /* \"#utility.yul\":17345:17711   */\n      swap2\n      swap1\n      pop\n      jump\t// out\n        /* \"#utility.yul\":17717:18136   */\n    tag_126:\n        /* \"#utility.yul\":17883:17887   */\n      0x00\n        /* \"#utility.yul\":17921:17923   */\n      0x20\n        /* \"#utility.yul\":17910:17919   */\n      dup3\n        /* \"#utility.yul\":17906:17924   */\n      add\n        /* \"#utility.yul\":17898:17924   */\n      swap1\n      pop\n        /* \"#utility.yul\":17970:17979   */\n      dup2\n        /* \"#utility.yul\":17964:17968   */\n      dup2\n        /* \"#utility.yul\":17960:17980   */\n      sub\n        /* \"#utility.yul\":17956:17957   */\n      0x00\n        /* \"#utility.yul\":17945:17954   */\n      dup4\n        /* \"#utility.yul\":17941:17958   */\n      add\n        /* \"#utility.yul\":17934:17981   */\n      mstore\n        /* \"#utility.yul\":17998:18129   */\n      tag_884\n        /* \"#utility.yul\":18124:18128   */\n      dup2\n        /* \"#utility.yul\":17998:18129   */\n      tag_645\n      jump\t// in\n    tag_884:\n        /* \"#utility.yul\":17990:18129   */\n      swap1\n      pop\n        /* \"#utility.yul\":17717:18136   */\n      swap2\n      swap1\n      pop\n      jump\t// out\n        /* \"#utility.yul\":18142:18306   */\n    tag_646:\n        /* \"#utility.yul\":18282:18298   */\n      0x53616c6520697320636c6f736564000000000000000000000000000000000000\n        /* \"#utility.yul\":18278:18279   */\n      0x00\n        /* \"#utility.yul\":18270:18276   */\n      dup3\n        /* \"#utility.yul\":18266:18280   */\n      add\n        /* \"#utility.yul\":18259:18299   */\n      mstore\n        /* \"#utility.yul\":18142:18306   */\n      pop\n      jump\t// out\n        /* \"#utility.yul\":18312:18678   */\n    tag_647:\n        /* \"#utility.yul\":18454:18457   */\n      0x00\n        /* \"#utility.yul\":18475:18542   */\n      tag_887\n        /* \"#utility.yul\":18539:18541   */\n      0x0e\n        /* \"#utility.yul\":18534:18537   */\n      dup4\n        /* \"#utility.yul\":18475:18542   */\n      tag_606\n      jump\t// in\n    tag_887:\n        /* \"#utility.yul\":18468:18542   */\n      swap2\n      pop\n        /* \"#utility.yul\":18551:18644   */\n      tag_888\n        /* \"#utility.yul\":18640:18643   */\n      dup3\n        /* \"#utility.yul\":18551:18644   */\n      tag_646\n      jump\t// in\n    tag_888:\n        /* \"#utility.yul\":18669:18671   */\n      0x20\n        /* \"#utility.yul\":18664:18667   */\n      dup3\n        /* \"#utility.yul\":18660:18672   */\n      add\n        /* \"#utility.yul\":18653:18672   */\n      swap1\n      pop\n        /* \"#utility.yul\":18312:18678   */\n      swap2\n      swap1\n      pop\n      jump\t// out\n        /* \"#utility.yul\":18684:19103   */\n    tag_132:\n        /* \"#utility.yul\":18850:18854   */\n      0x00\n        /* \"#utility.yul\":18888:18890   */\n      0x20\n        /* \"#utility.yul\":18877:18886   */\n      dup3\n        /* \"#utility.yul\":18873:18891   */\n      add\n        /* \"#utility.yul\":18865:18891   */\n      swap1\n      pop\n        /* \"#utility.yul\":18937:18946   */\n      dup2\n        /* \"#utility.yul\":18931:18935   */\n      dup2\n        /* \"#utility.yul\":18927:18947   */\n      sub\n        /* \"#utility.yul\":18923:18924   */\n      0x00\n        /* \"#utility.yul\":18912:18921   */\n      dup4\n        /* \"#utility.yul\":18908:18925   */\n      add\n        /* \"#utility.yul\":18901:18948   */\n      mstore\n        /* \"#utility.yul\":18965:19096   */\n      tag_890\n        /* \"#utility.yul\":19091:19095   */\n      dup2\n        /* \"#utility.yul\":18965:19096   */\n      tag_647\n      jump\t// in\n    tag_890:\n        /* \"#utility.yul\":18957:19096   */\n      swap1\n      pop\n        /* \"#utility.yul\":18684:19103   */\n      swap2\n      swap1\n      pop\n      jump\t// out\n        /* \"#utility.yul\":19109:19273   */\n    tag_648:\n        /* \"#utility.yul\":19249:19265   */\n      0x796f752070726963652069732030000000000000000000000000000000000000\n        /* \"#utility.yul\":19245:19246   */\n      0x00\n        /* \"#utility.yul\":19237:19243   */\n      dup3\n        /* \"#utility.yul\":19233:19247   */\n      add\n        /* \"#utility.yul\":19226:19266   */\n      mstore\n        /* \"#utility.yul\":19109:19273   */\n      pop\n      jump\t// out\n        /* \"#utility.yul\":19279:19645   */\n    tag_649:\n        /* \"#utility.yul\":19421:19424   */\n      0x00\n        /* \"#utility.yul\":19442:19509   */\n      tag_893\n        /* \"#utility.yul\":19506:19508   */\n      0x0e\n        /* \"#utility.yul\":19501:19504   */\n      dup4\n        /* \"#utility.yul\":19442:19509   */\n      tag_606\n      jump\t// in\n    tag_893:\n        /* \"#utility.yul\":19435:19509   */\n      swap2\n      pop\n        /* \"#utility.yul\":19518:19611   */\n      tag_894\n        /* \"#utility.yul\":19607:19610   */\n      dup3\n        /* \"#utility.yul\":19518:19611   */\n      tag_648\n      jump\t// in\n    tag_894:\n        /* \"#utility.yul\":19636:19638   */\n      0x20\n        /* \"#utility.yul\":19631:19634   */\n      dup3\n        /* \"#utility.yul\":19627:19639   */\n      add\n        /* \"#utility.yul\":19620:19639   */\n      swap1\n      pop\n        /* \"#utility.yul\":19279:19645   */\n      swap2\n      swap1\n      pop\n      jump\t// out\n        /* \"#utility.yul\":19651:20070   */\n    tag_154:\n        /* \"#utility.yul\":19817:19821   */\n      0x00\n        /* \"#utility.yul\":19855:19857   */\n      0x20\n        /* \"#utility.yul\":19844:19853   */\n      dup3\n        /* \"#utility.yul\":19840:19858   */\n      add\n        /* \"#utility.yul\":19832:19858   */\n      swap1\n      pop\n        /* \"#utility.yul\":19904:19913   */\n      dup2\n        /* \"#utility.yul\":19898:19902   */\n      dup2\n        /* \"#utility.yul\":19894:19914   */\n      sub\n        /* \"#utility.yul\":19890:19891   */\n      0x00\n        /* \"#utility.yul\":19879:19888   */\n      dup4\n        /* \"#utility.yul\":19875:19892   */\n      add\n        /* \"#utility.yul\":19868:19915   */\n      mstore\n        /* \"#utility.yul\":19932:20063   */\n      tag_896\n        /* \"#utility.yul\":20058:20062   */\n      dup2\n        /* \"#utility.yul\":19932:20063   */\n      tag_649\n      jump\t// in\n    tag_896:\n        /* \"#utility.yul\":19924:20063   */\n      swap1\n      pop\n        /* \"#utility.yul\":19651:20070   */\n      swap2\n      swap1\n      pop\n      jump\t// out\n        /* \"#utility.yul\":20076:20256   */\n    tag_650:\n        /* \"#utility.yul\":20124:20201   */\n      0x4e487b7100000000000000000000000000000000000000000000000000000000\n        /* \"#utility.yul\":20121:20122   */\n      0x00\n        /* \"#utility.yul\":20114:20202   */\n      mstore\n        /* \"#utility.yul\":20221:20225   */\n      0x22\n        /* \"#utility.yul\":20218:20219   */\n      0x04\n        /* \"#utility.yul\":20211:20226   */\n      mstore\n        /* \"#utility.yul\":20245:20249   */\n      0x24\n        /* \"#utility.yul\":20242:20243   */\n      0x00\n        /* \"#utility.yul\":20235:20250   */\n      revert\n        /* \"#utility.yul\":20262:20582   */\n    tag_172:\n        /* \"#utility.yul\":20306:20312   */\n      0x00\n        /* \"#utility.yul\":20343:20344   */\n      0x02\n        /* \"#utility.yul\":20337:20341   */\n      dup3\n        /* \"#utility.yul\":20333:20345   */\n      div\n        /* \"#utility.yul\":20323:20345   */\n      swap1\n      pop\n        /* \"#utility.yul\":20390:20391   */\n      0x01\n        /* \"#utility.yul\":20384:20388   */\n      dup3\n        /* \"#utility.yul\":20380:20392   */\n      and\n        /* \"#utility.yul\":20411:20429   */\n      dup1\n        /* \"#utility.yul\":20401:20482   */\n      tag_899\n      jumpi\n        /* \"#utility.yul\":20467:20471   */\n      0x7f\n        /* \"#utility.yul\":20459:20465   */\n      dup3\n        /* \"#utility.yul\":20455:20472   */\n      and\n        /* \"#utility.yul\":20445:20472   */\n      swap2\n      pop\n        /* \"#utility.yul\":20401:20482   */\n    tag_899:\n        /* \"#utility.yul\":20529:20531   */\n      0x20\n        /* \"#utility.yul\":20521:20527   */\n      dup3\n        /* \"#utility.yul\":20518:20532   */\n      lt\n        /* \"#utility.yul\":20498:20516   */\n      dup2\n        /* \"#utility.yul\":20495:20533   */\n      sub\n        /* \"#utility.yul\":20492:20576   */\n      tag_900\n      jumpi\n        /* \"#utility.yul\":20548:20566   */\n      tag_901\n      tag_650\n      jump\t// in\n    tag_901:\n        /* \"#utility.yul\":20492:20576   */\n    tag_900:\n        /* \"#utility.yul\":20313:20582   */\n      pop\n        /* \"#utility.yul\":20262:20582   */\n      swap2\n      swap1\n      pop\n      jump\t// out\n        /* \"#utility.yul\":20588:20750   */\n    tag_651:\n        /* \"#utility.yul\":20728:20742   */\n      0x4e6f7420796f752073616c650000000000000000000000000000000000000000\n        /* \"#utility.yul\":20724:20725   */\n      0x00\n        /* \"#utility.yul\":20716:20722   */\n      dup3\n        /* \"#utility.yul\":20712:20726   */\n      add\n        /* \"#utility.yul\":20705:20743   */\n      mstore\n        /* \"#utility.yul\":20588:20750   */\n      pop\n      jump\t// out\n        /* \"#utility.yul\":20756:21122   */\n    tag_652:\n        /* \"#utility.yul\":20898:20901   */\n      0x00\n        /* \"#utility.yul\":20919:20986   */\n      tag_904\n        /* \"#utility.yul\":20983:20985   */\n      0x0c\n        /* \"#utility.yul\":20978:20981   */\n      dup4\n        /* \"#utility.yul\":20919:20986   */\n      tag_606\n      jump\t// in\n    tag_904:\n        /* \"#utility.yul\":20912:20986   */\n      swap2\n      pop\n        /* \"#utility.yul\":20995:21088   */\n      tag_905\n        /* \"#utility.yul\":21084:21087   */\n      dup3\n        /* \"#utility.yul\":20995:21088   */\n      tag_651\n      jump\t// in\n    tag_905:\n        /* \"#utility.yul\":21113:21115   */\n      0x20\n        /* \"#utility.yul\":21108:21111   */\n      dup3\n        /* \"#utility.yul\":21104:21116   */\n      add\n        /* \"#utility.yul\":21097:21116   */\n      swap1\n      pop\n        /* \"#utility.yul\":20756:21122   */\n      swap2\n      swap1\n      pop\n      jump\t// out\n        /* \"#utility.yul\":21128:21547   */\n    tag_193:\n        /* \"#utility.yul\":21294:21298   */\n      0x00\n        /* \"#utility.yul\":21332:21334   */\n      0x20\n        /* \"#utility.yul\":21321:21330   */\n      dup3\n        /* \"#utility.yul\":21317:21335   */\n      add\n        /* \"#utility.yul\":21309:21335   */\n      swap1\n      pop\n        /* \"#utility.yul\":21381:21390   */\n      dup2\n        /* \"#utility.yul\":21375:21379   */\n      dup2\n        /* \"#utility.yul\":21371:21391   */\n      sub\n        /* \"#utility.yul\":21367:21368   */\n      0x00\n        /* \"#utility.yul\":21356:21365   */\n      dup4\n        /* \"#utility.yul\":21352:21369   */\n      add\n        /* \"#utility.yul\":21345:21392   */\n      mstore\n        /* \"#utility.yul\":21409:21540   */\n      tag_907\n        /* \"#utility.yul\":21535:21539   */\n      dup2\n        /* \"#utility.yul\":21409:21540   */\n      tag_652\n      jump\t// in\n    tag_907:\n        /* \"#utility.yul\":21401:21540   */\n      swap1\n      pop\n        /* \"#utility.yul\":21128:21547   */\n      swap2\n      swap1\n      pop\n      jump\t// out\n        /* \"#utility.yul\":21553:21719   */\n    tag_653:\n        /* \"#utility.yul\":21693:21711   */\n      0x6275696c64206973206172657374656400000000000000000000000000000000\n        /* \"#utility.yul\":21689:21690   */\n      0x00\n        /* \"#utility.yul\":21681:21687   */\n      dup3\n        /* \"#utility.yul\":21677:21691   */\n      add\n        /* \"#utility.yul\":21670:21712   */\n      mstore\n        /* \"#utility.yul\":21553:21719   */\n      pop\n      jump\t// out\n        /* \"#utility.yul\":21725:22091   */\n    tag_654:\n        /* \"#utility.yul\":21867:21870   */\n      0x00\n        /* \"#utility.yul\":21888:21955   */\n      tag_910\n        /* \"#utility.yul\":21952:21954   */\n      0x10\n        /* \"#utility.yul\":21947:21950   */\n      dup4\n        /* \"#utility.yul\":21888:21955   */\n      tag_606\n      jump\t// in\n    tag_910:\n        /* \"#utility.yul\":21881:21955   */\n      swap2\n      pop\n        /* \"#utility.yul\":21964:22057   */\n      tag_911\n        /* \"#utility.yul\":22053:22056   */\n      dup3\n        /* \"#utility.yul\":21964:22057   */\n      tag_653\n      jump\t// in\n    tag_911:\n        /* \"#utility.yul\":22082:22084   */\n      0x20\n        /* \"#utility.yul\":22077:22080   */\n      dup3\n        /* \"#utility.yul\":22073:22085   */\n      add\n        /* \"#utility.yul\":22066:22085   */\n      swap1\n      pop\n        /* \"#utility.yul\":21725:22091   */\n      swap2\n      swap1\n      pop\n      jump\t// out\n        /* \"#utility.yul\":22097:22516   */\n    tag_199:\n        /* \"#utility.yul\":22263:22267   */\n      0x00\n        /* \"#utility.yul\":22301:22303   */\n      0x20\n        /* \"#utility.yul\":22290:22299   */\n      dup3\n        /* \"#utility.yul\":22286:22304   */\n      add\n        /* \"#utility.yul\":22278:22304   */\n      swap1\n      pop\n        /* \"#utility.yul\":22350:22359   */\n      dup2\n        /* \"#utility.yul\":22344:22348   */\n      dup2\n        /* \"#utility.yul\":22340:22360   */\n      sub\n        /* \"#utility.yul\":22336:22337   */\n      0x00\n        /* \"#utility.yul\":22325:22334   */\n      dup4\n        /* \"#utility.yul\":22321:22338   */\n      add\n        /* \"#utility.yul\":22314:22361   */\n      mstore\n        /* \"#utility.yul\":22378:22509   */\n      tag_913\n        /* \"#utility.yul\":22504:22508   */\n      dup2\n        /* \"#utility.yul\":22378:22509   */\n      tag_654\n      jump\t// in\n    tag_913:\n        /* \"#utility.yul\":22370:22509   */\n      swap1\n      pop\n        /* \"#utility.yul\":22097:22516   */\n      swap2\n      swap1\n      pop\n      jump\t// out\n        /* \"#utility.yul\":22522:22689   */\n    tag_655:\n        /* \"#utility.yul\":22662:22681   */\n      0x4973206e6f7420796f7572206275696c64000000000000000000000000000000\n        /* \"#utility.yul\":22658:22659   */\n      0x00\n        /* \"#utility.yul\":22650:22656   */\n      dup3\n        /* \"#utility.yul\":22646:22660   */\n      add\n        /* \"#utility.yul\":22639:22682   */\n      mstore\n        /* \"#utility.yul\":22522:22689   */\n      pop\n      jump\t// out\n        /* \"#utility.yul\":22695:23061   */\n    tag_656:\n        /* \"#utility.yul\":22837:22840   */\n      0x00\n        /* \"#utility.yul\":22858:22925   */\n      tag_916\n        /* \"#utility.yul\":22922:22924   */\n      0x11\n        /* \"#utility.yul\":22917:22920   */\n      dup4\n        /* \"#utility.yul\":22858:22925   */\n      tag_606\n      jump\t// in\n    tag_916:\n        /* \"#utility.yul\":22851:22925   */\n      swap2\n      pop\n        /* \"#utility.yul\":22934:23027   */\n      tag_917\n        /* \"#utility.yul\":23023:23026   */\n      dup3\n        /* \"#utility.yul\":22934:23027   */\n      tag_655\n      jump\t// in\n    tag_917:\n        /* \"#utility.yul\":23052:23054   */\n      0x20\n        /* \"#utility.yul\":23047:23050   */\n      dup3\n        /* \"#utility.yul\":23043:23055   */\n      add\n        /* \"#utility.yul\":23036:23055   */\n      swap1\n      pop\n        /* \"#utility.yul\":22695:23061   */\n      swap2\n      swap1\n      pop\n      jump\t// out\n        /* \"#utility.yul\":23067:23486   */\n    tag_260:\n        /* \"#utility.yul\":23233:23237   */\n      0x00\n        /* \"#utility.yul\":23271:23273   */\n      0x20\n        /* \"#utility.yul\":23260:23269   */\n      dup3\n        /* \"#utility.yul\":23256:23274   */\n      add\n        /* \"#utility.yul\":23248:23274   */\n      swap1\n      pop\n        /* \"#utility.yul\":23320:23329   */\n      dup2\n        /* \"#utility.yul\":23314:23318   */\n      dup2\n        /* \"#utility.yul\":23310:23330   */\n      sub\n        /* \"#utility.yul\":23306:23307   */\n      0x00\n        /* \"#utility.yul\":23295:23304   */\n      dup4\n        /* \"#utility.yul\":23291:23308   */\n      add\n        /* \"#utility.yul\":23284:23331   */\n      mstore\n        /* \"#utility.yul\":23348:23479   */\n      tag_919\n        /* \"#utility.yul\":23474:23478   */\n      dup2\n        /* \"#utility.yul\":23348:23479   */\n      tag_656\n      jump\t// in\n    tag_919:\n        /* \"#utility.yul\":23340:23479   */\n      swap1\n      pop\n        /* \"#utility.yul\":23067:23486   */\n      swap2\n      swap1\n      pop\n      jump\t// out\n        /* \"#utility.yul\":23492:23660   */\n    tag_657:\n        /* \"#utility.yul\":23632:23652   */\n      0x416c726561647920696e2070726573656e740000000000000000000000000000\n        /* \"#utility.yul\":23628:23629   */\n      0x00\n        /* \"#utility.yul\":23620:23626   */\n      dup3\n        /* \"#utility.yul\":23616:23630   */\n      add\n        /* \"#utility.yul\":23609:23653   */\n      mstore\n        /* \"#utility.yul\":23492:23660   */\n      pop\n      jump\t// out\n        /* \"#utility.yul\":23666:24032   */\n    tag_658:\n        /* \"#utility.yul\":23808:23811   */\n      0x00\n        /* \"#utility.yul\":23829:23896   */\n      tag_922\n        /* \"#utility.yul\":23893:23895   */\n      0x12\n        /* \"#utility.yul\":23888:23891   */\n      dup4\n        /* \"#utility.yul\":23829:23896   */\n      tag_606\n      jump\t// in\n    tag_922:\n        /* \"#utility.yul\":23822:23896   */\n      swap2\n      pop\n        /* \"#utility.yul\":23905:23998   */\n      tag_923\n        /* \"#utility.yul\":23994:23997   */\n      dup3\n        /* \"#utility.yul\":23905:23998   */\n      tag_657\n      jump\t// in\n    tag_923:\n        /* \"#utility.yul\":24023:24025   */\n      0x20\n        /* \"#utility.yul\":24018:24021   */\n      dup3\n        /* \"#utility.yul\":24014:24026   */\n      add\n        /* \"#utility.yul\":24007:24026   */\n      swap1\n      pop\n        /* \"#utility.yul\":23666:24032   */\n      swap2\n      swap1\n      pop\n      jump\t// out\n        /* \"#utility.yul\":24038:24457   */\n    tag_267:\n        /* \"#utility.yul\":24204:24208   */\n      0x00\n        /* \"#utility.yul\":24242:24244   */\n      0x20\n        /* \"#utility.yul\":24231:24240   */\n      dup3\n        /* \"#utility.yul\":24227:24245   */\n      add\n        /* \"#utility.yul\":24219:24245   */\n      swap1\n      pop\n        /* \"#utility.yul\":24291:24300   */\n      dup2\n        /* \"#utility.yul\":24285:24289   */\n      dup2\n        /* \"#utility.yul\":24281:24301   */\n      sub\n        /* \"#utility.yul\":24277:24278   */\n      0x00\n        /* \"#utility.yul\":24266:24275   */\n      dup4\n        /* \"#utility.yul\":24262:24279   */\n      add\n        /* \"#utility.yul\":24255:24302   */\n      mstore\n        /* \"#utility.yul\":24319:24450   */\n      tag_925\n        /* \"#utility.yul\":24445:24449   */\n      dup2\n        /* \"#utility.yul\":24319:24450   */\n      tag_658\n      jump\t// in\n    tag_925:\n        /* \"#utility.yul\":24311:24450   */\n      swap1\n      pop\n        /* \"#utility.yul\":24038:24457   */\n      swap2\n      swap1\n      pop\n      jump\t// out\n        /* \"#utility.yul\":24463:24628   */\n    tag_659:\n        /* \"#utility.yul\":24603:24620   */\n      0x416c726561647920696e2073616c650000000000000000000000000000000000\n        /* \"#utility.yul\":24599:24600   */\n      0x00\n        /* \"#utility.yul\":24591:24597   */\n      dup3\n        /* \"#utility.yul\":24587:24601   */\n      add\n        /* \"#utility.yul\":24580:24621   */\n      mstore\n        /* \"#utility.yul\":24463:24628   */\n      pop\n      jump\t// out\n        /* \"#utility.yul\":24634:25000   */\n    tag_660:\n        /* \"#utility.yul\":24776:24779   */\n      0x00\n        /* \"#utility.yul\":24797:24864   */\n      tag_928\n        /* \"#utility.yul\":24861:24863   */\n      0x0f\n        /* \"#utility.yul\":24856:24859   */\n      dup4\n        /* \"#utility.yul\":24797:24864   */\n      tag_606\n      jump\t// in\n    tag_928:\n        /* \"#utility.yul\":24790:24864   */\n      swap2\n      pop\n        /* \"#utility.yul\":24873:24966   */\n      tag_929\n        /* \"#utility.yul\":24962:24965   */\n      dup3\n        /* \"#utility.yul\":24873:24966   */\n      tag_659\n      jump\t// in\n    tag_929:\n        /* \"#utility.yul\":24991:24993   */\n      0x20\n        /* \"#utility.yul\":24986:24989   */\n      dup3\n        /* \"#utility.yul\":24982:24994   */\n      add\n        /* \"#utility.yul\":24975:24994   */\n      swap1\n      pop\n        /* \"#utility.yul\":24634:25000   */\n      swap2\n      swap1\n      pop\n      jump\t// out\n        /* \"#utility.yul\":25006:25425   */\n    tag_273:\n        /* \"#utility.yul\":25172:25176   */\n      0x00\n        /* \"#utility.yul\":25210:25212   */\n      0x20\n        /* \"#utility.yul\":25199:25208   */\n      dup3\n        /* \"#utility.yul\":25195:25213   */\n      add\n        /* \"#utility.yul\":25187:25213   */\n      swap1\n      pop\n        /* \"#utility.yul\":25259:25268   */\n      dup2\n        /* \"#utility.yul\":25253:25257   */\n      dup2\n        /* \"#utility.yul\":25249:25269   */\n      sub\n        /* \"#utility.yul\":25245:25246   */\n      0x00\n        /* \"#utility.yul\":25234:25243   */\n      dup4\n        /* \"#utility.yul\":25230:25247   */\n      add\n        /* \"#utility.yul\":25223:25270   */\n      mstore\n        /* \"#utility.yul\":25287:25418   */\n      tag_931\n        /* \"#utility.yul\":25413:25417   */\n      dup2\n        /* \"#utility.yul\":25287:25418   */\n      tag_660\n      jump\t// in\n    tag_931:\n        /* \"#utility.yul\":25279:25418   */\n      swap1\n      pop\n        /* \"#utility.yul\":25006:25425   */\n      swap2\n      swap1\n      pop\n      jump\t// out\n        /* \"#utility.yul\":25431:25595   */\n    tag_661:\n        /* \"#utility.yul\":25571:25587   */\n      0x4275696c6420696e206172657374000000000000000000000000000000000000\n        /* \"#utility.yul\":25567:25568   */\n      0x00\n        /* \"#utility.yul\":25559:25565   */\n      dup3\n        /* \"#utility.yul\":25555:25569   */\n      add\n        /* \"#utility.yul\":25548:25588   */\n      mstore\n        /* \"#utility.yul\":25431:25595   */\n      pop\n      jump\t// out\n        /* \"#utility.yul\":25601:25967   */\n    tag_662:\n        /* \"#utility.yul\":25743:25746   */\n      0x00\n        /* \"#utility.yul\":25764:25831   */\n      tag_934\n        /* \"#utility.yul\":25828:25830   */\n      0x0e\n        /* \"#utility.yul\":25823:25826   */\n      dup4\n        /* \"#utility.yul\":25764:25831   */\n      tag_606\n      jump\t// in\n    tag_934:\n        /* \"#utility.yul\":25757:25831   */\n      swap2\n      pop\n        /* \"#utility.yul\":25840:25933   */\n      tag_935\n        /* \"#utility.yul\":25929:25932   */\n      dup3\n        /* \"#utility.yul\":25840:25933   */\n      tag_661\n      jump\t// in\n    tag_935:\n        /* \"#utility.yul\":25958:25960   */\n      0x20\n        /* \"#utility.yul\":25953:25956   */\n      dup3\n        /* \"#utility.yul\":25949:25961   */\n      add\n        /* \"#utility.yul\":25942:25961   */\n      swap1\n      pop\n        /* \"#utility.yul\":25601:25967   */\n      swap2\n      swap1\n      pop\n      jump\t// out\n        /* \"#utility.yul\":25973:26392   */\n    tag_279:\n        /* \"#utility.yul\":26139:26143   */\n      0x00\n        /* \"#utility.yul\":26177:26179   */\n      0x20\n        /* \"#utility.yul\":26166:26175   */\n      dup3\n        /* \"#utility.yul\":26162:26180   */\n      add\n        /* \"#utility.yul\":26154:26180   */\n      swap1\n      pop\n        /* \"#utility.yul\":26226:26235   */\n      dup2\n        /* \"#utility.yul\":26220:26224   */\n      dup2\n        /* \"#utility.yul\":26216:26236   */\n      sub\n        /* \"#utility.yul\":26212:26213   */\n      0x00\n        /* \"#utility.yul\":26201:26210   */\n      dup4\n        /* \"#utility.yul\":26197:26214   */\n      add\n        /* \"#utility.yul\":26190:26237   */\n      mstore\n        /* \"#utility.yul\":26254:26385   */\n      tag_937\n        /* \"#utility.yul\":26380:26384   */\n      dup2\n        /* \"#utility.yul\":26254:26385   */\n      tag_662\n      jump\t// in\n    tag_937:\n        /* \"#utility.yul\":26246:26385   */\n      swap1\n      pop\n        /* \"#utility.yul\":25973:26392   */\n      swap2\n      swap1\n      pop\n      jump\t// out\n        /* \"#utility.yul\":26398:26561   */\n    tag_663:\n        /* \"#utility.yul\":26538:26553   */\n      0x77726f6e675f6164647265737300000000000000000000000000000000000000\n        /* \"#utility.yul\":26534:26535   */\n      0x00\n        /* \"#utility.yul\":26526:26532   */\n      dup3\n        /* \"#utility.yul\":26522:26536   */\n      add\n        /* \"#utility.yul\":26515:26554   */\n      mstore\n        /* \"#utility.yul\":26398:26561   */\n      pop\n      jump\t// out\n        /* \"#utility.yul\":26567:26933   */\n    tag_664:\n        /* \"#utility.yul\":26709:26712   */\n      0x00\n        /* \"#utility.yul\":26730:26797   */\n      tag_940\n        /* \"#utility.yul\":26794:26796   */\n      0x0d\n        /* \"#utility.yul\":26789:26792   */\n      dup4\n        /* \"#utility.yul\":26730:26797   */\n      tag_606\n      jump\t// in\n    tag_940:\n        /* \"#utility.yul\":26723:26797   */\n      swap2\n      pop\n        /* \"#utility.yul\":26806:26899   */\n      tag_941\n        /* \"#utility.yul\":26895:26898   */\n      dup3\n        /* \"#utility.yul\":26806:26899   */\n      tag_663\n      jump\t// in\n    tag_941:\n        /* \"#utility.yul\":26924:26926   */\n      0x20\n        /* \"#utility.yul\":26919:26922   */\n      dup3\n        /* \"#utility.yul\":26915:26927   */\n      add\n        /* \"#utility.yul\":26908:26927   */\n      swap1\n      pop\n        /* \"#utility.yul\":26567:26933   */\n      swap2\n      swap1\n      pop\n      jump\t// out\n        /* \"#utility.yul\":26939:27358   */\n    tag_283:\n        /* \"#utility.yul\":27105:27109   */\n      0x00\n        /* \"#utility.yul\":27143:27145   */\n      0x20\n        /* \"#utility.yul\":27132:27141   */\n      dup3\n        /* \"#utility.yul\":27128:27146   */\n      add\n        /* \"#utility.yul\":27120:27146   */\n      swap1\n      pop\n        /* \"#utility.yul\":27192:27201   */\n      dup2\n        /* \"#utility.yul\":27186:27190   */\n      dup2\n        /* \"#utility.yul\":27182:27202   */\n      sub\n        /* \"#utility.yul\":27178:27179   */\n      0x00\n        /* \"#utility.yul\":27167:27176   */\n      dup4\n        /* \"#utility.yul\":27163:27180   */\n      add\n        /* \"#utility.yul\":27156:27203   */\n      mstore\n        /* \"#utility.yul\":27220:27351   */\n      tag_943\n        /* \"#utility.yul\":27346:27350   */\n      dup2\n        /* \"#utility.yul\":27220:27351   */\n      tag_664\n      jump\t// in\n    tag_943:\n        /* \"#utility.yul\":27212:27351   */\n      swap1\n      pop\n        /* \"#utility.yul\":26939:27358   */\n      swap2\n      swap1\n      pop\n      jump\t// out\n        /* \"#utility.yul\":27364:27533   */\n    tag_665:\n        /* \"#utility.yul\":27504:27525   */\n      0x77726f6e67206275696c6449442076616c756500000000000000000000000000\n        /* \"#utility.yul\":27500:27501   */\n      0x00\n        /* \"#utility.yul\":27492:27498   */\n      dup3\n        /* \"#utility.yul\":27488:27502   */\n      add\n        /* \"#utility.yul\":27481:27526   */\n      mstore\n        /* \"#utility.yul\":27364:27533   */\n      pop\n      jump\t// out\n        /* \"#utility.yul\":27539:27905   */\n    tag_666:\n        /* \"#utility.yul\":27681:27684   */\n      0x00\n        /* \"#utility.yul\":27702:27769   */\n      tag_946\n        /* \"#utility.yul\":27766:27768   */\n      0x13\n        /* \"#utility.yul\":27761:27764   */\n      dup4\n        /* \"#utility.yul\":27702:27769   */\n      tag_606\n      jump\t// in\n    tag_946:\n        /* \"#utility.yul\":27695:27769   */\n      swap2\n      pop\n        /* \"#utility.yul\":27778:27871   */\n      tag_947\n        /* \"#utility.yul\":27867:27870   */\n      dup3\n        /* \"#utility.yul\":27778:27871   */\n      tag_665\n      jump\t// in\n    tag_947:\n        /* \"#utility.yul\":27896:27898   */\n      0x20\n        /* \"#utility.yul\":27891:27894   */\n      dup3\n        /* \"#utility.yul\":27887:27899   */\n      add\n        /* \"#utility.yul\":27880:27899   */\n      swap1\n      pop\n        /* \"#utility.yul\":27539:27905   */\n      swap2\n      swap1\n      pop\n      jump\t// out\n        /* \"#utility.yul\":27911:28330   */\n    tag_286:\n        /* \"#utility.yul\":28077:28081   */\n      0x00\n        /* \"#utility.yul\":28115:28117   */\n      0x20\n        /* \"#utility.yul\":28104:28113   */\n      dup3\n        /* \"#utility.yul\":28100:28118   */\n      add\n        /* \"#utility.yul\":28092:28118   */\n      swap1\n      pop\n        /* \"#utility.yul\":28164:28173   */\n      dup2\n        /* \"#utility.yul\":28158:28162   */\n      dup2\n        /* \"#utility.yul\":28154:28174   */\n      sub\n        /* \"#utility.yul\":28150:28151   */\n      0x00\n        /* \"#utility.yul\":28139:28148   */\n      dup4\n        /* \"#utility.yul\":28135:28152   */\n      add\n        /* \"#utility.yul\":28128:28175   */\n      mstore\n        /* \"#utility.yul\":28192:28323   */\n      tag_949\n        /* \"#utility.yul\":28318:28322   */\n      dup2\n        /* \"#utility.yul\":28192:28323   */\n      tag_666\n      jump\t// in\n    tag_949:\n        /* \"#utility.yul\":28184:28323   */\n      swap1\n      pop\n        /* \"#utility.yul\":27911:28330   */\n      swap2\n      swap1\n      pop\n      jump\t// out\n        /* \"#utility.yul\":28336:28495   */\n    tag_667:\n        /* \"#utility.yul\":28476:28487   */\n      0x73656c6620676966740000000000000000000000000000000000000000000000\n        /* \"#utility.yul\":28472:28473   */\n      0x00\n        /* \"#utility.yul\":28464:28470   */\n      dup3\n        /* \"#utility.yul\":28460:28474   */\n      add\n        /* \"#utility.yul\":28453:28488   */\n      mstore\n        /* \"#utility.yul\":28336:28495   */\n      pop\n      jump\t// out\n        /* \"#utility.yul\":28501:28866   */\n    tag_668:\n        /* \"#utility.yul\":28643:28646   */\n      0x00\n        /* \"#utility.yul\":28664:28730   */\n      tag_952\n        /* \"#utility.yul\":28728:28729   */\n      0x09\n        /* \"#utility.yul\":28723:28726   */\n      dup4\n        /* \"#utility.yul\":28664:28730   */\n      tag_606\n      jump\t// in\n    tag_952:\n        /* \"#utility.yul\":28657:28730   */\n      swap2\n      pop\n        /* \"#utility.yul\":28739:28832   */\n      tag_953\n        /* \"#utility.yul\":28828:28831   */\n      dup3\n        /* \"#utility.yul\":28739:28832   */\n      tag_667\n      jump\t// in\n    tag_953:\n        /* \"#utility.yul\":28857:28859   */\n      0x20\n        /* \"#utility.yul\":28852:28855   */\n      dup3\n        /* \"#utility.yul\":28848:28860   */\n      add\n        /* \"#utility.yul\":28841:28860   */\n      swap1\n      pop\n        /* \"#utility.yul\":28501:28866   */\n      swap2\n      swap1\n      pop\n      jump\t// out\n        /* \"#utility.yul\":28872:29291   */\n    tag_289:\n        /* \"#utility.yul\":29038:29042   */\n      0x00\n        /* \"#utility.yul\":29076:29078   */\n      0x20\n        /* \"#utility.yul\":29065:29074   */\n      dup3\n        /* \"#utility.yul\":29061:29079   */\n      add\n        /* \"#utility.yul\":29053:29079   */\n      swap1\n      pop\n        /* \"#utility.yul\":29125:29134   */\n      dup2\n        /* \"#utility.yul\":29119:29123   */\n      dup2\n        /* \"#utility.yul\":29115:29135   */\n      sub\n        /* \"#utility.yul\":29111:29112   */\n      0x00\n        /* \"#utility.yul\":29100:29109   */\n      dup4\n        /* \"#utility.yul\":29096:29113   */\n      add\n        /* \"#utility.yul\":29089:29136   */\n      mstore\n        /* \"#utility.yul\":29153:29284   */\n      tag_955\n        /* \"#utility.yul\":29279:29283   */\n      dup2\n        /* \"#utility.yul\":29153:29284   */\n      tag_668\n      jump\t// in\n    tag_955:\n        /* \"#utility.yul\":29145:29284   */\n      swap1\n      pop\n        /* \"#utility.yul\":28872:29291   */\n      swap2\n      swap1\n      pop\n      jump\t// out\n        /* \"#utility.yul\":29297:29477   */\n    tag_669:\n        /* \"#utility.yul\":29345:29422   */\n      0x4e487b7100000000000000000000000000000000000000000000000000000000\n        /* \"#utility.yul\":29342:29343   */\n      0x00\n        /* \"#utility.yul\":29335:29423   */\n      mstore\n        /* \"#utility.yul\":29442:29446   */\n      0x11\n        /* \"#utility.yul\":29439:29440   */\n      0x04\n        /* \"#utility.yul\":29432:29447   */\n      mstore\n        /* \"#utility.yul\":29466:29470   */\n      0x24\n        /* \"#utility.yul\":29463:29464   */\n      0x00\n        /* \"#utility.yul\":29456:29471   */\n      revert\n        /* \"#utility.yul\":29483:29674   */\n    tag_291:\n        /* \"#utility.yul\":29523:29526   */\n      0x00\n        /* \"#utility.yul\":29542:29562   */\n      tag_958\n        /* \"#utility.yul\":29560:29561   */\n      dup3\n        /* \"#utility.yul\":29542:29562   */\n      tag_595\n      jump\t// in\n    tag_958:\n        /* \"#utility.yul\":29537:29562   */\n      swap2\n      pop\n        /* \"#utility.yul\":29576:29596   */\n      tag_959\n        /* \"#utility.yul\":29594:29595   */\n      dup4\n        /* \"#utility.yul\":29576:29596   */\n      tag_595\n      jump\t// in\n    tag_959:\n        /* \"#utility.yul\":29571:29596   */\n      swap3\n      pop\n        /* \"#utility.yul\":29619:29620   */\n      dup3\n        /* \"#utility.yul\":29616:29617   */\n      dup3\n        /* \"#utility.yul\":29612:29621   */\n      add\n        /* \"#utility.yul\":29605:29621   */\n      swap1\n      pop\n        /* \"#utility.yul\":29640:29643   */\n      dup1\n        /* \"#utility.yul\":29637:29638   */\n      dup3\n        /* \"#utility.yul\":29634:29644   */\n      gt\n        /* \"#utility.yul\":29631:29667   */\n      iszero\n      tag_960\n      jumpi\n        /* \"#utility.yul\":29647:29665   */\n      tag_961\n      tag_669\n      jump\t// in\n    tag_961:\n        /* \"#utility.yul\":29631:29667   */\n    tag_960:\n        /* \"#utility.yul\":29483:29674   */\n      swap3\n      swap2\n      pop\n      pop\n      jump\t// out\n        /* \"#utility.yul\":29680:29846   */\n    tag_670:\n        /* \"#utility.yul\":29820:29838   */\n      0x416c72656164792066696e697368656400000000000000000000000000000000\n        /* \"#utility.yul\":29816:29817   */\n      0x00\n        /* \"#utility.yul\":29808:29814   */\n      dup3\n        /* \"#utility.yul\":29804:29818   */\n      add\n        /* \"#utility.yul\":29797:29839   */\n      mstore\n        /* \"#utility.yul\":29680:29846   */\n      pop\n      jump\t// out\n        /* \"#utility.yul\":29852:30218   */\n    tag_671:\n        /* \"#utility.yul\":29994:29997   */\n      0x00\n        /* \"#utility.yul\":30015:30082   */\n      tag_964\n        /* \"#utility.yul\":30079:30081   */\n      0x10\n        /* \"#utility.yul\":30074:30077   */\n      dup4\n        /* \"#utility.yul\":30015:30082   */\n      tag_606\n      jump\t// in\n    tag_964:\n        /* \"#utility.yul\":30008:30082   */\n      swap2\n      pop\n        /* \"#utility.yul\":30091:30184   */\n      tag_965\n        /* \"#utility.yul\":30180:30183   */\n      dup3\n        /* \"#utility.yul\":30091:30184   */\n      tag_670\n      jump\t// in\n    tag_965:\n        /* \"#utility.yul\":30209:30211   */\n      0x20\n        /* \"#utility.yul\":30204:30207   */\n      dup3\n        /* \"#utility.yul\":30200:30212   */\n      add\n        /* \"#utility.yul\":30193:30212   */\n      swap1\n      pop\n        /* \"#utility.yul\":29852:30218   */\n      swap2\n      swap1\n      pop\n      jump\t// out\n        /* \"#utility.yul\":30224:30643   */\n    tag_394:\n        /* \"#utility.yul\":30390:30394   */\n      0x00\n        /* \"#utility.yul\":30428:30430   */\n      0x20\n        /* \"#utility.yul\":30417:30426   */\n      dup3\n        /* \"#utility.yul\":30413:30431   */\n      add\n        /* \"#utility.yul\":30405:30431   */\n      swap1\n      pop\n        /* \"#utility.yul\":30477:30486   */\n      dup2\n        /* \"#utility.yul\":30471:30475   */\n      dup2\n        /* \"#utility.yul\":30467:30487   */\n      sub\n        /* \"#utility.yul\":30463:30464   */\n      0x00\n        /* \"#utility.yul\":30452:30461   */\n      dup4\n        /* \"#utility.yul\":30448:30465   */\n      add\n        /* \"#utility.yul\":30441:30488   */\n      mstore\n        /* \"#utility.yul\":30505:30636   */\n      tag_967\n        /* \"#utility.yul\":30631:30635   */\n      dup2\n        /* \"#utility.yul\":30505:30636   */\n      tag_671\n      jump\t// in\n    tag_967:\n        /* \"#utility.yul\":30497:30636   */\n      swap1\n      pop\n        /* \"#utility.yul\":30224:30643   */\n      swap2\n      swap1\n      pop\n      jump\t// out\n        /* \"#utility.yul\":30649:30816   */\n    tag_672:\n        /* \"#utility.yul\":30789:30808   */\n      0x596f7520617265206e6f74206f776e6572000000000000000000000000000000\n        /* \"#utility.yul\":30785:30786   */\n      0x00\n        /* \"#utility.yul\":30777:30783   */\n      dup3\n        /* \"#utility.yul\":30773:30787   */\n      add\n        /* \"#utility.yul\":30766:30809   */\n      mstore\n        /* \"#utility.yul\":30649:30816   */\n      pop\n      jump\t// out\n        /* \"#utility.yul\":30822:31188   */\n    tag_673:\n        /* \"#utility.yul\":30964:30967   */\n      0x00\n        /* \"#utility.yul\":30985:31052   */\n      tag_970\n        /* \"#utility.yul\":31049:31051   */\n      0x11\n        /* \"#utility.yul\":31044:31047   */\n      dup4\n        /* \"#utility.yul\":30985:31052   */\n      tag_606\n      jump\t// in\n    tag_970:\n        /* \"#utility.yul\":30978:31052   */\n      swap2\n      pop\n        /* \"#utility.yul\":31061:31154   */\n      tag_971\n        /* \"#utility.yul\":31150:31153   */\n      dup3\n        /* \"#utility.yul\":31061:31154   */\n      tag_672\n      jump\t// in\n    tag_971:\n        /* \"#utility.yul\":31179:31181   */\n      0x20\n        /* \"#utility.yul\":31174:31177   */\n      dup3\n        /* \"#utility.yul\":31170:31182   */\n      add\n        /* \"#utility.yul\":31163:31182   */\n      swap1\n      pop\n        /* \"#utility.yul\":30822:31188   */\n      swap2\n      swap1\n      pop\n      jump\t// out\n        /* \"#utility.yul\":31194:31613   */\n    tag_400:\n        /* \"#utility.yul\":31360:31364   */\n      0x00\n        /* \"#utility.yul\":31398:31400   */\n      0x20\n        /* \"#utility.yul\":31387:31396   */\n      dup3\n        /* \"#utility.yul\":31383:31401   */\n      add\n        /* \"#utility.yul\":31375:31401   */\n      swap1\n      pop\n        /* \"#utility.yul\":31447:31456   */\n      dup2\n        /* \"#utility.yul\":31441:31445   */\n      dup2\n        /* \"#utility.yul\":31437:31457   */\n      sub\n        /* \"#utility.yul\":31433:31434   */\n      0x00\n        /* \"#utility.yul\":31422:31431   */\n      dup4\n        /* \"#utility.yul\":31418:31435   */\n      add\n        /* \"#utility.yul\":31411:31458   */\n      mstore\n        /* \"#utility.yul\":31475:31606   */\n      tag_973\n        /* \"#utility.yul\":31601:31605   */\n      dup2\n        /* \"#utility.yul\":31475:31606   */\n      tag_673\n      jump\t// in\n    tag_973:\n        /* \"#utility.yul\":31467:31606   */\n      swap1\n      pop\n        /* \"#utility.yul\":31194:31613   */\n      swap2\n      swap1\n      pop\n      jump\t// out\n        /* \"#utility.yul\":31619:31782   */\n    tag_674:\n        /* \"#utility.yul\":31759:31774   */\n      0x77726f6e67206164647265737300000000000000000000000000000000000000\n        /* \"#utility.yul\":31755:31756   */\n      0x00\n        /* \"#utility.yul\":31747:31753   */\n      dup3\n        /* \"#utility.yul\":31743:31757   */\n      add\n        /* \"#utility.yul\":31736:31775   */\n      mstore\n        /* \"#utility.yul\":31619:31782   */\n      pop\n      jump\t// out\n        /* \"#utility.yul\":31788:32154   */\n    tag_675:\n        /* \"#utility.yul\":31930:31933   */\n      0x00\n        /* \"#utility.yul\":31951:32018   */\n      tag_976\n        /* \"#utility.yul\":32015:32017   */\n      0x0d\n        /* \"#utility.yul\":32010:32013   */\n      dup4\n        /* \"#utility.yul\":31951:32018   */\n      tag_606\n      jump\t// in\n    tag_976:\n        /* \"#utility.yul\":31944:32018   */\n      swap2\n      pop\n        /* \"#utility.yul\":32027:32120   */\n      tag_977\n        /* \"#utility.yul\":32116:32119   */\n      dup3\n        /* \"#utility.yul\":32027:32120   */\n      tag_674\n      jump\t// in\n    tag_977:\n        /* \"#utility.yul\":32145:32147   */\n      0x20\n        /* \"#utility.yul\":32140:32143   */\n      dup3\n        /* \"#utility.yul\":32136:32148   */\n      add\n        /* \"#utility.yul\":32129:32148   */\n      swap1\n      pop\n        /* \"#utility.yul\":31788:32154   */\n      swap2\n      swap1\n      pop\n      jump\t// out\n        /* \"#utility.yul\":32160:32579   */\n    tag_434:\n        /* \"#utility.yul\":32326:32330   */\n      0x00\n        /* \"#utility.yul\":32364:32366   */\n      0x20\n        /* \"#utility.yul\":32353:32362   */\n      dup3\n        /* \"#utility.yul\":32349:32367   */\n      add\n        /* \"#utility.yul\":32341:32367   */\n      swap1\n      pop\n        /* \"#utility.yul\":32413:32422   */\n      dup2\n        /* \"#utility.yul\":32407:32411   */\n      dup2\n        /* \"#utility.yul\":32403:32423   */\n      sub\n        /* \"#utility.yul\":32399:32400   */\n      0x00\n        /* \"#utility.yul\":32388:32397   */\n      dup4\n        /* \"#utility.yul\":32384:32401   */\n      add\n        /* \"#utility.yul\":32377:32424   */\n      mstore\n        /* \"#utility.yul\":32441:32572   */\n      tag_979\n        /* \"#utility.yul\":32567:32571   */\n      dup2\n        /* \"#utility.yul\":32441:32572   */\n      tag_675\n      jump\t// in\n    tag_979:\n        /* \"#utility.yul\":32433:32572   */\n      swap1\n      pop\n        /* \"#utility.yul\":32160:32579   */\n      swap2\n      swap1\n      pop\n      jump\t// out\n        /* \"#utility.yul\":32585:32747   */\n    tag_676:\n        /* \"#utility.yul\":32725:32739   */\n      0x77726f6e67207371756172650000000000000000000000000000000000000000\n        /* \"#utility.yul\":32721:32722   */\n      0x00\n        /* \"#utility.yul\":32713:32719   */\n      dup3\n        /* \"#utility.yul\":32709:32723   */\n      add\n        /* \"#utility.yul\":32702:32740   */\n      mstore\n        /* \"#utility.yul\":32585:32747   */\n      pop\n      jump\t// out\n        /* \"#utility.yul\":32753:33119   */\n    tag_677:\n        /* \"#utility.yul\":32895:32898   */\n      0x00\n        /* \"#utility.yul\":32916:32983   */\n      tag_982\n        /* \"#utility.yul\":32980:32982   */\n      0x0c\n        /* \"#utility.yul\":32975:32978   */\n      dup4\n        /* \"#utility.yul\":32916:32983   */\n      tag_606\n      jump\t// in\n    tag_982:\n        /* \"#utility.yul\":32909:32983   */\n      swap2\n      pop\n        /* \"#utility.yul\":32992:33085   */\n      tag_983\n        /* \"#utility.yul\":33081:33084   */\n      dup3\n        /* \"#utility.yul\":32992:33085   */\n      tag_676\n      jump\t// in\n    tag_983:\n        /* \"#utility.yul\":33110:33112   */\n      0x20\n        /* \"#utility.yul\":33105:33108   */\n      dup3\n        /* \"#utility.yul\":33101:33113   */\n      add\n        /* \"#utility.yul\":33094:33113   */\n      swap1\n      pop\n        /* \"#utility.yul\":32753:33119   */\n      swap2\n      swap1\n      pop\n      jump\t// out\n        /* \"#utility.yul\":33125:33544   */\n    tag_437:\n        /* \"#utility.yul\":33291:33295   */\n      0x00\n        /* \"#utility.yul\":33329:33331   */\n      0x20\n        /* \"#utility.yul\":33318:33327   */\n      dup3\n        /* \"#utility.yul\":33314:33332   */\n      add\n        /* \"#utility.yul\":33306:33332   */\n      swap1\n      pop\n        /* \"#utility.yul\":33378:33387   */\n      dup2\n        /* \"#utility.yul\":33372:33376   */\n      dup2\n        /* \"#utility.yul\":33368:33388   */\n      sub\n        /* \"#utility.yul\":33364:33365   */\n      0x00\n        /* \"#utility.yul\":33353:33362   */\n      dup4\n        /* \"#utility.yul\":33349:33366   */\n      add\n        /* \"#utility.yul\":33342:33389   */\n      mstore\n        /* \"#utility.yul\":33406:33537   */\n      tag_985\n        /* \"#utility.yul\":33532:33536   */\n      dup2\n        /* \"#utility.yul\":33406:33537   */\n      tag_677\n      jump\t// in\n    tag_985:\n        /* \"#utility.yul\":33398:33537   */\n      swap1\n      pop\n        /* \"#utility.yul\":33125:33544   */\n      swap2\n      swap1\n      pop\n      jump\t// out\n        /* \"#utility.yul\":33550:33691   */\n    tag_678:\n        /* \"#utility.yul\":33599:33603   */\n      0x00\n        /* \"#utility.yul\":33622:33625   */\n      dup2\n        /* \"#utility.yul\":33614:33625   */\n      swap1\n      pop\n        /* \"#utility.yul\":33645:33648   */\n      dup2\n        /* \"#utility.yul\":33642:33643   */\n      0x00\n        /* \"#utility.yul\":33635:33649   */\n      mstore\n        /* \"#utility.yul\":33679:33683   */\n      0x20\n        /* \"#utility.yul\":33676:33677   */\n      0x00\n        /* \"#utility.yul\":33666:33684   */\n      keccak256\n        /* \"#utility.yul\":33658:33684   */\n      swap1\n      pop\n        /* \"#utility.yul\":33550:33691   */\n      swap2\n      swap1\n      pop\n      jump\t// out\n        /* \"#utility.yul\":33697:33790   */\n    tag_679:\n        /* \"#utility.yul\":33734:33740   */\n      0x00\n        /* \"#utility.yul\":33781:33783   */\n      0x20\n        /* \"#utility.yul\":33776:33778   */\n      0x1f\n        /* \"#utility.yul\":33769:33774   */\n      dup4\n        /* \"#utility.yul\":33765:33779   */\n      add\n        /* \"#utility.yul\":33761:33784   */\n      div\n        /* \"#utility.yul\":33751:33784   */\n      swap1\n      pop\n        /* \"#utility.yul\":33697:33790   */\n      swap2\n      swap1\n      pop\n      jump\t// out\n        /* \"#utility.yul\":33796:33903   */\n    tag_680:\n        /* \"#utility.yul\":33840:33848   */\n      0x00\n        /* \"#utility.yul\":33890:33895   */\n      dup3\n        /* \"#utility.yul\":33884:33888   */\n      dup3\n        /* \"#utility.yul\":33880:33896   */\n      shl\n        /* \"#utility.yul\":33859:33896   */\n      swap1\n      pop\n        /* \"#utility.yul\":33796:33903   */\n      swap3\n      swap2\n      pop\n      pop\n      jump\t// out\n        /* \"#utility.yul\":33909:34302   */\n    tag_681:\n        /* \"#utility.yul\":33978:33984   */\n      0x00\n        /* \"#utility.yul\":34028:34029   */\n      0x08\n        /* \"#utility.yul\":34016:34026   */\n      dup4\n        /* \"#utility.yul\":34012:34030   */\n      mul\n        /* \"#utility.yul\":34051:34148   */\n      tag_990\n        /* \"#utility.yul\":34081:34147   */\n      0xffffffffffffffffffffffffffffffffffffffffffffffffffffffffffffffff\n        /* \"#utility.yul\":34070:34079   */\n      dup3\n        /* \"#utility.yul\":34051:34148   */\n      tag_680\n      jump\t// in\n    tag_990:\n        /* \"#utility.yul\":34169:34208   */\n      tag_991\n        /* \"#utility.yul\":34199:34207   */\n      dup7\n        /* \"#utility.yul\":34188:34197   */\n      dup4\n        /* \"#utility.yul\":34169:34208   */\n      tag_680\n      jump\t// in\n    tag_991:\n        /* \"#utility.yul\":34157:34208   */\n      swap6\n      pop\n        /* \"#utility.yul\":34241:34245   */\n      dup1\n        /* \"#utility.yul\":34237:34246   */\n      not\n        /* \"#utility.yul\":34230:34235   */\n      dup5\n        /* \"#utility.yul\":34226:34247   */\n      and\n        /* \"#utility.yul\":34217:34247   */\n      swap4\n      pop\n        /* \"#utility.yul\":34290:34294   */\n      dup1\n        /* \"#utility.yul\":34280:34288   */\n      dup7\n        /* \"#utility.yul\":34276:34295   */\n      and\n        /* \"#utility.yul\":34269:34274   */\n      dup5\n        /* \"#utility.yul\":34266:34296   */\n      or\n        /* \"#utility.yul\":34256:34296   */\n      swap3\n      pop\n        /* \"#utility.yul\":33985:34302   */\n      pop\n      pop\n        /* \"#utility.yul\":33909:34302   */\n      swap4\n      swap3\n      pop\n      pop\n      pop\n      jump\t// out\n        /* \"#utility.yul\":34308:34368   */\n    tag_682:\n        /* \"#utility.yul\":34336:34339   */\n      0x00\n        /* \"#utility.yul\":34357:34362   */\n      dup2\n        /* \"#utility.yul\":34350:34362   */\n      swap1\n      pop\n        /* \"#utility.yul\":34308:34368   */\n      swap2\n      swap1\n      pop\n      jump\t// out\n        /* \"#utility.yul\":34374:34516   */\n    tag_683:\n        /* \"#utility.yul\":34424:34433   */\n      0x00\n        /* \"#utility.yul\":34457:34510   */\n      tag_994\n        /* \"#utility.yul\":34475:34509   */\n      tag_995\n        /* \"#utility.yul\":34484:34508   */\n      tag_996\n        /* \"#utility.yul\":34502:34507   */\n      dup5\n        /* \"#utility.yul\":34484:34508   */\n      tag_595\n      jump\t// in\n    tag_996:\n        /* \"#utility.yul\":34475:34509   */\n      tag_682\n      jump\t// in\n    tag_995:\n        /* \"#utility.yul\":34457:34510   */\n      tag_595\n      jump\t// in\n    tag_994:\n        /* \"#utility.yul\":34444:34510   */\n      swap1\n      pop\n        /* \"#utility.yul\":34374:34516   */\n      swap2\n      swap1\n      pop\n      jump\t// out\n        /* \"#utility.yul\":34522:34597   */\n    tag_684:\n        /* \"#utility.yul\":34565:34568   */\n      0x00\n        /* \"#utility.yul\":34586:34591   */\n      dup2\n        /* \"#utility.yul\":34579:34591   */\n      swap1\n      pop\n        /* \"#utility.yul\":34522:34597   */\n      swap2\n      swap1\n      pop\n      jump\t// out\n        /* \"#utility.yul\":34603:34872   */\n    tag_685:\n        /* \"#utility.yul\":34713:34752   */\n      tag_999\n        /* \"#utility.yul\":34744:34751   */\n      dup4\n        /* \"#utility.yul\":34713:34752   */\n      tag_683\n      jump\t// in\n    tag_999:\n        /* \"#utility.yul\":34774:34865   */\n      tag_1000\n        /* \"#utility.yul\":34823:34864   */\n      tag_1001\n        /* \"#utility.yul\":34847:34863   */\n      dup3\n        /* \"#utility.yul\":34823:34864   */\n      tag_684\n      jump\t// in\n    tag_1001:\n        /* \"#utility.yul\":34815:34821   */\n      dup5\n        /* \"#utility.yul\":34808:34812   */\n      dup5\n        /* \"#utility.yul\":34802:34813   */\n      sload\n        /* \"#utility.yul\":34774:34865   */\n      tag_681\n      jump\t// in\n    tag_1000:\n        /* \"#utility.yul\":34768:34772   */\n      dup3\n        /* \"#utility.yul\":34761:34866   */\n      sstore\n        /* \"#utility.yul\":34679:34872   */\n      pop\n        /* \"#utility.yul\":34603:34872   */\n      pop\n      pop\n      pop\n      jump\t// out\n        /* \"#utility.yul\":34878:34951   */\n    tag_686:\n        /* \"#utility.yul\":34923:34926   */\n      0x00\n        /* \"#utility.yul\":34878:34951   */\n      swap1\n      jump\t// out\n        /* \"#utility.yul\":34957:35146   */\n    tag_687:\n        /* \"#utility.yul\":35034:35066   */\n      tag_1004\n      tag_686\n      jump\t// in\n    tag_1004:\n        /* \"#utility.yul\":35075:35140   */\n      tag_1005\n        /* \"#utility.yul\":35133:35139   */\n      dup2\n        /* \"#utility.yul\":35125:35131   */\n      dup5\n        /* \"#utility.yul\":35119:35123   */\n      dup5\n        /* \"#utility.yul\":35075:35140   */\n      tag_685\n      jump\t// in\n    tag_1005:\n        /* \"#utility.yul\":35010:35146   */\n      pop\n        /* \"#utility.yul\":34957:35146   */\n      pop\n      pop\n      jump\t// out\n        /* \"#utility.yul\":35152:35338   */\n    tag_688:\n        /* \"#utility.yul\":35212:35332   */\n    tag_1007:\n        /* \"#utility.yul\":35229:35232   */\n      dup2\n        /* \"#utility.yul\":35222:35227   */\n      dup2\n        /* \"#utility.yul\":35219:35233   */\n      lt\n        /* \"#utility.yul\":35212:35332   */\n      iszero\n      tag_1009\n      jumpi\n        /* \"#utility.yul\":35283:35322   */\n      tag_1010\n        /* \"#utility.yul\":35320:35321   */\n      0x00\n        /* \"#utility.yul\":35313:35318   */\n      dup3\n        /* \"#utility.yul\":35283:35322   */\n      tag_687\n      jump\t// in\n    tag_1010:\n        /* \"#utility.yul\":35256:35257   */\n      0x01\n        /* \"#utility.yul\":35249:35254   */\n      dup2\n        /* \"#utility.yul\":35245:35258   */\n      add\n        /* \"#utility.yul\":35236:35258   */\n      swap1\n      pop\n        /* \"#utility.yul\":35212:35332   */\n      jump(tag_1007)\n    tag_1009:\n        /* \"#utility.yul\":35152:35338   */\n      pop\n      pop\n      jump\t// out\n        /* \"#utility.yul\":35344:35887   */\n    tag_689:\n        /* \"#utility.yul\":35445:35447   */\n      0x1f\n        /* \"#utility.yul\":35440:35443   */\n      dup3\n        /* \"#utility.yul\":35437:35448   */\n      gt\n        /* \"#utility.yul\":35434:35880   */\n      iszero\n      tag_1012\n      jumpi\n        /* \"#utility.yul\":35479:35517   */\n      tag_1013\n        /* \"#utility.yul\":35511:35516   */\n      dup2\n        /* \"#utility.yul\":35479:35517   */\n      tag_678\n      jump\t// in\n    tag_1013:\n        /* \"#utility.yul\":35563:35592   */\n      tag_1014\n        /* \"#utility.yul\":35581:35591   */\n      dup5\n        /* \"#utility.yul\":35563:35592   */\n      tag_679\n      jump\t// in\n    tag_1014:\n        /* \"#utility.yul\":35553:35561   */\n      dup2\n        /* \"#utility.yul\":35549:35593   */\n      add\n        /* \"#utility.yul\":35746:35748   */\n      0x20\n        /* \"#utility.yul\":35734:35744   */\n      dup6\n        /* \"#utility.yul\":35731:35749   */\n      lt\n        /* \"#utility.yul\":35728:35777   */\n      iszero\n      tag_1015\n      jumpi\n        /* \"#utility.yul\":35767:35775   */\n      dup2\n        /* \"#utility.yul\":35752:35775   */\n      swap1\n      pop\n        /* \"#utility.yul\":35728:35777   */\n    tag_1015:\n        /* \"#utility.yul\":35790:35870   */\n      tag_1016\n        /* \"#utility.yul\":35846:35868   */\n      tag_1017\n        /* \"#utility.yul\":35864:35867   */\n      dup6\n        /* \"#utility.yul\":35846:35868   */\n      tag_679\n      jump\t// in\n    tag_1017:\n        /* \"#utility.yul\":35836:35844   */\n      dup4\n        /* \"#utility.yul\":35832:35869   */\n      add\n        /* \"#utility.yul\":35819:35830   */\n      dup3\n        /* \"#utility.yul\":35790:35870   */\n      tag_688\n      jump\t// in\n    tag_1016:\n        /* \"#utility.yul\":35449:35880   */\n      pop\n      pop\n        /* \"#utility.yul\":35434:35880   */\n    tag_1012:\n        /* \"#utility.yul\":35344:35887   */\n      pop\n      pop\n      pop\n      jump\t// out\n        /* \"#utility.yul\":35893:36010   */\n    tag_690:\n        /* \"#utility.yul\":35947:35955   */\n      0x00\n        /* \"#utility.yul\":35997:36002   */\n      dup3\n        /* \"#utility.yul\":35991:35995   */\n      dup3\n        /* \"#utility.yul\":35987:36003   */\n      shr\n        /* \"#utility.yul\":35966:36003   */\n      swap1\n      pop\n        /* \"#utility.yul\":35893:36010   */\n      swap3\n      swap2\n      pop\n      pop\n      jump\t// out\n        /* \"#utility.yul\":36016:36185   */\n    tag_691:\n        /* \"#utility.yul\":36060:36066   */\n      0x00\n        /* \"#utility.yul\":36093:36144   */\n      tag_1020\n        /* \"#utility.yul\":36141:36142   */\n      0x00\n        /* \"#utility.yul\":36137:36143   */\n      not\n        /* \"#utility.yul\":36129:36134   */\n      dup5\n        /* \"#utility.yul\":36126:36127   */\n      0x08\n        /* \"#utility.yul\":36122:36135   */\n      mul\n        /* \"#utility.yul\":36093:36144   */\n      tag_690\n      jump\t// in\n    tag_1020:\n        /* \"#utility.yul\":36089:36145   */\n      not\n        /* \"#utility.yul\":36174:36178   */\n      dup1\n        /* \"#utility.yul\":36168:36172   */\n      dup4\n        /* \"#utility.yul\":36164:36179   */\n      and\n        /* \"#utility.yul\":36154:36179   */\n      swap2\n      pop\n        /* \"#utility.yul\":36067:36185   */\n      pop\n        /* \"#utility.yul\":36016:36185   */\n      swap3\n      swap2\n      pop\n      pop\n      jump\t// out\n        /* \"#utility.yul\":36190:36485   */\n    tag_692:\n        /* \"#utility.yul\":36266:36270   */\n      0x00\n        /* \"#utility.yul\":36412:36441   */\n      tag_1022\n        /* \"#utility.yul\":36437:36440   */\n      dup4\n        /* \"#utility.yul\":36431:36435   */\n      dup4\n        /* \"#utility.yul\":36412:36441   */\n      tag_691\n      jump\t// in\n    tag_1022:\n        /* \"#utility.yul\":36404:36441   */\n      swap2\n      pop\n        /* \"#utility.yul\":36474:36477   */\n      dup3\n        /* \"#utility.yul\":36471:36472   */\n      0x02\n        /* \"#utility.yul\":36467:36478   */\n      mul\n        /* \"#utility.yul\":36461:36465   */\n      dup3\n        /* \"#utility.yul\":36458:36479   */\n      or\n        /* \"#utility.yul\":36450:36479   */\n      swap1\n      pop\n        /* \"#utility.yul\":36190:36485   */\n      swap3\n      swap2\n      pop\n      pop\n      jump\t// out\n        /* \"#utility.yul\":36490:37885   */\n    tag_440:\n        /* \"#utility.yul\":36607:36644   */\n      tag_1024\n        /* \"#utility.yul\":36640:36643   */\n      dup3\n        /* \"#utility.yul\":36607:36644   */\n      tag_605\n      jump\t// in\n    tag_1024:\n        /* \"#utility.yul\":36709:36727   */\n      0xffffffffffffffff\n        /* \"#utility.yul\":36701:36707   */\n      dup2\n        /* \"#utility.yul\":36698:36728   */\n      gt\n        /* \"#utility.yul\":36695:36751   */\n      iszero\n      tag_1025\n      jumpi\n        /* \"#utility.yul\":36731:36749   */\n      tag_1026\n      tag_629\n      jump\t// in\n    tag_1026:\n        /* \"#utility.yul\":36695:36751   */\n    tag_1025:\n        /* \"#utility.yul\":36775:36813   */\n      tag_1027\n        /* \"#utility.yul\":36807:36811   */\n      dup3\n        /* \"#utility.yul\":36801:36812   */\n      sload\n        /* \"#utility.yul\":36775:36813   */\n      tag_172\n      jump\t// in\n    tag_1027:\n        /* \"#utility.yul\":36860:36927   */\n      tag_1028\n        /* \"#utility.yul\":36920:36926   */\n      dup3\n        /* \"#utility.yul\":36912:36918   */\n      dup3\n        /* \"#utility.yul\":36906:36910   */\n      dup6\n        /* \"#utility.yul\":36860:36927   */\n      tag_689\n      jump\t// in\n    tag_1028:\n        /* \"#utility.yul\":36954:36955   */\n      0x00\n        /* \"#utility.yul\":36978:36982   */\n      0x20\n        /* \"#utility.yul\":36965:36982   */\n      swap1\n      pop\n        /* \"#utility.yul\":37010:37012   */\n      0x1f\n        /* \"#utility.yul\":37002:37008   */\n      dup4\n        /* \"#utility.yul\":36999:37013   */\n      gt\n        /* \"#utility.yul\":37027:37028   */\n      0x01\n        /* \"#utility.yul\":37022:37640   */\n      dup2\n      eq\n      tag_1030\n      jumpi\n        /* \"#utility.yul\":37684:37685   */\n      0x00\n        /* \"#utility.yul\":37701:37707   */\n      dup5\n        /* \"#utility.yul\":37698:37775   */\n      iszero\n      tag_1031\n      jumpi\n        /* \"#utility.yul\":37750:37759   */\n      dup3\n        /* \"#utility.yul\":37745:37748   */\n      dup8\n        /* \"#utility.yul\":37741:37760   */\n      add\n        /* \"#utility.yul\":37735:37761   */\n      mload\n        /* \"#utility.yul\":37726:37761   */\n      swap1\n      pop\n        /* \"#utility.yul\":37698:37775   */\n    tag_1031:\n        /* \"#utility.yul\":37801:37868   */\n      tag_1032\n        /* \"#utility.yul\":37861:37867   */\n      dup6\n        /* \"#utility.yul\":37854:37859   */\n      dup3\n        /* \"#utility.yul\":37801:37868   */\n      tag_692\n      jump\t// in\n    tag_1032:\n        /* \"#utility.yul\":37795:37799   */\n      dup7\n        /* \"#utility.yul\":37788:37869   */\n      sstore\n        /* \"#utility.yul\":37657:37879   */\n      pop\n        /* \"#utility.yul\":36992:37879   */\n      jump(tag_1029)\n        /* \"#utility.yul\":37022:37640   */\n    tag_1030:\n        /* \"#utility.yul\":37074:37078   */\n      0x1f\n        /* \"#utility.yul\":37070:37079   */\n      not\n        /* \"#utility.yul\":37062:37068   */\n      dup5\n        /* \"#utility.yul\":37058:37080   */\n      and\n        /* \"#utility.yul\":37108:37145   */\n      tag_1033\n        /* \"#utility.yul\":37140:37144   */\n      dup7\n        /* \"#utility.yul\":37108:37145   */\n      tag_678\n      jump\t// in\n    tag_1033:\n        /* \"#utility.yul\":37167:37168   */\n      0x00\n        /* \"#utility.yul\":37181:37389   */\n    tag_1034:\n        /* \"#utility.yul\":37195:37202   */\n      dup3\n        /* \"#utility.yul\":37192:37193   */\n      dup2\n        /* \"#utility.yul\":37189:37203   */\n      lt\n        /* \"#utility.yul\":37181:37389   */\n      iszero\n      tag_1036\n      jumpi\n        /* \"#utility.yul\":37274:37283   */\n      dup5\n        /* \"#utility.yul\":37269:37272   */\n      dup10\n        /* \"#utility.yul\":37265:37284   */\n      add\n        /* \"#utility.yul\":37259:37285   */\n      mload\n        /* \"#utility.yul\":37251:37257   */\n      dup3\n        /* \"#utility.yul\":37244:37286   */\n      sstore\n        /* \"#utility.yul\":37325:37326   */\n      0x01\n        /* \"#utility.yul\":37317:37323   */\n      dup3\n        /* \"#utility.yul\":37313:37327   */\n      add\n        /* \"#utility.yul\":37303:37327   */\n      swap2\n      pop\n        /* \"#utility.yul\":37372:37374   */\n      0x20\n        /* \"#utility.yul\":37361:37370   */\n      dup6\n        /* \"#utility.yul\":37357:37375   */\n      add\n        /* \"#utility.yul\":37344:37375   */\n      swap5\n      pop\n        /* \"#utility.yul\":37218:37222   */\n      0x20\n        /* \"#utility.yul\":37215:37216   */\n      dup2\n        /* \"#utility.yul\":37211:37223   */\n      add\n        /* \"#utility.yul\":37206:37223   */\n      swap1\n      pop\n        /* \"#utility.yul\":37181:37389   */\n      jump(tag_1034)\n    tag_1036:\n        /* \"#utility.yul\":37417:37423   */\n      dup7\n        /* \"#utility.yul\":37408:37415   */\n      dup4\n        /* \"#utility.yul\":37405:37424   */\n      lt\n        /* \"#utility.yul\":37402:37581   */\n      iszero\n      tag_1037\n      jumpi\n        /* \"#utility.yul\":37475:37484   */\n      dup5\n        /* \"#utility.yul\":37470:37473   */\n      dup10\n        /* \"#utility.yul\":37466:37485   */\n      add\n        /* \"#utility.yul\":37460:37486   */\n      mload\n        /* \"#utility.yul\":37518:37566   */\n      tag_1038\n        /* \"#utility.yul\":37560:37564   */\n      0x1f\n        /* \"#utility.yul\":37552:37558   */\n      dup10\n        /* \"#utility.yul\":37548:37565   */\n      and\n        /* \"#utility.yul\":37537:37546   */\n      dup3\n        /* \"#utility.yul\":37518:37566   */\n      tag_691\n      jump\t// in\n    tag_1038:\n        /* \"#utility.yul\":37510:37516   */\n      dup4\n        /* \"#utility.yul\":37503:37567   */\n      sstore\n        /* \"#utility.yul\":37425:37581   */\n      pop\n        /* \"#utility.yul\":37402:37581   */\n    tag_1037:\n        /* \"#utility.yul\":37627:37628   */\n      0x01\n        /* \"#utility.yul\":37623:37624   */\n      0x02\n        /* \"#utility.yul\":37615:37621   */\n      dup9\n        /* \"#utility.yul\":37611:37625   */\n      mul\n        /* \"#utility.yul\":37607:37629   */\n      add\n        /* \"#utility.yul\":37601:37605   */\n      dup9\n        /* \"#utility.yul\":37594:37630   */\n      sstore\n        /* \"#utility.yul\":37029:37640   */\n      pop\n      pop\n      pop\n        /* \"#utility.yul\":36992:37879   */\n    tag_1029:\n      pop\n        /* \"#utility.yul\":36582:37885   */\n      pop\n      pop\n      pop\n        /* \"#utility.yul\":36490:37885   */\n      pop\n      pop\n      jump\t// out\n        /* \"#utility.yul\":37891:38065   */\n    tag_693:\n        /* \"#utility.yul\":38031:38057   */\n      0x546869732069732067696674206e6f7420666f7220796f750000000000000000\n        /* \"#utility.yul\":38027:38028   */\n      0x00\n        /* \"#utility.yul\":38019:38025   */\n      dup3\n        /* \"#utility.yul\":38015:38029   */\n      add\n        /* \"#utility.yul\":38008:38058   */\n      mstore\n        /* \"#utility.yul\":37891:38065   */\n      pop\n      jump\t// out\n        /* \"#utility.yul\":38071:38437   */\n    tag_694:\n        /* \"#utility.yul\":38213:38216   */\n      0x00\n        /* \"#utility.yul\":38234:38301   */\n      tag_1041\n        /* \"#utility.yul\":38298:38300   */\n      0x18\n        /* \"#utility.yul\":38293:38296   */\n      dup4\n        /* \"#utility.yul\":38234:38301   */\n      tag_606\n      jump\t// in\n    tag_1041:\n        /* \"#utility.yul\":38227:38301   */\n      swap2\n      pop\n        /* \"#utility.yul\":38310:38403   */\n      tag_1042\n        /* \"#utility.yul\":38399:38402   */\n      dup3\n        /* \"#utility.yul\":38310:38403   */\n      tag_693\n      jump\t// in\n    tag_1042:\n        /* \"#utility.yul\":38428:38430   */\n      0x20\n        /* \"#utility.yul\":38423:38426   */\n      dup3\n        /* \"#utility.yul\":38419:38431   */\n      add\n        /* \"#utility.yul\":38412:38431   */\n      swap1\n      pop\n        /* \"#utility.yul\":38071:38437   */\n      swap2\n      swap1\n      pop\n      jump\t// out\n        /* \"#utility.yul\":38443:38862   */\n    tag_467:\n        /* \"#utility.yul\":38609:38613   */\n      0x00\n        /* \"#utility.yul\":38647:38649   */\n      0x20\n        /* \"#utility.yul\":38636:38645   */\n      dup3\n        /* \"#utility.yul\":38632:38650   */\n      add\n        /* \"#utility.yul\":38624:38650   */\n      swap1\n      pop\n        /* \"#utility.yul\":38696:38705   */\n      dup2\n        /* \"#utility.yul\":38690:38694   */\n      dup2\n        /* \"#utility.yul\":38686:38706   */\n      sub\n        /* \"#utility.yul\":38682:38683   */\n      0x00\n        /* \"#utility.yul\":38671:38680   */\n      dup4\n        /* \"#utility.yul\":38667:38684   */\n      add\n        /* \"#utility.yul\":38660:38707   */\n      mstore\n        /* \"#utility.yul\":38724:38855   */\n      tag_1044\n        /* \"#utility.yul\":38850:38854   */\n      dup2\n        /* \"#utility.yul\":38724:38855   */\n      tag_694\n      jump\t// in\n    tag_1044:\n        /* \"#utility.yul\":38716:38855   */\n      swap1\n      pop\n        /* \"#utility.yul\":38443:38862   */\n      swap2\n      swap1\n      pop\n      jump\t// out\n        /* \"#utility.yul\":38868:39032   */\n    tag_695:\n        /* \"#utility.yul\":39008:39024   */\n      0x6573746174652061726573746564000000000000000000000000000000000000\n        /* \"#utility.yul\":39004:39005   */\n      0x00\n        /* \"#utility.yul\":38996:39002   */\n      dup3\n        /* \"#utility.yul\":38992:39006   */\n      add\n        /* \"#utility.yul\":38985:39025   */\n      mstore\n        /* \"#utility.yul\":38868:39032   */\n      pop\n      jump\t// out\n        /* \"#utility.yul\":39038:39404   */\n    tag_696:\n        /* \"#utility.yul\":39180:39183   */\n      0x00\n        /* \"#utility.yul\":39201:39268   */\n      tag_1047\n        /* \"#utility.yul\":39265:39267   */\n      0x0e\n        /* \"#utility.yul\":39260:39263   */\n      dup4\n        /* \"#utility.yul\":39201:39268   */\n      tag_606\n      jump\t// in\n    tag_1047:\n        /* \"#utility.yul\":39194:39268   */\n      swap2\n      pop\n        /* \"#utility.yul\":39277:39370   */\n      tag_1048\n        /* \"#utility.yul\":39366:39369   */\n      dup3\n        /* \"#utility.yul\":39277:39370   */\n      tag_695\n      jump\t// in\n    tag_1048:\n        /* \"#utility.yul\":39395:39397   */\n      0x20\n        /* \"#utility.yul\":39390:39393   */\n      dup3\n        /* \"#utility.yul\":39386:39398   */\n      add\n        /* \"#utility.yul\":39379:39398   */\n      swap1\n      pop\n        /* \"#utility.yul\":39038:39404   */\n      swap2\n      swap1\n      pop\n      jump\t// out\n        /* \"#utility.yul\":39410:39829   */\n    tag_537:\n        /* \"#utility.yul\":39576:39580   */\n      0x00\n        /* \"#utility.yul\":39614:39616   */\n      0x20\n        /* \"#utility.yul\":39603:39612   */\n      dup3\n        /* \"#utility.yul\":39599:39617   */\n      add\n        /* \"#utility.yul\":39591:39617   */\n      swap1\n      pop\n        /* \"#utility.yul\":39663:39672   */\n      dup2\n        /* \"#utility.yul\":39657:39661   */\n      dup2\n        /* \"#utility.yul\":39653:39673   */\n      sub\n        /* \"#utility.yul\":39649:39650   */\n      0x00\n        /* \"#utility.yul\":39638:39647   */\n      dup4\n        /* \"#utility.yul\":39634:39651   */\n      add\n        /* \"#utility.yul\":39627:39674   */\n      mstore\n        /* \"#utility.yul\":39691:39822   */\n      tag_1050\n        /* \"#utility.yul\":39817:39821   */\n      dup2\n        /* \"#utility.yul\":39691:39822   */\n      tag_696\n      jump\t// in\n    tag_1050:\n        /* \"#utility.yul\":39683:39822   */\n      swap1\n      pop\n        /* \"#utility.yul\":39410:39829   */\n      swap2\n      swap1\n      pop\n      jump\t// out\n        /* \"#utility.yul\":39835:39994   */\n    tag_697:\n        /* \"#utility.yul\":39975:39986   */\n      0x73656c662073616c650000000000000000000000000000000000000000000000\n        /* \"#utility.yul\":39971:39972   */\n      0x00\n        /* \"#utility.yul\":39963:39969   */\n      dup3\n        /* \"#utility.yul\":39959:39973   */\n      add\n        /* \"#utility.yul\":39952:39987   */\n      mstore\n        /* \"#utility.yul\":39835:39994   */\n      pop\n      jump\t// out\n        /* \"#utility.yul\":40000:40365   */\n    tag_698:\n        /* \"#utility.yul\":40142:40145   */\n      0x00\n        /* \"#utility.yul\":40163:40229   */\n      tag_1053\n        /* \"#utility.yul\":40227:40228   */\n      0x09\n        /* \"#utility.yul\":40222:40225   */\n      dup4\n        /* \"#utility.yul\":40163:40229   */\n      tag_606\n      jump\t// in\n    tag_1053:\n        /* \"#utility.yul\":40156:40229   */\n      swap2\n      pop\n        /* \"#utility.yul\":40238:40331   */\n      tag_1054\n        /* \"#utility.yul\":40327:40330   */\n      dup3\n        /* \"#utility.yul\":40238:40331   */\n      tag_697\n      jump\t// in\n    tag_1054:\n        /* \"#utility.yul\":40356:40358   */\n      0x20\n        /* \"#utility.yul\":40351:40354   */\n      dup3\n        /* \"#utility.yul\":40347:40359   */\n      add\n        /* \"#utility.yul\":40340:40359   */\n      swap1\n      pop\n        /* \"#utility.yul\":40000:40365   */\n      swap2\n      swap1\n      pop\n      jump\t// out\n        /* \"#utility.yul\":40371:40790   */\n    tag_545:\n        /* \"#utility.yul\":40537:40541   */\n      0x00\n        /* \"#utility.yul\":40575:40577   */\n      0x20\n        /* \"#utility.yul\":40564:40573   */\n      dup3\n        /* \"#utility.yul\":40560:40578   */\n      add\n        /* \"#utility.yul\":40552:40578   */\n      swap1\n      pop\n        /* \"#utility.yul\":40624:40633   */\n      dup2\n        /* \"#utility.yul\":40618:40622   */\n      dup2\n        /* \"#utility.yul\":40614:40634   */\n      sub\n        /* \"#utility.yul\":40610:40611   */\n      0x00\n        /* \"#utility.yul\":40599:40608   */\n      dup4\n        /* \"#utility.yul\":40595:40612   */\n      add\n        /* \"#utility.yul\":40588:40635   */\n      mstore\n        /* \"#utility.yul\":40652:40783   */\n      tag_1056\n        /* \"#utility.yul\":40778:40782   */\n      dup2\n        /* \"#utility.yul\":40652:40783   */\n      tag_698\n      jump\t// in\n    tag_1056:\n        /* \"#utility.yul\":40644:40783   */\n      swap1\n      pop\n        /* \"#utility.yul\":40371:40790   */\n      swap2\n      swap1\n      pop\n      jump\t// out\n        /* \"#utility.yul\":40796:40961   */\n    tag_699:\n        /* \"#utility.yul\":40936:40953   */\n      0x77726f6e67206574682076616c75650000000000000000000000000000000000\n        /* \"#utility.yul\":40932:40933   */\n      0x00\n        /* \"#utility.yul\":40924:40930   */\n      dup3\n        /* \"#utility.yul\":40920:40934   */\n      add\n        /* \"#utility.yul\":40913:40954   */\n      mstore\n        /* \"#utility.yul\":40796:40961   */\n      pop\n      jump\t// out\n        /* \"#utility.yul\":40967:41333   */\n    tag_700:\n        /* \"#utility.yul\":41109:41112   */\n      0x00\n        /* \"#utility.yul\":41130:41197   */\n      tag_1059\n        /* \"#utility.yul\":41194:41196   */\n      0x0f\n        /* \"#utility.yul\":41189:41192   */\n      dup4\n        /* \"#utility.yul\":41130:41197   */\n      tag_606\n      jump\t// in\n    tag_1059:\n        /* \"#utility.yul\":41123:41197   */\n      swap2\n      pop\n        /* \"#utility.yul\":41206:41299   */\n      tag_1060\n        /* \"#utility.yul\":41295:41298   */\n      dup3\n        /* \"#utility.yul\":41206:41299   */\n      tag_699\n      jump\t// in\n    tag_1060:\n        /* \"#utility.yul\":41324:41326   */\n      0x20\n        /* \"#utility.yul\":41319:41322   */\n      dup3\n        /* \"#utility.yul\":41315:41327   */\n      add\n        /* \"#utility.yul\":41308:41327   */\n      swap1\n      pop\n        /* \"#utility.yul\":40967:41333   */\n      swap2\n      swap1\n      pop\n      jump\t// out\n        /* \"#utility.yul\":41339:41758   */\n    tag_556:\n        /* \"#utility.yul\":41505:41509   */\n      0x00\n        /* \"#utility.yul\":41543:41545   */\n      0x20\n        /* \"#utility.yul\":41532:41541   */\n      dup3\n        /* \"#utility.yul\":41528:41546   */\n      add\n        /* \"#utility.yul\":41520:41546   */\n      swap1\n      pop\n        /* \"#utility.yul\":41592:41601   */\n      dup2\n        /* \"#utility.yul\":41586:41590   */\n      dup2\n        /* \"#utility.yul\":41582:41602   */\n      sub\n        /* \"#utility.yul\":41578:41579   */\n      0x00\n        /* \"#utility.yul\":41567:41576   */\n      dup4\n        /* \"#utility.yul\":41563:41580   */\n      add\n        /* \"#utility.yul\":41556:41603   */\n      mstore\n        /* \"#utility.yul\":41620:41751   */\n      tag_1062\n        /* \"#utility.yul\":41746:41750   */\n      dup2\n        /* \"#utility.yul\":41620:41751   */\n      tag_700\n      jump\t// in\n    tag_1062:\n        /* \"#utility.yul\":41612:41751   */\n      swap1\n      pop\n        /* \"#utility.yul\":41339:41758   */\n      swap2\n      swap1\n      pop\n      jump\t// out\n        /* \"#utility.yul\":41764:41935   */\n    tag_701:\n        /* \"#utility.yul\":41904:41927   */\n      0x796f7520616c726561647920696e207072696365730000000000000000000000\n        /* \"#utility.yul\":41900:41901   */\n      0x00\n        /* \"#utility.yul\":41892:41898   */\n      dup3\n        /* \"#utility.yul\":41888:41902   */\n      add\n        /* \"#utility.yul\":41881:41928   */\n      mstore\n        /* \"#utility.yul\":41764:41935   */\n      pop\n      jump\t// out\n        /* \"#utility.yul\":41941:42307   */\n    tag_702:\n        /* \"#utility.yul\":42083:42086   */\n      0x00\n        /* \"#utility.yul\":42104:42171   */\n      tag_1065\n        /* \"#utility.yul\":42168:42170   */\n      0x15\n        /* \"#utility.yul\":42163:42166   */\n      dup4\n        /* \"#utility.yul\":42104:42171   */\n      tag_606\n      jump\t// in\n    tag_1065:\n        /* \"#utility.yul\":42097:42171   */\n      swap2\n      pop\n        /* \"#utility.yul\":42180:42273   */\n      tag_1066\n        /* \"#utility.yul\":42269:42272   */\n      dup3\n        /* \"#utility.yul\":42180:42273   */\n      tag_701\n      jump\t// in\n    tag_1066:\n        /* \"#utility.yul\":42298:42300   */\n      0x20\n        /* \"#utility.yul\":42293:42296   */\n      dup3\n        /* \"#utility.yul\":42289:42301   */\n      add\n        /* \"#utility.yul\":42282:42301   */\n      swap1\n      pop\n        /* \"#utility.yul\":41941:42307   */\n      swap2\n      swap1\n      pop\n      jump\t// out\n        /* \"#utility.yul\":42313:42732   */\n    tag_572:\n        /* \"#utility.yul\":42479:42483   */\n      0x00\n        /* \"#utility.yul\":42517:42519   */\n      0x20\n        /* \"#utility.yul\":42506:42515   */\n      dup3\n        /* \"#utility.yul\":42502:42520   */\n      add\n        /* \"#utility.yul\":42494:42520   */\n      swap1\n      pop\n        /* \"#utility.yul\":42566:42575   */\n      dup2\n        /* \"#utility.yul\":42560:42564   */\n      dup2\n        /* \"#utility.yul\":42556:42576   */\n      sub\n        /* \"#utility.yul\":42552:42553   */\n      0x00\n        /* \"#utility.yul\":42541:42550   */\n      dup4\n        /* \"#utility.yul\":42537:42554   */\n      add\n        /* \"#utility.yul\":42530:42577   */\n      mstore\n        /* \"#utility.yul\":42594:42725   */\n      tag_1068\n        /* \"#utility.yul\":42720:42724   */\n      dup2\n        /* \"#utility.yul\":42594:42725   */\n      tag_702\n      jump\t// in\n    tag_1068:\n        /* \"#utility.yul\":42586:42725   */\n      swap1\n      pop\n        /* \"#utility.yul\":42313:42732   */\n      swap2\n      swap1\n      pop\n      jump\t// out\n\n    auxdata: 0xa2646970667358221220ce8b3f26eec023a2406841ee8e54d5a8ff678229f99b1d76ec800b82d86df7b564736f6c634300081a0033\n}\n",
				"bytecode": {
					"linkReferences": {},
					"object": "6080604052603c600455348015610014575f80fd5b506040516143f63803806143f6833981810160405281019061003691906100da565b8060035f6101000a81548173ffffffffffffffffffffffffffffffffffffffff021916908373ffffffffffffffffffffffffffffffffffffffff16021790555050610105565b5f80fd5b5f73ffffffffffffffffffffffffffffffffffffffff82169050919050565b5f6100a982610080565b9050919050565b6100b98161009f565b81146100c3575f80fd5b50565b5f815190506100d4816100b0565b92915050565b5f602082840312156100ef576100ee61007c565b5b5f6100fc848285016100c6565b91505092915050565b6142e4806101125f395ff3fe608060405260043610610108575f3560e01c80638ee69ae811610094578063d0ab383a11610063578063d0ab383a1461034b578063d606593514610373578063db4c049d146103b4578063e9f0ee56146103dc578063f851a440146103f857610108565b80638ee69ae81461028057806391492956146102a85780639a22ed8f146102e4578063b5f522f71461030c57610108565b806357279353116100db57806357279353146101bc57806358c97164146101d85780636019061b146102005780637feafd20146102285780638e821ca21461026457610108565b806306238e6e1461010c5780630a483421146101345780632a50fe2c1461015e5780634c96a0621461017a575b5f80fd5b348015610117575f80fd5b50610132600480360381019061012d9190612f23565b610422565b005b34801561013f575f80fd5b50610148610564565b6040516101559190612f70565b60405180910390f35b61017860048036038101906101739190612f89565b61056a565b005b348015610185575f80fd5b506101a0600480360381019061019b9190612f89565b61087d565b6040516101b39796959493929190613072565b60405180910390f35b6101d660048036038101906101d191906130e6565b610994565b005b3480156101e3575f80fd5b506101fe60048036038101906101f9919061314e565b610f79565b005b34801561020b575f80fd5b50610226600480360381019061022191906130e6565b611468565b005b348015610233575f80fd5b5061024e60048036038101906102499190612f89565b61186d565b60405161025b9190613243565b60405180910390f35b61027e60048036038101906102799190612f89565b61191b565b005b34801561028b575f80fd5b506102a660048036038101906102a19190612f89565b611ca2565b005b3480156102b3575f80fd5b506102ce60048036038101906102c99190612f89565b611f22565b6040516102db919061331a565b60405180910390f35b3480156102ef575f80fd5b5061030a60048036038101906103059190613466565b611f9b565b005b348015610317575f80fd5b50610332600480360381019061032d9190612f89565b612228565b60405161034294939291906134d2565b60405180910390f35b348015610356575f80fd5b50610371600480360381019061036c9190612f89565b6122a1565b005b34801561037e575f80fd5b5061039960048036038101906103949190612f89565b6125f6565b6040516103ab96959493929190613588565b60405180910390f35b3480156103bf575f80fd5b506103da60048036038101906103d59190612f89565b612687565b005b6103f660048036038101906103f19190612f89565b612906565b005b348015610403575f80fd5b5061040c612d98565b60405161041991906135e7565b60405180910390f35b60035f9054906101000a900473ffffffffffffffffffffffffffffffffffffffff1673ffffffffffffffffffffffffffffffffffffffff163373ffffffffffffffffffffffffffffffffffffffff16146104b1576040517f08c379a00000000000000000000000000000000000000000000000000000000081526004016104a89061364a565b60405180910390fd5b5f82815481106104c4576104c3613668565b5b905f5260205f20906005020160040160029054906101000a900460ff16151581151503610526576040517f08c379a000000000000000000000000000000000000000000000000000000000815260040161051d906136df565b60405180910390fd5b805f838154811061053a57610539613668565b5b905f5260205f20906005020160040160026101000a81548160ff0219169083151502179055505050565b60045481565b60028054905081106105b1576040517f08c379a00000000000000000000000000000000000000000000000000000000081526004016105a890613747565b60405180910390fd5b5f73ffffffffffffffffffffffffffffffffffffffff16600282815481106105dc576105db613668565b5b905f5260205f2090600602016002015f9054906101000a900473ffffffffffffffffffffffffffffffffffffffff1673ffffffffffffffffffffffffffffffffffffffff1614610661576040517f08c379a0000000000000000000000000000000000000000000000000000000008152600401610658906137af565b60405180910390fd5b5f5b6002828154811061067757610676613668565b5b905f5260205f20906006020160040180549050811015610879573373ffffffffffffffffffffffffffffffffffffffff16600283815481106106bc576106bb613668565b5b905f5260205f20906006020160040182815481106106dd576106dc613668565b5b905f5260205f20015f9054906101000a900473ffffffffffffffffffffffffffffffffffffffff1673ffffffffffffffffffffffffffffffffffffffff160361086c575f6002838154811061073557610734613668565b5b905f5260205f209060060201600501828154811061075657610755613668565b5b905f5260205f20015490505f81036107a3576040517f08c379a000000000000000000000000000000000000000000000000000000000815260040161079a90613817565b60405180910390fd5b3373ffffffffffffffffffffffffffffffffffffffff166108fc600285815481106107d1576107d0613668565b5b905f5260205f20906006020160050184815481106107f2576107f1613668565b5b905f5260205f20015490811502906040515f60405180830381858888f19350505050158015610823573d5f803e3d5ffd5b505f6002848154811061083957610838613668565b5b905f5260205f209060060201600501838154811061085a57610859613668565b5b905f5260205f20018190555050610879565b8080600101915050610663565b5050565b5f818154811061088b575f80fd5b905f5260205f2090600502015f91509050805f015490806001015f9054906101000a900473ffffffffffffffffffffffffffffffffffffffff16908060020180546108d590613862565b80601f016020809104026020016040519081016040528092919081815260200182805461090190613862565b801561094c5780601f106109235761010080835404028352916020019161094c565b820191905f5260205f20905b81548152906001019060200180831161092f57829003601f168201915b505050505090806003015490806004015f9054906101000a900460ff16908060040160019054906101000a900460ff16908060040160029054906101000a900460ff16905087565b5f600283815481106109a9576109a8613668565b5b905f5260205f2090600602015f015490506002805490508310610a01576040517f08c379a00000000000000000000000000000000000000000000000000000000081526004016109f890613747565b60405180910390fd5b5f73ffffffffffffffffffffffffffffffffffffffff1660028481548110610a2c57610a2b613668565b5b905f5260205f2090600602016002015f9054906101000a900473ffffffffffffffffffffffffffffffffffffffff1673ffffffffffffffffffffffffffffffffffffffff1614610ab1576040517f08c379a0000000000000000000000000000000000000000000000000000000008152600401610aa8906137af565b60405180910390fd5b3373ffffffffffffffffffffffffffffffffffffffff1660028481548110610adc57610adb613668565b5b905f5260205f2090600602016001015f9054906101000a900473ffffffffffffffffffffffffffffffffffffffff1673ffffffffffffffffffffffffffffffffffffffff1614610b61576040517f08c379a0000000000000000000000000000000000000000000000000000000008152600401610b58906138dc565b60405180910390fd5b5f15155f8281548110610b7757610b76613668565b5b905f5260205f20906005020160040160029054906101000a900460ff16151514610bd6576040517f08c379a0000000000000000000000000000000000000000000000000000000008152600401610bcd90613944565b60405180910390fd5b5f5b60028481548110610bec57610beb613668565b5b905f5260205f20906006020160040180549050811015610f3957828114610cef5760028481548110610c2157610c20613668565b5b905f5260205f2090600602016004018181548110610c4257610c41613668565b5b905f5260205f20015f9054906101000a900473ffffffffffffffffffffffffffffffffffffffff1673ffffffffffffffffffffffffffffffffffffffff166108fc60028681548110610c9757610c96613668565b5b905f5260205f2090600602016005018381548110610cb857610cb7613668565b5b905f5260205f20015490811502906040515f60405180830381858888f19350505050158015610ce9573d5f803e3d5ffd5b50610f2c565b60028481548110610d0357610d02613668565b5b905f5260205f2090600602016001015f9054906101000a900473ffffffffffffffffffffffffffffffffffffffff1673ffffffffffffffffffffffffffffffffffffffff166108fc60028681548110610d5f57610d5e613668565b5b905f5260205f2090600602016005018581548110610d8057610d7f613668565b5b905f5260205f20015490811502906040515f60405180830381858888f19350505050158015610db1573d5f803e3d5ffd5b5060028481548110610dc657610dc5613668565b5b905f5260205f2090600602016004018381548110610de757610de6613668565b5b905f5260205f20015f9054906101000a900473ffffffffffffffffffffffffffffffffffffffff1660028581548110610e2357610e22613668565b5b905f5260205f2090600602016002015f6101000a81548173ffffffffffffffffffffffffffffffffffffffff021916908373ffffffffffffffffffffffffffffffffffffffff16021790555060028481548110610e8357610e82613668565b5b905f5260205f2090600602016004018381548110610ea457610ea3613668565b5b905f5260205f20015f9054906101000a900473ffffffffffffffffffffffffffffffffffffffff165f8381548110610edf57610ede613668565b5b905f5260205f2090600502016001015f6101000a81548173ffffffffffffffffffffffffffffffffffffffff021916908373ffffffffffffffffffffffffffffffffffffffff1602179055505b8080600101915050610bd8565b505f808281548110610f4e57610f4d613668565b5b905f5260205f20906005020160040160016101000a81548160ff021916908315150217905550505050565b813373ffffffffffffffffffffffffffffffffffffffff165f8281548110610fa457610fa3613668565b5b905f5260205f2090600502016001015f9054906101000a900473ffffffffffffffffffffffffffffffffffffffff1673ffffffffffffffffffffffffffffffffffffffff1614611029576040517f08c379a0000000000000000000000000000000000000000000000000000000008152600401611020906139ac565b60405180910390fd5b825f15155f82815481106110405761103f613668565b5b905f5260205f2090600502016004015f9054906101000a900460ff1615151461109e576040517f08c379a000000000000000000000000000000000000000000000000000000000815260040161109590613a14565b60405180910390fd5b5f15155f82815481106110b4576110b3613668565b5b905f5260205f20906005020160040160019054906101000a900460ff16151514611113576040517f08c379a000000000000000000000000000000000000000000000000000000000815260040161110a90613a7c565b60405180910390fd5b5f15155f828154811061112957611128613668565b5b905f5260205f20906005020160040160029054906101000a900460ff16151514611188576040517f08c379a000000000000000000000000000000000000000000000000000000000815260040161117f90613ae4565b60405180910390fd5b5f73ffffffffffffffffffffffffffffffffffffffff168373ffffffffffffffffffffffffffffffffffffffff16036111f6576040517f08c379a00000000000000000000000000000000000000000000000000000000081526004016111ed90613b4c565b60405180910390fd5b5f80549050841061123c576040517f08c379a000000000000000000000000000000000000000000000000000000000815260040161123390613bb4565b60405180910390fd5b3373ffffffffffffffffffffffffffffffffffffffff168373ffffffffffffffffffffffffffffffffffffffff16036112aa576040517f08c379a00000000000000000000000000000000000000000000000000000000081526004016112a190613c1c565b60405180910390fd5b60016040518060c0016040528060018054905081526020018681526020013373ffffffffffffffffffffffffffffffffffffffff1681526020018573ffffffffffffffffffffffffffffffffffffffff1681526020014260045461130e9190613c67565b81526020015f600481111561132657611325613515565b5b815250908060018154018082558091505060019003905f5260205f2090600602015f909190919091505f820151815f0155602082015181600101556040820151816002015f6101000a81548173ffffffffffffffffffffffffffffffffffffffff021916908373ffffffffffffffffffffffffffffffffffffffff1602179055506060820151816003015f6101000a81548173ffffffffffffffffffffffffffffffffffffffff021916908373ffffffffffffffffffffffffffffffffffffffff1602179055506080820151816004015560a0820151816005015f6101000a81548160ff0219169083600481111561142157611420613515565b5b0217905550505060015f858154811061143d5761143c613668565b5b905f5260205f2090600502016004015f6101000a81548160ff02191690831515021790555050505050565b813373ffffffffffffffffffffffffffffffffffffffff165f828154811061149357611492613668565b5b905f5260205f2090600502016001015f9054906101000a900473ffffffffffffffffffffffffffffffffffffffff1673ffffffffffffffffffffffffffffffffffffffff1614611518576040517f08c379a000000000000000000000000000000000000000000000000000000000815260040161150f906139ac565b60405180910390fd5b825f15155f828154811061152f5761152e613668565b5b905f5260205f2090600502016004015f9054906101000a900460ff1615151461158d576040517f08c379a000000000000000000000000000000000000000000000000000000000815260040161158490613a14565b60405180910390fd5b5f15155f82815481106115a3576115a2613668565b5b905f5260205f20906005020160040160019054906101000a900460ff16151514611602576040517f08c379a00000000000000000000000000000000000000000000000000000000081526004016115f990613a7c565b60405180910390fd5b5f15155f828154811061161857611617613668565b5b905f5260205f20906005020160040160029054906101000a900460ff16151514611677576040517f08c379a000000000000000000000000000000000000000000000000000000000815260040161166e90613ae4565b60405180910390fd5b5f8054905084106116bd576040517f08c379a00000000000000000000000000000000000000000000000000000000081526004016116b490613bb4565b60405180910390fd5b633b9aca0083116116cc575f80fd5b60608060026040518060c001604052808881526020013373ffffffffffffffffffffffffffffffffffffffff1681526020015f73ffffffffffffffffffffffffffffffffffffffff16815260200187815260200184815260200183815250908060018154018082558091505060019003905f5260205f2090600602015f909190919091505f820151815f01556020820151816001015f6101000a81548173ffffffffffffffffffffffffffffffffffffffff021916908373ffffffffffffffffffffffffffffffffffffffff1602179055506040820151816002015f6101000a81548173ffffffffffffffffffffffffffffffffffffffff021916908373ffffffffffffffffffffffffffffffffffffffff16021790555060608201518160030155608082015181600401908051906020019061180a929190612dbd565b5060a0820151816005019080519060200190611827929190612e44565b50505060015f878154811061183f5761183e613668565b5b905f5260205f20906005020160040160016101000a81548160ff021916908315150217905550505050505050565b60606002828154811061188357611882613668565b5b905f5260205f20906006020160040180548060200260200160405190810160405280929190818152602001828054801561190f57602002820191905f5260205f20905b815f9054906101000a900473ffffffffffffffffffffffffffffffffffffffff1673ffffffffffffffffffffffffffffffffffffffff16815260200190600101908083116118c6575b50505050509050919050565b5f600282815481106119305761192f613668565b5b905f5260205f2090600602015f015490506002805490508210611988576040517f08c379a000000000000000000000000000000000000000000000000000000000815260040161197f90613747565b60405180910390fd5b5f73ffffffffffffffffffffffffffffffffffffffff16600283815481106119b3576119b2613668565b5b905f5260205f2090600602016002015f9054906101000a900473ffffffffffffffffffffffffffffffffffffffff1673ffffffffffffffffffffffffffffffffffffffff1614611a38576040517f08c379a0000000000000000000000000000000000000000000000000000000008152600401611a2f906137af565b60405180910390fd5b3373ffffffffffffffffffffffffffffffffffffffff1660028381548110611a6357611a62613668565b5b905f5260205f2090600602016001015f9054906101000a900473ffffffffffffffffffffffffffffffffffffffff1673ffffffffffffffffffffffffffffffffffffffff1614611ae8576040517f08c379a0000000000000000000000000000000000000000000000000000000008152600401611adf906138dc565b60405180910390fd5b5f5b60028381548110611afe57611afd613668565b5b905f5260205f20906006020160040180549050811015611c025760028381548110611b2c57611b2b613668565b5b905f5260205f2090600602016004018181548110611b4d57611b4c613668565b5b905f5260205f20015f9054906101000a900473ffffffffffffffffffffffffffffffffffffffff1673ffffffffffffffffffffffffffffffffffffffff166108fc60028581548110611ba257611ba1613668565b5b905f5260205f2090600602016005018381548110611bc357611bc2613668565b5b905f5260205f20015490811502906040515f60405180830381858888f19350505050158015611bf4573d5f803e3d5ffd5b508080600101915050611aea565b503360028381548110611c1857611c17613668565b5b905f5260205f2090600602016002015f6101000a81548173ffffffffffffffffffffffffffffffffffffffff021916908373ffffffffffffffffffffffffffffffffffffffff1602179055505f808281548110611c7857611c77613668565b5b905f5260205f20906005020160040160016101000a81548160ff0219169083151502179055505050565b6001805490508110611cb2575f80fd5b5f6004811115611cc557611cc4613515565b5b60018281548110611cd957611cd8613668565b5b905f5260205f2090600602016005015f9054906101000a900460ff166004811115611d0757611d06613515565b5b14611d47576040517f08c379a0000000000000000000000000000000000000000000000000000000008152600401611d3e90613ce4565b60405180910390fd5b3373ffffffffffffffffffffffffffffffffffffffff1660018281548110611d7257611d71613668565b5b905f5260205f2090600602016002015f9054906101000a900473ffffffffffffffffffffffffffffffffffffffff1673ffffffffffffffffffffffffffffffffffffffff1614611df7576040517f08c379a0000000000000000000000000000000000000000000000000000000008152600401611dee90613d4c565b60405180910390fd5b5f60018281548110611e0c57611e0b613668565b5b905f5260205f2090600602016001015490504260018381548110611e3357611e32613668565b5b905f5260205f209060060201600401541115611e9957600460018381548110611e5f57611e5e613668565b5b905f5260205f2090600602016005015f6101000a81548160ff02191690836004811115611e8f57611e8e613515565b5b0217905550611ee5565b600360018381548110611eaf57611eae613668565b5b905f5260205f2090600602016005015f6101000a81548160ff02191690836004811115611edf57611ede613515565b5b02179055505b5f808281548110611ef957611ef8613668565b5b905f5260205f2090600502016004015f6101000a81548160ff0219169083151502179055505050565b606060028281548110611f3857611f37613668565b5b905f5260205f209060060201600501805480602002602001604051908101604052809291908181526020018280548015611f8f57602002820191905f5260205f20905b815481526020019060010190808311611f7b575b50505050509050919050565b60035f9054906101000a900473ffffffffffffffffffffffffffffffffffffffff1673ffffffffffffffffffffffffffffffffffffffff163373ffffffffffffffffffffffffffffffffffffffff161461202a576040517f08c379a00000000000000000000000000000000000000000000000000000000081526004016120219061364a565b60405180910390fd5b5f73ffffffffffffffffffffffffffffffffffffffff168373ffffffffffffffffffffffffffffffffffffffff1603612098576040517f08c379a000000000000000000000000000000000000000000000000000000000815260040161208f90613db4565b60405180910390fd5b5f81116120da576040517f08c379a00000000000000000000000000000000000000000000000000000000081526004016120d190613e1c565b60405180910390fd5b5f6040518060e001604052805f8054905081526020018573ffffffffffffffffffffffffffffffffffffffff1681526020018481526020018381526020015f151581526020015f151581526020015f1515815250908060018154018082558091505060019003905f5260205f2090600502015f909190919091505f820151815f01556020820151816001015f6101000a81548173ffffffffffffffffffffffffffffffffffffffff021916908373ffffffffffffffffffffffffffffffffffffffff16021790555060408201518160020190816121b79190613fd7565b50606082015181600301556080820151816004015f6101000a81548160ff02191690831515021790555060a08201518160040160016101000a81548160ff02191690831515021790555060c08201518160040160026101000a81548160ff0219169083151502179055505050505050565b60028181548110612237575f80fd5b905f5260205f2090600602015f91509050805f015490806001015f9054906101000a900473ffffffffffffffffffffffffffffffffffffffff1690806002015f9054906101000a900473ffffffffffffffffffffffffffffffffffffffff16908060030154905084565b5f600182815481106122b6576122b5613668565b5b905f5260205f2090600602016001015490505f15155f82815481106122de576122dd613668565b5b905f5260205f20906005020160040160029054906101000a900460ff1615151461233d576040517f08c379a000000000000000000000000000000000000000000000000000000000815260040161233490613944565b60405180910390fd5b600180549050821061234d575f80fd5b5f60048111156123605761235f613515565b5b6001838154811061237457612373613668565b5b905f5260205f2090600602016005015f9054906101000a900460ff1660048111156123a2576123a1613515565b5b146123e2576040517f08c379a00000000000000000000000000000000000000000000000000000000081526004016123d990613ce4565b60405180910390fd5b3373ffffffffffffffffffffffffffffffffffffffff166001838154811061240d5761240c613668565b5b905f5260205f2090600602016003015f9054906101000a900473ffffffffffffffffffffffffffffffffffffffff1673ffffffffffffffffffffffffffffffffffffffff1614612492576040517f08c379a0000000000000000000000000000000000000000000000000000000008152600401612489906140f0565b60405180910390fd5b42600183815481106124a7576124a6613668565b5b905f5260205f20906006020160040154111561256d576002600183815481106124d3576124d2613668565b5b905f5260205f2090600602016005015f6101000a81548160ff0219169083600481111561250357612502613515565b5b0217905550335f828154811061251c5761251b613668565b5b905f5260205f2090600502016001015f6101000a81548173ffffffffffffffffffffffffffffffffffffffff021916908373ffffffffffffffffffffffffffffffffffffffff1602179055506125b9565b60036001838154811061258357612582613668565b5b905f5260205f2090600602016005015f6101000a81548160ff021916908360048111156125b3576125b2613515565b5b02179055505b5f8082815481106125cd576125cc613668565b5b905f5260205f2090600502016004015f6101000a81548160ff0219169083151502179055505050565b60018181548110612605575f80fd5b905f5260205f2090600602015f91509050805f015490806001015490806002015f9054906101000a900473ffffffffffffffffffffffffffffffffffffffff1690806003015f9054906101000a900473ffffffffffffffffffffffffffffffffffffffff1690806004015490806005015f9054906101000a900460ff16905086565b5f6001828154811061269c5761269b613668565b5b905f5260205f20906006020160010154905060018054905082106126be575f80fd5b5f60048111156126d1576126d0613515565b5b600183815481106126e5576126e4613668565b5b905f5260205f2090600602016005015f9054906101000a900460ff16600481111561271357612712613515565b5b14612753576040517f08c379a000000000000000000000000000000000000000000000000000000000815260040161274a90613ce4565b60405180910390fd5b3373ffffffffffffffffffffffffffffffffffffffff166001838154811061277e5761277d613668565b5b905f5260205f2090600602016003015f9054906101000a900473ffffffffffffffffffffffffffffffffffffffff1673ffffffffffffffffffffffffffffffffffffffff1614612803576040517f08c379a00000000000000000000000000000000000000000000000000000000081526004016127fa906140f0565b60405180910390fd5b426001838154811061281857612817613668565b5b905f5260205f20906006020160040154111561287d57600180838154811061284357612842613668565b5b905f5260205f2090600602016005015f6101000a81548160ff0219169083600481111561287357612872613515565b5b02179055506128c9565b60036001838154811061289357612892613668565b5b905f5260205f2090600602016005015f6101000a81548160ff021916908360048111156128c3576128c2613515565b5b02179055505b5f8082815481106128dd576128dc613668565b5b905f5260205f2090600502016004015f6101000a81548160ff0219169083151502179055505050565b5f6002828154811061291b5761291a613668565b5b905f5260205f2090600602015f015490505f15155f828154811061294257612941613668565b5b905f5260205f20906005020160040160029054906101000a900460ff161515146129a1576040517f08c379a000000000000000000000000000000000000000000000000000000000815260040161299890614158565b60405180910390fd5b60028054905082106129e8576040517f08c379a00000000000000000000000000000000000000000000000000000000081526004016129df90613747565b60405180910390fd5b3373ffffffffffffffffffffffffffffffffffffffff1660028381548110612a1357612a12613668565b5b905f5260205f2090600602016001015f9054906101000a900473ffffffffffffffffffffffffffffffffffffffff1673ffffffffffffffffffffffffffffffffffffffff1603612a98576040517f08c379a0000000000000000000000000000000000000000000000000000000008152600401612a8f906141c0565b60405180910390fd5b5f73ffffffffffffffffffffffffffffffffffffffff1660028381548110612ac357612ac2613668565b5b905f5260205f2090600602016002015f9054906101000a900473ffffffffffffffffffffffffffffffffffffffff1673ffffffffffffffffffffffffffffffffffffffff1614612b48576040517f08c379a0000000000000000000000000000000000000000000000000000000008152600401612b3f906137af565b60405180910390fd5b3460028381548110612b5d57612b5c613668565b5b905f5260205f209060060201600301541115612bae576040517f08c379a0000000000000000000000000000000000000000000000000000000008152600401612ba590614228565b60405180910390fd5b5f805b60028481548110612bc557612bc4613668565b5b905f5260205f20906006020160040180549050811015612c84573373ffffffffffffffffffffffffffffffffffffffff1660028581548110612c0a57612c09613668565b5b905f5260205f2090600602016004018281548110612c2b57612c2a613668565b5b905f5260205f20015f9054906101000a900473ffffffffffffffffffffffffffffffffffffffff1673ffffffffffffffffffffffffffffffffffffffff1603612c775760019150612c84565b8080600101915050612bb1565b505f151581151514612ccb576040517f08c379a0000000000000000000000000000000000000000000000000000000008152600401612cc290614290565b60405180910390fd5b60028381548110612cdf57612cde613668565b5b905f5260205f20906006020160040133908060018154018082558091505060019003905f5260205f20015f9091909190916101000a81548173ffffffffffffffffffffffffffffffffffffffff021916908373ffffffffffffffffffffffffffffffffffffffff16021790555060028381548110612d6057612d5f613668565b5b905f5260205f20906006020160050134908060018154018082558091505060019003905f5260205f20015f9091909190915055505050565b60035f9054906101000a900473ffffffffffffffffffffffffffffffffffffffff1681565b828054828255905f5260205f20908101928215612e33579160200282015b82811115612e32578251825f6101000a81548173ffffffffffffffffffffffffffffffffffffffff021916908373ffffffffffffffffffffffffffffffffffffffff16021790555091602001919060010190612ddb565b5b509050612e409190612e8f565b5090565b828054828255905f5260205f20908101928215612e7e579160200282015b82811115612e7d578251825591602001919060010190612e62565b5b509050612e8b9190612e8f565b5090565b5b80821115612ea6575f815f905550600101612e90565b5090565b5f604051905090565b5f80fd5b5f80fd5b5f819050919050565b612ecd81612ebb565b8114612ed7575f80fd5b50565b5f81359050612ee881612ec4565b92915050565b5f8115159050919050565b612f0281612eee565b8114612f0c575f80fd5b50565b5f81359050612f1d81612ef9565b92915050565b5f8060408385031215612f3957612f38612eb3565b5b5f612f4685828601612eda565b9250506020612f5785828601612f0f565b9150509250929050565b612f6a81612ebb565b82525050565b5f602082019050612f835f830184612f61565b92915050565b5f60208284031215612f9e57612f9d612eb3565b5b5f612fab84828501612eda565b91505092915050565b5f73ffffffffffffffffffffffffffffffffffffffff82169050919050565b5f612fdd82612fb4565b9050919050565b612fed81612fd3565b82525050565b5f81519050919050565b5f82825260208201905092915050565b8281835e5f83830152505050565b5f601f19601f8301169050919050565b5f61303582612ff3565b61303f8185612ffd565b935061304f81856020860161300d565b6130588161301b565b840191505092915050565b61306c81612eee565b82525050565b5f60e0820190506130855f83018a612f61565b6130926020830189612fe4565b81810360408301526130a4818861302b565b90506130b36060830187612f61565b6130c06080830186613063565b6130cd60a0830185613063565b6130da60c0830184613063565b98975050505050505050565b5f80604083850312156130fc576130fb612eb3565b5b5f61310985828601612eda565b925050602061311a85828601612eda565b9150509250929050565b61312d81612fd3565b8114613137575f80fd5b50565b5f8135905061314881613124565b92915050565b5f806040838503121561316457613163612eb3565b5b5f61317185828601612eda565b92505060206131828582860161313a565b9150509250929050565b5f81519050919050565b5f82825260208201905092915050565b5f819050602082019050919050565b6131be81612fd3565b82525050565b5f6131cf83836131b5565b60208301905092915050565b5f602082019050919050565b5f6131f18261318c565b6131fb8185613196565b9350613206836131a6565b805f5b8381101561323657815161321d88826131c4565b9750613228836131db565b925050600181019050613209565b5085935050505092915050565b5f6020820190508181035f83015261325b81846131e7565b905092915050565b5f81519050919050565b5f82825260208201905092915050565b5f819050602082019050919050565b61329581612ebb565b82525050565b5f6132a6838361328c565b60208301905092915050565b5f602082019050919050565b5f6132c882613263565b6132d2818561326d565b93506132dd8361327d565b805f5b8381101561330d5781516132f4888261329b565b97506132ff836132b2565b9250506001810190506132e0565b5085935050505092915050565b5f6020820190508181035f83015261333281846132be565b905092915050565b5f80fd5b5f80fd5b7f4e487b71000000000000000000000000000000000000000000000000000000005f52604160045260245ffd5b6133788261301b565b810181811067ffffffffffffffff8211171561339757613396613342565b5b80604052505050565b5f6133a9612eaa565b90506133b5828261336f565b919050565b5f67ffffffffffffffff8211156133d4576133d3613342565b5b6133dd8261301b565b9050602081019050919050565b828183375f83830152505050565b5f61340a613405846133ba565b6133a0565b9050828152602081018484840111156134265761342561333e565b5b6134318482856133ea565b509392505050565b5f82601f83011261344d5761344c61333a565b5b813561345d8482602086016133f8565b91505092915050565b5f805f6060848603121561347d5761347c612eb3565b5b5f61348a8682870161313a565b935050602084013567ffffffffffffffff8111156134ab576134aa612eb7565b5b6134b786828701613439565b92505060406134c886828701612eda565b9150509250925092565b5f6080820190506134e55f830187612f61565b6134f26020830186612fe4565b6134ff6040830185612fe4565b61350c6060830184612f61565b95945050505050565b7f4e487b71000000000000000000000000000000000000000000000000000000005f52602160045260245ffd5b6005811061355357613552613515565b5b50565b5f81905061356382613542565b919050565b5f61357282613556565b9050919050565b61358281613568565b82525050565b5f60c08201905061359b5f830189612f61565b6135a86020830188612f61565b6135b56040830187612fe4565b6135c26060830186612fe4565b6135cf6080830185612f61565b6135dc60a0830184613579565b979650505050505050565b5f6020820190506135fa5f830184612fe4565b92915050565b7f596f7520617265206e6f742061646d696e0000000000000000000000000000005f82015250565b5f613634601183612ffd565b915061363f82613600565b602082019050919050565b5f6020820190508181035f83015261366181613628565b9050919050565b7f4e487b71000000000000000000000000000000000000000000000000000000005f52603260045260245ffd5b7f7468652073616d652061726573740000000000000000000000000000000000005f82015250565b5f6136c9600e83612ffd565b91506136d482613695565b602082019050919050565b5f6020820190508181035f8301526136f6816136bd565b9050919050565b7f77726f6e672073616c6549442076616c756500000000000000000000000000005f82015250565b5f613731601283612ffd565b915061373c826136fd565b602082019050919050565b5f6020820190508181035f83015261375e81613725565b9050919050565b7f53616c6520697320636c6f7365640000000000000000000000000000000000005f82015250565b5f613799600e83612ffd565b91506137a482613765565b602082019050919050565b5f6020820190508181035f8301526137c68161378d565b9050919050565b7f796f7520707269636520697320300000000000000000000000000000000000005f82015250565b5f613801600e83612ffd565b915061380c826137cd565b602082019050919050565b5f6020820190508181035f83015261382e816137f5565b9050919050565b7f4e487b71000000000000000000000000000000000000000000000000000000005f52602260045260245ffd5b5f600282049050600182168061387957607f821691505b60208210810361388c5761388b613835565b5b50919050565b7f4e6f7420796f752073616c6500000000000000000000000000000000000000005f82015250565b5f6138c6600c83612ffd565b91506138d182613892565b602082019050919050565b5f6020820190508181035f8301526138f3816138ba565b9050919050565b7f6275696c642069732061726573746564000000000000000000000000000000005f82015250565b5f61392e601083612ffd565b9150613939826138fa565b602082019050919050565b5f6020820190508181035f83015261395b81613922565b9050919050565b7f4973206e6f7420796f7572206275696c640000000000000000000000000000005f82015250565b5f613996601183612ffd565b91506139a182613962565b602082019050919050565b5f6020820190508181035f8301526139c38161398a565b9050919050565b7f416c726561647920696e2070726573656e7400000000000000000000000000005f82015250565b5f6139fe601283612ffd565b9150613a09826139ca565b602082019050919050565b5f6020820190508181035f830152613a2b816139f2565b9050919050565b7f416c726561647920696e2073616c6500000000000000000000000000000000005f82015250565b5f613a66600f83612ffd565b9150613a7182613a32565b602082019050919050565b5f6020820190508181035f830152613a9381613a5a565b9050919050565b7f4275696c6420696e2061726573740000000000000000000000000000000000005f82015250565b5f613ace600e83612ffd565b9150613ad982613a9a565b602082019050919050565b5f6020820190508181035f830152613afb81613ac2565b9050919050565b7f77726f6e675f61646472657373000000000000000000000000000000000000005f82015250565b5f613b36600d83612ffd565b9150613b4182613b02565b602082019050919050565b5f6020820190508181035f830152613b6381613b2a565b9050919050565b7f77726f6e67206275696c6449442076616c7565000000000000000000000000005f82015250565b5f613b9e601383612ffd565b9150613ba982613b6a565b602082019050919050565b5f6020820190508181035f830152613bcb81613b92565b9050919050565b7f73656c66206769667400000000000000000000000000000000000000000000005f82015250565b5f613c06600983612ffd565b9150613c1182613bd2565b602082019050919050565b5f6020820190508181035f830152613c3381613bfa565b9050919050565b7f4e487b71000000000000000000000000000000000000000000000000000000005f52601160045260245ffd5b5f613c7182612ebb565b9150613c7c83612ebb565b9250828201905080821115613c9457613c93613c3a565b5b92915050565b7f416c72656164792066696e6973686564000000000000000000000000000000005f82015250565b5f613cce601083612ffd565b9150613cd982613c9a565b602082019050919050565b5f6020820190508181035f830152613cfb81613cc2565b9050919050565b7f596f7520617265206e6f74206f776e65720000000000000000000000000000005f82015250565b5f613d36601183612ffd565b9150613d4182613d02565b602082019050919050565b5f6020820190508181035f830152613d6381613d2a565b9050919050565b7f77726f6e672061646472657373000000000000000000000000000000000000005f82015250565b5f613d9e600d83612ffd565b9150613da982613d6a565b602082019050919050565b5f6020820190508181035f830152613dcb81613d92565b9050919050565b7f77726f6e672073717561726500000000000000000000000000000000000000005f82015250565b5f613e06600c83612ffd565b9150613e1182613dd2565b602082019050919050565b5f6020820190508181035f830152613e3381613dfa565b9050919050565b5f819050815f5260205f209050919050565b5f6020601f8301049050919050565b5f82821b905092915050565b5f60088302613e967fffffffffffffffffffffffffffffffffffffffffffffffffffffffffffffffff82613e5b565b613ea08683613e5b565b95508019841693508086168417925050509392505050565b5f819050919050565b5f613edb613ed6613ed184612ebb565b613eb8565b612ebb565b9050919050565b5f819050919050565b613ef483613ec1565b613f08613f0082613ee2565b848454613e67565b825550505050565b5f90565b613f1c613f10565b613f27818484613eeb565b505050565b5b81811015613f4a57613f3f5f82613f14565b600181019050613f2d565b5050565b601f821115613f8f57613f6081613e3a565b613f6984613e4c565b81016020851015613f78578190505b613f8c613f8485613e4c565b830182613f2c565b50505b505050565b5f82821c905092915050565b5f613faf5f1984600802613f94565b1980831691505092915050565b5f613fc78383613fa0565b9150826002028217905092915050565b613fe082612ff3565b67ffffffffffffffff811115613ff957613ff8613342565b5b6140038254613862565b61400e828285613f4e565b5f60209050601f83116001811461403f575f841561402d578287015190505b6140378582613fbc565b86555061409e565b601f19841661404d86613e3a565b5f5b828110156140745784890151825560018201915060208501945060208101905061404f565b86831015614091578489015161408d601f891682613fa0565b8355505b6001600288020188555050505b505050505050565b7f546869732069732067696674206e6f7420666f7220796f7500000000000000005f82015250565b5f6140da601883612ffd565b91506140e5826140a6565b602082019050919050565b5f6020820190508181035f830152614107816140ce565b9050919050565b7f65737461746520617265737465640000000000000000000000000000000000005f82015250565b5f614142600e83612ffd565b915061414d8261410e565b602082019050919050565b5f6020820190508181035f83015261416f81614136565b9050919050565b7f73656c662073616c6500000000000000000000000000000000000000000000005f82015250565b5f6141aa600983612ffd565b91506141b582614176565b602082019050919050565b5f6020820190508181035f8301526141d78161419e565b9050919050565b7f77726f6e67206574682076616c756500000000000000000000000000000000005f82015250565b5f614212600f83612ffd565b915061421d826141de565b602082019050919050565b5f6020820190508181035f83015261423f81614206565b9050919050565b7f796f7520616c726561647920696e2070726963657300000000000000000000005f82015250565b5f61427a601583612ffd565b915061428582614246565b602082019050919050565b5f6020820190508181035f8301526142a78161426e565b905091905056fea2646970667358221220ce8b3f26eec023a2406841ee8e54d5a8ff678229f99b1d76ec800b82d86df7b564736f6c634300081a0033",
					"opcodes": "PUSH1 0x80 PUSH1 0x40 MSTORE PUSH1 0x3C PUSH1 0x4 SSTORE CALLVALUE DUP1 ISZERO PUSH2 0x14 JUMPI PUSH0 DUP1 REVERT JUMPDEST POP PUSH1 0x40 MLOAD PUSH2 0x43F6 CODESIZE SUB DUP1 PUSH2 0x43F6 DUP4 CODECOPY DUP2 DUP2 ADD PUSH1 0x40 MSTORE DUP2 ADD SWAP1 PUSH2 0x36 SWAP2 SWAP1 PUSH2 0xDA JUMP JUMPDEST DUP1 PUSH1 0x3 PUSH0 PUSH2 0x100 EXP DUP2 SLOAD DUP2 PUSH20 0xFFFFFFFFFFFFFFFFFFFFFFFFFFFFFFFFFFFFFFFF MUL NOT AND SWAP1 DUP4 PUSH20 0xFFFFFFFFFFFFFFFFFFFFFFFFFFFFFFFFFFFFFFFF AND MUL OR SWAP1 SSTORE POP POP PUSH2 0x105 JUMP JUMPDEST PUSH0 DUP1 REVERT JUMPDEST PUSH0 PUSH20 0xFFFFFFFFFFFFFFFFFFFFFFFFFFFFFFFFFFFFFFFF DUP3 AND SWAP1 POP SWAP2 SWAP1 POP JUMP JUMPDEST PUSH0 PUSH2 0xA9 DUP3 PUSH2 0x80 JUMP JUMPDEST SWAP1 POP SWAP2 SWAP1 POP JUMP JUMPDEST PUSH2 0xB9 DUP2 PUSH2 0x9F JUMP JUMPDEST DUP2 EQ PUSH2 0xC3 JUMPI PUSH0 DUP1 REVERT JUMPDEST POP JUMP JUMPDEST PUSH0 DUP2 MLOAD SWAP1 POP PUSH2 0xD4 DUP2 PUSH2 0xB0 JUMP JUMPDEST SWAP3 SWAP2 POP POP JUMP JUMPDEST PUSH0 PUSH1 0x20 DUP3 DUP5 SUB SLT ISZERO PUSH2 0xEF JUMPI PUSH2 0xEE PUSH2 0x7C JUMP JUMPDEST JUMPDEST PUSH0 PUSH2 0xFC DUP5 DUP3 DUP6 ADD PUSH2 0xC6 JUMP JUMPDEST SWAP2 POP POP SWAP3 SWAP2 POP POP JUMP JUMPDEST PUSH2 0x42E4 DUP1 PUSH2 0x112 PUSH0 CODECOPY PUSH0 RETURN INVALID PUSH1 0x80 PUSH1 0x40 MSTORE PUSH1 0x4 CALLDATASIZE LT PUSH2 0x108 JUMPI PUSH0 CALLDATALOAD PUSH1 0xE0 SHR DUP1 PUSH4 0x8EE69AE8 GT PUSH2 0x94 JUMPI DUP1 PUSH4 0xD0AB383A GT PUSH2 0x63 JUMPI DUP1 PUSH4 0xD0AB383A EQ PUSH2 0x34B JUMPI DUP1 PUSH4 0xD6065935 EQ PUSH2 0x373 JUMPI DUP1 PUSH4 0xDB4C049D EQ PUSH2 0x3B4 JUMPI DUP1 PUSH4 0xE9F0EE56 EQ PUSH2 0x3DC JUMPI DUP1 PUSH4 0xF851A440 EQ PUSH2 0x3F8 JUMPI PUSH2 0x108 JUMP JUMPDEST DUP1 PUSH4 0x8EE69AE8 EQ PUSH2 0x280 JUMPI DUP1 PUSH4 0x91492956 EQ PUSH2 0x2A8 JUMPI DUP1 PUSH4 0x9A22ED8F EQ PUSH2 0x2E4 JUMPI DUP1 PUSH4 0xB5F522F7 EQ PUSH2 0x30C JUMPI PUSH2 0x108 JUMP JUMPDEST DUP1 PUSH4 0x57279353 GT PUSH2 0xDB JUMPI DUP1 PUSH4 0x57279353 EQ PUSH2 0x1BC JUMPI DUP1 PUSH4 0x58C97164 EQ PUSH2 0x1D8 JUMPI DUP1 PUSH4 0x6019061B EQ PUSH2 0x200 JUMPI DUP1 PUSH4 0x7FEAFD20 EQ PUSH2 0x228 JUMPI DUP1 PUSH4 0x8E821CA2 EQ PUSH2 0x264 JUMPI PUSH2 0x108 JUMP JUMPDEST DUP1 PUSH4 0x6238E6E EQ PUSH2 0x10C JUMPI DUP1 PUSH4 0xA483421 EQ PUSH2 0x134 JUMPI DUP1 PUSH4 0x2A50FE2C EQ PUSH2 0x15E JUMPI DUP1 PUSH4 0x4C96A062 EQ PUSH2 0x17A JUMPI JUMPDEST PUSH0 DUP1 REVERT JUMPDEST CALLVALUE DUP1 ISZERO PUSH2 0x117 JUMPI PUSH0 DUP1 REVERT JUMPDEST POP PUSH2 0x132 PUSH1 0x4 DUP1 CALLDATASIZE SUB DUP2 ADD SWAP1 PUSH2 0x12D SWAP2 SWAP1 PUSH2 0x2F23 JUMP JUMPDEST PUSH2 0x422 JUMP JUMPDEST STOP JUMPDEST CALLVALUE DUP1 ISZERO PUSH2 0x13F JUMPI PUSH0 DUP1 REVERT JUMPDEST POP PUSH2 0x148 PUSH2 0x564 JUMP JUMPDEST PUSH1 0x40 MLOAD PUSH2 0x155 SWAP2 SWAP1 PUSH2 0x2F70 JUMP JUMPDEST PUSH1 0x40 MLOAD DUP1 SWAP2 SUB SWAP1 RETURN JUMPDEST PUSH2 0x178 PUSH1 0x4 DUP1 CALLDATASIZE SUB DUP2 ADD SWAP1 PUSH2 0x173 SWAP2 SWAP1 PUSH2 0x2F89 JUMP JUMPDEST PUSH2 0x56A JUMP JUMPDEST STOP JUMPDEST CALLVALUE DUP1 ISZERO PUSH2 0x185 JUMPI PUSH0 DUP1 REVERT JUMPDEST POP PUSH2 0x1A0 PUSH1 0x4 DUP1 CALLDATASIZE SUB DUP2 ADD SWAP1 PUSH2 0x19B SWAP2 SWAP1 PUSH2 0x2F89 JUMP JUMPDEST PUSH2 0x87D JUMP JUMPDEST PUSH1 0x40 MLOAD PUSH2 0x1B3 SWAP8 SWAP7 SWAP6 SWAP5 SWAP4 SWAP3 SWAP2 SWAP1 PUSH2 0x3072 JUMP JUMPDEST PUSH1 0x40 MLOAD DUP1 SWAP2 SUB SWAP1 RETURN JUMPDEST PUSH2 0x1D6 PUSH1 0x4 DUP1 CALLDATASIZE SUB DUP2 ADD SWAP1 PUSH2 0x1D1 SWAP2 SWAP1 PUSH2 0x30E6 JUMP JUMPDEST PUSH2 0x994 JUMP JUMPDEST STOP JUMPDEST CALLVALUE DUP1 ISZERO PUSH2 0x1E3 JUMPI PUSH0 DUP1 REVERT JUMPDEST POP PUSH2 0x1FE PUSH1 0x4 DUP1 CALLDATASIZE SUB DUP2 ADD SWAP1 PUSH2 0x1F9 SWAP2 SWAP1 PUSH2 0x314E JUMP JUMPDEST PUSH2 0xF79 JUMP JUMPDEST STOP JUMPDEST CALLVALUE DUP1 ISZERO PUSH2 0x20B JUMPI PUSH0 DUP1 REVERT JUMPDEST POP PUSH2 0x226 PUSH1 0x4 DUP1 CALLDATASIZE SUB DUP2 ADD SWAP1 PUSH2 0x221 SWAP2 SWAP1 PUSH2 0x30E6 JUMP JUMPDEST PUSH2 0x1468 JUMP JUMPDEST STOP JUMPDEST CALLVALUE DUP1 ISZERO PUSH2 0x233 JUMPI PUSH0 DUP1 REVERT JUMPDEST POP PUSH2 0x24E PUSH1 0x4 DUP1 CALLDATASIZE SUB DUP2 ADD SWAP1 PUSH2 0x249 SWAP2 SWAP1 PUSH2 0x2F89 JUMP JUMPDEST PUSH2 0x186D JUMP JUMPDEST PUSH1 0x40 MLOAD PUSH2 0x25B SWAP2 SWAP1 PUSH2 0x3243 JUMP JUMPDEST PUSH1 0x40 MLOAD DUP1 SWAP2 SUB SWAP1 RETURN JUMPDEST PUSH2 0x27E PUSH1 0x4 DUP1 CALLDATASIZE SUB DUP2 ADD SWAP1 PUSH2 0x279 SWAP2 SWAP1 PUSH2 0x2F89 JUMP JUMPDEST PUSH2 0x191B JUMP JUMPDEST STOP JUMPDEST CALLVALUE DUP1 ISZERO PUSH2 0x28B JUMPI PUSH0 DUP1 REVERT JUMPDEST POP PUSH2 0x2A6 PUSH1 0x4 DUP1 CALLDATASIZE SUB DUP2 ADD SWAP1 PUSH2 0x2A1 SWAP2 SWAP1 PUSH2 0x2F89 JUMP JUMPDEST PUSH2 0x1CA2 JUMP JUMPDEST STOP JUMPDEST CALLVALUE DUP1 ISZERO PUSH2 0x2B3 JUMPI PUSH0 DUP1 REVERT JUMPDEST POP PUSH2 0x2CE PUSH1 0x4 DUP1 CALLDATASIZE SUB DUP2 ADD SWAP1 PUSH2 0x2C9 SWAP2 SWAP1 PUSH2 0x2F89 JUMP JUMPDEST PUSH2 0x1F22 JUMP JUMPDEST PUSH1 0x40 MLOAD PUSH2 0x2DB SWAP2 SWAP1 PUSH2 0x331A JUMP JUMPDEST PUSH1 0x40 MLOAD DUP1 SWAP2 SUB SWAP1 RETURN JUMPDEST CALLVALUE DUP1 ISZERO PUSH2 0x2EF JUMPI PUSH0 DUP1 REVERT JUMPDEST POP PUSH2 0x30A PUSH1 0x4 DUP1 CALLDATASIZE SUB DUP2 ADD SWAP1 PUSH2 0x305 SWAP2 SWAP1 PUSH2 0x3466 JUMP JUMPDEST PUSH2 0x1F9B JUMP JUMPDEST STOP JUMPDEST CALLVALUE DUP1 ISZERO PUSH2 0x317 JUMPI PUSH0 DUP1 REVERT JUMPDEST POP PUSH2 0x332 PUSH1 0x4 DUP1 CALLDATASIZE SUB DUP2 ADD SWAP1 PUSH2 0x32D SWAP2 SWAP1 PUSH2 0x2F89 JUMP JUMPDEST PUSH2 0x2228 JUMP JUMPDEST PUSH1 0x40 MLOAD PUSH2 0x342 SWAP5 SWAP4 SWAP3 SWAP2 SWAP1 PUSH2 0x34D2 JUMP JUMPDEST PUSH1 0x40 MLOAD DUP1 SWAP2 SUB SWAP1 RETURN JUMPDEST CALLVALUE DUP1 ISZERO PUSH2 0x356 JUMPI PUSH0 DUP1 REVERT JUMPDEST POP PUSH2 0x371 PUSH1 0x4 DUP1 CALLDATASIZE SUB DUP2 ADD SWAP1 PUSH2 0x36C SWAP2 SWAP1 PUSH2 0x2F89 JUMP JUMPDEST PUSH2 0x22A1 JUMP JUMPDEST STOP JUMPDEST CALLVALUE DUP1 ISZERO PUSH2 0x37E JUMPI PUSH0 DUP1 REVERT JUMPDEST POP PUSH2 0x399 PUSH1 0x4 DUP1 CALLDATASIZE SUB DUP2 ADD SWAP1 PUSH2 0x394 SWAP2 SWAP1 PUSH2 0x2F89 JUMP JUMPDEST PUSH2 0x25F6 JUMP JUMPDEST PUSH1 0x40 MLOAD PUSH2 0x3AB SWAP7 SWAP6 SWAP5 SWAP4 SWAP3 SWAP2 SWAP1 PUSH2 0x3588 JUMP JUMPDEST PUSH1 0x40 MLOAD DUP1 SWAP2 SUB SWAP1 RETURN JUMPDEST CALLVALUE DUP1 ISZERO PUSH2 0x3BF JUMPI PUSH0 DUP1 REVERT JUMPDEST POP PUSH2 0x3DA PUSH1 0x4 DUP1 CALLDATASIZE SUB DUP2 ADD SWAP1 PUSH2 0x3D5 SWAP2 SWAP1 PUSH2 0x2F89 JUMP JUMPDEST PUSH2 0x2687 JUMP JUMPDEST STOP JUMPDEST PUSH2 0x3F6 PUSH1 0x4 DUP1 CALLDATASIZE SUB DUP2 ADD SWAP1 PUSH2 0x3F1 SWAP2 SWAP1 PUSH2 0x2F89 JUMP JUMPDEST PUSH2 0x2906 JUMP JUMPDEST STOP JUMPDEST CALLVALUE DUP1 ISZERO PUSH2 0x403 JUMPI PUSH0 DUP1 REVERT JUMPDEST POP PUSH2 0x40C PUSH2 0x2D98 JUMP JUMPDEST PUSH1 0x40 MLOAD PUSH2 0x419 SWAP2 SWAP1 PUSH2 0x35E7 JUMP JUMPDEST PUSH1 0x40 MLOAD DUP1 SWAP2 SUB SWAP1 RETURN JUMPDEST PUSH1 0x3 PUSH0 SWAP1 SLOAD SWAP1 PUSH2 0x100 EXP SWAP1 DIV PUSH20 0xFFFFFFFFFFFFFFFFFFFFFFFFFFFFFFFFFFFFFFFF AND PUSH20 0xFFFFFFFFFFFFFFFFFFFFFFFFFFFFFFFFFFFFFFFF AND CALLER PUSH20 0xFFFFFFFFFFFFFFFFFFFFFFFFFFFFFFFFFFFFFFFF AND EQ PUSH2 0x4B1 JUMPI PUSH1 0x40 MLOAD PUSH32 0x8C379A000000000000000000000000000000000000000000000000000000000 DUP2 MSTORE PUSH1 0x4 ADD PUSH2 0x4A8 SWAP1 PUSH2 0x364A JUMP JUMPDEST PUSH1 0x40 MLOAD DUP1 SWAP2 SUB SWAP1 REVERT JUMPDEST PUSH0 DUP3 DUP2 SLOAD DUP2 LT PUSH2 0x4C4 JUMPI PUSH2 0x4C3 PUSH2 0x3668 JUMP JUMPDEST JUMPDEST SWAP1 PUSH0 MSTORE PUSH1 0x20 PUSH0 KECCAK256 SWAP1 PUSH1 0x5 MUL ADD PUSH1 0x4 ADD PUSH1 0x2 SWAP1 SLOAD SWAP1 PUSH2 0x100 EXP SWAP1 DIV PUSH1 0xFF AND ISZERO ISZERO DUP2 ISZERO ISZERO SUB PUSH2 0x526 JUMPI PUSH1 0x40 MLOAD PUSH32 0x8C379A000000000000000000000000000000000000000000000000000000000 DUP2 MSTORE PUSH1 0x4 ADD PUSH2 0x51D SWAP1 PUSH2 0x36DF JUMP JUMPDEST PUSH1 0x40 MLOAD DUP1 SWAP2 SUB SWAP1 REVERT JUMPDEST DUP1 PUSH0 DUP4 DUP2 SLOAD DUP2 LT PUSH2 0x53A JUMPI PUSH2 0x539 PUSH2 0x3668 JUMP JUMPDEST JUMPDEST SWAP1 PUSH0 MSTORE PUSH1 0x20 PUSH0 KECCAK256 SWAP1 PUSH1 0x5 MUL ADD PUSH1 0x4 ADD PUSH1 0x2 PUSH2 0x100 EXP DUP2 SLOAD DUP2 PUSH1 0xFF MUL NOT AND SWAP1 DUP4 ISZERO ISZERO MUL OR SWAP1 SSTORE POP POP POP JUMP JUMPDEST PUSH1 0x4 SLOAD DUP2 JUMP JUMPDEST PUSH1 0x2 DUP1 SLOAD SWAP1 POP DUP2 LT PUSH2 0x5B1 JUMPI PUSH1 0x40 MLOAD PUSH32 0x8C379A000000000000000000000000000000000000000000000000000000000 DUP2 MSTORE PUSH1 0x4 ADD PUSH2 0x5A8 SWAP1 PUSH2 0x3747 JUMP JUMPDEST PUSH1 0x40 MLOAD DUP1 SWAP2 SUB SWAP1 REVERT JUMPDEST PUSH0 PUSH20 0xFFFFFFFFFFFFFFFFFFFFFFFFFFFFFFFFFFFFFFFF AND PUSH1 0x2 DUP3 DUP2 SLOAD DUP2 LT PUSH2 0x5DC JUMPI PUSH2 0x5DB PUSH2 0x3668 JUMP JUMPDEST JUMPDEST SWAP1 PUSH0 MSTORE PUSH1 0x20 PUSH0 KECCAK256 SWAP1 PUSH1 0x6 MUL ADD PUSH1 0x2 ADD PUSH0 SWAP1 SLOAD SWAP1 PUSH2 0x100 EXP SWAP1 DIV PUSH20 0xFFFFFFFFFFFFFFFFFFFFFFFFFFFFFFFFFFFFFFFF AND PUSH20 0xFFFFFFFFFFFFFFFFFFFFFFFFFFFFFFFFFFFFFFFF AND EQ PUSH2 0x661 JUMPI PUSH1 0x40 MLOAD PUSH32 0x8C379A000000000000000000000000000000000000000000000000000000000 DUP2 MSTORE PUSH1 0x4 ADD PUSH2 0x658 SWAP1 PUSH2 0x37AF JUMP JUMPDEST PUSH1 0x40 MLOAD DUP1 SWAP2 SUB SWAP1 REVERT JUMPDEST PUSH0 JUMPDEST PUSH1 0x2 DUP3 DUP2 SLOAD DUP2 LT PUSH2 0x677 JUMPI PUSH2 0x676 PUSH2 0x3668 JUMP JUMPDEST JUMPDEST SWAP1 PUSH0 MSTORE PUSH1 0x20 PUSH0 KECCAK256 SWAP1 PUSH1 0x6 MUL ADD PUSH1 0x4 ADD DUP1 SLOAD SWAP1 POP DUP2 LT ISZERO PUSH2 0x879 JUMPI CALLER PUSH20 0xFFFFFFFFFFFFFFFFFFFFFFFFFFFFFFFFFFFFFFFF AND PUSH1 0x2 DUP4 DUP2 SLOAD DUP2 LT PUSH2 0x6BC JUMPI PUSH2 0x6BB PUSH2 0x3668 JUMP JUMPDEST JUMPDEST SWAP1 PUSH0 MSTORE PUSH1 0x20 PUSH0 KECCAK256 SWAP1 PUSH1 0x6 MUL ADD PUSH1 0x4 ADD DUP3 DUP2 SLOAD DUP2 LT PUSH2 0x6DD JUMPI PUSH2 0x6DC PUSH2 0x3668 JUMP JUMPDEST JUMPDEST SWAP1 PUSH0 MSTORE PUSH1 0x20 PUSH0 KECCAK256 ADD PUSH0 SWAP1 SLOAD SWAP1 PUSH2 0x100 EXP SWAP1 DIV PUSH20 0xFFFFFFFFFFFFFFFFFFFFFFFFFFFFFFFFFFFFFFFF AND PUSH20 0xFFFFFFFFFFFFFFFFFFFFFFFFFFFFFFFFFFFFFFFF AND SUB PUSH2 0x86C JUMPI PUSH0 PUSH1 0x2 DUP4 DUP2 SLOAD DUP2 LT PUSH2 0x735 JUMPI PUSH2 0x734 PUSH2 0x3668 JUMP JUMPDEST JUMPDEST SWAP1 PUSH0 MSTORE PUSH1 0x20 PUSH0 KECCAK256 SWAP1 PUSH1 0x6 MUL ADD PUSH1 0x5 ADD DUP3 DUP2 SLOAD DUP2 LT PUSH2 0x756 JUMPI PUSH2 0x755 PUSH2 0x3668 JUMP JUMPDEST JUMPDEST SWAP1 PUSH0 MSTORE PUSH1 0x20 PUSH0 KECCAK256 ADD SLOAD SWAP1 POP PUSH0 DUP2 SUB PUSH2 0x7A3 JUMPI PUSH1 0x40 MLOAD PUSH32 0x8C379A000000000000000000000000000000000000000000000000000000000 DUP2 MSTORE PUSH1 0x4 ADD PUSH2 0x79A SWAP1 PUSH2 0x3817 JUMP JUMPDEST PUSH1 0x40 MLOAD DUP1 SWAP2 SUB SWAP1 REVERT JUMPDEST CALLER PUSH20 0xFFFFFFFFFFFFFFFFFFFFFFFFFFFFFFFFFFFFFFFF AND PUSH2 0x8FC PUSH1 0x2 DUP6 DUP2 SLOAD DUP2 LT PUSH2 0x7D1 JUMPI PUSH2 0x7D0 PUSH2 0x3668 JUMP JUMPDEST JUMPDEST SWAP1 PUSH0 MSTORE PUSH1 0x20 PUSH0 KECCAK256 SWAP1 PUSH1 0x6 MUL ADD PUSH1 0x5 ADD DUP5 DUP2 SLOAD DUP2 LT PUSH2 0x7F2 JUMPI PUSH2 0x7F1 PUSH2 0x3668 JUMP JUMPDEST JUMPDEST SWAP1 PUSH0 MSTORE PUSH1 0x20 PUSH0 KECCAK256 ADD SLOAD SWAP1 DUP2 ISZERO MUL SWAP1 PUSH1 0x40 MLOAD PUSH0 PUSH1 0x40 MLOAD DUP1 DUP4 SUB DUP2 DUP6 DUP9 DUP9 CALL SWAP4 POP POP POP POP ISZERO DUP1 ISZERO PUSH2 0x823 JUMPI RETURNDATASIZE PUSH0 DUP1 RETURNDATACOPY RETURNDATASIZE PUSH0 REVERT JUMPDEST POP PUSH0 PUSH1 0x2 DUP5 DUP2 SLOAD DUP2 LT PUSH2 0x839 JUMPI PUSH2 0x838 PUSH2 0x3668 JUMP JUMPDEST JUMPDEST SWAP1 PUSH0 MSTORE PUSH1 0x20 PUSH0 KECCAK256 SWAP1 PUSH1 0x6 MUL ADD PUSH1 0x5 ADD DUP4 DUP2 SLOAD DUP2 LT PUSH2 0x85A JUMPI PUSH2 0x859 PUSH2 0x3668 JUMP JUMPDEST JUMPDEST SWAP1 PUSH0 MSTORE PUSH1 0x20 PUSH0 KECCAK256 ADD DUP2 SWAP1 SSTORE POP POP PUSH2 0x879 JUMP JUMPDEST DUP1 DUP1 PUSH1 0x1 ADD SWAP2 POP POP PUSH2 0x663 JUMP JUMPDEST POP POP JUMP JUMPDEST PUSH0 DUP2 DUP2 SLOAD DUP2 LT PUSH2 0x88B JUMPI PUSH0 DUP1 REVERT JUMPDEST SWAP1 PUSH0 MSTORE PUSH1 0x20 PUSH0 KECCAK256 SWAP1 PUSH1 0x5 MUL ADD PUSH0 SWAP2 POP SWAP1 POP DUP1 PUSH0 ADD SLOAD SWAP1 DUP1 PUSH1 0x1 ADD PUSH0 SWAP1 SLOAD SWAP1 PUSH2 0x100 EXP SWAP1 DIV PUSH20 0xFFFFFFFFFFFFFFFFFFFFFFFFFFFFFFFFFFFFFFFF AND SWAP1 DUP1 PUSH1 0x2 ADD DUP1 SLOAD PUSH2 0x8D5 SWAP1 PUSH2 0x3862 JUMP JUMPDEST DUP1 PUSH1 0x1F ADD PUSH1 0x20 DUP1 SWAP2 DIV MUL PUSH1 0x20 ADD PUSH1 0x40 MLOAD SWAP1 DUP2 ADD PUSH1 0x40 MSTORE DUP1 SWAP3 SWAP2 SWAP1 DUP2 DUP2 MSTORE PUSH1 0x20 ADD DUP3 DUP1 SLOAD PUSH2 0x901 SWAP1 PUSH2 0x3862 JUMP JUMPDEST DUP1 ISZERO PUSH2 0x94C JUMPI DUP1 PUSH1 0x1F LT PUSH2 0x923 JUMPI PUSH2 0x100 DUP1 DUP4 SLOAD DIV MUL DUP4 MSTORE SWAP2 PUSH1 0x20 ADD SWAP2 PUSH2 0x94C JUMP JUMPDEST DUP3 ADD SWAP2 SWAP1 PUSH0 MSTORE PUSH1 0x20 PUSH0 KECCAK256 SWAP1 JUMPDEST DUP2 SLOAD DUP2 MSTORE SWAP1 PUSH1 0x1 ADD SWAP1 PUSH1 0x20 ADD DUP1 DUP4 GT PUSH2 0x92F JUMPI DUP3 SWAP1 SUB PUSH1 0x1F AND DUP3 ADD SWAP2 JUMPDEST POP POP POP POP POP SWAP1 DUP1 PUSH1 0x3 ADD SLOAD SWAP1 DUP1 PUSH1 0x4 ADD PUSH0 SWAP1 SLOAD SWAP1 PUSH2 0x100 EXP SWAP1 DIV PUSH1 0xFF AND SWAP1 DUP1 PUSH1 0x4 ADD PUSH1 0x1 SWAP1 SLOAD SWAP1 PUSH2 0x100 EXP SWAP1 DIV PUSH1 0xFF AND SWAP1 DUP1 PUSH1 0x4 ADD PUSH1 0x2 SWAP1 SLOAD SWAP1 PUSH2 0x100 EXP SWAP1 DIV PUSH1 0xFF AND SWAP1 POP DUP8 JUMP JUMPDEST PUSH0 PUSH1 0x2 DUP4 DUP2 SLOAD DUP2 LT PUSH2 0x9A9 JUMPI PUSH2 0x9A8 PUSH2 0x3668 JUMP JUMPDEST JUMPDEST SWAP1 PUSH0 MSTORE PUSH1 0x20 PUSH0 KECCAK256 SWAP1 PUSH1 0x6 MUL ADD PUSH0 ADD SLOAD SWAP1 POP PUSH1 0x2 DUP1 SLOAD SWAP1 POP DUP4 LT PUSH2 0xA01 JUMPI PUSH1 0x40 MLOAD PUSH32 0x8C379A000000000000000000000000000000000000000000000000000000000 DUP2 MSTORE PUSH1 0x4 ADD PUSH2 0x9F8 SWAP1 PUSH2 0x3747 JUMP JUMPDEST PUSH1 0x40 MLOAD DUP1 SWAP2 SUB SWAP1 REVERT JUMPDEST PUSH0 PUSH20 0xFFFFFFFFFFFFFFFFFFFFFFFFFFFFFFFFFFFFFFFF AND PUSH1 0x2 DUP5 DUP2 SLOAD DUP2 LT PUSH2 0xA2C JUMPI PUSH2 0xA2B PUSH2 0x3668 JUMP JUMPDEST JUMPDEST SWAP1 PUSH0 MSTORE PUSH1 0x20 PUSH0 KECCAK256 SWAP1 PUSH1 0x6 MUL ADD PUSH1 0x2 ADD PUSH0 SWAP1 SLOAD SWAP1 PUSH2 0x100 EXP SWAP1 DIV PUSH20 0xFFFFFFFFFFFFFFFFFFFFFFFFFFFFFFFFFFFFFFFF AND PUSH20 0xFFFFFFFFFFFFFFFFFFFFFFFFFFFFFFFFFFFFFFFF AND EQ PUSH2 0xAB1 JUMPI PUSH1 0x40 MLOAD PUSH32 0x8C379A000000000000000000000000000000000000000000000000000000000 DUP2 MSTORE PUSH1 0x4 ADD PUSH2 0xAA8 SWAP1 PUSH2 0x37AF JUMP JUMPDEST PUSH1 0x40 MLOAD DUP1 SWAP2 SUB SWAP1 REVERT JUMPDEST CALLER PUSH20 0xFFFFFFFFFFFFFFFFFFFFFFFFFFFFFFFFFFFFFFFF AND PUSH1 0x2 DUP5 DUP2 SLOAD DUP2 LT PUSH2 0xADC JUMPI PUSH2 0xADB PUSH2 0x3668 JUMP JUMPDEST JUMPDEST SWAP1 PUSH0 MSTORE PUSH1 0x20 PUSH0 KECCAK256 SWAP1 PUSH1 0x6 MUL ADD PUSH1 0x1 ADD PUSH0 SWAP1 SLOAD SWAP1 PUSH2 0x100 EXP SWAP1 DIV PUSH20 0xFFFFFFFFFFFFFFFFFFFFFFFFFFFFFFFFFFFFFFFF AND PUSH20 0xFFFFFFFFFFFFFFFFFFFFFFFFFFFFFFFFFFFFFFFF AND EQ PUSH2 0xB61 JUMPI PUSH1 0x40 MLOAD PUSH32 0x8C379A000000000000000000000000000000000000000000000000000000000 DUP2 MSTORE PUSH1 0x4 ADD PUSH2 0xB58 SWAP1 PUSH2 0x38DC JUMP JUMPDEST PUSH1 0x40 MLOAD DUP1 SWAP2 SUB SWAP1 REVERT JUMPDEST PUSH0 ISZERO ISZERO PUSH0 DUP3 DUP2 SLOAD DUP2 LT PUSH2 0xB77 JUMPI PUSH2 0xB76 PUSH2 0x3668 JUMP JUMPDEST JUMPDEST SWAP1 PUSH0 MSTORE PUSH1 0x20 PUSH0 KECCAK256 SWAP1 PUSH1 0x5 MUL ADD PUSH1 0x4 ADD PUSH1 0x2 SWAP1 SLOAD SWAP1 PUSH2 0x100 EXP SWAP1 DIV PUSH1 0xFF AND ISZERO ISZERO EQ PUSH2 0xBD6 JUMPI PUSH1 0x40 MLOAD PUSH32 0x8C379A000000000000000000000000000000000000000000000000000000000 DUP2 MSTORE PUSH1 0x4 ADD PUSH2 0xBCD SWAP1 PUSH2 0x3944 JUMP JUMPDEST PUSH1 0x40 MLOAD DUP1 SWAP2 SUB SWAP1 REVERT JUMPDEST PUSH0 JUMPDEST PUSH1 0x2 DUP5 DUP2 SLOAD DUP2 LT PUSH2 0xBEC JUMPI PUSH2 0xBEB PUSH2 0x3668 JUMP JUMPDEST JUMPDEST SWAP1 PUSH0 MSTORE PUSH1 0x20 PUSH0 KECCAK256 SWAP1 PUSH1 0x6 MUL ADD PUSH1 0x4 ADD DUP1 SLOAD SWAP1 POP DUP2 LT ISZERO PUSH2 0xF39 JUMPI DUP3 DUP2 EQ PUSH2 0xCEF JUMPI PUSH1 0x2 DUP5 DUP2 SLOAD DUP2 LT PUSH2 0xC21 JUMPI PUSH2 0xC20 PUSH2 0x3668 JUMP JUMPDEST JUMPDEST SWAP1 PUSH0 MSTORE PUSH1 0x20 PUSH0 KECCAK256 SWAP1 PUSH1 0x6 MUL ADD PUSH1 0x4 ADD DUP2 DUP2 SLOAD DUP2 LT PUSH2 0xC42 JUMPI PUSH2 0xC41 PUSH2 0x3668 JUMP JUMPDEST JUMPDEST SWAP1 PUSH0 MSTORE PUSH1 0x20 PUSH0 KECCAK256 ADD PUSH0 SWAP1 SLOAD SWAP1 PUSH2 0x100 EXP SWAP1 DIV PUSH20 0xFFFFFFFFFFFFFFFFFFFFFFFFFFFFFFFFFFFFFFFF AND PUSH20 0xFFFFFFFFFFFFFFFFFFFFFFFFFFFFFFFFFFFFFFFF AND PUSH2 0x8FC PUSH1 0x2 DUP7 DUP2 SLOAD DUP2 LT PUSH2 0xC97 JUMPI PUSH2 0xC96 PUSH2 0x3668 JUMP JUMPDEST JUMPDEST SWAP1 PUSH0 MSTORE PUSH1 0x20 PUSH0 KECCAK256 SWAP1 PUSH1 0x6 MUL ADD PUSH1 0x5 ADD DUP4 DUP2 SLOAD DUP2 LT PUSH2 0xCB8 JUMPI PUSH2 0xCB7 PUSH2 0x3668 JUMP JUMPDEST JUMPDEST SWAP1 PUSH0 MSTORE PUSH1 0x20 PUSH0 KECCAK256 ADD SLOAD SWAP1 DUP2 ISZERO MUL SWAP1 PUSH1 0x40 MLOAD PUSH0 PUSH1 0x40 MLOAD DUP1 DUP4 SUB DUP2 DUP6 DUP9 DUP9 CALL SWAP4 POP POP POP POP ISZERO DUP1 ISZERO PUSH2 0xCE9 JUMPI RETURNDATASIZE PUSH0 DUP1 RETURNDATACOPY RETURNDATASIZE PUSH0 REVERT JUMPDEST POP PUSH2 0xF2C JUMP JUMPDEST PUSH1 0x2 DUP5 DUP2 SLOAD DUP2 LT PUSH2 0xD03 JUMPI PUSH2 0xD02 PUSH2 0x3668 JUMP JUMPDEST JUMPDEST SWAP1 PUSH0 MSTORE PUSH1 0x20 PUSH0 KECCAK256 SWAP1 PUSH1 0x6 MUL ADD PUSH1 0x1 ADD PUSH0 SWAP1 SLOAD SWAP1 PUSH2 0x100 EXP SWAP1 DIV PUSH20 0xFFFFFFFFFFFFFFFFFFFFFFFFFFFFFFFFFFFFFFFF AND PUSH20 0xFFFFFFFFFFFFFFFFFFFFFFFFFFFFFFFFFFFFFFFF AND PUSH2 0x8FC PUSH1 0x2 DUP7 DUP2 SLOAD DUP2 LT PUSH2 0xD5F JUMPI PUSH2 0xD5E PUSH2 0x3668 JUMP JUMPDEST JUMPDEST SWAP1 PUSH0 MSTORE PUSH1 0x20 PUSH0 KECCAK256 SWAP1 PUSH1 0x6 MUL ADD PUSH1 0x5 ADD DUP6 DUP2 SLOAD DUP2 LT PUSH2 0xD80 JUMPI PUSH2 0xD7F PUSH2 0x3668 JUMP JUMPDEST JUMPDEST SWAP1 PUSH0 MSTORE PUSH1 0x20 PUSH0 KECCAK256 ADD SLOAD SWAP1 DUP2 ISZERO MUL SWAP1 PUSH1 0x40 MLOAD PUSH0 PUSH1 0x40 MLOAD DUP1 DUP4 SUB DUP2 DUP6 DUP9 DUP9 CALL SWAP4 POP POP POP POP ISZERO DUP1 ISZERO PUSH2 0xDB1 JUMPI RETURNDATASIZE PUSH0 DUP1 RETURNDATACOPY RETURNDATASIZE PUSH0 REVERT JUMPDEST POP PUSH1 0x2 DUP5 DUP2 SLOAD DUP2 LT PUSH2 0xDC6 JUMPI PUSH2 0xDC5 PUSH2 0x3668 JUMP JUMPDEST JUMPDEST SWAP1 PUSH0 MSTORE PUSH1 0x20 PUSH0 KECCAK256 SWAP1 PUSH1 0x6 MUL ADD PUSH1 0x4 ADD DUP4 DUP2 SLOAD DUP2 LT PUSH2 0xDE7 JUMPI PUSH2 0xDE6 PUSH2 0x3668 JUMP JUMPDEST JUMPDEST SWAP1 PUSH0 MSTORE PUSH1 0x20 PUSH0 KECCAK256 ADD PUSH0 SWAP1 SLOAD SWAP1 PUSH2 0x100 EXP SWAP1 DIV PUSH20 0xFFFFFFFFFFFFFFFFFFFFFFFFFFFFFFFFFFFFFFFF AND PUSH1 0x2 DUP6 DUP2 SLOAD DUP2 LT PUSH2 0xE23 JUMPI PUSH2 0xE22 PUSH2 0x3668 JUMP JUMPDEST JUMPDEST SWAP1 PUSH0 MSTORE PUSH1 0x20 PUSH0 KECCAK256 SWAP1 PUSH1 0x6 MUL ADD PUSH1 0x2 ADD PUSH0 PUSH2 0x100 EXP DUP2 SLOAD DUP2 PUSH20 0xFFFFFFFFFFFFFFFFFFFFFFFFFFFFFFFFFFFFFFFF MUL NOT AND SWAP1 DUP4 PUSH20 0xFFFFFFFFFFFFFFFFFFFFFFFFFFFFFFFFFFFFFFFF AND MUL OR SWAP1 SSTORE POP PUSH1 0x2 DUP5 DUP2 SLOAD DUP2 LT PUSH2 0xE83 JUMPI PUSH2 0xE82 PUSH2 0x3668 JUMP JUMPDEST JUMPDEST SWAP1 PUSH0 MSTORE PUSH1 0x20 PUSH0 KECCAK256 SWAP1 PUSH1 0x6 MUL ADD PUSH1 0x4 ADD DUP4 DUP2 SLOAD DUP2 LT PUSH2 0xEA4 JUMPI PUSH2 0xEA3 PUSH2 0x3668 JUMP JUMPDEST JUMPDEST SWAP1 PUSH0 MSTORE PUSH1 0x20 PUSH0 KECCAK256 ADD PUSH0 SWAP1 SLOAD SWAP1 PUSH2 0x100 EXP SWAP1 DIV PUSH20 0xFFFFFFFFFFFFFFFFFFFFFFFFFFFFFFFFFFFFFFFF AND PUSH0 DUP4 DUP2 SLOAD DUP2 LT PUSH2 0xEDF JUMPI PUSH2 0xEDE PUSH2 0x3668 JUMP JUMPDEST JUMPDEST SWAP1 PUSH0 MSTORE PUSH1 0x20 PUSH0 KECCAK256 SWAP1 PUSH1 0x5 MUL ADD PUSH1 0x1 ADD PUSH0 PUSH2 0x100 EXP DUP2 SLOAD DUP2 PUSH20 0xFFFFFFFFFFFFFFFFFFFFFFFFFFFFFFFFFFFFFFFF MUL NOT AND SWAP1 DUP4 PUSH20 0xFFFFFFFFFFFFFFFFFFFFFFFFFFFFFFFFFFFFFFFF AND MUL OR SWAP1 SSTORE POP JUMPDEST DUP1 DUP1 PUSH1 0x1 ADD SWAP2 POP POP PUSH2 0xBD8 JUMP JUMPDEST POP PUSH0 DUP1 DUP3 DUP2 SLOAD DUP2 LT PUSH2 0xF4E JUMPI PUSH2 0xF4D PUSH2 0x3668 JUMP JUMPDEST JUMPDEST SWAP1 PUSH0 MSTORE PUSH1 0x20 PUSH0 KECCAK256 SWAP1 PUSH1 0x5 MUL ADD PUSH1 0x4 ADD PUSH1 0x1 PUSH2 0x100 EXP DUP2 SLOAD DUP2 PUSH1 0xFF MUL NOT AND SWAP1 DUP4 ISZERO ISZERO MUL OR SWAP1 SSTORE POP POP POP POP JUMP JUMPDEST DUP2 CALLER PUSH20 0xFFFFFFFFFFFFFFFFFFFFFFFFFFFFFFFFFFFFFFFF AND PUSH0 DUP3 DUP2 SLOAD DUP2 LT PUSH2 0xFA4 JUMPI PUSH2 0xFA3 PUSH2 0x3668 JUMP JUMPDEST JUMPDEST SWAP1 PUSH0 MSTORE PUSH1 0x20 PUSH0 KECCAK256 SWAP1 PUSH1 0x5 MUL ADD PUSH1 0x1 ADD PUSH0 SWAP1 SLOAD SWAP1 PUSH2 0x100 EXP SWAP1 DIV PUSH20 0xFFFFFFFFFFFFFFFFFFFFFFFFFFFFFFFFFFFFFFFF AND PUSH20 0xFFFFFFFFFFFFFFFFFFFFFFFFFFFFFFFFFFFFFFFF AND EQ PUSH2 0x1029 JUMPI PUSH1 0x40 MLOAD PUSH32 0x8C379A000000000000000000000000000000000000000000000000000000000 DUP2 MSTORE PUSH1 0x4 ADD PUSH2 0x1020 SWAP1 PUSH2 0x39AC JUMP JUMPDEST PUSH1 0x40 MLOAD DUP1 SWAP2 SUB SWAP1 REVERT JUMPDEST DUP3 PUSH0 ISZERO ISZERO PUSH0 DUP3 DUP2 SLOAD DUP2 LT PUSH2 0x1040 JUMPI PUSH2 0x103F PUSH2 0x3668 JUMP JUMPDEST JUMPDEST SWAP1 PUSH0 MSTORE PUSH1 0x20 PUSH0 KECCAK256 SWAP1 PUSH1 0x5 MUL ADD PUSH1 0x4 ADD PUSH0 SWAP1 SLOAD SWAP1 PUSH2 0x100 EXP SWAP1 DIV PUSH1 0xFF AND ISZERO ISZERO EQ PUSH2 0x109E JUMPI PUSH1 0x40 MLOAD PUSH32 0x8C379A000000000000000000000000000000000000000000000000000000000 DUP2 MSTORE PUSH1 0x4 ADD PUSH2 0x1095 SWAP1 PUSH2 0x3A14 JUMP JUMPDEST PUSH1 0x40 MLOAD DUP1 SWAP2 SUB SWAP1 REVERT JUMPDEST PUSH0 ISZERO ISZERO PUSH0 DUP3 DUP2 SLOAD DUP2 LT PUSH2 0x10B4 JUMPI PUSH2 0x10B3 PUSH2 0x3668 JUMP JUMPDEST JUMPDEST SWAP1 PUSH0 MSTORE PUSH1 0x20 PUSH0 KECCAK256 SWAP1 PUSH1 0x5 MUL ADD PUSH1 0x4 ADD PUSH1 0x1 SWAP1 SLOAD SWAP1 PUSH2 0x100 EXP SWAP1 DIV PUSH1 0xFF AND ISZERO ISZERO EQ PUSH2 0x1113 JUMPI PUSH1 0x40 MLOAD PUSH32 0x8C379A000000000000000000000000000000000000000000000000000000000 DUP2 MSTORE PUSH1 0x4 ADD PUSH2 0x110A SWAP1 PUSH2 0x3A7C JUMP JUMPDEST PUSH1 0x40 MLOAD DUP1 SWAP2 SUB SWAP1 REVERT JUMPDEST PUSH0 ISZERO ISZERO PUSH0 DUP3 DUP2 SLOAD DUP2 LT PUSH2 0x1129 JUMPI PUSH2 0x1128 PUSH2 0x3668 JUMP JUMPDEST JUMPDEST SWAP1 PUSH0 MSTORE PUSH1 0x20 PUSH0 KECCAK256 SWAP1 PUSH1 0x5 MUL ADD PUSH1 0x4 ADD PUSH1 0x2 SWAP1 SLOAD SWAP1 PUSH2 0x100 EXP SWAP1 DIV PUSH1 0xFF AND ISZERO ISZERO EQ PUSH2 0x1188 JUMPI PUSH1 0x40 MLOAD PUSH32 0x8C379A000000000000000000000000000000000000000000000000000000000 DUP2 MSTORE PUSH1 0x4 ADD PUSH2 0x117F SWAP1 PUSH2 0x3AE4 JUMP JUMPDEST PUSH1 0x40 MLOAD DUP1 SWAP2 SUB SWAP1 REVERT JUMPDEST PUSH0 PUSH20 0xFFFFFFFFFFFFFFFFFFFFFFFFFFFFFFFFFFFFFFFF AND DUP4 PUSH20 0xFFFFFFFFFFFFFFFFFFFFFFFFFFFFFFFFFFFFFFFF AND SUB PUSH2 0x11F6 JUMPI PUSH1 0x40 MLOAD PUSH32 0x8C379A000000000000000000000000000000000000000000000000000000000 DUP2 MSTORE PUSH1 0x4 ADD PUSH2 0x11ED SWAP1 PUSH2 0x3B4C JUMP JUMPDEST PUSH1 0x40 MLOAD DUP1 SWAP2 SUB SWAP1 REVERT JUMPDEST PUSH0 DUP1 SLOAD SWAP1 POP DUP5 LT PUSH2 0x123C JUMPI PUSH1 0x40 MLOAD PUSH32 0x8C379A000000000000000000000000000000000000000000000000000000000 DUP2 MSTORE PUSH1 0x4 ADD PUSH2 0x1233 SWAP1 PUSH2 0x3BB4 JUMP JUMPDEST PUSH1 0x40 MLOAD DUP1 SWAP2 SUB SWAP1 REVERT JUMPDEST CALLER PUSH20 0xFFFFFFFFFFFFFFFFFFFFFFFFFFFFFFFFFFFFFFFF AND DUP4 PUSH20 0xFFFFFFFFFFFFFFFFFFFFFFFFFFFFFFFFFFFFFFFF AND SUB PUSH2 0x12AA JUMPI PUSH1 0x40 MLOAD PUSH32 0x8C379A000000000000000000000000000000000000000000000000000000000 DUP2 MSTORE PUSH1 0x4 ADD PUSH2 0x12A1 SWAP1 PUSH2 0x3C1C JUMP JUMPDEST PUSH1 0x40 MLOAD DUP1 SWAP2 SUB SWAP1 REVERT JUMPDEST PUSH1 0x1 PUSH1 0x40 MLOAD DUP1 PUSH1 0xC0 ADD PUSH1 0x40 MSTORE DUP1 PUSH1 0x1 DUP1 SLOAD SWAP1 POP DUP2 MSTORE PUSH1 0x20 ADD DUP7 DUP2 MSTORE PUSH1 0x20 ADD CALLER PUSH20 0xFFFFFFFFFFFFFFFFFFFFFFFFFFFFFFFFFFFFFFFF AND DUP2 MSTORE PUSH1 0x20 ADD DUP6 PUSH20 0xFFFFFFFFFFFFFFFFFFFFFFFFFFFFFFFFFFFFFFFF AND DUP2 MSTORE PUSH1 0x20 ADD TIMESTAMP PUSH1 0x4 SLOAD PUSH2 0x130E SWAP2 SWAP1 PUSH2 0x3C67 JUMP JUMPDEST DUP2 MSTORE PUSH1 0x20 ADD PUSH0 PUSH1 0x4 DUP2 GT ISZERO PUSH2 0x1326 JUMPI PUSH2 0x1325 PUSH2 0x3515 JUMP JUMPDEST JUMPDEST DUP2 MSTORE POP SWAP1 DUP1 PUSH1 0x1 DUP2 SLOAD ADD DUP1 DUP3 SSTORE DUP1 SWAP2 POP POP PUSH1 0x1 SWAP1 SUB SWAP1 PUSH0 MSTORE PUSH1 0x20 PUSH0 KECCAK256 SWAP1 PUSH1 0x6 MUL ADD PUSH0 SWAP1 SWAP2 SWAP1 SWAP2 SWAP1 SWAP2 POP PUSH0 DUP3 ADD MLOAD DUP2 PUSH0 ADD SSTORE PUSH1 0x20 DUP3 ADD MLOAD DUP2 PUSH1 0x1 ADD SSTORE PUSH1 0x40 DUP3 ADD MLOAD DUP2 PUSH1 0x2 ADD PUSH0 PUSH2 0x100 EXP DUP2 SLOAD DUP2 PUSH20 0xFFFFFFFFFFFFFFFFFFFFFFFFFFFFFFFFFFFFFFFF MUL NOT AND SWAP1 DUP4 PUSH20 0xFFFFFFFFFFFFFFFFFFFFFFFFFFFFFFFFFFFFFFFF AND MUL OR SWAP1 SSTORE POP PUSH1 0x60 DUP3 ADD MLOAD DUP2 PUSH1 0x3 ADD PUSH0 PUSH2 0x100 EXP DUP2 SLOAD DUP2 PUSH20 0xFFFFFFFFFFFFFFFFFFFFFFFFFFFFFFFFFFFFFFFF MUL NOT AND SWAP1 DUP4 PUSH20 0xFFFFFFFFFFFFFFFFFFFFFFFFFFFFFFFFFFFFFFFF AND MUL OR SWAP1 SSTORE POP PUSH1 0x80 DUP3 ADD MLOAD DUP2 PUSH1 0x4 ADD SSTORE PUSH1 0xA0 DUP3 ADD MLOAD DUP2 PUSH1 0x5 ADD PUSH0 PUSH2 0x100 EXP DUP2 SLOAD DUP2 PUSH1 0xFF MUL NOT AND SWAP1 DUP4 PUSH1 0x4 DUP2 GT ISZERO PUSH2 0x1421 JUMPI PUSH2 0x1420 PUSH2 0x3515 JUMP JUMPDEST JUMPDEST MUL OR SWAP1 SSTORE POP POP POP PUSH1 0x1 PUSH0 DUP6 DUP2 SLOAD DUP2 LT PUSH2 0x143D JUMPI PUSH2 0x143C PUSH2 0x3668 JUMP JUMPDEST JUMPDEST SWAP1 PUSH0 MSTORE PUSH1 0x20 PUSH0 KECCAK256 SWAP1 PUSH1 0x5 MUL ADD PUSH1 0x4 ADD PUSH0 PUSH2 0x100 EXP DUP2 SLOAD DUP2 PUSH1 0xFF MUL NOT AND SWAP1 DUP4 ISZERO ISZERO MUL OR SWAP1 SSTORE POP POP POP POP POP JUMP JUMPDEST DUP2 CALLER PUSH20 0xFFFFFFFFFFFFFFFFFFFFFFFFFFFFFFFFFFFFFFFF AND PUSH0 DUP3 DUP2 SLOAD DUP2 LT PUSH2 0x1493 JUMPI PUSH2 0x1492 PUSH2 0x3668 JUMP JUMPDEST JUMPDEST SWAP1 PUSH0 MSTORE PUSH1 0x20 PUSH0 KECCAK256 SWAP1 PUSH1 0x5 MUL ADD PUSH1 0x1 ADD PUSH0 SWAP1 SLOAD SWAP1 PUSH2 0x100 EXP SWAP1 DIV PUSH20 0xFFFFFFFFFFFFFFFFFFFFFFFFFFFFFFFFFFFFFFFF AND PUSH20 0xFFFFFFFFFFFFFFFFFFFFFFFFFFFFFFFFFFFFFFFF AND EQ PUSH2 0x1518 JUMPI PUSH1 0x40 MLOAD PUSH32 0x8C379A000000000000000000000000000000000000000000000000000000000 DUP2 MSTORE PUSH1 0x4 ADD PUSH2 0x150F SWAP1 PUSH2 0x39AC JUMP JUMPDEST PUSH1 0x40 MLOAD DUP1 SWAP2 SUB SWAP1 REVERT JUMPDEST DUP3 PUSH0 ISZERO ISZERO PUSH0 DUP3 DUP2 SLOAD DUP2 LT PUSH2 0x152F JUMPI PUSH2 0x152E PUSH2 0x3668 JUMP JUMPDEST JUMPDEST SWAP1 PUSH0 MSTORE PUSH1 0x20 PUSH0 KECCAK256 SWAP1 PUSH1 0x5 MUL ADD PUSH1 0x4 ADD PUSH0 SWAP1 SLOAD SWAP1 PUSH2 0x100 EXP SWAP1 DIV PUSH1 0xFF AND ISZERO ISZERO EQ PUSH2 0x158D JUMPI PUSH1 0x40 MLOAD PUSH32 0x8C379A000000000000000000000000000000000000000000000000000000000 DUP2 MSTORE PUSH1 0x4 ADD PUSH2 0x1584 SWAP1 PUSH2 0x3A14 JUMP JUMPDEST PUSH1 0x40 MLOAD DUP1 SWAP2 SUB SWAP1 REVERT JUMPDEST PUSH0 ISZERO ISZERO PUSH0 DUP3 DUP2 SLOAD DUP2 LT PUSH2 0x15A3 JUMPI PUSH2 0x15A2 PUSH2 0x3668 JUMP JUMPDEST JUMPDEST SWAP1 PUSH0 MSTORE PUSH1 0x20 PUSH0 KECCAK256 SWAP1 PUSH1 0x5 MUL ADD PUSH1 0x4 ADD PUSH1 0x1 SWAP1 SLOAD SWAP1 PUSH2 0x100 EXP SWAP1 DIV PUSH1 0xFF AND ISZERO ISZERO EQ PUSH2 0x1602 JUMPI PUSH1 0x40 MLOAD PUSH32 0x8C379A000000000000000000000000000000000000000000000000000000000 DUP2 MSTORE PUSH1 0x4 ADD PUSH2 0x15F9 SWAP1 PUSH2 0x3A7C JUMP JUMPDEST PUSH1 0x40 MLOAD DUP1 SWAP2 SUB SWAP1 REVERT JUMPDEST PUSH0 ISZERO ISZERO PUSH0 DUP3 DUP2 SLOAD DUP2 LT PUSH2 0x1618 JUMPI PUSH2 0x1617 PUSH2 0x3668 JUMP JUMPDEST JUMPDEST SWAP1 PUSH0 MSTORE PUSH1 0x20 PUSH0 KECCAK256 SWAP1 PUSH1 0x5 MUL ADD PUSH1 0x4 ADD PUSH1 0x2 SWAP1 SLOAD SWAP1 PUSH2 0x100 EXP SWAP1 DIV PUSH1 0xFF AND ISZERO ISZERO EQ PUSH2 0x1677 JUMPI PUSH1 0x40 MLOAD PUSH32 0x8C379A000000000000000000000000000000000000000000000000000000000 DUP2 MSTORE PUSH1 0x4 ADD PUSH2 0x166E SWAP1 PUSH2 0x3AE4 JUMP JUMPDEST PUSH1 0x40 MLOAD DUP1 SWAP2 SUB SWAP1 REVERT JUMPDEST PUSH0 DUP1 SLOAD SWAP1 POP DUP5 LT PUSH2 0x16BD JUMPI PUSH1 0x40 MLOAD PUSH32 0x8C379A000000000000000000000000000000000000000000000000000000000 DUP2 MSTORE PUSH1 0x4 ADD PUSH2 0x16B4 SWAP1 PUSH2 0x3BB4 JUMP JUMPDEST PUSH1 0x40 MLOAD DUP1 SWAP2 SUB SWAP1 REVERT JUMPDEST PUSH4 0x3B9ACA00 DUP4 GT PUSH2 0x16CC JUMPI PUSH0 DUP1 REVERT JUMPDEST PUSH1 0x60 DUP1 PUSH1 0x2 PUSH1 0x40 MLOAD DUP1 PUSH1 0xC0 ADD PUSH1 0x40 MSTORE DUP1 DUP9 DUP2 MSTORE PUSH1 0x20 ADD CALLER PUSH20 0xFFFFFFFFFFFFFFFFFFFFFFFFFFFFFFFFFFFFFFFF AND DUP2 MSTORE PUSH1 0x20 ADD PUSH0 PUSH20 0xFFFFFFFFFFFFFFFFFFFFFFFFFFFFFFFFFFFFFFFF AND DUP2 MSTORE PUSH1 0x20 ADD DUP8 DUP2 MSTORE PUSH1 0x20 ADD DUP5 DUP2 MSTORE PUSH1 0x20 ADD DUP4 DUP2 MSTORE POP SWAP1 DUP1 PUSH1 0x1 DUP2 SLOAD ADD DUP1 DUP3 SSTORE DUP1 SWAP2 POP POP PUSH1 0x1 SWAP1 SUB SWAP1 PUSH0 MSTORE PUSH1 0x20 PUSH0 KECCAK256 SWAP1 PUSH1 0x6 MUL ADD PUSH0 SWAP1 SWAP2 SWAP1 SWAP2 SWAP1 SWAP2 POP PUSH0 DUP3 ADD MLOAD DUP2 PUSH0 ADD SSTORE PUSH1 0x20 DUP3 ADD MLOAD DUP2 PUSH1 0x1 ADD PUSH0 PUSH2 0x100 EXP DUP2 SLOAD DUP2 PUSH20 0xFFFFFFFFFFFFFFFFFFFFFFFFFFFFFFFFFFFFFFFF MUL NOT AND SWAP1 DUP4 PUSH20 0xFFFFFFFFFFFFFFFFFFFFFFFFFFFFFFFFFFFFFFFF AND MUL OR SWAP1 SSTORE POP PUSH1 0x40 DUP3 ADD MLOAD DUP2 PUSH1 0x2 ADD PUSH0 PUSH2 0x100 EXP DUP2 SLOAD DUP2 PUSH20 0xFFFFFFFFFFFFFFFFFFFFFFFFFFFFFFFFFFFFFFFF MUL NOT AND SWAP1 DUP4 PUSH20 0xFFFFFFFFFFFFFFFFFFFFFFFFFFFFFFFFFFFFFFFF AND MUL OR SWAP1 SSTORE POP PUSH1 0x60 DUP3 ADD MLOAD DUP2 PUSH1 0x3 ADD SSTORE PUSH1 0x80 DUP3 ADD MLOAD DUP2 PUSH1 0x4 ADD SWAP1 DUP1 MLOAD SWAP1 PUSH1 0x20 ADD SWAP1 PUSH2 0x180A SWAP3 SWAP2 SWAP1 PUSH2 0x2DBD JUMP JUMPDEST POP PUSH1 0xA0 DUP3 ADD MLOAD DUP2 PUSH1 0x5 ADD SWAP1 DUP1 MLOAD SWAP1 PUSH1 0x20 ADD SWAP1 PUSH2 0x1827 SWAP3 SWAP2 SWAP1 PUSH2 0x2E44 JUMP JUMPDEST POP POP POP PUSH1 0x1 PUSH0 DUP8 DUP2 SLOAD DUP2 LT PUSH2 0x183F JUMPI PUSH2 0x183E PUSH2 0x3668 JUMP JUMPDEST JUMPDEST SWAP1 PUSH0 MSTORE PUSH1 0x20 PUSH0 KECCAK256 SWAP1 PUSH1 0x5 MUL ADD PUSH1 0x4 ADD PUSH1 0x1 PUSH2 0x100 EXP DUP2 SLOAD DUP2 PUSH1 0xFF MUL NOT AND SWAP1 DUP4 ISZERO ISZERO MUL OR SWAP1 SSTORE POP POP POP POP POP POP POP JUMP JUMPDEST PUSH1 0x60 PUSH1 0x2 DUP3 DUP2 SLOAD DUP2 LT PUSH2 0x1883 JUMPI PUSH2 0x1882 PUSH2 0x3668 JUMP JUMPDEST JUMPDEST SWAP1 PUSH0 MSTORE PUSH1 0x20 PUSH0 KECCAK256 SWAP1 PUSH1 0x6 MUL ADD PUSH1 0x4 ADD DUP1 SLOAD DUP1 PUSH1 0x20 MUL PUSH1 0x20 ADD PUSH1 0x40 MLOAD SWAP1 DUP2 ADD PUSH1 0x40 MSTORE DUP1 SWAP3 SWAP2 SWAP1 DUP2 DUP2 MSTORE PUSH1 0x20 ADD DUP3 DUP1 SLOAD DUP1 ISZERO PUSH2 0x190F JUMPI PUSH1 0x20 MUL DUP3 ADD SWAP2 SWAP1 PUSH0 MSTORE PUSH1 0x20 PUSH0 KECCAK256 SWAP1 JUMPDEST DUP2 PUSH0 SWAP1 SLOAD SWAP1 PUSH2 0x100 EXP SWAP1 DIV PUSH20 0xFFFFFFFFFFFFFFFFFFFFFFFFFFFFFFFFFFFFFFFF AND PUSH20 0xFFFFFFFFFFFFFFFFFFFFFFFFFFFFFFFFFFFFFFFF AND DUP2 MSTORE PUSH1 0x20 ADD SWAP1 PUSH1 0x1 ADD SWAP1 DUP1 DUP4 GT PUSH2 0x18C6 JUMPI JUMPDEST POP POP POP POP POP SWAP1 POP SWAP2 SWAP1 POP JUMP JUMPDEST PUSH0 PUSH1 0x2 DUP3 DUP2 SLOAD DUP2 LT PUSH2 0x1930 JUMPI PUSH2 0x192F PUSH2 0x3668 JUMP JUMPDEST JUMPDEST SWAP1 PUSH0 MSTORE PUSH1 0x20 PUSH0 KECCAK256 SWAP1 PUSH1 0x6 MUL ADD PUSH0 ADD SLOAD SWAP1 POP PUSH1 0x2 DUP1 SLOAD SWAP1 POP DUP3 LT PUSH2 0x1988 JUMPI PUSH1 0x40 MLOAD PUSH32 0x8C379A000000000000000000000000000000000000000000000000000000000 DUP2 MSTORE PUSH1 0x4 ADD PUSH2 0x197F SWAP1 PUSH2 0x3747 JUMP JUMPDEST PUSH1 0x40 MLOAD DUP1 SWAP2 SUB SWAP1 REVERT JUMPDEST PUSH0 PUSH20 0xFFFFFFFFFFFFFFFFFFFFFFFFFFFFFFFFFFFFFFFF AND PUSH1 0x2 DUP4 DUP2 SLOAD DUP2 LT PUSH2 0x19B3 JUMPI PUSH2 0x19B2 PUSH2 0x3668 JUMP JUMPDEST JUMPDEST SWAP1 PUSH0 MSTORE PUSH1 0x20 PUSH0 KECCAK256 SWAP1 PUSH1 0x6 MUL ADD PUSH1 0x2 ADD PUSH0 SWAP1 SLOAD SWAP1 PUSH2 0x100 EXP SWAP1 DIV PUSH20 0xFFFFFFFFFFFFFFFFFFFFFFFFFFFFFFFFFFFFFFFF AND PUSH20 0xFFFFFFFFFFFFFFFFFFFFFFFFFFFFFFFFFFFFFFFF AND EQ PUSH2 0x1A38 JUMPI PUSH1 0x40 MLOAD PUSH32 0x8C379A000000000000000000000000000000000000000000000000000000000 DUP2 MSTORE PUSH1 0x4 ADD PUSH2 0x1A2F SWAP1 PUSH2 0x37AF JUMP JUMPDEST PUSH1 0x40 MLOAD DUP1 SWAP2 SUB SWAP1 REVERT JUMPDEST CALLER PUSH20 0xFFFFFFFFFFFFFFFFFFFFFFFFFFFFFFFFFFFFFFFF AND PUSH1 0x2 DUP4 DUP2 SLOAD DUP2 LT PUSH2 0x1A63 JUMPI PUSH2 0x1A62 PUSH2 0x3668 JUMP JUMPDEST JUMPDEST SWAP1 PUSH0 MSTORE PUSH1 0x20 PUSH0 KECCAK256 SWAP1 PUSH1 0x6 MUL ADD PUSH1 0x1 ADD PUSH0 SWAP1 SLOAD SWAP1 PUSH2 0x100 EXP SWAP1 DIV PUSH20 0xFFFFFFFFFFFFFFFFFFFFFFFFFFFFFFFFFFFFFFFF AND PUSH20 0xFFFFFFFFFFFFFFFFFFFFFFFFFFFFFFFFFFFFFFFF AND EQ PUSH2 0x1AE8 JUMPI PUSH1 0x40 MLOAD PUSH32 0x8C379A000000000000000000000000000000000000000000000000000000000 DUP2 MSTORE PUSH1 0x4 ADD PUSH2 0x1ADF SWAP1 PUSH2 0x38DC JUMP JUMPDEST PUSH1 0x40 MLOAD DUP1 SWAP2 SUB SWAP1 REVERT JUMPDEST PUSH0 JUMPDEST PUSH1 0x2 DUP4 DUP2 SLOAD DUP2 LT PUSH2 0x1AFE JUMPI PUSH2 0x1AFD PUSH2 0x3668 JUMP JUMPDEST JUMPDEST SWAP1 PUSH0 MSTORE PUSH1 0x20 PUSH0 KECCAK256 SWAP1 PUSH1 0x6 MUL ADD PUSH1 0x4 ADD DUP1 SLOAD SWAP1 POP DUP2 LT ISZERO PUSH2 0x1C02 JUMPI PUSH1 0x2 DUP4 DUP2 SLOAD DUP2 LT PUSH2 0x1B2C JUMPI PUSH2 0x1B2B PUSH2 0x3668 JUMP JUMPDEST JUMPDEST SWAP1 PUSH0 MSTORE PUSH1 0x20 PUSH0 KECCAK256 SWAP1 PUSH1 0x6 MUL ADD PUSH1 0x4 ADD DUP2 DUP2 SLOAD DUP2 LT PUSH2 0x1B4D JUMPI PUSH2 0x1B4C PUSH2 0x3668 JUMP JUMPDEST JUMPDEST SWAP1 PUSH0 MSTORE PUSH1 0x20 PUSH0 KECCAK256 ADD PUSH0 SWAP1 SLOAD SWAP1 PUSH2 0x100 EXP SWAP1 DIV PUSH20 0xFFFFFFFFFFFFFFFFFFFFFFFFFFFFFFFFFFFFFFFF AND PUSH20 0xFFFFFFFFFFFFFFFFFFFFFFFFFFFFFFFFFFFFFFFF AND PUSH2 0x8FC PUSH1 0x2 DUP6 DUP2 SLOAD DUP2 LT PUSH2 0x1BA2 JUMPI PUSH2 0x1BA1 PUSH2 0x3668 JUMP JUMPDEST JUMPDEST SWAP1 PUSH0 MSTORE PUSH1 0x20 PUSH0 KECCAK256 SWAP1 PUSH1 0x6 MUL ADD PUSH1 0x5 ADD DUP4 DUP2 SLOAD DUP2 LT PUSH2 0x1BC3 JUMPI PUSH2 0x1BC2 PUSH2 0x3668 JUMP JUMPDEST JUMPDEST SWAP1 PUSH0 MSTORE PUSH1 0x20 PUSH0 KECCAK256 ADD SLOAD SWAP1 DUP2 ISZERO MUL SWAP1 PUSH1 0x40 MLOAD PUSH0 PUSH1 0x40 MLOAD DUP1 DUP4 SUB DUP2 DUP6 DUP9 DUP9 CALL SWAP4 POP POP POP POP ISZERO DUP1 ISZERO PUSH2 0x1BF4 JUMPI RETURNDATASIZE PUSH0 DUP1 RETURNDATACOPY RETURNDATASIZE PUSH0 REVERT JUMPDEST POP DUP1 DUP1 PUSH1 0x1 ADD SWAP2 POP POP PUSH2 0x1AEA JUMP JUMPDEST POP CALLER PUSH1 0x2 DUP4 DUP2 SLOAD DUP2 LT PUSH2 0x1C18 JUMPI PUSH2 0x1C17 PUSH2 0x3668 JUMP JUMPDEST JUMPDEST SWAP1 PUSH0 MSTORE PUSH1 0x20 PUSH0 KECCAK256 SWAP1 PUSH1 0x6 MUL ADD PUSH1 0x2 ADD PUSH0 PUSH2 0x100 EXP DUP2 SLOAD DUP2 PUSH20 0xFFFFFFFFFFFFFFFFFFFFFFFFFFFFFFFFFFFFFFFF MUL NOT AND SWAP1 DUP4 PUSH20 0xFFFFFFFFFFFFFFFFFFFFFFFFFFFFFFFFFFFFFFFF AND MUL OR SWAP1 SSTORE POP PUSH0 DUP1 DUP3 DUP2 SLOAD DUP2 LT PUSH2 0x1C78 JUMPI PUSH2 0x1C77 PUSH2 0x3668 JUMP JUMPDEST JUMPDEST SWAP1 PUSH0 MSTORE PUSH1 0x20 PUSH0 KECCAK256 SWAP1 PUSH1 0x5 MUL ADD PUSH1 0x4 ADD PUSH1 0x1 PUSH2 0x100 EXP DUP2 SLOAD DUP2 PUSH1 0xFF MUL NOT AND SWAP1 DUP4 ISZERO ISZERO MUL OR SWAP1 SSTORE POP POP POP JUMP JUMPDEST PUSH1 0x1 DUP1 SLOAD SWAP1 POP DUP2 LT PUSH2 0x1CB2 JUMPI PUSH0 DUP1 REVERT JUMPDEST PUSH0 PUSH1 0x4 DUP2 GT ISZERO PUSH2 0x1CC5 JUMPI PUSH2 0x1CC4 PUSH2 0x3515 JUMP JUMPDEST JUMPDEST PUSH1 0x1 DUP3 DUP2 SLOAD DUP2 LT PUSH2 0x1CD9 JUMPI PUSH2 0x1CD8 PUSH2 0x3668 JUMP JUMPDEST JUMPDEST SWAP1 PUSH0 MSTORE PUSH1 0x20 PUSH0 KECCAK256 SWAP1 PUSH1 0x6 MUL ADD PUSH1 0x5 ADD PUSH0 SWAP1 SLOAD SWAP1 PUSH2 0x100 EXP SWAP1 DIV PUSH1 0xFF AND PUSH1 0x4 DUP2 GT ISZERO PUSH2 0x1D07 JUMPI PUSH2 0x1D06 PUSH2 0x3515 JUMP JUMPDEST JUMPDEST EQ PUSH2 0x1D47 JUMPI PUSH1 0x40 MLOAD PUSH32 0x8C379A000000000000000000000000000000000000000000000000000000000 DUP2 MSTORE PUSH1 0x4 ADD PUSH2 0x1D3E SWAP1 PUSH2 0x3CE4 JUMP JUMPDEST PUSH1 0x40 MLOAD DUP1 SWAP2 SUB SWAP1 REVERT JUMPDEST CALLER PUSH20 0xFFFFFFFFFFFFFFFFFFFFFFFFFFFFFFFFFFFFFFFF AND PUSH1 0x1 DUP3 DUP2 SLOAD DUP2 LT PUSH2 0x1D72 JUMPI PUSH2 0x1D71 PUSH2 0x3668 JUMP JUMPDEST JUMPDEST SWAP1 PUSH0 MSTORE PUSH1 0x20 PUSH0 KECCAK256 SWAP1 PUSH1 0x6 MUL ADD PUSH1 0x2 ADD PUSH0 SWAP1 SLOAD SWAP1 PUSH2 0x100 EXP SWAP1 DIV PUSH20 0xFFFFFFFFFFFFFFFFFFFFFFFFFFFFFFFFFFFFFFFF AND PUSH20 0xFFFFFFFFFFFFFFFFFFFFFFFFFFFFFFFFFFFFFFFF AND EQ PUSH2 0x1DF7 JUMPI PUSH1 0x40 MLOAD PUSH32 0x8C379A000000000000000000000000000000000000000000000000000000000 DUP2 MSTORE PUSH1 0x4 ADD PUSH2 0x1DEE SWAP1 PUSH2 0x3D4C JUMP JUMPDEST PUSH1 0x40 MLOAD DUP1 SWAP2 SUB SWAP1 REVERT JUMPDEST PUSH0 PUSH1 0x1 DUP3 DUP2 SLOAD DUP2 LT PUSH2 0x1E0C JUMPI PUSH2 0x1E0B PUSH2 0x3668 JUMP JUMPDEST JUMPDEST SWAP1 PUSH0 MSTORE PUSH1 0x20 PUSH0 KECCAK256 SWAP1 PUSH1 0x6 MUL ADD PUSH1 0x1 ADD SLOAD SWAP1 POP TIMESTAMP PUSH1 0x1 DUP4 DUP2 SLOAD DUP2 LT PUSH2 0x1E33 JUMPI PUSH2 0x1E32 PUSH2 0x3668 JUMP JUMPDEST JUMPDEST SWAP1 PUSH0 MSTORE PUSH1 0x20 PUSH0 KECCAK256 SWAP1 PUSH1 0x6 MUL ADD PUSH1 0x4 ADD SLOAD GT ISZERO PUSH2 0x1E99 JUMPI PUSH1 0x4 PUSH1 0x1 DUP4 DUP2 SLOAD DUP2 LT PUSH2 0x1E5F JUMPI PUSH2 0x1E5E PUSH2 0x3668 JUMP JUMPDEST JUMPDEST SWAP1 PUSH0 MSTORE PUSH1 0x20 PUSH0 KECCAK256 SWAP1 PUSH1 0x6 MUL ADD PUSH1 0x5 ADD PUSH0 PUSH2 0x100 EXP DUP2 SLOAD DUP2 PUSH1 0xFF MUL NOT AND SWAP1 DUP4 PUSH1 0x4 DUP2 GT ISZERO PUSH2 0x1E8F JUMPI PUSH2 0x1E8E PUSH2 0x3515 JUMP JUMPDEST JUMPDEST MUL OR SWAP1 SSTORE POP PUSH2 0x1EE5 JUMP JUMPDEST PUSH1 0x3 PUSH1 0x1 DUP4 DUP2 SLOAD DUP2 LT PUSH2 0x1EAF JUMPI PUSH2 0x1EAE PUSH2 0x3668 JUMP JUMPDEST JUMPDEST SWAP1 PUSH0 MSTORE PUSH1 0x20 PUSH0 KECCAK256 SWAP1 PUSH1 0x6 MUL ADD PUSH1 0x5 ADD PUSH0 PUSH2 0x100 EXP DUP2 SLOAD DUP2 PUSH1 0xFF MUL NOT AND SWAP1 DUP4 PUSH1 0x4 DUP2 GT ISZERO PUSH2 0x1EDF JUMPI PUSH2 0x1EDE PUSH2 0x3515 JUMP JUMPDEST JUMPDEST MUL OR SWAP1 SSTORE POP JUMPDEST PUSH0 DUP1 DUP3 DUP2 SLOAD DUP2 LT PUSH2 0x1EF9 JUMPI PUSH2 0x1EF8 PUSH2 0x3668 JUMP JUMPDEST JUMPDEST SWAP1 PUSH0 MSTORE PUSH1 0x20 PUSH0 KECCAK256 SWAP1 PUSH1 0x5 MUL ADD PUSH1 0x4 ADD PUSH0 PUSH2 0x100 EXP DUP2 SLOAD DUP2 PUSH1 0xFF MUL NOT AND SWAP1 DUP4 ISZERO ISZERO MUL OR SWAP1 SSTORE POP POP POP JUMP JUMPDEST PUSH1 0x60 PUSH1 0x2 DUP3 DUP2 SLOAD DUP2 LT PUSH2 0x1F38 JUMPI PUSH2 0x1F37 PUSH2 0x3668 JUMP JUMPDEST JUMPDEST SWAP1 PUSH0 MSTORE PUSH1 0x20 PUSH0 KECCAK256 SWAP1 PUSH1 0x6 MUL ADD PUSH1 0x5 ADD DUP1 SLOAD DUP1 PUSH1 0x20 MUL PUSH1 0x20 ADD PUSH1 0x40 MLOAD SWAP1 DUP2 ADD PUSH1 0x40 MSTORE DUP1 SWAP3 SWAP2 SWAP1 DUP2 DUP2 MSTORE PUSH1 0x20 ADD DUP3 DUP1 SLOAD DUP1 ISZERO PUSH2 0x1F8F JUMPI PUSH1 0x20 MUL DUP3 ADD SWAP2 SWAP1 PUSH0 MSTORE PUSH1 0x20 PUSH0 KECCAK256 SWAP1 JUMPDEST DUP2 SLOAD DUP2 MSTORE PUSH1 0x20 ADD SWAP1 PUSH1 0x1 ADD SWAP1 DUP1 DUP4 GT PUSH2 0x1F7B JUMPI JUMPDEST POP POP POP POP POP SWAP1 POP SWAP2 SWAP1 POP JUMP JUMPDEST PUSH1 0x3 PUSH0 SWAP1 SLOAD SWAP1 PUSH2 0x100 EXP SWAP1 DIV PUSH20 0xFFFFFFFFFFFFFFFFFFFFFFFFFFFFFFFFFFFFFFFF AND PUSH20 0xFFFFFFFFFFFFFFFFFFFFFFFFFFFFFFFFFFFFFFFF AND CALLER PUSH20 0xFFFFFFFFFFFFFFFFFFFFFFFFFFFFFFFFFFFFFFFF AND EQ PUSH2 0x202A JUMPI PUSH1 0x40 MLOAD PUSH32 0x8C379A000000000000000000000000000000000000000000000000000000000 DUP2 MSTORE PUSH1 0x4 ADD PUSH2 0x2021 SWAP1 PUSH2 0x364A JUMP JUMPDEST PUSH1 0x40 MLOAD DUP1 SWAP2 SUB SWAP1 REVERT JUMPDEST PUSH0 PUSH20 0xFFFFFFFFFFFFFFFFFFFFFFFFFFFFFFFFFFFFFFFF AND DUP4 PUSH20 0xFFFFFFFFFFFFFFFFFFFFFFFFFFFFFFFFFFFFFFFF AND SUB PUSH2 0x2098 JUMPI PUSH1 0x40 MLOAD PUSH32 0x8C379A000000000000000000000000000000000000000000000000000000000 DUP2 MSTORE PUSH1 0x4 ADD PUSH2 0x208F SWAP1 PUSH2 0x3DB4 JUMP JUMPDEST PUSH1 0x40 MLOAD DUP1 SWAP2 SUB SWAP1 REVERT JUMPDEST PUSH0 DUP2 GT PUSH2 0x20DA JUMPI PUSH1 0x40 MLOAD PUSH32 0x8C379A000000000000000000000000000000000000000000000000000000000 DUP2 MSTORE PUSH1 0x4 ADD PUSH2 0x20D1 SWAP1 PUSH2 0x3E1C JUMP JUMPDEST PUSH1 0x40 MLOAD DUP1 SWAP2 SUB SWAP1 REVERT JUMPDEST PUSH0 PUSH1 0x40 MLOAD DUP1 PUSH1 0xE0 ADD PUSH1 0x40 MSTORE DUP1 PUSH0 DUP1 SLOAD SWAP1 POP DUP2 MSTORE PUSH1 0x20 ADD DUP6 PUSH20 0xFFFFFFFFFFFFFFFFFFFFFFFFFFFFFFFFFFFFFFFF AND DUP2 MSTORE PUSH1 0x20 ADD DUP5 DUP2 MSTORE PUSH1 0x20 ADD DUP4 DUP2 MSTORE PUSH1 0x20 ADD PUSH0 ISZERO ISZERO DUP2 MSTORE PUSH1 0x20 ADD PUSH0 ISZERO ISZERO DUP2 MSTORE PUSH1 0x20 ADD PUSH0 ISZERO ISZERO DUP2 MSTORE POP SWAP1 DUP1 PUSH1 0x1 DUP2 SLOAD ADD DUP1 DUP3 SSTORE DUP1 SWAP2 POP POP PUSH1 0x1 SWAP1 SUB SWAP1 PUSH0 MSTORE PUSH1 0x20 PUSH0 KECCAK256 SWAP1 PUSH1 0x5 MUL ADD PUSH0 SWAP1 SWAP2 SWAP1 SWAP2 SWAP1 SWAP2 POP PUSH0 DUP3 ADD MLOAD DUP2 PUSH0 ADD SSTORE PUSH1 0x20 DUP3 ADD MLOAD DUP2 PUSH1 0x1 ADD PUSH0 PUSH2 0x100 EXP DUP2 SLOAD DUP2 PUSH20 0xFFFFFFFFFFFFFFFFFFFFFFFFFFFFFFFFFFFFFFFF MUL NOT AND SWAP1 DUP4 PUSH20 0xFFFFFFFFFFFFFFFFFFFFFFFFFFFFFFFFFFFFFFFF AND MUL OR SWAP1 SSTORE POP PUSH1 0x40 DUP3 ADD MLOAD DUP2 PUSH1 0x2 ADD SWAP1 DUP2 PUSH2 0x21B7 SWAP2 SWAP1 PUSH2 0x3FD7 JUMP JUMPDEST POP PUSH1 0x60 DUP3 ADD MLOAD DUP2 PUSH1 0x3 ADD SSTORE PUSH1 0x80 DUP3 ADD MLOAD DUP2 PUSH1 0x4 ADD PUSH0 PUSH2 0x100 EXP DUP2 SLOAD DUP2 PUSH1 0xFF MUL NOT AND SWAP1 DUP4 ISZERO ISZERO MUL OR SWAP1 SSTORE POP PUSH1 0xA0 DUP3 ADD MLOAD DUP2 PUSH1 0x4 ADD PUSH1 0x1 PUSH2 0x100 EXP DUP2 SLOAD DUP2 PUSH1 0xFF MUL NOT AND SWAP1 DUP4 ISZERO ISZERO MUL OR SWAP1 SSTORE POP PUSH1 0xC0 DUP3 ADD MLOAD DUP2 PUSH1 0x4 ADD PUSH1 0x2 PUSH2 0x100 EXP DUP2 SLOAD DUP2 PUSH1 0xFF MUL NOT AND SWAP1 DUP4 ISZERO ISZERO MUL OR SWAP1 SSTORE POP POP POP POP POP POP JUMP JUMPDEST PUSH1 0x2 DUP2 DUP2 SLOAD DUP2 LT PUSH2 0x2237 JUMPI PUSH0 DUP1 REVERT JUMPDEST SWAP1 PUSH0 MSTORE PUSH1 0x20 PUSH0 KECCAK256 SWAP1 PUSH1 0x6 MUL ADD PUSH0 SWAP2 POP SWAP1 POP DUP1 PUSH0 ADD SLOAD SWAP1 DUP1 PUSH1 0x1 ADD PUSH0 SWAP1 SLOAD SWAP1 PUSH2 0x100 EXP SWAP1 DIV PUSH20 0xFFFFFFFFFFFFFFFFFFFFFFFFFFFFFFFFFFFFFFFF AND SWAP1 DUP1 PUSH1 0x2 ADD PUSH0 SWAP1 SLOAD SWAP1 PUSH2 0x100 EXP SWAP1 DIV PUSH20 0xFFFFFFFFFFFFFFFFFFFFFFFFFFFFFFFFFFFFFFFF AND SWAP1 DUP1 PUSH1 0x3 ADD SLOAD SWAP1 POP DUP5 JUMP JUMPDEST PUSH0 PUSH1 0x1 DUP3 DUP2 SLOAD DUP2 LT PUSH2 0x22B6 JUMPI PUSH2 0x22B5 PUSH2 0x3668 JUMP JUMPDEST JUMPDEST SWAP1 PUSH0 MSTORE PUSH1 0x20 PUSH0 KECCAK256 SWAP1 PUSH1 0x6 MUL ADD PUSH1 0x1 ADD SLOAD SWAP1 POP PUSH0 ISZERO ISZERO PUSH0 DUP3 DUP2 SLOAD DUP2 LT PUSH2 0x22DE JUMPI PUSH2 0x22DD PUSH2 0x3668 JUMP JUMPDEST JUMPDEST SWAP1 PUSH0 MSTORE PUSH1 0x20 PUSH0 KECCAK256 SWAP1 PUSH1 0x5 MUL ADD PUSH1 0x4 ADD PUSH1 0x2 SWAP1 SLOAD SWAP1 PUSH2 0x100 EXP SWAP1 DIV PUSH1 0xFF AND ISZERO ISZERO EQ PUSH2 0x233D JUMPI PUSH1 0x40 MLOAD PUSH32 0x8C379A000000000000000000000000000000000000000000000000000000000 DUP2 MSTORE PUSH1 0x4 ADD PUSH2 0x2334 SWAP1 PUSH2 0x3944 JUMP JUMPDEST PUSH1 0x40 MLOAD DUP1 SWAP2 SUB SWAP1 REVERT JUMPDEST PUSH1 0x1 DUP1 SLOAD SWAP1 POP DUP3 LT PUSH2 0x234D JUMPI PUSH0 DUP1 REVERT JUMPDEST PUSH0 PUSH1 0x4 DUP2 GT ISZERO PUSH2 0x2360 JUMPI PUSH2 0x235F PUSH2 0x3515 JUMP JUMPDEST JUMPDEST PUSH1 0x1 DUP4 DUP2 SLOAD DUP2 LT PUSH2 0x2374 JUMPI PUSH2 0x2373 PUSH2 0x3668 JUMP JUMPDEST JUMPDEST SWAP1 PUSH0 MSTORE PUSH1 0x20 PUSH0 KECCAK256 SWAP1 PUSH1 0x6 MUL ADD PUSH1 0x5 ADD PUSH0 SWAP1 SLOAD SWAP1 PUSH2 0x100 EXP SWAP1 DIV PUSH1 0xFF AND PUSH1 0x4 DUP2 GT ISZERO PUSH2 0x23A2 JUMPI PUSH2 0x23A1 PUSH2 0x3515 JUMP JUMPDEST JUMPDEST EQ PUSH2 0x23E2 JUMPI PUSH1 0x40 MLOAD PUSH32 0x8C379A000000000000000000000000000000000000000000000000000000000 DUP2 MSTORE PUSH1 0x4 ADD PUSH2 0x23D9 SWAP1 PUSH2 0x3CE4 JUMP JUMPDEST PUSH1 0x40 MLOAD DUP1 SWAP2 SUB SWAP1 REVERT JUMPDEST CALLER PUSH20 0xFFFFFFFFFFFFFFFFFFFFFFFFFFFFFFFFFFFFFFFF AND PUSH1 0x1 DUP4 DUP2 SLOAD DUP2 LT PUSH2 0x240D JUMPI PUSH2 0x240C PUSH2 0x3668 JUMP JUMPDEST JUMPDEST SWAP1 PUSH0 MSTORE PUSH1 0x20 PUSH0 KECCAK256 SWAP1 PUSH1 0x6 MUL ADD PUSH1 0x3 ADD PUSH0 SWAP1 SLOAD SWAP1 PUSH2 0x100 EXP SWAP1 DIV PUSH20 0xFFFFFFFFFFFFFFFFFFFFFFFFFFFFFFFFFFFFFFFF AND PUSH20 0xFFFFFFFFFFFFFFFFFFFFFFFFFFFFFFFFFFFFFFFF AND EQ PUSH2 0x2492 JUMPI PUSH1 0x40 MLOAD PUSH32 0x8C379A000000000000000000000000000000000000000000000000000000000 DUP2 MSTORE PUSH1 0x4 ADD PUSH2 0x2489 SWAP1 PUSH2 0x40F0 JUMP JUMPDEST PUSH1 0x40 MLOAD DUP1 SWAP2 SUB SWAP1 REVERT JUMPDEST TIMESTAMP PUSH1 0x1 DUP4 DUP2 SLOAD DUP2 LT PUSH2 0x24A7 JUMPI PUSH2 0x24A6 PUSH2 0x3668 JUMP JUMPDEST JUMPDEST SWAP1 PUSH0 MSTORE PUSH1 0x20 PUSH0 KECCAK256 SWAP1 PUSH1 0x6 MUL ADD PUSH1 0x4 ADD SLOAD GT ISZERO PUSH2 0x256D JUMPI PUSH1 0x2 PUSH1 0x1 DUP4 DUP2 SLOAD DUP2 LT PUSH2 0x24D3 JUMPI PUSH2 0x24D2 PUSH2 0x3668 JUMP JUMPDEST JUMPDEST SWAP1 PUSH0 MSTORE PUSH1 0x20 PUSH0 KECCAK256 SWAP1 PUSH1 0x6 MUL ADD PUSH1 0x5 ADD PUSH0 PUSH2 0x100 EXP DUP2 SLOAD DUP2 PUSH1 0xFF MUL NOT AND SWAP1 DUP4 PUSH1 0x4 DUP2 GT ISZERO PUSH2 0x2503 JUMPI PUSH2 0x2502 PUSH2 0x3515 JUMP JUMPDEST JUMPDEST MUL OR SWAP1 SSTORE POP CALLER PUSH0 DUP3 DUP2 SLOAD DUP2 LT PUSH2 0x251C JUMPI PUSH2 0x251B PUSH2 0x3668 JUMP JUMPDEST JUMPDEST SWAP1 PUSH0 MSTORE PUSH1 0x20 PUSH0 KECCAK256 SWAP1 PUSH1 0x5 MUL ADD PUSH1 0x1 ADD PUSH0 PUSH2 0x100 EXP DUP2 SLOAD DUP2 PUSH20 0xFFFFFFFFFFFFFFFFFFFFFFFFFFFFFFFFFFFFFFFF MUL NOT AND SWAP1 DUP4 PUSH20 0xFFFFFFFFFFFFFFFFFFFFFFFFFFFFFFFFFFFFFFFF AND MUL OR SWAP1 SSTORE POP PUSH2 0x25B9 JUMP JUMPDEST PUSH1 0x3 PUSH1 0x1 DUP4 DUP2 SLOAD DUP2 LT PUSH2 0x2583 JUMPI PUSH2 0x2582 PUSH2 0x3668 JUMP JUMPDEST JUMPDEST SWAP1 PUSH0 MSTORE PUSH1 0x20 PUSH0 KECCAK256 SWAP1 PUSH1 0x6 MUL ADD PUSH1 0x5 ADD PUSH0 PUSH2 0x100 EXP DUP2 SLOAD DUP2 PUSH1 0xFF MUL NOT AND SWAP1 DUP4 PUSH1 0x4 DUP2 GT ISZERO PUSH2 0x25B3 JUMPI PUSH2 0x25B2 PUSH2 0x3515 JUMP JUMPDEST JUMPDEST MUL OR SWAP1 SSTORE POP JUMPDEST PUSH0 DUP1 DUP3 DUP2 SLOAD DUP2 LT PUSH2 0x25CD JUMPI PUSH2 0x25CC PUSH2 0x3668 JUMP JUMPDEST JUMPDEST SWAP1 PUSH0 MSTORE PUSH1 0x20 PUSH0 KECCAK256 SWAP1 PUSH1 0x5 MUL ADD PUSH1 0x4 ADD PUSH0 PUSH2 0x100 EXP DUP2 SLOAD DUP2 PUSH1 0xFF MUL NOT AND SWAP1 DUP4 ISZERO ISZERO MUL OR SWAP1 SSTORE POP POP POP JUMP JUMPDEST PUSH1 0x1 DUP2 DUP2 SLOAD DUP2 LT PUSH2 0x2605 JUMPI PUSH0 DUP1 REVERT JUMPDEST SWAP1 PUSH0 MSTORE PUSH1 0x20 PUSH0 KECCAK256 SWAP1 PUSH1 0x6 MUL ADD PUSH0 SWAP2 POP SWAP1 POP DUP1 PUSH0 ADD SLOAD SWAP1 DUP1 PUSH1 0x1 ADD SLOAD SWAP1 DUP1 PUSH1 0x2 ADD PUSH0 SWAP1 SLOAD SWAP1 PUSH2 0x100 EXP SWAP1 DIV PUSH20 0xFFFFFFFFFFFFFFFFFFFFFFFFFFFFFFFFFFFFFFFF AND SWAP1 DUP1 PUSH1 0x3 ADD PUSH0 SWAP1 SLOAD SWAP1 PUSH2 0x100 EXP SWAP1 DIV PUSH20 0xFFFFFFFFFFFFFFFFFFFFFFFFFFFFFFFFFFFFFFFF AND SWAP1 DUP1 PUSH1 0x4 ADD SLOAD SWAP1 DUP1 PUSH1 0x5 ADD PUSH0 SWAP1 SLOAD SWAP1 PUSH2 0x100 EXP SWAP1 DIV PUSH1 0xFF AND SWAP1 POP DUP7 JUMP JUMPDEST PUSH0 PUSH1 0x1 DUP3 DUP2 SLOAD DUP2 LT PUSH2 0x269C JUMPI PUSH2 0x269B PUSH2 0x3668 JUMP JUMPDEST JUMPDEST SWAP1 PUSH0 MSTORE PUSH1 0x20 PUSH0 KECCAK256 SWAP1 PUSH1 0x6 MUL ADD PUSH1 0x1 ADD SLOAD SWAP1 POP PUSH1 0x1 DUP1 SLOAD SWAP1 POP DUP3 LT PUSH2 0x26BE JUMPI PUSH0 DUP1 REVERT JUMPDEST PUSH0 PUSH1 0x4 DUP2 GT ISZERO PUSH2 0x26D1 JUMPI PUSH2 0x26D0 PUSH2 0x3515 JUMP JUMPDEST JUMPDEST PUSH1 0x1 DUP4 DUP2 SLOAD DUP2 LT PUSH2 0x26E5 JUMPI PUSH2 0x26E4 PUSH2 0x3668 JUMP JUMPDEST JUMPDEST SWAP1 PUSH0 MSTORE PUSH1 0x20 PUSH0 KECCAK256 SWAP1 PUSH1 0x6 MUL ADD PUSH1 0x5 ADD PUSH0 SWAP1 SLOAD SWAP1 PUSH2 0x100 EXP SWAP1 DIV PUSH1 0xFF AND PUSH1 0x4 DUP2 GT ISZERO PUSH2 0x2713 JUMPI PUSH2 0x2712 PUSH2 0x3515 JUMP JUMPDEST JUMPDEST EQ PUSH2 0x2753 JUMPI PUSH1 0x40 MLOAD PUSH32 0x8C379A000000000000000000000000000000000000000000000000000000000 DUP2 MSTORE PUSH1 0x4 ADD PUSH2 0x274A SWAP1 PUSH2 0x3CE4 JUMP JUMPDEST PUSH1 0x40 MLOAD DUP1 SWAP2 SUB SWAP1 REVERT JUMPDEST CALLER PUSH20 0xFFFFFFFFFFFFFFFFFFFFFFFFFFFFFFFFFFFFFFFF AND PUSH1 0x1 DUP4 DUP2 SLOAD DUP2 LT PUSH2 0x277E JUMPI PUSH2 0x277D PUSH2 0x3668 JUMP JUMPDEST JUMPDEST SWAP1 PUSH0 MSTORE PUSH1 0x20 PUSH0 KECCAK256 SWAP1 PUSH1 0x6 MUL ADD PUSH1 0x3 ADD PUSH0 SWAP1 SLOAD SWAP1 PUSH2 0x100 EXP SWAP1 DIV PUSH20 0xFFFFFFFFFFFFFFFFFFFFFFFFFFFFFFFFFFFFFFFF AND PUSH20 0xFFFFFFFFFFFFFFFFFFFFFFFFFFFFFFFFFFFFFFFF AND EQ PUSH2 0x2803 JUMPI PUSH1 0x40 MLOAD PUSH32 0x8C379A000000000000000000000000000000000000000000000000000000000 DUP2 MSTORE PUSH1 0x4 ADD PUSH2 0x27FA SWAP1 PUSH2 0x40F0 JUMP JUMPDEST PUSH1 0x40 MLOAD DUP1 SWAP2 SUB SWAP1 REVERT JUMPDEST TIMESTAMP PUSH1 0x1 DUP4 DUP2 SLOAD DUP2 LT PUSH2 0x2818 JUMPI PUSH2 0x2817 PUSH2 0x3668 JUMP JUMPDEST JUMPDEST SWAP1 PUSH0 MSTORE PUSH1 0x20 PUSH0 KECCAK256 SWAP1 PUSH1 0x6 MUL ADD PUSH1 0x4 ADD SLOAD GT ISZERO PUSH2 0x287D JUMPI PUSH1 0x1 DUP1 DUP4 DUP2 SLOAD DUP2 LT PUSH2 0x2843 JUMPI PUSH2 0x2842 PUSH2 0x3668 JUMP JUMPDEST JUMPDEST SWAP1 PUSH0 MSTORE PUSH1 0x20 PUSH0 KECCAK256 SWAP1 PUSH1 0x6 MUL ADD PUSH1 0x5 ADD PUSH0 PUSH2 0x100 EXP DUP2 SLOAD DUP2 PUSH1 0xFF MUL NOT AND SWAP1 DUP4 PUSH1 0x4 DUP2 GT ISZERO PUSH2 0x2873 JUMPI PUSH2 0x2872 PUSH2 0x3515 JUMP JUMPDEST JUMPDEST MUL OR SWAP1 SSTORE POP PUSH2 0x28C9 JUMP JUMPDEST PUSH1 0x3 PUSH1 0x1 DUP4 DUP2 SLOAD DUP2 LT PUSH2 0x2893 JUMPI PUSH2 0x2892 PUSH2 0x3668 JUMP JUMPDEST JUMPDEST SWAP1 PUSH0 MSTORE PUSH1 0x20 PUSH0 KECCAK256 SWAP1 PUSH1 0x6 MUL ADD PUSH1 0x5 ADD PUSH0 PUSH2 0x100 EXP DUP2 SLOAD DUP2 PUSH1 0xFF MUL NOT AND SWAP1 DUP4 PUSH1 0x4 DUP2 GT ISZERO PUSH2 0x28C3 JUMPI PUSH2 0x28C2 PUSH2 0x3515 JUMP JUMPDEST JUMPDEST MUL OR SWAP1 SSTORE POP JUMPDEST PUSH0 DUP1 DUP3 DUP2 SLOAD DUP2 LT PUSH2 0x28DD JUMPI PUSH2 0x28DC PUSH2 0x3668 JUMP JUMPDEST JUMPDEST SWAP1 PUSH0 MSTORE PUSH1 0x20 PUSH0 KECCAK256 SWAP1 PUSH1 0x5 MUL ADD PUSH1 0x4 ADD PUSH0 PUSH2 0x100 EXP DUP2 SLOAD DUP2 PUSH1 0xFF MUL NOT AND SWAP1 DUP4 ISZERO ISZERO MUL OR SWAP1 SSTORE POP POP POP JUMP JUMPDEST PUSH0 PUSH1 0x2 DUP3 DUP2 SLOAD DUP2 LT PUSH2 0x291B JUMPI PUSH2 0x291A PUSH2 0x3668 JUMP JUMPDEST JUMPDEST SWAP1 PUSH0 MSTORE PUSH1 0x20 PUSH0 KECCAK256 SWAP1 PUSH1 0x6 MUL ADD PUSH0 ADD SLOAD SWAP1 POP PUSH0 ISZERO ISZERO PUSH0 DUP3 DUP2 SLOAD DUP2 LT PUSH2 0x2942 JUMPI PUSH2 0x2941 PUSH2 0x3668 JUMP JUMPDEST JUMPDEST SWAP1 PUSH0 MSTORE PUSH1 0x20 PUSH0 KECCAK256 SWAP1 PUSH1 0x5 MUL ADD PUSH1 0x4 ADD PUSH1 0x2 SWAP1 SLOAD SWAP1 PUSH2 0x100 EXP SWAP1 DIV PUSH1 0xFF AND ISZERO ISZERO EQ PUSH2 0x29A1 JUMPI PUSH1 0x40 MLOAD PUSH32 0x8C379A000000000000000000000000000000000000000000000000000000000 DUP2 MSTORE PUSH1 0x4 ADD PUSH2 0x2998 SWAP1 PUSH2 0x4158 JUMP JUMPDEST PUSH1 0x40 MLOAD DUP1 SWAP2 SUB SWAP1 REVERT JUMPDEST PUSH1 0x2 DUP1 SLOAD SWAP1 POP DUP3 LT PUSH2 0x29E8 JUMPI PUSH1 0x40 MLOAD PUSH32 0x8C379A000000000000000000000000000000000000000000000000000000000 DUP2 MSTORE PUSH1 0x4 ADD PUSH2 0x29DF SWAP1 PUSH2 0x3747 JUMP JUMPDEST PUSH1 0x40 MLOAD DUP1 SWAP2 SUB SWAP1 REVERT JUMPDEST CALLER PUSH20 0xFFFFFFFFFFFFFFFFFFFFFFFFFFFFFFFFFFFFFFFF AND PUSH1 0x2 DUP4 DUP2 SLOAD DUP2 LT PUSH2 0x2A13 JUMPI PUSH2 0x2A12 PUSH2 0x3668 JUMP JUMPDEST JUMPDEST SWAP1 PUSH0 MSTORE PUSH1 0x20 PUSH0 KECCAK256 SWAP1 PUSH1 0x6 MUL ADD PUSH1 0x1 ADD PUSH0 SWAP1 SLOAD SWAP1 PUSH2 0x100 EXP SWAP1 DIV PUSH20 0xFFFFFFFFFFFFFFFFFFFFFFFFFFFFFFFFFFFFFFFF AND PUSH20 0xFFFFFFFFFFFFFFFFFFFFFFFFFFFFFFFFFFFFFFFF AND SUB PUSH2 0x2A98 JUMPI PUSH1 0x40 MLOAD PUSH32 0x8C379A000000000000000000000000000000000000000000000000000000000 DUP2 MSTORE PUSH1 0x4 ADD PUSH2 0x2A8F SWAP1 PUSH2 0x41C0 JUMP JUMPDEST PUSH1 0x40 MLOAD DUP1 SWAP2 SUB SWAP1 REVERT JUMPDEST PUSH0 PUSH20 0xFFFFFFFFFFFFFFFFFFFFFFFFFFFFFFFFFFFFFFFF AND PUSH1 0x2 DUP4 DUP2 SLOAD DUP2 LT PUSH2 0x2AC3 JUMPI PUSH2 0x2AC2 PUSH2 0x3668 JUMP JUMPDEST JUMPDEST SWAP1 PUSH0 MSTORE PUSH1 0x20 PUSH0 KECCAK256 SWAP1 PUSH1 0x6 MUL ADD PUSH1 0x2 ADD PUSH0 SWAP1 SLOAD SWAP1 PUSH2 0x100 EXP SWAP1 DIV PUSH20 0xFFFFFFFFFFFFFFFFFFFFFFFFFFFFFFFFFFFFFFFF AND PUSH20 0xFFFFFFFFFFFFFFFFFFFFFFFFFFFFFFFFFFFFFFFF AND EQ PUSH2 0x2B48 JUMPI PUSH1 0x40 MLOAD PUSH32 0x8C379A000000000000000000000000000000000000000000000000000000000 DUP2 MSTORE PUSH1 0x4 ADD PUSH2 0x2B3F SWAP1 PUSH2 0x37AF JUMP JUMPDEST PUSH1 0x40 MLOAD DUP1 SWAP2 SUB SWAP1 REVERT JUMPDEST CALLVALUE PUSH1 0x2 DUP4 DUP2 SLOAD DUP2 LT PUSH2 0x2B5D JUMPI PUSH2 0x2B5C PUSH2 0x3668 JUMP JUMPDEST JUMPDEST SWAP1 PUSH0 MSTORE PUSH1 0x20 PUSH0 KECCAK256 SWAP1 PUSH1 0x6 MUL ADD PUSH1 0x3 ADD SLOAD GT ISZERO PUSH2 0x2BAE JUMPI PUSH1 0x40 MLOAD PUSH32 0x8C379A000000000000000000000000000000000000000000000000000000000 DUP2 MSTORE PUSH1 0x4 ADD PUSH2 0x2BA5 SWAP1 PUSH2 0x4228 JUMP JUMPDEST PUSH1 0x40 MLOAD DUP1 SWAP2 SUB SWAP1 REVERT JUMPDEST PUSH0 DUP1 JUMPDEST PUSH1 0x2 DUP5 DUP2 SLOAD DUP2 LT PUSH2 0x2BC5 JUMPI PUSH2 0x2BC4 PUSH2 0x3668 JUMP JUMPDEST JUMPDEST SWAP1 PUSH0 MSTORE PUSH1 0x20 PUSH0 KECCAK256 SWAP1 PUSH1 0x6 MUL ADD PUSH1 0x4 ADD DUP1 SLOAD SWAP1 POP DUP2 LT ISZERO PUSH2 0x2C84 JUMPI CALLER PUSH20 0xFFFFFFFFFFFFFFFFFFFFFFFFFFFFFFFFFFFFFFFF AND PUSH1 0x2 DUP6 DUP2 SLOAD DUP2 LT PUSH2 0x2C0A JUMPI PUSH2 0x2C09 PUSH2 0x3668 JUMP JUMPDEST JUMPDEST SWAP1 PUSH0 MSTORE PUSH1 0x20 PUSH0 KECCAK256 SWAP1 PUSH1 0x6 MUL ADD PUSH1 0x4 ADD DUP3 DUP2 SLOAD DUP2 LT PUSH2 0x2C2B JUMPI PUSH2 0x2C2A PUSH2 0x3668 JUMP JUMPDEST JUMPDEST SWAP1 PUSH0 MSTORE PUSH1 0x20 PUSH0 KECCAK256 ADD PUSH0 SWAP1 SLOAD SWAP1 PUSH2 0x100 EXP SWAP1 DIV PUSH20 0xFFFFFFFFFFFFFFFFFFFFFFFFFFFFFFFFFFFFFFFF AND PUSH20 0xFFFFFFFFFFFFFFFFFFFFFFFFFFFFFFFFFFFFFFFF AND SUB PUSH2 0x2C77 JUMPI PUSH1 0x1 SWAP2 POP PUSH2 0x2C84 JUMP JUMPDEST DUP1 DUP1 PUSH1 0x1 ADD SWAP2 POP POP PUSH2 0x2BB1 JUMP JUMPDEST POP PUSH0 ISZERO ISZERO DUP2 ISZERO ISZERO EQ PUSH2 0x2CCB JUMPI PUSH1 0x40 MLOAD PUSH32 0x8C379A000000000000000000000000000000000000000000000000000000000 DUP2 MSTORE PUSH1 0x4 ADD PUSH2 0x2CC2 SWAP1 PUSH2 0x4290 JUMP JUMPDEST PUSH1 0x40 MLOAD DUP1 SWAP2 SUB SWAP1 REVERT JUMPDEST PUSH1 0x2 DUP4 DUP2 SLOAD DUP2 LT PUSH2 0x2CDF JUMPI PUSH2 0x2CDE PUSH2 0x3668 JUMP JUMPDEST JUMPDEST SWAP1 PUSH0 MSTORE PUSH1 0x20 PUSH0 KECCAK256 SWAP1 PUSH1 0x6 MUL ADD PUSH1 0x4 ADD CALLER SWAP1 DUP1 PUSH1 0x1 DUP2 SLOAD ADD DUP1 DUP3 SSTORE DUP1 SWAP2 POP POP PUSH1 0x1 SWAP1 SUB SWAP1 PUSH0 MSTORE PUSH1 0x20 PUSH0 KECCAK256 ADD PUSH0 SWAP1 SWAP2 SWAP1 SWAP2 SWAP1 SWAP2 PUSH2 0x100 EXP DUP2 SLOAD DUP2 PUSH20 0xFFFFFFFFFFFFFFFFFFFFFFFFFFFFFFFFFFFFFFFF MUL NOT AND SWAP1 DUP4 PUSH20 0xFFFFFFFFFFFFFFFFFFFFFFFFFFFFFFFFFFFFFFFF AND MUL OR SWAP1 SSTORE POP PUSH1 0x2 DUP4 DUP2 SLOAD DUP2 LT PUSH2 0x2D60 JUMPI PUSH2 0x2D5F PUSH2 0x3668 JUMP JUMPDEST JUMPDEST SWAP1 PUSH0 MSTORE PUSH1 0x20 PUSH0 KECCAK256 SWAP1 PUSH1 0x6 MUL ADD PUSH1 0x5 ADD CALLVALUE SWAP1 DUP1 PUSH1 0x1 DUP2 SLOAD ADD DUP1 DUP3 SSTORE DUP1 SWAP2 POP POP PUSH1 0x1 SWAP1 SUB SWAP1 PUSH0 MSTORE PUSH1 0x20 PUSH0 KECCAK256 ADD PUSH0 SWAP1 SWAP2 SWAP1 SWAP2 SWAP1 SWAP2 POP SSTORE POP POP POP JUMP JUMPDEST PUSH1 0x3 PUSH0 SWAP1 SLOAD SWAP1 PUSH2 0x100 EXP SWAP1 DIV PUSH20 0xFFFFFFFFFFFFFFFFFFFFFFFFFFFFFFFFFFFFFFFF AND DUP2 JUMP JUMPDEST DUP3 DUP1 SLOAD DUP3 DUP3 SSTORE SWAP1 PUSH0 MSTORE PUSH1 0x20 PUSH0 KECCAK256 SWAP1 DUP2 ADD SWAP3 DUP3 ISZERO PUSH2 0x2E33 JUMPI SWAP2 PUSH1 0x20 MUL DUP3 ADD JUMPDEST DUP3 DUP2 GT ISZERO PUSH2 0x2E32 JUMPI DUP3 MLOAD DUP3 PUSH0 PUSH2 0x100 EXP DUP2 SLOAD DUP2 PUSH20 0xFFFFFFFFFFFFFFFFFFFFFFFFFFFFFFFFFFFFFFFF MUL NOT AND SWAP1 DUP4 PUSH20 0xFFFFFFFFFFFFFFFFFFFFFFFFFFFFFFFFFFFFFFFF AND MUL OR SWAP1 SSTORE POP SWAP2 PUSH1 0x20 ADD SWAP2 SWAP1 PUSH1 0x1 ADD SWAP1 PUSH2 0x2DDB JUMP JUMPDEST JUMPDEST POP SWAP1 POP PUSH2 0x2E40 SWAP2 SWAP1 PUSH2 0x2E8F JUMP JUMPDEST POP SWAP1 JUMP JUMPDEST DUP3 DUP1 SLOAD DUP3 DUP3 SSTORE SWAP1 PUSH0 MSTORE PUSH1 0x20 PUSH0 KECCAK256 SWAP1 DUP2 ADD SWAP3 DUP3 ISZERO PUSH2 0x2E7E JUMPI SWAP2 PUSH1 0x20 MUL DUP3 ADD JUMPDEST DUP3 DUP2 GT ISZERO PUSH2 0x2E7D JUMPI DUP3 MLOAD DUP3 SSTORE SWAP2 PUSH1 0x20 ADD SWAP2 SWAP1 PUSH1 0x1 ADD SWAP1 PUSH2 0x2E62 JUMP JUMPDEST JUMPDEST POP SWAP1 POP PUSH2 0x2E8B SWAP2 SWAP1 PUSH2 0x2E8F JUMP JUMPDEST POP SWAP1 JUMP JUMPDEST JUMPDEST DUP1 DUP3 GT ISZERO PUSH2 0x2EA6 JUMPI PUSH0 DUP2 PUSH0 SWAP1 SSTORE POP PUSH1 0x1 ADD PUSH2 0x2E90 JUMP JUMPDEST POP SWAP1 JUMP JUMPDEST PUSH0 PUSH1 0x40 MLOAD SWAP1 POP SWAP1 JUMP JUMPDEST PUSH0 DUP1 REVERT JUMPDEST PUSH0 DUP1 REVERT JUMPDEST PUSH0 DUP2 SWAP1 POP SWAP2 SWAP1 POP JUMP JUMPDEST PUSH2 0x2ECD DUP2 PUSH2 0x2EBB JUMP JUMPDEST DUP2 EQ PUSH2 0x2ED7 JUMPI PUSH0 DUP1 REVERT JUMPDEST POP JUMP JUMPDEST PUSH0 DUP2 CALLDATALOAD SWAP1 POP PUSH2 0x2EE8 DUP2 PUSH2 0x2EC4 JUMP JUMPDEST SWAP3 SWAP2 POP POP JUMP JUMPDEST PUSH0 DUP2 ISZERO ISZERO SWAP1 POP SWAP2 SWAP1 POP JUMP JUMPDEST PUSH2 0x2F02 DUP2 PUSH2 0x2EEE JUMP JUMPDEST DUP2 EQ PUSH2 0x2F0C JUMPI PUSH0 DUP1 REVERT JUMPDEST POP JUMP JUMPDEST PUSH0 DUP2 CALLDATALOAD SWAP1 POP PUSH2 0x2F1D DUP2 PUSH2 0x2EF9 JUMP JUMPDEST SWAP3 SWAP2 POP POP JUMP JUMPDEST PUSH0 DUP1 PUSH1 0x40 DUP4 DUP6 SUB SLT ISZERO PUSH2 0x2F39 JUMPI PUSH2 0x2F38 PUSH2 0x2EB3 JUMP JUMPDEST JUMPDEST PUSH0 PUSH2 0x2F46 DUP6 DUP3 DUP7 ADD PUSH2 0x2EDA JUMP JUMPDEST SWAP3 POP POP PUSH1 0x20 PUSH2 0x2F57 DUP6 DUP3 DUP7 ADD PUSH2 0x2F0F JUMP JUMPDEST SWAP2 POP POP SWAP3 POP SWAP3 SWAP1 POP JUMP JUMPDEST PUSH2 0x2F6A DUP2 PUSH2 0x2EBB JUMP JUMPDEST DUP3 MSTORE POP POP JUMP JUMPDEST PUSH0 PUSH1 0x20 DUP3 ADD SWAP1 POP PUSH2 0x2F83 PUSH0 DUP4 ADD DUP5 PUSH2 0x2F61 JUMP JUMPDEST SWAP3 SWAP2 POP POP JUMP JUMPDEST PUSH0 PUSH1 0x20 DUP3 DUP5 SUB SLT ISZERO PUSH2 0x2F9E JUMPI PUSH2 0x2F9D PUSH2 0x2EB3 JUMP JUMPDEST JUMPDEST PUSH0 PUSH2 0x2FAB DUP5 DUP3 DUP6 ADD PUSH2 0x2EDA JUMP JUMPDEST SWAP2 POP POP SWAP3 SWAP2 POP POP JUMP JUMPDEST PUSH0 PUSH20 0xFFFFFFFFFFFFFFFFFFFFFFFFFFFFFFFFFFFFFFFF DUP3 AND SWAP1 POP SWAP2 SWAP1 POP JUMP JUMPDEST PUSH0 PUSH2 0x2FDD DUP3 PUSH2 0x2FB4 JUMP JUMPDEST SWAP1 POP SWAP2 SWAP1 POP JUMP JUMPDEST PUSH2 0x2FED DUP2 PUSH2 0x2FD3 JUMP JUMPDEST DUP3 MSTORE POP POP JUMP JUMPDEST PUSH0 DUP2 MLOAD SWAP1 POP SWAP2 SWAP1 POP JUMP JUMPDEST PUSH0 DUP3 DUP3 MSTORE PUSH1 0x20 DUP3 ADD SWAP1 POP SWAP3 SWAP2 POP POP JUMP JUMPDEST DUP3 DUP2 DUP4 MCOPY PUSH0 DUP4 DUP4 ADD MSTORE POP POP POP JUMP JUMPDEST PUSH0 PUSH1 0x1F NOT PUSH1 0x1F DUP4 ADD AND SWAP1 POP SWAP2 SWAP1 POP JUMP JUMPDEST PUSH0 PUSH2 0x3035 DUP3 PUSH2 0x2FF3 JUMP JUMPDEST PUSH2 0x303F DUP2 DUP6 PUSH2 0x2FFD JUMP JUMPDEST SWAP4 POP PUSH2 0x304F DUP2 DUP6 PUSH1 0x20 DUP7 ADD PUSH2 0x300D JUMP JUMPDEST PUSH2 0x3058 DUP2 PUSH2 0x301B JUMP JUMPDEST DUP5 ADD SWAP2 POP POP SWAP3 SWAP2 POP POP JUMP JUMPDEST PUSH2 0x306C DUP2 PUSH2 0x2EEE JUMP JUMPDEST DUP3 MSTORE POP POP JUMP JUMPDEST PUSH0 PUSH1 0xE0 DUP3 ADD SWAP1 POP PUSH2 0x3085 PUSH0 DUP4 ADD DUP11 PUSH2 0x2F61 JUMP JUMPDEST PUSH2 0x3092 PUSH1 0x20 DUP4 ADD DUP10 PUSH2 0x2FE4 JUMP JUMPDEST DUP2 DUP2 SUB PUSH1 0x40 DUP4 ADD MSTORE PUSH2 0x30A4 DUP2 DUP9 PUSH2 0x302B JUMP JUMPDEST SWAP1 POP PUSH2 0x30B3 PUSH1 0x60 DUP4 ADD DUP8 PUSH2 0x2F61 JUMP JUMPDEST PUSH2 0x30C0 PUSH1 0x80 DUP4 ADD DUP7 PUSH2 0x3063 JUMP JUMPDEST PUSH2 0x30CD PUSH1 0xA0 DUP4 ADD DUP6 PUSH2 0x3063 JUMP JUMPDEST PUSH2 0x30DA PUSH1 0xC0 DUP4 ADD DUP5 PUSH2 0x3063 JUMP JUMPDEST SWAP9 SWAP8 POP POP POP POP POP POP POP POP JUMP JUMPDEST PUSH0 DUP1 PUSH1 0x40 DUP4 DUP6 SUB SLT ISZERO PUSH2 0x30FC JUMPI PUSH2 0x30FB PUSH2 0x2EB3 JUMP JUMPDEST JUMPDEST PUSH0 PUSH2 0x3109 DUP6 DUP3 DUP7 ADD PUSH2 0x2EDA JUMP JUMPDEST SWAP3 POP POP PUSH1 0x20 PUSH2 0x311A DUP6 DUP3 DUP7 ADD PUSH2 0x2EDA JUMP JUMPDEST SWAP2 POP POP SWAP3 POP SWAP3 SWAP1 POP JUMP JUMPDEST PUSH2 0x312D DUP2 PUSH2 0x2FD3 JUMP JUMPDEST DUP2 EQ PUSH2 0x3137 JUMPI PUSH0 DUP1 REVERT JUMPDEST POP JUMP JUMPDEST PUSH0 DUP2 CALLDATALOAD SWAP1 POP PUSH2 0x3148 DUP2 PUSH2 0x3124 JUMP JUMPDEST SWAP3 SWAP2 POP POP JUMP JUMPDEST PUSH0 DUP1 PUSH1 0x40 DUP4 DUP6 SUB SLT ISZERO PUSH2 0x3164 JUMPI PUSH2 0x3163 PUSH2 0x2EB3 JUMP JUMPDEST JUMPDEST PUSH0 PUSH2 0x3171 DUP6 DUP3 DUP7 ADD PUSH2 0x2EDA JUMP JUMPDEST SWAP3 POP POP PUSH1 0x20 PUSH2 0x3182 DUP6 DUP3 DUP7 ADD PUSH2 0x313A JUMP JUMPDEST SWAP2 POP POP SWAP3 POP SWAP3 SWAP1 POP JUMP JUMPDEST PUSH0 DUP2 MLOAD SWAP1 POP SWAP2 SWAP1 POP JUMP JUMPDEST PUSH0 DUP3 DUP3 MSTORE PUSH1 0x20 DUP3 ADD SWAP1 POP SWAP3 SWAP2 POP POP JUMP JUMPDEST PUSH0 DUP2 SWAP1 POP PUSH1 0x20 DUP3 ADD SWAP1 POP SWAP2 SWAP1 POP JUMP JUMPDEST PUSH2 0x31BE DUP2 PUSH2 0x2FD3 JUMP JUMPDEST DUP3 MSTORE POP POP JUMP JUMPDEST PUSH0 PUSH2 0x31CF DUP4 DUP4 PUSH2 0x31B5 JUMP JUMPDEST PUSH1 0x20 DUP4 ADD SWAP1 POP SWAP3 SWAP2 POP POP JUMP JUMPDEST PUSH0 PUSH1 0x20 DUP3 ADD SWAP1 POP SWAP2 SWAP1 POP JUMP JUMPDEST PUSH0 PUSH2 0x31F1 DUP3 PUSH2 0x318C JUMP JUMPDEST PUSH2 0x31FB DUP2 DUP6 PUSH2 0x3196 JUMP JUMPDEST SWAP4 POP PUSH2 0x3206 DUP4 PUSH2 0x31A6 JUMP JUMPDEST DUP1 PUSH0 JUMPDEST DUP4 DUP2 LT ISZERO PUSH2 0x3236 JUMPI DUP2 MLOAD PUSH2 0x321D DUP9 DUP3 PUSH2 0x31C4 JUMP JUMPDEST SWAP8 POP PUSH2 0x3228 DUP4 PUSH2 0x31DB JUMP JUMPDEST SWAP3 POP POP PUSH1 0x1 DUP2 ADD SWAP1 POP PUSH2 0x3209 JUMP JUMPDEST POP DUP6 SWAP4 POP POP POP POP SWAP3 SWAP2 POP POP JUMP JUMPDEST PUSH0 PUSH1 0x20 DUP3 ADD SWAP1 POP DUP2 DUP2 SUB PUSH0 DUP4 ADD MSTORE PUSH2 0x325B DUP2 DUP5 PUSH2 0x31E7 JUMP JUMPDEST SWAP1 POP SWAP3 SWAP2 POP POP JUMP JUMPDEST PUSH0 DUP2 MLOAD SWAP1 POP SWAP2 SWAP1 POP JUMP JUMPDEST PUSH0 DUP3 DUP3 MSTORE PUSH1 0x20 DUP3 ADD SWAP1 POP SWAP3 SWAP2 POP POP JUMP JUMPDEST PUSH0 DUP2 SWAP1 POP PUSH1 0x20 DUP3 ADD SWAP1 POP SWAP2 SWAP1 POP JUMP JUMPDEST PUSH2 0x3295 DUP2 PUSH2 0x2EBB JUMP JUMPDEST DUP3 MSTORE POP POP JUMP JUMPDEST PUSH0 PUSH2 0x32A6 DUP4 DUP4 PUSH2 0x328C JUMP JUMPDEST PUSH1 0x20 DUP4 ADD SWAP1 POP SWAP3 SWAP2 POP POP JUMP JUMPDEST PUSH0 PUSH1 0x20 DUP3 ADD SWAP1 POP SWAP2 SWAP1 POP JUMP JUMPDEST PUSH0 PUSH2 0x32C8 DUP3 PUSH2 0x3263 JUMP JUMPDEST PUSH2 0x32D2 DUP2 DUP6 PUSH2 0x326D JUMP JUMPDEST SWAP4 POP PUSH2 0x32DD DUP4 PUSH2 0x327D JUMP JUMPDEST DUP1 PUSH0 JUMPDEST DUP4 DUP2 LT ISZERO PUSH2 0x330D JUMPI DUP2 MLOAD PUSH2 0x32F4 DUP9 DUP3 PUSH2 0x329B JUMP JUMPDEST SWAP8 POP PUSH2 0x32FF DUP4 PUSH2 0x32B2 JUMP JUMPDEST SWAP3 POP POP PUSH1 0x1 DUP2 ADD SWAP1 POP PUSH2 0x32E0 JUMP JUMPDEST POP DUP6 SWAP4 POP POP POP POP SWAP3 SWAP2 POP POP JUMP JUMPDEST PUSH0 PUSH1 0x20 DUP3 ADD SWAP1 POP DUP2 DUP2 SUB PUSH0 DUP4 ADD MSTORE PUSH2 0x3332 DUP2 DUP5 PUSH2 0x32BE JUMP JUMPDEST SWAP1 POP SWAP3 SWAP2 POP POP JUMP JUMPDEST PUSH0 DUP1 REVERT JUMPDEST PUSH0 DUP1 REVERT JUMPDEST PUSH32 0x4E487B7100000000000000000000000000000000000000000000000000000000 PUSH0 MSTORE PUSH1 0x41 PUSH1 0x4 MSTORE PUSH1 0x24 PUSH0 REVERT JUMPDEST PUSH2 0x3378 DUP3 PUSH2 0x301B JUMP JUMPDEST DUP2 ADD DUP2 DUP2 LT PUSH8 0xFFFFFFFFFFFFFFFF DUP3 GT OR ISZERO PUSH2 0x3397 JUMPI PUSH2 0x3396 PUSH2 0x3342 JUMP JUMPDEST JUMPDEST DUP1 PUSH1 0x40 MSTORE POP POP POP JUMP JUMPDEST PUSH0 PUSH2 0x33A9 PUSH2 0x2EAA JUMP JUMPDEST SWAP1 POP PUSH2 0x33B5 DUP3 DUP3 PUSH2 0x336F JUMP JUMPDEST SWAP2 SWAP1 POP JUMP JUMPDEST PUSH0 PUSH8 0xFFFFFFFFFFFFFFFF DUP3 GT ISZERO PUSH2 0x33D4 JUMPI PUSH2 0x33D3 PUSH2 0x3342 JUMP JUMPDEST JUMPDEST PUSH2 0x33DD DUP3 PUSH2 0x301B JUMP JUMPDEST SWAP1 POP PUSH1 0x20 DUP2 ADD SWAP1 POP SWAP2 SWAP1 POP JUMP JUMPDEST DUP3 DUP2 DUP4 CALLDATACOPY PUSH0 DUP4 DUP4 ADD MSTORE POP POP POP JUMP JUMPDEST PUSH0 PUSH2 0x340A PUSH2 0x3405 DUP5 PUSH2 0x33BA JUMP JUMPDEST PUSH2 0x33A0 JUMP JUMPDEST SWAP1 POP DUP3 DUP2 MSTORE PUSH1 0x20 DUP2 ADD DUP5 DUP5 DUP5 ADD GT ISZERO PUSH2 0x3426 JUMPI PUSH2 0x3425 PUSH2 0x333E JUMP JUMPDEST JUMPDEST PUSH2 0x3431 DUP5 DUP3 DUP6 PUSH2 0x33EA JUMP JUMPDEST POP SWAP4 SWAP3 POP POP POP JUMP JUMPDEST PUSH0 DUP3 PUSH1 0x1F DUP4 ADD SLT PUSH2 0x344D JUMPI PUSH2 0x344C PUSH2 0x333A JUMP JUMPDEST JUMPDEST DUP2 CALLDATALOAD PUSH2 0x345D DUP5 DUP3 PUSH1 0x20 DUP7 ADD PUSH2 0x33F8 JUMP JUMPDEST SWAP2 POP POP SWAP3 SWAP2 POP POP JUMP JUMPDEST PUSH0 DUP1 PUSH0 PUSH1 0x60 DUP5 DUP7 SUB SLT ISZERO PUSH2 0x347D JUMPI PUSH2 0x347C PUSH2 0x2EB3 JUMP JUMPDEST JUMPDEST PUSH0 PUSH2 0x348A DUP7 DUP3 DUP8 ADD PUSH2 0x313A JUMP JUMPDEST SWAP4 POP POP PUSH1 0x20 DUP5 ADD CALLDATALOAD PUSH8 0xFFFFFFFFFFFFFFFF DUP2 GT ISZERO PUSH2 0x34AB JUMPI PUSH2 0x34AA PUSH2 0x2EB7 JUMP JUMPDEST JUMPDEST PUSH2 0x34B7 DUP7 DUP3 DUP8 ADD PUSH2 0x3439 JUMP JUMPDEST SWAP3 POP POP PUSH1 0x40 PUSH2 0x34C8 DUP7 DUP3 DUP8 ADD PUSH2 0x2EDA JUMP JUMPDEST SWAP2 POP POP SWAP3 POP SWAP3 POP SWAP3 JUMP JUMPDEST PUSH0 PUSH1 0x80 DUP3 ADD SWAP1 POP PUSH2 0x34E5 PUSH0 DUP4 ADD DUP8 PUSH2 0x2F61 JUMP JUMPDEST PUSH2 0x34F2 PUSH1 0x20 DUP4 ADD DUP7 PUSH2 0x2FE4 JUMP JUMPDEST PUSH2 0x34FF PUSH1 0x40 DUP4 ADD DUP6 PUSH2 0x2FE4 JUMP JUMPDEST PUSH2 0x350C PUSH1 0x60 DUP4 ADD DUP5 PUSH2 0x2F61 JUMP JUMPDEST SWAP6 SWAP5 POP POP POP POP POP JUMP JUMPDEST PUSH32 0x4E487B7100000000000000000000000000000000000000000000000000000000 PUSH0 MSTORE PUSH1 0x21 PUSH1 0x4 MSTORE PUSH1 0x24 PUSH0 REVERT JUMPDEST PUSH1 0x5 DUP2 LT PUSH2 0x3553 JUMPI PUSH2 0x3552 PUSH2 0x3515 JUMP JUMPDEST JUMPDEST POP JUMP JUMPDEST PUSH0 DUP2 SWAP1 POP PUSH2 0x3563 DUP3 PUSH2 0x3542 JUMP JUMPDEST SWAP2 SWAP1 POP JUMP JUMPDEST PUSH0 PUSH2 0x3572 DUP3 PUSH2 0x3556 JUMP JUMPDEST SWAP1 POP SWAP2 SWAP1 POP JUMP JUMPDEST PUSH2 0x3582 DUP2 PUSH2 0x3568 JUMP JUMPDEST DUP3 MSTORE POP POP JUMP JUMPDEST PUSH0 PUSH1 0xC0 DUP3 ADD SWAP1 POP PUSH2 0x359B PUSH0 DUP4 ADD DUP10 PUSH2 0x2F61 JUMP JUMPDEST PUSH2 0x35A8 PUSH1 0x20 DUP4 ADD DUP9 PUSH2 0x2F61 JUMP JUMPDEST PUSH2 0x35B5 PUSH1 0x40 DUP4 ADD DUP8 PUSH2 0x2FE4 JUMP JUMPDEST PUSH2 0x35C2 PUSH1 0x60 DUP4 ADD DUP7 PUSH2 0x2FE4 JUMP JUMPDEST PUSH2 0x35CF PUSH1 0x80 DUP4 ADD DUP6 PUSH2 0x2F61 JUMP JUMPDEST PUSH2 0x35DC PUSH1 0xA0 DUP4 ADD DUP5 PUSH2 0x3579 JUMP JUMPDEST SWAP8 SWAP7 POP POP POP POP POP POP POP JUMP JUMPDEST PUSH0 PUSH1 0x20 DUP3 ADD SWAP1 POP PUSH2 0x35FA PUSH0 DUP4 ADD DUP5 PUSH2 0x2FE4 JUMP JUMPDEST SWAP3 SWAP2 POP POP JUMP JUMPDEST PUSH32 0x596F7520617265206E6F742061646D696E000000000000000000000000000000 PUSH0 DUP3 ADD MSTORE POP JUMP JUMPDEST PUSH0 PUSH2 0x3634 PUSH1 0x11 DUP4 PUSH2 0x2FFD JUMP JUMPDEST SWAP2 POP PUSH2 0x363F DUP3 PUSH2 0x3600 JUMP JUMPDEST PUSH1 0x20 DUP3 ADD SWAP1 POP SWAP2 SWAP1 POP JUMP JUMPDEST PUSH0 PUSH1 0x20 DUP3 ADD SWAP1 POP DUP2 DUP2 SUB PUSH0 DUP4 ADD MSTORE PUSH2 0x3661 DUP2 PUSH2 0x3628 JUMP JUMPDEST SWAP1 POP SWAP2 SWAP1 POP JUMP JUMPDEST PUSH32 0x4E487B7100000000000000000000000000000000000000000000000000000000 PUSH0 MSTORE PUSH1 0x32 PUSH1 0x4 MSTORE PUSH1 0x24 PUSH0 REVERT JUMPDEST PUSH32 0x7468652073616D65206172657374000000000000000000000000000000000000 PUSH0 DUP3 ADD MSTORE POP JUMP JUMPDEST PUSH0 PUSH2 0x36C9 PUSH1 0xE DUP4 PUSH2 0x2FFD JUMP JUMPDEST SWAP2 POP PUSH2 0x36D4 DUP3 PUSH2 0x3695 JUMP JUMPDEST PUSH1 0x20 DUP3 ADD SWAP1 POP SWAP2 SWAP1 POP JUMP JUMPDEST PUSH0 PUSH1 0x20 DUP3 ADD SWAP1 POP DUP2 DUP2 SUB PUSH0 DUP4 ADD MSTORE PUSH2 0x36F6 DUP2 PUSH2 0x36BD JUMP JUMPDEST SWAP1 POP SWAP2 SWAP1 POP JUMP JUMPDEST PUSH32 0x77726F6E672073616C6549442076616C75650000000000000000000000000000 PUSH0 DUP3 ADD MSTORE POP JUMP JUMPDEST PUSH0 PUSH2 0x3731 PUSH1 0x12 DUP4 PUSH2 0x2FFD JUMP JUMPDEST SWAP2 POP PUSH2 0x373C DUP3 PUSH2 0x36FD JUMP JUMPDEST PUSH1 0x20 DUP3 ADD SWAP1 POP SWAP2 SWAP1 POP JUMP JUMPDEST PUSH0 PUSH1 0x20 DUP3 ADD SWAP1 POP DUP2 DUP2 SUB PUSH0 DUP4 ADD MSTORE PUSH2 0x375E DUP2 PUSH2 0x3725 JUMP JUMPDEST SWAP1 POP SWAP2 SWAP1 POP JUMP JUMPDEST PUSH32 0x53616C6520697320636C6F736564000000000000000000000000000000000000 PUSH0 DUP3 ADD MSTORE POP JUMP JUMPDEST PUSH0 PUSH2 0x3799 PUSH1 0xE DUP4 PUSH2 0x2FFD JUMP JUMPDEST SWAP2 POP PUSH2 0x37A4 DUP3 PUSH2 0x3765 JUMP JUMPDEST PUSH1 0x20 DUP3 ADD SWAP1 POP SWAP2 SWAP1 POP JUMP JUMPDEST PUSH0 PUSH1 0x20 DUP3 ADD SWAP1 POP DUP2 DUP2 SUB PUSH0 DUP4 ADD MSTORE PUSH2 0x37C6 DUP2 PUSH2 0x378D JUMP JUMPDEST SWAP1 POP SWAP2 SWAP1 POP JUMP JUMPDEST PUSH32 0x796F752070726963652069732030000000000000000000000000000000000000 PUSH0 DUP3 ADD MSTORE POP JUMP JUMPDEST PUSH0 PUSH2 0x3801 PUSH1 0xE DUP4 PUSH2 0x2FFD JUMP JUMPDEST SWAP2 POP PUSH2 0x380C DUP3 PUSH2 0x37CD JUMP JUMPDEST PUSH1 0x20 DUP3 ADD SWAP1 POP SWAP2 SWAP1 POP JUMP JUMPDEST PUSH0 PUSH1 0x20 DUP3 ADD SWAP1 POP DUP2 DUP2 SUB PUSH0 DUP4 ADD MSTORE PUSH2 0x382E DUP2 PUSH2 0x37F5 JUMP JUMPDEST SWAP1 POP SWAP2 SWAP1 POP JUMP JUMPDEST PUSH32 0x4E487B7100000000000000000000000000000000000000000000000000000000 PUSH0 MSTORE PUSH1 0x22 PUSH1 0x4 MSTORE PUSH1 0x24 PUSH0 REVERT JUMPDEST PUSH0 PUSH1 0x2 DUP3 DIV SWAP1 POP PUSH1 0x1 DUP3 AND DUP1 PUSH2 0x3879 JUMPI PUSH1 0x7F DUP3 AND SWAP2 POP JUMPDEST PUSH1 0x20 DUP3 LT DUP2 SUB PUSH2 0x388C JUMPI PUSH2 0x388B PUSH2 0x3835 JUMP JUMPDEST JUMPDEST POP SWAP2 SWAP1 POP JUMP JUMPDEST PUSH32 0x4E6F7420796F752073616C650000000000000000000000000000000000000000 PUSH0 DUP3 ADD MSTORE POP JUMP JUMPDEST PUSH0 PUSH2 0x38C6 PUSH1 0xC DUP4 PUSH2 0x2FFD JUMP JUMPDEST SWAP2 POP PUSH2 0x38D1 DUP3 PUSH2 0x3892 JUMP JUMPDEST PUSH1 0x20 DUP3 ADD SWAP1 POP SWAP2 SWAP1 POP JUMP JUMPDEST PUSH0 PUSH1 0x20 DUP3 ADD SWAP1 POP DUP2 DUP2 SUB PUSH0 DUP4 ADD MSTORE PUSH2 0x38F3 DUP2 PUSH2 0x38BA JUMP JUMPDEST SWAP1 POP SWAP2 SWAP1 POP JUMP JUMPDEST PUSH32 0x6275696C64206973206172657374656400000000000000000000000000000000 PUSH0 DUP3 ADD MSTORE POP JUMP JUMPDEST PUSH0 PUSH2 0x392E PUSH1 0x10 DUP4 PUSH2 0x2FFD JUMP JUMPDEST SWAP2 POP PUSH2 0x3939 DUP3 PUSH2 0x38FA JUMP JUMPDEST PUSH1 0x20 DUP3 ADD SWAP1 POP SWAP2 SWAP1 POP JUMP JUMPDEST PUSH0 PUSH1 0x20 DUP3 ADD SWAP1 POP DUP2 DUP2 SUB PUSH0 DUP4 ADD MSTORE PUSH2 0x395B DUP2 PUSH2 0x3922 JUMP JUMPDEST SWAP1 POP SWAP2 SWAP1 POP JUMP JUMPDEST PUSH32 0x4973206E6F7420796F7572206275696C64000000000000000000000000000000 PUSH0 DUP3 ADD MSTORE POP JUMP JUMPDEST PUSH0 PUSH2 0x3996 PUSH1 0x11 DUP4 PUSH2 0x2FFD JUMP JUMPDEST SWAP2 POP PUSH2 0x39A1 DUP3 PUSH2 0x3962 JUMP JUMPDEST PUSH1 0x20 DUP3 ADD SWAP1 POP SWAP2 SWAP1 POP JUMP JUMPDEST PUSH0 PUSH1 0x20 DUP3 ADD SWAP1 POP DUP2 DUP2 SUB PUSH0 DUP4 ADD MSTORE PUSH2 0x39C3 DUP2 PUSH2 0x398A JUMP JUMPDEST SWAP1 POP SWAP2 SWAP1 POP JUMP JUMPDEST PUSH32 0x416C726561647920696E2070726573656E740000000000000000000000000000 PUSH0 DUP3 ADD MSTORE POP JUMP JUMPDEST PUSH0 PUSH2 0x39FE PUSH1 0x12 DUP4 PUSH2 0x2FFD JUMP JUMPDEST SWAP2 POP PUSH2 0x3A09 DUP3 PUSH2 0x39CA JUMP JUMPDEST PUSH1 0x20 DUP3 ADD SWAP1 POP SWAP2 SWAP1 POP JUMP JUMPDEST PUSH0 PUSH1 0x20 DUP3 ADD SWAP1 POP DUP2 DUP2 SUB PUSH0 DUP4 ADD MSTORE PUSH2 0x3A2B DUP2 PUSH2 0x39F2 JUMP JUMPDEST SWAP1 POP SWAP2 SWAP1 POP JUMP JUMPDEST PUSH32 0x416C726561647920696E2073616C650000000000000000000000000000000000 PUSH0 DUP3 ADD MSTORE POP JUMP JUMPDEST PUSH0 PUSH2 0x3A66 PUSH1 0xF DUP4 PUSH2 0x2FFD JUMP JUMPDEST SWAP2 POP PUSH2 0x3A71 DUP3 PUSH2 0x3A32 JUMP JUMPDEST PUSH1 0x20 DUP3 ADD SWAP1 POP SWAP2 SWAP1 POP JUMP JUMPDEST PUSH0 PUSH1 0x20 DUP3 ADD SWAP1 POP DUP2 DUP2 SUB PUSH0 DUP4 ADD MSTORE PUSH2 0x3A93 DUP2 PUSH2 0x3A5A JUMP JUMPDEST SWAP1 POP SWAP2 SWAP1 POP JUMP JUMPDEST PUSH32 0x4275696C6420696E206172657374000000000000000000000000000000000000 PUSH0 DUP3 ADD MSTORE POP JUMP JUMPDEST PUSH0 PUSH2 0x3ACE PUSH1 0xE DUP4 PUSH2 0x2FFD JUMP JUMPDEST SWAP2 POP PUSH2 0x3AD9 DUP3 PUSH2 0x3A9A JUMP JUMPDEST PUSH1 0x20 DUP3 ADD SWAP1 POP SWAP2 SWAP1 POP JUMP JUMPDEST PUSH0 PUSH1 0x20 DUP3 ADD SWAP1 POP DUP2 DUP2 SUB PUSH0 DUP4 ADD MSTORE PUSH2 0x3AFB DUP2 PUSH2 0x3AC2 JUMP JUMPDEST SWAP1 POP SWAP2 SWAP1 POP JUMP JUMPDEST PUSH32 0x77726F6E675F6164647265737300000000000000000000000000000000000000 PUSH0 DUP3 ADD MSTORE POP JUMP JUMPDEST PUSH0 PUSH2 0x3B36 PUSH1 0xD DUP4 PUSH2 0x2FFD JUMP JUMPDEST SWAP2 POP PUSH2 0x3B41 DUP3 PUSH2 0x3B02 JUMP JUMPDEST PUSH1 0x20 DUP3 ADD SWAP1 POP SWAP2 SWAP1 POP JUMP JUMPDEST PUSH0 PUSH1 0x20 DUP3 ADD SWAP1 POP DUP2 DUP2 SUB PUSH0 DUP4 ADD MSTORE PUSH2 0x3B63 DUP2 PUSH2 0x3B2A JUMP JUMPDEST SWAP1 POP SWAP2 SWAP1 POP JUMP JUMPDEST PUSH32 0x77726F6E67206275696C6449442076616C756500000000000000000000000000 PUSH0 DUP3 ADD MSTORE POP JUMP JUMPDEST PUSH0 PUSH2 0x3B9E PUSH1 0x13 DUP4 PUSH2 0x2FFD JUMP JUMPDEST SWAP2 POP PUSH2 0x3BA9 DUP3 PUSH2 0x3B6A JUMP JUMPDEST PUSH1 0x20 DUP3 ADD SWAP1 POP SWAP2 SWAP1 POP JUMP JUMPDEST PUSH0 PUSH1 0x20 DUP3 ADD SWAP1 POP DUP2 DUP2 SUB PUSH0 DUP4 ADD MSTORE PUSH2 0x3BCB DUP2 PUSH2 0x3B92 JUMP JUMPDEST SWAP1 POP SWAP2 SWAP1 POP JUMP JUMPDEST PUSH32 0x73656C6620676966740000000000000000000000000000000000000000000000 PUSH0 DUP3 ADD MSTORE POP JUMP JUMPDEST PUSH0 PUSH2 0x3C06 PUSH1 0x9 DUP4 PUSH2 0x2FFD JUMP JUMPDEST SWAP2 POP PUSH2 0x3C11 DUP3 PUSH2 0x3BD2 JUMP JUMPDEST PUSH1 0x20 DUP3 ADD SWAP1 POP SWAP2 SWAP1 POP JUMP JUMPDEST PUSH0 PUSH1 0x20 DUP3 ADD SWAP1 POP DUP2 DUP2 SUB PUSH0 DUP4 ADD MSTORE PUSH2 0x3C33 DUP2 PUSH2 0x3BFA JUMP JUMPDEST SWAP1 POP SWAP2 SWAP1 POP JUMP JUMPDEST PUSH32 0x4E487B7100000000000000000000000000000000000000000000000000000000 PUSH0 MSTORE PUSH1 0x11 PUSH1 0x4 MSTORE PUSH1 0x24 PUSH0 REVERT JUMPDEST PUSH0 PUSH2 0x3C71 DUP3 PUSH2 0x2EBB JUMP JUMPDEST SWAP2 POP PUSH2 0x3C7C DUP4 PUSH2 0x2EBB JUMP JUMPDEST SWAP3 POP DUP3 DUP3 ADD SWAP1 POP DUP1 DUP3 GT ISZERO PUSH2 0x3C94 JUMPI PUSH2 0x3C93 PUSH2 0x3C3A JUMP JUMPDEST JUMPDEST SWAP3 SWAP2 POP POP JUMP JUMPDEST PUSH32 0x416C72656164792066696E697368656400000000000000000000000000000000 PUSH0 DUP3 ADD MSTORE POP JUMP JUMPDEST PUSH0 PUSH2 0x3CCE PUSH1 0x10 DUP4 PUSH2 0x2FFD JUMP JUMPDEST SWAP2 POP PUSH2 0x3CD9 DUP3 PUSH2 0x3C9A JUMP JUMPDEST PUSH1 0x20 DUP3 ADD SWAP1 POP SWAP2 SWAP1 POP JUMP JUMPDEST PUSH0 PUSH1 0x20 DUP3 ADD SWAP1 POP DUP2 DUP2 SUB PUSH0 DUP4 ADD MSTORE PUSH2 0x3CFB DUP2 PUSH2 0x3CC2 JUMP JUMPDEST SWAP1 POP SWAP2 SWAP1 POP JUMP JUMPDEST PUSH32 0x596F7520617265206E6F74206F776E6572000000000000000000000000000000 PUSH0 DUP3 ADD MSTORE POP JUMP JUMPDEST PUSH0 PUSH2 0x3D36 PUSH1 0x11 DUP4 PUSH2 0x2FFD JUMP JUMPDEST SWAP2 POP PUSH2 0x3D41 DUP3 PUSH2 0x3D02 JUMP JUMPDEST PUSH1 0x20 DUP3 ADD SWAP1 POP SWAP2 SWAP1 POP JUMP JUMPDEST PUSH0 PUSH1 0x20 DUP3 ADD SWAP1 POP DUP2 DUP2 SUB PUSH0 DUP4 ADD MSTORE PUSH2 0x3D63 DUP2 PUSH2 0x3D2A JUMP JUMPDEST SWAP1 POP SWAP2 SWAP1 POP JUMP JUMPDEST PUSH32 0x77726F6E67206164647265737300000000000000000000000000000000000000 PUSH0 DUP3 ADD MSTORE POP JUMP JUMPDEST PUSH0 PUSH2 0x3D9E PUSH1 0xD DUP4 PUSH2 0x2FFD JUMP JUMPDEST SWAP2 POP PUSH2 0x3DA9 DUP3 PUSH2 0x3D6A JUMP JUMPDEST PUSH1 0x20 DUP3 ADD SWAP1 POP SWAP2 SWAP1 POP JUMP JUMPDEST PUSH0 PUSH1 0x20 DUP3 ADD SWAP1 POP DUP2 DUP2 SUB PUSH0 DUP4 ADD MSTORE PUSH2 0x3DCB DUP2 PUSH2 0x3D92 JUMP JUMPDEST SWAP1 POP SWAP2 SWAP1 POP JUMP JUMPDEST PUSH32 0x77726F6E67207371756172650000000000000000000000000000000000000000 PUSH0 DUP3 ADD MSTORE POP JUMP JUMPDEST PUSH0 PUSH2 0x3E06 PUSH1 0xC DUP4 PUSH2 0x2FFD JUMP JUMPDEST SWAP2 POP PUSH2 0x3E11 DUP3 PUSH2 0x3DD2 JUMP JUMPDEST PUSH1 0x20 DUP3 ADD SWAP1 POP SWAP2 SWAP1 POP JUMP JUMPDEST PUSH0 PUSH1 0x20 DUP3 ADD SWAP1 POP DUP2 DUP2 SUB PUSH0 DUP4 ADD MSTORE PUSH2 0x3E33 DUP2 PUSH2 0x3DFA JUMP JUMPDEST SWAP1 POP SWAP2 SWAP1 POP JUMP JUMPDEST PUSH0 DUP2 SWAP1 POP DUP2 PUSH0 MSTORE PUSH1 0x20 PUSH0 KECCAK256 SWAP1 POP SWAP2 SWAP1 POP JUMP JUMPDEST PUSH0 PUSH1 0x20 PUSH1 0x1F DUP4 ADD DIV SWAP1 POP SWAP2 SWAP1 POP JUMP JUMPDEST PUSH0 DUP3 DUP3 SHL SWAP1 POP SWAP3 SWAP2 POP POP JUMP JUMPDEST PUSH0 PUSH1 0x8 DUP4 MUL PUSH2 0x3E96 PUSH32 0xFFFFFFFFFFFFFFFFFFFFFFFFFFFFFFFFFFFFFFFFFFFFFFFFFFFFFFFFFFFFFFFF DUP3 PUSH2 0x3E5B JUMP JUMPDEST PUSH2 0x3EA0 DUP7 DUP4 PUSH2 0x3E5B JUMP JUMPDEST SWAP6 POP DUP1 NOT DUP5 AND SWAP4 POP DUP1 DUP7 AND DUP5 OR SWAP3 POP POP POP SWAP4 SWAP3 POP POP POP JUMP JUMPDEST PUSH0 DUP2 SWAP1 POP SWAP2 SWAP1 POP JUMP JUMPDEST PUSH0 PUSH2 0x3EDB PUSH2 0x3ED6 PUSH2 0x3ED1 DUP5 PUSH2 0x2EBB JUMP JUMPDEST PUSH2 0x3EB8 JUMP JUMPDEST PUSH2 0x2EBB JUMP JUMPDEST SWAP1 POP SWAP2 SWAP1 POP JUMP JUMPDEST PUSH0 DUP2 SWAP1 POP SWAP2 SWAP1 POP JUMP JUMPDEST PUSH2 0x3EF4 DUP4 PUSH2 0x3EC1 JUMP JUMPDEST PUSH2 0x3F08 PUSH2 0x3F00 DUP3 PUSH2 0x3EE2 JUMP JUMPDEST DUP5 DUP5 SLOAD PUSH2 0x3E67 JUMP JUMPDEST DUP3 SSTORE POP POP POP POP JUMP JUMPDEST PUSH0 SWAP1 JUMP JUMPDEST PUSH2 0x3F1C PUSH2 0x3F10 JUMP JUMPDEST PUSH2 0x3F27 DUP2 DUP5 DUP5 PUSH2 0x3EEB JUMP JUMPDEST POP POP POP JUMP JUMPDEST JUMPDEST DUP2 DUP2 LT ISZERO PUSH2 0x3F4A JUMPI PUSH2 0x3F3F PUSH0 DUP3 PUSH2 0x3F14 JUMP JUMPDEST PUSH1 0x1 DUP2 ADD SWAP1 POP PUSH2 0x3F2D JUMP JUMPDEST POP POP JUMP JUMPDEST PUSH1 0x1F DUP3 GT ISZERO PUSH2 0x3F8F JUMPI PUSH2 0x3F60 DUP2 PUSH2 0x3E3A JUMP JUMPDEST PUSH2 0x3F69 DUP5 PUSH2 0x3E4C JUMP JUMPDEST DUP2 ADD PUSH1 0x20 DUP6 LT ISZERO PUSH2 0x3F78 JUMPI DUP2 SWAP1 POP JUMPDEST PUSH2 0x3F8C PUSH2 0x3F84 DUP6 PUSH2 0x3E4C JUMP JUMPDEST DUP4 ADD DUP3 PUSH2 0x3F2C JUMP JUMPDEST POP POP JUMPDEST POP POP POP JUMP JUMPDEST PUSH0 DUP3 DUP3 SHR SWAP1 POP SWAP3 SWAP2 POP POP JUMP JUMPDEST PUSH0 PUSH2 0x3FAF PUSH0 NOT DUP5 PUSH1 0x8 MUL PUSH2 0x3F94 JUMP JUMPDEST NOT DUP1 DUP4 AND SWAP2 POP POP SWAP3 SWAP2 POP POP JUMP JUMPDEST PUSH0 PUSH2 0x3FC7 DUP4 DUP4 PUSH2 0x3FA0 JUMP JUMPDEST SWAP2 POP DUP3 PUSH1 0x2 MUL DUP3 OR SWAP1 POP SWAP3 SWAP2 POP POP JUMP JUMPDEST PUSH2 0x3FE0 DUP3 PUSH2 0x2FF3 JUMP JUMPDEST PUSH8 0xFFFFFFFFFFFFFFFF DUP2 GT ISZERO PUSH2 0x3FF9 JUMPI PUSH2 0x3FF8 PUSH2 0x3342 JUMP JUMPDEST JUMPDEST PUSH2 0x4003 DUP3 SLOAD PUSH2 0x3862 JUMP JUMPDEST PUSH2 0x400E DUP3 DUP3 DUP6 PUSH2 0x3F4E JUMP JUMPDEST PUSH0 PUSH1 0x20 SWAP1 POP PUSH1 0x1F DUP4 GT PUSH1 0x1 DUP2 EQ PUSH2 0x403F JUMPI PUSH0 DUP5 ISZERO PUSH2 0x402D JUMPI DUP3 DUP8 ADD MLOAD SWAP1 POP JUMPDEST PUSH2 0x4037 DUP6 DUP3 PUSH2 0x3FBC JUMP JUMPDEST DUP7 SSTORE POP PUSH2 0x409E JUMP JUMPDEST PUSH1 0x1F NOT DUP5 AND PUSH2 0x404D DUP7 PUSH2 0x3E3A JUMP JUMPDEST PUSH0 JUMPDEST DUP3 DUP2 LT ISZERO PUSH2 0x4074 JUMPI DUP5 DUP10 ADD MLOAD DUP3 SSTORE PUSH1 0x1 DUP3 ADD SWAP2 POP PUSH1 0x20 DUP6 ADD SWAP5 POP PUSH1 0x20 DUP2 ADD SWAP1 POP PUSH2 0x404F JUMP JUMPDEST DUP7 DUP4 LT ISZERO PUSH2 0x4091 JUMPI DUP5 DUP10 ADD MLOAD PUSH2 0x408D PUSH1 0x1F DUP10 AND DUP3 PUSH2 0x3FA0 JUMP JUMPDEST DUP4 SSTORE POP JUMPDEST PUSH1 0x1 PUSH1 0x2 DUP9 MUL ADD DUP9 SSTORE POP POP POP JUMPDEST POP POP POP POP POP POP JUMP JUMPDEST PUSH32 0x546869732069732067696674206E6F7420666F7220796F750000000000000000 PUSH0 DUP3 ADD MSTORE POP JUMP JUMPDEST PUSH0 PUSH2 0x40DA PUSH1 0x18 DUP4 PUSH2 0x2FFD JUMP JUMPDEST SWAP2 POP PUSH2 0x40E5 DUP3 PUSH2 0x40A6 JUMP JUMPDEST PUSH1 0x20 DUP3 ADD SWAP1 POP SWAP2 SWAP1 POP JUMP JUMPDEST PUSH0 PUSH1 0x20 DUP3 ADD SWAP1 POP DUP2 DUP2 SUB PUSH0 DUP4 ADD MSTORE PUSH2 0x4107 DUP2 PUSH2 0x40CE JUMP JUMPDEST SWAP1 POP SWAP2 SWAP1 POP JUMP JUMPDEST PUSH32 0x6573746174652061726573746564000000000000000000000000000000000000 PUSH0 DUP3 ADD MSTORE POP JUMP JUMPDEST PUSH0 PUSH2 0x4142 PUSH1 0xE DUP4 PUSH2 0x2FFD JUMP JUMPDEST SWAP2 POP PUSH2 0x414D DUP3 PUSH2 0x410E JUMP JUMPDEST PUSH1 0x20 DUP3 ADD SWAP1 POP SWAP2 SWAP1 POP JUMP JUMPDEST PUSH0 PUSH1 0x20 DUP3 ADD SWAP1 POP DUP2 DUP2 SUB PUSH0 DUP4 ADD MSTORE PUSH2 0x416F DUP2 PUSH2 0x4136 JUMP JUMPDEST SWAP1 POP SWAP2 SWAP1 POP JUMP JUMPDEST PUSH32 0x73656C662073616C650000000000000000000000000000000000000000000000 PUSH0 DUP3 ADD MSTORE POP JUMP JUMPDEST PUSH0 PUSH2 0x41AA PUSH1 0x9 DUP4 PUSH2 0x2FFD JUMP JUMPDEST SWAP2 POP PUSH2 0x41B5 DUP3 PUSH2 0x4176 JUMP JUMPDEST PUSH1 0x20 DUP3 ADD SWAP1 POP SWAP2 SWAP1 POP JUMP JUMPDEST PUSH0 PUSH1 0x20 DUP3 ADD SWAP1 POP DUP2 DUP2 SUB PUSH0 DUP4 ADD MSTORE PUSH2 0x41D7 DUP2 PUSH2 0x419E JUMP JUMPDEST SWAP1 POP SWAP2 SWAP1 POP JUMP JUMPDEST PUSH32 0x77726F6E67206574682076616C75650000000000000000000000000000000000 PUSH0 DUP3 ADD MSTORE POP JUMP JUMPDEST PUSH0 PUSH2 0x4212 PUSH1 0xF DUP4 PUSH2 0x2FFD JUMP JUMPDEST SWAP2 POP PUSH2 0x421D DUP3 PUSH2 0x41DE JUMP JUMPDEST PUSH1 0x20 DUP3 ADD SWAP1 POP SWAP2 SWAP1 POP JUMP JUMPDEST PUSH0 PUSH1 0x20 DUP3 ADD SWAP1 POP DUP2 DUP2 SUB PUSH0 DUP4 ADD MSTORE PUSH2 0x423F DUP2 PUSH2 0x4206 JUMP JUMPDEST SWAP1 POP SWAP2 SWAP1 POP JUMP JUMPDEST PUSH32 0x796F7520616C726561647920696E207072696365730000000000000000000000 PUSH0 DUP3 ADD MSTORE POP JUMP JUMPDEST PUSH0 PUSH2 0x427A PUSH1 0x15 DUP4 PUSH2 0x2FFD JUMP JUMPDEST SWAP2 POP PUSH2 0x4285 DUP3 PUSH2 0x4246 JUMP JUMPDEST PUSH1 0x20 DUP3 ADD SWAP1 POP SWAP2 SWAP1 POP JUMP JUMPDEST PUSH0 PUSH1 0x20 DUP3 ADD SWAP1 POP DUP2 DUP2 SUB PUSH0 DUP4 ADD MSTORE PUSH2 0x42A7 DUP2 PUSH2 0x426E JUMP JUMPDEST SWAP1 POP SWAP2 SWAP1 POP JUMP INVALID LOG2 PUSH5 0x6970667358 0x22 SLT KECCAK256 0xCE DUP12 EXTCODEHASH 0x26 0xEE 0xC0 0x23 LOG2 BLOCKHASH PUSH9 0x41EE8E54D5A8FF6782 0x29 0xF9 SWAP12 SAR PUSH23 0xEC800B82D86DF7B564736F6C634300081A003300000000 "
				},
				"gasEstimates": {
					"creation": {
						"codeDepositCost": "3424800",
						"executionCost": "infinite",
						"totalCost": "infinite"
					},
					"external": {
						"acceptGift(uint256)": "103774",
						"addPrice(uint256)": "infinite",
						"addPrice(uint256,uint256)": "infinite",
						"admin()": "2618",
						"buildings(uint256)": "infinite",
						"cancelGift(uint256)": "72902",
						"canelSale(uint256)": "infinite",
						"changeAREST(uint256,bool)": "33697",
						"createBuild(address,string,uint256)": "infinite",
						"createGift(uint256,address)": "infinite",
						"createSale(uint256,uint256)": "infinite",
						"deletePrice(uint256)": "infinite",
						"getBuyers(uint256)": "infinite",
						"getPrices(uint256)": "infinite",
						"giftTime()": "2471",
						"gifts(uint256)": "infinite",
						"refuseGift(uint256)": "72945",
						"sales(uint256)": "infinite"
					}
				},
				"methodIdentifiers": {
					"acceptGift(uint256)": "d0ab383a",
					"addPrice(uint256)": "e9f0ee56",
					"addPrice(uint256,uint256)": "57279353",
					"admin()": "f851a440",
					"buildings(uint256)": "4c96a062",
					"cancelGift(uint256)": "8ee69ae8",
					"canelSale(uint256)": "8e821ca2",
					"changeAREST(uint256,bool)": "06238e6e",
					"createBuild(address,string,uint256)": "9a22ed8f",
					"createGift(uint256,address)": "58c97164",
					"createSale(uint256,uint256)": "6019061b",
					"deletePrice(uint256)": "2a50fe2c",
					"getBuyers(uint256)": "7feafd20",
					"getPrices(uint256)": "91492956",
					"giftTime()": "0a483421",
					"gifts(uint256)": "d6065935",
					"refuseGift(uint256)": "db4c049d",
					"sales(uint256)": "b5f522f7"
				}
			},
			"storageLayout": {
				"storage": [
					{
						"astId": 55,
						"contract": "contracts/agency.sol:BuildAgency",
						"label": "buildings",
						"offset": 0,
						"slot": "0",
						"type": "t_array(t_struct(Build)16_storage)dyn_storage"
					},
					{
						"astId": 59,
						"contract": "contracts/agency.sol:BuildAgency",
						"label": "gifts",
						"offset": 0,
						"slot": "1",
						"type": "t_array(t_struct(Gift)30_storage)dyn_storage"
					},
					{
						"astId": 63,
						"contract": "contracts/agency.sol:BuildAgency",
						"label": "sales",
						"offset": 0,
						"slot": "2",
						"type": "t_array(t_struct(Sale)45_storage)dyn_storage"
					},
					{
						"astId": 65,
						"contract": "contracts/agency.sol:BuildAgency",
						"label": "admin",
						"offset": 0,
						"slot": "3",
						"type": "t_address"
					},
					{
						"astId": 68,
						"contract": "contracts/agency.sol:BuildAgency",
						"label": "giftTime",
						"offset": 0,
						"slot": "4",
						"type": "t_uint256"
					}
				],
				"types": {
					"t_address": {
						"encoding": "inplace",
						"label": "address",
						"numberOfBytes": "20"
					},
					"t_array(t_address)dyn_storage": {
						"base": "t_address",
						"encoding": "dynamic_array",
						"label": "address[]",
						"numberOfBytes": "32"
					},
					"t_array(t_struct(Build)16_storage)dyn_storage": {
						"base": "t_struct(Build)16_storage",
						"encoding": "dynamic_array",
						"label": "struct BuildAgency.Build[]",
						"numberOfBytes": "32"
					},
					"t_array(t_struct(Gift)30_storage)dyn_storage": {
						"base": "t_struct(Gift)30_storage",
						"encoding": "dynamic_array",
						"label": "struct BuildAgency.Gift[]",
						"numberOfBytes": "32"
					},
					"t_array(t_struct(Sale)45_storage)dyn_storage": {
						"base": "t_struct(Sale)45_storage",
						"encoding": "dynamic_array",
						"label": "struct BuildAgency.Sale[]",
						"numberOfBytes": "32"
					},
					"t_array(t_uint256)dyn_storage": {
						"base": "t_uint256",
						"encoding": "dynamic_array",
						"label": "uint256[]",
						"numberOfBytes": "32"
					},
					"t_bool": {
						"encoding": "inplace",
						"label": "bool",
						"numberOfBytes": "1"
					},
					"t_enum(giftSTAT)51": {
						"encoding": "inplace",
						"label": "enum BuildAgency.giftSTAT",
						"numberOfBytes": "1"
					},
					"t_string_storage": {
						"encoding": "bytes",
						"label": "string",
						"numberOfBytes": "32"
					},
					"t_struct(Build)16_storage": {
						"encoding": "inplace",
						"label": "struct BuildAgency.Build",
						"members": [
							{
								"astId": 3,
								"contract": "contracts/agency.sol:BuildAgency",
								"label": "buildID",
								"offset": 0,
								"slot": "0",
								"type": "t_uint256"
							},
							{
								"astId": 5,
								"contract": "contracts/agency.sol:BuildAgency",
								"label": "owner",
								"offset": 0,
								"slot": "1",
								"type": "t_address"
							},
							{
								"astId": 7,
								"contract": "contracts/agency.sol:BuildAgency",
								"label": "info",
								"offset": 0,
								"slot": "2",
								"type": "t_string_storage"
							},
							{
								"astId": 9,
								"contract": "contracts/agency.sol:BuildAgency",
								"label": "square",
								"offset": 0,
								"slot": "3",
								"type": "t_uint256"
							},
							{
								"astId": 11,
								"contract": "contracts/agency.sol:BuildAgency",
								"label": "giftSTATE",
								"offset": 0,
								"slot": "4",
								"type": "t_bool"
							},
							{
								"astId": 13,
								"contract": "contracts/agency.sol:BuildAgency",
								"label": "saleSTATE",
								"offset": 1,
								"slot": "4",
								"type": "t_bool"
							},
							{
								"astId": 15,
								"contract": "contracts/agency.sol:BuildAgency",
								"label": "arestSTATE",
								"offset": 2,
								"slot": "4",
								"type": "t_bool"
							}
						],
						"numberOfBytes": "160"
					},
					"t_struct(Gift)30_storage": {
						"encoding": "inplace",
						"label": "struct BuildAgency.Gift",
						"members": [
							{
								"astId": 18,
								"contract": "contracts/agency.sol:BuildAgency",
								"label": "giftID",
								"offset": 0,
								"slot": "0",
								"type": "t_uint256"
							},
							{
								"astId": 20,
								"contract": "contracts/agency.sol:BuildAgency",
								"label": "buildID",
								"offset": 0,
								"slot": "1",
								"type": "t_uint256"
							},
							{
								"astId": 22,
								"contract": "contracts/agency.sol:BuildAgency",
								"label": "_adrFrom",
								"offset": 0,
								"slot": "2",
								"type": "t_address"
							},
							{
								"astId": 24,
								"contract": "contracts/agency.sol:BuildAgency",
								"label": "_adrTo",
								"offset": 0,
								"slot": "3",
								"type": "t_address"
							},
							{
								"astId": 26,
								"contract": "contracts/agency.sol:BuildAgency",
								"label": "time",
								"offset": 0,
								"slot": "4",
								"type": "t_uint256"
							},
							{
								"astId": 29,
								"contract": "contracts/agency.sol:BuildAgency",
								"label": "status",
								"offset": 0,
								"slot": "5",
								"type": "t_enum(giftSTAT)51"
							}
						],
						"numberOfBytes": "192"
					},
					"t_struct(Sale)45_storage": {
						"encoding": "inplace",
						"label": "struct BuildAgency.Sale",
						"members": [
							{
								"astId": 32,
								"contract": "contracts/agency.sol:BuildAgency",
								"label": "buildID",
								"offset": 0,
								"slot": "0",
								"type": "t_uint256"
							},
							{
								"astId": 34,
								"contract": "contracts/agency.sol:BuildAgency",
								"label": "owner",
								"offset": 0,
								"slot": "1",
								"type": "t_address"
							},
							{
								"astId": 36,
								"contract": "contracts/agency.sol:BuildAgency",
								"label": "newOwner",
								"offset": 0,
								"slot": "2",
								"type": "t_address"
							},
							{
								"astId": 38,
								"contract": "contracts/agency.sol:BuildAgency",
								"label": "price",
								"offset": 0,
								"slot": "3",
								"type": "t_uint256"
							},
							{
								"astId": 41,
								"contract": "contracts/agency.sol:BuildAgency",
								"label": "buyers",
								"offset": 0,
								"slot": "4",
								"type": "t_array(t_address)dyn_storage"
							},
							{
								"astId": 44,
								"contract": "contracts/agency.sol:BuildAgency",
								"label": "prices",
								"offset": 0,
								"slot": "5",
								"type": "t_array(t_uint256)dyn_storage"
							}
						],
						"numberOfBytes": "192"
					},
					"t_uint256": {
						"encoding": "inplace",
						"label": "uint256",
						"numberOfBytes": "32"
					}
				}
			},
			"userdoc": {
				"kind": "user",
				"methods": {},
				"version": 1
			}
		}
	}
}